{
	"day4/Function.sol": {
		"Function": {
			"abi": [
				{
					"inputs": [
						{
							"internalType": "uint256",
							"name": "a",
							"type": "uint256"
						},
						{
							"internalType": "uint256",
							"name": "b",
							"type": "uint256"
						},
						{
							"internalType": "uint256",
							"name": "c",
							"type": "uint256"
						}
					],
					"name": "add",
					"outputs": [
						{
							"internalType": "uint256",
							"name": "",
							"type": "uint256"
						}
					],
					"stateMutability": "nonpayable",
					"type": "function"
				},
				{
					"inputs": [
						{
							"internalType": "uint256",
							"name": "a",
							"type": "uint256"
						},
						{
							"internalType": "uint256",
							"name": "b",
							"type": "uint256"
						}
					],
					"name": "add",
					"outputs": [
						{
							"internalType": "uint256",
							"name": "",
							"type": "uint256"
						}
					],
					"stateMutability": "nonpayable",
					"type": "function"
				}
			],
			"devdoc": {
				"kind": "dev",
				"methods": {},
				"version": 1
			},
			"evm": {
				"assembly": "    /* \"day4/Function.sol\":30:235  contract Function{... */\n  mstore(0x40, 0x80)\n  callvalue\n  dup1\n  iszero\n  tag_1\n  jumpi\n  0x00\n  dup1\n  revert\ntag_1:\n  pop\n  dataSize(sub_0)\n  dup1\n  dataOffset(sub_0)\n  0x00\n  codecopy\n  0x00\n  return\nstop\n\nsub_0: assembly {\n        /* \"day4/Function.sol\":30:235  contract Function{... */\n      mstore(0x40, 0x80)\n      callvalue\n      dup1\n      iszero\n      tag_1\n      jumpi\n      0x00\n      dup1\n      revert\n    tag_1:\n      pop\n      jumpi(tag_2, lt(calldatasize, 0x04))\n      shr(0xe0, calldataload(0x00))\n      dup1\n      0x505fb46c\n      eq\n      tag_3\n      jumpi\n      dup1\n      0x771602f7\n      eq\n      tag_4\n      jumpi\n    tag_2:\n      0x00\n      dup1\n      revert\n        /* \"day4/Function.sol\":144:232  function add(uint a, uint b,uint c) public returns (uint){... */\n    tag_3:\n      tag_5\n      0x04\n      dup1\n      calldatasize\n      sub\n      dup2\n      add\n      swap1\n      tag_6\n      swap2\n      swap1\n      tag_7\n      jump\t// in\n    tag_6:\n      tag_8\n      jump\t// in\n    tag_5:\n      mload(0x40)\n      tag_9\n      swap2\n      swap1\n      tag_10\n      jump\t// in\n    tag_9:\n      mload(0x40)\n      dup1\n      swap2\n      sub\n      swap1\n      return\n        /* \"day4/Function.sol\":56:135  function add(uint a, uint b) public returns (uint){... */\n    tag_4:\n      tag_11\n      0x04\n      dup1\n      calldatasize\n      sub\n      dup2\n      add\n      swap1\n      tag_12\n      swap2\n      swap1\n      tag_13\n      jump\t// in\n    tag_12:\n      tag_14\n      jump\t// in\n    tag_11:\n      mload(0x40)\n      tag_15\n      swap2\n      swap1\n      tag_10\n      jump\t// in\n    tag_15:\n      mload(0x40)\n      dup1\n      swap2\n      sub\n      swap1\n      return\n        /* \"day4/Function.sol\":144:232  function add(uint a, uint b,uint c) public returns (uint){... */\n    tag_8:\n        /* \"day4/Function.sol\":196:200  uint */\n      0x00\n        /* \"day4/Function.sol\":223:224  c */\n      dup2\n        /* \"day4/Function.sol\":221:222  b */\n      dup4\n        /* \"day4/Function.sol\":219:220  a */\n      dup6\n        /* \"day4/Function.sol\":219:222  a+b */\n      tag_17\n      swap2\n      swap1\n      tag_18\n      jump\t// in\n    tag_17:\n        /* \"day4/Function.sol\":219:224  a+b+c */\n      tag_19\n      swap2\n      swap1\n      tag_18\n      jump\t// in\n    tag_19:\n        /* \"day4/Function.sol\":212:224  return a+b+c */\n      swap1\n      pop\n        /* \"day4/Function.sol\":144:232  function add(uint a, uint b,uint c) public returns (uint){... */\n      swap4\n      swap3\n      pop\n      pop\n      pop\n      jump\t// out\n        /* \"day4/Function.sol\":56:135  function add(uint a, uint b) public returns (uint){... */\n    tag_14:\n        /* \"day4/Function.sol\":101:105  uint */\n      0x00\n        /* \"day4/Function.sol\":126:127  b */\n      dup2\n        /* \"day4/Function.sol\":124:125  a */\n      dup4\n        /* \"day4/Function.sol\":124:127  a+b */\n      tag_21\n      swap2\n      swap1\n      tag_18\n      jump\t// in\n    tag_21:\n        /* \"day4/Function.sol\":117:127  return a+b */\n      swap1\n      pop\n        /* \"day4/Function.sol\":56:135  function add(uint a, uint b) public returns (uint){... */\n      swap3\n      swap2\n      pop\n      pop\n      jump\t// out\n        /* \"#utility.yul\":88:205   */\n    tag_23:\n        /* \"#utility.yul\":197:198   */\n      0x00\n        /* \"#utility.yul\":194:195   */\n      dup1\n        /* \"#utility.yul\":187:199   */\n      revert\n        /* \"#utility.yul\":334:411   */\n    tag_25:\n        /* \"#utility.yul\":371:378   */\n      0x00\n        /* \"#utility.yul\":400:405   */\n      dup2\n        /* \"#utility.yul\":389:405   */\n      swap1\n      pop\n        /* \"#utility.yul\":334:411   */\n      swap2\n      swap1\n      pop\n      jump\t// out\n        /* \"#utility.yul\":417:539   */\n    tag_26:\n        /* \"#utility.yul\":490:514   */\n      tag_36\n        /* \"#utility.yul\":508:513   */\n      dup2\n        /* \"#utility.yul\":490:514   */\n      tag_25\n      jump\t// in\n    tag_36:\n        /* \"#utility.yul\":483:488   */\n      dup2\n        /* \"#utility.yul\":480:515   */\n      eq\n        /* \"#utility.yul\":470:533   */\n      tag_37\n      jumpi\n        /* \"#utility.yul\":529:530   */\n      0x00\n        /* \"#utility.yul\":526:527   */\n      dup1\n        /* \"#utility.yul\":519:531   */\n      revert\n        /* \"#utility.yul\":470:533   */\n    tag_37:\n        /* \"#utility.yul\":417:539   */\n      pop\n      jump\t// out\n        /* \"#utility.yul\":545:684   */\n    tag_27:\n        /* \"#utility.yul\":591:596   */\n      0x00\n        /* \"#utility.yul\":629:635   */\n      dup2\n        /* \"#utility.yul\":616:636   */\n      calldataload\n        /* \"#utility.yul\":607:636   */\n      swap1\n      pop\n        /* \"#utility.yul\":645:678   */\n      tag_39\n        /* \"#utility.yul\":672:677   */\n      dup2\n        /* \"#utility.yul\":645:678   */\n      tag_26\n      jump\t// in\n    tag_39:\n        /* \"#utility.yul\":545:684   */\n      swap3\n      swap2\n      pop\n      pop\n      jump\t// out\n        /* \"#utility.yul\":690:1309   */\n    tag_7:\n        /* \"#utility.yul\":767:773   */\n      0x00\n        /* \"#utility.yul\":775:781   */\n      dup1\n        /* \"#utility.yul\":783:789   */\n      0x00\n        /* \"#utility.yul\":832:834   */\n      0x60\n        /* \"#utility.yul\":820:829   */\n      dup5\n        /* \"#utility.yul\":811:818   */\n      dup7\n        /* \"#utility.yul\":807:830   */\n      sub\n        /* \"#utility.yul\":803:835   */\n      slt\n        /* \"#utility.yul\":800:919   */\n      iszero\n      tag_41\n      jumpi\n        /* \"#utility.yul\":838:917   */\n      tag_42\n      tag_23\n      jump\t// in\n    tag_42:\n        /* \"#utility.yul\":800:919   */\n    tag_41:\n        /* \"#utility.yul\":958:959   */\n      0x00\n        /* \"#utility.yul\":983:1036   */\n      tag_43\n        /* \"#utility.yul\":1028:1035   */\n      dup7\n        /* \"#utility.yul\":1019:1025   */\n      dup3\n        /* \"#utility.yul\":1008:1017   */\n      dup8\n        /* \"#utility.yul\":1004:1026   */\n      add\n        /* \"#utility.yul\":983:1036   */\n      tag_27\n      jump\t// in\n    tag_43:\n        /* \"#utility.yul\":973:1036   */\n      swap4\n      pop\n        /* \"#utility.yul\":929:1046   */\n      pop\n        /* \"#utility.yul\":1085:1087   */\n      0x20\n        /* \"#utility.yul\":1111:1164   */\n      tag_44\n        /* \"#utility.yul\":1156:1163   */\n      dup7\n        /* \"#utility.yul\":1147:1153   */\n      dup3\n        /* \"#utility.yul\":1136:1145   */\n      dup8\n        /* \"#utility.yul\":1132:1154   */\n      add\n        /* \"#utility.yul\":1111:1164   */\n      tag_27\n      jump\t// in\n    tag_44:\n        /* \"#utility.yul\":1101:1164   */\n      swap3\n      pop\n        /* \"#utility.yul\":1056:1174   */\n      pop\n        /* \"#utility.yul\":1213:1215   */\n      0x40\n        /* \"#utility.yul\":1239:1292   */\n      tag_45\n        /* \"#utility.yul\":1284:1291   */\n      dup7\n        /* \"#utility.yul\":1275:1281   */\n      dup3\n        /* \"#utility.yul\":1264:1273   */\n      dup8\n        /* \"#utility.yul\":1260:1282   */\n      add\n        /* \"#utility.yul\":1239:1292   */\n      tag_27\n      jump\t// in\n    tag_45:\n        /* \"#utility.yul\":1229:1292   */\n      swap2\n      pop\n        /* \"#utility.yul\":1184:1302   */\n      pop\n        /* \"#utility.yul\":690:1309   */\n      swap3\n      pop\n      swap3\n      pop\n      swap3\n      jump\t// out\n        /* \"#utility.yul\":1315:1433   */\n    tag_28:\n        /* \"#utility.yul\":1402:1426   */\n      tag_47\n        /* \"#utility.yul\":1420:1425   */\n      dup2\n        /* \"#utility.yul\":1402:1426   */\n      tag_25\n      jump\t// in\n    tag_47:\n        /* \"#utility.yul\":1397:1400   */\n      dup3\n        /* \"#utility.yul\":1390:1427   */\n      mstore\n        /* \"#utility.yul\":1315:1433   */\n      pop\n      pop\n      jump\t// out\n        /* \"#utility.yul\":1439:1661   */\n    tag_10:\n        /* \"#utility.yul\":1532:1536   */\n      0x00\n        /* \"#utility.yul\":1570:1572   */\n      0x20\n        /* \"#utility.yul\":1559:1568   */\n      dup3\n        /* \"#utility.yul\":1555:1573   */\n      add\n        /* \"#utility.yul\":1547:1573   */\n      swap1\n      pop\n        /* \"#utility.yul\":1583:1654   */\n      tag_49\n        /* \"#utility.yul\":1651:1652   */\n      0x00\n        /* \"#utility.yul\":1640:1649   */\n      dup4\n        /* \"#utility.yul\":1636:1653   */\n      add\n        /* \"#utility.yul\":1627:1633   */\n      dup5\n        /* \"#utility.yul\":1583:1654   */\n      tag_28\n      jump\t// in\n    tag_49:\n        /* \"#utility.yul\":1439:1661   */\n      swap3\n      swap2\n      pop\n      pop\n      jump\t// out\n        /* \"#utility.yul\":1667:2141   */\n    tag_13:\n        /* \"#utility.yul\":1735:1741   */\n      0x00\n        /* \"#utility.yul\":1743:1749   */\n      dup1\n        /* \"#utility.yul\":1792:1794   */\n      0x40\n        /* \"#utility.yul\":1780:1789   */\n      dup4\n        /* \"#utility.yul\":1771:1778   */\n      dup6\n        /* \"#utility.yul\":1767:1790   */\n      sub\n        /* \"#utility.yul\":1763:1795   */\n      slt\n        /* \"#utility.yul\":1760:1879   */\n      iszero\n      tag_51\n      jumpi\n        /* \"#utility.yul\":1798:1877   */\n      tag_52\n      tag_23\n      jump\t// in\n    tag_52:\n        /* \"#utility.yul\":1760:1879   */\n    tag_51:\n        /* \"#utility.yul\":1918:1919   */\n      0x00\n        /* \"#utility.yul\":1943:1996   */\n      tag_53\n        /* \"#utility.yul\":1988:1995   */\n      dup6\n        /* \"#utility.yul\":1979:1985   */\n      dup3\n        /* \"#utility.yul\":1968:1977   */\n      dup7\n        /* \"#utility.yul\":1964:1986   */\n      add\n        /* \"#utility.yul\":1943:1996   */\n      tag_27\n      jump\t// in\n    tag_53:\n        /* \"#utility.yul\":1933:1996   */\n      swap3\n      pop\n        /* \"#utility.yul\":1889:2006   */\n      pop\n        /* \"#utility.yul\":2045:2047   */\n      0x20\n        /* \"#utility.yul\":2071:2124   */\n      tag_54\n        /* \"#utility.yul\":2116:2123   */\n      dup6\n        /* \"#utility.yul\":2107:2113   */\n      dup3\n        /* \"#utility.yul\":2096:2105   */\n      dup7\n        /* \"#utility.yul\":2092:2114   */\n      add\n        /* \"#utility.yul\":2071:2124   */\n      tag_27\n      jump\t// in\n    tag_54:\n        /* \"#utility.yul\":2061:2124   */\n      swap2\n      pop\n        /* \"#utility.yul\":2016:2134   */\n      pop\n        /* \"#utility.yul\":1667:2141   */\n      swap3\n      pop\n      swap3\n      swap1\n      pop\n      jump\t// out\n        /* \"#utility.yul\":2147:2327   */\n    tag_29:\n        /* \"#utility.yul\":2195:2272   */\n      0x4e487b7100000000000000000000000000000000000000000000000000000000\n        /* \"#utility.yul\":2192:2193   */\n      0x00\n        /* \"#utility.yul\":2185:2273   */\n      mstore\n        /* \"#utility.yul\":2292:2296   */\n      0x11\n        /* \"#utility.yul\":2289:2290   */\n      0x04\n        /* \"#utility.yul\":2282:2297   */\n      mstore\n        /* \"#utility.yul\":2316:2320   */\n      0x24\n        /* \"#utility.yul\":2313:2314   */\n      0x00\n        /* \"#utility.yul\":2306:2321   */\n      revert\n        /* \"#utility.yul\":2333:2524   */\n    tag_18:\n        /* \"#utility.yul\":2373:2376   */\n      0x00\n        /* \"#utility.yul\":2392:2412   */\n      tag_57\n        /* \"#utility.yul\":2410:2411   */\n      dup3\n        /* \"#utility.yul\":2392:2412   */\n      tag_25\n      jump\t// in\n    tag_57:\n        /* \"#utility.yul\":2387:2412   */\n      swap2\n      pop\n        /* \"#utility.yul\":2426:2446   */\n      tag_58\n        /* \"#utility.yul\":2444:2445   */\n      dup4\n        /* \"#utility.yul\":2426:2446   */\n      tag_25\n      jump\t// in\n    tag_58:\n        /* \"#utility.yul\":2421:2446   */\n      swap3\n      pop\n        /* \"#utility.yul\":2469:2470   */\n      dup3\n        /* \"#utility.yul\":2466:2467   */\n      dup3\n        /* \"#utility.yul\":2462:2471   */\n      add\n        /* \"#utility.yul\":2455:2471   */\n      swap1\n      pop\n        /* \"#utility.yul\":2490:2493   */\n      dup1\n        /* \"#utility.yul\":2487:2488   */\n      dup3\n        /* \"#utility.yul\":2484:2494   */\n      gt\n        /* \"#utility.yul\":2481:2517   */\n      iszero\n      tag_59\n      jumpi\n        /* \"#utility.yul\":2497:2515   */\n      tag_60\n      tag_29\n      jump\t// in\n    tag_60:\n        /* \"#utility.yul\":2481:2517   */\n    tag_59:\n        /* \"#utility.yul\":2333:2524   */\n      swap3\n      swap2\n      pop\n      pop\n      jump\t// out\n\n    auxdata: 0xa2646970667358221220f0054941e2a6132f130ad193e47b6fd2069226db99f343a3ed5e2caf0c3cf8ca64736f6c63430008110033\n}\n",
				"bytecode": {
					"linkReferences": {},
					"object": "608060405234801561001057600080fd5b50610264806100206000396000f3fe608060405234801561001057600080fd5b50600436106100365760003560e01c8063505fb46c1461003b578063771602f71461006b575b600080fd5b6100556004803603810190610050919061010e565b61009b565b6040516100629190610170565b60405180910390f35b6100856004803603810190610080919061018b565b6100bd565b6040516100929190610170565b60405180910390f35b60008183856100aa91906101fa565b6100b491906101fa565b90509392505050565b600081836100cb91906101fa565b905092915050565b600080fd5b6000819050919050565b6100eb816100d8565b81146100f657600080fd5b50565b600081359050610108816100e2565b92915050565b600080600060608486031215610127576101266100d3565b5b6000610135868287016100f9565b9350506020610146868287016100f9565b9250506040610157868287016100f9565b9150509250925092565b61016a816100d8565b82525050565b60006020820190506101856000830184610161565b92915050565b600080604083850312156101a2576101a16100d3565b5b60006101b0858286016100f9565b92505060206101c1858286016100f9565b9150509250929050565b7f4e487b7100000000000000000000000000000000000000000000000000000000600052601160045260246000fd5b6000610205826100d8565b9150610210836100d8565b9250828201905080821115610228576102276101cb565b5b9291505056fea2646970667358221220f0054941e2a6132f130ad193e47b6fd2069226db99f343a3ed5e2caf0c3cf8ca64736f6c63430008110033",
					"opcodes": "PUSH1 0x80 PUSH1 0x40 MSTORE CALLVALUE DUP1 ISZERO PUSH2 0x10 JUMPI PUSH1 0x0 DUP1 REVERT JUMPDEST POP PUSH2 0x264 DUP1 PUSH2 0x20 PUSH1 0x0 CODECOPY PUSH1 0x0 RETURN INVALID PUSH1 0x80 PUSH1 0x40 MSTORE CALLVALUE DUP1 ISZERO PUSH2 0x10 JUMPI PUSH1 0x0 DUP1 REVERT JUMPDEST POP PUSH1 0x4 CALLDATASIZE LT PUSH2 0x36 JUMPI PUSH1 0x0 CALLDATALOAD PUSH1 0xE0 SHR DUP1 PUSH4 0x505FB46C EQ PUSH2 0x3B JUMPI DUP1 PUSH4 0x771602F7 EQ PUSH2 0x6B JUMPI JUMPDEST PUSH1 0x0 DUP1 REVERT JUMPDEST PUSH2 0x55 PUSH1 0x4 DUP1 CALLDATASIZE SUB DUP2 ADD SWAP1 PUSH2 0x50 SWAP2 SWAP1 PUSH2 0x10E JUMP JUMPDEST PUSH2 0x9B JUMP JUMPDEST PUSH1 0x40 MLOAD PUSH2 0x62 SWAP2 SWAP1 PUSH2 0x170 JUMP JUMPDEST PUSH1 0x40 MLOAD DUP1 SWAP2 SUB SWAP1 RETURN JUMPDEST PUSH2 0x85 PUSH1 0x4 DUP1 CALLDATASIZE SUB DUP2 ADD SWAP1 PUSH2 0x80 SWAP2 SWAP1 PUSH2 0x18B JUMP JUMPDEST PUSH2 0xBD JUMP JUMPDEST PUSH1 0x40 MLOAD PUSH2 0x92 SWAP2 SWAP1 PUSH2 0x170 JUMP JUMPDEST PUSH1 0x40 MLOAD DUP1 SWAP2 SUB SWAP1 RETURN JUMPDEST PUSH1 0x0 DUP2 DUP4 DUP6 PUSH2 0xAA SWAP2 SWAP1 PUSH2 0x1FA JUMP JUMPDEST PUSH2 0xB4 SWAP2 SWAP1 PUSH2 0x1FA JUMP JUMPDEST SWAP1 POP SWAP4 SWAP3 POP POP POP JUMP JUMPDEST PUSH1 0x0 DUP2 DUP4 PUSH2 0xCB SWAP2 SWAP1 PUSH2 0x1FA JUMP JUMPDEST SWAP1 POP SWAP3 SWAP2 POP POP JUMP JUMPDEST PUSH1 0x0 DUP1 REVERT JUMPDEST PUSH1 0x0 DUP2 SWAP1 POP SWAP2 SWAP1 POP JUMP JUMPDEST PUSH2 0xEB DUP2 PUSH2 0xD8 JUMP JUMPDEST DUP2 EQ PUSH2 0xF6 JUMPI PUSH1 0x0 DUP1 REVERT JUMPDEST POP JUMP JUMPDEST PUSH1 0x0 DUP2 CALLDATALOAD SWAP1 POP PUSH2 0x108 DUP2 PUSH2 0xE2 JUMP JUMPDEST SWAP3 SWAP2 POP POP JUMP JUMPDEST PUSH1 0x0 DUP1 PUSH1 0x0 PUSH1 0x60 DUP5 DUP7 SUB SLT ISZERO PUSH2 0x127 JUMPI PUSH2 0x126 PUSH2 0xD3 JUMP JUMPDEST JUMPDEST PUSH1 0x0 PUSH2 0x135 DUP7 DUP3 DUP8 ADD PUSH2 0xF9 JUMP JUMPDEST SWAP4 POP POP PUSH1 0x20 PUSH2 0x146 DUP7 DUP3 DUP8 ADD PUSH2 0xF9 JUMP JUMPDEST SWAP3 POP POP PUSH1 0x40 PUSH2 0x157 DUP7 DUP3 DUP8 ADD PUSH2 0xF9 JUMP JUMPDEST SWAP2 POP POP SWAP3 POP SWAP3 POP SWAP3 JUMP JUMPDEST PUSH2 0x16A DUP2 PUSH2 0xD8 JUMP JUMPDEST DUP3 MSTORE POP POP JUMP JUMPDEST PUSH1 0x0 PUSH1 0x20 DUP3 ADD SWAP1 POP PUSH2 0x185 PUSH1 0x0 DUP4 ADD DUP5 PUSH2 0x161 JUMP JUMPDEST SWAP3 SWAP2 POP POP JUMP JUMPDEST PUSH1 0x0 DUP1 PUSH1 0x40 DUP4 DUP6 SUB SLT ISZERO PUSH2 0x1A2 JUMPI PUSH2 0x1A1 PUSH2 0xD3 JUMP JUMPDEST JUMPDEST PUSH1 0x0 PUSH2 0x1B0 DUP6 DUP3 DUP7 ADD PUSH2 0xF9 JUMP JUMPDEST SWAP3 POP POP PUSH1 0x20 PUSH2 0x1C1 DUP6 DUP3 DUP7 ADD PUSH2 0xF9 JUMP JUMPDEST SWAP2 POP POP SWAP3 POP SWAP3 SWAP1 POP JUMP JUMPDEST PUSH32 0x4E487B7100000000000000000000000000000000000000000000000000000000 PUSH1 0x0 MSTORE PUSH1 0x11 PUSH1 0x4 MSTORE PUSH1 0x24 PUSH1 0x0 REVERT JUMPDEST PUSH1 0x0 PUSH2 0x205 DUP3 PUSH2 0xD8 JUMP JUMPDEST SWAP2 POP PUSH2 0x210 DUP4 PUSH2 0xD8 JUMP JUMPDEST SWAP3 POP DUP3 DUP3 ADD SWAP1 POP DUP1 DUP3 GT ISZERO PUSH2 0x228 JUMPI PUSH2 0x227 PUSH2 0x1CB JUMP JUMPDEST JUMPDEST SWAP3 SWAP2 POP POP JUMP INVALID LOG2 PUSH5 0x6970667358 0x22 SLT KECCAK256 CREATE SDIV 0x49 COINBASE 0xE2 0xA6 SGT 0x2F SGT EXP 0xD1 SWAP4 0xE4 PUSH28 0x6FD2069226DB99F343A3ED5E2CAF0C3CF8CA64736F6C634300081100 CALLER "
				},
				"gasEstimates": {
					"creation": {
						"codeDepositCost": "122400",
						"executionCost": "171",
						"totalCost": "122571"
					},
					"external": {
						"add(uint256,uint256)": "infinite",
						"add(uint256,uint256,uint256)": "infinite"
					}
				},
				"methodIdentifiers": {
					"add(uint256,uint256)": "771602f7",
					"add(uint256,uint256,uint256)": "505fb46c"
				}
			},
			"storageLayout": {
				"storage": [],
				"types": null
			},
			"userdoc": {
				"kind": "user",
				"methods": {},
				"version": 1
			}
		}
	}
}