{
	"day4/FunctionSelector.sol": {
		"caller": {
			"abi": [
				{
					"anonymous": false,
					"inputs": [
						{
							"indexed": false,
							"internalType": "bool",
							"name": "success",
							"type": "bool"
						},
						{
							"indexed": false,
							"internalType": "bytes",
							"name": "data",
							"type": "bytes"
						}
					],
					"name": "SelectorLog",
					"type": "event"
				},
				{
					"inputs": [
						{
							"internalType": "address",
							"name": "_addr",
							"type": "address"
						}
					],
					"name": "selectorCall",
					"outputs": [],
					"stateMutability": "nonpayable",
					"type": "function"
				}
			],
			"devdoc": {
				"kind": "dev",
				"methods": {},
				"version": 1
			},
			"evm": {
				"assembly": "    /* \"day4/FunctionSelector.sol\":292:571  contract caller{... */\n  mstore(0x40, 0x80)\n  callvalue\n  dup1\n  iszero\n  tag_1\n  jumpi\n  0x00\n  dup1\n  revert\ntag_1:\n  pop\n  dataSize(sub_0)\n  dup1\n  dataOffset(sub_0)\n  0x00\n  codecopy\n  0x00\n  return\nstop\n\nsub_0: assembly {\n        /* \"day4/FunctionSelector.sol\":292:571  contract caller{... */\n      mstore(0x40, 0x80)\n      callvalue\n      dup1\n      iszero\n      tag_1\n      jumpi\n      0x00\n      dup1\n      revert\n    tag_1:\n      pop\n      jumpi(tag_2, lt(calldatasize, 0x04))\n      shr(0xe0, calldataload(0x00))\n      dup1\n      0x7114e088\n      eq\n      tag_3\n      jumpi\n    tag_2:\n      0x00\n      dup1\n      revert\n        /* \"day4/FunctionSelector.sol\":364:568  function selectorCall(address _addr) public{... */\n    tag_3:\n      tag_4\n      0x04\n      dup1\n      calldatasize\n      sub\n      dup2\n      add\n      swap1\n      tag_5\n      swap2\n      swap1\n      tag_6\n      jump\t// in\n    tag_5:\n      tag_7\n      jump\t// in\n    tag_4:\n      stop\n    tag_7:\n        /* \"day4/FunctionSelector.sol\":418:430  bool success */\n      0x00\n        /* \"day4/FunctionSelector.sol\":432:449  bytes memory data */\n      dup1\n        /* \"day4/FunctionSelector.sol\":454:459  _addr */\n      dup3\n        /* \"day4/FunctionSelector.sol\":454:464  _addr.call */\n      0xffffffffffffffffffffffffffffffffffffffff\n      and\n        /* \"day4/FunctionSelector.sol\":514:515  1 */\n      0x01\n        /* \"day4/FunctionSelector.sol\":516:517  2 */\n      0x02\n        /* \"day4/FunctionSelector.sol\":465:518  abi.encodeWithSignature(\"doSomething(uint,uint)\",1,2) */\n      add(0x24, mload(0x40))\n      tag_9\n      swap3\n      swap2\n      swap1\n      tag_10\n      jump\t// in\n    tag_9:\n      mload(0x40)\n      0x20\n      dup2\n      dup4\n      sub\n      sub\n      dup2\n      mstore\n      swap1\n      0x40\n      mstore\n      and(not(0xffffffffffffffffffffffffffffffffffffffffffffffffffffffff), 0xe0b64c5600000000000000000000000000000000000000000000000000000000)\n      0x20\n      dup3\n      add\n      dup1\n      mload\n      0xffffffffffffffffffffffffffffffffffffffffffffffffffffffff\n      dup4\n      dup2\n      dup4\n      and\n      or\n      dup4\n      mstore\n      pop\n      pop\n      pop\n      pop\n        /* \"day4/FunctionSelector.sol\":454:519  _addr.call(abi.encodeWithSignature(\"doSomething(uint,uint)\",1,2)) */\n      mload(0x40)\n      tag_11\n      swap2\n      swap1\n      tag_12\n      jump\t// in\n    tag_11:\n      0x00\n      mload(0x40)\n      dup1\n      dup4\n      sub\n      dup2\n      0x00\n      dup7\n      gas\n      call\n      swap2\n      pop\n      pop\n      returndatasize\n      dup1\n      0x00\n      dup2\n      eq\n      tag_15\n      jumpi\n      mload(0x40)\n      swap2\n      pop\n      and(add(returndatasize, 0x3f), not(0x1f))\n      dup3\n      add\n      0x40\n      mstore\n      returndatasize\n      dup3\n      mstore\n      returndatasize\n      0x00\n      0x20\n      dup5\n      add\n      returndatacopy\n      jump(tag_14)\n    tag_15:\n      0x60\n      swap2\n      pop\n    tag_14:\n      pop\n        /* \"day4/FunctionSelector.sol\":417:519  (bool success, bytes memory data) =  _addr.call(abi.encodeWithSignature(\"doSomething(uint,uint)\",1,2)) */\n      swap2\n      pop\n      swap2\n      pop\n        /* \"day4/FunctionSelector.sol\":534:560  SelectorLog(success, data) */\n      0x2a47559a25a643abc59a0faff8869aa493ebbd49a2736af6d14cec9208502444\n        /* \"day4/FunctionSelector.sol\":546:553  success */\n      dup3\n        /* \"day4/FunctionSelector.sol\":555:559  data */\n      dup3\n        /* \"day4/FunctionSelector.sol\":534:560  SelectorLog(success, data) */\n      mload(0x40)\n      tag_16\n      swap3\n      swap2\n      swap1\n      tag_17\n      jump\t// in\n    tag_16:\n      mload(0x40)\n      dup1\n      swap2\n      sub\n      swap1\n      log1\n        /* \"day4/FunctionSelector.sol\":407:568  {... */\n      pop\n      pop\n        /* \"day4/FunctionSelector.sol\":364:568  function selectorCall(address _addr) public{... */\n      pop\n      jump\t// out\n        /* \"#utility.yul\":88:205   */\n    tag_19:\n        /* \"#utility.yul\":197:198   */\n      0x00\n        /* \"#utility.yul\":194:195   */\n      dup1\n        /* \"#utility.yul\":187:199   */\n      revert\n        /* \"#utility.yul\":334:460   */\n    tag_21:\n        /* \"#utility.yul\":371:378   */\n      0x00\n        /* \"#utility.yul\":411:453   */\n      0xffffffffffffffffffffffffffffffffffffffff\n        /* \"#utility.yul\":404:409   */\n      dup3\n        /* \"#utility.yul\":400:454   */\n      and\n        /* \"#utility.yul\":389:454   */\n      swap1\n      pop\n        /* \"#utility.yul\":334:460   */\n      swap2\n      swap1\n      pop\n      jump\t// out\n        /* \"#utility.yul\":466:562   */\n    tag_22:\n        /* \"#utility.yul\":503:510   */\n      0x00\n        /* \"#utility.yul\":532:556   */\n      tag_48\n        /* \"#utility.yul\":550:555   */\n      dup3\n        /* \"#utility.yul\":532:556   */\n      tag_21\n      jump\t// in\n    tag_48:\n        /* \"#utility.yul\":521:556   */\n      swap1\n      pop\n        /* \"#utility.yul\":466:562   */\n      swap2\n      swap1\n      pop\n      jump\t// out\n        /* \"#utility.yul\":568:690   */\n    tag_23:\n        /* \"#utility.yul\":641:665   */\n      tag_50\n        /* \"#utility.yul\":659:664   */\n      dup2\n        /* \"#utility.yul\":641:665   */\n      tag_22\n      jump\t// in\n    tag_50:\n        /* \"#utility.yul\":634:639   */\n      dup2\n        /* \"#utility.yul\":631:666   */\n      eq\n        /* \"#utility.yul\":621:684   */\n      tag_51\n      jumpi\n        /* \"#utility.yul\":680:681   */\n      0x00\n        /* \"#utility.yul\":677:678   */\n      dup1\n        /* \"#utility.yul\":670:682   */\n      revert\n        /* \"#utility.yul\":621:684   */\n    tag_51:\n        /* \"#utility.yul\":568:690   */\n      pop\n      jump\t// out\n        /* \"#utility.yul\":696:835   */\n    tag_24:\n        /* \"#utility.yul\":742:747   */\n      0x00\n        /* \"#utility.yul\":780:786   */\n      dup2\n        /* \"#utility.yul\":767:787   */\n      calldataload\n        /* \"#utility.yul\":758:787   */\n      swap1\n      pop\n        /* \"#utility.yul\":796:829   */\n      tag_53\n        /* \"#utility.yul\":823:828   */\n      dup2\n        /* \"#utility.yul\":796:829   */\n      tag_23\n      jump\t// in\n    tag_53:\n        /* \"#utility.yul\":696:835   */\n      swap3\n      swap2\n      pop\n      pop\n      jump\t// out\n        /* \"#utility.yul\":841:1170   */\n    tag_6:\n        /* \"#utility.yul\":900:906   */\n      0x00\n        /* \"#utility.yul\":949:951   */\n      0x20\n        /* \"#utility.yul\":937:946   */\n      dup3\n        /* \"#utility.yul\":928:935   */\n      dup5\n        /* \"#utility.yul\":924:947   */\n      sub\n        /* \"#utility.yul\":920:952   */\n      slt\n        /* \"#utility.yul\":917:1036   */\n      iszero\n      tag_55\n      jumpi\n        /* \"#utility.yul\":955:1034   */\n      tag_56\n      tag_19\n      jump\t// in\n    tag_56:\n        /* \"#utility.yul\":917:1036   */\n    tag_55:\n        /* \"#utility.yul\":1075:1076   */\n      0x00\n        /* \"#utility.yul\":1100:1153   */\n      tag_57\n        /* \"#utility.yul\":1145:1152   */\n      dup5\n        /* \"#utility.yul\":1136:1142   */\n      dup3\n        /* \"#utility.yul\":1125:1134   */\n      dup6\n        /* \"#utility.yul\":1121:1143   */\n      add\n        /* \"#utility.yul\":1100:1153   */\n      tag_24\n      jump\t// in\n    tag_57:\n        /* \"#utility.yul\":1090:1153   */\n      swap2\n      pop\n        /* \"#utility.yul\":1046:1163   */\n      pop\n        /* \"#utility.yul\":841:1170   */\n      swap3\n      swap2\n      pop\n      pop\n      jump\t// out\n        /* \"#utility.yul\":1176:1261   */\n    tag_25:\n        /* \"#utility.yul\":1221:1228   */\n      0x00\n        /* \"#utility.yul\":1250:1255   */\n      dup2\n        /* \"#utility.yul\":1239:1255   */\n      swap1\n      pop\n        /* \"#utility.yul\":1176:1261   */\n      swap2\n      swap1\n      pop\n      jump\t// out\n        /* \"#utility.yul\":1267:1353   */\n    tag_26:\n        /* \"#utility.yul\":1302:1309   */\n      0x00\n        /* \"#utility.yul\":1342:1346   */\n      0xff\n        /* \"#utility.yul\":1335:1340   */\n      dup3\n        /* \"#utility.yul\":1331:1347   */\n      and\n        /* \"#utility.yul\":1320:1347   */\n      swap1\n      pop\n        /* \"#utility.yul\":1267:1353   */\n      swap2\n      swap1\n      pop\n      jump\t// out\n        /* \"#utility.yul\":1359:1419   */\n    tag_27:\n        /* \"#utility.yul\":1387:1390   */\n      0x00\n        /* \"#utility.yul\":1408:1413   */\n      dup2\n        /* \"#utility.yul\":1401:1413   */\n      swap1\n      pop\n        /* \"#utility.yul\":1359:1419   */\n      swap2\n      swap1\n      pop\n      jump\t// out\n        /* \"#utility.yul\":1425:1579   */\n    tag_28:\n        /* \"#utility.yul\":1481:1490   */\n      0x00\n        /* \"#utility.yul\":1514:1573   */\n      tag_62\n        /* \"#utility.yul\":1530:1572   */\n      tag_63\n        /* \"#utility.yul\":1539:1571   */\n      tag_64\n        /* \"#utility.yul\":1565:1570   */\n      dup5\n        /* \"#utility.yul\":1539:1571   */\n      tag_25\n      jump\t// in\n    tag_64:\n        /* \"#utility.yul\":1530:1572   */\n      tag_27\n      jump\t// in\n    tag_63:\n        /* \"#utility.yul\":1514:1573   */\n      tag_26\n      jump\t// in\n    tag_62:\n        /* \"#utility.yul\":1501:1573   */\n      swap1\n      pop\n        /* \"#utility.yul\":1425:1579   */\n      swap2\n      swap1\n      pop\n      jump\t// out\n        /* \"#utility.yul\":1585:1728   */\n    tag_29:\n        /* \"#utility.yul\":1678:1721   */\n      tag_66\n        /* \"#utility.yul\":1715:1720   */\n      dup2\n        /* \"#utility.yul\":1678:1721   */\n      tag_28\n      jump\t// in\n    tag_66:\n        /* \"#utility.yul\":1673:1676   */\n      dup3\n        /* \"#utility.yul\":1666:1722   */\n      mstore\n        /* \"#utility.yul\":1585:1728   */\n      pop\n      pop\n      jump\t// out\n        /* \"#utility.yul\":1734:1819   */\n    tag_30:\n        /* \"#utility.yul\":1779:1786   */\n      0x00\n        /* \"#utility.yul\":1808:1813   */\n      dup2\n        /* \"#utility.yul\":1797:1813   */\n      swap1\n      pop\n        /* \"#utility.yul\":1734:1819   */\n      swap2\n      swap1\n      pop\n      jump\t// out\n        /* \"#utility.yul\":1825:1979   */\n    tag_31:\n        /* \"#utility.yul\":1881:1890   */\n      0x00\n        /* \"#utility.yul\":1914:1973   */\n      tag_69\n        /* \"#utility.yul\":1930:1972   */\n      tag_70\n        /* \"#utility.yul\":1939:1971   */\n      tag_71\n        /* \"#utility.yul\":1965:1970   */\n      dup5\n        /* \"#utility.yul\":1939:1971   */\n      tag_30\n      jump\t// in\n    tag_71:\n        /* \"#utility.yul\":1930:1972   */\n      tag_27\n      jump\t// in\n    tag_70:\n        /* \"#utility.yul\":1914:1973   */\n      tag_26\n      jump\t// in\n    tag_69:\n        /* \"#utility.yul\":1901:1973   */\n      swap1\n      pop\n        /* \"#utility.yul\":1825:1979   */\n      swap2\n      swap1\n      pop\n      jump\t// out\n        /* \"#utility.yul\":1985:2128   */\n    tag_32:\n        /* \"#utility.yul\":2078:2121   */\n      tag_73\n        /* \"#utility.yul\":2115:2120   */\n      dup2\n        /* \"#utility.yul\":2078:2121   */\n      tag_31\n      jump\t// in\n    tag_73:\n        /* \"#utility.yul\":2073:2076   */\n      dup3\n        /* \"#utility.yul\":2066:2122   */\n      mstore\n        /* \"#utility.yul\":1985:2128   */\n      pop\n      pop\n      jump\t// out\n        /* \"#utility.yul\":2134:2490   */\n    tag_10:\n        /* \"#utility.yul\":2267:2271   */\n      0x00\n        /* \"#utility.yul\":2305:2307   */\n      0x40\n        /* \"#utility.yul\":2294:2303   */\n      dup3\n        /* \"#utility.yul\":2290:2308   */\n      add\n        /* \"#utility.yul\":2282:2308   */\n      swap1\n      pop\n        /* \"#utility.yul\":2318:2395   */\n      tag_75\n        /* \"#utility.yul\":2392:2393   */\n      0x00\n        /* \"#utility.yul\":2381:2390   */\n      dup4\n        /* \"#utility.yul\":2377:2394   */\n      add\n        /* \"#utility.yul\":2368:2374   */\n      dup6\n        /* \"#utility.yul\":2318:2395   */\n      tag_29\n      jump\t// in\n    tag_75:\n        /* \"#utility.yul\":2405:2483   */\n      tag_76\n        /* \"#utility.yul\":2479:2481   */\n      0x20\n        /* \"#utility.yul\":2468:2477   */\n      dup4\n        /* \"#utility.yul\":2464:2482   */\n      add\n        /* \"#utility.yul\":2455:2461   */\n      dup5\n        /* \"#utility.yul\":2405:2483   */\n      tag_32\n      jump\t// in\n    tag_76:\n        /* \"#utility.yul\":2134:2490   */\n      swap4\n      swap3\n      pop\n      pop\n      pop\n      jump\t// out\n        /* \"#utility.yul\":2496:2594   */\n    tag_33:\n        /* \"#utility.yul\":2547:2553   */\n      0x00\n        /* \"#utility.yul\":2581:2586   */\n      dup2\n        /* \"#utility.yul\":2575:2587   */\n      mload\n        /* \"#utility.yul\":2565:2587   */\n      swap1\n      pop\n        /* \"#utility.yul\":2496:2594   */\n      swap2\n      swap1\n      pop\n      jump\t// out\n        /* \"#utility.yul\":2600:2747   */\n    tag_34:\n        /* \"#utility.yul\":2701:2712   */\n      0x00\n        /* \"#utility.yul\":2738:2741   */\n      dup2\n        /* \"#utility.yul\":2723:2741   */\n      swap1\n      pop\n        /* \"#utility.yul\":2600:2747   */\n      swap3\n      swap2\n      pop\n      pop\n      jump\t// out\n        /* \"#utility.yul\":2753:2999   */\n    tag_35:\n        /* \"#utility.yul\":2834:2835   */\n      0x00\n        /* \"#utility.yul\":2844:2957   */\n    tag_80:\n        /* \"#utility.yul\":2858:2864   */\n      dup4\n        /* \"#utility.yul\":2855:2856   */\n      dup2\n        /* \"#utility.yul\":2852:2865   */\n      lt\n        /* \"#utility.yul\":2844:2957   */\n      iszero\n      tag_82\n      jumpi\n        /* \"#utility.yul\":2943:2944   */\n      dup1\n        /* \"#utility.yul\":2938:2941   */\n      dup3\n        /* \"#utility.yul\":2934:2945   */\n      add\n        /* \"#utility.yul\":2928:2946   */\n      mload\n        /* \"#utility.yul\":2924:2925   */\n      dup2\n        /* \"#utility.yul\":2919:2922   */\n      dup5\n        /* \"#utility.yul\":2915:2926   */\n      add\n        /* \"#utility.yul\":2908:2947   */\n      mstore\n        /* \"#utility.yul\":2880:2882   */\n      0x20\n        /* \"#utility.yul\":2877:2878   */\n      dup2\n        /* \"#utility.yul\":2873:2883   */\n      add\n        /* \"#utility.yul\":2868:2883   */\n      swap1\n      pop\n        /* \"#utility.yul\":2844:2957   */\n      jump(tag_80)\n    tag_82:\n        /* \"#utility.yul\":2991:2992   */\n      0x00\n        /* \"#utility.yul\":2982:2988   */\n      dup5\n        /* \"#utility.yul\":2977:2980   */\n      dup5\n        /* \"#utility.yul\":2973:2989   */\n      add\n        /* \"#utility.yul\":2966:2993   */\n      mstore\n        /* \"#utility.yul\":2815:2999   */\n      pop\n        /* \"#utility.yul\":2753:2999   */\n      pop\n      pop\n      pop\n      jump\t// out\n        /* \"#utility.yul\":3005:3391   */\n    tag_36:\n        /* \"#utility.yul\":3109:3112   */\n      0x00\n        /* \"#utility.yul\":3137:3175   */\n      tag_84\n        /* \"#utility.yul\":3169:3174   */\n      dup3\n        /* \"#utility.yul\":3137:3175   */\n      tag_33\n      jump\t// in\n    tag_84:\n        /* \"#utility.yul\":3191:3279   */\n      tag_85\n        /* \"#utility.yul\":3272:3278   */\n      dup2\n        /* \"#utility.yul\":3267:3270   */\n      dup6\n        /* \"#utility.yul\":3191:3279   */\n      tag_34\n      jump\t// in\n    tag_85:\n        /* \"#utility.yul\":3184:3279   */\n      swap4\n      pop\n        /* \"#utility.yul\":3288:3353   */\n      tag_86\n        /* \"#utility.yul\":3346:3352   */\n      dup2\n        /* \"#utility.yul\":3341:3344   */\n      dup6\n        /* \"#utility.yul\":3334:3338   */\n      0x20\n        /* \"#utility.yul\":3327:3332   */\n      dup7\n        /* \"#utility.yul\":3323:3339   */\n      add\n        /* \"#utility.yul\":3288:3353   */\n      tag_35\n      jump\t// in\n    tag_86:\n        /* \"#utility.yul\":3378:3384   */\n      dup1\n        /* \"#utility.yul\":3373:3376   */\n      dup5\n        /* \"#utility.yul\":3369:3385   */\n      add\n        /* \"#utility.yul\":3362:3385   */\n      swap2\n      pop\n        /* \"#utility.yul\":3113:3391   */\n      pop\n        /* \"#utility.yul\":3005:3391   */\n      swap3\n      swap2\n      pop\n      pop\n      jump\t// out\n        /* \"#utility.yul\":3397:3668   */\n    tag_12:\n        /* \"#utility.yul\":3527:3530   */\n      0x00\n        /* \"#utility.yul\":3549:3642   */\n      tag_88\n        /* \"#utility.yul\":3638:3641   */\n      dup3\n        /* \"#utility.yul\":3629:3635   */\n      dup5\n        /* \"#utility.yul\":3549:3642   */\n      tag_36\n      jump\t// in\n    tag_88:\n        /* \"#utility.yul\":3542:3642   */\n      swap2\n      pop\n        /* \"#utility.yul\":3659:3662   */\n      dup2\n        /* \"#utility.yul\":3652:3662   */\n      swap1\n      pop\n        /* \"#utility.yul\":3397:3668   */\n      swap3\n      swap2\n      pop\n      pop\n      jump\t// out\n        /* \"#utility.yul\":3674:3764   */\n    tag_37:\n        /* \"#utility.yul\":3708:3715   */\n      0x00\n        /* \"#utility.yul\":3751:3756   */\n      dup2\n        /* \"#utility.yul\":3744:3757   */\n      iszero\n        /* \"#utility.yul\":3737:3758   */\n      iszero\n        /* \"#utility.yul\":3726:3758   */\n      swap1\n      pop\n        /* \"#utility.yul\":3674:3764   */\n      swap2\n      swap1\n      pop\n      jump\t// out\n        /* \"#utility.yul\":3770:3879   */\n    tag_38:\n        /* \"#utility.yul\":3851:3872   */\n      tag_91\n        /* \"#utility.yul\":3866:3871   */\n      dup2\n        /* \"#utility.yul\":3851:3872   */\n      tag_37\n      jump\t// in\n    tag_91:\n        /* \"#utility.yul\":3846:3849   */\n      dup3\n        /* \"#utility.yul\":3839:3873   */\n      mstore\n        /* \"#utility.yul\":3770:3879   */\n      pop\n      pop\n      jump\t// out\n        /* \"#utility.yul\":3885:4053   */\n    tag_39:\n        /* \"#utility.yul\":3968:3979   */\n      0x00\n        /* \"#utility.yul\":4002:4008   */\n      dup3\n        /* \"#utility.yul\":3997:4000   */\n      dup3\n        /* \"#utility.yul\":3990:4009   */\n      mstore\n        /* \"#utility.yul\":4042:4046   */\n      0x20\n        /* \"#utility.yul\":4037:4040   */\n      dup3\n        /* \"#utility.yul\":4033:4047   */\n      add\n        /* \"#utility.yul\":4018:4047   */\n      swap1\n      pop\n        /* \"#utility.yul\":3885:4053   */\n      swap3\n      swap2\n      pop\n      pop\n      jump\t// out\n        /* \"#utility.yul\":4059:4161   */\n    tag_40:\n        /* \"#utility.yul\":4100:4106   */\n      0x00\n        /* \"#utility.yul\":4151:4153   */\n      0x1f\n        /* \"#utility.yul\":4147:4154   */\n      not\n        /* \"#utility.yul\":4142:4144   */\n      0x1f\n        /* \"#utility.yul\":4135:4140   */\n      dup4\n        /* \"#utility.yul\":4131:4145   */\n      add\n        /* \"#utility.yul\":4127:4155   */\n      and\n        /* \"#utility.yul\":4117:4155   */\n      swap1\n      pop\n        /* \"#utility.yul\":4059:4161   */\n      swap2\n      swap1\n      pop\n      jump\t// out\n        /* \"#utility.yul\":4167:4540   */\n    tag_41:\n        /* \"#utility.yul\":4253:4256   */\n      0x00\n        /* \"#utility.yul\":4281:4319   */\n      tag_95\n        /* \"#utility.yul\":4313:4318   */\n      dup3\n        /* \"#utility.yul\":4281:4319   */\n      tag_33\n      jump\t// in\n    tag_95:\n        /* \"#utility.yul\":4335:4405   */\n      tag_96\n        /* \"#utility.yul\":4398:4404   */\n      dup2\n        /* \"#utility.yul\":4393:4396   */\n      dup6\n        /* \"#utility.yul\":4335:4405   */\n      tag_39\n      jump\t// in\n    tag_96:\n        /* \"#utility.yul\":4328:4405   */\n      swap4\n      pop\n        /* \"#utility.yul\":4414:4479   */\n      tag_97\n        /* \"#utility.yul\":4472:4478   */\n      dup2\n        /* \"#utility.yul\":4467:4470   */\n      dup6\n        /* \"#utility.yul\":4460:4464   */\n      0x20\n        /* \"#utility.yul\":4453:4458   */\n      dup7\n        /* \"#utility.yul\":4449:4465   */\n      add\n        /* \"#utility.yul\":4414:4479   */\n      tag_35\n      jump\t// in\n    tag_97:\n        /* \"#utility.yul\":4504:4533   */\n      tag_98\n        /* \"#utility.yul\":4526:4532   */\n      dup2\n        /* \"#utility.yul\":4504:4533   */\n      tag_40\n      jump\t// in\n    tag_98:\n        /* \"#utility.yul\":4499:4502   */\n      dup5\n        /* \"#utility.yul\":4495:4534   */\n      add\n        /* \"#utility.yul\":4488:4534   */\n      swap2\n      pop\n        /* \"#utility.yul\":4257:4540   */\n      pop\n        /* \"#utility.yul\":4167:4540   */\n      swap3\n      swap2\n      pop\n      pop\n      jump\t// out\n        /* \"#utility.yul\":4546:4953   */\n    tag_17:\n        /* \"#utility.yul\":4679:4683   */\n      0x00\n        /* \"#utility.yul\":4717:4719   */\n      0x40\n        /* \"#utility.yul\":4706:4715   */\n      dup3\n        /* \"#utility.yul\":4702:4720   */\n      add\n        /* \"#utility.yul\":4694:4720   */\n      swap1\n      pop\n        /* \"#utility.yul\":4730:4795   */\n      tag_100\n        /* \"#utility.yul\":4792:4793   */\n      0x00\n        /* \"#utility.yul\":4781:4790   */\n      dup4\n        /* \"#utility.yul\":4777:4794   */\n      add\n        /* \"#utility.yul\":4768:4774   */\n      dup6\n        /* \"#utility.yul\":4730:4795   */\n      tag_38\n      jump\t// in\n    tag_100:\n        /* \"#utility.yul\":4842:4851   */\n      dup2\n        /* \"#utility.yul\":4836:4840   */\n      dup2\n        /* \"#utility.yul\":4832:4852   */\n      sub\n        /* \"#utility.yul\":4827:4829   */\n      0x20\n        /* \"#utility.yul\":4816:4825   */\n      dup4\n        /* \"#utility.yul\":4812:4830   */\n      add\n        /* \"#utility.yul\":4805:4853   */\n      mstore\n        /* \"#utility.yul\":4870:4946   */\n      tag_101\n        /* \"#utility.yul\":4941:4945   */\n      dup2\n        /* \"#utility.yul\":4932:4938   */\n      dup5\n        /* \"#utility.yul\":4870:4946   */\n      tag_41\n      jump\t// in\n    tag_101:\n        /* \"#utility.yul\":4862:4946   */\n      swap1\n      pop\n        /* \"#utility.yul\":4546:4953   */\n      swap4\n      swap3\n      pop\n      pop\n      pop\n      jump\t// out\n\n    auxdata: 0xa2646970667358221220cd28212e3922fcfa3974bca00034287df54b171509b580ec606d9ea30d66a9cb64736f6c63430008110033\n}\n",
				"bytecode": {
					"linkReferences": {},
					"object": "608060405234801561001057600080fd5b50610434806100206000396000f3fe608060405234801561001057600080fd5b506004361061002b5760003560e01c80637114e08814610030575b600080fd5b61004a600480360381019061004591906101ed565b61004c565b005b6000808273ffffffffffffffffffffffffffffffffffffffff166001600260405160240161007b9291906102a7565b6040516020818303038152906040527fe0b64c56000000000000000000000000000000000000000000000000000000007bffffffffffffffffffffffffffffffffffffffffffffffffffffffff19166020820180517bffffffffffffffffffffffffffffffffffffffffffffffffffffffff83818316178352505050506040516101059190610341565b6000604051808303816000865af19150503d8060008114610142576040519150601f19603f3d011682016040523d82523d6000602084013e610147565b606091505b50915091507f2a47559a25a643abc59a0faff8869aa493ebbd49a2736af6d14cec9208502444828260405161017d9291906103ce565b60405180910390a1505050565b600080fd5b600073ffffffffffffffffffffffffffffffffffffffff82169050919050565b60006101ba8261018f565b9050919050565b6101ca816101af565b81146101d557600080fd5b50565b6000813590506101e7816101c1565b92915050565b6000602082840312156102035761020261018a565b5b6000610211848285016101d8565b91505092915050565b6000819050919050565b600060ff82169050919050565b6000819050919050565b600061025661025161024c8461021a565b610231565b610224565b9050919050565b6102668161023b565b82525050565b6000819050919050565b600061029161028c6102878461026c565b610231565b610224565b9050919050565b6102a181610276565b82525050565b60006040820190506102bc600083018561025d565b6102c96020830184610298565b9392505050565b600081519050919050565b600081905092915050565b60005b838110156103045780820151818401526020810190506102e9565b60008484015250505050565b600061031b826102d0565b61032581856102db565b93506103358185602086016102e6565b80840191505092915050565b600061034d8284610310565b915081905092915050565b60008115159050919050565b61036d81610358565b82525050565b600082825260208201905092915050565b6000601f19601f8301169050919050565b60006103a0826102d0565b6103aa8185610373565b93506103ba8185602086016102e6565b6103c381610384565b840191505092915050565b60006040820190506103e36000830185610364565b81810360208301526103f58184610395565b9050939250505056fea2646970667358221220cd28212e3922fcfa3974bca00034287df54b171509b580ec606d9ea30d66a9cb64736f6c63430008110033",
					"opcodes": "PUSH1 0x80 PUSH1 0x40 MSTORE CALLVALUE DUP1 ISZERO PUSH2 0x10 JUMPI PUSH1 0x0 DUP1 REVERT JUMPDEST POP PUSH2 0x434 DUP1 PUSH2 0x20 PUSH1 0x0 CODECOPY PUSH1 0x0 RETURN INVALID PUSH1 0x80 PUSH1 0x40 MSTORE CALLVALUE DUP1 ISZERO PUSH2 0x10 JUMPI PUSH1 0x0 DUP1 REVERT JUMPDEST POP PUSH1 0x4 CALLDATASIZE LT PUSH2 0x2B JUMPI PUSH1 0x0 CALLDATALOAD PUSH1 0xE0 SHR DUP1 PUSH4 0x7114E088 EQ PUSH2 0x30 JUMPI JUMPDEST PUSH1 0x0 DUP1 REVERT JUMPDEST PUSH2 0x4A PUSH1 0x4 DUP1 CALLDATASIZE SUB DUP2 ADD SWAP1 PUSH2 0x45 SWAP2 SWAP1 PUSH2 0x1ED JUMP JUMPDEST PUSH2 0x4C JUMP JUMPDEST STOP JUMPDEST PUSH1 0x0 DUP1 DUP3 PUSH20 0xFFFFFFFFFFFFFFFFFFFFFFFFFFFFFFFFFFFFFFFF AND PUSH1 0x1 PUSH1 0x2 PUSH1 0x40 MLOAD PUSH1 0x24 ADD PUSH2 0x7B SWAP3 SWAP2 SWAP1 PUSH2 0x2A7 JUMP JUMPDEST PUSH1 0x40 MLOAD PUSH1 0x20 DUP2 DUP4 SUB SUB DUP2 MSTORE SWAP1 PUSH1 0x40 MSTORE PUSH32 0xE0B64C5600000000000000000000000000000000000000000000000000000000 PUSH28 0xFFFFFFFFFFFFFFFFFFFFFFFFFFFFFFFFFFFFFFFFFFFFFFFFFFFFFFFF NOT AND PUSH1 0x20 DUP3 ADD DUP1 MLOAD PUSH28 0xFFFFFFFFFFFFFFFFFFFFFFFFFFFFFFFFFFFFFFFFFFFFFFFFFFFFFFFF DUP4 DUP2 DUP4 AND OR DUP4 MSTORE POP POP POP POP PUSH1 0x40 MLOAD PUSH2 0x105 SWAP2 SWAP1 PUSH2 0x341 JUMP JUMPDEST PUSH1 0x0 PUSH1 0x40 MLOAD DUP1 DUP4 SUB DUP2 PUSH1 0x0 DUP7 GAS CALL SWAP2 POP POP RETURNDATASIZE DUP1 PUSH1 0x0 DUP2 EQ PUSH2 0x142 JUMPI PUSH1 0x40 MLOAD SWAP2 POP PUSH1 0x1F NOT PUSH1 0x3F RETURNDATASIZE ADD AND DUP3 ADD PUSH1 0x40 MSTORE RETURNDATASIZE DUP3 MSTORE RETURNDATASIZE PUSH1 0x0 PUSH1 0x20 DUP5 ADD RETURNDATACOPY PUSH2 0x147 JUMP JUMPDEST PUSH1 0x60 SWAP2 POP JUMPDEST POP SWAP2 POP SWAP2 POP PUSH32 0x2A47559A25A643ABC59A0FAFF8869AA493EBBD49A2736AF6D14CEC9208502444 DUP3 DUP3 PUSH1 0x40 MLOAD PUSH2 0x17D SWAP3 SWAP2 SWAP1 PUSH2 0x3CE JUMP JUMPDEST PUSH1 0x40 MLOAD DUP1 SWAP2 SUB SWAP1 LOG1 POP POP POP JUMP JUMPDEST PUSH1 0x0 DUP1 REVERT JUMPDEST PUSH1 0x0 PUSH20 0xFFFFFFFFFFFFFFFFFFFFFFFFFFFFFFFFFFFFFFFF DUP3 AND SWAP1 POP SWAP2 SWAP1 POP JUMP JUMPDEST PUSH1 0x0 PUSH2 0x1BA DUP3 PUSH2 0x18F JUMP JUMPDEST SWAP1 POP SWAP2 SWAP1 POP JUMP JUMPDEST PUSH2 0x1CA DUP2 PUSH2 0x1AF JUMP JUMPDEST DUP2 EQ PUSH2 0x1D5 JUMPI PUSH1 0x0 DUP1 REVERT JUMPDEST POP JUMP JUMPDEST PUSH1 0x0 DUP2 CALLDATALOAD SWAP1 POP PUSH2 0x1E7 DUP2 PUSH2 0x1C1 JUMP JUMPDEST SWAP3 SWAP2 POP POP JUMP JUMPDEST PUSH1 0x0 PUSH1 0x20 DUP3 DUP5 SUB SLT ISZERO PUSH2 0x203 JUMPI PUSH2 0x202 PUSH2 0x18A JUMP JUMPDEST JUMPDEST PUSH1 0x0 PUSH2 0x211 DUP5 DUP3 DUP6 ADD PUSH2 0x1D8 JUMP JUMPDEST SWAP2 POP POP SWAP3 SWAP2 POP POP JUMP JUMPDEST PUSH1 0x0 DUP2 SWAP1 POP SWAP2 SWAP1 POP JUMP JUMPDEST PUSH1 0x0 PUSH1 0xFF DUP3 AND SWAP1 POP SWAP2 SWAP1 POP JUMP JUMPDEST PUSH1 0x0 DUP2 SWAP1 POP SWAP2 SWAP1 POP JUMP JUMPDEST PUSH1 0x0 PUSH2 0x256 PUSH2 0x251 PUSH2 0x24C DUP5 PUSH2 0x21A JUMP JUMPDEST PUSH2 0x231 JUMP JUMPDEST PUSH2 0x224 JUMP JUMPDEST SWAP1 POP SWAP2 SWAP1 POP JUMP JUMPDEST PUSH2 0x266 DUP2 PUSH2 0x23B JUMP JUMPDEST DUP3 MSTORE POP POP JUMP JUMPDEST PUSH1 0x0 DUP2 SWAP1 POP SWAP2 SWAP1 POP JUMP JUMPDEST PUSH1 0x0 PUSH2 0x291 PUSH2 0x28C PUSH2 0x287 DUP5 PUSH2 0x26C JUMP JUMPDEST PUSH2 0x231 JUMP JUMPDEST PUSH2 0x224 JUMP JUMPDEST SWAP1 POP SWAP2 SWAP1 POP JUMP JUMPDEST PUSH2 0x2A1 DUP2 PUSH2 0x276 JUMP JUMPDEST DUP3 MSTORE POP POP JUMP JUMPDEST PUSH1 0x0 PUSH1 0x40 DUP3 ADD SWAP1 POP PUSH2 0x2BC PUSH1 0x0 DUP4 ADD DUP6 PUSH2 0x25D JUMP JUMPDEST PUSH2 0x2C9 PUSH1 0x20 DUP4 ADD DUP5 PUSH2 0x298 JUMP JUMPDEST SWAP4 SWAP3 POP POP POP JUMP JUMPDEST PUSH1 0x0 DUP2 MLOAD SWAP1 POP SWAP2 SWAP1 POP JUMP JUMPDEST PUSH1 0x0 DUP2 SWAP1 POP SWAP3 SWAP2 POP POP JUMP JUMPDEST PUSH1 0x0 JUMPDEST DUP4 DUP2 LT ISZERO PUSH2 0x304 JUMPI DUP1 DUP3 ADD MLOAD DUP2 DUP5 ADD MSTORE PUSH1 0x20 DUP2 ADD SWAP1 POP PUSH2 0x2E9 JUMP JUMPDEST PUSH1 0x0 DUP5 DUP5 ADD MSTORE POP POP POP POP JUMP JUMPDEST PUSH1 0x0 PUSH2 0x31B DUP3 PUSH2 0x2D0 JUMP JUMPDEST PUSH2 0x325 DUP2 DUP6 PUSH2 0x2DB JUMP JUMPDEST SWAP4 POP PUSH2 0x335 DUP2 DUP6 PUSH1 0x20 DUP7 ADD PUSH2 0x2E6 JUMP JUMPDEST DUP1 DUP5 ADD SWAP2 POP POP SWAP3 SWAP2 POP POP JUMP JUMPDEST PUSH1 0x0 PUSH2 0x34D DUP3 DUP5 PUSH2 0x310 JUMP JUMPDEST SWAP2 POP DUP2 SWAP1 POP SWAP3 SWAP2 POP POP JUMP JUMPDEST PUSH1 0x0 DUP2 ISZERO ISZERO SWAP1 POP SWAP2 SWAP1 POP JUMP JUMPDEST PUSH2 0x36D DUP2 PUSH2 0x358 JUMP JUMPDEST DUP3 MSTORE POP POP JUMP JUMPDEST PUSH1 0x0 DUP3 DUP3 MSTORE PUSH1 0x20 DUP3 ADD SWAP1 POP SWAP3 SWAP2 POP POP JUMP JUMPDEST PUSH1 0x0 PUSH1 0x1F NOT PUSH1 0x1F DUP4 ADD AND SWAP1 POP SWAP2 SWAP1 POP JUMP JUMPDEST PUSH1 0x0 PUSH2 0x3A0 DUP3 PUSH2 0x2D0 JUMP JUMPDEST PUSH2 0x3AA DUP2 DUP6 PUSH2 0x373 JUMP JUMPDEST SWAP4 POP PUSH2 0x3BA DUP2 DUP6 PUSH1 0x20 DUP7 ADD PUSH2 0x2E6 JUMP JUMPDEST PUSH2 0x3C3 DUP2 PUSH2 0x384 JUMP JUMPDEST DUP5 ADD SWAP2 POP POP SWAP3 SWAP2 POP POP JUMP JUMPDEST PUSH1 0x0 PUSH1 0x40 DUP3 ADD SWAP1 POP PUSH2 0x3E3 PUSH1 0x0 DUP4 ADD DUP6 PUSH2 0x364 JUMP JUMPDEST DUP2 DUP2 SUB PUSH1 0x20 DUP4 ADD MSTORE PUSH2 0x3F5 DUP2 DUP5 PUSH2 0x395 JUMP JUMPDEST SWAP1 POP SWAP4 SWAP3 POP POP POP JUMP INVALID LOG2 PUSH5 0x6970667358 0x22 SLT KECCAK256 0xCD 0x28 0x21 0x2E CODECOPY 0x22 0xFC STATICCALL CODECOPY PUSH21 0xBCA00034287DF54B171509B580EC606D9EA30D66A9 0xCB PUSH5 0x736F6C6343 STOP ADDMOD GT STOP CALLER "
				},
				"gasEstimates": {
					"creation": {
						"codeDepositCost": "215200",
						"executionCost": "257",
						"totalCost": "215457"
					},
					"external": {
						"selectorCall(address)": "infinite"
					}
				},
				"methodIdentifiers": {
					"selectorCall(address)": "7114e088"
				}
			},
			"storageLayout": {
				"storage": [],
				"types": null
			},
			"userdoc": {
				"kind": "user",
				"methods": {},
				"version": 1
			}
		}
	}
}