{
	"day4/Modifier.sol": {
		"MyContract": {
			"abi": [
				{
					"inputs": [],
					"stateMutability": "nonpayable",
					"type": "constructor"
				},
				{
					"inputs": [],
					"name": "doSomething",
					"outputs": [],
					"stateMutability": "nonpayable",
					"type": "function"
				}
			],
			"devdoc": {
				"kind": "dev",
				"methods": {},
				"version": 1
			},
			"evm": {
				"assembly": "    /* \"day4/Modifier.sol\":28:349  contract MyContract {... */\n  mstore(0x40, 0x80)\n    /* \"day4/Modifier.sol\":77:128  constructor() {... */\n  callvalue\n  dup1\n  iszero\n  tag_1\n  jumpi\n  0x00\n  dup1\n  revert\ntag_1:\n  pop\n    /* \"day4/Modifier.sol\":110:120  msg.sender */\n  caller\n    /* \"day4/Modifier.sol\":102:107  owner */\n  0x00\n  dup1\n    /* \"day4/Modifier.sol\":102:120  owner = msg.sender */\n  0x0100\n  exp\n  dup2\n  sload\n  dup2\n  0xffffffffffffffffffffffffffffffffffffffff\n  mul\n  not\n  and\n  swap1\n  dup4\n  0xffffffffffffffffffffffffffffffffffffffff\n  and\n  mul\n  or\n  swap1\n  sstore\n  pop\n    /* \"day4/Modifier.sol\":28:349  contract MyContract {... */\n  dataSize(sub_0)\n  dup1\n  dataOffset(sub_0)\n  0x00\n  codecopy\n  0x00\n  return\nstop\n\nsub_0: assembly {\n        /* \"day4/Modifier.sol\":28:349  contract MyContract {... */\n      mstore(0x40, 0x80)\n      callvalue\n      dup1\n      iszero\n      tag_1\n      jumpi\n      0x00\n      dup1\n      revert\n    tag_1:\n      pop\n      jumpi(tag_2, lt(calldatasize, 0x04))\n      shr(0xe0, calldataload(0x00))\n      dup1\n      0x82692679\n      eq\n      tag_3\n      jumpi\n    tag_2:\n      0x00\n      dup1\n      revert\n        /* \"day4/Modifier.sol\":273:346  function doSomething() public onlyOwner {... */\n    tag_3:\n      tag_4\n      tag_5\n      jump\t// in\n    tag_4:\n      stop\n    tag_5:\n        /* \"day4/Modifier.sol\":188:193  owner */\n      0x00\n      dup1\n      sload\n      swap1\n      0x0100\n      exp\n      swap1\n      div\n      0xffffffffffffffffffffffffffffffffffffffff\n      and\n        /* \"day4/Modifier.sol\":174:193  msg.sender == owner */\n      0xffffffffffffffffffffffffffffffffffffffff\n      and\n        /* \"day4/Modifier.sol\":174:184  msg.sender */\n      caller\n        /* \"day4/Modifier.sol\":174:193  msg.sender == owner */\n      0xffffffffffffffffffffffffffffffffffffffff\n      and\n      eq\n        /* \"day4/Modifier.sol\":166:245  require(msg.sender == owner, \"Only the contract owner can call this function.\") */\n      tag_7\n      jumpi\n      mload(0x40)\n      0x08c379a000000000000000000000000000000000000000000000000000000000\n      dup2\n      mstore\n      0x04\n      add\n      tag_8\n      swap1\n      tag_9\n      jump\t// in\n    tag_8:\n      mload(0x40)\n      dup1\n      swap2\n      sub\n      swap1\n      revert\n    tag_7:\n        /* \"day4/Modifier.sol\":273:346  function doSomething() public onlyOwner {... */\n      jump\t// out\n        /* \"#utility.yul\":7:176   */\n    tag_11:\n        /* \"#utility.yul\":91:102   */\n      0x00\n        /* \"#utility.yul\":125:131   */\n      dup3\n        /* \"#utility.yul\":120:123   */\n      dup3\n        /* \"#utility.yul\":113:132   */\n      mstore\n        /* \"#utility.yul\":165:169   */\n      0x20\n        /* \"#utility.yul\":160:163   */\n      dup3\n        /* \"#utility.yul\":156:170   */\n      add\n        /* \"#utility.yul\":141:170   */\n      swap1\n      pop\n        /* \"#utility.yul\":7:176   */\n      swap3\n      swap2\n      pop\n      pop\n      jump\t// out\n        /* \"#utility.yul\":182:416   */\n    tag_12:\n        /* \"#utility.yul\":322:356   */\n      0x4f6e6c792074686520636f6e7472616374206f776e65722063616e2063616c6c\n        /* \"#utility.yul\":318:319   */\n      0x00\n        /* \"#utility.yul\":310:316   */\n      dup3\n        /* \"#utility.yul\":306:320   */\n      add\n        /* \"#utility.yul\":299:357   */\n      mstore\n        /* \"#utility.yul\":391:408   */\n      0x20746869732066756e6374696f6e2e0000000000000000000000000000000000\n        /* \"#utility.yul\":386:388   */\n      0x20\n        /* \"#utility.yul\":378:384   */\n      dup3\n        /* \"#utility.yul\":374:389   */\n      add\n        /* \"#utility.yul\":367:409   */\n      mstore\n        /* \"#utility.yul\":182:416   */\n      pop\n      jump\t// out\n        /* \"#utility.yul\":422:788   */\n    tag_13:\n        /* \"#utility.yul\":564:567   */\n      0x00\n        /* \"#utility.yul\":585:652   */\n      tag_18\n        /* \"#utility.yul\":649:651   */\n      0x2f\n        /* \"#utility.yul\":644:647   */\n      dup4\n        /* \"#utility.yul\":585:652   */\n      tag_11\n      jump\t// in\n    tag_18:\n        /* \"#utility.yul\":578:652   */\n      swap2\n      pop\n        /* \"#utility.yul\":661:754   */\n      tag_19\n        /* \"#utility.yul\":750:753   */\n      dup3\n        /* \"#utility.yul\":661:754   */\n      tag_12\n      jump\t// in\n    tag_19:\n        /* \"#utility.yul\":779:781   */\n      0x40\n        /* \"#utility.yul\":774:777   */\n      dup3\n        /* \"#utility.yul\":770:782   */\n      add\n        /* \"#utility.yul\":763:782   */\n      swap1\n      pop\n        /* \"#utility.yul\":422:788   */\n      swap2\n      swap1\n      pop\n      jump\t// out\n        /* \"#utility.yul\":794:1213   */\n    tag_9:\n        /* \"#utility.yul\":960:964   */\n      0x00\n        /* \"#utility.yul\":998:1000   */\n      0x20\n        /* \"#utility.yul\":987:996   */\n      dup3\n        /* \"#utility.yul\":983:1001   */\n      add\n        /* \"#utility.yul\":975:1001   */\n      swap1\n      pop\n        /* \"#utility.yul\":1047:1056   */\n      dup2\n        /* \"#utility.yul\":1041:1045   */\n      dup2\n        /* \"#utility.yul\":1037:1057   */\n      sub\n        /* \"#utility.yul\":1033:1034   */\n      0x00\n        /* \"#utility.yul\":1022:1031   */\n      dup4\n        /* \"#utility.yul\":1018:1035   */\n      add\n        /* \"#utility.yul\":1011:1058   */\n      mstore\n        /* \"#utility.yul\":1075:1206   */\n      tag_21\n        /* \"#utility.yul\":1201:1205   */\n      dup2\n        /* \"#utility.yul\":1075:1206   */\n      tag_13\n      jump\t// in\n    tag_21:\n        /* \"#utility.yul\":1067:1206   */\n      swap1\n      pop\n        /* \"#utility.yul\":794:1213   */\n      swap2\n      swap1\n      pop\n      jump\t// out\n\n    auxdata: 0xa26469706673582212205497c87dd55293ddb25ed632b6d576a2fb407ba602c71680c6b713878f84539f64736f6c63430008110033\n}\n",
				"bytecode": {
					"linkReferences": {},
					"object": "608060405234801561001057600080fd5b50336000806101000a81548173ffffffffffffffffffffffffffffffffffffffff021916908373ffffffffffffffffffffffffffffffffffffffff1602179055506101a3806100606000396000f3fe608060405234801561001057600080fd5b506004361061002b5760003560e01c80638269267914610030575b600080fd5b61003861003a565b005b60008054906101000a900473ffffffffffffffffffffffffffffffffffffffff1673ffffffffffffffffffffffffffffffffffffffff163373ffffffffffffffffffffffffffffffffffffffff16146100c8576040517f08c379a00000000000000000000000000000000000000000000000000000000081526004016100bf9061014d565b60405180910390fd5b565b600082825260208201905092915050565b7f4f6e6c792074686520636f6e7472616374206f776e65722063616e2063616c6c60008201527f20746869732066756e6374696f6e2e0000000000000000000000000000000000602082015250565b6000610137602f836100ca565b9150610142826100db565b604082019050919050565b600060208201905081810360008301526101668161012a565b905091905056fea26469706673582212205497c87dd55293ddb25ed632b6d576a2fb407ba602c71680c6b713878f84539f64736f6c63430008110033",
					"opcodes": "PUSH1 0x80 PUSH1 0x40 MSTORE CALLVALUE DUP1 ISZERO PUSH2 0x10 JUMPI PUSH1 0x0 DUP1 REVERT JUMPDEST POP CALLER PUSH1 0x0 DUP1 PUSH2 0x100 EXP DUP2 SLOAD DUP2 PUSH20 0xFFFFFFFFFFFFFFFFFFFFFFFFFFFFFFFFFFFFFFFF MUL NOT AND SWAP1 DUP4 PUSH20 0xFFFFFFFFFFFFFFFFFFFFFFFFFFFFFFFFFFFFFFFF AND MUL OR SWAP1 SSTORE POP PUSH2 0x1A3 DUP1 PUSH2 0x60 PUSH1 0x0 CODECOPY PUSH1 0x0 RETURN INVALID PUSH1 0x80 PUSH1 0x40 MSTORE CALLVALUE DUP1 ISZERO PUSH2 0x10 JUMPI PUSH1 0x0 DUP1 REVERT JUMPDEST POP PUSH1 0x4 CALLDATASIZE LT PUSH2 0x2B JUMPI PUSH1 0x0 CALLDATALOAD PUSH1 0xE0 SHR DUP1 PUSH4 0x82692679 EQ PUSH2 0x30 JUMPI JUMPDEST PUSH1 0x0 DUP1 REVERT JUMPDEST PUSH2 0x38 PUSH2 0x3A JUMP JUMPDEST STOP JUMPDEST PUSH1 0x0 DUP1 SLOAD SWAP1 PUSH2 0x100 EXP SWAP1 DIV PUSH20 0xFFFFFFFFFFFFFFFFFFFFFFFFFFFFFFFFFFFFFFFF AND PUSH20 0xFFFFFFFFFFFFFFFFFFFFFFFFFFFFFFFFFFFFFFFF AND CALLER PUSH20 0xFFFFFFFFFFFFFFFFFFFFFFFFFFFFFFFFFFFFFFFF AND EQ PUSH2 0xC8 JUMPI PUSH1 0x40 MLOAD PUSH32 0x8C379A000000000000000000000000000000000000000000000000000000000 DUP2 MSTORE PUSH1 0x4 ADD PUSH2 0xBF SWAP1 PUSH2 0x14D JUMP JUMPDEST PUSH1 0x40 MLOAD DUP1 SWAP2 SUB SWAP1 REVERT JUMPDEST JUMP JUMPDEST PUSH1 0x0 DUP3 DUP3 MSTORE PUSH1 0x20 DUP3 ADD SWAP1 POP SWAP3 SWAP2 POP POP JUMP JUMPDEST PUSH32 0x4F6E6C792074686520636F6E7472616374206F776E65722063616E2063616C6C PUSH1 0x0 DUP3 ADD MSTORE PUSH32 0x20746869732066756E6374696F6E2E0000000000000000000000000000000000 PUSH1 0x20 DUP3 ADD MSTORE POP JUMP JUMPDEST PUSH1 0x0 PUSH2 0x137 PUSH1 0x2F DUP4 PUSH2 0xCA JUMP JUMPDEST SWAP2 POP PUSH2 0x142 DUP3 PUSH2 0xDB JUMP JUMPDEST PUSH1 0x40 DUP3 ADD SWAP1 POP SWAP2 SWAP1 POP JUMP JUMPDEST PUSH1 0x0 PUSH1 0x20 DUP3 ADD SWAP1 POP DUP2 DUP2 SUB PUSH1 0x0 DUP4 ADD MSTORE PUSH2 0x166 DUP2 PUSH2 0x12A JUMP JUMPDEST SWAP1 POP SWAP2 SWAP1 POP JUMP INVALID LOG2 PUSH5 0x6970667358 0x22 SLT KECCAK256 SLOAD SWAP8 0xC8 PUSH30 0xD55293DDB25ED632B6D576A2FB407BA602C71680C6B713878F84539F6473 PUSH16 0x6C634300081100330000000000000000 "
				},
				"gasEstimates": {
					"creation": {
						"codeDepositCost": "83800",
						"executionCost": "24401",
						"totalCost": "108201"
					},
					"external": {
						"doSomething()": "2596"
					}
				},
				"methodIdentifiers": {
					"doSomething()": "82692679"
				}
			},
			"storageLayout": {
				"storage": [
					{
						"astId": 3,
						"contract": "day4/Modifier.sol:MyContract",
						"label": "owner",
						"offset": 0,
						"slot": "0",
						"type": "t_address"
					}
				],
				"types": {
					"t_address": {
						"encoding": "inplace",
						"label": "address",
						"numberOfBytes": "20"
					}
				}
			},
			"userdoc": {
				"kind": "user",
				"methods": {},
				"version": 1
			}
		}
	}
}