{
	"day2/Address.sol": {
		"Primitives": {
			"abi": [
				{
					"anonymous": false,
					"inputs": [
						{
							"indexed": false,
							"internalType": "uint256",
							"name": "amount",
							"type": "uint256"
						},
						{
							"indexed": false,
							"internalType": "uint256",
							"name": "gas",
							"type": "uint256"
						},
						{
							"indexed": false,
							"internalType": "uint256",
							"name": "from",
							"type": "uint256"
						}
					],
					"name": "LogData",
					"type": "event"
				},
				{
					"anonymous": false,
					"inputs": [
						{
							"indexed": false,
							"internalType": "address",
							"name": "caller",
							"type": "address"
						},
						{
							"indexed": false,
							"internalType": "uint256",
							"name": "amount",
							"type": "uint256"
						}
					],
					"name": "balance",
					"type": "event"
				},
				{
					"stateMutability": "payable",
					"type": "fallback"
				},
				{
					"inputs": [],
					"name": "addr",
					"outputs": [
						{
							"internalType": "address",
							"name": "",
							"type": "address"
						}
					],
					"stateMutability": "view",
					"type": "function"
				},
				{
					"inputs": [],
					"name": "getBalance",
					"outputs": [],
					"stateMutability": "payable",
					"type": "function"
				},
				{
					"stateMutability": "payable",
					"type": "receive"
				}
			],
			"devdoc": {
				"kind": "dev",
				"methods": {},
				"version": 1
			},
			"evm": {
				"assembly": "    /* \"day2/Address.sol\":65:861  contract Primitives{... */\n  mstore(0x40, 0x80)\n    /* \"day2/Address.sol\":311:353  0xCA35b7d915458EF540aDe6068dFe2F44E8fa733c */\n  0xca35b7d915458ef540ade6068dfe2f44e8fa733c\n    /* \"day2/Address.sol\":288:353  address  public addr = 0xCA35b7d915458EF540aDe6068dFe2F44E8fa733c */\n  0x00\n  dup1\n  0x0100\n  exp\n  dup2\n  sload\n  dup2\n  0xffffffffffffffffffffffffffffffffffffffff\n  mul\n  not\n  and\n  swap1\n  dup4\n  0xffffffffffffffffffffffffffffffffffffffff\n  and\n  mul\n  or\n  swap1\n  sstore\n  pop\n    /* \"day2/Address.sol\":65:861  contract Primitives{... */\n  callvalue\n  dup1\n  iszero\n  tag_1\n  jumpi\n  0x00\n  dup1\n  revert\ntag_1:\n  pop\n  dataSize(sub_0)\n  dup1\n  dataOffset(sub_0)\n  0x00\n  codecopy\n  0x00\n  return\nstop\n\nsub_0: assembly {\n        /* \"day2/Address.sol\":65:861  contract Primitives{... */\n      mstore(0x40, 0x80)\n      jumpi(tag_1, lt(calldatasize, 0x04))\n      shr(0xe0, calldataload(0x00))\n      dup1\n      0x12065fe0\n      eq\n      tag_3\n      jumpi\n      dup1\n      0x767800de\n      eq\n      tag_4\n      jumpi\n      jump(tag_2)\n    tag_1:\n      jumpi(tag_2, calldatasize)\n        /* \"day2/Address.sol\":817:848  LogData(msg.value, gasleft(),2) */\n      0x7d62957b08a56fe5b364d29cc3ff783466de5cae477f59470951f061cce9efe1\n        /* \"day2/Address.sol\":825:834  msg.value */\n      callvalue\n        /* \"day2/Address.sol\":836:845  gasleft() */\n      gas\n        /* \"day2/Address.sol\":846:847  2 */\n      0x02\n        /* \"day2/Address.sol\":817:848  LogData(msg.value, gasleft(),2) */\n      mload(0x40)\n      tag_7\n      swap4\n      swap3\n      swap2\n      swap1\n      tag_8\n      jump\t// in\n    tag_7:\n      mload(0x40)\n      dup1\n      swap2\n      sub\n      swap1\n      log1\n        /* \"day2/Address.sol\":65:861  contract Primitives{... */\n      stop\n    tag_2:\n        /* \"day2/Address.sol\":725:756  LogData(msg.value, gasleft(),1) */\n      0x7d62957b08a56fe5b364d29cc3ff783466de5cae477f59470951f061cce9efe1\n        /* \"day2/Address.sol\":733:742  msg.value */\n      callvalue\n        /* \"day2/Address.sol\":744:753  gasleft() */\n      gas\n        /* \"day2/Address.sol\":754:755  1 */\n      0x01\n        /* \"day2/Address.sol\":725:756  LogData(msg.value, gasleft(),1) */\n      mload(0x40)\n      tag_11\n      swap4\n      swap3\n      swap2\n      swap1\n      tag_12\n      jump\t// in\n    tag_11:\n      mload(0x40)\n      dup1\n      swap2\n      sub\n      swap1\n      log1\n        /* \"day2/Address.sol\":65:861  contract Primitives{... */\n      stop\n        /* \"day2/Address.sol\":360:455  function getBalance() public  payable  {... */\n    tag_3:\n      tag_13\n      tag_14\n      jump\t// in\n    tag_13:\n      stop\n        /* \"day2/Address.sol\":288:353  address  public addr = 0xCA35b7d915458EF540aDe6068dFe2F44E8fa733c */\n    tag_4:\n      callvalue\n      dup1\n      iszero\n      tag_15\n      jumpi\n      0x00\n      dup1\n      revert\n    tag_15:\n      pop\n      tag_16\n      tag_17\n      jump\t// in\n    tag_16:\n      mload(0x40)\n      tag_18\n      swap2\n      swap1\n      tag_19\n      jump\t// in\n    tag_18:\n      mload(0x40)\n      dup1\n      swap2\n      sub\n      swap1\n      return\n        /* \"day2/Address.sol\":360:455  function getBalance() public  payable  {... */\n    tag_14:\n        /* \"day2/Address.sol\":415:447  balance(msg.sender,addr.balance) */\n      0x6d8c859a41b8f0898d2297713b26c17d13827e444abae7c4c094189145a248a5\n        /* \"day2/Address.sol\":423:433  msg.sender */\n      caller\n        /* \"day2/Address.sol\":434:438  addr */\n      0x00\n      dup1\n      sload\n      swap1\n      0x0100\n      exp\n      swap1\n      div\n      0xffffffffffffffffffffffffffffffffffffffff\n      and\n        /* \"day2/Address.sol\":434:446  addr.balance */\n      0xffffffffffffffffffffffffffffffffffffffff\n      and\n      balance\n        /* \"day2/Address.sol\":415:447  balance(msg.sender,addr.balance) */\n      mload(0x40)\n      tag_21\n      swap3\n      swap2\n      swap1\n      tag_22\n      jump\t// in\n    tag_21:\n      mload(0x40)\n      dup1\n      swap2\n      sub\n      swap1\n      log1\n        /* \"day2/Address.sol\":360:455  function getBalance() public  payable  {... */\n      jump\t// out\n        /* \"day2/Address.sol\":288:353  address  public addr = 0xCA35b7d915458EF540aDe6068dFe2F44E8fa733c */\n    tag_17:\n      0x00\n      dup1\n      sload\n      swap1\n      0x0100\n      exp\n      swap1\n      div\n      0xffffffffffffffffffffffffffffffffffffffff\n      and\n      dup2\n      jump\t// out\n        /* \"#utility.yul\":7:84   */\n    tag_23:\n        /* \"#utility.yul\":44:51   */\n      0x00\n        /* \"#utility.yul\":73:78   */\n      dup2\n        /* \"#utility.yul\":62:78   */\n      swap1\n      pop\n        /* \"#utility.yul\":7:84   */\n      swap2\n      swap1\n      pop\n      jump\t// out\n        /* \"#utility.yul\":90:208   */\n    tag_24:\n        /* \"#utility.yul\":177:201   */\n      tag_38\n        /* \"#utility.yul\":195:200   */\n      dup2\n        /* \"#utility.yul\":177:201   */\n      tag_23\n      jump\t// in\n    tag_38:\n        /* \"#utility.yul\":172:175   */\n      dup3\n        /* \"#utility.yul\":165:202   */\n      mstore\n        /* \"#utility.yul\":90:208   */\n      pop\n      pop\n      jump\t// out\n        /* \"#utility.yul\":214:299   */\n    tag_25:\n        /* \"#utility.yul\":259:266   */\n      0x00\n        /* \"#utility.yul\":288:293   */\n      dup2\n        /* \"#utility.yul\":277:293   */\n      swap1\n      pop\n        /* \"#utility.yul\":214:299   */\n      swap2\n      swap1\n      pop\n      jump\t// out\n        /* \"#utility.yul\":305:365   */\n    tag_26:\n        /* \"#utility.yul\":333:336   */\n      0x00\n        /* \"#utility.yul\":354:359   */\n      dup2\n        /* \"#utility.yul\":347:359   */\n      swap1\n      pop\n        /* \"#utility.yul\":305:365   */\n      swap2\n      swap1\n      pop\n      jump\t// out\n        /* \"#utility.yul\":371:529   */\n    tag_27:\n        /* \"#utility.yul\":429:438   */\n      0x00\n        /* \"#utility.yul\":462:523   */\n      tag_42\n        /* \"#utility.yul\":480:522   */\n      tag_43\n        /* \"#utility.yul\":489:521   */\n      tag_44\n        /* \"#utility.yul\":515:520   */\n      dup5\n        /* \"#utility.yul\":489:521   */\n      tag_25\n      jump\t// in\n    tag_44:\n        /* \"#utility.yul\":480:522   */\n      tag_26\n      jump\t// in\n    tag_43:\n        /* \"#utility.yul\":462:523   */\n      tag_23\n      jump\t// in\n    tag_42:\n        /* \"#utility.yul\":449:523   */\n      swap1\n      pop\n        /* \"#utility.yul\":371:529   */\n      swap2\n      swap1\n      pop\n      jump\t// out\n        /* \"#utility.yul\":535:682   */\n    tag_28:\n        /* \"#utility.yul\":630:675   */\n      tag_46\n        /* \"#utility.yul\":669:674   */\n      dup2\n        /* \"#utility.yul\":630:675   */\n      tag_27\n      jump\t// in\n    tag_46:\n        /* \"#utility.yul\":625:628   */\n      dup3\n        /* \"#utility.yul\":618:676   */\n      mstore\n        /* \"#utility.yul\":535:682   */\n      pop\n      pop\n      jump\t// out\n        /* \"#utility.yul\":688:1146   */\n    tag_8:\n        /* \"#utility.yul\":845:849   */\n      0x00\n        /* \"#utility.yul\":883:885   */\n      0x60\n        /* \"#utility.yul\":872:881   */\n      dup3\n        /* \"#utility.yul\":868:886   */\n      add\n        /* \"#utility.yul\":860:886   */\n      swap1\n      pop\n        /* \"#utility.yul\":896:967   */\n      tag_48\n        /* \"#utility.yul\":964:965   */\n      0x00\n        /* \"#utility.yul\":953:962   */\n      dup4\n        /* \"#utility.yul\":949:966   */\n      add\n        /* \"#utility.yul\":940:946   */\n      dup7\n        /* \"#utility.yul\":896:967   */\n      tag_24\n      jump\t// in\n    tag_48:\n        /* \"#utility.yul\":977:1049   */\n      tag_49\n        /* \"#utility.yul\":1045:1047   */\n      0x20\n        /* \"#utility.yul\":1034:1043   */\n      dup4\n        /* \"#utility.yul\":1030:1048   */\n      add\n        /* \"#utility.yul\":1021:1027   */\n      dup6\n        /* \"#utility.yul\":977:1049   */\n      tag_24\n      jump\t// in\n    tag_49:\n        /* \"#utility.yul\":1059:1139   */\n      tag_50\n        /* \"#utility.yul\":1135:1137   */\n      0x40\n        /* \"#utility.yul\":1124:1133   */\n      dup4\n        /* \"#utility.yul\":1120:1138   */\n      add\n        /* \"#utility.yul\":1111:1117   */\n      dup5\n        /* \"#utility.yul\":1059:1139   */\n      tag_28\n      jump\t// in\n    tag_50:\n        /* \"#utility.yul\":688:1146   */\n      swap5\n      swap4\n      pop\n      pop\n      pop\n      pop\n      jump\t// out\n        /* \"#utility.yul\":1152:1237   */\n    tag_29:\n        /* \"#utility.yul\":1197:1204   */\n      0x00\n        /* \"#utility.yul\":1226:1231   */\n      dup2\n        /* \"#utility.yul\":1215:1231   */\n      swap1\n      pop\n        /* \"#utility.yul\":1152:1237   */\n      swap2\n      swap1\n      pop\n      jump\t// out\n        /* \"#utility.yul\":1243:1401   */\n    tag_30:\n        /* \"#utility.yul\":1301:1310   */\n      0x00\n        /* \"#utility.yul\":1334:1395   */\n      tag_53\n        /* \"#utility.yul\":1352:1394   */\n      tag_54\n        /* \"#utility.yul\":1361:1393   */\n      tag_55\n        /* \"#utility.yul\":1387:1392   */\n      dup5\n        /* \"#utility.yul\":1361:1393   */\n      tag_29\n      jump\t// in\n    tag_55:\n        /* \"#utility.yul\":1352:1394   */\n      tag_26\n      jump\t// in\n    tag_54:\n        /* \"#utility.yul\":1334:1395   */\n      tag_23\n      jump\t// in\n    tag_53:\n        /* \"#utility.yul\":1321:1395   */\n      swap1\n      pop\n        /* \"#utility.yul\":1243:1401   */\n      swap2\n      swap1\n      pop\n      jump\t// out\n        /* \"#utility.yul\":1407:1554   */\n    tag_31:\n        /* \"#utility.yul\":1502:1547   */\n      tag_57\n        /* \"#utility.yul\":1541:1546   */\n      dup2\n        /* \"#utility.yul\":1502:1547   */\n      tag_30\n      jump\t// in\n    tag_57:\n        /* \"#utility.yul\":1497:1500   */\n      dup3\n        /* \"#utility.yul\":1490:1548   */\n      mstore\n        /* \"#utility.yul\":1407:1554   */\n      pop\n      pop\n      jump\t// out\n        /* \"#utility.yul\":1560:2018   */\n    tag_12:\n        /* \"#utility.yul\":1717:1721   */\n      0x00\n        /* \"#utility.yul\":1755:1757   */\n      0x60\n        /* \"#utility.yul\":1744:1753   */\n      dup3\n        /* \"#utility.yul\":1740:1758   */\n      add\n        /* \"#utility.yul\":1732:1758   */\n      swap1\n      pop\n        /* \"#utility.yul\":1768:1839   */\n      tag_59\n        /* \"#utility.yul\":1836:1837   */\n      0x00\n        /* \"#utility.yul\":1825:1834   */\n      dup4\n        /* \"#utility.yul\":1821:1838   */\n      add\n        /* \"#utility.yul\":1812:1818   */\n      dup7\n        /* \"#utility.yul\":1768:1839   */\n      tag_24\n      jump\t// in\n    tag_59:\n        /* \"#utility.yul\":1849:1921   */\n      tag_60\n        /* \"#utility.yul\":1917:1919   */\n      0x20\n        /* \"#utility.yul\":1906:1915   */\n      dup4\n        /* \"#utility.yul\":1902:1920   */\n      add\n        /* \"#utility.yul\":1893:1899   */\n      dup6\n        /* \"#utility.yul\":1849:1921   */\n      tag_24\n      jump\t// in\n    tag_60:\n        /* \"#utility.yul\":1931:2011   */\n      tag_61\n        /* \"#utility.yul\":2007:2009   */\n      0x40\n        /* \"#utility.yul\":1996:2005   */\n      dup4\n        /* \"#utility.yul\":1992:2010   */\n      add\n        /* \"#utility.yul\":1983:1989   */\n      dup5\n        /* \"#utility.yul\":1931:2011   */\n      tag_31\n      jump\t// in\n    tag_61:\n        /* \"#utility.yul\":1560:2018   */\n      swap5\n      swap4\n      pop\n      pop\n      pop\n      pop\n      jump\t// out\n        /* \"#utility.yul\":2024:2150   */\n    tag_32:\n        /* \"#utility.yul\":2061:2068   */\n      0x00\n        /* \"#utility.yul\":2101:2143   */\n      0xffffffffffffffffffffffffffffffffffffffff\n        /* \"#utility.yul\":2094:2099   */\n      dup3\n        /* \"#utility.yul\":2090:2144   */\n      and\n        /* \"#utility.yul\":2079:2144   */\n      swap1\n      pop\n        /* \"#utility.yul\":2024:2150   */\n      swap2\n      swap1\n      pop\n      jump\t// out\n        /* \"#utility.yul\":2156:2252   */\n    tag_33:\n        /* \"#utility.yul\":2193:2200   */\n      0x00\n        /* \"#utility.yul\":2222:2246   */\n      tag_64\n        /* \"#utility.yul\":2240:2245   */\n      dup3\n        /* \"#utility.yul\":2222:2246   */\n      tag_32\n      jump\t// in\n    tag_64:\n        /* \"#utility.yul\":2211:2246   */\n      swap1\n      pop\n        /* \"#utility.yul\":2156:2252   */\n      swap2\n      swap1\n      pop\n      jump\t// out\n        /* \"#utility.yul\":2258:2376   */\n    tag_34:\n        /* \"#utility.yul\":2345:2369   */\n      tag_66\n        /* \"#utility.yul\":2363:2368   */\n      dup2\n        /* \"#utility.yul\":2345:2369   */\n      tag_33\n      jump\t// in\n    tag_66:\n        /* \"#utility.yul\":2340:2343   */\n      dup3\n        /* \"#utility.yul\":2333:2370   */\n      mstore\n        /* \"#utility.yul\":2258:2376   */\n      pop\n      pop\n      jump\t// out\n        /* \"#utility.yul\":2382:2604   */\n    tag_19:\n        /* \"#utility.yul\":2475:2479   */\n      0x00\n        /* \"#utility.yul\":2513:2515   */\n      0x20\n        /* \"#utility.yul\":2502:2511   */\n      dup3\n        /* \"#utility.yul\":2498:2516   */\n      add\n        /* \"#utility.yul\":2490:2516   */\n      swap1\n      pop\n        /* \"#utility.yul\":2526:2597   */\n      tag_68\n        /* \"#utility.yul\":2594:2595   */\n      0x00\n        /* \"#utility.yul\":2583:2592   */\n      dup4\n        /* \"#utility.yul\":2579:2596   */\n      add\n        /* \"#utility.yul\":2570:2576   */\n      dup5\n        /* \"#utility.yul\":2526:2597   */\n      tag_34\n      jump\t// in\n    tag_68:\n        /* \"#utility.yul\":2382:2604   */\n      swap3\n      swap2\n      pop\n      pop\n      jump\t// out\n        /* \"#utility.yul\":2610:2942   */\n    tag_22:\n        /* \"#utility.yul\":2731:2735   */\n      0x00\n        /* \"#utility.yul\":2769:2771   */\n      0x40\n        /* \"#utility.yul\":2758:2767   */\n      dup3\n        /* \"#utility.yul\":2754:2772   */\n      add\n        /* \"#utility.yul\":2746:2772   */\n      swap1\n      pop\n        /* \"#utility.yul\":2782:2853   */\n      tag_70\n        /* \"#utility.yul\":2850:2851   */\n      0x00\n        /* \"#utility.yul\":2839:2848   */\n      dup4\n        /* \"#utility.yul\":2835:2852   */\n      add\n        /* \"#utility.yul\":2826:2832   */\n      dup6\n        /* \"#utility.yul\":2782:2853   */\n      tag_34\n      jump\t// in\n    tag_70:\n        /* \"#utility.yul\":2863:2935   */\n      tag_71\n        /* \"#utility.yul\":2931:2933   */\n      0x20\n        /* \"#utility.yul\":2920:2929   */\n      dup4\n        /* \"#utility.yul\":2916:2934   */\n      add\n        /* \"#utility.yul\":2907:2913   */\n      dup5\n        /* \"#utility.yul\":2863:2935   */\n      tag_24\n      jump\t// in\n    tag_71:\n        /* \"#utility.yul\":2610:2942   */\n      swap4\n      swap3\n      pop\n      pop\n      pop\n      jump\t// out\n\n    auxdata: 0xa2646970667358221220bec1183457267c52e903a591abfa32080f3d1d5266ef28de60b00ddd395bd55464736f6c63430008110033\n}\n",
				"bytecode": {
					"linkReferences": {},
					"object": "608060405273ca35b7d915458ef540ade6068dfe2f44e8fa733c6000806101000a81548173ffffffffffffffffffffffffffffffffffffffff021916908373ffffffffffffffffffffffffffffffffffffffff16021790555034801561006457600080fd5b5061033b806100746000396000f3fe60806040526004361061002d5760003560e01c806312065fe0146100ae578063767800de146100b857610070565b36610070577f7d62957b08a56fe5b364d29cc3ff783466de5cae477f59470951f061cce9efe1345a6002604051610066939291906101d7565b60405180910390a1005b7f7d62957b08a56fe5b364d29cc3ff783466de5cae477f59470951f061cce9efe1345a60016040516100a493929190610249565b60405180910390a1005b6100b66100e3565b005b3480156100c457600080fd5b506100cd610155565b6040516100da91906102c1565b60405180910390f35b7f6d8c859a41b8f0898d2297713b26c17d13827e444abae7c4c094189145a248a53360008054906101000a900473ffffffffffffffffffffffffffffffffffffffff1673ffffffffffffffffffffffffffffffffffffffff163160405161014b9291906102dc565b60405180910390a1565b60008054906101000a900473ffffffffffffffffffffffffffffffffffffffff1681565b6000819050919050565b61018c81610179565b82525050565b6000819050919050565b6000819050919050565b60006101c16101bc6101b784610192565b61019c565b610179565b9050919050565b6101d1816101a6565b82525050565b60006060820190506101ec6000830186610183565b6101f96020830185610183565b61020660408301846101c8565b949350505050565b6000819050919050565b600061023361022e6102298461020e565b61019c565b610179565b9050919050565b61024381610218565b82525050565b600060608201905061025e6000830186610183565b61026b6020830185610183565b610278604083018461023a565b949350505050565b600073ffffffffffffffffffffffffffffffffffffffff82169050919050565b60006102ab82610280565b9050919050565b6102bb816102a0565b82525050565b60006020820190506102d660008301846102b2565b92915050565b60006040820190506102f160008301856102b2565b6102fe6020830184610183565b939250505056fea2646970667358221220bec1183457267c52e903a591abfa32080f3d1d5266ef28de60b00ddd395bd55464736f6c63430008110033",
					"opcodes": "PUSH1 0x80 PUSH1 0x40 MSTORE PUSH20 0xCA35B7D915458EF540ADE6068DFE2F44E8FA733C PUSH1 0x0 DUP1 PUSH2 0x100 EXP DUP2 SLOAD DUP2 PUSH20 0xFFFFFFFFFFFFFFFFFFFFFFFFFFFFFFFFFFFFFFFF MUL NOT AND SWAP1 DUP4 PUSH20 0xFFFFFFFFFFFFFFFFFFFFFFFFFFFFFFFFFFFFFFFF AND MUL OR SWAP1 SSTORE POP CALLVALUE DUP1 ISZERO PUSH2 0x64 JUMPI PUSH1 0x0 DUP1 REVERT JUMPDEST POP PUSH2 0x33B DUP1 PUSH2 0x74 PUSH1 0x0 CODECOPY PUSH1 0x0 RETURN INVALID PUSH1 0x80 PUSH1 0x40 MSTORE PUSH1 0x4 CALLDATASIZE LT PUSH2 0x2D JUMPI PUSH1 0x0 CALLDATALOAD PUSH1 0xE0 SHR DUP1 PUSH4 0x12065FE0 EQ PUSH2 0xAE JUMPI DUP1 PUSH4 0x767800DE EQ PUSH2 0xB8 JUMPI PUSH2 0x70 JUMP JUMPDEST CALLDATASIZE PUSH2 0x70 JUMPI PUSH32 0x7D62957B08A56FE5B364D29CC3FF783466DE5CAE477F59470951F061CCE9EFE1 CALLVALUE GAS PUSH1 0x2 PUSH1 0x40 MLOAD PUSH2 0x66 SWAP4 SWAP3 SWAP2 SWAP1 PUSH2 0x1D7 JUMP JUMPDEST PUSH1 0x40 MLOAD DUP1 SWAP2 SUB SWAP1 LOG1 STOP JUMPDEST PUSH32 0x7D62957B08A56FE5B364D29CC3FF783466DE5CAE477F59470951F061CCE9EFE1 CALLVALUE GAS PUSH1 0x1 PUSH1 0x40 MLOAD PUSH2 0xA4 SWAP4 SWAP3 SWAP2 SWAP1 PUSH2 0x249 JUMP JUMPDEST PUSH1 0x40 MLOAD DUP1 SWAP2 SUB SWAP1 LOG1 STOP JUMPDEST PUSH2 0xB6 PUSH2 0xE3 JUMP JUMPDEST STOP JUMPDEST CALLVALUE DUP1 ISZERO PUSH2 0xC4 JUMPI PUSH1 0x0 DUP1 REVERT JUMPDEST POP PUSH2 0xCD PUSH2 0x155 JUMP JUMPDEST PUSH1 0x40 MLOAD PUSH2 0xDA SWAP2 SWAP1 PUSH2 0x2C1 JUMP JUMPDEST PUSH1 0x40 MLOAD DUP1 SWAP2 SUB SWAP1 RETURN JUMPDEST PUSH32 0x6D8C859A41B8F0898D2297713B26C17D13827E444ABAE7C4C094189145A248A5 CALLER PUSH1 0x0 DUP1 SLOAD SWAP1 PUSH2 0x100 EXP SWAP1 DIV PUSH20 0xFFFFFFFFFFFFFFFFFFFFFFFFFFFFFFFFFFFFFFFF AND PUSH20 0xFFFFFFFFFFFFFFFFFFFFFFFFFFFFFFFFFFFFFFFF AND BALANCE PUSH1 0x40 MLOAD PUSH2 0x14B SWAP3 SWAP2 SWAP1 PUSH2 0x2DC JUMP JUMPDEST PUSH1 0x40 MLOAD DUP1 SWAP2 SUB SWAP1 LOG1 JUMP JUMPDEST PUSH1 0x0 DUP1 SLOAD SWAP1 PUSH2 0x100 EXP SWAP1 DIV PUSH20 0xFFFFFFFFFFFFFFFFFFFFFFFFFFFFFFFFFFFFFFFF AND DUP2 JUMP JUMPDEST PUSH1 0x0 DUP2 SWAP1 POP SWAP2 SWAP1 POP JUMP JUMPDEST PUSH2 0x18C DUP2 PUSH2 0x179 JUMP JUMPDEST DUP3 MSTORE POP POP JUMP JUMPDEST PUSH1 0x0 DUP2 SWAP1 POP SWAP2 SWAP1 POP JUMP JUMPDEST PUSH1 0x0 DUP2 SWAP1 POP SWAP2 SWAP1 POP JUMP JUMPDEST PUSH1 0x0 PUSH2 0x1C1 PUSH2 0x1BC PUSH2 0x1B7 DUP5 PUSH2 0x192 JUMP JUMPDEST PUSH2 0x19C JUMP JUMPDEST PUSH2 0x179 JUMP JUMPDEST SWAP1 POP SWAP2 SWAP1 POP JUMP JUMPDEST PUSH2 0x1D1 DUP2 PUSH2 0x1A6 JUMP JUMPDEST DUP3 MSTORE POP POP JUMP JUMPDEST PUSH1 0x0 PUSH1 0x60 DUP3 ADD SWAP1 POP PUSH2 0x1EC PUSH1 0x0 DUP4 ADD DUP7 PUSH2 0x183 JUMP JUMPDEST PUSH2 0x1F9 PUSH1 0x20 DUP4 ADD DUP6 PUSH2 0x183 JUMP JUMPDEST PUSH2 0x206 PUSH1 0x40 DUP4 ADD DUP5 PUSH2 0x1C8 JUMP JUMPDEST SWAP5 SWAP4 POP POP POP POP JUMP JUMPDEST PUSH1 0x0 DUP2 SWAP1 POP SWAP2 SWAP1 POP JUMP JUMPDEST PUSH1 0x0 PUSH2 0x233 PUSH2 0x22E PUSH2 0x229 DUP5 PUSH2 0x20E JUMP JUMPDEST PUSH2 0x19C JUMP JUMPDEST PUSH2 0x179 JUMP JUMPDEST SWAP1 POP SWAP2 SWAP1 POP JUMP JUMPDEST PUSH2 0x243 DUP2 PUSH2 0x218 JUMP JUMPDEST DUP3 MSTORE POP POP JUMP JUMPDEST PUSH1 0x0 PUSH1 0x60 DUP3 ADD SWAP1 POP PUSH2 0x25E PUSH1 0x0 DUP4 ADD DUP7 PUSH2 0x183 JUMP JUMPDEST PUSH2 0x26B PUSH1 0x20 DUP4 ADD DUP6 PUSH2 0x183 JUMP JUMPDEST PUSH2 0x278 PUSH1 0x40 DUP4 ADD DUP5 PUSH2 0x23A JUMP JUMPDEST SWAP5 SWAP4 POP POP POP POP JUMP JUMPDEST PUSH1 0x0 PUSH20 0xFFFFFFFFFFFFFFFFFFFFFFFFFFFFFFFFFFFFFFFF DUP3 AND SWAP1 POP SWAP2 SWAP1 POP JUMP JUMPDEST PUSH1 0x0 PUSH2 0x2AB DUP3 PUSH2 0x280 JUMP JUMPDEST SWAP1 POP SWAP2 SWAP1 POP JUMP JUMPDEST PUSH2 0x2BB DUP2 PUSH2 0x2A0 JUMP JUMPDEST DUP3 MSTORE POP POP JUMP JUMPDEST PUSH1 0x0 PUSH1 0x20 DUP3 ADD SWAP1 POP PUSH2 0x2D6 PUSH1 0x0 DUP4 ADD DUP5 PUSH2 0x2B2 JUMP JUMPDEST SWAP3 SWAP2 POP POP JUMP JUMPDEST PUSH1 0x0 PUSH1 0x40 DUP3 ADD SWAP1 POP PUSH2 0x2F1 PUSH1 0x0 DUP4 ADD DUP6 PUSH2 0x2B2 JUMP JUMPDEST PUSH2 0x2FE PUSH1 0x20 DUP4 ADD DUP5 PUSH2 0x183 JUMP JUMPDEST SWAP4 SWAP3 POP POP POP JUMP INVALID LOG2 PUSH5 0x6970667358 0x22 SLT KECCAK256 0xBE 0xC1 XOR CALLVALUE JUMPI 0x26 PUSH29 0x52E903A591ABFA32080F3D1D5266EF28DE60B00DDD395BD55464736F6C PUSH4 0x43000811 STOP CALLER "
				},
				"gasEstimates": {
					"creation": {
						"codeDepositCost": "165400",
						"executionCost": "24475",
						"totalCost": "189875"
					},
					"external": {
						"": "infinite",
						"addr()": "2511",
						"getBalance()": "6435"
					}
				},
				"methodIdentifiers": {
					"addr()": "767800de",
					"getBalance()": "12065fe0"
				}
			},
			"storageLayout": {
				"storage": [
					{
						"astId": 18,
						"contract": "day2/Address.sol:Primitives",
						"label": "addr",
						"offset": 0,
						"slot": "0",
						"type": "t_address"
					}
				],
				"types": {
					"t_address": {
						"encoding": "inplace",
						"label": "address",
						"numberOfBytes": "20"
					}
				}
			},
			"userdoc": {
				"kind": "user",
				"methods": {},
				"version": 1
			}
		}
	}
}