{
	"day2/Address.sol": {
		"TransferETH": {
			"abi": [
				{
					"anonymous": false,
					"inputs": [
						{
							"indexed": false,
							"internalType": "address",
							"name": "sender",
							"type": "address"
						},
						{
							"indexed": false,
							"internalType": "uint256",
							"name": "value",
							"type": "uint256"
						}
					],
					"name": "depositLog",
					"type": "event"
				},
				{
					"anonymous": false,
					"inputs": [
						{
							"indexed": false,
							"internalType": "uint256",
							"name": "gas",
							"type": "uint256"
						}
					],
					"name": "gasLog",
					"type": "event"
				},
				{
					"anonymous": false,
					"inputs": [
						{
							"indexed": false,
							"internalType": "address",
							"name": "sender",
							"type": "address"
						},
						{
							"indexed": false,
							"internalType": "uint256",
							"name": "value",
							"type": "uint256"
						}
					],
					"name": "transferLog",
					"type": "event"
				},
				{
					"inputs": [
						{
							"internalType": "address payable",
							"name": "recipient",
							"type": "address"
						}
					],
					"name": "call",
					"outputs": [
						{
							"internalType": "bool",
							"name": "",
							"type": "bool"
						}
					],
					"stateMutability": "payable",
					"type": "function"
				},
				{
					"inputs": [],
					"name": "deposit",
					"outputs": [],
					"stateMutability": "payable",
					"type": "function"
				},
				{
					"inputs": [
						{
							"internalType": "address payable",
							"name": "recipient",
							"type": "address"
						}
					],
					"name": "send",
					"outputs": [
						{
							"internalType": "bool",
							"name": "",
							"type": "bool"
						}
					],
					"stateMutability": "payable",
					"type": "function"
				},
				{
					"inputs": [
						{
							"internalType": "address payable",
							"name": "recipient",
							"type": "address"
						}
					],
					"name": "transfer",
					"outputs": [],
					"stateMutability": "payable",
					"type": "function"
				}
			],
			"devdoc": {
				"kind": "dev",
				"methods": {},
				"version": 1
			},
			"evm": {
				"assembly": "    /* \"day2/Address.sol\":912:1753  contract TransferETH {... */\n  mstore(0x40, 0x80)\n  callvalue\n  dup1\n  iszero\n  tag_1\n  jumpi\n  0x00\n  dup1\n  revert\ntag_1:\n  pop\n  dataSize(sub_0)\n  dup1\n  dataOffset(sub_0)\n  0x00\n  codecopy\n  0x00\n  return\nstop\n\nsub_0: assembly {\n        /* \"day2/Address.sol\":912:1753  contract TransferETH {... */\n      mstore(0x40, 0x80)\n      jumpi(tag_1, lt(calldatasize, 0x04))\n      shr(0xe0, calldataload(0x00))\n      dup1\n      0x1a695230\n      eq\n      tag_2\n      jumpi\n      dup1\n      0x3e58c58c\n      eq\n      tag_3\n      jumpi\n      dup1\n      0xd0e30db0\n      eq\n      tag_4\n      jumpi\n      dup1\n      0xf55332ab\n      eq\n      tag_5\n      jumpi\n    tag_1:\n      0x00\n      dup1\n      revert\n        /* \"day2/Address.sol\":996:1154  function transfer(address payable recipient) public payable {... */\n    tag_2:\n      tag_6\n      0x04\n      dup1\n      calldatasize\n      sub\n      dup2\n      add\n      swap1\n      tag_7\n      swap2\n      swap1\n      tag_8\n      jump\t// in\n    tag_7:\n      tag_9\n      jump\t// in\n    tag_6:\n      stop\n        /* \"day2/Address.sol\":1163:1285  function send(address payable recipient) public payable returns (bool) {... */\n    tag_3:\n      tag_10\n      0x04\n      dup1\n      calldatasize\n      sub\n      dup2\n      add\n      swap1\n      tag_11\n      swap2\n      swap1\n      tag_8\n      jump\t// in\n    tag_11:\n      tag_12\n      jump\t// in\n    tag_10:\n      mload(0x40)\n      tag_13\n      swap2\n      swap1\n      tag_14\n      jump\t// in\n    tag_13:\n      mload(0x40)\n      dup1\n      swap2\n      sub\n      swap1\n      return\n        /* \"day2/Address.sol\":1654:1748  function deposit() public payable{... */\n    tag_4:\n      tag_15\n      tag_16\n      jump\t// in\n    tag_15:\n      stop\n        /* \"day2/Address.sol\":1332:1591  function call(address payable recipient) public payable returns (bool) {... */\n    tag_5:\n      tag_17\n      0x04\n      dup1\n      calldatasize\n      sub\n      dup2\n      add\n      swap1\n      tag_18\n      swap2\n      swap1\n      tag_8\n      jump\t// in\n    tag_18:\n      tag_19\n      jump\t// in\n    tag_17:\n      mload(0x40)\n      tag_20\n      swap2\n      swap1\n      tag_14\n      jump\t// in\n    tag_20:\n      mload(0x40)\n      dup1\n      swap2\n      sub\n      swap1\n      return\n        /* \"day2/Address.sol\":996:1154  function transfer(address payable recipient) public payable {... */\n    tag_9:\n        /* \"day2/Address.sol\":1067:1076  recipient */\n      dup1\n        /* \"day2/Address.sol\":1067:1085  recipient.transfer */\n      0xffffffffffffffffffffffffffffffffffffffff\n      and\n        /* \"day2/Address.sol\":1067:1096  recipient.transfer(msg.value) */\n      0x08fc\n        /* \"day2/Address.sol\":1086:1095  msg.value */\n      callvalue\n        /* \"day2/Address.sol\":1067:1096  recipient.transfer(msg.value) */\n      swap1\n      dup2\n      iszero\n      mul\n      swap1\n      mload(0x40)\n      0x00\n      mload(0x40)\n      dup1\n      dup4\n      sub\n      dup2\n      dup6\n      dup9\n      dup9\n      call\n      swap4\n      pop\n      pop\n      pop\n      pop\n      iszero\n      dup1\n      iszero\n      tag_23\n      jumpi\n      returndatasize\n      0x00\n      dup1\n      returndatacopy\n      revert(0x00, returndatasize)\n    tag_23:\n      pop\n        /* \"day2/Address.sol\":1112:1146  transferLog(msg.sender, msg.value) */\n      0xf8e3862e6b47485e9988b400ac37e16b184d2db70178f55e7931c1a7b7144a13\n        /* \"day2/Address.sol\":1124:1134  msg.sender */\n      caller\n        /* \"day2/Address.sol\":1136:1145  msg.value */\n      callvalue\n        /* \"day2/Address.sol\":1112:1146  transferLog(msg.sender, msg.value) */\n      mload(0x40)\n      tag_24\n      swap3\n      swap2\n      swap1\n      tag_25\n      jump\t// in\n    tag_24:\n      mload(0x40)\n      dup1\n      swap2\n      sub\n      swap1\n      log1\n        /* \"day2/Address.sol\":996:1154  function transfer(address payable recipient) public payable {... */\n      pop\n      jump\t// out\n        /* \"day2/Address.sol\":1163:1285  function send(address payable recipient) public payable returns (bool) {... */\n    tag_12:\n        /* \"day2/Address.sol\":1228:1232  bool */\n      0x00\n        /* \"day2/Address.sol\":1252:1261  recipient */\n      dup2\n        /* \"day2/Address.sol\":1252:1266  recipient.send */\n      0xffffffffffffffffffffffffffffffffffffffff\n      and\n        /* \"day2/Address.sol\":1252:1277  recipient.send(msg.value) */\n      0x08fc\n        /* \"day2/Address.sol\":1267:1276  msg.value */\n      callvalue\n        /* \"day2/Address.sol\":1252:1277  recipient.send(msg.value) */\n      swap1\n      dup2\n      iszero\n      mul\n      swap1\n      mload(0x40)\n      0x00\n      mload(0x40)\n      dup1\n      dup4\n      sub\n      dup2\n      dup6\n      dup9\n      dup9\n      call\n      swap4\n      pop\n      pop\n      pop\n      pop\n        /* \"day2/Address.sol\":1244:1277  return  recipient.send(msg.value) */\n      swap1\n      pop\n        /* \"day2/Address.sol\":1163:1285  function send(address payable recipient) public payable returns (bool) {... */\n      swap2\n      swap1\n      pop\n      jump\t// out\n        /* \"day2/Address.sol\":1654:1748  function deposit() public payable{... */\n    tag_16:\n        /* \"day2/Address.sol\":1704:1737  depositLog(msg.sender, msg.value) */\n      0xe0fbaffdb15cdfab5c685e516e471beb5234983e0f91c3330c780901fca28c82\n        /* \"day2/Address.sol\":1715:1725  msg.sender */\n      caller\n        /* \"day2/Address.sol\":1727:1736  msg.value */\n      callvalue\n        /* \"day2/Address.sol\":1704:1737  depositLog(msg.sender, msg.value) */\n      mload(0x40)\n      tag_29\n      swap3\n      swap2\n      swap1\n      tag_25\n      jump\t// in\n    tag_29:\n      mload(0x40)\n      dup1\n      swap2\n      sub\n      swap1\n      log1\n        /* \"day2/Address.sol\":1654:1748  function deposit() public payable{... */\n      jump\t// out\n        /* \"day2/Address.sol\":1332:1591  function call(address payable recipient) public payable returns (bool) {... */\n    tag_19:\n        /* \"day2/Address.sol\":1397:1401  bool */\n      0x00\n        /* \"day2/Address.sol\":1454:1463  bool sent */\n      dup1\n        /* \"day2/Address.sol\":1470:1479  recipient */\n      dup3\n        /* \"day2/Address.sol\":1470:1484  recipient.call */\n      0xffffffffffffffffffffffffffffffffffffffff\n      and\n        /* \"day2/Address.sol\":1492:1501  msg.value */\n      callvalue\n        /* \"day2/Address.sol\":1506:1515  gasleft() */\n      gas\n        /* \"day2/Address.sol\":1470:1523  recipient.call{value: msg.value,gas:gasleft()}(\"abc\") */\n      swap1\n      mload(0x40)\n      tag_31\n      swap1\n      tag_32\n      jump\t// in\n    tag_31:\n      0x00\n      mload(0x40)\n      dup1\n      dup4\n      sub\n      dup2\n      dup6\n      dup9\n      dup9\n      call\n      swap4\n      pop\n      pop\n      pop\n      pop\n      returndatasize\n      dup1\n      0x00\n      dup2\n      eq\n      tag_35\n      jumpi\n      mload(0x40)\n      swap2\n      pop\n      and(add(returndatasize, 0x3f), not(0x1f))\n      dup3\n      add\n      0x40\n      mstore\n      returndatasize\n      dup3\n      mstore\n      returndatasize\n      0x00\n      0x20\n      dup5\n      add\n      returndatacopy\n      jump(tag_34)\n    tag_35:\n      0x60\n      swap2\n      pop\n    tag_34:\n      pop\n        /* \"day2/Address.sol\":1453:1523  (bool sent, )  = recipient.call{value: msg.value,gas:gasleft()}(\"abc\") */\n      pop\n      swap1\n      pop\n        /* \"day2/Address.sol\":1541:1558  gasLog(gasleft()) */\n      0xe9b0701e3276bb213fe2c60f53706a0f417f2f60569e41018a03149bb25cd7b8\n        /* \"day2/Address.sol\":1548:1557  gasleft() */\n      gas\n        /* \"day2/Address.sol\":1541:1558  gasLog(gasleft()) */\n      mload(0x40)\n      tag_36\n      swap2\n      swap1\n      tag_37\n      jump\t// in\n    tag_36:\n      mload(0x40)\n      dup1\n      swap2\n      sub\n      swap1\n      log1\n        /* \"day2/Address.sol\":1577:1581  sent */\n      dup1\n        /* \"day2/Address.sol\":1570:1581  return sent */\n      swap2\n      pop\n      pop\n        /* \"day2/Address.sol\":1332:1591  function call(address payable recipient) public payable returns (bool) {... */\n      swap2\n      swap1\n      pop\n      jump\t// out\n        /* \"#utility.yul\":88:205   */\n    tag_39:\n        /* \"#utility.yul\":197:198   */\n      0x00\n        /* \"#utility.yul\":194:195   */\n      dup1\n        /* \"#utility.yul\":187:199   */\n      revert\n        /* \"#utility.yul\":334:460   */\n    tag_41:\n        /* \"#utility.yul\":371:378   */\n      0x00\n        /* \"#utility.yul\":411:453   */\n      0xffffffffffffffffffffffffffffffffffffffff\n        /* \"#utility.yul\":404:409   */\n      dup3\n        /* \"#utility.yul\":400:454   */\n      and\n        /* \"#utility.yul\":389:454   */\n      swap1\n      pop\n        /* \"#utility.yul\":334:460   */\n      swap2\n      swap1\n      pop\n      jump\t// out\n        /* \"#utility.yul\":466:570   */\n    tag_42:\n        /* \"#utility.yul\":511:518   */\n      0x00\n        /* \"#utility.yul\":540:564   */\n      tag_60\n        /* \"#utility.yul\":558:563   */\n      dup3\n        /* \"#utility.yul\":540:564   */\n      tag_41\n      jump\t// in\n    tag_60:\n        /* \"#utility.yul\":529:564   */\n      swap1\n      pop\n        /* \"#utility.yul\":466:570   */\n      swap2\n      swap1\n      pop\n      jump\t// out\n        /* \"#utility.yul\":576:714   */\n    tag_43:\n        /* \"#utility.yul\":657:689   */\n      tag_62\n        /* \"#utility.yul\":683:688   */\n      dup2\n        /* \"#utility.yul\":657:689   */\n      tag_42\n      jump\t// in\n    tag_62:\n        /* \"#utility.yul\":650:655   */\n      dup2\n        /* \"#utility.yul\":647:690   */\n      eq\n        /* \"#utility.yul\":637:708   */\n      tag_63\n      jumpi\n        /* \"#utility.yul\":704:705   */\n      0x00\n        /* \"#utility.yul\":701:702   */\n      dup1\n        /* \"#utility.yul\":694:706   */\n      revert\n        /* \"#utility.yul\":637:708   */\n    tag_63:\n        /* \"#utility.yul\":576:714   */\n      pop\n      jump\t// out\n        /* \"#utility.yul\":720:875   */\n    tag_44:\n        /* \"#utility.yul\":774:779   */\n      0x00\n        /* \"#utility.yul\":812:818   */\n      dup2\n        /* \"#utility.yul\":799:819   */\n      calldataload\n        /* \"#utility.yul\":790:819   */\n      swap1\n      pop\n        /* \"#utility.yul\":828:869   */\n      tag_65\n        /* \"#utility.yul\":863:868   */\n      dup2\n        /* \"#utility.yul\":828:869   */\n      tag_43\n      jump\t// in\n    tag_65:\n        /* \"#utility.yul\":720:875   */\n      swap3\n      swap2\n      pop\n      pop\n      jump\t// out\n        /* \"#utility.yul\":881:1226   */\n    tag_8:\n        /* \"#utility.yul\":948:954   */\n      0x00\n        /* \"#utility.yul\":997:999   */\n      0x20\n        /* \"#utility.yul\":985:994   */\n      dup3\n        /* \"#utility.yul\":976:983   */\n      dup5\n        /* \"#utility.yul\":972:995   */\n      sub\n        /* \"#utility.yul\":968:1000   */\n      slt\n        /* \"#utility.yul\":965:1084   */\n      iszero\n      tag_67\n      jumpi\n        /* \"#utility.yul\":1003:1082   */\n      tag_68\n      tag_39\n      jump\t// in\n    tag_68:\n        /* \"#utility.yul\":965:1084   */\n    tag_67:\n        /* \"#utility.yul\":1123:1124   */\n      0x00\n        /* \"#utility.yul\":1148:1209   */\n      tag_69\n        /* \"#utility.yul\":1201:1208   */\n      dup5\n        /* \"#utility.yul\":1192:1198   */\n      dup3\n        /* \"#utility.yul\":1181:1190   */\n      dup6\n        /* \"#utility.yul\":1177:1199   */\n      add\n        /* \"#utility.yul\":1148:1209   */\n      tag_44\n      jump\t// in\n    tag_69:\n        /* \"#utility.yul\":1138:1209   */\n      swap2\n      pop\n        /* \"#utility.yul\":1094:1219   */\n      pop\n        /* \"#utility.yul\":881:1226   */\n      swap3\n      swap2\n      pop\n      pop\n      jump\t// out\n        /* \"#utility.yul\":1232:1322   */\n    tag_45:\n        /* \"#utility.yul\":1266:1273   */\n      0x00\n        /* \"#utility.yul\":1309:1314   */\n      dup2\n        /* \"#utility.yul\":1302:1315   */\n      iszero\n        /* \"#utility.yul\":1295:1316   */\n      iszero\n        /* \"#utility.yul\":1284:1316   */\n      swap1\n      pop\n        /* \"#utility.yul\":1232:1322   */\n      swap2\n      swap1\n      pop\n      jump\t// out\n        /* \"#utility.yul\":1328:1437   */\n    tag_46:\n        /* \"#utility.yul\":1409:1430   */\n      tag_72\n        /* \"#utility.yul\":1424:1429   */\n      dup2\n        /* \"#utility.yul\":1409:1430   */\n      tag_45\n      jump\t// in\n    tag_72:\n        /* \"#utility.yul\":1404:1407   */\n      dup3\n        /* \"#utility.yul\":1397:1431   */\n      mstore\n        /* \"#utility.yul\":1328:1437   */\n      pop\n      pop\n      jump\t// out\n        /* \"#utility.yul\":1443:1653   */\n    tag_14:\n        /* \"#utility.yul\":1530:1534   */\n      0x00\n        /* \"#utility.yul\":1568:1570   */\n      0x20\n        /* \"#utility.yul\":1557:1566   */\n      dup3\n        /* \"#utility.yul\":1553:1571   */\n      add\n        /* \"#utility.yul\":1545:1571   */\n      swap1\n      pop\n        /* \"#utility.yul\":1581:1646   */\n      tag_74\n        /* \"#utility.yul\":1643:1644   */\n      0x00\n        /* \"#utility.yul\":1632:1641   */\n      dup4\n        /* \"#utility.yul\":1628:1645   */\n      add\n        /* \"#utility.yul\":1619:1625   */\n      dup5\n        /* \"#utility.yul\":1581:1646   */\n      tag_46\n      jump\t// in\n    tag_74:\n        /* \"#utility.yul\":1443:1653   */\n      swap3\n      swap2\n      pop\n      pop\n      jump\t// out\n        /* \"#utility.yul\":1659:1755   */\n    tag_47:\n        /* \"#utility.yul\":1696:1703   */\n      0x00\n        /* \"#utility.yul\":1725:1749   */\n      tag_76\n        /* \"#utility.yul\":1743:1748   */\n      dup3\n        /* \"#utility.yul\":1725:1749   */\n      tag_41\n      jump\t// in\n    tag_76:\n        /* \"#utility.yul\":1714:1749   */\n      swap1\n      pop\n        /* \"#utility.yul\":1659:1755   */\n      swap2\n      swap1\n      pop\n      jump\t// out\n        /* \"#utility.yul\":1761:1879   */\n    tag_48:\n        /* \"#utility.yul\":1848:1872   */\n      tag_78\n        /* \"#utility.yul\":1866:1871   */\n      dup2\n        /* \"#utility.yul\":1848:1872   */\n      tag_47\n      jump\t// in\n    tag_78:\n        /* \"#utility.yul\":1843:1846   */\n      dup3\n        /* \"#utility.yul\":1836:1873   */\n      mstore\n        /* \"#utility.yul\":1761:1879   */\n      pop\n      pop\n      jump\t// out\n        /* \"#utility.yul\":1885:1962   */\n    tag_49:\n        /* \"#utility.yul\":1922:1929   */\n      0x00\n        /* \"#utility.yul\":1951:1956   */\n      dup2\n        /* \"#utility.yul\":1940:1956   */\n      swap1\n      pop\n        /* \"#utility.yul\":1885:1962   */\n      swap2\n      swap1\n      pop\n      jump\t// out\n        /* \"#utility.yul\":1968:2086   */\n    tag_50:\n        /* \"#utility.yul\":2055:2079   */\n      tag_81\n        /* \"#utility.yul\":2073:2078   */\n      dup2\n        /* \"#utility.yul\":2055:2079   */\n      tag_49\n      jump\t// in\n    tag_81:\n        /* \"#utility.yul\":2050:2053   */\n      dup3\n        /* \"#utility.yul\":2043:2080   */\n      mstore\n        /* \"#utility.yul\":1968:2086   */\n      pop\n      pop\n      jump\t// out\n        /* \"#utility.yul\":2092:2424   */\n    tag_25:\n        /* \"#utility.yul\":2213:2217   */\n      0x00\n        /* \"#utility.yul\":2251:2253   */\n      0x40\n        /* \"#utility.yul\":2240:2249   */\n      dup3\n        /* \"#utility.yul\":2236:2254   */\n      add\n        /* \"#utility.yul\":2228:2254   */\n      swap1\n      pop\n        /* \"#utility.yul\":2264:2335   */\n      tag_83\n        /* \"#utility.yul\":2332:2333   */\n      0x00\n        /* \"#utility.yul\":2321:2330   */\n      dup4\n        /* \"#utility.yul\":2317:2334   */\n      add\n        /* \"#utility.yul\":2308:2314   */\n      dup6\n        /* \"#utility.yul\":2264:2335   */\n      tag_48\n      jump\t// in\n    tag_83:\n        /* \"#utility.yul\":2345:2417   */\n      tag_84\n        /* \"#utility.yul\":2413:2415   */\n      0x20\n        /* \"#utility.yul\":2402:2411   */\n      dup4\n        /* \"#utility.yul\":2398:2416   */\n      add\n        /* \"#utility.yul\":2389:2395   */\n      dup5\n        /* \"#utility.yul\":2345:2417   */\n      tag_50\n      jump\t// in\n    tag_84:\n        /* \"#utility.yul\":2092:2424   */\n      swap4\n      swap3\n      pop\n      pop\n      pop\n      jump\t// out\n        /* \"#utility.yul\":2430:2577   */\n    tag_51:\n        /* \"#utility.yul\":2531:2542   */\n      0x00\n        /* \"#utility.yul\":2568:2571   */\n      dup2\n        /* \"#utility.yul\":2553:2571   */\n      swap1\n      pop\n        /* \"#utility.yul\":2430:2577   */\n      swap3\n      swap2\n      pop\n      pop\n      jump\t// out\n        /* \"#utility.yul\":2583:2736   */\n    tag_52:\n        /* \"#utility.yul\":2723:2728   */\n      0x6162630000000000000000000000000000000000000000000000000000000000\n        /* \"#utility.yul\":2719:2720   */\n      0x00\n        /* \"#utility.yul\":2711:2717   */\n      dup3\n        /* \"#utility.yul\":2707:2721   */\n      add\n        /* \"#utility.yul\":2700:2729   */\n      mstore\n        /* \"#utility.yul\":2583:2736   */\n      pop\n      jump\t// out\n        /* \"#utility.yul\":2742:3140   */\n    tag_53:\n        /* \"#utility.yul\":2901:2904   */\n      0x00\n        /* \"#utility.yul\":2922:3005   */\n      tag_88\n        /* \"#utility.yul\":3003:3004   */\n      0x03\n        /* \"#utility.yul\":2998:3001   */\n      dup4\n        /* \"#utility.yul\":2922:3005   */\n      tag_51\n      jump\t// in\n    tag_88:\n        /* \"#utility.yul\":2915:3005   */\n      swap2\n      pop\n        /* \"#utility.yul\":3014:3107   */\n      tag_89\n        /* \"#utility.yul\":3103:3106   */\n      dup3\n        /* \"#utility.yul\":3014:3107   */\n      tag_52\n      jump\t// in\n    tag_89:\n        /* \"#utility.yul\":3132:3133   */\n      0x03\n        /* \"#utility.yul\":3127:3130   */\n      dup3\n        /* \"#utility.yul\":3123:3134   */\n      add\n        /* \"#utility.yul\":3116:3134   */\n      swap1\n      pop\n        /* \"#utility.yul\":2742:3140   */\n      swap2\n      swap1\n      pop\n      jump\t// out\n        /* \"#utility.yul\":3146:3525   */\n    tag_32:\n        /* \"#utility.yul\":3330:3333   */\n      0x00\n        /* \"#utility.yul\":3352:3499   */\n      tag_91\n        /* \"#utility.yul\":3495:3498   */\n      dup3\n        /* \"#utility.yul\":3352:3499   */\n      tag_53\n      jump\t// in\n    tag_91:\n        /* \"#utility.yul\":3345:3499   */\n      swap2\n      pop\n        /* \"#utility.yul\":3516:3519   */\n      dup2\n        /* \"#utility.yul\":3509:3519   */\n      swap1\n      pop\n        /* \"#utility.yul\":3146:3525   */\n      swap2\n      swap1\n      pop\n      jump\t// out\n        /* \"#utility.yul\":3531:3753   */\n    tag_37:\n        /* \"#utility.yul\":3624:3628   */\n      0x00\n        /* \"#utility.yul\":3662:3664   */\n      0x20\n        /* \"#utility.yul\":3651:3660   */\n      dup3\n        /* \"#utility.yul\":3647:3665   */\n      add\n        /* \"#utility.yul\":3639:3665   */\n      swap1\n      pop\n        /* \"#utility.yul\":3675:3746   */\n      tag_93\n        /* \"#utility.yul\":3743:3744   */\n      0x00\n        /* \"#utility.yul\":3732:3741   */\n      dup4\n        /* \"#utility.yul\":3728:3745   */\n      add\n        /* \"#utility.yul\":3719:3725   */\n      dup5\n        /* \"#utility.yul\":3675:3746   */\n      tag_50\n      jump\t// in\n    tag_93:\n        /* \"#utility.yul\":3531:3753   */\n      swap3\n      swap2\n      pop\n      pop\n      jump\t// out\n\n    auxdata: 0xa264697066735822122055da60ff1f72232665f5539d6d53d45a268049d555ed0b0ac00c39f2d75c763164736f6c63430008110033\n}\n",
				"bytecode": {
					"linkReferences": {},
					"object": "608060405234801561001057600080fd5b5061045c806100206000396000f3fe60806040526004361061003f5760003560e01c80631a695230146100445780633e58c58c14610060578063d0e30db014610090578063f55332ab1461009a575b600080fd5b61005e600480360381019061005991906102d9565b6100ca565b005b61007a600480360381019061007591906102d9565b61014d565b6040516100879190610321565b60405180910390f35b61009861018b565b005b6100b460048036038101906100af91906102d9565b6101c6565b6040516100c19190610321565b60405180910390f35b8073ffffffffffffffffffffffffffffffffffffffff166108fc349081150290604051600060405180830381858888f19350505050158015610110573d6000803e3d6000fd5b507ff8e3862e6b47485e9988b400ac37e16b184d2db70178f55e7931c1a7b7144a133334604051610142929190610376565b60405180910390a150565b60008173ffffffffffffffffffffffffffffffffffffffff166108fc349081150290604051600060405180830381858888f193505050509050919050565b7fe0fbaffdb15cdfab5c685e516e471beb5234983e0f91c3330c780901fca28c8233346040516101bc929190610376565b60405180910390a1565b6000808273ffffffffffffffffffffffffffffffffffffffff16345a906040516101ef906103f6565b600060405180830381858888f193505050503d806000811461022d576040519150601f19603f3d011682016040523d82523d6000602084013e610232565b606091505b505090507fe9b0701e3276bb213fe2c60f53706a0f417f2f60569e41018a03149bb25cd7b85a604051610265919061040b565b60405180910390a180915050919050565b600080fd5b600073ffffffffffffffffffffffffffffffffffffffff82169050919050565b60006102a68261027b565b9050919050565b6102b68161029b565b81146102c157600080fd5b50565b6000813590506102d3816102ad565b92915050565b6000602082840312156102ef576102ee610276565b5b60006102fd848285016102c4565b91505092915050565b60008115159050919050565b61031b81610306565b82525050565b60006020820190506103366000830184610312565b92915050565b60006103478261027b565b9050919050565b6103578161033c565b82525050565b6000819050919050565b6103708161035d565b82525050565b600060408201905061038b600083018561034e565b6103986020830184610367565b9392505050565b600081905092915050565b7f6162630000000000000000000000000000000000000000000000000000000000600082015250565b60006103e060038361039f565b91506103eb826103aa565b600382019050919050565b6000610401826103d3565b9150819050919050565b60006020820190506104206000830184610367565b9291505056fea264697066735822122055da60ff1f72232665f5539d6d53d45a268049d555ed0b0ac00c39f2d75c763164736f6c63430008110033",
					"opcodes": "PUSH1 0x80 PUSH1 0x40 MSTORE CALLVALUE DUP1 ISZERO PUSH2 0x10 JUMPI PUSH1 0x0 DUP1 REVERT JUMPDEST POP PUSH2 0x45C DUP1 PUSH2 0x20 PUSH1 0x0 CODECOPY PUSH1 0x0 RETURN INVALID PUSH1 0x80 PUSH1 0x40 MSTORE PUSH1 0x4 CALLDATASIZE LT PUSH2 0x3F JUMPI PUSH1 0x0 CALLDATALOAD PUSH1 0xE0 SHR DUP1 PUSH4 0x1A695230 EQ PUSH2 0x44 JUMPI DUP1 PUSH4 0x3E58C58C EQ PUSH2 0x60 JUMPI DUP1 PUSH4 0xD0E30DB0 EQ PUSH2 0x90 JUMPI DUP1 PUSH4 0xF55332AB EQ PUSH2 0x9A JUMPI JUMPDEST PUSH1 0x0 DUP1 REVERT JUMPDEST PUSH2 0x5E PUSH1 0x4 DUP1 CALLDATASIZE SUB DUP2 ADD SWAP1 PUSH2 0x59 SWAP2 SWAP1 PUSH2 0x2D9 JUMP JUMPDEST PUSH2 0xCA JUMP JUMPDEST STOP JUMPDEST PUSH2 0x7A PUSH1 0x4 DUP1 CALLDATASIZE SUB DUP2 ADD SWAP1 PUSH2 0x75 SWAP2 SWAP1 PUSH2 0x2D9 JUMP JUMPDEST PUSH2 0x14D JUMP JUMPDEST PUSH1 0x40 MLOAD PUSH2 0x87 SWAP2 SWAP1 PUSH2 0x321 JUMP JUMPDEST PUSH1 0x40 MLOAD DUP1 SWAP2 SUB SWAP1 RETURN JUMPDEST PUSH2 0x98 PUSH2 0x18B JUMP JUMPDEST STOP JUMPDEST PUSH2 0xB4 PUSH1 0x4 DUP1 CALLDATASIZE SUB DUP2 ADD SWAP1 PUSH2 0xAF SWAP2 SWAP1 PUSH2 0x2D9 JUMP JUMPDEST PUSH2 0x1C6 JUMP JUMPDEST PUSH1 0x40 MLOAD PUSH2 0xC1 SWAP2 SWAP1 PUSH2 0x321 JUMP JUMPDEST PUSH1 0x40 MLOAD DUP1 SWAP2 SUB SWAP1 RETURN JUMPDEST DUP1 PUSH20 0xFFFFFFFFFFFFFFFFFFFFFFFFFFFFFFFFFFFFFFFF AND PUSH2 0x8FC CALLVALUE SWAP1 DUP2 ISZERO MUL SWAP1 PUSH1 0x40 MLOAD PUSH1 0x0 PUSH1 0x40 MLOAD DUP1 DUP4 SUB DUP2 DUP6 DUP9 DUP9 CALL SWAP4 POP POP POP POP ISZERO DUP1 ISZERO PUSH2 0x110 JUMPI RETURNDATASIZE PUSH1 0x0 DUP1 RETURNDATACOPY RETURNDATASIZE PUSH1 0x0 REVERT JUMPDEST POP PUSH32 0xF8E3862E6B47485E9988B400AC37E16B184D2DB70178F55E7931C1A7B7144A13 CALLER CALLVALUE PUSH1 0x40 MLOAD PUSH2 0x142 SWAP3 SWAP2 SWAP1 PUSH2 0x376 JUMP JUMPDEST PUSH1 0x40 MLOAD DUP1 SWAP2 SUB SWAP1 LOG1 POP JUMP JUMPDEST PUSH1 0x0 DUP2 PUSH20 0xFFFFFFFFFFFFFFFFFFFFFFFFFFFFFFFFFFFFFFFF AND PUSH2 0x8FC CALLVALUE SWAP1 DUP2 ISZERO MUL SWAP1 PUSH1 0x40 MLOAD PUSH1 0x0 PUSH1 0x40 MLOAD DUP1 DUP4 SUB DUP2 DUP6 DUP9 DUP9 CALL SWAP4 POP POP POP POP SWAP1 POP SWAP2 SWAP1 POP JUMP JUMPDEST PUSH32 0xE0FBAFFDB15CDFAB5C685E516E471BEB5234983E0F91C3330C780901FCA28C82 CALLER CALLVALUE PUSH1 0x40 MLOAD PUSH2 0x1BC SWAP3 SWAP2 SWAP1 PUSH2 0x376 JUMP JUMPDEST PUSH1 0x40 MLOAD DUP1 SWAP2 SUB SWAP1 LOG1 JUMP JUMPDEST PUSH1 0x0 DUP1 DUP3 PUSH20 0xFFFFFFFFFFFFFFFFFFFFFFFFFFFFFFFFFFFFFFFF AND CALLVALUE GAS SWAP1 PUSH1 0x40 MLOAD PUSH2 0x1EF SWAP1 PUSH2 0x3F6 JUMP JUMPDEST PUSH1 0x0 PUSH1 0x40 MLOAD DUP1 DUP4 SUB DUP2 DUP6 DUP9 DUP9 CALL SWAP4 POP POP POP POP RETURNDATASIZE DUP1 PUSH1 0x0 DUP2 EQ PUSH2 0x22D JUMPI PUSH1 0x40 MLOAD SWAP2 POP PUSH1 0x1F NOT PUSH1 0x3F RETURNDATASIZE ADD AND DUP3 ADD PUSH1 0x40 MSTORE RETURNDATASIZE DUP3 MSTORE RETURNDATASIZE PUSH1 0x0 PUSH1 0x20 DUP5 ADD RETURNDATACOPY PUSH2 0x232 JUMP JUMPDEST PUSH1 0x60 SWAP2 POP JUMPDEST POP POP SWAP1 POP PUSH32 0xE9B0701E3276BB213FE2C60F53706A0F417F2F60569E41018A03149BB25CD7B8 GAS PUSH1 0x40 MLOAD PUSH2 0x265 SWAP2 SWAP1 PUSH2 0x40B JUMP JUMPDEST PUSH1 0x40 MLOAD DUP1 SWAP2 SUB SWAP1 LOG1 DUP1 SWAP2 POP POP SWAP2 SWAP1 POP JUMP JUMPDEST PUSH1 0x0 DUP1 REVERT JUMPDEST PUSH1 0x0 PUSH20 0xFFFFFFFFFFFFFFFFFFFFFFFFFFFFFFFFFFFFFFFF DUP3 AND SWAP1 POP SWAP2 SWAP1 POP JUMP JUMPDEST PUSH1 0x0 PUSH2 0x2A6 DUP3 PUSH2 0x27B JUMP JUMPDEST SWAP1 POP SWAP2 SWAP1 POP JUMP JUMPDEST PUSH2 0x2B6 DUP2 PUSH2 0x29B JUMP JUMPDEST DUP2 EQ PUSH2 0x2C1 JUMPI PUSH1 0x0 DUP1 REVERT JUMPDEST POP JUMP JUMPDEST PUSH1 0x0 DUP2 CALLDATALOAD SWAP1 POP PUSH2 0x2D3 DUP2 PUSH2 0x2AD JUMP JUMPDEST SWAP3 SWAP2 POP POP JUMP JUMPDEST PUSH1 0x0 PUSH1 0x20 DUP3 DUP5 SUB SLT ISZERO PUSH2 0x2EF JUMPI PUSH2 0x2EE PUSH2 0x276 JUMP JUMPDEST JUMPDEST PUSH1 0x0 PUSH2 0x2FD DUP5 DUP3 DUP6 ADD PUSH2 0x2C4 JUMP JUMPDEST SWAP2 POP POP SWAP3 SWAP2 POP POP JUMP JUMPDEST PUSH1 0x0 DUP2 ISZERO ISZERO SWAP1 POP SWAP2 SWAP1 POP JUMP JUMPDEST PUSH2 0x31B DUP2 PUSH2 0x306 JUMP JUMPDEST DUP3 MSTORE POP POP JUMP JUMPDEST PUSH1 0x0 PUSH1 0x20 DUP3 ADD SWAP1 POP PUSH2 0x336 PUSH1 0x0 DUP4 ADD DUP5 PUSH2 0x312 JUMP JUMPDEST SWAP3 SWAP2 POP POP JUMP JUMPDEST PUSH1 0x0 PUSH2 0x347 DUP3 PUSH2 0x27B JUMP JUMPDEST SWAP1 POP SWAP2 SWAP1 POP JUMP JUMPDEST PUSH2 0x357 DUP2 PUSH2 0x33C JUMP JUMPDEST DUP3 MSTORE POP POP JUMP JUMPDEST PUSH1 0x0 DUP2 SWAP1 POP SWAP2 SWAP1 POP JUMP JUMPDEST PUSH2 0x370 DUP2 PUSH2 0x35D JUMP JUMPDEST DUP3 MSTORE POP POP JUMP JUMPDEST PUSH1 0x0 PUSH1 0x40 DUP3 ADD SWAP1 POP PUSH2 0x38B PUSH1 0x0 DUP4 ADD DUP6 PUSH2 0x34E JUMP JUMPDEST PUSH2 0x398 PUSH1 0x20 DUP4 ADD DUP5 PUSH2 0x367 JUMP JUMPDEST SWAP4 SWAP3 POP POP POP JUMP JUMPDEST PUSH1 0x0 DUP2 SWAP1 POP SWAP3 SWAP2 POP POP JUMP JUMPDEST PUSH32 0x6162630000000000000000000000000000000000000000000000000000000000 PUSH1 0x0 DUP3 ADD MSTORE POP JUMP JUMPDEST PUSH1 0x0 PUSH2 0x3E0 PUSH1 0x3 DUP4 PUSH2 0x39F JUMP JUMPDEST SWAP2 POP PUSH2 0x3EB DUP3 PUSH2 0x3AA JUMP JUMPDEST PUSH1 0x3 DUP3 ADD SWAP1 POP SWAP2 SWAP1 POP JUMP JUMPDEST PUSH1 0x0 PUSH2 0x401 DUP3 PUSH2 0x3D3 JUMP JUMPDEST SWAP2 POP DUP2 SWAP1 POP SWAP2 SWAP1 POP JUMP JUMPDEST PUSH1 0x0 PUSH1 0x20 DUP3 ADD SWAP1 POP PUSH2 0x420 PUSH1 0x0 DUP4 ADD DUP5 PUSH2 0x367 JUMP JUMPDEST SWAP3 SWAP2 POP POP JUMP INVALID LOG2 PUSH5 0x6970667358 0x22 SLT KECCAK256 SSTORE 0xDA PUSH1 0xFF 0x1F PUSH19 0x232665F5539D6D53D45A268049D555ED0B0AC0 0xC CODECOPY CALLCODE 0xD7 0x5C PUSH23 0x3164736F6C634300081100330000000000000000000000 "
				},
				"gasEstimates": {
					"creation": {
						"codeDepositCost": "223200",
						"executionCost": "263",
						"totalCost": "223463"
					},
					"external": {
						"call(address)": "infinite",
						"deposit()": "1739",
						"send(address)": "infinite",
						"transfer(address)": "infinite"
					}
				},
				"methodIdentifiers": {
					"call(address)": "f55332ab",
					"deposit()": "d0e30db0",
					"send(address)": "3e58c58c",
					"transfer(address)": "1a695230"
				}
			},
			"storageLayout": {
				"storage": [],
				"types": null
			},
			"userdoc": {
				"kind": "user",
				"methods": {},
				"version": 1
			}
		}
	}
}