{
	"day2/BytesX.sol": {
		"Counter": {
			"abi": [
				{
					"inputs": [],
					"name": "query_index",
					"outputs": [
						{
							"internalType": "bytes1",
							"name": "",
							"type": "bytes1"
						}
					],
					"stateMutability": "nonpayable",
					"type": "function"
				},
				{
					"inputs": [],
					"name": "query_length",
					"outputs": [
						{
							"internalType": "uint256",
							"name": "",
							"type": "uint256"
						}
					],
					"stateMutability": "nonpayable",
					"type": "function"
				}
			],
			"devdoc": {
				"kind": "dev",
				"methods": {},
				"version": 1
			},
			"evm": {
				"assembly": "    /* \"day2/BytesX.sol\":61:271  contract Counter {... */\n  mstore(0x40, 0x80)\n    /* \"day2/BytesX.sol\":83:104  bytes4 count = \"ABDC\" */\n  0x4142444300000000000000000000000000000000000000000000000000000000\n  0x00\n  dup1\n  0x0100\n  exp\n  dup2\n  sload\n  dup2\n  0xffffffff\n  mul\n  not\n  and\n  swap1\n  dup4\n  0xe0\n  shr\n  mul\n  or\n  swap1\n  sstore\n  pop\n    /* \"day2/BytesX.sol\":61:271  contract Counter {... */\n  callvalue\n  dup1\n  iszero\n  tag_1\n  jumpi\n  0x00\n  dup1\n  revert\ntag_1:\n  pop\n  dataSize(sub_0)\n  dup1\n  dataOffset(sub_0)\n  0x00\n  codecopy\n  0x00\n  return\nstop\n\nsub_0: assembly {\n        /* \"day2/BytesX.sol\":61:271  contract Counter {... */\n      mstore(0x40, 0x80)\n      callvalue\n      dup1\n      iszero\n      tag_1\n      jumpi\n      0x00\n      dup1\n      revert\n    tag_1:\n      pop\n      jumpi(tag_2, lt(calldatasize, 0x04))\n      shr(0xe0, calldataload(0x00))\n      dup1\n      0x6cfefcf4\n      eq\n      tag_3\n      jumpi\n      dup1\n      0xad1cb230\n      eq\n      tag_4\n      jumpi\n    tag_2:\n      0x00\n      dup1\n      revert\n        /* \"day2/BytesX.sol\":109:188  function query_length() public returns (uint){... */\n    tag_3:\n      tag_5\n      tag_6\n      jump\t// in\n    tag_5:\n      mload(0x40)\n      tag_7\n      swap2\n      swap1\n      tag_8\n      jump\t// in\n    tag_7:\n      mload(0x40)\n      dup1\n      swap2\n      sub\n      swap1\n      return\n        /* \"day2/BytesX.sol\":192:268  function query_index() public returns (bytes1){... */\n    tag_4:\n      tag_9\n      tag_10\n      jump\t// in\n    tag_9:\n      mload(0x40)\n      tag_11\n      swap2\n      swap1\n      tag_12\n      jump\t// in\n    tag_11:\n      mload(0x40)\n      dup1\n      swap2\n      sub\n      swap1\n      return\n        /* \"day2/BytesX.sol\":109:188  function query_length() public returns (uint){... */\n    tag_6:\n        /* \"day2/BytesX.sol\":149:153  uint */\n      0x00\n        /* \"day2/BytesX.sol\":170:175  count */\n      dup1\n      0x00\n      swap1\n      sload\n      swap1\n      0x0100\n      exp\n      swap1\n      pop\n      pop\n        /* \"day2/BytesX.sol\":170:182  count.length */\n      0x04\n        /* \"day2/BytesX.sol\":163:182  return count.length */\n      0xff\n      and\n      swap1\n      pop\n        /* \"day2/BytesX.sol\":109:188  function query_length() public returns (uint){... */\n      swap1\n      jump\t// out\n        /* \"day2/BytesX.sol\":192:268  function query_index() public returns (bytes1){... */\n    tag_10:\n        /* \"day2/BytesX.sol\":231:237  bytes1 */\n      0x00\n        /* \"day2/BytesX.sol\":254:259  count */\n      dup1\n      0x00\n      swap1\n      sload\n      swap1\n      0x0100\n      exp\n      swap1\n      div\n      0xe0\n      shl\n        /* \"day2/BytesX.sol\":260:261  1 */\n      0x01\n        /* \"day2/BytesX.sol\":254:262  count[1] */\n      0x04\n      dup2\n      lt\n      tag_15\n      jumpi\n      tag_16\n      tag_17\n      jump\t// in\n    tag_16:\n    tag_15:\n      byte\n      0xf8\n      shl\n        /* \"day2/BytesX.sol\":247:262  return count[1] */\n      swap1\n      pop\n        /* \"day2/BytesX.sol\":192:268  function query_index() public returns (bytes1){... */\n      swap1\n      jump\t// out\n        /* \"#utility.yul\":7:84   */\n    tag_18:\n        /* \"#utility.yul\":44:51   */\n      0x00\n        /* \"#utility.yul\":73:78   */\n      dup2\n        /* \"#utility.yul\":62:78   */\n      swap1\n      pop\n        /* \"#utility.yul\":7:84   */\n      swap2\n      swap1\n      pop\n      jump\t// out\n        /* \"#utility.yul\":90:208   */\n    tag_19:\n        /* \"#utility.yul\":177:201   */\n      tag_25\n        /* \"#utility.yul\":195:200   */\n      dup2\n        /* \"#utility.yul\":177:201   */\n      tag_18\n      jump\t// in\n    tag_25:\n        /* \"#utility.yul\":172:175   */\n      dup3\n        /* \"#utility.yul\":165:202   */\n      mstore\n        /* \"#utility.yul\":90:208   */\n      pop\n      pop\n      jump\t// out\n        /* \"#utility.yul\":214:436   */\n    tag_8:\n        /* \"#utility.yul\":307:311   */\n      0x00\n        /* \"#utility.yul\":345:347   */\n      0x20\n        /* \"#utility.yul\":334:343   */\n      dup3\n        /* \"#utility.yul\":330:348   */\n      add\n        /* \"#utility.yul\":322:348   */\n      swap1\n      pop\n        /* \"#utility.yul\":358:429   */\n      tag_27\n        /* \"#utility.yul\":426:427   */\n      0x00\n        /* \"#utility.yul\":415:424   */\n      dup4\n        /* \"#utility.yul\":411:428   */\n      add\n        /* \"#utility.yul\":402:408   */\n      dup5\n        /* \"#utility.yul\":358:429   */\n      tag_19\n      jump\t// in\n    tag_27:\n        /* \"#utility.yul\":214:436   */\n      swap3\n      swap2\n      pop\n      pop\n      jump\t// out\n        /* \"#utility.yul\":442:591   */\n    tag_20:\n        /* \"#utility.yul\":478:485   */\n      0x00\n        /* \"#utility.yul\":518:584   */\n      0xff00000000000000000000000000000000000000000000000000000000000000\n        /* \"#utility.yul\":511:516   */\n      dup3\n        /* \"#utility.yul\":507:585   */\n      and\n        /* \"#utility.yul\":496:585   */\n      swap1\n      pop\n        /* \"#utility.yul\":442:591   */\n      swap2\n      swap1\n      pop\n      jump\t// out\n        /* \"#utility.yul\":597:712   */\n    tag_21:\n        /* \"#utility.yul\":682:705   */\n      tag_30\n        /* \"#utility.yul\":699:704   */\n      dup2\n        /* \"#utility.yul\":682:705   */\n      tag_20\n      jump\t// in\n    tag_30:\n        /* \"#utility.yul\":677:680   */\n      dup3\n        /* \"#utility.yul\":670:706   */\n      mstore\n        /* \"#utility.yul\":597:712   */\n      pop\n      pop\n      jump\t// out\n        /* \"#utility.yul\":718:936   */\n    tag_12:\n        /* \"#utility.yul\":809:813   */\n      0x00\n        /* \"#utility.yul\":847:849   */\n      0x20\n        /* \"#utility.yul\":836:845   */\n      dup3\n        /* \"#utility.yul\":832:850   */\n      add\n        /* \"#utility.yul\":824:850   */\n      swap1\n      pop\n        /* \"#utility.yul\":860:929   */\n      tag_32\n        /* \"#utility.yul\":926:927   */\n      0x00\n        /* \"#utility.yul\":915:924   */\n      dup4\n        /* \"#utility.yul\":911:928   */\n      add\n        /* \"#utility.yul\":902:908   */\n      dup5\n        /* \"#utility.yul\":860:929   */\n      tag_21\n      jump\t// in\n    tag_32:\n        /* \"#utility.yul\":718:936   */\n      swap3\n      swap2\n      pop\n      pop\n      jump\t// out\n        /* \"#utility.yul\":942:1122   */\n    tag_17:\n        /* \"#utility.yul\":990:1067   */\n      0x4e487b7100000000000000000000000000000000000000000000000000000000\n        /* \"#utility.yul\":987:988   */\n      0x00\n        /* \"#utility.yul\":980:1068   */\n      mstore\n        /* \"#utility.yul\":1087:1091   */\n      0x32\n        /* \"#utility.yul\":1084:1085   */\n      0x04\n        /* \"#utility.yul\":1077:1092   */\n      mstore\n        /* \"#utility.yul\":1111:1115   */\n      0x24\n        /* \"#utility.yul\":1108:1109   */\n      0x00\n        /* \"#utility.yul\":1101:1116   */\n      revert\n\n    auxdata: 0xa264697066735822122092c524e6b19871245563cb5f8095c76943d0b01fdc2d3a28bd072fdea26a611f64736f6c63430008110033\n}\n",
				"bytecode": {
					"linkReferences": {},
					"object": "60806040527f41424443000000000000000000000000000000000000000000000000000000006000806101000a81548163ffffffff021916908360e01c021790555034801561004d57600080fd5b506101ac8061005d6000396000f3fe608060405234801561001057600080fd5b50600436106100365760003560e01c80636cfefcf41461003b578063ad1cb23014610059575b600080fd5b610043610077565b60405161005091906100d6565b60405180910390f35b610061610090565b60405161006e919061012c565b60405180910390f35b60008060009054906101000a905050600460ff16905090565b60008060009054906101000a900460e01b6001600481106100b4576100b3610147565b5b1a60f81b905090565b6000819050919050565b6100d0816100bd565b82525050565b60006020820190506100eb60008301846100c7565b92915050565b60007fff0000000000000000000000000000000000000000000000000000000000000082169050919050565b610126816100f1565b82525050565b6000602082019050610141600083018461011d565b92915050565b7f4e487b7100000000000000000000000000000000000000000000000000000000600052603260045260246000fdfea264697066735822122092c524e6b19871245563cb5f8095c76943d0b01fdc2d3a28bd072fdea26a611f64736f6c63430008110033",
					"opcodes": "PUSH1 0x80 PUSH1 0x40 MSTORE PUSH32 0x4142444300000000000000000000000000000000000000000000000000000000 PUSH1 0x0 DUP1 PUSH2 0x100 EXP DUP2 SLOAD DUP2 PUSH4 0xFFFFFFFF MUL NOT AND SWAP1 DUP4 PUSH1 0xE0 SHR MUL OR SWAP1 SSTORE POP CALLVALUE DUP1 ISZERO PUSH2 0x4D JUMPI PUSH1 0x0 DUP1 REVERT JUMPDEST POP PUSH2 0x1AC DUP1 PUSH2 0x5D PUSH1 0x0 CODECOPY PUSH1 0x0 RETURN INVALID PUSH1 0x80 PUSH1 0x40 MSTORE CALLVALUE DUP1 ISZERO PUSH2 0x10 JUMPI PUSH1 0x0 DUP1 REVERT JUMPDEST POP PUSH1 0x4 CALLDATASIZE LT PUSH2 0x36 JUMPI PUSH1 0x0 CALLDATALOAD PUSH1 0xE0 SHR DUP1 PUSH4 0x6CFEFCF4 EQ PUSH2 0x3B JUMPI DUP1 PUSH4 0xAD1CB230 EQ PUSH2 0x59 JUMPI JUMPDEST PUSH1 0x0 DUP1 REVERT JUMPDEST PUSH2 0x43 PUSH2 0x77 JUMP JUMPDEST PUSH1 0x40 MLOAD PUSH2 0x50 SWAP2 SWAP1 PUSH2 0xD6 JUMP JUMPDEST PUSH1 0x40 MLOAD DUP1 SWAP2 SUB SWAP1 RETURN JUMPDEST PUSH2 0x61 PUSH2 0x90 JUMP JUMPDEST PUSH1 0x40 MLOAD PUSH2 0x6E SWAP2 SWAP1 PUSH2 0x12C JUMP JUMPDEST PUSH1 0x40 MLOAD DUP1 SWAP2 SUB SWAP1 RETURN JUMPDEST PUSH1 0x0 DUP1 PUSH1 0x0 SWAP1 SLOAD SWAP1 PUSH2 0x100 EXP SWAP1 POP POP PUSH1 0x4 PUSH1 0xFF AND SWAP1 POP SWAP1 JUMP JUMPDEST PUSH1 0x0 DUP1 PUSH1 0x0 SWAP1 SLOAD SWAP1 PUSH2 0x100 EXP SWAP1 DIV PUSH1 0xE0 SHL PUSH1 0x1 PUSH1 0x4 DUP2 LT PUSH2 0xB4 JUMPI PUSH2 0xB3 PUSH2 0x147 JUMP JUMPDEST JUMPDEST BYTE PUSH1 0xF8 SHL SWAP1 POP SWAP1 JUMP JUMPDEST PUSH1 0x0 DUP2 SWAP1 POP SWAP2 SWAP1 POP JUMP JUMPDEST PUSH2 0xD0 DUP2 PUSH2 0xBD JUMP JUMPDEST DUP3 MSTORE POP POP JUMP JUMPDEST PUSH1 0x0 PUSH1 0x20 DUP3 ADD SWAP1 POP PUSH2 0xEB PUSH1 0x0 DUP4 ADD DUP5 PUSH2 0xC7 JUMP JUMPDEST SWAP3 SWAP2 POP POP JUMP JUMPDEST PUSH1 0x0 PUSH32 0xFF00000000000000000000000000000000000000000000000000000000000000 DUP3 AND SWAP1 POP SWAP2 SWAP1 POP JUMP JUMPDEST PUSH2 0x126 DUP2 PUSH2 0xF1 JUMP JUMPDEST DUP3 MSTORE POP POP JUMP JUMPDEST PUSH1 0x0 PUSH1 0x20 DUP3 ADD SWAP1 POP PUSH2 0x141 PUSH1 0x0 DUP4 ADD DUP5 PUSH2 0x11D JUMP JUMPDEST SWAP3 SWAP2 POP POP JUMP JUMPDEST PUSH32 0x4E487B7100000000000000000000000000000000000000000000000000000000 PUSH1 0x0 MSTORE PUSH1 0x32 PUSH1 0x4 MSTORE PUSH1 0x24 PUSH1 0x0 REVERT INVALID LOG2 PUSH5 0x6970667358 0x22 SLT KECCAK256 SWAP3 0xC5 0x24 0xE6 0xB1 SWAP9 PUSH18 0x245563CB5F8095C76943D0B01FDC2D3A28BD SMOD 0x2F 0xDE LOG2 PUSH11 0x611F64736F6C6343000811 STOP CALLER "
				},
				"gasEstimates": {
					"creation": {
						"codeDepositCost": "85600",
						"executionCost": "24402",
						"totalCost": "110002"
					},
					"external": {
						"query_index()": "2514",
						"query_length()": "2453"
					}
				},
				"methodIdentifiers": {
					"query_index()": "ad1cb230",
					"query_length()": "6cfefcf4"
				}
			},
			"storageLayout": {
				"storage": [
					{
						"astId": 4,
						"contract": "day2/BytesX.sol:Counter",
						"label": "count",
						"offset": 0,
						"slot": "0",
						"type": "t_bytes4"
					}
				],
				"types": {
					"t_bytes4": {
						"encoding": "inplace",
						"label": "bytes4",
						"numberOfBytes": "4"
					}
				}
			},
			"userdoc": {
				"kind": "user",
				"methods": {},
				"version": 1
			}
		}
	}
}