{
	"day2/Primitives.sol": {
		"Primitives": {
			"abi": [
				{
					"inputs": [],
					"name": "minInt",
					"outputs": [
						{
							"internalType": "int256",
							"name": "",
							"type": "int256"
						}
					],
					"stateMutability": "view",
					"type": "function"
				}
			],
			"devdoc": {
				"kind": "dev",
				"methods": {},
				"version": 1
			},
			"evm": {
				"assembly": "    /* \"day2/Primitives.sol\":65:345  contract Primitives{... */\n  mstore(0x40, 0x80)\n    /* \"day2/Primitives.sol\":102:106  true */\n  0x01\n    /* \"day2/Primitives.sol\":91:106  bool boo = true */\n  0x00\n  dup1\n  0x0100\n  exp\n  dup2\n  sload\n  dup2\n  0xff\n  mul\n  not\n  and\n  swap1\n  dup4\n  iszero\n  iszero\n  mul\n  or\n  swap1\n  sstore\n  pop\n    /* \"day2/Primitives.sol\":155:158  255 */\n  0xff\n    /* \"day2/Primitives.sol\":144:158  uint8 u8 = 255 */\n  0x00\n  exp(0x0100, 0x01)\n  dup2\n  sload\n  dup2\n  0xff\n  mul\n  not\n  and\n  swap1\n  dup4\n  0xff\n  and\n  mul\n  or\n  swap1\n  sstore\n  pop\n    /* \"day2/Primitives.sol\":177:180  456 */\n  0x01c8\n    /* \"day2/Primitives.sol\":165:180  uint u256 = 456 */\n  0x01\n  sstore\n    /* \"day2/Primitives.sol\":196:199  123 */\n  0x7b\n    /* \"day2/Primitives.sol\":187:199  uint u = 123 */\n  0x02\n  sstore\n    /* \"day2/Primitives.sol\":226:228  -1 */\n  0xffffffffffffffffffffffffffffffffffffffffffffffffffffffffffffffff\n    /* \"day2/Primitives.sol\":217:228  int8 i8 =-1 */\n  0x03\n  exp(0x0100, 0x00)\n  dup2\n  sload\n  dup2\n  0xff\n  mul\n  not\n  and\n  swap1\n  dup4\n  0x00\n  signextend\n  0xff\n  and\n  mul\n  or\n  swap1\n  sstore\n  pop\n    /* \"day2/Primitives.sol\":246:249  456 */\n  0x01c8\n    /* \"day2/Primitives.sol\":235:249  int i256 = 456 */\n  0x04\n  sstore\n    /* \"day2/Primitives.sol\":264:268  -123 */\n  0xffffffffffffffffffffffffffffffffffffffffffffffffffffffffffffff85\n    /* \"day2/Primitives.sol\":256:268  int i = -123 */\n  0x05\n  sstore\n    /* \"day2/Primitives.sol\":295:308  type(int).min */\n  0x8000000000000000000000000000000000000000000000000000000000000000\n    /* \"day2/Primitives.sol\":275:308  int public minInt = type(int).min */\n  0x06\n  sstore\n    /* \"day2/Primitives.sol\":328:341  type(int).max */\n  0x7fffffffffffffffffffffffffffffffffffffffffffffffffffffffffffffff\n    /* \"day2/Primitives.sol\":315:341  int maxInt = type(int).max */\n  0x07\n  sstore\n    /* \"day2/Primitives.sol\":65:345  contract Primitives{... */\n  callvalue\n  dup1\n  iszero\n  tag_1\n  jumpi\n  0x00\n  dup1\n  revert\ntag_1:\n  pop\n  dataSize(sub_0)\n  dup1\n  dataOffset(sub_0)\n  0x00\n  codecopy\n  0x00\n  return\nstop\n\nsub_0: assembly {\n        /* \"day2/Primitives.sol\":65:345  contract Primitives{... */\n      mstore(0x40, 0x80)\n      callvalue\n      dup1\n      iszero\n      tag_1\n      jumpi\n      0x00\n      dup1\n      revert\n    tag_1:\n      pop\n      jumpi(tag_2, lt(calldatasize, 0x04))\n      shr(0xe0, calldataload(0x00))\n      dup1\n      0x7e4e14cc\n      eq\n      tag_3\n      jumpi\n    tag_2:\n      0x00\n      dup1\n      revert\n        /* \"day2/Primitives.sol\":275:308  int public minInt = type(int).min */\n    tag_3:\n      tag_4\n      tag_5\n      jump\t// in\n    tag_4:\n      mload(0x40)\n      tag_6\n      swap2\n      swap1\n      tag_7\n      jump\t// in\n    tag_6:\n      mload(0x40)\n      dup1\n      swap2\n      sub\n      swap1\n      return\n    tag_5:\n      sload(0x06)\n      dup2\n      jump\t// out\n        /* \"#utility.yul\":7:83   */\n    tag_8:\n        /* \"#utility.yul\":43:50   */\n      0x00\n        /* \"#utility.yul\":72:77   */\n      dup2\n        /* \"#utility.yul\":61:77   */\n      swap1\n      pop\n        /* \"#utility.yul\":7:83   */\n      swap2\n      swap1\n      pop\n      jump\t// out\n        /* \"#utility.yul\":89:204   */\n    tag_9:\n        /* \"#utility.yul\":174:197   */\n      tag_13\n        /* \"#utility.yul\":191:196   */\n      dup2\n        /* \"#utility.yul\":174:197   */\n      tag_8\n      jump\t// in\n    tag_13:\n        /* \"#utility.yul\":169:172   */\n      dup3\n        /* \"#utility.yul\":162:198   */\n      mstore\n        /* \"#utility.yul\":89:204   */\n      pop\n      pop\n      jump\t// out\n        /* \"#utility.yul\":210:428   */\n    tag_7:\n        /* \"#utility.yul\":301:305   */\n      0x00\n        /* \"#utility.yul\":339:341   */\n      0x20\n        /* \"#utility.yul\":328:337   */\n      dup3\n        /* \"#utility.yul\":324:342   */\n      add\n        /* \"#utility.yul\":316:342   */\n      swap1\n      pop\n        /* \"#utility.yul\":352:421   */\n      tag_15\n        /* \"#utility.yul\":418:419   */\n      0x00\n        /* \"#utility.yul\":407:416   */\n      dup4\n        /* \"#utility.yul\":403:420   */\n      add\n        /* \"#utility.yul\":394:400   */\n      dup5\n        /* \"#utility.yul\":352:421   */\n      tag_9\n      jump\t// in\n    tag_15:\n        /* \"#utility.yul\":210:428   */\n      swap3\n      swap2\n      pop\n      pop\n      jump\t// out\n\n    auxdata: 0xa264697066735822122006540cd42690d5357fd24fed500a072b741858b202e679867e8ad10b3ab126fd64736f6c63430008110033\n}\n",
				"bytecode": {
					"linkReferences": {},
					"object": "608060405260016000806101000a81548160ff02191690831515021790555060ff600060016101000a81548160ff021916908360ff1602179055506101c8600155607b6002557fffffffffffffffffffffffffffffffffffffffffffffffffffffffffffffffff600360006101000a81548160ff021916908360000b60ff1602179055506101c86004557fffffffffffffffffffffffffffffffffffffffffffffffffffffffffffffff856005557f80000000000000000000000000000000000000000000000000000000000000006006557f7fffffffffffffffffffffffffffffffffffffffffffffffffffffffffffffff60075534801561010157600080fd5b5060b3806101106000396000f3fe6080604052348015600f57600080fd5b506004361060285760003560e01c80637e4e14cc14602d575b600080fd5b60336047565b604051603e91906064565b60405180910390f35b60065481565b6000819050919050565b605e81604d565b82525050565b6000602082019050607760008301846057565b9291505056fea264697066735822122006540cd42690d5357fd24fed500a072b741858b202e679867e8ad10b3ab126fd64736f6c63430008110033",
					"opcodes": "PUSH1 0x80 PUSH1 0x40 MSTORE PUSH1 0x1 PUSH1 0x0 DUP1 PUSH2 0x100 EXP DUP2 SLOAD DUP2 PUSH1 0xFF MUL NOT AND SWAP1 DUP4 ISZERO ISZERO MUL OR SWAP1 SSTORE POP PUSH1 0xFF PUSH1 0x0 PUSH1 0x1 PUSH2 0x100 EXP DUP2 SLOAD DUP2 PUSH1 0xFF MUL NOT AND SWAP1 DUP4 PUSH1 0xFF AND MUL OR SWAP1 SSTORE POP PUSH2 0x1C8 PUSH1 0x1 SSTORE PUSH1 0x7B PUSH1 0x2 SSTORE PUSH32 0xFFFFFFFFFFFFFFFFFFFFFFFFFFFFFFFFFFFFFFFFFFFFFFFFFFFFFFFFFFFFFFFF PUSH1 0x3 PUSH1 0x0 PUSH2 0x100 EXP DUP2 SLOAD DUP2 PUSH1 0xFF MUL NOT AND SWAP1 DUP4 PUSH1 0x0 SIGNEXTEND PUSH1 0xFF AND MUL OR SWAP1 SSTORE POP PUSH2 0x1C8 PUSH1 0x4 SSTORE PUSH32 0xFFFFFFFFFFFFFFFFFFFFFFFFFFFFFFFFFFFFFFFFFFFFFFFFFFFFFFFFFFFFFF85 PUSH1 0x5 SSTORE PUSH32 0x8000000000000000000000000000000000000000000000000000000000000000 PUSH1 0x6 SSTORE PUSH32 0x7FFFFFFFFFFFFFFFFFFFFFFFFFFFFFFFFFFFFFFFFFFFFFFFFFFFFFFFFFFFFFFF PUSH1 0x7 SSTORE CALLVALUE DUP1 ISZERO PUSH2 0x101 JUMPI PUSH1 0x0 DUP1 REVERT JUMPDEST POP PUSH1 0xB3 DUP1 PUSH2 0x110 PUSH1 0x0 CODECOPY PUSH1 0x0 RETURN INVALID PUSH1 0x80 PUSH1 0x40 MSTORE CALLVALUE DUP1 ISZERO PUSH1 0xF JUMPI PUSH1 0x0 DUP1 REVERT JUMPDEST POP PUSH1 0x4 CALLDATASIZE LT PUSH1 0x28 JUMPI PUSH1 0x0 CALLDATALOAD PUSH1 0xE0 SHR DUP1 PUSH4 0x7E4E14CC EQ PUSH1 0x2D JUMPI JUMPDEST PUSH1 0x0 DUP1 REVERT JUMPDEST PUSH1 0x33 PUSH1 0x47 JUMP JUMPDEST PUSH1 0x40 MLOAD PUSH1 0x3E SWAP2 SWAP1 PUSH1 0x64 JUMP JUMPDEST PUSH1 0x40 MLOAD DUP1 SWAP2 SUB SWAP1 RETURN JUMPDEST PUSH1 0x6 SLOAD DUP2 JUMP JUMPDEST PUSH1 0x0 DUP2 SWAP1 POP SWAP2 SWAP1 POP JUMP JUMPDEST PUSH1 0x5E DUP2 PUSH1 0x4D JUMP JUMPDEST DUP3 MSTORE POP POP JUMP JUMPDEST PUSH1 0x0 PUSH1 0x20 DUP3 ADD SWAP1 POP PUSH1 0x77 PUSH1 0x0 DUP4 ADD DUP5 PUSH1 0x57 JUMP JUMPDEST SWAP3 SWAP2 POP POP JUMP INVALID LOG2 PUSH5 0x6970667358 0x22 SLT KECCAK256 MOD SLOAD 0xC 0xD4 0x26 SWAP1 0xD5 CALLDATALOAD PUSH32 0xD24FED500A072B741858B202E679867E8AD10B3AB126FD64736F6C6343000811 STOP CALLER "
				},
				"gasEstimates": {
					"creation": {
						"codeDepositCost": "35800",
						"executionCost": "205582",
						"totalCost": "241382"
					},
					"external": {
						"minInt()": "2407"
					}
				},
				"methodIdentifiers": {
					"minInt()": "7e4e14cc"
				}
			},
			"storageLayout": {
				"storage": [
					{
						"astId": 4,
						"contract": "day2/Primitives.sol:Primitives",
						"label": "boo",
						"offset": 0,
						"slot": "0",
						"type": "t_bool"
					},
					{
						"astId": 7,
						"contract": "day2/Primitives.sol:Primitives",
						"label": "u8",
						"offset": 1,
						"slot": "0",
						"type": "t_uint8"
					},
					{
						"astId": 10,
						"contract": "day2/Primitives.sol:Primitives",
						"label": "u256",
						"offset": 0,
						"slot": "1",
						"type": "t_uint256"
					},
					{
						"astId": 13,
						"contract": "day2/Primitives.sol:Primitives",
						"label": "u",
						"offset": 0,
						"slot": "2",
						"type": "t_uint256"
					},
					{
						"astId": 17,
						"contract": "day2/Primitives.sol:Primitives",
						"label": "i8",
						"offset": 0,
						"slot": "3",
						"type": "t_int8"
					},
					{
						"astId": 20,
						"contract": "day2/Primitives.sol:Primitives",
						"label": "i256",
						"offset": 0,
						"slot": "4",
						"type": "t_int256"
					},
					{
						"astId": 24,
						"contract": "day2/Primitives.sol:Primitives",
						"label": "i",
						"offset": 0,
						"slot": "5",
						"type": "t_int256"
					},
					{
						"astId": 31,
						"contract": "day2/Primitives.sol:Primitives",
						"label": "minInt",
						"offset": 0,
						"slot": "6",
						"type": "t_int256"
					},
					{
						"astId": 38,
						"contract": "day2/Primitives.sol:Primitives",
						"label": "maxInt",
						"offset": 0,
						"slot": "7",
						"type": "t_int256"
					}
				],
				"types": {
					"t_bool": {
						"encoding": "inplace",
						"label": "bool",
						"numberOfBytes": "1"
					},
					"t_int256": {
						"encoding": "inplace",
						"label": "int256",
						"numberOfBytes": "32"
					},
					"t_int8": {
						"encoding": "inplace",
						"label": "int8",
						"numberOfBytes": "1"
					},
					"t_uint256": {
						"encoding": "inplace",
						"label": "uint256",
						"numberOfBytes": "32"
					},
					"t_uint8": {
						"encoding": "inplace",
						"label": "uint8",
						"numberOfBytes": "1"
					}
				}
			},
			"userdoc": {
				"kind": "user",
				"methods": {},
				"version": 1
			}
		}
	}
}