{
	"day7/Using.sol": {
		"MyContract": {
			"abi": [
				{
					"inputs": [
						{
							"internalType": "uint256",
							"name": "value",
							"type": "uint256"
						}
					],
					"name": "myFunction",
					"outputs": [],
					"stateMutability": "nonpayable",
					"type": "function"
				},
				{
					"inputs": [],
					"name": "myNumber",
					"outputs": [
						{
							"internalType": "uint256",
							"name": "",
							"type": "uint256"
						}
					],
					"stateMutability": "view",
					"type": "function"
				},
				{
					"inputs": [],
					"name": "myNumber1",
					"outputs": [
						{
							"internalType": "uint8",
							"name": "",
							"type": "uint8"
						}
					],
					"stateMutability": "view",
					"type": "function"
				},
				{
					"inputs": [
						{
							"internalType": "uint8",
							"name": "value",
							"type": "uint8"
						}
					],
					"name": "sub",
					"outputs": [],
					"stateMutability": "nonpayable",
					"type": "function"
				}
			],
			"devdoc": {
				"kind": "dev",
				"methods": {},
				"version": 1
			},
			"evm": {
				"assembly": "    /* \"day7/Using.sol\":446:879  contract MyContract {... */\n  mstore(0x40, 0x80)\n  callvalue\n  dup1\n  iszero\n  tag_1\n  jumpi\n  0x00\n  dup1\n  revert\ntag_1:\n  pop\n  dataSize(sub_0)\n  dup1\n  dataOffset(sub_0)\n  0x00\n  codecopy\n  0x00\n  return\nstop\n\nsub_0: assembly {\n        /* \"day7/Using.sol\":446:879  contract MyContract {... */\n      mstore(0x40, 0x80)\n      callvalue\n      dup1\n      iszero\n      tag_1\n      jumpi\n      0x00\n      dup1\n      revert\n    tag_1:\n      pop\n      jumpi(tag_2, lt(calldatasize, 0x04))\n      shr(0xe0, calldataload(0x00))\n      dup1\n      0x23fd0e40\n      eq\n      tag_3\n      jumpi\n      dup1\n      0x50628c96\n      eq\n      tag_4\n      jumpi\n      dup1\n      0x981cf441\n      eq\n      tag_5\n      jumpi\n      dup1\n      0xfd2a42e6\n      eq\n      tag_6\n      jumpi\n    tag_2:\n      0x00\n      dup1\n      revert\n        /* \"day7/Using.sol\":539:562  uint256 public myNumber */\n    tag_3:\n      tag_7\n      tag_8\n      jump\t// in\n    tag_7:\n      mload(0x40)\n      tag_9\n      swap2\n      swap1\n      tag_10\n      jump\t// in\n    tag_9:\n      mload(0x40)\n      dup1\n      swap2\n      sub\n      swap1\n      return\n        /* \"day7/Using.sol\":600:691  function myFunction(uint256 value) public {... */\n    tag_4:\n      tag_11\n      0x04\n      dup1\n      calldatasize\n      sub\n      dup2\n      add\n      swap1\n      tag_12\n      swap2\n      swap1\n      tag_13\n      jump\t// in\n    tag_12:\n      tag_14\n      jump\t// in\n    tag_11:\n      stop\n        /* \"day7/Using.sol\":569:591  uint8 public myNumber1 */\n    tag_5:\n      tag_15\n      tag_16\n      jump\t// in\n    tag_15:\n      mload(0x40)\n      tag_17\n      swap2\n      swap1\n      tag_18\n      jump\t// in\n    tag_17:\n      mload(0x40)\n      dup1\n      swap2\n      sub\n      swap1\n      return\n        /* \"day7/Using.sol\":792:876  function sub(uint8 value) public {... */\n    tag_6:\n      tag_19\n      0x04\n      dup1\n      calldatasize\n      sub\n      dup2\n      add\n      swap1\n      tag_20\n      swap2\n      swap1\n      tag_21\n      jump\t// in\n    tag_20:\n      tag_22\n      jump\t// in\n    tag_19:\n      stop\n        /* \"day7/Using.sol\":539:562  uint256 public myNumber */\n    tag_8:\n      sload(0x00)\n      dup2\n      jump\t// out\n        /* \"day7/Using.sol\":600:691  function myFunction(uint256 value) public {... */\n    tag_14:\n        /* \"day7/Using.sol\":664:683  myNumber.add(value) */\n      tag_24\n        /* \"day7/Using.sol\":677:682  value */\n      dup2\n        /* \"day7/Using.sol\":664:672  myNumber */\n      sload(0x00)\n        /* \"day7/Using.sol\":664:676  myNumber.add */\n      tag_25\n      swap1\n        /* \"day7/Using.sol\":664:683  myNumber.add(value) */\n      swap2\n      swap1\n      0xffffffff\n      and\n      jump\t// in\n    tag_24:\n        /* \"day7/Using.sol\":653:661  myNumber */\n      0x00\n        /* \"day7/Using.sol\":653:683  myNumber = myNumber.add(value) */\n      dup2\n      swap1\n      sstore\n      pop\n        /* \"day7/Using.sol\":600:691  function myFunction(uint256 value) public {... */\n      pop\n      jump\t// out\n        /* \"day7/Using.sol\":569:591  uint8 public myNumber1 */\n    tag_16:\n      0x01\n      0x00\n      swap1\n      sload\n      swap1\n      0x0100\n      exp\n      swap1\n      div\n      0xff\n      and\n      dup2\n      jump\t// out\n        /* \"day7/Using.sol\":792:876  function sub(uint8 value) public {... */\n    tag_22:\n        /* \"day7/Using.sol\":848:868  myNumber1.sub(value) */\n      tag_27\n        /* \"day7/Using.sol\":862:867  value */\n      dup2\n        /* \"day7/Using.sol\":848:857  myNumber1 */\n      0x01\n      0x00\n      swap1\n      sload\n      swap1\n      0x0100\n      exp\n      swap1\n      div\n      0xff\n      and\n        /* \"day7/Using.sol\":848:861  myNumber1.sub */\n      0xff\n      and\n      tag_28\n      swap1\n        /* \"day7/Using.sol\":848:868  myNumber1.sub(value) */\n      swap2\n      swap1\n      0xffffffff\n      and\n      jump\t// in\n    tag_27:\n        /* \"day7/Using.sol\":836:845  myNumber1 */\n      0x01\n      0x00\n        /* \"day7/Using.sol\":836:868  myNumber1 = myNumber1.sub(value) */\n      0x0100\n      exp\n      dup2\n      sload\n      dup2\n      0xff\n      mul\n      not\n      and\n      swap1\n      dup4\n      0xff\n      and\n      mul\n      or\n      swap1\n      sstore\n      pop\n        /* \"day7/Using.sol\":792:876  function sub(uint8 value) public {... */\n      pop\n      jump\t// out\n        /* \"day7/Using.sol\":78:257  function add(uint256 a, uint256 b) internal pure returns (uint256) {... */\n    tag_25:\n        /* \"day7/Using.sol\":136:143  uint256 */\n      0x00\n        /* \"day7/Using.sol\":156:165  uint256 c */\n      dup1\n        /* \"day7/Using.sol\":172:173  b */\n      dup3\n        /* \"day7/Using.sol\":168:169  a */\n      dup5\n        /* \"day7/Using.sol\":168:173  a + b */\n      tag_30\n      swap2\n      swap1\n      tag_31\n      jump\t// in\n    tag_30:\n        /* \"day7/Using.sol\":156:173  uint256 c = a + b */\n      swap1\n      pop\n        /* \"day7/Using.sol\":197:198  a */\n      dup4\n        /* \"day7/Using.sol\":192:193  c */\n      dup2\n        /* \"day7/Using.sol\":192:198  c >= a */\n      lt\n      iszero\n        /* \"day7/Using.sol\":184:230  require(c >= a, \"SafeMath: addition overflow\") */\n      tag_32\n      jumpi\n      mload(0x40)\n      0x08c379a000000000000000000000000000000000000000000000000000000000\n      dup2\n      mstore\n      0x04\n      add\n      tag_33\n      swap1\n      tag_34\n      jump\t// in\n    tag_33:\n      mload(0x40)\n      dup1\n      swap2\n      sub\n      swap1\n      revert\n    tag_32:\n        /* \"day7/Using.sol\":248:249  c */\n      dup1\n        /* \"day7/Using.sol\":241:249  return c */\n      swap2\n      pop\n      pop\n        /* \"day7/Using.sol\":78:257  function add(uint256 a, uint256 b) internal pure returns (uint256) {... */\n      swap3\n      swap2\n      pop\n      pop\n      jump\t// out\n        /* \"day7/Using.sol\":265:439  function sub(uint8 a, uint8 b) internal pure returns (uint8) {... */\n    tag_28:\n        /* \"day7/Using.sol\":319:324  uint8 */\n      0x00\n        /* \"day7/Using.sol\":350:351  a */\n      dup3\n        /* \"day7/Using.sol\":345:351  b <= a */\n      0xff\n      and\n        /* \"day7/Using.sol\":345:346  b */\n      dup3\n        /* \"day7/Using.sol\":345:351  b <= a */\n      0xff\n      and\n      gt\n      iszero\n        /* \"day7/Using.sol\":337:386  require(b <= a, \"SafeMath: subtraction overflow\") */\n      tag_36\n      jumpi\n      mload(0x40)\n      0x08c379a000000000000000000000000000000000000000000000000000000000\n      dup2\n      mstore\n      0x04\n      add\n      tag_37\n      swap1\n      tag_38\n      jump\t// in\n    tag_37:\n      mload(0x40)\n      dup1\n      swap2\n      sub\n      swap1\n      revert\n    tag_36:\n        /* \"day7/Using.sol\":397:404  uint8 c */\n      0x00\n        /* \"day7/Using.sol\":411:412  b */\n      dup3\n        /* \"day7/Using.sol\":407:408  a */\n      dup5\n        /* \"day7/Using.sol\":407:412  a - b */\n      tag_39\n      swap2\n      swap1\n      tag_40\n      jump\t// in\n    tag_39:\n        /* \"day7/Using.sol\":397:412  uint8 c = a - b */\n      swap1\n      pop\n        /* \"day7/Using.sol\":430:431  c */\n      dup1\n        /* \"day7/Using.sol\":423:431  return c */\n      swap2\n      pop\n      pop\n        /* \"day7/Using.sol\":265:439  function sub(uint8 a, uint8 b) internal pure returns (uint8) {... */\n      swap3\n      swap2\n      pop\n      pop\n      jump\t// out\n        /* \"#utility.yul\":7:84   */\n    tag_41:\n        /* \"#utility.yul\":44:51   */\n      0x00\n        /* \"#utility.yul\":73:78   */\n      dup2\n        /* \"#utility.yul\":62:78   */\n      swap1\n      pop\n        /* \"#utility.yul\":7:84   */\n      swap2\n      swap1\n      pop\n      jump\t// out\n        /* \"#utility.yul\":90:208   */\n    tag_42:\n        /* \"#utility.yul\":177:201   */\n      tag_61\n        /* \"#utility.yul\":195:200   */\n      dup2\n        /* \"#utility.yul\":177:201   */\n      tag_41\n      jump\t// in\n    tag_61:\n        /* \"#utility.yul\":172:175   */\n      dup3\n        /* \"#utility.yul\":165:202   */\n      mstore\n        /* \"#utility.yul\":90:208   */\n      pop\n      pop\n      jump\t// out\n        /* \"#utility.yul\":214:436   */\n    tag_10:\n        /* \"#utility.yul\":307:311   */\n      0x00\n        /* \"#utility.yul\":345:347   */\n      0x20\n        /* \"#utility.yul\":334:343   */\n      dup3\n        /* \"#utility.yul\":330:348   */\n      add\n        /* \"#utility.yul\":322:348   */\n      swap1\n      pop\n        /* \"#utility.yul\":358:429   */\n      tag_63\n        /* \"#utility.yul\":426:427   */\n      0x00\n        /* \"#utility.yul\":415:424   */\n      dup4\n        /* \"#utility.yul\":411:428   */\n      add\n        /* \"#utility.yul\":402:408   */\n      dup5\n        /* \"#utility.yul\":358:429   */\n      tag_42\n      jump\t// in\n    tag_63:\n        /* \"#utility.yul\":214:436   */\n      swap3\n      swap2\n      pop\n      pop\n      jump\t// out\n        /* \"#utility.yul\":523:640   */\n    tag_44:\n        /* \"#utility.yul\":632:633   */\n      0x00\n        /* \"#utility.yul\":629:630   */\n      dup1\n        /* \"#utility.yul\":622:634   */\n      revert\n        /* \"#utility.yul\":769:891   */\n    tag_46:\n        /* \"#utility.yul\":842:866   */\n      tag_68\n        /* \"#utility.yul\":860:865   */\n      dup2\n        /* \"#utility.yul\":842:866   */\n      tag_41\n      jump\t// in\n    tag_68:\n        /* \"#utility.yul\":835:840   */\n      dup2\n        /* \"#utility.yul\":832:867   */\n      eq\n        /* \"#utility.yul\":822:885   */\n      tag_69\n      jumpi\n        /* \"#utility.yul\":881:882   */\n      0x00\n        /* \"#utility.yul\":878:879   */\n      dup1\n        /* \"#utility.yul\":871:883   */\n      revert\n        /* \"#utility.yul\":822:885   */\n    tag_69:\n        /* \"#utility.yul\":769:891   */\n      pop\n      jump\t// out\n        /* \"#utility.yul\":897:1036   */\n    tag_47:\n        /* \"#utility.yul\":943:948   */\n      0x00\n        /* \"#utility.yul\":981:987   */\n      dup2\n        /* \"#utility.yul\":968:988   */\n      calldataload\n        /* \"#utility.yul\":959:988   */\n      swap1\n      pop\n        /* \"#utility.yul\":997:1030   */\n      tag_71\n        /* \"#utility.yul\":1024:1029   */\n      dup2\n        /* \"#utility.yul\":997:1030   */\n      tag_46\n      jump\t// in\n    tag_71:\n        /* \"#utility.yul\":897:1036   */\n      swap3\n      swap2\n      pop\n      pop\n      jump\t// out\n        /* \"#utility.yul\":1042:1371   */\n    tag_13:\n        /* \"#utility.yul\":1101:1107   */\n      0x00\n        /* \"#utility.yul\":1150:1152   */\n      0x20\n        /* \"#utility.yul\":1138:1147   */\n      dup3\n        /* \"#utility.yul\":1129:1136   */\n      dup5\n        /* \"#utility.yul\":1125:1148   */\n      sub\n        /* \"#utility.yul\":1121:1153   */\n      slt\n        /* \"#utility.yul\":1118:1237   */\n      iszero\n      tag_73\n      jumpi\n        /* \"#utility.yul\":1156:1235   */\n      tag_74\n      tag_44\n      jump\t// in\n    tag_74:\n        /* \"#utility.yul\":1118:1237   */\n    tag_73:\n        /* \"#utility.yul\":1276:1277   */\n      0x00\n        /* \"#utility.yul\":1301:1354   */\n      tag_75\n        /* \"#utility.yul\":1346:1353   */\n      dup5\n        /* \"#utility.yul\":1337:1343   */\n      dup3\n        /* \"#utility.yul\":1326:1335   */\n      dup6\n        /* \"#utility.yul\":1322:1344   */\n      add\n        /* \"#utility.yul\":1301:1354   */\n      tag_47\n      jump\t// in\n    tag_75:\n        /* \"#utility.yul\":1291:1354   */\n      swap2\n      pop\n        /* \"#utility.yul\":1247:1364   */\n      pop\n        /* \"#utility.yul\":1042:1371   */\n      swap3\n      swap2\n      pop\n      pop\n      jump\t// out\n        /* \"#utility.yul\":1377:1463   */\n    tag_48:\n        /* \"#utility.yul\":1412:1419   */\n      0x00\n        /* \"#utility.yul\":1452:1456   */\n      0xff\n        /* \"#utility.yul\":1445:1450   */\n      dup3\n        /* \"#utility.yul\":1441:1457   */\n      and\n        /* \"#utility.yul\":1430:1457   */\n      swap1\n      pop\n        /* \"#utility.yul\":1377:1463   */\n      swap2\n      swap1\n      pop\n      jump\t// out\n        /* \"#utility.yul\":1469:1581   */\n    tag_49:\n        /* \"#utility.yul\":1552:1574   */\n      tag_78\n        /* \"#utility.yul\":1568:1573   */\n      dup2\n        /* \"#utility.yul\":1552:1574   */\n      tag_48\n      jump\t// in\n    tag_78:\n        /* \"#utility.yul\":1547:1550   */\n      dup3\n        /* \"#utility.yul\":1540:1575   */\n      mstore\n        /* \"#utility.yul\":1469:1581   */\n      pop\n      pop\n      jump\t// out\n        /* \"#utility.yul\":1587:1801   */\n    tag_18:\n        /* \"#utility.yul\":1676:1680   */\n      0x00\n        /* \"#utility.yul\":1714:1716   */\n      0x20\n        /* \"#utility.yul\":1703:1712   */\n      dup3\n        /* \"#utility.yul\":1699:1717   */\n      add\n        /* \"#utility.yul\":1691:1717   */\n      swap1\n      pop\n        /* \"#utility.yul\":1727:1794   */\n      tag_80\n        /* \"#utility.yul\":1791:1792   */\n      0x00\n        /* \"#utility.yul\":1780:1789   */\n      dup4\n        /* \"#utility.yul\":1776:1793   */\n      add\n        /* \"#utility.yul\":1767:1773   */\n      dup5\n        /* \"#utility.yul\":1727:1794   */\n      tag_49\n      jump\t// in\n    tag_80:\n        /* \"#utility.yul\":1587:1801   */\n      swap3\n      swap2\n      pop\n      pop\n      jump\t// out\n        /* \"#utility.yul\":1807:1925   */\n    tag_50:\n        /* \"#utility.yul\":1878:1900   */\n      tag_82\n        /* \"#utility.yul\":1894:1899   */\n      dup2\n        /* \"#utility.yul\":1878:1900   */\n      tag_48\n      jump\t// in\n    tag_82:\n        /* \"#utility.yul\":1871:1876   */\n      dup2\n        /* \"#utility.yul\":1868:1901   */\n      eq\n        /* \"#utility.yul\":1858:1919   */\n      tag_83\n      jumpi\n        /* \"#utility.yul\":1915:1916   */\n      0x00\n        /* \"#utility.yul\":1912:1913   */\n      dup1\n        /* \"#utility.yul\":1905:1917   */\n      revert\n        /* \"#utility.yul\":1858:1919   */\n    tag_83:\n        /* \"#utility.yul\":1807:1925   */\n      pop\n      jump\t// out\n        /* \"#utility.yul\":1931:2066   */\n    tag_51:\n        /* \"#utility.yul\":1975:1980   */\n      0x00\n        /* \"#utility.yul\":2013:2019   */\n      dup2\n        /* \"#utility.yul\":2000:2020   */\n      calldataload\n        /* \"#utility.yul\":1991:2020   */\n      swap1\n      pop\n        /* \"#utility.yul\":2029:2060   */\n      tag_85\n        /* \"#utility.yul\":2054:2059   */\n      dup2\n        /* \"#utility.yul\":2029:2060   */\n      tag_50\n      jump\t// in\n    tag_85:\n        /* \"#utility.yul\":1931:2066   */\n      swap3\n      swap2\n      pop\n      pop\n      jump\t// out\n        /* \"#utility.yul\":2072:2397   */\n    tag_21:\n        /* \"#utility.yul\":2129:2135   */\n      0x00\n        /* \"#utility.yul\":2178:2180   */\n      0x20\n        /* \"#utility.yul\":2166:2175   */\n      dup3\n        /* \"#utility.yul\":2157:2164   */\n      dup5\n        /* \"#utility.yul\":2153:2176   */\n      sub\n        /* \"#utility.yul\":2149:2181   */\n      slt\n        /* \"#utility.yul\":2146:2265   */\n      iszero\n      tag_87\n      jumpi\n        /* \"#utility.yul\":2184:2263   */\n      tag_88\n      tag_44\n      jump\t// in\n    tag_88:\n        /* \"#utility.yul\":2146:2265   */\n    tag_87:\n        /* \"#utility.yul\":2304:2305   */\n      0x00\n        /* \"#utility.yul\":2329:2380   */\n      tag_89\n        /* \"#utility.yul\":2372:2379   */\n      dup5\n        /* \"#utility.yul\":2363:2369   */\n      dup3\n        /* \"#utility.yul\":2352:2361   */\n      dup6\n        /* \"#utility.yul\":2348:2370   */\n      add\n        /* \"#utility.yul\":2329:2380   */\n      tag_51\n      jump\t// in\n    tag_89:\n        /* \"#utility.yul\":2319:2380   */\n      swap2\n      pop\n        /* \"#utility.yul\":2275:2390   */\n      pop\n        /* \"#utility.yul\":2072:2397   */\n      swap3\n      swap2\n      pop\n      pop\n      jump\t// out\n        /* \"#utility.yul\":2403:2583   */\n    tag_52:\n        /* \"#utility.yul\":2451:2528   */\n      0x4e487b7100000000000000000000000000000000000000000000000000000000\n        /* \"#utility.yul\":2448:2449   */\n      0x00\n        /* \"#utility.yul\":2441:2529   */\n      mstore\n        /* \"#utility.yul\":2548:2552   */\n      0x11\n        /* \"#utility.yul\":2545:2546   */\n      0x04\n        /* \"#utility.yul\":2538:2553   */\n      mstore\n        /* \"#utility.yul\":2572:2576   */\n      0x24\n        /* \"#utility.yul\":2569:2570   */\n      0x00\n        /* \"#utility.yul\":2562:2577   */\n      revert\n        /* \"#utility.yul\":2589:2780   */\n    tag_31:\n        /* \"#utility.yul\":2629:2632   */\n      0x00\n        /* \"#utility.yul\":2648:2668   */\n      tag_92\n        /* \"#utility.yul\":2666:2667   */\n      dup3\n        /* \"#utility.yul\":2648:2668   */\n      tag_41\n      jump\t// in\n    tag_92:\n        /* \"#utility.yul\":2643:2668   */\n      swap2\n      pop\n        /* \"#utility.yul\":2682:2702   */\n      tag_93\n        /* \"#utility.yul\":2700:2701   */\n      dup4\n        /* \"#utility.yul\":2682:2702   */\n      tag_41\n      jump\t// in\n    tag_93:\n        /* \"#utility.yul\":2677:2702   */\n      swap3\n      pop\n        /* \"#utility.yul\":2725:2726   */\n      dup3\n        /* \"#utility.yul\":2722:2723   */\n      dup3\n        /* \"#utility.yul\":2718:2727   */\n      add\n        /* \"#utility.yul\":2711:2727   */\n      swap1\n      pop\n        /* \"#utility.yul\":2746:2749   */\n      dup1\n        /* \"#utility.yul\":2743:2744   */\n      dup3\n        /* \"#utility.yul\":2740:2750   */\n      gt\n        /* \"#utility.yul\":2737:2773   */\n      iszero\n      tag_94\n      jumpi\n        /* \"#utility.yul\":2753:2771   */\n      tag_95\n      tag_52\n      jump\t// in\n    tag_95:\n        /* \"#utility.yul\":2737:2773   */\n    tag_94:\n        /* \"#utility.yul\":2589:2780   */\n      swap3\n      swap2\n      pop\n      pop\n      jump\t// out\n        /* \"#utility.yul\":2786:2955   */\n    tag_53:\n        /* \"#utility.yul\":2870:2881   */\n      0x00\n        /* \"#utility.yul\":2904:2910   */\n      dup3\n        /* \"#utility.yul\":2899:2902   */\n      dup3\n        /* \"#utility.yul\":2892:2911   */\n      mstore\n        /* \"#utility.yul\":2944:2948   */\n      0x20\n        /* \"#utility.yul\":2939:2942   */\n      dup3\n        /* \"#utility.yul\":2935:2949   */\n      add\n        /* \"#utility.yul\":2920:2949   */\n      swap1\n      pop\n        /* \"#utility.yul\":2786:2955   */\n      swap3\n      swap2\n      pop\n      pop\n      jump\t// out\n        /* \"#utility.yul\":2961:3138   */\n    tag_54:\n        /* \"#utility.yul\":3101:3130   */\n      0x536166654d6174683a206164646974696f6e206f766572666c6f770000000000\n        /* \"#utility.yul\":3097:3098   */\n      0x00\n        /* \"#utility.yul\":3089:3095   */\n      dup3\n        /* \"#utility.yul\":3085:3099   */\n      add\n        /* \"#utility.yul\":3078:3131   */\n      mstore\n        /* \"#utility.yul\":2961:3138   */\n      pop\n      jump\t// out\n        /* \"#utility.yul\":3144:3510   */\n    tag_55:\n        /* \"#utility.yul\":3286:3289   */\n      0x00\n        /* \"#utility.yul\":3307:3374   */\n      tag_99\n        /* \"#utility.yul\":3371:3373   */\n      0x1b\n        /* \"#utility.yul\":3366:3369   */\n      dup4\n        /* \"#utility.yul\":3307:3374   */\n      tag_53\n      jump\t// in\n    tag_99:\n        /* \"#utility.yul\":3300:3374   */\n      swap2\n      pop\n        /* \"#utility.yul\":3383:3476   */\n      tag_100\n        /* \"#utility.yul\":3472:3475   */\n      dup3\n        /* \"#utility.yul\":3383:3476   */\n      tag_54\n      jump\t// in\n    tag_100:\n        /* \"#utility.yul\":3501:3503   */\n      0x20\n        /* \"#utility.yul\":3496:3499   */\n      dup3\n        /* \"#utility.yul\":3492:3504   */\n      add\n        /* \"#utility.yul\":3485:3504   */\n      swap1\n      pop\n        /* \"#utility.yul\":3144:3510   */\n      swap2\n      swap1\n      pop\n      jump\t// out\n        /* \"#utility.yul\":3516:3935   */\n    tag_34:\n        /* \"#utility.yul\":3682:3686   */\n      0x00\n        /* \"#utility.yul\":3720:3722   */\n      0x20\n        /* \"#utility.yul\":3709:3718   */\n      dup3\n        /* \"#utility.yul\":3705:3723   */\n      add\n        /* \"#utility.yul\":3697:3723   */\n      swap1\n      pop\n        /* \"#utility.yul\":3769:3778   */\n      dup2\n        /* \"#utility.yul\":3763:3767   */\n      dup2\n        /* \"#utility.yul\":3759:3779   */\n      sub\n        /* \"#utility.yul\":3755:3756   */\n      0x00\n        /* \"#utility.yul\":3744:3753   */\n      dup4\n        /* \"#utility.yul\":3740:3757   */\n      add\n        /* \"#utility.yul\":3733:3780   */\n      mstore\n        /* \"#utility.yul\":3797:3928   */\n      tag_102\n        /* \"#utility.yul\":3923:3927   */\n      dup2\n        /* \"#utility.yul\":3797:3928   */\n      tag_55\n      jump\t// in\n    tag_102:\n        /* \"#utility.yul\":3789:3928   */\n      swap1\n      pop\n        /* \"#utility.yul\":3516:3935   */\n      swap2\n      swap1\n      pop\n      jump\t// out\n        /* \"#utility.yul\":3941:4121   */\n    tag_56:\n        /* \"#utility.yul\":4081:4113   */\n      0x536166654d6174683a207375627472616374696f6e206f766572666c6f770000\n        /* \"#utility.yul\":4077:4078   */\n      0x00\n        /* \"#utility.yul\":4069:4075   */\n      dup3\n        /* \"#utility.yul\":4065:4079   */\n      add\n        /* \"#utility.yul\":4058:4114   */\n      mstore\n        /* \"#utility.yul\":3941:4121   */\n      pop\n      jump\t// out\n        /* \"#utility.yul\":4127:4493   */\n    tag_57:\n        /* \"#utility.yul\":4269:4272   */\n      0x00\n        /* \"#utility.yul\":4290:4357   */\n      tag_105\n        /* \"#utility.yul\":4354:4356   */\n      0x1e\n        /* \"#utility.yul\":4349:4352   */\n      dup4\n        /* \"#utility.yul\":4290:4357   */\n      tag_53\n      jump\t// in\n    tag_105:\n        /* \"#utility.yul\":4283:4357   */\n      swap2\n      pop\n        /* \"#utility.yul\":4366:4459   */\n      tag_106\n        /* \"#utility.yul\":4455:4458   */\n      dup3\n        /* \"#utility.yul\":4366:4459   */\n      tag_56\n      jump\t// in\n    tag_106:\n        /* \"#utility.yul\":4484:4486   */\n      0x20\n        /* \"#utility.yul\":4479:4482   */\n      dup3\n        /* \"#utility.yul\":4475:4487   */\n      add\n        /* \"#utility.yul\":4468:4487   */\n      swap1\n      pop\n        /* \"#utility.yul\":4127:4493   */\n      swap2\n      swap1\n      pop\n      jump\t// out\n        /* \"#utility.yul\":4499:4918   */\n    tag_38:\n        /* \"#utility.yul\":4665:4669   */\n      0x00\n        /* \"#utility.yul\":4703:4705   */\n      0x20\n        /* \"#utility.yul\":4692:4701   */\n      dup3\n        /* \"#utility.yul\":4688:4706   */\n      add\n        /* \"#utility.yul\":4680:4706   */\n      swap1\n      pop\n        /* \"#utility.yul\":4752:4761   */\n      dup2\n        /* \"#utility.yul\":4746:4750   */\n      dup2\n        /* \"#utility.yul\":4742:4762   */\n      sub\n        /* \"#utility.yul\":4738:4739   */\n      0x00\n        /* \"#utility.yul\":4727:4736   */\n      dup4\n        /* \"#utility.yul\":4723:4740   */\n      add\n        /* \"#utility.yul\":4716:4763   */\n      mstore\n        /* \"#utility.yul\":4780:4911   */\n      tag_108\n        /* \"#utility.yul\":4906:4910   */\n      dup2\n        /* \"#utility.yul\":4780:4911   */\n      tag_57\n      jump\t// in\n    tag_108:\n        /* \"#utility.yul\":4772:4911   */\n      swap1\n      pop\n        /* \"#utility.yul\":4499:4918   */\n      swap2\n      swap1\n      pop\n      jump\t// out\n        /* \"#utility.yul\":4924:5115   */\n    tag_40:\n        /* \"#utility.yul\":4962:4966   */\n      0x00\n        /* \"#utility.yul\":4982:5000   */\n      tag_110\n        /* \"#utility.yul\":4998:4999   */\n      dup3\n        /* \"#utility.yul\":4982:5000   */\n      tag_48\n      jump\t// in\n    tag_110:\n        /* \"#utility.yul\":4977:5000   */\n      swap2\n      pop\n        /* \"#utility.yul\":5014:5032   */\n      tag_111\n        /* \"#utility.yul\":5030:5031   */\n      dup4\n        /* \"#utility.yul\":5014:5032   */\n      tag_48\n      jump\t// in\n    tag_111:\n        /* \"#utility.yul\":5009:5032   */\n      swap3\n      pop\n        /* \"#utility.yul\":5056:5057   */\n      dup3\n        /* \"#utility.yul\":5053:5054   */\n      dup3\n        /* \"#utility.yul\":5049:5058   */\n      sub\n        /* \"#utility.yul\":5041:5058   */\n      swap1\n      pop\n        /* \"#utility.yul\":5080:5084   */\n      0xff\n        /* \"#utility.yul\":5074:5078   */\n      dup2\n        /* \"#utility.yul\":5071:5085   */\n      gt\n        /* \"#utility.yul\":5068:5108   */\n      iszero\n      tag_112\n      jumpi\n        /* \"#utility.yul\":5088:5106   */\n      tag_113\n      tag_52\n      jump\t// in\n    tag_113:\n        /* \"#utility.yul\":5068:5108   */\n    tag_112:\n        /* \"#utility.yul\":4924:5115   */\n      swap3\n      swap2\n      pop\n      pop\n      jump\t// out\n\n    auxdata: 0xa2646970667358221220ebb33362cae716181e587120130fd7b7c159aeb3cbea208502722a6c4621e2f164736f6c63430008110033\n}\n",
				"bytecode": {
					"linkReferences": {},
					"object": "608060405234801561001057600080fd5b506104da806100206000396000f3fe608060405234801561001057600080fd5b506004361061004c5760003560e01c806323fd0e401461005157806350628c961461006f578063981cf4411461008b578063fd2a42e6146100a9575b600080fd5b6100596100c5565b604051610066919061021a565b60405180910390f35b61008960048036038101906100849190610266565b6100cb565b005b6100936100e9565b6040516100a091906102af565b60405180910390f35b6100c360048036038101906100be91906102f6565b6100fc565b005b60005481565b6100e08160005461013e90919063ffffffff16565b60008190555050565b600160009054906101000a900460ff1681565b61012181600160009054906101000a900460ff1660ff1661019c90919063ffffffff16565b600160006101000a81548160ff021916908360ff16021790555050565b600080828461014d9190610352565b905083811015610192576040517f08c379a0000000000000000000000000000000000000000000000000000000008152600401610189906103e3565b60405180910390fd5b8091505092915050565b60008260ff168260ff1611156101e7576040517f08c379a00000000000000000000000000000000000000000000000000000000081526004016101de9061044f565b60405180910390fd5b600082846101f5919061046f565b90508091505092915050565b6000819050919050565b61021481610201565b82525050565b600060208201905061022f600083018461020b565b92915050565b600080fd5b61024381610201565b811461024e57600080fd5b50565b6000813590506102608161023a565b92915050565b60006020828403121561027c5761027b610235565b5b600061028a84828501610251565b91505092915050565b600060ff82169050919050565b6102a981610293565b82525050565b60006020820190506102c460008301846102a0565b92915050565b6102d381610293565b81146102de57600080fd5b50565b6000813590506102f0816102ca565b92915050565b60006020828403121561030c5761030b610235565b5b600061031a848285016102e1565b91505092915050565b7f4e487b7100000000000000000000000000000000000000000000000000000000600052601160045260246000fd5b600061035d82610201565b915061036883610201565b92508282019050808211156103805761037f610323565b5b92915050565b600082825260208201905092915050565b7f536166654d6174683a206164646974696f6e206f766572666c6f770000000000600082015250565b60006103cd601b83610386565b91506103d882610397565b602082019050919050565b600060208201905081810360008301526103fc816103c0565b9050919050565b7f536166654d6174683a207375627472616374696f6e206f766572666c6f770000600082015250565b6000610439601e83610386565b915061044482610403565b602082019050919050565b600060208201905081810360008301526104688161042c565b9050919050565b600061047a82610293565b915061048583610293565b9250828203905060ff81111561049e5761049d610323565b5b9291505056fea2646970667358221220ebb33362cae716181e587120130fd7b7c159aeb3cbea208502722a6c4621e2f164736f6c63430008110033",
					"opcodes": "PUSH1 0x80 PUSH1 0x40 MSTORE CALLVALUE DUP1 ISZERO PUSH2 0x10 JUMPI PUSH1 0x0 DUP1 REVERT JUMPDEST POP PUSH2 0x4DA DUP1 PUSH2 0x20 PUSH1 0x0 CODECOPY PUSH1 0x0 RETURN INVALID PUSH1 0x80 PUSH1 0x40 MSTORE CALLVALUE DUP1 ISZERO PUSH2 0x10 JUMPI PUSH1 0x0 DUP1 REVERT JUMPDEST POP PUSH1 0x4 CALLDATASIZE LT PUSH2 0x4C JUMPI PUSH1 0x0 CALLDATALOAD PUSH1 0xE0 SHR DUP1 PUSH4 0x23FD0E40 EQ PUSH2 0x51 JUMPI DUP1 PUSH4 0x50628C96 EQ PUSH2 0x6F JUMPI DUP1 PUSH4 0x981CF441 EQ PUSH2 0x8B JUMPI DUP1 PUSH4 0xFD2A42E6 EQ PUSH2 0xA9 JUMPI JUMPDEST PUSH1 0x0 DUP1 REVERT JUMPDEST PUSH2 0x59 PUSH2 0xC5 JUMP JUMPDEST PUSH1 0x40 MLOAD PUSH2 0x66 SWAP2 SWAP1 PUSH2 0x21A JUMP JUMPDEST PUSH1 0x40 MLOAD DUP1 SWAP2 SUB SWAP1 RETURN JUMPDEST PUSH2 0x89 PUSH1 0x4 DUP1 CALLDATASIZE SUB DUP2 ADD SWAP1 PUSH2 0x84 SWAP2 SWAP1 PUSH2 0x266 JUMP JUMPDEST PUSH2 0xCB JUMP JUMPDEST STOP JUMPDEST PUSH2 0x93 PUSH2 0xE9 JUMP JUMPDEST PUSH1 0x40 MLOAD PUSH2 0xA0 SWAP2 SWAP1 PUSH2 0x2AF JUMP JUMPDEST PUSH1 0x40 MLOAD DUP1 SWAP2 SUB SWAP1 RETURN JUMPDEST PUSH2 0xC3 PUSH1 0x4 DUP1 CALLDATASIZE SUB DUP2 ADD SWAP1 PUSH2 0xBE SWAP2 SWAP1 PUSH2 0x2F6 JUMP JUMPDEST PUSH2 0xFC JUMP JUMPDEST STOP JUMPDEST PUSH1 0x0 SLOAD DUP2 JUMP JUMPDEST PUSH2 0xE0 DUP2 PUSH1 0x0 SLOAD PUSH2 0x13E SWAP1 SWAP2 SWAP1 PUSH4 0xFFFFFFFF AND JUMP JUMPDEST PUSH1 0x0 DUP2 SWAP1 SSTORE POP POP JUMP JUMPDEST PUSH1 0x1 PUSH1 0x0 SWAP1 SLOAD SWAP1 PUSH2 0x100 EXP SWAP1 DIV PUSH1 0xFF AND DUP2 JUMP JUMPDEST PUSH2 0x121 DUP2 PUSH1 0x1 PUSH1 0x0 SWAP1 SLOAD SWAP1 PUSH2 0x100 EXP SWAP1 DIV PUSH1 0xFF AND PUSH1 0xFF AND PUSH2 0x19C SWAP1 SWAP2 SWAP1 PUSH4 0xFFFFFFFF AND JUMP JUMPDEST PUSH1 0x1 PUSH1 0x0 PUSH2 0x100 EXP DUP2 SLOAD DUP2 PUSH1 0xFF MUL NOT AND SWAP1 DUP4 PUSH1 0xFF AND MUL OR SWAP1 SSTORE POP POP JUMP JUMPDEST PUSH1 0x0 DUP1 DUP3 DUP5 PUSH2 0x14D SWAP2 SWAP1 PUSH2 0x352 JUMP JUMPDEST SWAP1 POP DUP4 DUP2 LT ISZERO PUSH2 0x192 JUMPI PUSH1 0x40 MLOAD PUSH32 0x8C379A000000000000000000000000000000000000000000000000000000000 DUP2 MSTORE PUSH1 0x4 ADD PUSH2 0x189 SWAP1 PUSH2 0x3E3 JUMP JUMPDEST PUSH1 0x40 MLOAD DUP1 SWAP2 SUB SWAP1 REVERT JUMPDEST DUP1 SWAP2 POP POP SWAP3 SWAP2 POP POP JUMP JUMPDEST PUSH1 0x0 DUP3 PUSH1 0xFF AND DUP3 PUSH1 0xFF AND GT ISZERO PUSH2 0x1E7 JUMPI PUSH1 0x40 MLOAD PUSH32 0x8C379A000000000000000000000000000000000000000000000000000000000 DUP2 MSTORE PUSH1 0x4 ADD PUSH2 0x1DE SWAP1 PUSH2 0x44F JUMP JUMPDEST PUSH1 0x40 MLOAD DUP1 SWAP2 SUB SWAP1 REVERT JUMPDEST PUSH1 0x0 DUP3 DUP5 PUSH2 0x1F5 SWAP2 SWAP1 PUSH2 0x46F JUMP JUMPDEST SWAP1 POP DUP1 SWAP2 POP POP SWAP3 SWAP2 POP POP JUMP JUMPDEST PUSH1 0x0 DUP2 SWAP1 POP SWAP2 SWAP1 POP JUMP JUMPDEST PUSH2 0x214 DUP2 PUSH2 0x201 JUMP JUMPDEST DUP3 MSTORE POP POP JUMP JUMPDEST PUSH1 0x0 PUSH1 0x20 DUP3 ADD SWAP1 POP PUSH2 0x22F PUSH1 0x0 DUP4 ADD DUP5 PUSH2 0x20B JUMP JUMPDEST SWAP3 SWAP2 POP POP JUMP JUMPDEST PUSH1 0x0 DUP1 REVERT JUMPDEST PUSH2 0x243 DUP2 PUSH2 0x201 JUMP JUMPDEST DUP2 EQ PUSH2 0x24E JUMPI PUSH1 0x0 DUP1 REVERT JUMPDEST POP JUMP JUMPDEST PUSH1 0x0 DUP2 CALLDATALOAD SWAP1 POP PUSH2 0x260 DUP2 PUSH2 0x23A JUMP JUMPDEST SWAP3 SWAP2 POP POP JUMP JUMPDEST PUSH1 0x0 PUSH1 0x20 DUP3 DUP5 SUB SLT ISZERO PUSH2 0x27C JUMPI PUSH2 0x27B PUSH2 0x235 JUMP JUMPDEST JUMPDEST PUSH1 0x0 PUSH2 0x28A DUP5 DUP3 DUP6 ADD PUSH2 0x251 JUMP JUMPDEST SWAP2 POP POP SWAP3 SWAP2 POP POP JUMP JUMPDEST PUSH1 0x0 PUSH1 0xFF DUP3 AND SWAP1 POP SWAP2 SWAP1 POP JUMP JUMPDEST PUSH2 0x2A9 DUP2 PUSH2 0x293 JUMP JUMPDEST DUP3 MSTORE POP POP JUMP JUMPDEST PUSH1 0x0 PUSH1 0x20 DUP3 ADD SWAP1 POP PUSH2 0x2C4 PUSH1 0x0 DUP4 ADD DUP5 PUSH2 0x2A0 JUMP JUMPDEST SWAP3 SWAP2 POP POP JUMP JUMPDEST PUSH2 0x2D3 DUP2 PUSH2 0x293 JUMP JUMPDEST DUP2 EQ PUSH2 0x2DE JUMPI PUSH1 0x0 DUP1 REVERT JUMPDEST POP JUMP JUMPDEST PUSH1 0x0 DUP2 CALLDATALOAD SWAP1 POP PUSH2 0x2F0 DUP2 PUSH2 0x2CA JUMP JUMPDEST SWAP3 SWAP2 POP POP JUMP JUMPDEST PUSH1 0x0 PUSH1 0x20 DUP3 DUP5 SUB SLT ISZERO PUSH2 0x30C JUMPI PUSH2 0x30B PUSH2 0x235 JUMP JUMPDEST JUMPDEST PUSH1 0x0 PUSH2 0x31A DUP5 DUP3 DUP6 ADD PUSH2 0x2E1 JUMP JUMPDEST SWAP2 POP POP SWAP3 SWAP2 POP POP JUMP JUMPDEST PUSH32 0x4E487B7100000000000000000000000000000000000000000000000000000000 PUSH1 0x0 MSTORE PUSH1 0x11 PUSH1 0x4 MSTORE PUSH1 0x24 PUSH1 0x0 REVERT JUMPDEST PUSH1 0x0 PUSH2 0x35D DUP3 PUSH2 0x201 JUMP JUMPDEST SWAP2 POP PUSH2 0x368 DUP4 PUSH2 0x201 JUMP JUMPDEST SWAP3 POP DUP3 DUP3 ADD SWAP1 POP DUP1 DUP3 GT ISZERO PUSH2 0x380 JUMPI PUSH2 0x37F PUSH2 0x323 JUMP JUMPDEST JUMPDEST SWAP3 SWAP2 POP POP JUMP JUMPDEST PUSH1 0x0 DUP3 DUP3 MSTORE PUSH1 0x20 DUP3 ADD SWAP1 POP SWAP3 SWAP2 POP POP JUMP JUMPDEST PUSH32 0x536166654D6174683A206164646974696F6E206F766572666C6F770000000000 PUSH1 0x0 DUP3 ADD MSTORE POP JUMP JUMPDEST PUSH1 0x0 PUSH2 0x3CD PUSH1 0x1B DUP4 PUSH2 0x386 JUMP JUMPDEST SWAP2 POP PUSH2 0x3D8 DUP3 PUSH2 0x397 JUMP JUMPDEST PUSH1 0x20 DUP3 ADD SWAP1 POP SWAP2 SWAP1 POP JUMP JUMPDEST PUSH1 0x0 PUSH1 0x20 DUP3 ADD SWAP1 POP DUP2 DUP2 SUB PUSH1 0x0 DUP4 ADD MSTORE PUSH2 0x3FC DUP2 PUSH2 0x3C0 JUMP JUMPDEST SWAP1 POP SWAP2 SWAP1 POP JUMP JUMPDEST PUSH32 0x536166654D6174683A207375627472616374696F6E206F766572666C6F770000 PUSH1 0x0 DUP3 ADD MSTORE POP JUMP JUMPDEST PUSH1 0x0 PUSH2 0x439 PUSH1 0x1E DUP4 PUSH2 0x386 JUMP JUMPDEST SWAP2 POP PUSH2 0x444 DUP3 PUSH2 0x403 JUMP JUMPDEST PUSH1 0x20 DUP3 ADD SWAP1 POP SWAP2 SWAP1 POP JUMP JUMPDEST PUSH1 0x0 PUSH1 0x20 DUP3 ADD SWAP1 POP DUP2 DUP2 SUB PUSH1 0x0 DUP4 ADD MSTORE PUSH2 0x468 DUP2 PUSH2 0x42C JUMP JUMPDEST SWAP1 POP SWAP2 SWAP1 POP JUMP JUMPDEST PUSH1 0x0 PUSH2 0x47A DUP3 PUSH2 0x293 JUMP JUMPDEST SWAP2 POP PUSH2 0x485 DUP4 PUSH2 0x293 JUMP JUMPDEST SWAP3 POP DUP3 DUP3 SUB SWAP1 POP PUSH1 0xFF DUP2 GT ISZERO PUSH2 0x49E JUMPI PUSH2 0x49D PUSH2 0x323 JUMP JUMPDEST JUMPDEST SWAP3 SWAP2 POP POP JUMP INVALID LOG2 PUSH5 0x6970667358 0x22 SLT KECCAK256 0xEB 0xB3 CALLER PUSH3 0xCAE716 XOR 0x1E PC PUSH18 0x20130FD7B7C159AEB3CBEA208502722A6C46 0x21 0xE2 CALL PUSH5 0x736F6C6343 STOP ADDMOD GT STOP CALLER "
				},
				"gasEstimates": {
					"creation": {
						"codeDepositCost": "248400",
						"executionCost": "287",
						"totalCost": "248687"
					},
					"external": {
						"myFunction(uint256)": "infinite",
						"myNumber()": "2407",
						"myNumber1()": "2493",
						"sub(uint8)": "infinite"
					}
				},
				"methodIdentifiers": {
					"myFunction(uint256)": "50628c96",
					"myNumber()": "23fd0e40",
					"myNumber1()": "981cf441",
					"sub(uint8)": "fd2a42e6"
				}
			},
			"storageLayout": {
				"storage": [
					{
						"astId": 60,
						"contract": "day7/Using.sol:MyContract",
						"label": "myNumber",
						"offset": 0,
						"slot": "0",
						"type": "t_uint256"
					},
					{
						"astId": 62,
						"contract": "day7/Using.sol:MyContract",
						"label": "myNumber1",
						"offset": 0,
						"slot": "1",
						"type": "t_uint8"
					}
				],
				"types": {
					"t_uint256": {
						"encoding": "inplace",
						"label": "uint256",
						"numberOfBytes": "32"
					},
					"t_uint8": {
						"encoding": "inplace",
						"label": "uint8",
						"numberOfBytes": "1"
					}
				}
			},
			"userdoc": {
				"kind": "user",
				"methods": {},
				"version": 1
			}
		}
	}
}