{
	"function/Function.sol": {
		"Function": {
			"abi": [
				{
					"inputs": [
						{
							"internalType": "uint256",
							"name": "",
							"type": "uint256"
						}
					],
					"name": "arr",
					"outputs": [
						{
							"internalType": "uint256",
							"name": "",
							"type": "uint256"
						}
					],
					"stateMutability": "view",
					"type": "function"
				},
				{
					"inputs": [
						{
							"internalType": "uint256[]",
							"name": "_arr",
							"type": "uint256[]"
						}
					],
					"name": "arrayInput",
					"outputs": [],
					"stateMutability": "nonpayable",
					"type": "function"
				},
				{
					"inputs": [],
					"name": "arrayOutput",
					"outputs": [
						{
							"internalType": "uint256[]",
							"name": "",
							"type": "uint256[]"
						}
					],
					"stateMutability": "view",
					"type": "function"
				},
				{
					"inputs": [],
					"name": "assigned",
					"outputs": [
						{
							"internalType": "uint256",
							"name": "x",
							"type": "uint256"
						},
						{
							"internalType": "bool",
							"name": "b",
							"type": "bool"
						},
						{
							"internalType": "uint256",
							"name": "y",
							"type": "uint256"
						}
					],
					"stateMutability": "pure",
					"type": "function"
				},
				{
					"inputs": [],
					"name": "destructuringAssignments",
					"outputs": [
						{
							"internalType": "uint256",
							"name": "",
							"type": "uint256"
						},
						{
							"internalType": "bool",
							"name": "",
							"type": "bool"
						},
						{
							"internalType": "uint256",
							"name": "",
							"type": "uint256"
						},
						{
							"internalType": "uint256",
							"name": "",
							"type": "uint256"
						},
						{
							"internalType": "uint256",
							"name": "",
							"type": "uint256"
						}
					],
					"stateMutability": "pure",
					"type": "function"
				},
				{
					"inputs": [],
					"name": "named",
					"outputs": [
						{
							"internalType": "uint256",
							"name": "x",
							"type": "uint256"
						},
						{
							"internalType": "bool",
							"name": "b",
							"type": "bool"
						},
						{
							"internalType": "uint256",
							"name": "y",
							"type": "uint256"
						}
					],
					"stateMutability": "pure",
					"type": "function"
				},
				{
					"inputs": [],
					"name": "returnMany",
					"outputs": [
						{
							"internalType": "uint256",
							"name": "",
							"type": "uint256"
						},
						{
							"internalType": "bool",
							"name": "",
							"type": "bool"
						},
						{
							"internalType": "uint256",
							"name": "",
							"type": "uint256"
						}
					],
					"stateMutability": "pure",
					"type": "function"
				}
			],
			"devdoc": {
				"kind": "dev",
				"methods": {},
				"version": 1
			},
			"evm": {
				"assembly": "    /* \"function/Function.sol\":61:1321  contract Function {... */\n  mstore(0x40, 0x80)\n  callvalue\n  dup1\n  iszero\n  tag_1\n  jumpi\n  0x00\n  dup1\n  revert\ntag_1:\n  pop\n  dataSize(sub_0)\n  dup1\n  dataOffset(sub_0)\n  0x00\n  codecopy\n  0x00\n  return\nstop\n\nsub_0: assembly {\n        /* \"function/Function.sol\":61:1321  contract Function {... */\n      mstore(0x40, 0x80)\n      callvalue\n      dup1\n      iszero\n      tag_1\n      jumpi\n      0x00\n      dup1\n      revert\n    tag_1:\n      pop\n      jumpi(tag_2, lt(calldatasize, 0x04))\n      shr(0xe0, calldataload(0x00))\n      dup1\n      0x71e5ee5f\n      gt\n      tag_10\n      jumpi\n      dup1\n      0x71e5ee5f\n      eq\n      tag_6\n      jumpi\n      dup1\n      0x86887544\n      eq\n      tag_7\n      jumpi\n      dup1\n      0xadb4d990\n      eq\n      tag_8\n      jumpi\n      dup1\n      0xf4bb6e6b\n      eq\n      tag_9\n      jumpi\n      jump(tag_2)\n    tag_10:\n      dup1\n      0x1990532b\n      eq\n      tag_3\n      jumpi\n      dup1\n      0x45f907a8\n      eq\n      tag_4\n      jumpi\n      dup1\n      0x68873440\n      eq\n      tag_5\n      jumpi\n    tag_2:\n      0x00\n      dup1\n      revert\n        /* \"function/Function.sol\":1230:1318  function arrayOutput() public view returns (uint[] memory) {... */\n    tag_3:\n      tag_11\n      tag_12\n      jump\t// in\n    tag_11:\n      mload(0x40)\n      tag_13\n      swap2\n      swap1\n      tag_14\n      jump\t// in\n    tag_13:\n      mload(0x40)\n      dup1\n      swap2\n      sub\n      swap1\n      return\n        /* \"function/Function.sol\":275:375  function named() public pure returns (uint x, bool b, uint y) {... */\n    tag_4:\n      tag_15\n      tag_16\n      jump\t// in\n    tag_15:\n      mload(0x40)\n      tag_17\n      swap4\n      swap3\n      swap2\n      swap1\n      tag_18\n      jump\t// in\n    tag_17:\n      mload(0x40)\n      dup1\n      swap2\n      sub\n      swap1\n      return\n        /* \"function/Function.sol\":731:1022  function destructuringAssignments()... */\n    tag_5:\n      tag_19\n      tag_20\n      jump\t// in\n    tag_19:\n      mload(0x40)\n      tag_21\n      swap6\n      swap5\n      swap4\n      swap3\n      swap2\n      swap1\n      tag_22\n      jump\t// in\n    tag_21:\n      mload(0x40)\n      dup1\n      swap2\n      sub\n      swap1\n      return\n        /* \"function/Function.sol\":1204:1221  uint[] public arr */\n    tag_6:\n      tag_23\n      0x04\n      dup1\n      calldatasize\n      sub\n      dup2\n      add\n      swap1\n      tag_24\n      swap2\n      swap1\n      tag_25\n      jump\t// in\n    tag_24:\n      tag_26\n      jump\t// in\n    tag_23:\n      mload(0x40)\n      tag_27\n      swap2\n      swap1\n      tag_28\n      jump\t// in\n    tag_27:\n      mload(0x40)\n      dup1\n      swap2\n      sub\n      swap1\n      return\n        /* \"function/Function.sol\":132:231  function returnMany() public pure returns (uint, bool, uint) {... */\n    tag_7:\n      tag_29\n      tag_30\n      jump\t// in\n    tag_29:\n      mload(0x40)\n      tag_31\n      swap4\n      swap3\n      swap2\n      swap1\n      tag_18\n      jump\t// in\n    tag_31:\n      mload(0x40)\n      dup1\n      swap2\n      sub\n      swap1\n      return\n        /* \"function/Function.sol\":494:618  function assigned() public pure returns (uint x, bool b, uint y) {... */\n    tag_8:\n      tag_32\n      tag_33\n      jump\t// in\n    tag_32:\n      mload(0x40)\n      tag_34\n      swap4\n      swap3\n      swap2\n      swap1\n      tag_18\n      jump\t// in\n    tag_34:\n      mload(0x40)\n      dup1\n      swap2\n      sub\n      swap1\n      return\n        /* \"function/Function.sol\":1114:1163  function arrayInput(uint[] memory _arr) public {} */\n    tag_9:\n      tag_35\n      0x04\n      dup1\n      calldatasize\n      sub\n      dup2\n      add\n      swap1\n      tag_36\n      swap2\n      swap1\n      tag_37\n      jump\t// in\n    tag_36:\n      tag_38\n      jump\t// in\n    tag_35:\n      stop\n        /* \"function/Function.sol\":1230:1318  function arrayOutput() public view returns (uint[] memory) {... */\n    tag_12:\n        /* \"function/Function.sol\":1274:1287  uint[] memory */\n      0x60\n        /* \"function/Function.sol\":1307:1310  arr */\n      0x00\n        /* \"function/Function.sol\":1300:1310  return arr */\n      dup1\n      sload\n      dup1\n      0x20\n      mul\n      0x20\n      add\n      mload(0x40)\n      swap1\n      dup2\n      add\n      0x40\n      mstore\n      dup1\n      swap3\n      swap2\n      swap1\n      dup2\n      dup2\n      mstore\n      0x20\n      add\n      dup3\n      dup1\n      sload\n      dup1\n      iszero\n      tag_40\n      jumpi\n      0x20\n      mul\n      dup3\n      add\n      swap2\n      swap1\n      0x00\n      mstore\n      keccak256(0x00, 0x20)\n      swap1\n    tag_41:\n      dup2\n      sload\n      dup2\n      mstore\n      0x20\n      add\n      swap1\n      0x01\n      add\n      swap1\n      dup1\n      dup4\n      gt\n      tag_41\n      jumpi\n    tag_40:\n      pop\n      pop\n      pop\n      pop\n      pop\n      swap1\n      pop\n        /* \"function/Function.sol\":1230:1318  function arrayOutput() public view returns (uint[] memory) {... */\n      swap1\n      jump\t// out\n        /* \"function/Function.sol\":275:375  function named() public pure returns (uint x, bool b, uint y) {... */\n    tag_16:\n        /* \"function/Function.sol\":313:319  uint x */\n      0x00\n        /* \"function/Function.sol\":321:327  bool b */\n      dup1\n        /* \"function/Function.sol\":329:335  uint y */\n      0x00\n        /* \"function/Function.sol\":356:357  1 */\n      0x01\n        /* \"function/Function.sol\":359:363  true */\n      dup1\n        /* \"function/Function.sol\":365:366  2 */\n      0x02\n        /* \"function/Function.sol\":348:367  return (1, true, 2) */\n      swap3\n      pop\n      swap3\n      pop\n      swap3\n      pop\n        /* \"function/Function.sol\":275:375  function named() public pure returns (uint x, bool b, uint y) {... */\n      swap1\n      swap2\n      swap3\n      jump\t// out\n        /* \"function/Function.sol\":731:1022  function destructuringAssignments()... */\n    tag_20:\n        /* \"function/Function.sol\":815:819  uint */\n      0x00\n        /* \"function/Function.sol\":821:825  bool */\n      dup1\n        /* \"function/Function.sol\":827:831  uint */\n      0x00\n        /* \"function/Function.sol\":833:837  uint */\n      dup1\n        /* \"function/Function.sol\":839:843  uint */\n      0x00\n        /* \"function/Function.sol\":862:868  uint i */\n      dup1\n        /* \"function/Function.sol\":870:876  bool b */\n      0x00\n        /* \"function/Function.sol\":878:884  uint j */\n      dup1\n        /* \"function/Function.sol\":888:900  returnMany() */\n      tag_44\n        /* \"function/Function.sol\":888:898  returnMany */\n      tag_30\n        /* \"function/Function.sol\":888:900  returnMany() */\n      jump\t// in\n    tag_44:\n        /* \"function/Function.sol\":861:900  (uint i, bool b, uint j) = returnMany() */\n      swap3\n      pop\n      swap3\n      pop\n      swap3\n      pop\n        /* \"function/Function.sol\":950:956  uint x */\n      0x00\n        /* \"function/Function.sol\":960:966  uint y */\n      dup1\n        /* \"function/Function.sol\":971:972  4 */\n      0x04\n        /* \"function/Function.sol\":974:975  5 */\n      0x05\n        /* \"function/Function.sol\":977:978  6 */\n      0x06\n        /* \"function/Function.sol\":949:979  (uint x, , uint y) = (4, 5, 6) */\n      swap3\n      pop\n      pop\n      swap2\n      pop\n        /* \"function/Function.sol\":1000:1001  i */\n      dup5\n        /* \"function/Function.sol\":1003:1004  b */\n      dup5\n        /* \"function/Function.sol\":1006:1007  j */\n      dup5\n        /* \"function/Function.sol\":1009:1010  x */\n      dup5\n        /* \"function/Function.sol\":1012:1013  y */\n      dup5\n        /* \"function/Function.sol\":992:1014  return (i, b, j, x, y) */\n      swap10\n      pop\n      swap10\n      pop\n      swap10\n      pop\n      swap10\n      pop\n      swap10\n      pop\n      pop\n      pop\n      pop\n      pop\n      pop\n        /* \"function/Function.sol\":731:1022  function destructuringAssignments()... */\n      swap1\n      swap2\n      swap3\n      swap4\n      swap5\n      jump\t// out\n        /* \"function/Function.sol\":1204:1221  uint[] public arr */\n    tag_26:\n      0x00\n      dup2\n      dup2\n      sload\n      dup2\n      lt\n      tag_45\n      jumpi\n      0x00\n      dup1\n      revert\n    tag_45:\n      swap1\n      0x00\n      mstore\n      keccak256(0x00, 0x20)\n      add\n      0x00\n      swap2\n      pop\n      swap1\n      pop\n      sload\n      dup2\n      jump\t// out\n        /* \"function/Function.sol\":132:231  function returnMany() public pure returns (uint, bool, uint) {... */\n    tag_30:\n        /* \"function/Function.sol\":175:179  uint */\n      0x00\n        /* \"function/Function.sol\":181:185  bool */\n      dup1\n        /* \"function/Function.sol\":187:191  uint */\n      0x00\n        /* \"function/Function.sol\":212:213  1 */\n      0x01\n        /* \"function/Function.sol\":215:219  true */\n      dup1\n        /* \"function/Function.sol\":221:222  2 */\n      0x02\n        /* \"function/Function.sol\":204:223  return (1, true, 2) */\n      swap3\n      pop\n      swap3\n      pop\n      swap3\n      pop\n        /* \"function/Function.sol\":132:231  function returnMany() public pure returns (uint, bool, uint) {... */\n      swap1\n      swap2\n      swap3\n      jump\t// out\n        /* \"function/Function.sol\":494:618  function assigned() public pure returns (uint x, bool b, uint y) {... */\n    tag_33:\n        /* \"function/Function.sol\":535:541  uint x */\n      0x00\n        /* \"function/Function.sol\":543:549  bool b */\n      dup1\n        /* \"function/Function.sol\":551:557  uint y */\n      0x00\n        /* \"function/Function.sol\":574:575  1 */\n      0x01\n        /* \"function/Function.sol\":570:575  x = 1 */\n      swap3\n      pop\n        /* \"function/Function.sol\":590:594  true */\n      0x01\n        /* \"function/Function.sol\":586:594  b = true */\n      swap2\n      pop\n        /* \"function/Function.sol\":609:610  2 */\n      0x02\n        /* \"function/Function.sol\":605:610  y = 2 */\n      swap1\n      pop\n        /* \"function/Function.sol\":494:618  function assigned() public pure returns (uint x, bool b, uint y) {... */\n      swap1\n      swap2\n      swap3\n      jump\t// out\n        /* \"function/Function.sol\":1114:1163  function arrayInput(uint[] memory _arr) public {} */\n    tag_38:\n      pop\n      jump\t// out\n        /* \"#utility.yul\":7:121   */\n    tag_50:\n        /* \"#utility.yul\":74:80   */\n      0x00\n        /* \"#utility.yul\":108:113   */\n      dup2\n        /* \"#utility.yul\":102:114   */\n      mload\n        /* \"#utility.yul\":92:114   */\n      swap1\n      pop\n        /* \"#utility.yul\":7:121   */\n      swap2\n      swap1\n      pop\n      jump\t// out\n        /* \"#utility.yul\":127:311   */\n    tag_51:\n        /* \"#utility.yul\":226:237   */\n      0x00\n        /* \"#utility.yul\":260:266   */\n      dup3\n        /* \"#utility.yul\":255:258   */\n      dup3\n        /* \"#utility.yul\":248:267   */\n      mstore\n        /* \"#utility.yul\":300:304   */\n      0x20\n        /* \"#utility.yul\":295:298   */\n      dup3\n        /* \"#utility.yul\":291:305   */\n      add\n        /* \"#utility.yul\":276:305   */\n      swap1\n      pop\n        /* \"#utility.yul\":127:311   */\n      swap3\n      swap2\n      pop\n      pop\n      jump\t// out\n        /* \"#utility.yul\":317:449   */\n    tag_52:\n        /* \"#utility.yul\":384:388   */\n      0x00\n        /* \"#utility.yul\":407:410   */\n      dup2\n        /* \"#utility.yul\":399:410   */\n      swap1\n      pop\n        /* \"#utility.yul\":437:441   */\n      0x20\n        /* \"#utility.yul\":432:435   */\n      dup3\n        /* \"#utility.yul\":428:442   */\n      add\n        /* \"#utility.yul\":420:442   */\n      swap1\n      pop\n        /* \"#utility.yul\":317:449   */\n      swap2\n      swap1\n      pop\n      jump\t// out\n        /* \"#utility.yul\":455:532   */\n    tag_53:\n        /* \"#utility.yul\":492:499   */\n      0x00\n        /* \"#utility.yul\":521:526   */\n      dup2\n        /* \"#utility.yul\":510:526   */\n      swap1\n      pop\n        /* \"#utility.yul\":455:532   */\n      swap2\n      swap1\n      pop\n      jump\t// out\n        /* \"#utility.yul\":538:646   */\n    tag_54:\n        /* \"#utility.yul\":615:639   */\n      tag_81\n        /* \"#utility.yul\":633:638   */\n      dup2\n        /* \"#utility.yul\":615:639   */\n      tag_53\n      jump\t// in\n    tag_81:\n        /* \"#utility.yul\":610:613   */\n      dup3\n        /* \"#utility.yul\":603:640   */\n      mstore\n        /* \"#utility.yul\":538:646   */\n      pop\n      pop\n      jump\t// out\n        /* \"#utility.yul\":652:831   */\n    tag_55:\n        /* \"#utility.yul\":721:731   */\n      0x00\n        /* \"#utility.yul\":742:788   */\n      tag_83\n        /* \"#utility.yul\":784:787   */\n      dup4\n        /* \"#utility.yul\":776:782   */\n      dup4\n        /* \"#utility.yul\":742:788   */\n      tag_54\n      jump\t// in\n    tag_83:\n        /* \"#utility.yul\":820:824   */\n      0x20\n        /* \"#utility.yul\":815:818   */\n      dup4\n        /* \"#utility.yul\":811:825   */\n      add\n        /* \"#utility.yul\":797:825   */\n      swap1\n      pop\n        /* \"#utility.yul\":652:831   */\n      swap3\n      swap2\n      pop\n      pop\n      jump\t// out\n        /* \"#utility.yul\":837:950   */\n    tag_56:\n        /* \"#utility.yul\":907:911   */\n      0x00\n        /* \"#utility.yul\":939:943   */\n      0x20\n        /* \"#utility.yul\":934:937   */\n      dup3\n        /* \"#utility.yul\":930:944   */\n      add\n        /* \"#utility.yul\":922:944   */\n      swap1\n      pop\n        /* \"#utility.yul\":837:950   */\n      swap2\n      swap1\n      pop\n      jump\t// out\n        /* \"#utility.yul\":986:1718   */\n    tag_57:\n        /* \"#utility.yul\":1105:1108   */\n      0x00\n        /* \"#utility.yul\":1134:1188   */\n      tag_86\n        /* \"#utility.yul\":1182:1187   */\n      dup3\n        /* \"#utility.yul\":1134:1188   */\n      tag_50\n      jump\t// in\n    tag_86:\n        /* \"#utility.yul\":1204:1290   */\n      tag_87\n        /* \"#utility.yul\":1283:1289   */\n      dup2\n        /* \"#utility.yul\":1278:1281   */\n      dup6\n        /* \"#utility.yul\":1204:1290   */\n      tag_51\n      jump\t// in\n    tag_87:\n        /* \"#utility.yul\":1197:1290   */\n      swap4\n      pop\n        /* \"#utility.yul\":1314:1370   */\n      tag_88\n        /* \"#utility.yul\":1364:1369   */\n      dup4\n        /* \"#utility.yul\":1314:1370   */\n      tag_52\n      jump\t// in\n    tag_88:\n        /* \"#utility.yul\":1393:1400   */\n      dup1\n        /* \"#utility.yul\":1424:1425   */\n      0x00\n        /* \"#utility.yul\":1409:1693   */\n    tag_89:\n        /* \"#utility.yul\":1434:1440   */\n      dup4\n        /* \"#utility.yul\":1431:1432   */\n      dup2\n        /* \"#utility.yul\":1428:1441   */\n      lt\n        /* \"#utility.yul\":1409:1693   */\n      iszero\n      tag_91\n      jumpi\n        /* \"#utility.yul\":1510:1516   */\n      dup2\n        /* \"#utility.yul\":1504:1517   */\n      mload\n        /* \"#utility.yul\":1537:1600   */\n      tag_92\n        /* \"#utility.yul\":1596:1599   */\n      dup9\n        /* \"#utility.yul\":1581:1594   */\n      dup3\n        /* \"#utility.yul\":1537:1600   */\n      tag_55\n      jump\t// in\n    tag_92:\n        /* \"#utility.yul\":1530:1600   */\n      swap8\n      pop\n        /* \"#utility.yul\":1623:1683   */\n      tag_93\n        /* \"#utility.yul\":1676:1682   */\n      dup4\n        /* \"#utility.yul\":1623:1683   */\n      tag_56\n      jump\t// in\n    tag_93:\n        /* \"#utility.yul\":1613:1683   */\n      swap3\n      pop\n        /* \"#utility.yul\":1469:1693   */\n      pop\n        /* \"#utility.yul\":1456:1457   */\n      0x01\n        /* \"#utility.yul\":1453:1454   */\n      dup2\n        /* \"#utility.yul\":1449:1458   */\n      add\n        /* \"#utility.yul\":1444:1458   */\n      swap1\n      pop\n        /* \"#utility.yul\":1409:1693   */\n      jump(tag_89)\n    tag_91:\n        /* \"#utility.yul\":1413:1427   */\n      pop\n        /* \"#utility.yul\":1709:1712   */\n      dup6\n        /* \"#utility.yul\":1702:1712   */\n      swap4\n      pop\n        /* \"#utility.yul\":1110:1718   */\n      pop\n      pop\n      pop\n        /* \"#utility.yul\":986:1718   */\n      swap3\n      swap2\n      pop\n      pop\n      jump\t// out\n        /* \"#utility.yul\":1724:2097   */\n    tag_14:\n        /* \"#utility.yul\":1867:1871   */\n      0x00\n        /* \"#utility.yul\":1905:1907   */\n      0x20\n        /* \"#utility.yul\":1894:1903   */\n      dup3\n        /* \"#utility.yul\":1890:1908   */\n      add\n        /* \"#utility.yul\":1882:1908   */\n      swap1\n      pop\n        /* \"#utility.yul\":1954:1963   */\n      dup2\n        /* \"#utility.yul\":1948:1952   */\n      dup2\n        /* \"#utility.yul\":1944:1964   */\n      sub\n        /* \"#utility.yul\":1940:1941   */\n      0x00\n        /* \"#utility.yul\":1929:1938   */\n      dup4\n        /* \"#utility.yul\":1925:1942   */\n      add\n        /* \"#utility.yul\":1918:1965   */\n      mstore\n        /* \"#utility.yul\":1982:2090   */\n      tag_95\n        /* \"#utility.yul\":2085:2089   */\n      dup2\n        /* \"#utility.yul\":2076:2082   */\n      dup5\n        /* \"#utility.yul\":1982:2090   */\n      tag_57\n      jump\t// in\n    tag_95:\n        /* \"#utility.yul\":1974:2090   */\n      swap1\n      pop\n        /* \"#utility.yul\":1724:2097   */\n      swap3\n      swap2\n      pop\n      pop\n      jump\t// out\n        /* \"#utility.yul\":2103:2221   */\n    tag_58:\n        /* \"#utility.yul\":2190:2214   */\n      tag_97\n        /* \"#utility.yul\":2208:2213   */\n      dup2\n        /* \"#utility.yul\":2190:2214   */\n      tag_53\n      jump\t// in\n    tag_97:\n        /* \"#utility.yul\":2185:2188   */\n      dup3\n        /* \"#utility.yul\":2178:2215   */\n      mstore\n        /* \"#utility.yul\":2103:2221   */\n      pop\n      pop\n      jump\t// out\n        /* \"#utility.yul\":2227:2317   */\n    tag_59:\n        /* \"#utility.yul\":2261:2268   */\n      0x00\n        /* \"#utility.yul\":2304:2309   */\n      dup2\n        /* \"#utility.yul\":2297:2310   */\n      iszero\n        /* \"#utility.yul\":2290:2311   */\n      iszero\n        /* \"#utility.yul\":2279:2311   */\n      swap1\n      pop\n        /* \"#utility.yul\":2227:2317   */\n      swap2\n      swap1\n      pop\n      jump\t// out\n        /* \"#utility.yul\":2323:2432   */\n    tag_60:\n        /* \"#utility.yul\":2404:2425   */\n      tag_100\n        /* \"#utility.yul\":2419:2424   */\n      dup2\n        /* \"#utility.yul\":2404:2425   */\n      tag_59\n      jump\t// in\n    tag_100:\n        /* \"#utility.yul\":2399:2402   */\n      dup3\n        /* \"#utility.yul\":2392:2426   */\n      mstore\n        /* \"#utility.yul\":2323:2432   */\n      pop\n      pop\n      jump\t// out\n        /* \"#utility.yul\":2438:2868   */\n    tag_18:\n        /* \"#utility.yul\":2581:2585   */\n      0x00\n        /* \"#utility.yul\":2619:2621   */\n      0x60\n        /* \"#utility.yul\":2608:2617   */\n      dup3\n        /* \"#utility.yul\":2604:2622   */\n      add\n        /* \"#utility.yul\":2596:2622   */\n      swap1\n      pop\n        /* \"#utility.yul\":2632:2703   */\n      tag_102\n        /* \"#utility.yul\":2700:2701   */\n      0x00\n        /* \"#utility.yul\":2689:2698   */\n      dup4\n        /* \"#utility.yul\":2685:2702   */\n      add\n        /* \"#utility.yul\":2676:2682   */\n      dup7\n        /* \"#utility.yul\":2632:2703   */\n      tag_58\n      jump\t// in\n    tag_102:\n        /* \"#utility.yul\":2713:2779   */\n      tag_103\n        /* \"#utility.yul\":2775:2777   */\n      0x20\n        /* \"#utility.yul\":2764:2773   */\n      dup4\n        /* \"#utility.yul\":2760:2778   */\n      add\n        /* \"#utility.yul\":2751:2757   */\n      dup6\n        /* \"#utility.yul\":2713:2779   */\n      tag_60\n      jump\t// in\n    tag_103:\n        /* \"#utility.yul\":2789:2861   */\n      tag_104\n        /* \"#utility.yul\":2857:2859   */\n      0x40\n        /* \"#utility.yul\":2846:2855   */\n      dup4\n        /* \"#utility.yul\":2842:2860   */\n      add\n        /* \"#utility.yul\":2833:2839   */\n      dup5\n        /* \"#utility.yul\":2789:2861   */\n      tag_58\n      jump\t// in\n    tag_104:\n        /* \"#utility.yul\":2438:2868   */\n      swap5\n      swap4\n      pop\n      pop\n      pop\n      pop\n      jump\t// out\n        /* \"#utility.yul\":2874:3526   */\n    tag_22:\n        /* \"#utility.yul\":3073:3077   */\n      0x00\n        /* \"#utility.yul\":3111:3114   */\n      0xa0\n        /* \"#utility.yul\":3100:3109   */\n      dup3\n        /* \"#utility.yul\":3096:3115   */\n      add\n        /* \"#utility.yul\":3088:3115   */\n      swap1\n      pop\n        /* \"#utility.yul\":3125:3196   */\n      tag_106\n        /* \"#utility.yul\":3193:3194   */\n      0x00\n        /* \"#utility.yul\":3182:3191   */\n      dup4\n        /* \"#utility.yul\":3178:3195   */\n      add\n        /* \"#utility.yul\":3169:3175   */\n      dup9\n        /* \"#utility.yul\":3125:3196   */\n      tag_58\n      jump\t// in\n    tag_106:\n        /* \"#utility.yul\":3206:3272   */\n      tag_107\n        /* \"#utility.yul\":3268:3270   */\n      0x20\n        /* \"#utility.yul\":3257:3266   */\n      dup4\n        /* \"#utility.yul\":3253:3271   */\n      add\n        /* \"#utility.yul\":3244:3250   */\n      dup8\n        /* \"#utility.yul\":3206:3272   */\n      tag_60\n      jump\t// in\n    tag_107:\n        /* \"#utility.yul\":3282:3354   */\n      tag_108\n        /* \"#utility.yul\":3350:3352   */\n      0x40\n        /* \"#utility.yul\":3339:3348   */\n      dup4\n        /* \"#utility.yul\":3335:3353   */\n      add\n        /* \"#utility.yul\":3326:3332   */\n      dup7\n        /* \"#utility.yul\":3282:3354   */\n      tag_58\n      jump\t// in\n    tag_108:\n        /* \"#utility.yul\":3364:3436   */\n      tag_109\n        /* \"#utility.yul\":3432:3434   */\n      0x60\n        /* \"#utility.yul\":3421:3430   */\n      dup4\n        /* \"#utility.yul\":3417:3435   */\n      add\n        /* \"#utility.yul\":3408:3414   */\n      dup6\n        /* \"#utility.yul\":3364:3436   */\n      tag_58\n      jump\t// in\n    tag_109:\n        /* \"#utility.yul\":3446:3519   */\n      tag_110\n        /* \"#utility.yul\":3514:3517   */\n      0x80\n        /* \"#utility.yul\":3503:3512   */\n      dup4\n        /* \"#utility.yul\":3499:3518   */\n      add\n        /* \"#utility.yul\":3490:3496   */\n      dup5\n        /* \"#utility.yul\":3446:3519   */\n      tag_58\n      jump\t// in\n    tag_110:\n        /* \"#utility.yul\":2874:3526   */\n      swap7\n      swap6\n      pop\n      pop\n      pop\n      pop\n      pop\n      pop\n      jump\t// out\n        /* \"#utility.yul\":3532:3607   */\n    tag_61:\n        /* \"#utility.yul\":3565:3571   */\n      0x00\n        /* \"#utility.yul\":3598:3600   */\n      0x40\n        /* \"#utility.yul\":3592:3601   */\n      mload\n        /* \"#utility.yul\":3582:3601   */\n      swap1\n      pop\n        /* \"#utility.yul\":3532:3607   */\n      swap1\n      jump\t// out\n        /* \"#utility.yul\":3613:3730   */\n    tag_62:\n        /* \"#utility.yul\":3722:3723   */\n      0x00\n        /* \"#utility.yul\":3719:3720   */\n      dup1\n        /* \"#utility.yul\":3712:3724   */\n      revert\n        /* \"#utility.yul\":3736:3853   */\n    tag_63:\n        /* \"#utility.yul\":3845:3846   */\n      0x00\n        /* \"#utility.yul\":3842:3843   */\n      dup1\n        /* \"#utility.yul\":3835:3847   */\n      revert\n        /* \"#utility.yul\":3859:3981   */\n    tag_64:\n        /* \"#utility.yul\":3932:3956   */\n      tag_115\n        /* \"#utility.yul\":3950:3955   */\n      dup2\n        /* \"#utility.yul\":3932:3956   */\n      tag_53\n      jump\t// in\n    tag_115:\n        /* \"#utility.yul\":3925:3930   */\n      dup2\n        /* \"#utility.yul\":3922:3957   */\n      eq\n        /* \"#utility.yul\":3912:3975   */\n      tag_116\n      jumpi\n        /* \"#utility.yul\":3971:3972   */\n      0x00\n        /* \"#utility.yul\":3968:3969   */\n      dup1\n        /* \"#utility.yul\":3961:3973   */\n      revert\n        /* \"#utility.yul\":3912:3975   */\n    tag_116:\n        /* \"#utility.yul\":3859:3981   */\n      pop\n      jump\t// out\n        /* \"#utility.yul\":3987:4126   */\n    tag_65:\n        /* \"#utility.yul\":4033:4038   */\n      0x00\n        /* \"#utility.yul\":4071:4077   */\n      dup2\n        /* \"#utility.yul\":4058:4078   */\n      calldataload\n        /* \"#utility.yul\":4049:4078   */\n      swap1\n      pop\n        /* \"#utility.yul\":4087:4120   */\n      tag_118\n        /* \"#utility.yul\":4114:4119   */\n      dup2\n        /* \"#utility.yul\":4087:4120   */\n      tag_64\n      jump\t// in\n    tag_118:\n        /* \"#utility.yul\":3987:4126   */\n      swap3\n      swap2\n      pop\n      pop\n      jump\t// out\n        /* \"#utility.yul\":4132:4461   */\n    tag_25:\n        /* \"#utility.yul\":4191:4197   */\n      0x00\n        /* \"#utility.yul\":4240:4242   */\n      0x20\n        /* \"#utility.yul\":4228:4237   */\n      dup3\n        /* \"#utility.yul\":4219:4226   */\n      dup5\n        /* \"#utility.yul\":4215:4238   */\n      sub\n        /* \"#utility.yul\":4211:4243   */\n      slt\n        /* \"#utility.yul\":4208:4327   */\n      iszero\n      tag_120\n      jumpi\n        /* \"#utility.yul\":4246:4325   */\n      tag_121\n      tag_62\n      jump\t// in\n    tag_121:\n        /* \"#utility.yul\":4208:4327   */\n    tag_120:\n        /* \"#utility.yul\":4366:4367   */\n      0x00\n        /* \"#utility.yul\":4391:4444   */\n      tag_122\n        /* \"#utility.yul\":4436:4443   */\n      dup5\n        /* \"#utility.yul\":4427:4433   */\n      dup3\n        /* \"#utility.yul\":4416:4425   */\n      dup6\n        /* \"#utility.yul\":4412:4434   */\n      add\n        /* \"#utility.yul\":4391:4444   */\n      tag_65\n      jump\t// in\n    tag_122:\n        /* \"#utility.yul\":4381:4444   */\n      swap2\n      pop\n        /* \"#utility.yul\":4337:4454   */\n      pop\n        /* \"#utility.yul\":4132:4461   */\n      swap3\n      swap2\n      pop\n      pop\n      jump\t// out\n        /* \"#utility.yul\":4467:4689   */\n    tag_28:\n        /* \"#utility.yul\":4560:4564   */\n      0x00\n        /* \"#utility.yul\":4598:4600   */\n      0x20\n        /* \"#utility.yul\":4587:4596   */\n      dup3\n        /* \"#utility.yul\":4583:4601   */\n      add\n        /* \"#utility.yul\":4575:4601   */\n      swap1\n      pop\n        /* \"#utility.yul\":4611:4682   */\n      tag_124\n        /* \"#utility.yul\":4679:4680   */\n      0x00\n        /* \"#utility.yul\":4668:4677   */\n      dup4\n        /* \"#utility.yul\":4664:4681   */\n      add\n        /* \"#utility.yul\":4655:4661   */\n      dup5\n        /* \"#utility.yul\":4611:4682   */\n      tag_58\n      jump\t// in\n    tag_124:\n        /* \"#utility.yul\":4467:4689   */\n      swap3\n      swap2\n      pop\n      pop\n      jump\t// out\n        /* \"#utility.yul\":4695:4812   */\n    tag_66:\n        /* \"#utility.yul\":4804:4805   */\n      0x00\n        /* \"#utility.yul\":4801:4802   */\n      dup1\n        /* \"#utility.yul\":4794:4806   */\n      revert\n        /* \"#utility.yul\":4818:4920   */\n    tag_67:\n        /* \"#utility.yul\":4859:4865   */\n      0x00\n        /* \"#utility.yul\":4910:4912   */\n      0x1f\n        /* \"#utility.yul\":4906:4913   */\n      not\n        /* \"#utility.yul\":4901:4903   */\n      0x1f\n        /* \"#utility.yul\":4894:4899   */\n      dup4\n        /* \"#utility.yul\":4890:4904   */\n      add\n        /* \"#utility.yul\":4886:4914   */\n      and\n        /* \"#utility.yul\":4876:4914   */\n      swap1\n      pop\n        /* \"#utility.yul\":4818:4920   */\n      swap2\n      swap1\n      pop\n      jump\t// out\n        /* \"#utility.yul\":4926:5106   */\n    tag_68:\n        /* \"#utility.yul\":4974:5051   */\n      0x4e487b7100000000000000000000000000000000000000000000000000000000\n        /* \"#utility.yul\":4971:4972   */\n      0x00\n        /* \"#utility.yul\":4964:5052   */\n      mstore\n        /* \"#utility.yul\":5071:5075   */\n      0x41\n        /* \"#utility.yul\":5068:5069   */\n      0x04\n        /* \"#utility.yul\":5061:5076   */\n      mstore\n        /* \"#utility.yul\":5095:5099   */\n      0x24\n        /* \"#utility.yul\":5092:5093   */\n      0x00\n        /* \"#utility.yul\":5085:5100   */\n      revert\n        /* \"#utility.yul\":5112:5393   */\n    tag_69:\n        /* \"#utility.yul\":5195:5222   */\n      tag_129\n        /* \"#utility.yul\":5217:5221   */\n      dup3\n        /* \"#utility.yul\":5195:5222   */\n      tag_67\n      jump\t// in\n    tag_129:\n        /* \"#utility.yul\":5187:5193   */\n      dup2\n        /* \"#utility.yul\":5183:5223   */\n      add\n        /* \"#utility.yul\":5325:5331   */\n      dup2\n        /* \"#utility.yul\":5313:5323   */\n      dup2\n        /* \"#utility.yul\":5310:5332   */\n      lt\n        /* \"#utility.yul\":5289:5307   */\n      0xffffffffffffffff\n        /* \"#utility.yul\":5277:5287   */\n      dup3\n        /* \"#utility.yul\":5274:5308   */\n      gt\n        /* \"#utility.yul\":5271:5333   */\n      or\n        /* \"#utility.yul\":5268:5356   */\n      iszero\n      tag_130\n      jumpi\n        /* \"#utility.yul\":5336:5354   */\n      tag_131\n      tag_68\n      jump\t// in\n    tag_131:\n        /* \"#utility.yul\":5268:5356   */\n    tag_130:\n        /* \"#utility.yul\":5376:5386   */\n      dup1\n        /* \"#utility.yul\":5372:5374   */\n      0x40\n        /* \"#utility.yul\":5365:5387   */\n      mstore\n        /* \"#utility.yul\":5155:5393   */\n      pop\n        /* \"#utility.yul\":5112:5393   */\n      pop\n      pop\n      jump\t// out\n        /* \"#utility.yul\":5399:5528   */\n    tag_70:\n        /* \"#utility.yul\":5433:5439   */\n      0x00\n        /* \"#utility.yul\":5460:5480   */\n      tag_133\n      tag_61\n      jump\t// in\n    tag_133:\n        /* \"#utility.yul\":5450:5480   */\n      swap1\n      pop\n        /* \"#utility.yul\":5489:5522   */\n      tag_134\n        /* \"#utility.yul\":5517:5521   */\n      dup3\n        /* \"#utility.yul\":5509:5515   */\n      dup3\n        /* \"#utility.yul\":5489:5522   */\n      tag_69\n      jump\t// in\n    tag_134:\n        /* \"#utility.yul\":5399:5528   */\n      swap2\n      swap1\n      pop\n      jump\t// out\n        /* \"#utility.yul\":5534:5845   */\n    tag_71:\n        /* \"#utility.yul\":5611:5615   */\n      0x00\n        /* \"#utility.yul\":5701:5719   */\n      0xffffffffffffffff\n        /* \"#utility.yul\":5693:5699   */\n      dup3\n        /* \"#utility.yul\":5690:5720   */\n      gt\n        /* \"#utility.yul\":5687:5743   */\n      iszero\n      tag_136\n      jumpi\n        /* \"#utility.yul\":5723:5741   */\n      tag_137\n      tag_68\n      jump\t// in\n    tag_137:\n        /* \"#utility.yul\":5687:5743   */\n    tag_136:\n        /* \"#utility.yul\":5773:5777   */\n      0x20\n        /* \"#utility.yul\":5765:5771   */\n      dup3\n        /* \"#utility.yul\":5761:5778   */\n      mul\n        /* \"#utility.yul\":5753:5778   */\n      swap1\n      pop\n        /* \"#utility.yul\":5833:5837   */\n      0x20\n        /* \"#utility.yul\":5827:5831   */\n      dup2\n        /* \"#utility.yul\":5823:5838   */\n      add\n        /* \"#utility.yul\":5815:5838   */\n      swap1\n      pop\n        /* \"#utility.yul\":5534:5845   */\n      swap2\n      swap1\n      pop\n      jump\t// out\n        /* \"#utility.yul\":5851:5968   */\n    tag_72:\n        /* \"#utility.yul\":5960:5961   */\n      0x00\n        /* \"#utility.yul\":5957:5958   */\n      dup1\n        /* \"#utility.yul\":5950:5962   */\n      revert\n        /* \"#utility.yul\":5991:6701   */\n    tag_73:\n        /* \"#utility.yul\":6087:6092   */\n      0x00\n        /* \"#utility.yul\":6112:6193   */\n      tag_140\n        /* \"#utility.yul\":6128:6192   */\n      tag_141\n        /* \"#utility.yul\":6185:6191   */\n      dup5\n        /* \"#utility.yul\":6128:6192   */\n      tag_71\n      jump\t// in\n    tag_141:\n        /* \"#utility.yul\":6112:6193   */\n      tag_70\n      jump\t// in\n    tag_140:\n        /* \"#utility.yul\":6103:6193   */\n      swap1\n      pop\n        /* \"#utility.yul\":6213:6218   */\n      dup1\n        /* \"#utility.yul\":6242:6248   */\n      dup4\n        /* \"#utility.yul\":6235:6240   */\n      dup3\n        /* \"#utility.yul\":6228:6249   */\n      mstore\n        /* \"#utility.yul\":6276:6280   */\n      0x20\n        /* \"#utility.yul\":6269:6274   */\n      dup3\n        /* \"#utility.yul\":6265:6281   */\n      add\n        /* \"#utility.yul\":6258:6281   */\n      swap1\n      pop\n        /* \"#utility.yul\":6329:6333   */\n      0x20\n        /* \"#utility.yul\":6321:6327   */\n      dup5\n        /* \"#utility.yul\":6317:6334   */\n      mul\n        /* \"#utility.yul\":6309:6315   */\n      dup4\n        /* \"#utility.yul\":6305:6335   */\n      add\n        /* \"#utility.yul\":6358:6361   */\n      dup6\n        /* \"#utility.yul\":6350:6356   */\n      dup2\n        /* \"#utility.yul\":6347:6362   */\n      gt\n        /* \"#utility.yul\":6344:6466   */\n      iszero\n      tag_142\n      jumpi\n        /* \"#utility.yul\":6377:6456   */\n      tag_143\n      tag_72\n      jump\t// in\n    tag_143:\n        /* \"#utility.yul\":6344:6466   */\n    tag_142:\n        /* \"#utility.yul\":6492:6498   */\n      dup4\n        /* \"#utility.yul\":6475:6695   */\n    tag_144:\n        /* \"#utility.yul\":6509:6515   */\n      dup2\n        /* \"#utility.yul\":6504:6507   */\n      dup2\n        /* \"#utility.yul\":6501:6516   */\n      lt\n        /* \"#utility.yul\":6475:6695   */\n      iszero\n      tag_146\n      jumpi\n        /* \"#utility.yul\":6584:6587   */\n      dup1\n        /* \"#utility.yul\":6613:6650   */\n      tag_147\n        /* \"#utility.yul\":6646:6649   */\n      dup9\n        /* \"#utility.yul\":6634:6644   */\n      dup3\n        /* \"#utility.yul\":6613:6650   */\n      tag_65\n      jump\t// in\n    tag_147:\n        /* \"#utility.yul\":6608:6611   */\n      dup5\n        /* \"#utility.yul\":6601:6651   */\n      mstore\n        /* \"#utility.yul\":6680:6684   */\n      0x20\n        /* \"#utility.yul\":6675:6678   */\n      dup5\n        /* \"#utility.yul\":6671:6685   */\n      add\n        /* \"#utility.yul\":6664:6685   */\n      swap4\n      pop\n        /* \"#utility.yul\":6551:6695   */\n      pop\n        /* \"#utility.yul\":6535:6539   */\n      0x20\n        /* \"#utility.yul\":6530:6533   */\n      dup2\n        /* \"#utility.yul\":6526:6540   */\n      add\n        /* \"#utility.yul\":6519:6540   */\n      swap1\n      pop\n        /* \"#utility.yul\":6475:6695   */\n      jump(tag_144)\n    tag_146:\n        /* \"#utility.yul\":6479:6500   */\n      pop\n        /* \"#utility.yul\":6093:6701   */\n      pop\n      pop\n        /* \"#utility.yul\":5991:6701   */\n      swap4\n      swap3\n      pop\n      pop\n      pop\n      jump\t// out\n        /* \"#utility.yul\":6724:7094   */\n    tag_74:\n        /* \"#utility.yul\":6795:6800   */\n      0x00\n        /* \"#utility.yul\":6844:6847   */\n      dup3\n        /* \"#utility.yul\":6837:6841   */\n      0x1f\n        /* \"#utility.yul\":6829:6835   */\n      dup4\n        /* \"#utility.yul\":6825:6842   */\n      add\n        /* \"#utility.yul\":6821:6848   */\n      slt\n        /* \"#utility.yul\":6811:6933   */\n      tag_149\n      jumpi\n        /* \"#utility.yul\":6852:6931   */\n      tag_150\n      tag_66\n      jump\t// in\n    tag_150:\n        /* \"#utility.yul\":6811:6933   */\n    tag_149:\n        /* \"#utility.yul\":6969:6975   */\n      dup2\n        /* \"#utility.yul\":6956:6976   */\n      calldataload\n        /* \"#utility.yul\":6994:7088   */\n      tag_151\n        /* \"#utility.yul\":7084:7087   */\n      dup5\n        /* \"#utility.yul\":7076:7082   */\n      dup3\n        /* \"#utility.yul\":7069:7073   */\n      0x20\n        /* \"#utility.yul\":7061:7067   */\n      dup7\n        /* \"#utility.yul\":7057:7074   */\n      add\n        /* \"#utility.yul\":6994:7088   */\n      tag_73\n      jump\t// in\n    tag_151:\n        /* \"#utility.yul\":6985:7088   */\n      swap2\n      pop\n        /* \"#utility.yul\":6801:7094   */\n      pop\n        /* \"#utility.yul\":6724:7094   */\n      swap3\n      swap2\n      pop\n      pop\n      jump\t// out\n        /* \"#utility.yul\":7100:7639   */\n    tag_37:\n        /* \"#utility.yul\":7184:7190   */\n      0x00\n        /* \"#utility.yul\":7233:7235   */\n      0x20\n        /* \"#utility.yul\":7221:7230   */\n      dup3\n        /* \"#utility.yul\":7212:7219   */\n      dup5\n        /* \"#utility.yul\":7208:7231   */\n      sub\n        /* \"#utility.yul\":7204:7236   */\n      slt\n        /* \"#utility.yul\":7201:7320   */\n      iszero\n      tag_153\n      jumpi\n        /* \"#utility.yul\":7239:7318   */\n      tag_154\n      tag_62\n      jump\t// in\n    tag_154:\n        /* \"#utility.yul\":7201:7320   */\n    tag_153:\n        /* \"#utility.yul\":7387:7388   */\n      0x00\n        /* \"#utility.yul\":7376:7385   */\n      dup3\n        /* \"#utility.yul\":7372:7389   */\n      add\n        /* \"#utility.yul\":7359:7390   */\n      calldataload\n        /* \"#utility.yul\":7417:7435   */\n      0xffffffffffffffff\n        /* \"#utility.yul\":7409:7415   */\n      dup2\n        /* \"#utility.yul\":7406:7436   */\n      gt\n        /* \"#utility.yul\":7403:7520   */\n      iszero\n      tag_155\n      jumpi\n        /* \"#utility.yul\":7439:7518   */\n      tag_156\n      tag_63\n      jump\t// in\n    tag_156:\n        /* \"#utility.yul\":7403:7520   */\n    tag_155:\n        /* \"#utility.yul\":7544:7622   */\n      tag_157\n        /* \"#utility.yul\":7614:7621   */\n      dup5\n        /* \"#utility.yul\":7605:7611   */\n      dup3\n        /* \"#utility.yul\":7594:7603   */\n      dup6\n        /* \"#utility.yul\":7590:7612   */\n      add\n        /* \"#utility.yul\":7544:7622   */\n      tag_74\n      jump\t// in\n    tag_157:\n        /* \"#utility.yul\":7534:7622   */\n      swap2\n      pop\n        /* \"#utility.yul\":7330:7632   */\n      pop\n        /* \"#utility.yul\":7100:7639   */\n      swap3\n      swap2\n      pop\n      pop\n      jump\t// out\n\n    auxdata: 0xa2646970667358221220aa7cb6b6c08bb57c7b13f8d9bad57d73969fdae54045a4773e1900c0e484c54964736f6c63430008110033\n}\n",
				"bytecode": {
					"linkReferences": {},
					"object": "608060405234801561001057600080fd5b5061066e806100206000396000f3fe608060405234801561001057600080fd5b506004361061007d5760003560e01c806371e5ee5f1161005b57806371e5ee5f146100e25780638688754414610112578063adb4d99014610132578063f4bb6e6b146101525761007d565b80631990532b1461008257806345f907a8146100a057806368873440146100c0575b600080fd5b61008a61016e565b6040516100979190610338565b60405180910390f35b6100a86101c6565b6040516100b793929190610384565b60405180910390f35b6100c86101db565b6040516100d99594939291906103bb565b60405180910390f35b6100fc60048036038101906100f7919061044e565b61021e565b604051610109919061047b565b60405180910390f35b61011a610242565b60405161012993929190610384565b60405180910390f35b61013a610257565b60405161014993929190610384565b60405180910390f35b61016c600480360381019061016791906105ef565b61026d565b005b606060008054806020026020016040519081016040528092919081815260200182805480156101bc57602002820191906000526020600020905b8154815260200190600101908083116101a8575b5050505050905090565b60008060006001806002925092509250909192565b6000806000806000806000806101ef610242565b925092509250600080600460056006925050915084848484849950995099509950995050505050509091929394565b6000818154811061022e57600080fd5b906000526020600020016000915090505481565b60008060006001806002925092509250909192565b6000806000600192506001915060029050909192565b50565b600081519050919050565b600082825260208201905092915050565b6000819050602082019050919050565b6000819050919050565b6102af8161029c565b82525050565b60006102c183836102a6565b60208301905092915050565b6000602082019050919050565b60006102e582610270565b6102ef818561027b565b93506102fa8361028c565b8060005b8381101561032b57815161031288826102b5565b975061031d836102cd565b9250506001810190506102fe565b5085935050505092915050565b6000602082019050818103600083015261035281846102da565b905092915050565b6103638161029c565b82525050565b60008115159050919050565b61037e81610369565b82525050565b6000606082019050610399600083018661035a565b6103a66020830185610375565b6103b3604083018461035a565b949350505050565b600060a0820190506103d0600083018861035a565b6103dd6020830187610375565b6103ea604083018661035a565b6103f7606083018561035a565b610404608083018461035a565b9695505050505050565b6000604051905090565b600080fd5b600080fd5b61042b8161029c565b811461043657600080fd5b50565b60008135905061044881610422565b92915050565b60006020828403121561046457610463610418565b5b600061047284828501610439565b91505092915050565b6000602082019050610490600083018461035a565b92915050565b600080fd5b6000601f19601f8301169050919050565b7f4e487b7100000000000000000000000000000000000000000000000000000000600052604160045260246000fd5b6104e48261049b565b810181811067ffffffffffffffff82111715610503576105026104ac565b5b80604052505050565b600061051661040e565b905061052282826104db565b919050565b600067ffffffffffffffff821115610542576105416104ac565b5b602082029050602081019050919050565b600080fd5b600061056b61056684610527565b61050c565b9050808382526020820190506020840283018581111561058e5761058d610553565b5b835b818110156105b757806105a38882610439565b845260208401935050602081019050610590565b5050509392505050565b600082601f8301126105d6576105d5610496565b5b81356105e6848260208601610558565b91505092915050565b60006020828403121561060557610604610418565b5b600082013567ffffffffffffffff8111156106235761062261041d565b5b61062f848285016105c1565b9150509291505056fea2646970667358221220aa7cb6b6c08bb57c7b13f8d9bad57d73969fdae54045a4773e1900c0e484c54964736f6c63430008110033",
					"opcodes": "PUSH1 0x80 PUSH1 0x40 MSTORE CALLVALUE DUP1 ISZERO PUSH2 0x10 JUMPI PUSH1 0x0 DUP1 REVERT JUMPDEST POP PUSH2 0x66E DUP1 PUSH2 0x20 PUSH1 0x0 CODECOPY PUSH1 0x0 RETURN INVALID PUSH1 0x80 PUSH1 0x40 MSTORE CALLVALUE DUP1 ISZERO PUSH2 0x10 JUMPI PUSH1 0x0 DUP1 REVERT JUMPDEST POP PUSH1 0x4 CALLDATASIZE LT PUSH2 0x7D JUMPI PUSH1 0x0 CALLDATALOAD PUSH1 0xE0 SHR DUP1 PUSH4 0x71E5EE5F GT PUSH2 0x5B JUMPI DUP1 PUSH4 0x71E5EE5F EQ PUSH2 0xE2 JUMPI DUP1 PUSH4 0x86887544 EQ PUSH2 0x112 JUMPI DUP1 PUSH4 0xADB4D990 EQ PUSH2 0x132 JUMPI DUP1 PUSH4 0xF4BB6E6B EQ PUSH2 0x152 JUMPI PUSH2 0x7D JUMP JUMPDEST DUP1 PUSH4 0x1990532B EQ PUSH2 0x82 JUMPI DUP1 PUSH4 0x45F907A8 EQ PUSH2 0xA0 JUMPI DUP1 PUSH4 0x68873440 EQ PUSH2 0xC0 JUMPI JUMPDEST PUSH1 0x0 DUP1 REVERT JUMPDEST PUSH2 0x8A PUSH2 0x16E JUMP JUMPDEST PUSH1 0x40 MLOAD PUSH2 0x97 SWAP2 SWAP1 PUSH2 0x338 JUMP JUMPDEST PUSH1 0x40 MLOAD DUP1 SWAP2 SUB SWAP1 RETURN JUMPDEST PUSH2 0xA8 PUSH2 0x1C6 JUMP JUMPDEST PUSH1 0x40 MLOAD PUSH2 0xB7 SWAP4 SWAP3 SWAP2 SWAP1 PUSH2 0x384 JUMP JUMPDEST PUSH1 0x40 MLOAD DUP1 SWAP2 SUB SWAP1 RETURN JUMPDEST PUSH2 0xC8 PUSH2 0x1DB JUMP JUMPDEST PUSH1 0x40 MLOAD PUSH2 0xD9 SWAP6 SWAP5 SWAP4 SWAP3 SWAP2 SWAP1 PUSH2 0x3BB JUMP JUMPDEST PUSH1 0x40 MLOAD DUP1 SWAP2 SUB SWAP1 RETURN JUMPDEST PUSH2 0xFC PUSH1 0x4 DUP1 CALLDATASIZE SUB DUP2 ADD SWAP1 PUSH2 0xF7 SWAP2 SWAP1 PUSH2 0x44E JUMP JUMPDEST PUSH2 0x21E JUMP JUMPDEST PUSH1 0x40 MLOAD PUSH2 0x109 SWAP2 SWAP1 PUSH2 0x47B JUMP JUMPDEST PUSH1 0x40 MLOAD DUP1 SWAP2 SUB SWAP1 RETURN JUMPDEST PUSH2 0x11A PUSH2 0x242 JUMP JUMPDEST PUSH1 0x40 MLOAD PUSH2 0x129 SWAP4 SWAP3 SWAP2 SWAP1 PUSH2 0x384 JUMP JUMPDEST PUSH1 0x40 MLOAD DUP1 SWAP2 SUB SWAP1 RETURN JUMPDEST PUSH2 0x13A PUSH2 0x257 JUMP JUMPDEST PUSH1 0x40 MLOAD PUSH2 0x149 SWAP4 SWAP3 SWAP2 SWAP1 PUSH2 0x384 JUMP JUMPDEST PUSH1 0x40 MLOAD DUP1 SWAP2 SUB SWAP1 RETURN JUMPDEST PUSH2 0x16C PUSH1 0x4 DUP1 CALLDATASIZE SUB DUP2 ADD SWAP1 PUSH2 0x167 SWAP2 SWAP1 PUSH2 0x5EF JUMP JUMPDEST PUSH2 0x26D JUMP JUMPDEST STOP JUMPDEST PUSH1 0x60 PUSH1 0x0 DUP1 SLOAD DUP1 PUSH1 0x20 MUL PUSH1 0x20 ADD PUSH1 0x40 MLOAD SWAP1 DUP2 ADD PUSH1 0x40 MSTORE DUP1 SWAP3 SWAP2 SWAP1 DUP2 DUP2 MSTORE PUSH1 0x20 ADD DUP3 DUP1 SLOAD DUP1 ISZERO PUSH2 0x1BC JUMPI PUSH1 0x20 MUL DUP3 ADD SWAP2 SWAP1 PUSH1 0x0 MSTORE PUSH1 0x20 PUSH1 0x0 KECCAK256 SWAP1 JUMPDEST DUP2 SLOAD DUP2 MSTORE PUSH1 0x20 ADD SWAP1 PUSH1 0x1 ADD SWAP1 DUP1 DUP4 GT PUSH2 0x1A8 JUMPI JUMPDEST POP POP POP POP POP SWAP1 POP SWAP1 JUMP JUMPDEST PUSH1 0x0 DUP1 PUSH1 0x0 PUSH1 0x1 DUP1 PUSH1 0x2 SWAP3 POP SWAP3 POP SWAP3 POP SWAP1 SWAP2 SWAP3 JUMP JUMPDEST PUSH1 0x0 DUP1 PUSH1 0x0 DUP1 PUSH1 0x0 DUP1 PUSH1 0x0 DUP1 PUSH2 0x1EF PUSH2 0x242 JUMP JUMPDEST SWAP3 POP SWAP3 POP SWAP3 POP PUSH1 0x0 DUP1 PUSH1 0x4 PUSH1 0x5 PUSH1 0x6 SWAP3 POP POP SWAP2 POP DUP5 DUP5 DUP5 DUP5 DUP5 SWAP10 POP SWAP10 POP SWAP10 POP SWAP10 POP SWAP10 POP POP POP POP POP POP SWAP1 SWAP2 SWAP3 SWAP4 SWAP5 JUMP JUMPDEST PUSH1 0x0 DUP2 DUP2 SLOAD DUP2 LT PUSH2 0x22E JUMPI PUSH1 0x0 DUP1 REVERT JUMPDEST SWAP1 PUSH1 0x0 MSTORE PUSH1 0x20 PUSH1 0x0 KECCAK256 ADD PUSH1 0x0 SWAP2 POP SWAP1 POP SLOAD DUP2 JUMP JUMPDEST PUSH1 0x0 DUP1 PUSH1 0x0 PUSH1 0x1 DUP1 PUSH1 0x2 SWAP3 POP SWAP3 POP SWAP3 POP SWAP1 SWAP2 SWAP3 JUMP JUMPDEST PUSH1 0x0 DUP1 PUSH1 0x0 PUSH1 0x1 SWAP3 POP PUSH1 0x1 SWAP2 POP PUSH1 0x2 SWAP1 POP SWAP1 SWAP2 SWAP3 JUMP JUMPDEST POP JUMP JUMPDEST PUSH1 0x0 DUP2 MLOAD SWAP1 POP SWAP2 SWAP1 POP JUMP JUMPDEST PUSH1 0x0 DUP3 DUP3 MSTORE PUSH1 0x20 DUP3 ADD SWAP1 POP SWAP3 SWAP2 POP POP JUMP JUMPDEST PUSH1 0x0 DUP2 SWAP1 POP PUSH1 0x20 DUP3 ADD SWAP1 POP SWAP2 SWAP1 POP JUMP JUMPDEST PUSH1 0x0 DUP2 SWAP1 POP SWAP2 SWAP1 POP JUMP JUMPDEST PUSH2 0x2AF DUP2 PUSH2 0x29C JUMP JUMPDEST DUP3 MSTORE POP POP JUMP JUMPDEST PUSH1 0x0 PUSH2 0x2C1 DUP4 DUP4 PUSH2 0x2A6 JUMP JUMPDEST PUSH1 0x20 DUP4 ADD SWAP1 POP SWAP3 SWAP2 POP POP JUMP JUMPDEST PUSH1 0x0 PUSH1 0x20 DUP3 ADD SWAP1 POP SWAP2 SWAP1 POP JUMP JUMPDEST PUSH1 0x0 PUSH2 0x2E5 DUP3 PUSH2 0x270 JUMP JUMPDEST PUSH2 0x2EF DUP2 DUP6 PUSH2 0x27B JUMP JUMPDEST SWAP4 POP PUSH2 0x2FA DUP4 PUSH2 0x28C JUMP JUMPDEST DUP1 PUSH1 0x0 JUMPDEST DUP4 DUP2 LT ISZERO PUSH2 0x32B JUMPI DUP2 MLOAD PUSH2 0x312 DUP9 DUP3 PUSH2 0x2B5 JUMP JUMPDEST SWAP8 POP PUSH2 0x31D DUP4 PUSH2 0x2CD JUMP JUMPDEST SWAP3 POP POP PUSH1 0x1 DUP2 ADD SWAP1 POP PUSH2 0x2FE JUMP JUMPDEST POP DUP6 SWAP4 POP POP POP POP SWAP3 SWAP2 POP POP JUMP JUMPDEST PUSH1 0x0 PUSH1 0x20 DUP3 ADD SWAP1 POP DUP2 DUP2 SUB PUSH1 0x0 DUP4 ADD MSTORE PUSH2 0x352 DUP2 DUP5 PUSH2 0x2DA JUMP JUMPDEST SWAP1 POP SWAP3 SWAP2 POP POP JUMP JUMPDEST PUSH2 0x363 DUP2 PUSH2 0x29C JUMP JUMPDEST DUP3 MSTORE POP POP JUMP JUMPDEST PUSH1 0x0 DUP2 ISZERO ISZERO SWAP1 POP SWAP2 SWAP1 POP JUMP JUMPDEST PUSH2 0x37E DUP2 PUSH2 0x369 JUMP JUMPDEST DUP3 MSTORE POP POP JUMP JUMPDEST PUSH1 0x0 PUSH1 0x60 DUP3 ADD SWAP1 POP PUSH2 0x399 PUSH1 0x0 DUP4 ADD DUP7 PUSH2 0x35A JUMP JUMPDEST PUSH2 0x3A6 PUSH1 0x20 DUP4 ADD DUP6 PUSH2 0x375 JUMP JUMPDEST PUSH2 0x3B3 PUSH1 0x40 DUP4 ADD DUP5 PUSH2 0x35A JUMP JUMPDEST SWAP5 SWAP4 POP POP POP POP JUMP JUMPDEST PUSH1 0x0 PUSH1 0xA0 DUP3 ADD SWAP1 POP PUSH2 0x3D0 PUSH1 0x0 DUP4 ADD DUP9 PUSH2 0x35A JUMP JUMPDEST PUSH2 0x3DD PUSH1 0x20 DUP4 ADD DUP8 PUSH2 0x375 JUMP JUMPDEST PUSH2 0x3EA PUSH1 0x40 DUP4 ADD DUP7 PUSH2 0x35A JUMP JUMPDEST PUSH2 0x3F7 PUSH1 0x60 DUP4 ADD DUP6 PUSH2 0x35A JUMP JUMPDEST PUSH2 0x404 PUSH1 0x80 DUP4 ADD DUP5 PUSH2 0x35A JUMP JUMPDEST SWAP7 SWAP6 POP POP POP POP POP POP JUMP JUMPDEST PUSH1 0x0 PUSH1 0x40 MLOAD SWAP1 POP SWAP1 JUMP JUMPDEST PUSH1 0x0 DUP1 REVERT JUMPDEST PUSH1 0x0 DUP1 REVERT JUMPDEST PUSH2 0x42B DUP2 PUSH2 0x29C JUMP JUMPDEST DUP2 EQ PUSH2 0x436 JUMPI PUSH1 0x0 DUP1 REVERT JUMPDEST POP JUMP JUMPDEST PUSH1 0x0 DUP2 CALLDATALOAD SWAP1 POP PUSH2 0x448 DUP2 PUSH2 0x422 JUMP JUMPDEST SWAP3 SWAP2 POP POP JUMP JUMPDEST PUSH1 0x0 PUSH1 0x20 DUP3 DUP5 SUB SLT ISZERO PUSH2 0x464 JUMPI PUSH2 0x463 PUSH2 0x418 JUMP JUMPDEST JUMPDEST PUSH1 0x0 PUSH2 0x472 DUP5 DUP3 DUP6 ADD PUSH2 0x439 JUMP JUMPDEST SWAP2 POP POP SWAP3 SWAP2 POP POP JUMP JUMPDEST PUSH1 0x0 PUSH1 0x20 DUP3 ADD SWAP1 POP PUSH2 0x490 PUSH1 0x0 DUP4 ADD DUP5 PUSH2 0x35A JUMP JUMPDEST SWAP3 SWAP2 POP POP JUMP JUMPDEST PUSH1 0x0 DUP1 REVERT JUMPDEST PUSH1 0x0 PUSH1 0x1F NOT PUSH1 0x1F DUP4 ADD AND SWAP1 POP SWAP2 SWAP1 POP JUMP JUMPDEST PUSH32 0x4E487B7100000000000000000000000000000000000000000000000000000000 PUSH1 0x0 MSTORE PUSH1 0x41 PUSH1 0x4 MSTORE PUSH1 0x24 PUSH1 0x0 REVERT JUMPDEST PUSH2 0x4E4 DUP3 PUSH2 0x49B JUMP JUMPDEST DUP2 ADD DUP2 DUP2 LT PUSH8 0xFFFFFFFFFFFFFFFF DUP3 GT OR ISZERO PUSH2 0x503 JUMPI PUSH2 0x502 PUSH2 0x4AC JUMP JUMPDEST JUMPDEST DUP1 PUSH1 0x40 MSTORE POP POP POP JUMP JUMPDEST PUSH1 0x0 PUSH2 0x516 PUSH2 0x40E JUMP JUMPDEST SWAP1 POP PUSH2 0x522 DUP3 DUP3 PUSH2 0x4DB JUMP JUMPDEST SWAP2 SWAP1 POP JUMP JUMPDEST PUSH1 0x0 PUSH8 0xFFFFFFFFFFFFFFFF DUP3 GT ISZERO PUSH2 0x542 JUMPI PUSH2 0x541 PUSH2 0x4AC JUMP JUMPDEST JUMPDEST PUSH1 0x20 DUP3 MUL SWAP1 POP PUSH1 0x20 DUP2 ADD SWAP1 POP SWAP2 SWAP1 POP JUMP JUMPDEST PUSH1 0x0 DUP1 REVERT JUMPDEST PUSH1 0x0 PUSH2 0x56B PUSH2 0x566 DUP5 PUSH2 0x527 JUMP JUMPDEST PUSH2 0x50C JUMP JUMPDEST SWAP1 POP DUP1 DUP4 DUP3 MSTORE PUSH1 0x20 DUP3 ADD SWAP1 POP PUSH1 0x20 DUP5 MUL DUP4 ADD DUP6 DUP2 GT ISZERO PUSH2 0x58E JUMPI PUSH2 0x58D PUSH2 0x553 JUMP JUMPDEST JUMPDEST DUP4 JUMPDEST DUP2 DUP2 LT ISZERO PUSH2 0x5B7 JUMPI DUP1 PUSH2 0x5A3 DUP9 DUP3 PUSH2 0x439 JUMP JUMPDEST DUP5 MSTORE PUSH1 0x20 DUP5 ADD SWAP4 POP POP PUSH1 0x20 DUP2 ADD SWAP1 POP PUSH2 0x590 JUMP JUMPDEST POP POP POP SWAP4 SWAP3 POP POP POP JUMP JUMPDEST PUSH1 0x0 DUP3 PUSH1 0x1F DUP4 ADD SLT PUSH2 0x5D6 JUMPI PUSH2 0x5D5 PUSH2 0x496 JUMP JUMPDEST JUMPDEST DUP2 CALLDATALOAD PUSH2 0x5E6 DUP5 DUP3 PUSH1 0x20 DUP7 ADD PUSH2 0x558 JUMP JUMPDEST SWAP2 POP POP SWAP3 SWAP2 POP POP JUMP JUMPDEST PUSH1 0x0 PUSH1 0x20 DUP3 DUP5 SUB SLT ISZERO PUSH2 0x605 JUMPI PUSH2 0x604 PUSH2 0x418 JUMP JUMPDEST JUMPDEST PUSH1 0x0 DUP3 ADD CALLDATALOAD PUSH8 0xFFFFFFFFFFFFFFFF DUP2 GT ISZERO PUSH2 0x623 JUMPI PUSH2 0x622 PUSH2 0x41D JUMP JUMPDEST JUMPDEST PUSH2 0x62F DUP5 DUP3 DUP6 ADD PUSH2 0x5C1 JUMP JUMPDEST SWAP2 POP POP SWAP3 SWAP2 POP POP JUMP INVALID LOG2 PUSH5 0x6970667358 0x22 SLT KECCAK256 0xAA PUSH29 0xB6B6C08BB57C7B13F8D9BAD57D73969FDAE54045A4773E1900C0E484C5 0x49 PUSH5 0x736F6C6343 STOP ADDMOD GT STOP CALLER "
				},
				"gasEstimates": {
					"creation": {
						"codeDepositCost": "329200",
						"executionCost": "368",
						"totalCost": "329568"
					},
					"external": {
						"arr(uint256)": "infinite",
						"arrayInput(uint256[])": "infinite",
						"arrayOutput()": "infinite",
						"assigned()": "infinite",
						"destructuringAssignments()": "infinite",
						"named()": "infinite",
						"returnMany()": "infinite"
					}
				},
				"methodIdentifiers": {
					"arr(uint256)": "71e5ee5f",
					"arrayInput(uint256[])": "f4bb6e6b",
					"arrayOutput()": "1990532b",
					"assigned()": "adb4d990",
					"destructuringAssignments()": "68873440",
					"named()": "45f907a8",
					"returnMany()": "86887544"
				}
			},
			"storageLayout": {
				"storage": [
					{
						"astId": 102,
						"contract": "function/Function.sol:Function",
						"label": "arr",
						"offset": 0,
						"slot": "0",
						"type": "t_array(t_uint256)dyn_storage"
					}
				],
				"types": {
					"t_array(t_uint256)dyn_storage": {
						"base": "t_uint256",
						"encoding": "dynamic_array",
						"label": "uint256[]",
						"numberOfBytes": "32"
					},
					"t_uint256": {
						"encoding": "inplace",
						"label": "uint256",
						"numberOfBytes": "32"
					}
				}
			},
			"userdoc": {
				"kind": "user",
				"methods": {},
				"version": 1
			}
		}
	}
}