{
	"conditions/IfElse.sol": {
		"IfElse": {
			"abi": [
				{
					"inputs": [
						{
							"internalType": "uint256",
							"name": "x",
							"type": "uint256"
						}
					],
					"name": "foo",
					"outputs": [
						{
							"internalType": "uint256",
							"name": "",
							"type": "uint256"
						}
					],
					"stateMutability": "pure",
					"type": "function"
				},
				{
					"inputs": [
						{
							"internalType": "uint256",
							"name": "_x",
							"type": "uint256"
						}
					],
					"name": "ternary",
					"outputs": [
						{
							"internalType": "uint256",
							"name": "",
							"type": "uint256"
						}
					],
					"stateMutability": "pure",
					"type": "function"
				}
			],
			"devdoc": {
				"kind": "dev",
				"methods": {},
				"version": 1
			},
			"evm": {
				"assembly": "    /* \"conditions/IfElse.sol\":61:374  contract IfElse{... */\n  mstore(0x40, 0x80)\n  callvalue\n  dup1\n  iszero\n  tag_1\n  jumpi\n  0x00\n  dup1\n  revert\ntag_1:\n  pop\n  dataSize(sub_0)\n  dup1\n  dataOffset(sub_0)\n  0x00\n  codecopy\n  0x00\n  return\nstop\n\nsub_0: assembly {\n        /* \"conditions/IfElse.sol\":61:374  contract IfElse{... */\n      mstore(0x40, 0x80)\n      callvalue\n      dup1\n      iszero\n      tag_1\n      jumpi\n      0x00\n      dup1\n      revert\n    tag_1:\n      pop\n      jumpi(tag_2, lt(calldatasize, 0x04))\n      shr(0xe0, calldataload(0x00))\n      dup1\n      0x2fbebd38\n      eq\n      tag_3\n      jumpi\n      dup1\n      0x55278c5b\n      eq\n      tag_4\n      jumpi\n    tag_2:\n      0x00\n      dup1\n      revert\n        /* \"conditions/IfElse.sol\":83:277  function foo(uint x)public pure returns (uint){... */\n    tag_3:\n      tag_5\n      0x04\n      dup1\n      calldatasize\n      sub\n      dup2\n      add\n      swap1\n      tag_6\n      swap2\n      swap1\n      tag_7\n      jump\t// in\n    tag_6:\n      tag_8\n      jump\t// in\n    tag_5:\n      mload(0x40)\n      tag_9\n      swap2\n      swap1\n      tag_10\n      jump\t// in\n    tag_9:\n      mload(0x40)\n      dup1\n      swap2\n      sub\n      swap1\n      return\n        /* \"conditions/IfElse.sol\":285:371  function ternary(uint _x)public pure returns (uint){... */\n    tag_4:\n      tag_11\n      0x04\n      dup1\n      calldatasize\n      sub\n      dup2\n      add\n      swap1\n      tag_12\n      swap2\n      swap1\n      tag_7\n      jump\t// in\n    tag_12:\n      tag_13\n      jump\t// in\n    tag_11:\n      mload(0x40)\n      tag_14\n      swap2\n      swap1\n      tag_10\n      jump\t// in\n    tag_14:\n      mload(0x40)\n      dup1\n      swap2\n      sub\n      swap1\n      return\n        /* \"conditions/IfElse.sol\":83:277  function foo(uint x)public pure returns (uint){... */\n    tag_8:\n        /* \"conditions/IfElse.sol\":124:128  uint */\n      0x00\n        /* \"conditions/IfElse.sol\":145:147  10 */\n      0x0a\n        /* \"conditions/IfElse.sol\":143:144  x */\n      dup3\n        /* \"conditions/IfElse.sol\":143:147  x<10 */\n      lt\n        /* \"conditions/IfElse.sol\":140:270  if(x<10){... */\n      iszero\n      tag_16\n      jumpi\n        /* \"conditions/IfElse.sol\":170:171  0 */\n      0x00\n        /* \"conditions/IfElse.sol\":163:171  return 0 */\n      swap1\n      pop\n      jump(tag_15)\n        /* \"conditions/IfElse.sol\":140:270  if(x<10){... */\n    tag_16:\n        /* \"conditions/IfElse.sol\":193:195  10 */\n      0x0a\n        /* \"conditions/IfElse.sol\":191:192  x */\n      dup3\n        /* \"conditions/IfElse.sol\":191:195  x<10 */\n      lt\n        /* \"conditions/IfElse.sol\":188:270  if(x<10){... */\n      iszero\n      tag_18\n      jumpi\n        /* \"conditions/IfElse.sol\":218:219  1 */\n      0x01\n        /* \"conditions/IfElse.sol\":211:219  return 1 */\n      swap1\n      pop\n      jump(tag_15)\n        /* \"conditions/IfElse.sol\":188:270  if(x<10){... */\n    tag_18:\n        /* \"conditions/IfElse.sol\":257:258  2 */\n      0x02\n        /* \"conditions/IfElse.sol\":250:258  return 2 */\n      swap1\n      pop\n        /* \"conditions/IfElse.sol\":83:277  function foo(uint x)public pure returns (uint){... */\n    tag_15:\n      swap2\n      swap1\n      pop\n      jump\t// out\n        /* \"conditions/IfElse.sol\":285:371  function ternary(uint _x)public pure returns (uint){... */\n    tag_13:\n        /* \"conditions/IfElse.sol\":331:335  uint */\n      0x00\n        /* \"conditions/IfElse.sol\":357:359  10 */\n      0x0a\n        /* \"conditions/IfElse.sol\":354:356  _x */\n      dup3\n        /* \"conditions/IfElse.sol\":354:359  _x<10 */\n      lt\n        /* \"conditions/IfElse.sol\":354:363  _x<10?1:2 */\n      tag_21\n      jumpi\n        /* \"conditions/IfElse.sol\":362:363  2 */\n      0x02\n        /* \"conditions/IfElse.sol\":354:363  _x<10?1:2 */\n      jump(tag_22)\n    tag_21:\n        /* \"conditions/IfElse.sol\":360:361  1 */\n      0x01\n        /* \"conditions/IfElse.sol\":354:363  _x<10?1:2 */\n    tag_22:\n        /* \"conditions/IfElse.sol\":347:363  return _x<10?1:2 */\n      0xff\n      and\n      swap1\n      pop\n        /* \"conditions/IfElse.sol\":285:371  function ternary(uint _x)public pure returns (uint){... */\n      swap2\n      swap1\n      pop\n      jump\t// out\n        /* \"#utility.yul\":88:205   */\n    tag_24:\n        /* \"#utility.yul\":197:198   */\n      0x00\n        /* \"#utility.yul\":194:195   */\n      dup1\n        /* \"#utility.yul\":187:199   */\n      revert\n        /* \"#utility.yul\":334:411   */\n    tag_26:\n        /* \"#utility.yul\":371:378   */\n      0x00\n        /* \"#utility.yul\":400:405   */\n      dup2\n        /* \"#utility.yul\":389:405   */\n      swap1\n      pop\n        /* \"#utility.yul\":334:411   */\n      swap2\n      swap1\n      pop\n      jump\t// out\n        /* \"#utility.yul\":417:539   */\n    tag_27:\n        /* \"#utility.yul\":490:514   */\n      tag_36\n        /* \"#utility.yul\":508:513   */\n      dup2\n        /* \"#utility.yul\":490:514   */\n      tag_26\n      jump\t// in\n    tag_36:\n        /* \"#utility.yul\":483:488   */\n      dup2\n        /* \"#utility.yul\":480:515   */\n      eq\n        /* \"#utility.yul\":470:533   */\n      tag_37\n      jumpi\n        /* \"#utility.yul\":529:530   */\n      0x00\n        /* \"#utility.yul\":526:527   */\n      dup1\n        /* \"#utility.yul\":519:531   */\n      revert\n        /* \"#utility.yul\":470:533   */\n    tag_37:\n        /* \"#utility.yul\":417:539   */\n      pop\n      jump\t// out\n        /* \"#utility.yul\":545:684   */\n    tag_28:\n        /* \"#utility.yul\":591:596   */\n      0x00\n        /* \"#utility.yul\":629:635   */\n      dup2\n        /* \"#utility.yul\":616:636   */\n      calldataload\n        /* \"#utility.yul\":607:636   */\n      swap1\n      pop\n        /* \"#utility.yul\":645:678   */\n      tag_39\n        /* \"#utility.yul\":672:677   */\n      dup2\n        /* \"#utility.yul\":645:678   */\n      tag_27\n      jump\t// in\n    tag_39:\n        /* \"#utility.yul\":545:684   */\n      swap3\n      swap2\n      pop\n      pop\n      jump\t// out\n        /* \"#utility.yul\":690:1019   */\n    tag_7:\n        /* \"#utility.yul\":749:755   */\n      0x00\n        /* \"#utility.yul\":798:800   */\n      0x20\n        /* \"#utility.yul\":786:795   */\n      dup3\n        /* \"#utility.yul\":777:784   */\n      dup5\n        /* \"#utility.yul\":773:796   */\n      sub\n        /* \"#utility.yul\":769:801   */\n      slt\n        /* \"#utility.yul\":766:885   */\n      iszero\n      tag_41\n      jumpi\n        /* \"#utility.yul\":804:883   */\n      tag_42\n      tag_24\n      jump\t// in\n    tag_42:\n        /* \"#utility.yul\":766:885   */\n    tag_41:\n        /* \"#utility.yul\":924:925   */\n      0x00\n        /* \"#utility.yul\":949:1002   */\n      tag_43\n        /* \"#utility.yul\":994:1001   */\n      dup5\n        /* \"#utility.yul\":985:991   */\n      dup3\n        /* \"#utility.yul\":974:983   */\n      dup6\n        /* \"#utility.yul\":970:992   */\n      add\n        /* \"#utility.yul\":949:1002   */\n      tag_28\n      jump\t// in\n    tag_43:\n        /* \"#utility.yul\":939:1002   */\n      swap2\n      pop\n        /* \"#utility.yul\":895:1012   */\n      pop\n        /* \"#utility.yul\":690:1019   */\n      swap3\n      swap2\n      pop\n      pop\n      jump\t// out\n        /* \"#utility.yul\":1025:1143   */\n    tag_29:\n        /* \"#utility.yul\":1112:1136   */\n      tag_45\n        /* \"#utility.yul\":1130:1135   */\n      dup2\n        /* \"#utility.yul\":1112:1136   */\n      tag_26\n      jump\t// in\n    tag_45:\n        /* \"#utility.yul\":1107:1110   */\n      dup3\n        /* \"#utility.yul\":1100:1137   */\n      mstore\n        /* \"#utility.yul\":1025:1143   */\n      pop\n      pop\n      jump\t// out\n        /* \"#utility.yul\":1149:1371   */\n    tag_10:\n        /* \"#utility.yul\":1242:1246   */\n      0x00\n        /* \"#utility.yul\":1280:1282   */\n      0x20\n        /* \"#utility.yul\":1269:1278   */\n      dup3\n        /* \"#utility.yul\":1265:1283   */\n      add\n        /* \"#utility.yul\":1257:1283   */\n      swap1\n      pop\n        /* \"#utility.yul\":1293:1364   */\n      tag_47\n        /* \"#utility.yul\":1361:1362   */\n      0x00\n        /* \"#utility.yul\":1350:1359   */\n      dup4\n        /* \"#utility.yul\":1346:1363   */\n      add\n        /* \"#utility.yul\":1337:1343   */\n      dup5\n        /* \"#utility.yul\":1293:1364   */\n      tag_29\n      jump\t// in\n    tag_47:\n        /* \"#utility.yul\":1149:1371   */\n      swap3\n      swap2\n      pop\n      pop\n      jump\t// out\n\n    auxdata: 0xa2646970667358221220e7a63799ee51614134ac3409b8fd61f960cb6dad494709636c16eb5b05499ffb64736f6c63430008110033\n}\n",
				"bytecode": {
					"linkReferences": {},
					"object": "608060405234801561001057600080fd5b506101b1806100206000396000f3fe608060405234801561001057600080fd5b50600436106100365760003560e01c80632fbebd381461003b57806355278c5b1461006b575b600080fd5b61005560048036038101906100509190610124565b61009b565b6040516100629190610160565b60405180910390f35b61008560048036038101906100809190610124565b6100cb565b6040516100929190610160565b60405180910390f35b6000600a8210156100af57600090506100c6565b600a8210156100c157600190506100c6565b600290505b919050565b6000600a82106100dc5760026100df565b60015b60ff169050919050565b600080fd5b6000819050919050565b610101816100ee565b811461010c57600080fd5b50565b60008135905061011e816100f8565b92915050565b60006020828403121561013a576101396100e9565b5b60006101488482850161010f565b91505092915050565b61015a816100ee565b82525050565b60006020820190506101756000830184610151565b9291505056fea2646970667358221220e7a63799ee51614134ac3409b8fd61f960cb6dad494709636c16eb5b05499ffb64736f6c63430008110033",
					"opcodes": "PUSH1 0x80 PUSH1 0x40 MSTORE CALLVALUE DUP1 ISZERO PUSH2 0x10 JUMPI PUSH1 0x0 DUP1 REVERT JUMPDEST POP PUSH2 0x1B1 DUP1 PUSH2 0x20 PUSH1 0x0 CODECOPY PUSH1 0x0 RETURN INVALID PUSH1 0x80 PUSH1 0x40 MSTORE CALLVALUE DUP1 ISZERO PUSH2 0x10 JUMPI PUSH1 0x0 DUP1 REVERT JUMPDEST POP PUSH1 0x4 CALLDATASIZE LT PUSH2 0x36 JUMPI PUSH1 0x0 CALLDATALOAD PUSH1 0xE0 SHR DUP1 PUSH4 0x2FBEBD38 EQ PUSH2 0x3B JUMPI DUP1 PUSH4 0x55278C5B EQ PUSH2 0x6B JUMPI JUMPDEST PUSH1 0x0 DUP1 REVERT JUMPDEST PUSH2 0x55 PUSH1 0x4 DUP1 CALLDATASIZE SUB DUP2 ADD SWAP1 PUSH2 0x50 SWAP2 SWAP1 PUSH2 0x124 JUMP JUMPDEST PUSH2 0x9B JUMP JUMPDEST PUSH1 0x40 MLOAD PUSH2 0x62 SWAP2 SWAP1 PUSH2 0x160 JUMP JUMPDEST PUSH1 0x40 MLOAD DUP1 SWAP2 SUB SWAP1 RETURN JUMPDEST PUSH2 0x85 PUSH1 0x4 DUP1 CALLDATASIZE SUB DUP2 ADD SWAP1 PUSH2 0x80 SWAP2 SWAP1 PUSH2 0x124 JUMP JUMPDEST PUSH2 0xCB JUMP JUMPDEST PUSH1 0x40 MLOAD PUSH2 0x92 SWAP2 SWAP1 PUSH2 0x160 JUMP JUMPDEST PUSH1 0x40 MLOAD DUP1 SWAP2 SUB SWAP1 RETURN JUMPDEST PUSH1 0x0 PUSH1 0xA DUP3 LT ISZERO PUSH2 0xAF JUMPI PUSH1 0x0 SWAP1 POP PUSH2 0xC6 JUMP JUMPDEST PUSH1 0xA DUP3 LT ISZERO PUSH2 0xC1 JUMPI PUSH1 0x1 SWAP1 POP PUSH2 0xC6 JUMP JUMPDEST PUSH1 0x2 SWAP1 POP JUMPDEST SWAP2 SWAP1 POP JUMP JUMPDEST PUSH1 0x0 PUSH1 0xA DUP3 LT PUSH2 0xDC JUMPI PUSH1 0x2 PUSH2 0xDF JUMP JUMPDEST PUSH1 0x1 JUMPDEST PUSH1 0xFF AND SWAP1 POP SWAP2 SWAP1 POP JUMP JUMPDEST PUSH1 0x0 DUP1 REVERT JUMPDEST PUSH1 0x0 DUP2 SWAP1 POP SWAP2 SWAP1 POP JUMP JUMPDEST PUSH2 0x101 DUP2 PUSH2 0xEE JUMP JUMPDEST DUP2 EQ PUSH2 0x10C JUMPI PUSH1 0x0 DUP1 REVERT JUMPDEST POP JUMP JUMPDEST PUSH1 0x0 DUP2 CALLDATALOAD SWAP1 POP PUSH2 0x11E DUP2 PUSH2 0xF8 JUMP JUMPDEST SWAP3 SWAP2 POP POP JUMP JUMPDEST PUSH1 0x0 PUSH1 0x20 DUP3 DUP5 SUB SLT ISZERO PUSH2 0x13A JUMPI PUSH2 0x139 PUSH2 0xE9 JUMP JUMPDEST JUMPDEST PUSH1 0x0 PUSH2 0x148 DUP5 DUP3 DUP6 ADD PUSH2 0x10F JUMP JUMPDEST SWAP2 POP POP SWAP3 SWAP2 POP POP JUMP JUMPDEST PUSH2 0x15A DUP2 PUSH2 0xEE JUMP JUMPDEST DUP3 MSTORE POP POP JUMP JUMPDEST PUSH1 0x0 PUSH1 0x20 DUP3 ADD SWAP1 POP PUSH2 0x175 PUSH1 0x0 DUP4 ADD DUP5 PUSH2 0x151 JUMP JUMPDEST SWAP3 SWAP2 POP POP JUMP INVALID LOG2 PUSH5 0x6970667358 0x22 SLT KECCAK256 0xE7 0xA6 CALLDATACOPY SWAP10 0xEE MLOAD PUSH2 0x4134 0xAC CALLVALUE MULMOD 0xB8 REVERT PUSH2 0xF960 0xCB PUSH14 0xAD494709636C16EB5B05499FFB64 PUSH20 0x6F6C634300081100330000000000000000000000 "
				},
				"gasEstimates": {
					"creation": {
						"codeDepositCost": "86600",
						"executionCost": "135",
						"totalCost": "86735"
					},
					"external": {
						"foo(uint256)": "infinite",
						"ternary(uint256)": "infinite"
					}
				},
				"methodIdentifiers": {
					"foo(uint256)": "2fbebd38",
					"ternary(uint256)": "55278c5b"
				}
			},
			"storageLayout": {
				"storage": [],
				"types": null
			},
			"userdoc": {
				"kind": "user",
				"methods": {},
				"version": 1
			}
		}
	}
}