{
	"conditions/loop.sol": {
		"Loop": {
			"abi": [
				{
					"inputs": [],
					"name": "loop1",
					"outputs": [],
					"stateMutability": "nonpayable",
					"type": "function"
				}
			],
			"devdoc": {
				"kind": "dev",
				"methods": {},
				"version": 1
			},
			"evm": {
				"assembly": "    /* \"conditions/loop.sol\":61:354  contract Loop{... */\n  mstore(0x40, 0x80)\n  callvalue\n  dup1\n  iszero\n  tag_1\n  jumpi\n  0x00\n  dup1\n  revert\ntag_1:\n  pop\n  dataSize(sub_0)\n  dup1\n  dataOffset(sub_0)\n  0x00\n  codecopy\n  0x00\n  return\nstop\n\nsub_0: assembly {\n        /* \"conditions/loop.sol\":61:354  contract Loop{... */\n      mstore(0x40, 0x80)\n      callvalue\n      dup1\n      iszero\n      tag_1\n      jumpi\n      0x00\n      dup1\n      revert\n    tag_1:\n      pop\n      jumpi(tag_2, lt(calldatasize, 0x04))\n      shr(0xe0, calldataload(0x00))\n      dup1\n      0xf5fb1bf8\n      eq\n      tag_3\n      jumpi\n    tag_2:\n      0x00\n      dup1\n      revert\n        /* \"conditions/loop.sol\":81:351  function loop1() public{... */\n    tag_3:\n      tag_4\n      tag_5\n      jump\t// in\n    tag_4:\n      stop\n    tag_5:\n        /* \"conditions/loop.sol\":120:126  uint i */\n      0x00\n        /* \"conditions/loop.sol\":115:285  for (uint i =0; i<10 ; i++){... */\n    tag_7:\n        /* \"conditions/loop.sol\":133:135  10 */\n      0x0a\n        /* \"conditions/loop.sol\":131:132  i */\n      dup2\n        /* \"conditions/loop.sol\":131:135  i<10 */\n      lt\n        /* \"conditions/loop.sol\":115:285  for (uint i =0; i<10 ; i++){... */\n      iszero\n      tag_8\n      jumpi\n        /* \"conditions/loop.sol\":165:166  3 */\n      0x03\n        /* \"conditions/loop.sol\":160:161  i */\n      dup2\n        /* \"conditions/loop.sol\":160:166  i == 3 */\n      sub\n        /* \"conditions/loop.sol\":157:210  if(i == 3){... */\n      iszero\n        /* \"conditions/loop.sol\":186:194  continue */\n      tag_9\n        /* \"conditions/loop.sol\":157:210  if(i == 3){... */\n      jumpi\n        /* \"conditions/loop.sol\":231:232  5 */\n      0x05\n        /* \"conditions/loop.sol\":227:228  i */\n      dup2\n        /* \"conditions/loop.sol\":227:232  i ==5 */\n      sub\n        /* \"conditions/loop.sol\":224:274  if(i ==5 ){... */\n      iszero\n        /* \"conditions/loop.sol\":253:258  break */\n      tag_8\n        /* \"conditions/loop.sol\":224:274  if(i ==5 ){... */\n      jumpi\n        /* \"conditions/loop.sol\":115:285  for (uint i =0; i<10 ; i++){... */\n    tag_9:\n        /* \"conditions/loop.sol\":138:141  i++ */\n      dup1\n      dup1\n      tag_12\n      swap1\n      tag_13\n      jump\t// in\n    tag_12:\n      swap2\n      pop\n      pop\n        /* \"conditions/loop.sol\":115:285  for (uint i =0; i<10 ; i++){... */\n      jump(tag_7)\n    tag_8:\n      pop\n        /* \"conditions/loop.sol\":298:304  uint j */\n      0x00\n        /* \"conditions/loop.sol\":311:344  while(j<10){... */\n    tag_14:\n        /* \"conditions/loop.sol\":319:321  10 */\n      0x0a\n        /* \"conditions/loop.sol\":317:318  j */\n      dup2\n        /* \"conditions/loop.sol\":317:321  j<10 */\n      lt\n        /* \"conditions/loop.sol\":311:344  while(j<10){... */\n      iszero\n      tag_15\n      jumpi\n        /* \"conditions/loop.sol\":333:336  j++ */\n      dup1\n      dup1\n      tag_16\n      swap1\n      tag_13\n      jump\t// in\n    tag_16:\n      swap2\n      pop\n      pop\n        /* \"conditions/loop.sol\":311:344  while(j<10){... */\n      jump(tag_14)\n    tag_15:\n        /* \"conditions/loop.sol\":104:351  {... */\n      pop\n        /* \"conditions/loop.sol\":81:351  function loop1() public{... */\n      jump\t// out\n        /* \"#utility.yul\":7:187   */\n    tag_17:\n        /* \"#utility.yul\":55:132   */\n      0x4e487b7100000000000000000000000000000000000000000000000000000000\n        /* \"#utility.yul\":52:53   */\n      0x00\n        /* \"#utility.yul\":45:133   */\n      mstore\n        /* \"#utility.yul\":152:156   */\n      0x11\n        /* \"#utility.yul\":149:150   */\n      0x04\n        /* \"#utility.yul\":142:157   */\n      mstore\n        /* \"#utility.yul\":176:180   */\n      0x24\n        /* \"#utility.yul\":173:174   */\n      0x00\n        /* \"#utility.yul\":166:181   */\n      revert\n        /* \"#utility.yul\":193:270   */\n    tag_18:\n        /* \"#utility.yul\":230:237   */\n      0x00\n        /* \"#utility.yul\":259:264   */\n      dup2\n        /* \"#utility.yul\":248:264   */\n      swap1\n      pop\n        /* \"#utility.yul\":193:270   */\n      swap2\n      swap1\n      pop\n      jump\t// out\n        /* \"#utility.yul\":276:509   */\n    tag_13:\n        /* \"#utility.yul\":315:318   */\n      0x00\n        /* \"#utility.yul\":338:362   */\n      tag_23\n        /* \"#utility.yul\":356:361   */\n      dup3\n        /* \"#utility.yul\":338:362   */\n      tag_18\n      jump\t// in\n    tag_23:\n        /* \"#utility.yul\":329:362   */\n      swap2\n      pop\n        /* \"#utility.yul\":384:450   */\n      0xffffffffffffffffffffffffffffffffffffffffffffffffffffffffffffffff\n        /* \"#utility.yul\":377:382   */\n      dup3\n        /* \"#utility.yul\":374:451   */\n      sub\n        /* \"#utility.yul\":371:474   */\n      tag_24\n      jumpi\n        /* \"#utility.yul\":454:472   */\n      tag_25\n      tag_17\n      jump\t// in\n    tag_25:\n        /* \"#utility.yul\":371:474   */\n    tag_24:\n        /* \"#utility.yul\":501:502   */\n      0x01\n        /* \"#utility.yul\":494:499   */\n      dup3\n        /* \"#utility.yul\":490:503   */\n      add\n        /* \"#utility.yul\":483:503   */\n      swap1\n      pop\n        /* \"#utility.yul\":276:509   */\n      swap2\n      swap1\n      pop\n      jump\t// out\n\n    auxdata: 0xa2646970667358221220af88e93407089e5ee59e7c92d02bf020f741b28e1822fe5dde1b8560029f684164736f6c63430008110033\n}\n",
				"bytecode": {
					"linkReferences": {},
					"object": "608060405234801561001057600080fd5b50610132806100206000396000f3fe6080604052348015600f57600080fd5b506004361060285760003560e01c8063f5fb1bf814602d575b600080fd5b60336035565b005b60005b600a811015606157600381031560515760058103156061575b8080605a9060b9565b9150506038565b5060005b600a811015607d57808060769060b9565b9150506065565b50565b7f4e487b7100000000000000000000000000000000000000000000000000000000600052601160045260246000fd5b6000819050919050565b600060c28260af565b91507fffffffffffffffffffffffffffffffffffffffffffffffffffffffffffffffff820360f15760f06080565b5b60018201905091905056fea2646970667358221220af88e93407089e5ee59e7c92d02bf020f741b28e1822fe5dde1b8560029f684164736f6c63430008110033",
					"opcodes": "PUSH1 0x80 PUSH1 0x40 MSTORE CALLVALUE DUP1 ISZERO PUSH2 0x10 JUMPI PUSH1 0x0 DUP1 REVERT JUMPDEST POP PUSH2 0x132 DUP1 PUSH2 0x20 PUSH1 0x0 CODECOPY PUSH1 0x0 RETURN INVALID PUSH1 0x80 PUSH1 0x40 MSTORE CALLVALUE DUP1 ISZERO PUSH1 0xF JUMPI PUSH1 0x0 DUP1 REVERT JUMPDEST POP PUSH1 0x4 CALLDATASIZE LT PUSH1 0x28 JUMPI PUSH1 0x0 CALLDATALOAD PUSH1 0xE0 SHR DUP1 PUSH4 0xF5FB1BF8 EQ PUSH1 0x2D JUMPI JUMPDEST PUSH1 0x0 DUP1 REVERT JUMPDEST PUSH1 0x33 PUSH1 0x35 JUMP JUMPDEST STOP JUMPDEST PUSH1 0x0 JUMPDEST PUSH1 0xA DUP2 LT ISZERO PUSH1 0x61 JUMPI PUSH1 0x3 DUP2 SUB ISZERO PUSH1 0x51 JUMPI PUSH1 0x5 DUP2 SUB ISZERO PUSH1 0x61 JUMPI JUMPDEST DUP1 DUP1 PUSH1 0x5A SWAP1 PUSH1 0xB9 JUMP JUMPDEST SWAP2 POP POP PUSH1 0x38 JUMP JUMPDEST POP PUSH1 0x0 JUMPDEST PUSH1 0xA DUP2 LT ISZERO PUSH1 0x7D JUMPI DUP1 DUP1 PUSH1 0x76 SWAP1 PUSH1 0xB9 JUMP JUMPDEST SWAP2 POP POP PUSH1 0x65 JUMP JUMPDEST POP JUMP JUMPDEST PUSH32 0x4E487B7100000000000000000000000000000000000000000000000000000000 PUSH1 0x0 MSTORE PUSH1 0x11 PUSH1 0x4 MSTORE PUSH1 0x24 PUSH1 0x0 REVERT JUMPDEST PUSH1 0x0 DUP2 SWAP1 POP SWAP2 SWAP1 POP JUMP JUMPDEST PUSH1 0x0 PUSH1 0xC2 DUP3 PUSH1 0xAF JUMP JUMPDEST SWAP2 POP PUSH32 0xFFFFFFFFFFFFFFFFFFFFFFFFFFFFFFFFFFFFFFFFFFFFFFFFFFFFFFFFFFFFFFFF DUP3 SUB PUSH1 0xF1 JUMPI PUSH1 0xF0 PUSH1 0x80 JUMP JUMPDEST JUMPDEST PUSH1 0x1 DUP3 ADD SWAP1 POP SWAP2 SWAP1 POP JUMP INVALID LOG2 PUSH5 0x6970667358 0x22 SLT KECCAK256 0xAF DUP9 0xE9 CALLVALUE SMOD ADDMOD SWAP15 0x5E 0xE5 SWAP15 PUSH29 0x92D02BF020F741B28E1822FE5DDE1B8560029F684164736F6C63430008 GT STOP CALLER "
				},
				"gasEstimates": {
					"creation": {
						"codeDepositCost": "61200",
						"executionCost": "111",
						"totalCost": "61311"
					},
					"external": {
						"loop1()": "infinite"
					}
				},
				"methodIdentifiers": {
					"loop1()": "f5fb1bf8"
				}
			},
			"storageLayout": {
				"storage": [],
				"types": null
			},
			"userdoc": {
				"kind": "user",
				"methods": {},
				"version": 1
			}
		}
	}
}