{
	"day3/Struct_reference.sol": {
		"StructTypes": {
			"abi": [
				{
					"inputs": [],
					"name": "initStudent",
					"outputs": [],
					"stateMutability": "nonpayable",
					"type": "function"
				}
			],
			"devdoc": {
				"kind": "dev",
				"methods": {},
				"version": 1
			},
			"evm": {
				"assembly": "    /* \"day3/Struct_reference.sol\":63:432  contract StructTypes {... */\n  mstore(0x40, 0x80)\n  callvalue\n  dup1\n  iszero\n  tag_1\n  jumpi\n  0x00\n  dup1\n  revert\ntag_1:\n  pop\n  dataSize(sub_0)\n  dup1\n  dataOffset(sub_0)\n  0x00\n  codecopy\n  0x00\n  return\nstop\n\nsub_0: assembly {\n        /* \"day3/Struct_reference.sol\":63:432  contract StructTypes {... */\n      mstore(0x40, 0x80)\n      callvalue\n      dup1\n      iszero\n      tag_1\n      jumpi\n      0x00\n      dup1\n      revert\n    tag_1:\n      pop\n      jumpi(tag_2, lt(calldatasize, 0x04))\n      shr(0xe0, calldataload(0x00))\n      dup1\n      0xdd49702c\n      eq\n      tag_3\n      jumpi\n    tag_2:\n      0x00\n      dup1\n      revert\n        /* \"day3/Struct_reference.sol\":186:429  function initStudent() external{... */\n    tag_3:\n      tag_4\n      tag_5\n      jump\t// in\n    tag_4:\n      stop\n    tag_5:\n        /* \"day3/Struct_reference.sol\":241:244  100 */\n      0x64\n        /* \"day3/Struct_reference.sol\":228:235  student */\n      0x00\n        /* \"day3/Struct_reference.sol\":228:238  student.id */\n      dup1\n      add\n        /* \"day3/Struct_reference.sol\":228:244  student.id = 100 */\n      dup2\n      swap1\n      sstore\n      pop\n        /* \"day3/Struct_reference.sol\":271:274  200 */\n      0xc8\n        /* \"day3/Struct_reference.sol\":255:262  student */\n      0x00\n        /* \"day3/Struct_reference.sol\":255:268  student.score */\n      0x01\n      add\n        /* \"day3/Struct_reference.sol\":255:274  student.score = 200 */\n      dup2\n      swap1\n      sstore\n      pop\n        /* \"day3/Struct_reference.sol\":285:309  Student storage _student */\n      0x00\n        /* \"day3/Struct_reference.sol\":391:392  8 */\n      0x08\n        /* \"day3/Struct_reference.sol\":377:385  _student */\n      dup2\n        /* \"day3/Struct_reference.sol\":377:388  _student.id */\n      0x00\n      add\n        /* \"day3/Struct_reference.sol\":377:392  _student.id = 8 */\n      dup2\n      swap1\n      sstore\n      pop\n        /* \"day3/Struct_reference.sol\":420:421  9 */\n      0x09\n        /* \"day3/Struct_reference.sol\":403:411  _student */\n      dup2\n        /* \"day3/Struct_reference.sol\":403:417  _student.score */\n      0x01\n      add\n        /* \"day3/Struct_reference.sol\":403:421  _student.score = 9 */\n      dup2\n      swap1\n      sstore\n      pop\n        /* \"day3/Struct_reference.sol\":217:429  {... */\n      pop\n        /* \"day3/Struct_reference.sol\":186:429  function initStudent() external{... */\n      jump\t// out\n\n    auxdata: 0xa264697066735822122099df8d0aa5725bae22a7e3347f7fb15e7660a944e5d99419e6637156160f901664736f6c63430008110033\n}\n",
				"bytecode": {
					"linkReferences": {},
					"object": "6080604052348015600f57600080fd5b5060998061001e6000396000f3fe6080604052348015600f57600080fd5b506004361060285760003560e01c8063dd49702c14602d575b600080fd5b60336035565b005b6064600080018190555060c8600060010181905550600060088160000181905550600981600101819055505056fea264697066735822122099df8d0aa5725bae22a7e3347f7fb15e7660a944e5d99419e6637156160f901664736f6c63430008110033",
					"opcodes": "PUSH1 0x80 PUSH1 0x40 MSTORE CALLVALUE DUP1 ISZERO PUSH1 0xF JUMPI PUSH1 0x0 DUP1 REVERT JUMPDEST POP PUSH1 0x99 DUP1 PUSH2 0x1E PUSH1 0x0 CODECOPY PUSH1 0x0 RETURN INVALID PUSH1 0x80 PUSH1 0x40 MSTORE CALLVALUE DUP1 ISZERO PUSH1 0xF JUMPI PUSH1 0x0 DUP1 REVERT JUMPDEST POP PUSH1 0x4 CALLDATASIZE LT PUSH1 0x28 JUMPI PUSH1 0x0 CALLDATALOAD PUSH1 0xE0 SHR DUP1 PUSH4 0xDD49702C EQ PUSH1 0x2D JUMPI JUMPDEST PUSH1 0x0 DUP1 REVERT JUMPDEST PUSH1 0x33 PUSH1 0x35 JUMP JUMPDEST STOP JUMPDEST PUSH1 0x64 PUSH1 0x0 DUP1 ADD DUP2 SWAP1 SSTORE POP PUSH1 0xC8 PUSH1 0x0 PUSH1 0x1 ADD DUP2 SWAP1 SSTORE POP PUSH1 0x0 PUSH1 0x8 DUP2 PUSH1 0x0 ADD DUP2 SWAP1 SSTORE POP PUSH1 0x9 DUP2 PUSH1 0x1 ADD DUP2 SWAP1 SSTORE POP POP JUMP INVALID LOG2 PUSH5 0x6970667358 0x22 SLT KECCAK256 SWAP10 0xDF DUP14 EXP 0xA5 PUSH19 0x5BAE22A7E3347F7FB15E7660A944E5D99419E6 PUSH4 0x7156160F SWAP1 AND PUSH5 0x736F6C6343 STOP ADDMOD GT STOP CALLER "
				},
				"gasEstimates": {
					"creation": {
						"codeDepositCost": "30600",
						"executionCost": "81",
						"totalCost": "30681"
					},
					"external": {
						"initStudent()": "54407"
					}
				},
				"methodIdentifiers": {
					"initStudent()": "dd49702c"
				}
			},
			"storageLayout": {
				"storage": [
					{
						"astId": 9,
						"contract": "day3/Struct_reference.sol:StructTypes",
						"label": "student",
						"offset": 0,
						"slot": "0",
						"type": "t_struct(Student)6_storage"
					}
				],
				"types": {
					"t_struct(Student)6_storage": {
						"encoding": "inplace",
						"label": "struct StructTypes.Student",
						"members": [
							{
								"astId": 3,
								"contract": "day3/Struct_reference.sol:StructTypes",
								"label": "id",
								"offset": 0,
								"slot": "0",
								"type": "t_uint256"
							},
							{
								"astId": 5,
								"contract": "day3/Struct_reference.sol:StructTypes",
								"label": "score",
								"offset": 0,
								"slot": "1",
								"type": "t_uint256"
							}
						],
						"numberOfBytes": "64"
					},
					"t_uint256": {
						"encoding": "inplace",
						"label": "uint256",
						"numberOfBytes": "32"
					}
				}
			},
			"userdoc": {
				"kind": "user",
				"methods": {},
				"version": 1
			}
		}
	}
}