{
	"data": {
		"bytecode": {
			"linkReferences": {},
			"object": "608060405234801561001057600080fd5b506102a9806100206000396000f3fe608060405234801561001057600080fd5b506004361061004c5760003560e01c80633f201386146100515780639a5009ac1461006d5780639a9bdca71461009d578063da5e1cfd146100cd575b600080fd5b61006b600480360381019061006691906101ad565b6100e9565b005b610087600480360381019061008291906101ed565b610107565b6040516100949190610229565b60405180910390f35b6100b760048036038101906100b291906101ed565b610122565b6040516100c49190610229565b60405180910390f35b6100e760048036038101906100e291906101ed565b610146565b005b80600183600581106100fe576100fd610244565b5b01819055505050565b6001816005811061011757600080fd5b016000915090505481565b6000818154811061013257600080fd5b906000526020600020016000915090505481565b600081908060018154018082558091505060019003906000526020600020016000909190919091505550565b600080fd5b6000819050919050565b61018a81610177565b811461019557600080fd5b50565b6000813590506101a781610181565b92915050565b600080604083850312156101c4576101c3610172565b5b60006101d285828601610198565b92505060206101e385828601610198565b9150509250929050565b60006020828403121561020357610202610172565b5b600061021184828501610198565b91505092915050565b61022381610177565b82525050565b600060208201905061023e600083018461021a565b92915050565b7f4e487b7100000000000000000000000000000000000000000000000000000000600052603260045260246000fdfea2646970667358221220051a734bb7ef09ed96c19349bf90744670550da340cc5429889e886f29f2815164736f6c63430008110033",
			"opcodes": "PUSH1 0x80 PUSH1 0x40 MSTORE CALLVALUE DUP1 ISZERO PUSH2 0x10 JUMPI PUSH1 0x0 DUP1 REVERT JUMPDEST POP PUSH2 0x2A9 DUP1 PUSH2 0x20 PUSH1 0x0 CODECOPY PUSH1 0x0 RETURN INVALID PUSH1 0x80 PUSH1 0x40 MSTORE CALLVALUE DUP1 ISZERO PUSH2 0x10 JUMPI PUSH1 0x0 DUP1 REVERT JUMPDEST POP PUSH1 0x4 CALLDATASIZE LT PUSH2 0x4C JUMPI PUSH1 0x0 CALLDATALOAD PUSH1 0xE0 SHR DUP1 PUSH4 0x3F201386 EQ PUSH2 0x51 JUMPI DUP1 PUSH4 0x9A5009AC EQ PUSH2 0x6D JUMPI DUP1 PUSH4 0x9A9BDCA7 EQ PUSH2 0x9D JUMPI DUP1 PUSH4 0xDA5E1CFD EQ PUSH2 0xCD JUMPI JUMPDEST PUSH1 0x0 DUP1 REVERT JUMPDEST PUSH2 0x6B PUSH1 0x4 DUP1 CALLDATASIZE SUB DUP2 ADD SWAP1 PUSH2 0x66 SWAP2 SWAP1 PUSH2 0x1AD JUMP JUMPDEST PUSH2 0xE9 JUMP JUMPDEST STOP JUMPDEST PUSH2 0x87 PUSH1 0x4 DUP1 CALLDATASIZE SUB DUP2 ADD SWAP1 PUSH2 0x82 SWAP2 SWAP1 PUSH2 0x1ED JUMP JUMPDEST PUSH2 0x107 JUMP JUMPDEST PUSH1 0x40 MLOAD PUSH2 0x94 SWAP2 SWAP1 PUSH2 0x229 JUMP JUMPDEST PUSH1 0x40 MLOAD DUP1 SWAP2 SUB SWAP1 RETURN JUMPDEST PUSH2 0xB7 PUSH1 0x4 DUP1 CALLDATASIZE SUB DUP2 ADD SWAP1 PUSH2 0xB2 SWAP2 SWAP1 PUSH2 0x1ED JUMP JUMPDEST PUSH2 0x122 JUMP JUMPDEST PUSH1 0x40 MLOAD PUSH2 0xC4 SWAP2 SWAP1 PUSH2 0x229 JUMP JUMPDEST PUSH1 0x40 MLOAD DUP1 SWAP2 SUB SWAP1 RETURN JUMPDEST PUSH2 0xE7 PUSH1 0x4 DUP1 CALLDATASIZE SUB DUP2 ADD SWAP1 PUSH2 0xE2 SWAP2 SWAP1 PUSH2 0x1ED JUMP JUMPDEST PUSH2 0x146 JUMP JUMPDEST STOP JUMPDEST DUP1 PUSH1 0x1 DUP4 PUSH1 0x5 DUP2 LT PUSH2 0xFE JUMPI PUSH2 0xFD PUSH2 0x244 JUMP JUMPDEST JUMPDEST ADD DUP2 SWAP1 SSTORE POP POP POP JUMP JUMPDEST PUSH1 0x1 DUP2 PUSH1 0x5 DUP2 LT PUSH2 0x117 JUMPI PUSH1 0x0 DUP1 REVERT JUMPDEST ADD PUSH1 0x0 SWAP2 POP SWAP1 POP SLOAD DUP2 JUMP JUMPDEST PUSH1 0x0 DUP2 DUP2 SLOAD DUP2 LT PUSH2 0x132 JUMPI PUSH1 0x0 DUP1 REVERT JUMPDEST SWAP1 PUSH1 0x0 MSTORE PUSH1 0x20 PUSH1 0x0 KECCAK256 ADD PUSH1 0x0 SWAP2 POP SWAP1 POP SLOAD DUP2 JUMP JUMPDEST PUSH1 0x0 DUP2 SWAP1 DUP1 PUSH1 0x1 DUP2 SLOAD ADD DUP1 DUP3 SSTORE DUP1 SWAP2 POP POP PUSH1 0x1 SWAP1 SUB SWAP1 PUSH1 0x0 MSTORE PUSH1 0x20 PUSH1 0x0 KECCAK256 ADD PUSH1 0x0 SWAP1 SWAP2 SWAP1 SWAP2 SWAP1 SWAP2 POP SSTORE POP JUMP JUMPDEST PUSH1 0x0 DUP1 REVERT JUMPDEST PUSH1 0x0 DUP2 SWAP1 POP SWAP2 SWAP1 POP JUMP JUMPDEST PUSH2 0x18A DUP2 PUSH2 0x177 JUMP JUMPDEST DUP2 EQ PUSH2 0x195 JUMPI PUSH1 0x0 DUP1 REVERT JUMPDEST POP JUMP JUMPDEST PUSH1 0x0 DUP2 CALLDATALOAD SWAP1 POP PUSH2 0x1A7 DUP2 PUSH2 0x181 JUMP JUMPDEST SWAP3 SWAP2 POP POP JUMP JUMPDEST PUSH1 0x0 DUP1 PUSH1 0x40 DUP4 DUP6 SUB SLT ISZERO PUSH2 0x1C4 JUMPI PUSH2 0x1C3 PUSH2 0x172 JUMP JUMPDEST JUMPDEST PUSH1 0x0 PUSH2 0x1D2 DUP6 DUP3 DUP7 ADD PUSH2 0x198 JUMP JUMPDEST SWAP3 POP POP PUSH1 0x20 PUSH2 0x1E3 DUP6 DUP3 DUP7 ADD PUSH2 0x198 JUMP JUMPDEST SWAP2 POP POP SWAP3 POP SWAP3 SWAP1 POP JUMP JUMPDEST PUSH1 0x0 PUSH1 0x20 DUP3 DUP5 SUB SLT ISZERO PUSH2 0x203 JUMPI PUSH2 0x202 PUSH2 0x172 JUMP JUMPDEST JUMPDEST PUSH1 0x0 PUSH2 0x211 DUP5 DUP3 DUP6 ADD PUSH2 0x198 JUMP JUMPDEST SWAP2 POP POP SWAP3 SWAP2 POP POP JUMP JUMPDEST PUSH2 0x223 DUP2 PUSH2 0x177 JUMP JUMPDEST DUP3 MSTORE POP POP JUMP JUMPDEST PUSH1 0x0 PUSH1 0x20 DUP3 ADD SWAP1 POP PUSH2 0x23E PUSH1 0x0 DUP4 ADD DUP5 PUSH2 0x21A JUMP JUMPDEST SWAP3 SWAP2 POP POP JUMP JUMPDEST PUSH32 0x4E487B7100000000000000000000000000000000000000000000000000000000 PUSH1 0x0 MSTORE PUSH1 0x32 PUSH1 0x4 MSTORE PUSH1 0x24 PUSH1 0x0 REVERT INVALID LOG2 PUSH5 0x6970667358 0x22 SLT KECCAK256 SDIV BYTE PUSH20 0x4BB7EF09ED96C19349BF90744670550DA340CC54 0x29 DUP9 SWAP15 DUP9 PUSH16 0x29F2815164736F6C6343000811003300 "
		},
		"gasEstimates": {
			"creation": {
				"codeDepositCost": "136200",
				"executionCost": "183",
				"totalCost": "136383"
			},
			"external": {
				"addToDynamicArray(uint256)": "46873",
				"dynamicArray(uint256)": "infinite",
				"fixedArray(uint256)": "infinite",
				"setFixedArrayValue(uint256,uint256)": "infinite"
			}
		},
		"methodIdentifiers": {
			"addToDynamicArray(uint256)": "da5e1cfd",
			"dynamicArray(uint256)": "9a9bdca7",
			"fixedArray(uint256)": "9a5009ac",
			"setFixedArrayValue(uint256,uint256)": "3f201386"
		}
	},
	"abi": [
		{
			"inputs": [
				{
					"internalType": "uint256",
					"name": "value",
					"type": "uint256"
				}
			],
			"name": "addToDynamicArray",
			"outputs": [],
			"stateMutability": "nonpayable",
			"type": "function"
		},
		{
			"inputs": [
				{
					"internalType": "uint256",
					"name": "",
					"type": "uint256"
				}
			],
			"name": "dynamicArray",
			"outputs": [
				{
					"internalType": "uint256",
					"name": "",
					"type": "uint256"
				}
			],
			"stateMutability": "view",
			"type": "function"
		},
		{
			"inputs": [
				{
					"internalType": "uint256",
					"name": "",
					"type": "uint256"
				}
			],
			"name": "fixedArray",
			"outputs": [
				{
					"internalType": "uint256",
					"name": "",
					"type": "uint256"
				}
			],
			"stateMutability": "view",
			"type": "function"
		},
		{
			"inputs": [
				{
					"internalType": "uint256",
					"name": "index",
					"type": "uint256"
				},
				{
					"internalType": "uint256",
					"name": "value",
					"type": "uint256"
				}
			],
			"name": "setFixedArrayValue",
			"outputs": [],
			"stateMutability": "nonpayable",
			"type": "function"
		}
	]
}