{
	"data": {
		"bytecode": {
			"linkReferences": {},
			"object": "608060405234801561001057600080fd5b50610882806100206000396000f3fe608060405234801561001057600080fd5b506004361061004c5760003560e01c80633bc5de301461005157806354a771ec1461006f57806373d4a13a1461008b578063ab62f0e1146100a9575b600080fd5b6100596100c5565b604051610066919061032b565b60405180910390f35b610089600480360381019061008491906103b9565b610157565b005b6100936101fa565b6040516100a0919061032b565b60405180910390f35b6100c360048036038101906100be919061051b565b610288565b005b6060600080546100d490610593565b80601f016020809104026020016040519081016040528092919081815260200182805461010090610593565b801561014d5780601f106101225761010080835404028352916020019161014d565b820191906000526020600020905b81548152906001019060200180831161013057829003601f168201915b5050505050905090565b600081908080548061016890610593565b80601f81036101875783600052602060002060ff1984168155603f9350505b506002820183556001810192505050600190038154600116156101b95790600052602060002090602091828204019190065b909190919091601f036101000a81548160ff021916907f01000000000000000000000000000000000000000000000000000000000000008404021790555050565b6000805461020790610593565b80601f016020809104026020016040519081016040528092919081815260200182805461023390610593565b80156102805780601f1061025557610100808354040283529160200191610280565b820191906000526020600020905b81548152906001019060200180831161026357829003601f168201915b505050505081565b8060009081610297919061077a565b5050565b600081519050919050565b600082825260208201905092915050565b60005b838110156102d55780820151818401526020810190506102ba565b60008484015250505050565b6000601f19601f8301169050919050565b60006102fd8261029b565b61030781856102a6565b93506103178185602086016102b7565b610320816102e1565b840191505092915050565b6000602082019050818103600083015261034581846102f2565b905092915050565b6000604051905090565b600080fd5b600080fd5b60007fff0000000000000000000000000000000000000000000000000000000000000082169050919050565b61039681610361565b81146103a157600080fd5b50565b6000813590506103b38161038d565b92915050565b6000602082840312156103cf576103ce610357565b5b60006103dd848285016103a4565b91505092915050565b600080fd5b600080fd5b7f4e487b7100000000000000000000000000000000000000000000000000000000600052604160045260246000fd5b610428826102e1565b810181811067ffffffffffffffff82111715610447576104466103f0565b5b80604052505050565b600061045a61034d565b9050610466828261041f565b919050565b600067ffffffffffffffff821115610486576104856103f0565b5b61048f826102e1565b9050602081019050919050565b82818337600083830152505050565b60006104be6104b98461046b565b610450565b9050828152602081018484840111156104da576104d96103eb565b5b6104e584828561049c565b509392505050565b600082601f830112610502576105016103e6565b5b81356105128482602086016104ab565b91505092915050565b60006020828403121561053157610530610357565b5b600082013567ffffffffffffffff81111561054f5761054e61035c565b5b61055b848285016104ed565b91505092915050565b7f4e487b7100000000000000000000000000000000000000000000000000000000600052602260045260246000fd5b600060028204905060018216806105ab57607f821691505b6020821081036105be576105bd610564565b5b50919050565b60008190508160005260206000209050919050565b60006020601f8301049050919050565b600082821b905092915050565b6000600883026106267fffffffffffffffffffffffffffffffffffffffffffffffffffffffffffffffff826105e9565b61063086836105e9565b95508019841693508086168417925050509392505050565b6000819050919050565b6000819050919050565b600061067761067261066d84610648565b610652565b610648565b9050919050565b6000819050919050565b6106918361065c565b6106a561069d8261067e565b8484546105f6565b825550505050565b600090565b6106ba6106ad565b6106c5818484610688565b505050565b5b818110156106e9576106de6000826106b2565b6001810190506106cb565b5050565b601f82111561072e576106ff816105c4565b610708846105d9565b81016020851015610717578190505b61072b610723856105d9565b8301826106ca565b50505b505050565b600082821c905092915050565b600061075160001984600802610733565b1980831691505092915050565b600061076a8383610740565b9150826002028217905092915050565b6107838261029b565b67ffffffffffffffff81111561079c5761079b6103f0565b5b6107a68254610593565b6107b18282856106ed565b600060209050601f8311600181146107e457600084156107d2578287015190505b6107dc858261075e565b865550610844565b601f1984166107f2866105c4565b60005b8281101561081a578489015182556001820191506020850194506020810190506107f5565b868310156108375784890151610833601f891682610740565b8355505b6001600288020188555050505b50505050505056fea26469706673582212207b9f36946896cee5dbdfe7429c2a579738848b3afb24e68732d38fa08b1bc57564736f6c63430008110033",
			"opcodes": "PUSH1 0x80 PUSH1 0x40 MSTORE CALLVALUE DUP1 ISZERO PUSH2 0x10 JUMPI PUSH1 0x0 DUP1 REVERT JUMPDEST POP PUSH2 0x882 DUP1 PUSH2 0x20 PUSH1 0x0 CODECOPY PUSH1 0x0 RETURN INVALID PUSH1 0x80 PUSH1 0x40 MSTORE CALLVALUE DUP1 ISZERO PUSH2 0x10 JUMPI PUSH1 0x0 DUP1 REVERT JUMPDEST POP PUSH1 0x4 CALLDATASIZE LT PUSH2 0x4C JUMPI PUSH1 0x0 CALLDATALOAD PUSH1 0xE0 SHR DUP1 PUSH4 0x3BC5DE30 EQ PUSH2 0x51 JUMPI DUP1 PUSH4 0x54A771EC EQ PUSH2 0x6F JUMPI DUP1 PUSH4 0x73D4A13A EQ PUSH2 0x8B JUMPI DUP1 PUSH4 0xAB62F0E1 EQ PUSH2 0xA9 JUMPI JUMPDEST PUSH1 0x0 DUP1 REVERT JUMPDEST PUSH2 0x59 PUSH2 0xC5 JUMP JUMPDEST PUSH1 0x40 MLOAD PUSH2 0x66 SWAP2 SWAP1 PUSH2 0x32B JUMP JUMPDEST PUSH1 0x40 MLOAD DUP1 SWAP2 SUB SWAP1 RETURN JUMPDEST PUSH2 0x89 PUSH1 0x4 DUP1 CALLDATASIZE SUB DUP2 ADD SWAP1 PUSH2 0x84 SWAP2 SWAP1 PUSH2 0x3B9 JUMP JUMPDEST PUSH2 0x157 JUMP JUMPDEST STOP JUMPDEST PUSH2 0x93 PUSH2 0x1FA JUMP JUMPDEST PUSH1 0x40 MLOAD PUSH2 0xA0 SWAP2 SWAP1 PUSH2 0x32B JUMP JUMPDEST PUSH1 0x40 MLOAD DUP1 SWAP2 SUB SWAP1 RETURN JUMPDEST PUSH2 0xC3 PUSH1 0x4 DUP1 CALLDATASIZE SUB DUP2 ADD SWAP1 PUSH2 0xBE SWAP2 SWAP1 PUSH2 0x51B JUMP JUMPDEST PUSH2 0x288 JUMP JUMPDEST STOP JUMPDEST PUSH1 0x60 PUSH1 0x0 DUP1 SLOAD PUSH2 0xD4 SWAP1 PUSH2 0x593 JUMP JUMPDEST DUP1 PUSH1 0x1F ADD PUSH1 0x20 DUP1 SWAP2 DIV MUL PUSH1 0x20 ADD PUSH1 0x40 MLOAD SWAP1 DUP2 ADD PUSH1 0x40 MSTORE DUP1 SWAP3 SWAP2 SWAP1 DUP2 DUP2 MSTORE PUSH1 0x20 ADD DUP3 DUP1 SLOAD PUSH2 0x100 SWAP1 PUSH2 0x593 JUMP JUMPDEST DUP1 ISZERO PUSH2 0x14D JUMPI DUP1 PUSH1 0x1F LT PUSH2 0x122 JUMPI PUSH2 0x100 DUP1 DUP4 SLOAD DIV MUL DUP4 MSTORE SWAP2 PUSH1 0x20 ADD SWAP2 PUSH2 0x14D JUMP JUMPDEST DUP3 ADD SWAP2 SWAP1 PUSH1 0x0 MSTORE PUSH1 0x20 PUSH1 0x0 KECCAK256 SWAP1 JUMPDEST DUP2 SLOAD DUP2 MSTORE SWAP1 PUSH1 0x1 ADD SWAP1 PUSH1 0x20 ADD DUP1 DUP4 GT PUSH2 0x130 JUMPI DUP3 SWAP1 SUB PUSH1 0x1F AND DUP3 ADD SWAP2 JUMPDEST POP POP POP POP POP SWAP1 POP SWAP1 JUMP JUMPDEST PUSH1 0x0 DUP2 SWAP1 DUP1 DUP1 SLOAD DUP1 PUSH2 0x168 SWAP1 PUSH2 0x593 JUMP JUMPDEST DUP1 PUSH1 0x1F DUP2 SUB PUSH2 0x187 JUMPI DUP4 PUSH1 0x0 MSTORE PUSH1 0x20 PUSH1 0x0 KECCAK256 PUSH1 0xFF NOT DUP5 AND DUP2 SSTORE PUSH1 0x3F SWAP4 POP POP JUMPDEST POP PUSH1 0x2 DUP3 ADD DUP4 SSTORE PUSH1 0x1 DUP2 ADD SWAP3 POP POP POP PUSH1 0x1 SWAP1 SUB DUP2 SLOAD PUSH1 0x1 AND ISZERO PUSH2 0x1B9 JUMPI SWAP1 PUSH1 0x0 MSTORE PUSH1 0x20 PUSH1 0x0 KECCAK256 SWAP1 PUSH1 0x20 SWAP2 DUP3 DUP3 DIV ADD SWAP2 SWAP1 MOD JUMPDEST SWAP1 SWAP2 SWAP1 SWAP2 SWAP1 SWAP2 PUSH1 0x1F SUB PUSH2 0x100 EXP DUP2 SLOAD DUP2 PUSH1 0xFF MUL NOT AND SWAP1 PUSH32 0x100000000000000000000000000000000000000000000000000000000000000 DUP5 DIV MUL OR SWAP1 SSTORE POP POP JUMP JUMPDEST PUSH1 0x0 DUP1 SLOAD PUSH2 0x207 SWAP1 PUSH2 0x593 JUMP JUMPDEST DUP1 PUSH1 0x1F ADD PUSH1 0x20 DUP1 SWAP2 DIV MUL PUSH1 0x20 ADD PUSH1 0x40 MLOAD SWAP1 DUP2 ADD PUSH1 0x40 MSTORE DUP1 SWAP3 SWAP2 SWAP1 DUP2 DUP2 MSTORE PUSH1 0x20 ADD DUP3 DUP1 SLOAD PUSH2 0x233 SWAP1 PUSH2 0x593 JUMP JUMPDEST DUP1 ISZERO PUSH2 0x280 JUMPI DUP1 PUSH1 0x1F LT PUSH2 0x255 JUMPI PUSH2 0x100 DUP1 DUP4 SLOAD DIV MUL DUP4 MSTORE SWAP2 PUSH1 0x20 ADD SWAP2 PUSH2 0x280 JUMP JUMPDEST DUP3 ADD SWAP2 SWAP1 PUSH1 0x0 MSTORE PUSH1 0x20 PUSH1 0x0 KECCAK256 SWAP1 JUMPDEST DUP2 SLOAD DUP2 MSTORE SWAP1 PUSH1 0x1 ADD SWAP1 PUSH1 0x20 ADD DUP1 DUP4 GT PUSH2 0x263 JUMPI DUP3 SWAP1 SUB PUSH1 0x1F AND DUP3 ADD SWAP2 JUMPDEST POP POP POP POP POP DUP2 JUMP JUMPDEST DUP1 PUSH1 0x0 SWAP1 DUP2 PUSH2 0x297 SWAP2 SWAP1 PUSH2 0x77A JUMP JUMPDEST POP POP JUMP JUMPDEST PUSH1 0x0 DUP2 MLOAD SWAP1 POP SWAP2 SWAP1 POP JUMP JUMPDEST PUSH1 0x0 DUP3 DUP3 MSTORE PUSH1 0x20 DUP3 ADD SWAP1 POP SWAP3 SWAP2 POP POP JUMP JUMPDEST PUSH1 0x0 JUMPDEST DUP4 DUP2 LT ISZERO PUSH2 0x2D5 JUMPI DUP1 DUP3 ADD MLOAD DUP2 DUP5 ADD MSTORE PUSH1 0x20 DUP2 ADD SWAP1 POP PUSH2 0x2BA JUMP JUMPDEST PUSH1 0x0 DUP5 DUP5 ADD MSTORE POP POP POP POP JUMP JUMPDEST PUSH1 0x0 PUSH1 0x1F NOT PUSH1 0x1F DUP4 ADD AND SWAP1 POP SWAP2 SWAP1 POP JUMP JUMPDEST PUSH1 0x0 PUSH2 0x2FD DUP3 PUSH2 0x29B JUMP JUMPDEST PUSH2 0x307 DUP2 DUP6 PUSH2 0x2A6 JUMP JUMPDEST SWAP4 POP PUSH2 0x317 DUP2 DUP6 PUSH1 0x20 DUP7 ADD PUSH2 0x2B7 JUMP JUMPDEST PUSH2 0x320 DUP2 PUSH2 0x2E1 JUMP JUMPDEST DUP5 ADD SWAP2 POP POP SWAP3 SWAP2 POP POP JUMP JUMPDEST PUSH1 0x0 PUSH1 0x20 DUP3 ADD SWAP1 POP DUP2 DUP2 SUB PUSH1 0x0 DUP4 ADD MSTORE PUSH2 0x345 DUP2 DUP5 PUSH2 0x2F2 JUMP JUMPDEST SWAP1 POP SWAP3 SWAP2 POP POP JUMP JUMPDEST PUSH1 0x0 PUSH1 0x40 MLOAD SWAP1 POP SWAP1 JUMP JUMPDEST PUSH1 0x0 DUP1 REVERT JUMPDEST PUSH1 0x0 DUP1 REVERT JUMPDEST PUSH1 0x0 PUSH32 0xFF00000000000000000000000000000000000000000000000000000000000000 DUP3 AND SWAP1 POP SWAP2 SWAP1 POP JUMP JUMPDEST PUSH2 0x396 DUP2 PUSH2 0x361 JUMP JUMPDEST DUP2 EQ PUSH2 0x3A1 JUMPI PUSH1 0x0 DUP1 REVERT JUMPDEST POP JUMP JUMPDEST PUSH1 0x0 DUP2 CALLDATALOAD SWAP1 POP PUSH2 0x3B3 DUP2 PUSH2 0x38D JUMP JUMPDEST SWAP3 SWAP2 POP POP JUMP JUMPDEST PUSH1 0x0 PUSH1 0x20 DUP3 DUP5 SUB SLT ISZERO PUSH2 0x3CF JUMPI PUSH2 0x3CE PUSH2 0x357 JUMP JUMPDEST JUMPDEST PUSH1 0x0 PUSH2 0x3DD DUP5 DUP3 DUP6 ADD PUSH2 0x3A4 JUMP JUMPDEST SWAP2 POP POP SWAP3 SWAP2 POP POP JUMP JUMPDEST PUSH1 0x0 DUP1 REVERT JUMPDEST PUSH1 0x0 DUP1 REVERT JUMPDEST PUSH32 0x4E487B7100000000000000000000000000000000000000000000000000000000 PUSH1 0x0 MSTORE PUSH1 0x41 PUSH1 0x4 MSTORE PUSH1 0x24 PUSH1 0x0 REVERT JUMPDEST PUSH2 0x428 DUP3 PUSH2 0x2E1 JUMP JUMPDEST DUP2 ADD DUP2 DUP2 LT PUSH8 0xFFFFFFFFFFFFFFFF DUP3 GT OR ISZERO PUSH2 0x447 JUMPI PUSH2 0x446 PUSH2 0x3F0 JUMP JUMPDEST JUMPDEST DUP1 PUSH1 0x40 MSTORE POP POP POP JUMP JUMPDEST PUSH1 0x0 PUSH2 0x45A PUSH2 0x34D JUMP JUMPDEST SWAP1 POP PUSH2 0x466 DUP3 DUP3 PUSH2 0x41F JUMP JUMPDEST SWAP2 SWAP1 POP JUMP JUMPDEST PUSH1 0x0 PUSH8 0xFFFFFFFFFFFFFFFF DUP3 GT ISZERO PUSH2 0x486 JUMPI PUSH2 0x485 PUSH2 0x3F0 JUMP JUMPDEST JUMPDEST PUSH2 0x48F DUP3 PUSH2 0x2E1 JUMP JUMPDEST SWAP1 POP PUSH1 0x20 DUP2 ADD SWAP1 POP SWAP2 SWAP1 POP JUMP JUMPDEST DUP3 DUP2 DUP4 CALLDATACOPY PUSH1 0x0 DUP4 DUP4 ADD MSTORE POP POP POP JUMP JUMPDEST PUSH1 0x0 PUSH2 0x4BE PUSH2 0x4B9 DUP5 PUSH2 0x46B JUMP JUMPDEST PUSH2 0x450 JUMP JUMPDEST SWAP1 POP DUP3 DUP2 MSTORE PUSH1 0x20 DUP2 ADD DUP5 DUP5 DUP5 ADD GT ISZERO PUSH2 0x4DA JUMPI PUSH2 0x4D9 PUSH2 0x3EB JUMP JUMPDEST JUMPDEST PUSH2 0x4E5 DUP5 DUP3 DUP6 PUSH2 0x49C JUMP JUMPDEST POP SWAP4 SWAP3 POP POP POP JUMP JUMPDEST PUSH1 0x0 DUP3 PUSH1 0x1F DUP4 ADD SLT PUSH2 0x502 JUMPI PUSH2 0x501 PUSH2 0x3E6 JUMP JUMPDEST JUMPDEST DUP2 CALLDATALOAD PUSH2 0x512 DUP5 DUP3 PUSH1 0x20 DUP7 ADD PUSH2 0x4AB JUMP JUMPDEST SWAP2 POP POP SWAP3 SWAP2 POP POP JUMP JUMPDEST PUSH1 0x0 PUSH1 0x20 DUP3 DUP5 SUB SLT ISZERO PUSH2 0x531 JUMPI PUSH2 0x530 PUSH2 0x357 JUMP JUMPDEST JUMPDEST PUSH1 0x0 DUP3 ADD CALLDATALOAD PUSH8 0xFFFFFFFFFFFFFFFF DUP2 GT ISZERO PUSH2 0x54F JUMPI PUSH2 0x54E PUSH2 0x35C JUMP JUMPDEST JUMPDEST PUSH2 0x55B DUP5 DUP3 DUP6 ADD PUSH2 0x4ED JUMP JUMPDEST SWAP2 POP POP SWAP3 SWAP2 POP POP JUMP JUMPDEST PUSH32 0x4E487B7100000000000000000000000000000000000000000000000000000000 PUSH1 0x0 MSTORE PUSH1 0x22 PUSH1 0x4 MSTORE PUSH1 0x24 PUSH1 0x0 REVERT JUMPDEST PUSH1 0x0 PUSH1 0x2 DUP3 DIV SWAP1 POP PUSH1 0x1 DUP3 AND DUP1 PUSH2 0x5AB JUMPI PUSH1 0x7F DUP3 AND SWAP2 POP JUMPDEST PUSH1 0x20 DUP3 LT DUP2 SUB PUSH2 0x5BE JUMPI PUSH2 0x5BD PUSH2 0x564 JUMP JUMPDEST JUMPDEST POP SWAP2 SWAP1 POP JUMP JUMPDEST PUSH1 0x0 DUP2 SWAP1 POP DUP2 PUSH1 0x0 MSTORE PUSH1 0x20 PUSH1 0x0 KECCAK256 SWAP1 POP SWAP2 SWAP1 POP JUMP JUMPDEST PUSH1 0x0 PUSH1 0x20 PUSH1 0x1F DUP4 ADD DIV SWAP1 POP SWAP2 SWAP1 POP JUMP JUMPDEST PUSH1 0x0 DUP3 DUP3 SHL SWAP1 POP SWAP3 SWAP2 POP POP JUMP JUMPDEST PUSH1 0x0 PUSH1 0x8 DUP4 MUL PUSH2 0x626 PUSH32 0xFFFFFFFFFFFFFFFFFFFFFFFFFFFFFFFFFFFFFFFFFFFFFFFFFFFFFFFFFFFFFFFF DUP3 PUSH2 0x5E9 JUMP JUMPDEST PUSH2 0x630 DUP7 DUP4 PUSH2 0x5E9 JUMP JUMPDEST SWAP6 POP DUP1 NOT DUP5 AND SWAP4 POP DUP1 DUP7 AND DUP5 OR SWAP3 POP POP POP SWAP4 SWAP3 POP POP POP JUMP JUMPDEST PUSH1 0x0 DUP2 SWAP1 POP SWAP2 SWAP1 POP JUMP JUMPDEST PUSH1 0x0 DUP2 SWAP1 POP SWAP2 SWAP1 POP JUMP JUMPDEST PUSH1 0x0 PUSH2 0x677 PUSH2 0x672 PUSH2 0x66D DUP5 PUSH2 0x648 JUMP JUMPDEST PUSH2 0x652 JUMP JUMPDEST PUSH2 0x648 JUMP JUMPDEST SWAP1 POP SWAP2 SWAP1 POP JUMP JUMPDEST PUSH1 0x0 DUP2 SWAP1 POP SWAP2 SWAP1 POP JUMP JUMPDEST PUSH2 0x691 DUP4 PUSH2 0x65C JUMP JUMPDEST PUSH2 0x6A5 PUSH2 0x69D DUP3 PUSH2 0x67E JUMP JUMPDEST DUP5 DUP5 SLOAD PUSH2 0x5F6 JUMP JUMPDEST DUP3 SSTORE POP POP POP POP JUMP JUMPDEST PUSH1 0x0 SWAP1 JUMP JUMPDEST PUSH2 0x6BA PUSH2 0x6AD JUMP JUMPDEST PUSH2 0x6C5 DUP2 DUP5 DUP5 PUSH2 0x688 JUMP JUMPDEST POP POP POP JUMP JUMPDEST JUMPDEST DUP2 DUP2 LT ISZERO PUSH2 0x6E9 JUMPI PUSH2 0x6DE PUSH1 0x0 DUP3 PUSH2 0x6B2 JUMP JUMPDEST PUSH1 0x1 DUP2 ADD SWAP1 POP PUSH2 0x6CB JUMP JUMPDEST POP POP JUMP JUMPDEST PUSH1 0x1F DUP3 GT ISZERO PUSH2 0x72E JUMPI PUSH2 0x6FF DUP2 PUSH2 0x5C4 JUMP JUMPDEST PUSH2 0x708 DUP5 PUSH2 0x5D9 JUMP JUMPDEST DUP2 ADD PUSH1 0x20 DUP6 LT ISZERO PUSH2 0x717 JUMPI DUP2 SWAP1 POP JUMPDEST PUSH2 0x72B PUSH2 0x723 DUP6 PUSH2 0x5D9 JUMP JUMPDEST DUP4 ADD DUP3 PUSH2 0x6CA JUMP JUMPDEST POP POP JUMPDEST POP POP POP JUMP JUMPDEST PUSH1 0x0 DUP3 DUP3 SHR SWAP1 POP SWAP3 SWAP2 POP POP JUMP JUMPDEST PUSH1 0x0 PUSH2 0x751 PUSH1 0x0 NOT DUP5 PUSH1 0x8 MUL PUSH2 0x733 JUMP JUMPDEST NOT DUP1 DUP4 AND SWAP2 POP POP SWAP3 SWAP2 POP POP JUMP JUMPDEST PUSH1 0x0 PUSH2 0x76A DUP4 DUP4 PUSH2 0x740 JUMP JUMPDEST SWAP2 POP DUP3 PUSH1 0x2 MUL DUP3 OR SWAP1 POP SWAP3 SWAP2 POP POP JUMP JUMPDEST PUSH2 0x783 DUP3 PUSH2 0x29B JUMP JUMPDEST PUSH8 0xFFFFFFFFFFFFFFFF DUP2 GT ISZERO PUSH2 0x79C JUMPI PUSH2 0x79B PUSH2 0x3F0 JUMP JUMPDEST JUMPDEST PUSH2 0x7A6 DUP3 SLOAD PUSH2 0x593 JUMP JUMPDEST PUSH2 0x7B1 DUP3 DUP3 DUP6 PUSH2 0x6ED JUMP JUMPDEST PUSH1 0x0 PUSH1 0x20 SWAP1 POP PUSH1 0x1F DUP4 GT PUSH1 0x1 DUP2 EQ PUSH2 0x7E4 JUMPI PUSH1 0x0 DUP5 ISZERO PUSH2 0x7D2 JUMPI DUP3 DUP8 ADD MLOAD SWAP1 POP JUMPDEST PUSH2 0x7DC DUP6 DUP3 PUSH2 0x75E JUMP JUMPDEST DUP7 SSTORE POP PUSH2 0x844 JUMP JUMPDEST PUSH1 0x1F NOT DUP5 AND PUSH2 0x7F2 DUP7 PUSH2 0x5C4 JUMP JUMPDEST PUSH1 0x0 JUMPDEST DUP3 DUP2 LT ISZERO PUSH2 0x81A JUMPI DUP5 DUP10 ADD MLOAD DUP3 SSTORE PUSH1 0x1 DUP3 ADD SWAP2 POP PUSH1 0x20 DUP6 ADD SWAP5 POP PUSH1 0x20 DUP2 ADD SWAP1 POP PUSH2 0x7F5 JUMP JUMPDEST DUP7 DUP4 LT ISZERO PUSH2 0x837 JUMPI DUP5 DUP10 ADD MLOAD PUSH2 0x833 PUSH1 0x1F DUP10 AND DUP3 PUSH2 0x740 JUMP JUMPDEST DUP4 SSTORE POP JUMPDEST PUSH1 0x1 PUSH1 0x2 DUP9 MUL ADD DUP9 SSTORE POP POP POP JUMPDEST POP POP POP POP POP POP JUMP INVALID LOG2 PUSH5 0x6970667358 0x22 SLT KECCAK256 PUSH28 0x9F36946896CEE5DBDFE7429C2A579738848B3AFB24E68732D38FA08B SHL 0xC5 PUSH22 0x64736F6C634300081100330000000000000000000000 "
		},
		"gasEstimates": {
			"creation": {
				"codeDepositCost": "435600",
				"executionCost": "474",
				"totalCost": "436074"
			},
			"external": {
				"data()": "infinite",
				"getData()": "infinite",
				"pushByte(bytes1)": "75093",
				"setData(bytes)": "infinite"
			}
		},
		"methodIdentifiers": {
			"data()": "73d4a13a",
			"getData()": "3bc5de30",
			"pushByte(bytes1)": "54a771ec",
			"setData(bytes)": "ab62f0e1"
		}
	},
	"abi": [
		{
			"inputs": [],
			"name": "data",
			"outputs": [
				{
					"internalType": "bytes",
					"name": "",
					"type": "bytes"
				}
			],
			"stateMutability": "view",
			"type": "function"
		},
		{
			"inputs": [],
			"name": "getData",
			"outputs": [
				{
					"internalType": "bytes",
					"name": "",
					"type": "bytes"
				}
			],
			"stateMutability": "view",
			"type": "function"
		},
		{
			"inputs": [
				{
					"internalType": "bytes1",
					"name": "b",
					"type": "bytes1"
				}
			],
			"name": "pushByte",
			"outputs": [],
			"stateMutability": "nonpayable",
			"type": "function"
		},
		{
			"inputs": [
				{
					"internalType": "bytes",
					"name": "newData",
					"type": "bytes"
				}
			],
			"name": "setData",
			"outputs": [],
			"stateMutability": "nonpayable",
			"type": "function"
		}
	]
}