{
	"data": {
		"bytecode": {
			"linkReferences": {},
			"object": "608060405234801561001057600080fd5b50610111806100206000396000f3fe6080604052348015600f57600080fd5b506004361060285760003560e01c80636e25b97814602d575b600080fd5b60336049565b60405160409392919060aa565b60405180910390f35b600080600063f851a44060e01b635c60da1b60e01b633659cfe660e01b925092509250909192565b60007fffffffff0000000000000000000000000000000000000000000000000000000082169050919050565b60a4816071565b82525050565b600060608201905060bd6000830186609d565b60c86020830185609d565b60d36040830184609d565b94935050505056fea2646970667358221220b42da3a690e4d6f06559ca198d067a660d5c0392080a7ede144fe138279eb48264736f6c63430008110033",
			"opcodes": "PUSH1 0x80 PUSH1 0x40 MSTORE CALLVALUE DUP1 ISZERO PUSH2 0x10 JUMPI PUSH1 0x0 DUP1 REVERT JUMPDEST POP PUSH2 0x111 DUP1 PUSH2 0x20 PUSH1 0x0 CODECOPY PUSH1 0x0 RETURN INVALID PUSH1 0x80 PUSH1 0x40 MSTORE CALLVALUE DUP1 ISZERO PUSH1 0xF JUMPI PUSH1 0x0 DUP1 REVERT JUMPDEST POP PUSH1 0x4 CALLDATASIZE LT PUSH1 0x28 JUMPI PUSH1 0x0 CALLDATALOAD PUSH1 0xE0 SHR DUP1 PUSH4 0x6E25B978 EQ PUSH1 0x2D JUMPI JUMPDEST PUSH1 0x0 DUP1 REVERT JUMPDEST PUSH1 0x33 PUSH1 0x49 JUMP JUMPDEST PUSH1 0x40 MLOAD PUSH1 0x40 SWAP4 SWAP3 SWAP2 SWAP1 PUSH1 0xAA JUMP JUMPDEST PUSH1 0x40 MLOAD DUP1 SWAP2 SUB SWAP1 RETURN JUMPDEST PUSH1 0x0 DUP1 PUSH1 0x0 PUSH4 0xF851A440 PUSH1 0xE0 SHL PUSH4 0x5C60DA1B PUSH1 0xE0 SHL PUSH4 0x3659CFE6 PUSH1 0xE0 SHL SWAP3 POP SWAP3 POP SWAP3 POP SWAP1 SWAP2 SWAP3 JUMP JUMPDEST PUSH1 0x0 PUSH32 0xFFFFFFFF00000000000000000000000000000000000000000000000000000000 DUP3 AND SWAP1 POP SWAP2 SWAP1 POP JUMP JUMPDEST PUSH1 0xA4 DUP2 PUSH1 0x71 JUMP JUMPDEST DUP3 MSTORE POP POP JUMP JUMPDEST PUSH1 0x0 PUSH1 0x60 DUP3 ADD SWAP1 POP PUSH1 0xBD PUSH1 0x0 DUP4 ADD DUP7 PUSH1 0x9D JUMP JUMPDEST PUSH1 0xC8 PUSH1 0x20 DUP4 ADD DUP6 PUSH1 0x9D JUMP JUMPDEST PUSH1 0xD3 PUSH1 0x40 DUP4 ADD DUP5 PUSH1 0x9D JUMP JUMPDEST SWAP5 SWAP4 POP POP POP POP JUMP INVALID LOG2 PUSH5 0x6970667358 0x22 SLT KECCAK256 0xB4 0x2D LOG3 0xA6 SWAP1 0xE4 0xD6 CREATE PUSH6 0x59CA198D067A PUSH7 0xD5C0392080A7E 0xDE EQ 0x4F 0xE1 CODESIZE 0x27 SWAP15 0xB4 DUP3 PUSH5 0x736F6C6343 STOP ADDMOD GT STOP CALLER "
		},
		"gasEstimates": {
			"creation": {
				"codeDepositCost": "54600",
				"executionCost": "105",
				"totalCost": "54705"
			},
			"external": {
				"selectors()": "infinite"
			}
		},
		"methodIdentifiers": {
			"selectors()": "6e25b978"
		}
	},
	"abi": [
		{
			"inputs": [],
			"name": "selectors",
			"outputs": [
				{
					"internalType": "bytes4",
					"name": "",
					"type": "bytes4"
				},
				{
					"internalType": "bytes4",
					"name": "",
					"type": "bytes4"
				},
				{
					"internalType": "bytes4",
					"name": "",
					"type": "bytes4"
				}
			],
			"stateMutability": "view",
			"type": "function"
		}
	]
}