{
	"data": {
		"bytecode": {
			"linkReferences": {},
			"object": "608060405234801561001057600080fd5b5061030f806100206000396000f3fe6080604052600436106100295760003560e01c80636ba87a531461002e578063cfc6cdaa1461004a575b600080fd5b610048600480360381019061004391906101c3565b610066565b005b610064600480360381019061005f91906101c3565b610116565b005b60008173ffffffffffffffffffffffffffffffffffffffff163460405161008c90610247565b60006040518083038185875af1925050503d80600081146100c9576040519150601f19603f3d011682016040523d82523d6000602084013e6100ce565b606091505b5050905080610112576040517f08c379a0000000000000000000000000000000000000000000000000000000008152600401610109906102b9565b60405180910390fd5b5050565b8073ffffffffffffffffffffffffffffffffffffffff166108fc349081150290604051600060405180830381858888f1935050505015801561015c573d6000803e3d6000fd5b5050565b600080fd5b600073ffffffffffffffffffffffffffffffffffffffff82169050919050565b600061019082610165565b9050919050565b6101a081610185565b81146101ab57600080fd5b50565b6000813590506101bd81610197565b92915050565b6000602082840312156101d9576101d8610160565b5b60006101e7848285016101ae565b91505092915050565b600081905092915050565b7f6162630000000000000000000000000000000000000000000000000000000000600082015250565b60006102316003836101f0565b915061023c826101fb565b600382019050919050565b600061025282610224565b9150819050919050565b600082825260208201905092915050565b7f4661696c656420746f2073656e64204574686572000000000000000000000000600082015250565b60006102a360148361025c565b91506102ae8261026d565b602082019050919050565b600060208201905081810360008301526102d281610296565b905091905056fea2646970667358221220f438b3f82fdfdb3ac0b886e306e38c2b516ad0ce72af433870ad495e4026b06164736f6c63430008110033",
			"opcodes": "PUSH1 0x80 PUSH1 0x40 MSTORE CALLVALUE DUP1 ISZERO PUSH2 0x10 JUMPI PUSH1 0x0 DUP1 REVERT JUMPDEST POP PUSH2 0x30F DUP1 PUSH2 0x20 PUSH1 0x0 CODECOPY PUSH1 0x0 RETURN INVALID PUSH1 0x80 PUSH1 0x40 MSTORE PUSH1 0x4 CALLDATASIZE LT PUSH2 0x29 JUMPI PUSH1 0x0 CALLDATALOAD PUSH1 0xE0 SHR DUP1 PUSH4 0x6BA87A53 EQ PUSH2 0x2E JUMPI DUP1 PUSH4 0xCFC6CDAA EQ PUSH2 0x4A JUMPI JUMPDEST PUSH1 0x0 DUP1 REVERT JUMPDEST PUSH2 0x48 PUSH1 0x4 DUP1 CALLDATASIZE SUB DUP2 ADD SWAP1 PUSH2 0x43 SWAP2 SWAP1 PUSH2 0x1C3 JUMP JUMPDEST PUSH2 0x66 JUMP JUMPDEST STOP JUMPDEST PUSH2 0x64 PUSH1 0x4 DUP1 CALLDATASIZE SUB DUP2 ADD SWAP1 PUSH2 0x5F SWAP2 SWAP1 PUSH2 0x1C3 JUMP JUMPDEST PUSH2 0x116 JUMP JUMPDEST STOP JUMPDEST PUSH1 0x0 DUP2 PUSH20 0xFFFFFFFFFFFFFFFFFFFFFFFFFFFFFFFFFFFFFFFF AND CALLVALUE PUSH1 0x40 MLOAD PUSH2 0x8C SWAP1 PUSH2 0x247 JUMP JUMPDEST PUSH1 0x0 PUSH1 0x40 MLOAD DUP1 DUP4 SUB DUP2 DUP6 DUP8 GAS CALL SWAP3 POP POP POP RETURNDATASIZE DUP1 PUSH1 0x0 DUP2 EQ PUSH2 0xC9 JUMPI PUSH1 0x40 MLOAD SWAP2 POP PUSH1 0x1F NOT PUSH1 0x3F RETURNDATASIZE ADD AND DUP3 ADD PUSH1 0x40 MSTORE RETURNDATASIZE DUP3 MSTORE RETURNDATASIZE PUSH1 0x0 PUSH1 0x20 DUP5 ADD RETURNDATACOPY PUSH2 0xCE JUMP JUMPDEST PUSH1 0x60 SWAP2 POP JUMPDEST POP POP SWAP1 POP DUP1 PUSH2 0x112 JUMPI PUSH1 0x40 MLOAD PUSH32 0x8C379A000000000000000000000000000000000000000000000000000000000 DUP2 MSTORE PUSH1 0x4 ADD PUSH2 0x109 SWAP1 PUSH2 0x2B9 JUMP JUMPDEST PUSH1 0x40 MLOAD DUP1 SWAP2 SUB SWAP1 REVERT JUMPDEST POP POP JUMP JUMPDEST DUP1 PUSH20 0xFFFFFFFFFFFFFFFFFFFFFFFFFFFFFFFFFFFFFFFF AND PUSH2 0x8FC CALLVALUE SWAP1 DUP2 ISZERO MUL SWAP1 PUSH1 0x40 MLOAD PUSH1 0x0 PUSH1 0x40 MLOAD DUP1 DUP4 SUB DUP2 DUP6 DUP9 DUP9 CALL SWAP4 POP POP POP POP ISZERO DUP1 ISZERO PUSH2 0x15C JUMPI RETURNDATASIZE PUSH1 0x0 DUP1 RETURNDATACOPY RETURNDATASIZE PUSH1 0x0 REVERT JUMPDEST POP POP JUMP JUMPDEST PUSH1 0x0 DUP1 REVERT JUMPDEST PUSH1 0x0 PUSH20 0xFFFFFFFFFFFFFFFFFFFFFFFFFFFFFFFFFFFFFFFF DUP3 AND SWAP1 POP SWAP2 SWAP1 POP JUMP JUMPDEST PUSH1 0x0 PUSH2 0x190 DUP3 PUSH2 0x165 JUMP JUMPDEST SWAP1 POP SWAP2 SWAP1 POP JUMP JUMPDEST PUSH2 0x1A0 DUP2 PUSH2 0x185 JUMP JUMPDEST DUP2 EQ PUSH2 0x1AB JUMPI PUSH1 0x0 DUP1 REVERT JUMPDEST POP JUMP JUMPDEST PUSH1 0x0 DUP2 CALLDATALOAD SWAP1 POP PUSH2 0x1BD DUP2 PUSH2 0x197 JUMP JUMPDEST SWAP3 SWAP2 POP POP JUMP JUMPDEST PUSH1 0x0 PUSH1 0x20 DUP3 DUP5 SUB SLT ISZERO PUSH2 0x1D9 JUMPI PUSH2 0x1D8 PUSH2 0x160 JUMP JUMPDEST JUMPDEST PUSH1 0x0 PUSH2 0x1E7 DUP5 DUP3 DUP6 ADD PUSH2 0x1AE JUMP JUMPDEST SWAP2 POP POP SWAP3 SWAP2 POP POP JUMP JUMPDEST PUSH1 0x0 DUP2 SWAP1 POP SWAP3 SWAP2 POP POP JUMP JUMPDEST PUSH32 0x6162630000000000000000000000000000000000000000000000000000000000 PUSH1 0x0 DUP3 ADD MSTORE POP JUMP JUMPDEST PUSH1 0x0 PUSH2 0x231 PUSH1 0x3 DUP4 PUSH2 0x1F0 JUMP JUMPDEST SWAP2 POP PUSH2 0x23C DUP3 PUSH2 0x1FB JUMP JUMPDEST PUSH1 0x3 DUP3 ADD SWAP1 POP SWAP2 SWAP1 POP JUMP JUMPDEST PUSH1 0x0 PUSH2 0x252 DUP3 PUSH2 0x224 JUMP JUMPDEST SWAP2 POP DUP2 SWAP1 POP SWAP2 SWAP1 POP JUMP JUMPDEST PUSH1 0x0 DUP3 DUP3 MSTORE PUSH1 0x20 DUP3 ADD SWAP1 POP SWAP3 SWAP2 POP POP JUMP JUMPDEST PUSH32 0x4661696C656420746F2073656E64204574686572000000000000000000000000 PUSH1 0x0 DUP3 ADD MSTORE POP JUMP JUMPDEST PUSH1 0x0 PUSH2 0x2A3 PUSH1 0x14 DUP4 PUSH2 0x25C JUMP JUMPDEST SWAP2 POP PUSH2 0x2AE DUP3 PUSH2 0x26D JUMP JUMPDEST PUSH1 0x20 DUP3 ADD SWAP1 POP SWAP2 SWAP1 POP JUMP JUMPDEST PUSH1 0x0 PUSH1 0x20 DUP3 ADD SWAP1 POP DUP2 DUP2 SUB PUSH1 0x0 DUP4 ADD MSTORE PUSH2 0x2D2 DUP2 PUSH2 0x296 JUMP JUMPDEST SWAP1 POP SWAP2 SWAP1 POP JUMP INVALID LOG2 PUSH5 0x6970667358 0x22 SLT KECCAK256 DELEGATECALL CODESIZE 0xB3 0xF8 0x2F 0xDF 0xDB GASPRICE 0xC0 0xB8 DUP7 0xE3 MOD 0xE3 DUP13 0x2B MLOAD PUSH11 0xD0CE72AF433870AD495E40 0x26 0xB0 PUSH2 0x6473 PUSH16 0x6C634300081100330000000000000000 "
		},
		"gasEstimates": {
			"creation": {
				"codeDepositCost": "156600",
				"executionCost": "202",
				"totalCost": "156802"
			},
			"external": {
				"callFallback(address)": "infinite",
				"transferToFallback(address)": "infinite"
			}
		},
		"methodIdentifiers": {
			"callFallback(address)": "6ba87a53",
			"transferToFallback(address)": "cfc6cdaa"
		}
	},
	"abi": [
		{
			"inputs": [
				{
					"internalType": "address payable",
					"name": "_to",
					"type": "address"
				}
			],
			"name": "callFallback",
			"outputs": [],
			"stateMutability": "payable",
			"type": "function"
		},
		{
			"inputs": [
				{
					"internalType": "address payable",
					"name": "_to",
					"type": "address"
				}
			],
			"name": "transferToFallback",
			"outputs": [],
			"stateMutability": "payable",
			"type": "function"
		}
	]
}