{
	"data": {
		"bytecode": {
			"linkReferences": {},
			"object": "608060405234801561001057600080fd5b5061025b806100206000396000f3fe608060405234801561001057600080fd5b50600436106100365760003560e01c8063046dab161461003b578063b2dd1d7914610059575b600080fd5b610043610089565b6040516100509190610102565b60405180910390f35b610073600480360381019061006e9190610158565b6100b1565b60405161008091906101a7565b60405180910390f35b60007fe0b64c5646341f4d095ad0031230a62daa31ad7ea31a251056e013fe8ed6c5bb905090565b600081836100bf91906101f1565b905092915050565b60007fffffffff0000000000000000000000000000000000000000000000000000000082169050919050565b6100fc816100c7565b82525050565b600060208201905061011760008301846100f3565b92915050565b600080fd5b6000819050919050565b61013581610122565b811461014057600080fd5b50565b6000813590506101528161012c565b92915050565b6000806040838503121561016f5761016e61011d565b5b600061017d85828601610143565b925050602061018e85828601610143565b9150509250929050565b6101a181610122565b82525050565b60006020820190506101bc6000830184610198565b92915050565b7f4e487b7100000000000000000000000000000000000000000000000000000000600052601160045260246000fd5b60006101fc82610122565b915061020783610122565b925082820190508082111561021f5761021e6101c2565b5b9291505056fea26469706673582212205277cbf017115c5ea4d2224265ebbf9a471658b8b5a83a2c8176ffc6607af74864736f6c63430008110033",
			"opcodes": "PUSH1 0x80 PUSH1 0x40 MSTORE CALLVALUE DUP1 ISZERO PUSH2 0x10 JUMPI PUSH1 0x0 DUP1 REVERT JUMPDEST POP PUSH2 0x25B DUP1 PUSH2 0x20 PUSH1 0x0 CODECOPY PUSH1 0x0 RETURN INVALID PUSH1 0x80 PUSH1 0x40 MSTORE CALLVALUE DUP1 ISZERO PUSH2 0x10 JUMPI PUSH1 0x0 DUP1 REVERT JUMPDEST POP PUSH1 0x4 CALLDATASIZE LT PUSH2 0x36 JUMPI PUSH1 0x0 CALLDATALOAD PUSH1 0xE0 SHR DUP1 PUSH4 0x46DAB16 EQ PUSH2 0x3B JUMPI DUP1 PUSH4 0xB2DD1D79 EQ PUSH2 0x59 JUMPI JUMPDEST PUSH1 0x0 DUP1 REVERT JUMPDEST PUSH2 0x43 PUSH2 0x89 JUMP JUMPDEST PUSH1 0x40 MLOAD PUSH2 0x50 SWAP2 SWAP1 PUSH2 0x102 JUMP JUMPDEST PUSH1 0x40 MLOAD DUP1 SWAP2 SUB SWAP1 RETURN JUMPDEST PUSH2 0x73 PUSH1 0x4 DUP1 CALLDATASIZE SUB DUP2 ADD SWAP1 PUSH2 0x6E SWAP2 SWAP1 PUSH2 0x158 JUMP JUMPDEST PUSH2 0xB1 JUMP JUMPDEST PUSH1 0x40 MLOAD PUSH2 0x80 SWAP2 SWAP1 PUSH2 0x1A7 JUMP JUMPDEST PUSH1 0x40 MLOAD DUP1 SWAP2 SUB SWAP1 RETURN JUMPDEST PUSH1 0x0 PUSH32 0xE0B64C5646341F4D095AD0031230A62DAA31AD7EA31A251056E013FE8ED6C5BB SWAP1 POP SWAP1 JUMP JUMPDEST PUSH1 0x0 DUP2 DUP4 PUSH2 0xBF SWAP2 SWAP1 PUSH2 0x1F1 JUMP JUMPDEST SWAP1 POP SWAP3 SWAP2 POP POP JUMP JUMPDEST PUSH1 0x0 PUSH32 0xFFFFFFFF00000000000000000000000000000000000000000000000000000000 DUP3 AND SWAP1 POP SWAP2 SWAP1 POP JUMP JUMPDEST PUSH2 0xFC DUP2 PUSH2 0xC7 JUMP JUMPDEST DUP3 MSTORE POP POP JUMP JUMPDEST PUSH1 0x0 PUSH1 0x20 DUP3 ADD SWAP1 POP PUSH2 0x117 PUSH1 0x0 DUP4 ADD DUP5 PUSH2 0xF3 JUMP JUMPDEST SWAP3 SWAP2 POP POP JUMP JUMPDEST PUSH1 0x0 DUP1 REVERT JUMPDEST PUSH1 0x0 DUP2 SWAP1 POP SWAP2 SWAP1 POP JUMP JUMPDEST PUSH2 0x135 DUP2 PUSH2 0x122 JUMP JUMPDEST DUP2 EQ PUSH2 0x140 JUMPI PUSH1 0x0 DUP1 REVERT JUMPDEST POP JUMP JUMPDEST PUSH1 0x0 DUP2 CALLDATALOAD SWAP1 POP PUSH2 0x152 DUP2 PUSH2 0x12C JUMP JUMPDEST SWAP3 SWAP2 POP POP JUMP JUMPDEST PUSH1 0x0 DUP1 PUSH1 0x40 DUP4 DUP6 SUB SLT ISZERO PUSH2 0x16F JUMPI PUSH2 0x16E PUSH2 0x11D JUMP JUMPDEST JUMPDEST PUSH1 0x0 PUSH2 0x17D DUP6 DUP3 DUP7 ADD PUSH2 0x143 JUMP JUMPDEST SWAP3 POP POP PUSH1 0x20 PUSH2 0x18E DUP6 DUP3 DUP7 ADD PUSH2 0x143 JUMP JUMPDEST SWAP2 POP POP SWAP3 POP SWAP3 SWAP1 POP JUMP JUMPDEST PUSH2 0x1A1 DUP2 PUSH2 0x122 JUMP JUMPDEST DUP3 MSTORE POP POP JUMP JUMPDEST PUSH1 0x0 PUSH1 0x20 DUP3 ADD SWAP1 POP PUSH2 0x1BC PUSH1 0x0 DUP4 ADD DUP5 PUSH2 0x198 JUMP JUMPDEST SWAP3 SWAP2 POP POP JUMP JUMPDEST PUSH32 0x4E487B7100000000000000000000000000000000000000000000000000000000 PUSH1 0x0 MSTORE PUSH1 0x11 PUSH1 0x4 MSTORE PUSH1 0x24 PUSH1 0x0 REVERT JUMPDEST PUSH1 0x0 PUSH2 0x1FC DUP3 PUSH2 0x122 JUMP JUMPDEST SWAP2 POP PUSH2 0x207 DUP4 PUSH2 0x122 JUMP JUMPDEST SWAP3 POP DUP3 DUP3 ADD SWAP1 POP DUP1 DUP3 GT ISZERO PUSH2 0x21F JUMPI PUSH2 0x21E PUSH2 0x1C2 JUMP JUMPDEST JUMPDEST SWAP3 SWAP2 POP POP JUMP INVALID LOG2 PUSH5 0x6970667358 0x22 SLT KECCAK256 MSTORE PUSH24 0xCBF017115C5EA4D2224265EBBF9A471658B8B5A83A2C8176 SELFDESTRUCT 0xC6 PUSH1 0x7A 0xF7 BASEFEE PUSH5 0x736F6C6343 STOP ADDMOD GT STOP CALLER "
		},
		"gasEstimates": {
			"creation": {
				"codeDepositCost": "120600",
				"executionCost": "165",
				"totalCost": "120765"
			},
			"external": {
				"doSomething(uint256,uint256)": "infinite",
				"mintSelector()": "321"
			}
		},
		"methodIdentifiers": {
			"doSomething(uint256,uint256)": "b2dd1d79",
			"mintSelector()": "046dab16"
		}
	},
	"abi": [
		{
			"inputs": [
				{
					"internalType": "uint256",
					"name": "a",
					"type": "uint256"
				},
				{
					"internalType": "uint256",
					"name": "b",
					"type": "uint256"
				}
			],
			"name": "doSomething",
			"outputs": [
				{
					"internalType": "uint256",
					"name": "",
					"type": "uint256"
				}
			],
			"stateMutability": "pure",
			"type": "function"
		},
		{
			"inputs": [],
			"name": "mintSelector",
			"outputs": [
				{
					"internalType": "bytes4",
					"name": "mSelector",
					"type": "bytes4"
				}
			],
			"stateMutability": "pure",
			"type": "function"
		}
	]
}