{
	"data": {
		"bytecode": {
			"linkReferences": {},
			"object": "60806040523480156200001157600080fd5b5060405162004dc138038062004dc183398181016040528101906200003791906200036e565b6040518060400160405280600c81526020017f46726f796f4b697474656e7300000000000000000000000000000000000000008152506040518060400160405280600b81526020017f46726f796f4b697474656e0000000000000000000000000000000000000000008152508160009081620000b491906200060a565b508060019081620000c691906200060a565b505050620000e9620000dd6200010d60201b60201c565b6200011560201b60201c565b80600a9081620000fa91906200060a565b50636252564060078190555050620006f1565b600033905090565b6000600660009054906101000a900473ffffffffffffffffffffffffffffffffffffffff16905081600660006101000a81548173ffffffffffffffffffffffffffffffffffffffff021916908373ffffffffffffffffffffffffffffffffffffffff1602179055508173ffffffffffffffffffffffffffffffffffffffff168173ffffffffffffffffffffffffffffffffffffffff167f8be0079c531659141344cd1fd0a4f28419497f9722a3daafe3b4186f6b6457e060405160405180910390a35050565b6000604051905090565b600080fd5b600080fd5b600080fd5b600080fd5b6000601f19601f8301169050919050565b7f4e487b7100000000000000000000000000000000000000000000000000000000600052604160045260246000fd5b6200024482620001f9565b810181811067ffffffffffffffff821117156200026657620002656200020a565b5b80604052505050565b60006200027b620001db565b905062000289828262000239565b919050565b600067ffffffffffffffff821115620002ac57620002ab6200020a565b5b620002b782620001f9565b9050602081019050919050565b60005b83811015620002e4578082015181840152602081019050620002c7565b60008484015250505050565b60006200030762000301846200028e565b6200026f565b905082815260208101848484011115620003265762000325620001f4565b5b62000333848285620002c4565b509392505050565b600082601f830112620003535762000352620001ef565b5b815162000365848260208601620002f0565b91505092915050565b600060208284031215620003875762000386620001e5565b5b600082015167ffffffffffffffff811115620003a857620003a7620001ea565b5b620003b6848285016200033b565b91505092915050565b600081519050919050565b7f4e487b7100000000000000000000000000000000000000000000000000000000600052602260045260246000fd5b600060028204905060018216806200041257607f821691505b602082108103620004285762000427620003ca565b5b50919050565b60008190508160005260206000209050919050565b60006020601f8301049050919050565b600082821b905092915050565b600060088302620004927fffffffffffffffffffffffffffffffffffffffffffffffffffffffffffffffff8262000453565b6200049e868362000453565b95508019841693508086168417925050509392505050565b6000819050919050565b6000819050919050565b6000620004eb620004e5620004df84620004b6565b620004c0565b620004b6565b9050919050565b6000819050919050565b6200050783620004ca565b6200051f6200051682620004f2565b84845462000460565b825550505050565b600090565b6200053662000527565b62000543818484620004fc565b505050565b5b818110156200056b576200055f6000826200052c565b60018101905062000549565b5050565b601f821115620005ba5762000584816200042e565b6200058f8462000443565b810160208510156200059f578190505b620005b7620005ae8562000443565b83018262000548565b50505b505050565b600082821c905092915050565b6000620005df60001984600802620005bf565b1980831691505092915050565b6000620005fa8383620005cc565b9150826002028217905092915050565b6200061582620003bf565b67ffffffffffffffff8111156200063157620006306200020a565b5b6200063d8254620003f9565b6200064a8282856200056f565b600060209050601f8311600181146200068257600084156200066d578287015190505b620006798582620005ec565b865550620006e9565b601f19841662000692866200042e565b60005b82811015620006bc5784890151825560018201915060208501945060208101905062000695565b86831015620006dc5784890151620006d8601f891682620005cc565b8355505b6001600288020188555050505b505050505050565b6146c080620007016000396000f3fe6080604052600436106102305760003560e01c8063676dd5631161012e578063b88d4fde116100ab578063ebf0c7171161006f578063ebf0c71714610847578063ecd783c414610872578063f2fde38b1461089b578063f3fef3a3146108c4578063f46eccc4146108ed57610230565b8063b88d4fde1461075f578063c87b56dd14610788578063d5b3621b146107c5578063df341adf146107ee578063e985e9c51461080a57610230565b80638da5cb5b116100f25780638da5cb5b14610699578063931e2e49146106c457806395d89b41146106ef578063a0712d681461071a578063a22cb4651461073657610230565b8063676dd563146105c65780636c0360eb146105f157806370a082311461061c578063715018a6146106595780637cb647591461067057610230565b806332cb6b0c116101bc5780634f6ccce7116101805780634f6ccce7146104cd57806354214f691461050a57806355f804b314610535578063580397061461055e5780636352211e1461058957610230565b806332cb6b0c146103fc57806342842e0e1461042757806342966c681461045057806347b5dd541461047957806349a5980a146104a457610230565b8063095ea7b311610203578063095ea7b31461031757806317e7f2951461034057806318160ddd1461036b57806323b872dd146103965780632f745c59146103bf57610230565b806301ffc9a714610235578063025e7c271461027257806306fdde03146102af578063081812fc146102da575b600080fd5b34801561024157600080fd5b5061025c60048036038101906102579190612c43565b61092a565b6040516102699190612c8b565b60405180910390f35b34801561027e57600080fd5b5061029960048036038101906102949190612cdc565b610a0c565b6040516102a69190612d4a565b60405180910390f35b3480156102bb57600080fd5b506102c4610a4b565b6040516102d19190612df5565b60405180910390f35b3480156102e657600080fd5b5061030160048036038101906102fc9190612cdc565b610add565b60405161030e9190612d4a565b60405180910390f35b34801561032357600080fd5b5061033e60048036038101906103399190612e43565b610b62565b005b34801561034c57600080fd5b50610355610c79565b6040516103629190612e92565b60405180910390f35b34801561037757600080fd5b50610380610c84565b60405161038d9190612e92565b60405180910390f35b3480156103a257600080fd5b506103bd60048036038101906103b89190612ead565b610c9e565b005b3480156103cb57600080fd5b506103e660048036038101906103e19190612e43565b610cfe565b6040516103f39190612e92565b60405180910390f35b34801561040857600080fd5b50610411610dfb565b60405161041e9190612e92565b60405180910390f35b34801561043357600080fd5b5061044e60048036038101906104499190612ead565b610e01565b005b34801561045c57600080fd5b5061047760048036038101906104729190612cdc565b610e21565b005b34801561048557600080fd5b5061048e610e2d565b60405161049b9190612e92565b60405180910390f35b3480156104b057600080fd5b506104cb60048036038101906104c69190612f2c565b610e33565b005b3480156104d957600080fd5b506104f460048036038101906104ef9190612cdc565b610ecc565b6040516105019190612e92565b60405180910390f35b34801561051657600080fd5b5061051f610ed6565b60405161052c9190612c8b565b60405180910390f35b34801561054157600080fd5b5061055c6004803603810190610557919061308e565b610ee9565b005b34801561056a57600080fd5b50610573610f78565b6040516105809190612df5565b60405180910390f35b34801561059557600080fd5b506105b060048036038101906105ab9190612cdc565b611006565b6040516105bd9190612d4a565b60405180910390f35b3480156105d257600080fd5b506105db61109b565b6040516105e89190612e92565b60405180910390f35b3480156105fd57600080fd5b506106066110a6565b6040516106139190612df5565b60405180910390f35b34801561062857600080fd5b50610643600480360381019061063e91906130d7565b611134565b6040516106509190612e92565b60405180910390f35b34801561066557600080fd5b5061066e611256565b005b34801561067c57600080fd5b506106976004803603810190610692919061313a565b6112de565b005b3480156106a557600080fd5b506106ae611364565b6040516106bb9190612d4a565b60405180910390f35b3480156106d057600080fd5b506106d961138e565b6040516106e69190612e92565b60405180910390f35b3480156106fb57600080fd5b50610704611394565b6040516107119190612df5565b60405180910390f35b610734600480360381019061072f9190612cdc565b611426565b005b34801561074257600080fd5b5061075d60048036038101906107589190613167565b6115d8565b005b34801561076b57600080fd5b5061078660048036038101906107819190613248565b611758565b005b34801561079457600080fd5b506107af60048036038101906107aa9190612cdc565b6117ba565b6040516107bc9190612df5565b60405180910390f35b3480156107d157600080fd5b506107ec60048036038101906107e79190612cdc565b6118dd565b005b6108086004803603810190610803919061332b565b611963565b005b34801561081657600080fd5b50610831600480360381019061082c919061338b565b611baf565b60405161083e9190612c8b565b60405180910390f35b34801561085357600080fd5b5061085c611c43565b60405161086991906133da565b60405180910390f35b34801561087e57600080fd5b506108996004803603810190610894919061308e565b611c49565b005b3480156108a757600080fd5b506108c260048036038101906108bd91906130d7565b611cd8565b005b3480156108d057600080fd5b506108eb60048036038101906108e69190612e43565b611dcf565b005b3480156108f957600080fd5b50610914600480360381019061090f91906130d7565b611efc565b6040516109219190612e92565b60405180910390f35b60007f80ac58cd000000000000000000000000000000000000000000000000000000007bffffffffffffffffffffffffffffffffffffffffffffffffffffffff1916827bffffffffffffffffffffffffffffffffffffffffffffffffffffffff191614806109f557507f5b5e139f000000000000000000000000000000000000000000000000000000007bffffffffffffffffffffffffffffffffffffffffffffffffffffffff1916827bffffffffffffffffffffffffffffffffffffffffffffffffffffffff1916145b80610a055750610a0482611f14565b5b9050919050565b60028181548110610a1c57600080fd5b906000526020600020016000915054906101000a900473ffffffffffffffffffffffffffffffffffffffff1681565b606060008054610a5a90613424565b80601f0160208091040260200160405190810160405280929190818152602001828054610a8690613424565b8015610ad35780601f10610aa857610100808354040283529160200191610ad3565b820191906000526020600020905b815481529060010190602001808311610ab657829003601f168201915b5050505050905090565b6000610ae882611f7e565b610b27576040517f08c379a0000000000000000000000000000000000000000000000000000000008152600401610b1e906134c7565b60405180910390fd5b6004600083815260200190815260200160002060009054906101000a900473ffffffffffffffffffffffffffffffffffffffff169050919050565b6000610b6d82611006565b90508073ffffffffffffffffffffffffffffffffffffffff168373ffffffffffffffffffffffffffffffffffffffff1603610bdd576040517f08c379a0000000000000000000000000000000000000000000000000000000008152600401610bd490613559565b60405180910390fd5b8073ffffffffffffffffffffffffffffffffffffffff16610bfc612006565b73ffffffffffffffffffffffffffffffffffffffff161480610c2b5750610c2a81610c25612006565b611baf565b5b610c6a576040517f08c379a0000000000000000000000000000000000000000000000000000000008152600401610c61906135eb565b60405180910390fd5b610c74838361200e565b505050565b662386f26fc1000081565b6000600354600280549050610c99919061363a565b905090565b610caf610ca9612006565b826120c7565b610cee576040517f08c379a0000000000000000000000000000000000000000000000000000000008152600401610ce5906136e0565b60405180910390fd5b610cf98383836121a5565b505050565b6000806000905060005b600280549050811015610db9578473ffffffffffffffffffffffffffffffffffffffff1660028281548110610d4057610d3f613700565b5b9060005260206000200160009054906101000a900473ffffffffffffffffffffffffffffffffffffffff1673ffffffffffffffffffffffffffffffffffffffff1603610da657838203610d97578092505050610df5565b8180610da29061372f565b9250505b8080610db19061372f565b915050610d08565b506040517f08c379a0000000000000000000000000000000000000000000000000000000008152600401610dec906137c3565b60405180910390fd5b92915050565b61271081565b610e1c83838360405180602001604052806000815250611758565b505050565b610e2a81612352565b50565b60035481565b610e3b612006565b73ffffffffffffffffffffffffffffffffffffffff16610e59611364565b73ffffffffffffffffffffffffffffffffffffffff1614610eaf576040517f08c379a0000000000000000000000000000000000000000000000000000000008152600401610ea69061382f565b60405180910390fd5b80600860006101000a81548160ff02191690831515021790555050565b6000819050919050565b600860009054906101000a900460ff1681565b610ef1612006565b73ffffffffffffffffffffffffffffffffffffffff16610f0f611364565b73ffffffffffffffffffffffffffffffffffffffff1614610f65576040517f08c379a0000000000000000000000000000000000000000000000000000000008152600401610f5c9061382f565b60405180910390fd5b8060099081610f7491906139fb565b5050565b600a8054610f8590613424565b80601f0160208091040260200160405190810160405280929190818152602001828054610fb190613424565b8015610ffe5780601f10610fd357610100808354040283529160200191610ffe565b820191906000526020600020905b815481529060010190602001808311610fe157829003601f168201915b505050505081565b6000600280549050821061104f576040517f08c379a000000000000000000000000000000000000000000000000000000000815260040161104690613b3f565b60405180910390fd5b60006002838154811061106557611064613700565b5b9060005260206000200160009054906101000a900473ffffffffffffffffffffffffffffffffffffffff16905080915050919050565b66038d7ea4c6800081565b600980546110b390613424565b80601f01602080910402602001604051908101604052809291908181526020018280546110df90613424565b801561112c5780601f106111015761010080835404028352916020019161112c565b820191906000526020600020905b81548152906001019060200180831161110f57829003601f168201915b505050505081565b60008073ffffffffffffffffffffffffffffffffffffffff168273ffffffffffffffffffffffffffffffffffffffff16036111a4576040517f08c379a000000000000000000000000000000000000000000000000000000000815260040161119b90613bd1565b60405180910390fd5b600080600090505b60028054905081101561124c57600281815481106111cd576111cc613700565b5b9060005260206000200160009054906101000a900473ffffffffffffffffffffffffffffffffffffffff1673ffffffffffffffffffffffffffffffffffffffff168473ffffffffffffffffffffffffffffffffffffffff16036112395781806112359061372f565b9250505b80806112449061372f565b9150506111ac565b5080915050919050565b61125e612006565b73ffffffffffffffffffffffffffffffffffffffff1661127c611364565b73ffffffffffffffffffffffffffffffffffffffff16146112d2576040517f08c379a00000000000000000000000000000000000000000000000000000000081526004016112c99061382f565b60405180910390fd5b6112dc60006124cd565b565b6112e6612006565b73ffffffffffffffffffffffffffffffffffffffff16611304611364565b73ffffffffffffffffffffffffffffffffffffffff161461135a576040517f08c379a00000000000000000000000000000000000000000000000000000000081526004016113519061382f565b60405180910390fd5b80600c8190555050565b6000600660009054906101000a900473ffffffffffffffffffffffffffffffffffffffff16905090565b60075481565b6060600180546113a390613424565b80601f01602080910402602001604051908101604052809291908181526020018280546113cf90613424565b801561141c5780601f106113f15761010080835404028352916020019161141c565b820191906000526020600020905b8154815290600101906020018083116113ff57829003601f168201915b5050505050905090565b66038d7ea4c68000816114399190613bf1565b341461147a576040517f08c379a000000000000000000000000000000000000000000000000000000000815260040161147190613c7f565b60405180910390fd5b6127108160028054905061148e9190613c9f565b11156114cf576040517f08c379a00000000000000000000000000000000000000000000000000000000081526004016114c690613d1f565b60405180910390fd5b80600b60003373ffffffffffffffffffffffffffffffffffffffff1673ffffffffffffffffffffffffffffffffffffffff168152602001908152602001600020600082825461151e9190613c9f565b925050819055506003600b60003373ffffffffffffffffffffffffffffffffffffffff1673ffffffffffffffffffffffffffffffffffffffff16815260200190815260200160002054106115a7576040517f08c379a000000000000000000000000000000000000000000000000000000000815260040161159e90613d8b565b60405180910390fd5b60005b818110156115d4576115c133600280549050612593565b80806115cc9061372f565b9150506115aa565b5050565b6115e0612006565b73ffffffffffffffffffffffffffffffffffffffff168273ffffffffffffffffffffffffffffffffffffffff160361164d576040517f08c379a000000000000000000000000000000000000000000000000000000000815260040161164490613df7565b60405180910390fd5b806005600061165a612006565b73ffffffffffffffffffffffffffffffffffffffff1673ffffffffffffffffffffffffffffffffffffffff16815260200190815260200160002060008473ffffffffffffffffffffffffffffffffffffffff1673ffffffffffffffffffffffffffffffffffffffff16815260200190815260200160002060006101000a81548160ff0219169083151502179055508173ffffffffffffffffffffffffffffffffffffffff16611707612006565b73ffffffffffffffffffffffffffffffffffffffff167f17307eab39ab6107e8899845ad3d59bd9653f200f220920489ca2b5937696c318360405161174c9190612c8b565b60405180910390a35050565b611769611763612006565b836120c7565b6117a8576040517f08c379a000000000000000000000000000000000000000000000000000000000815260040161179f906136e0565b60405180910390fd5b6117b4848484846125b1565b50505050565b60606117c582611f7e565b611804576040517f08c379a00000000000000000000000000000000000000000000000000000000081526004016117fb90613e89565b60405180910390fd5b600860009054906101000a900460ff166118aa57600a805461182590613424565b80601f016020809104026020016040519081016040528092919081815260200182805461185190613424565b801561189e5780601f106118735761010080835404028352916020019161189e565b820191906000526020600020905b81548152906001019060200180831161188157829003601f168201915b505050505090506118d8565b60096118b58361260d565b6040516020016118c6929190613fb4565b60405160208183030381529060405290505b919050565b6118e5612006565b73ffffffffffffffffffffffffffffffffffffffff16611903611364565b73ffffffffffffffffffffffffffffffffffffffff1614611959576040517f08c379a00000000000000000000000000000000000000000000000000000000081526004016119509061382f565b60405180910390fd5b8060078190555050565b60003390506119bb6119748261276d565b848480806020026020016040519081016040528093929190818152602001838360200280828437600081840152601f19601f8201169050808301925050505050505061279d565b6119fa576040517f08c379a00000000000000000000000000000000000000000000000000000000081526004016119f19061402f565b60405180910390fd5b662386f26fc1000084611a0d9190613bf1565b3414611a4e576040517f08c379a0000000000000000000000000000000000000000000000000000000008152600401611a4590613c7f565b60405180910390fd5b61271084600280549050611a629190613c9f565b1115611aa3576040517f08c379a0000000000000000000000000000000000000000000000000000000008152600401611a9a90613d1f565b60405180910390fd5b83600b60003373ffffffffffffffffffffffffffffffffffffffff1673ffffffffffffffffffffffffffffffffffffffff1681526020019081526020016000206000828254611af29190613c9f565b925050819055506003600b60008373ffffffffffffffffffffffffffffffffffffffff1673ffffffffffffffffffffffffffffffffffffffff1681526020019081526020016000205410611b7b576040517f08c379a0000000000000000000000000000000000000000000000000000000008152600401611b7290613d8b565b60405180910390fd5b60005b84811015611ba857611b9582600280549050612593565b8080611ba09061372f565b915050611b7e565b5050505050565b6000600560008473ffffffffffffffffffffffffffffffffffffffff1673ffffffffffffffffffffffffffffffffffffffff16815260200190815260200160002060008373ffffffffffffffffffffffffffffffffffffffff1673ffffffffffffffffffffffffffffffffffffffff16815260200190815260200160002060009054906101000a900460ff16905092915050565b600c5481565b611c51612006565b73ffffffffffffffffffffffffffffffffffffffff16611c6f611364565b73ffffffffffffffffffffffffffffffffffffffff1614611cc5576040517f08c379a0000000000000000000000000000000000000000000000000000000008152600401611cbc9061382f565b60405180910390fd5b80600a9081611cd491906139fb565b5050565b611ce0612006565b73ffffffffffffffffffffffffffffffffffffffff16611cfe611364565b73ffffffffffffffffffffffffffffffffffffffff1614611d54576040517f08c379a0000000000000000000000000000000000000000000000000000000008152600401611d4b9061382f565b60405180910390fd5b600073ffffffffffffffffffffffffffffffffffffffff168173ffffffffffffffffffffffffffffffffffffffff1603611dc3576040517f08c379a0000000000000000000000000000000000000000000000000000000008152600401611dba906140c1565b60405180910390fd5b611dcc816124cd565b50565b611dd7612006565b73ffffffffffffffffffffffffffffffffffffffff16611df5611364565b73ffffffffffffffffffffffffffffffffffffffff1614611e4b576040517f08c379a0000000000000000000000000000000000000000000000000000000008152600401611e429061382f565b60405180910390fd5b60008273ffffffffffffffffffffffffffffffffffffffff1682604051611e7190614112565b60006040518083038185875af1925050503d8060008114611eae576040519150601f19603f3d011682016040523d82523d6000602084013e611eb3565b606091505b5050905080611ef7576040517f08c379a0000000000000000000000000000000000000000000000000000000008152600401611eee90614173565b60405180910390fd5b505050565b600b6020528060005260406000206000915090505481565b60007f01ffc9a7000000000000000000000000000000000000000000000000000000007bffffffffffffffffffffffffffffffffffffffffffffffffffffffff1916827bffffffffffffffffffffffffffffffffffffffffffffffffffffffff1916149050919050565b600081600280549050118015611fff5750600073ffffffffffffffffffffffffffffffffffffffff1660028381548110611fbb57611fba613700565b5b9060005260206000200160009054906101000a900473ffffffffffffffffffffffffffffffffffffffff1673ffffffffffffffffffffffffffffffffffffffff1614155b9050919050565b600033905090565b816004600083815260200190815260200160002060006101000a81548173ffffffffffffffffffffffffffffffffffffffff021916908373ffffffffffffffffffffffffffffffffffffffff160217905550808273ffffffffffffffffffffffffffffffffffffffff1661208183611006565b73ffffffffffffffffffffffffffffffffffffffff167f8c5be1e5ebec7d5bd14f71427d1e84f3dd0314c0f7b2291e5b200ac8c7c3b92560405160405180910390a45050565b60006120d282611f7e565b612111576040517f08c379a000000000000000000000000000000000000000000000000000000000815260040161210890614205565b60405180910390fd5b600061211c83611006565b90508073ffffffffffffffffffffffffffffffffffffffff168473ffffffffffffffffffffffffffffffffffffffff16148061218b57508373ffffffffffffffffffffffffffffffffffffffff1661217384610add565b73ffffffffffffffffffffffffffffffffffffffff16145b8061219c575061219b8185611baf565b5b91505092915050565b8273ffffffffffffffffffffffffffffffffffffffff166121c582611006565b73ffffffffffffffffffffffffffffffffffffffff161461221b576040517f08c379a000000000000000000000000000000000000000000000000000000000815260040161221290614297565b60405180910390fd5b600073ffffffffffffffffffffffffffffffffffffffff168273ffffffffffffffffffffffffffffffffffffffff160361228a576040517f08c379a000000000000000000000000000000000000000000000000000000000815260040161228190614329565b60405180910390fd5b61229560008261200e565b81600282815481106122aa576122a9613700565b5b9060005260206000200160006101000a81548173ffffffffffffffffffffffffffffffffffffffff021916908373ffffffffffffffffffffffffffffffffffffffff160217905550808273ffffffffffffffffffffffffffffffffffffffff168473ffffffffffffffffffffffffffffffffffffffff167fddf252ad1be2c89b69c2b068fc378daa952ba7f163c4a11628f55a4df523b3ef60405160405180910390a4505050565b600061235d82611006565b90508073ffffffffffffffffffffffffffffffffffffffff1661237e612006565b73ffffffffffffffffffffffffffffffffffffffff1614806123ad57506123ac816123a7612006565b611baf565b5b6123ec576040517f08c379a00000000000000000000000000000000000000000000000000000000081526004016123e3906135eb565b60405180910390fd5b6123f760008361200e565b60006002838154811061240d5761240c613700565b5b9060005260206000200160006101000a81548173ffffffffffffffffffffffffffffffffffffffff021916908373ffffffffffffffffffffffffffffffffffffffff160217905550600360008154809291906124689061372f565b919050555081600073ffffffffffffffffffffffffffffffffffffffff168273ffffffffffffffffffffffffffffffffffffffff167fddf252ad1be2c89b69c2b068fc378daa952ba7f163c4a11628f55a4df523b3ef60405160405180910390a45050565b6000600660009054906101000a900473ffffffffffffffffffffffffffffffffffffffff16905081600660006101000a81548173ffffffffffffffffffffffffffffffffffffffff021916908373ffffffffffffffffffffffffffffffffffffffff1602179055508173ffffffffffffffffffffffffffffffffffffffff168173ffffffffffffffffffffffffffffffffffffffff167f8be0079c531659141344cd1fd0a4f28419497f9722a3daafe3b4186f6b6457e060405160405180910390a35050565b6125ad8282604051806020016040528060008152506127b4565b5050565b6125bc8484846121a5565b6125c88484848461280f565b612607576040517f08c379a00000000000000000000000000000000000000000000000000000000081526004016125fe906143bb565b60405180910390fd5b50505050565b606060008203612654576040518060400160405280600181526020017f30000000000000000000000000000000000000000000000000000000000000008152509050612768565b600082905060005b6000821461268657808061266f9061372f565b915050600a8261267f919061440a565b915061265c565b60008167ffffffffffffffff8111156126a2576126a1612f63565b5b6040519080825280601f01601f1916602001820160405280156126d45781602001600182028036833780820191505090505b5090505b60008514612761576001826126ed919061363a565b9150600a856126fc919061443b565b60306127089190613c9f565b60f81b81838151811061271e5761271d613700565b5b60200101907effffffffffffffffffffffffffffffffffffffffffffffffffffffffffffff1916908160001a905350600a8561275a919061440a565b94506126d8565b8093505050505b919050565b60008160405160200161278091906144b4565b604051602081830303815290604052805190602001209050919050565b60006127ac82600c5485612996565b905092915050565b6127be83836129ad565b6127cb600084848461280f565b61280a576040517f08c379a0000000000000000000000000000000000000000000000000000000008152600401612801906143bb565b60405180910390fd5b505050565b60006128308473ffffffffffffffffffffffffffffffffffffffff16612b28565b15612989578373ffffffffffffffffffffffffffffffffffffffff1663150b7a02612859612006565b8786866040518563ffffffff1660e01b815260040161287b9493929190614524565b6020604051808303816000875af19250505080156128b757506040513d601f19601f820116820180604052508101906128b49190614585565b60015b612939573d80600081146128e7576040519150601f19603f3d011682016040523d82523d6000602084013e6128ec565b606091505b506000815103612931576040517f08c379a0000000000000000000000000000000000000000000000000000000008152600401612928906143bb565b60405180910390fd5b805181602001fd5b63150b7a0260e01b7bffffffffffffffffffffffffffffffffffffffffffffffffffffffff1916817bffffffffffffffffffffffffffffffffffffffffffffffffffffffff19161491505061298e565b600190505b949350505050565b6000826129a38584612b4b565b1490509392505050565b600073ffffffffffffffffffffffffffffffffffffffff168273ffffffffffffffffffffffffffffffffffffffff1603612a1c576040517f08c379a0000000000000000000000000000000000000000000000000000000008152600401612a13906145fe565b60405180910390fd5b612a2581611f7e565b15612a65576040517f08c379a0000000000000000000000000000000000000000000000000000000008152600401612a5c9061466a565b60405180910390fd5b6002829080600181540180825580915050600190039060005260206000200160009091909190916101000a81548173ffffffffffffffffffffffffffffffffffffffff021916908373ffffffffffffffffffffffffffffffffffffffff160217905550808273ffffffffffffffffffffffffffffffffffffffff16600073ffffffffffffffffffffffffffffffffffffffff167fddf252ad1be2c89b69c2b068fc378daa952ba7f163c4a11628f55a4df523b3ef60405160405180910390a45050565b6000808273ffffffffffffffffffffffffffffffffffffffff163b119050919050565b60008082905060005b8451811015612bb5576000858281518110612b7257612b71613700565b5b60200260200101519050808311612b9457612b8d8382612bc0565b9250612ba1565b612b9e8184612bc0565b92505b508080612bad9061372f565b915050612b54565b508091505092915050565b600082600052816020526040600020905092915050565b6000604051905090565b600080fd5b600080fd5b60007fffffffff0000000000000000000000000000000000000000000000000000000082169050919050565b612c2081612beb565b8114612c2b57600080fd5b50565b600081359050612c3d81612c17565b92915050565b600060208284031215612c5957612c58612be1565b5b6000612c6784828501612c2e565b91505092915050565b60008115159050919050565b612c8581612c70565b82525050565b6000602082019050612ca06000830184612c7c565b92915050565b6000819050919050565b612cb981612ca6565b8114612cc457600080fd5b50565b600081359050612cd681612cb0565b92915050565b600060208284031215612cf257612cf1612be1565b5b6000612d0084828501612cc7565b91505092915050565b600073ffffffffffffffffffffffffffffffffffffffff82169050919050565b6000612d3482612d09565b9050919050565b612d4481612d29565b82525050565b6000602082019050612d5f6000830184612d3b565b92915050565b600081519050919050565b600082825260208201905092915050565b60005b83811015612d9f578082015181840152602081019050612d84565b60008484015250505050565b6000601f19601f8301169050919050565b6000612dc782612d65565b612dd18185612d70565b9350612de1818560208601612d81565b612dea81612dab565b840191505092915050565b60006020820190508181036000830152612e0f8184612dbc565b905092915050565b612e2081612d29565b8114612e2b57600080fd5b50565b600081359050612e3d81612e17565b92915050565b60008060408385031215612e5a57612e59612be1565b5b6000612e6885828601612e2e565b9250506020612e7985828601612cc7565b9150509250929050565b612e8c81612ca6565b82525050565b6000602082019050612ea76000830184612e83565b92915050565b600080600060608486031215612ec657612ec5612be1565b5b6000612ed486828701612e2e565b9350506020612ee586828701612e2e565b9250506040612ef686828701612cc7565b9150509250925092565b612f0981612c70565b8114612f1457600080fd5b50565b600081359050612f2681612f00565b92915050565b600060208284031215612f4257612f41612be1565b5b6000612f5084828501612f17565b91505092915050565b600080fd5b600080fd5b7f4e487b7100000000000000000000000000000000000000000000000000000000600052604160045260246000fd5b612f9b82612dab565b810181811067ffffffffffffffff82111715612fba57612fb9612f63565b5b80604052505050565b6000612fcd612bd7565b9050612fd98282612f92565b919050565b600067ffffffffffffffff821115612ff957612ff8612f63565b5b61300282612dab565b9050602081019050919050565b82818337600083830152505050565b600061303161302c84612fde565b612fc3565b90508281526020810184848401111561304d5761304c612f5e565b5b61305884828561300f565b509392505050565b600082601f83011261307557613074612f59565b5b813561308584826020860161301e565b91505092915050565b6000602082840312156130a4576130a3612be1565b5b600082013567ffffffffffffffff8111156130c2576130c1612be6565b5b6130ce84828501613060565b91505092915050565b6000602082840312156130ed576130ec612be1565b5b60006130fb84828501612e2e565b91505092915050565b6000819050919050565b61311781613104565b811461312257600080fd5b50565b6000813590506131348161310e565b92915050565b6000602082840312156131505761314f612be1565b5b600061315e84828501613125565b91505092915050565b6000806040838503121561317e5761317d612be1565b5b600061318c85828601612e2e565b925050602061319d85828601612f17565b9150509250929050565b600067ffffffffffffffff8211156131c2576131c1612f63565b5b6131cb82612dab565b9050602081019050919050565b60006131eb6131e6846131a7565b612fc3565b90508281526020810184848401111561320757613206612f5e565b5b61321284828561300f565b509392505050565b600082601f83011261322f5761322e612f59565b5b813561323f8482602086016131d8565b91505092915050565b6000806000806080858703121561326257613261612be1565b5b600061327087828801612e2e565b945050602061328187828801612e2e565b935050604061329287828801612cc7565b925050606085013567ffffffffffffffff8111156132b3576132b2612be6565b5b6132bf8782880161321a565b91505092959194509250565b600080fd5b600080fd5b60008083601f8401126132eb576132ea612f59565b5b8235905067ffffffffffffffff811115613308576133076132cb565b5b602083019150836020820283011115613324576133236132d0565b5b9250929050565b60008060006040848603121561334457613343612be1565b5b600061335286828701612cc7565b935050602084013567ffffffffffffffff81111561337357613372612be6565b5b61337f868287016132d5565b92509250509250925092565b600080604083850312156133a2576133a1612be1565b5b60006133b085828601612e2e565b92505060206133c185828601612e2e565b9150509250929050565b6133d481613104565b82525050565b60006020820190506133ef60008301846133cb565b92915050565b7f4e487b7100000000000000000000000000000000000000000000000000000000600052602260045260246000fd5b6000600282049050600182168061343c57607f821691505b60208210810361344f5761344e6133f5565b5b50919050565b7f4552433732313a20617070726f76656420717565727920666f72206e6f6e657860008201527f697374656e7420746f6b656e0000000000000000000000000000000000000000602082015250565b60006134b1602c83612d70565b91506134bc82613455565b604082019050919050565b600060208201905081810360008301526134e0816134a4565b9050919050565b7f4552433732313a20617070726f76616c20746f2063757272656e74206f776e6560008201527f7200000000000000000000000000000000000000000000000000000000000000602082015250565b6000613543602183612d70565b915061354e826134e7565b604082019050919050565b6000602082019050818103600083015261357281613536565b9050919050565b7f4552433732313a20617070726f76652063616c6c6572206973206e6f74206f7760008201527f6e6572206e6f7220617070726f76656420666f7220616c6c0000000000000000602082015250565b60006135d5603883612d70565b91506135e082613579565b604082019050919050565b60006020820190508181036000830152613604816135c8565b9050919050565b7f4e487b7100000000000000000000000000000000000000000000000000000000600052601160045260246000fd5b600061364582612ca6565b915061365083612ca6565b92508282039050818111156136685761366761360b565b5b92915050565b7f4552433732313a207472616e736665722063616c6c6572206973206e6f74206f60008201527f776e6572206e6f7220617070726f766564000000000000000000000000000000602082015250565b60006136ca603183612d70565b91506136d58261366e565b604082019050919050565b600060208201905081810360008301526136f9816136bd565b9050919050565b7f4e487b7100000000000000000000000000000000000000000000000000000000600052603260045260246000fd5b600061373a82612ca6565b91507fffffffffffffffffffffffffffffffffffffffffffffffffffffffffffffffff820361376c5761376b61360b565b5b600182019050919050565b7f49445f544f4f5f48494748000000000000000000000000000000000000000000600082015250565b60006137ad600b83612d70565b91506137b882613777565b602082019050919050565b600060208201905081810360008301526137dc816137a0565b9050919050565b7f4f776e61626c653a2063616c6c6572206973206e6f7420746865206f776e6572600082015250565b6000613819602083612d70565b9150613824826137e3565b602082019050919050565b600060208201905081810360008301526138488161380c565b9050919050565b60008190508160005260206000209050919050565b60006020601f8301049050919050565b600082821b905092915050565b6000600883026138b17fffffffffffffffffffffffffffffffffffffffffffffffffffffffffffffffff82613874565b6138bb8683613874565b95508019841693508086168417925050509392505050565b6000819050919050565b60006138f86138f36138ee84612ca6565b6138d3565b612ca6565b9050919050565b6000819050919050565b613912836138dd565b61392661391e826138ff565b848454613881565b825550505050565b600090565b61393b61392e565b613946818484613909565b505050565b5b8181101561396a5761395f600082613933565b60018101905061394c565b5050565b601f8211156139af576139808161384f565b61398984613864565b81016020851015613998578190505b6139ac6139a485613864565b83018261394b565b50505b505050565b600082821c905092915050565b60006139d2600019846008026139b4565b1980831691505092915050565b60006139eb83836139c1565b9150826002028217905092915050565b613a0482612d65565b67ffffffffffffffff811115613a1d57613a1c612f63565b5b613a278254613424565b613a3282828561396e565b600060209050601f831160018114613a655760008415613a53578287015190505b613a5d85826139df565b865550613ac5565b601f198416613a738661384f565b60005b82811015613a9b57848901518255600182019150602085019450602081019050613a76565b86831015613ab85784890151613ab4601f8916826139c1565b8355505b6001600288020188555050505b505050505050565b7f4552433732313a206f776e657220717565727920666f72206e6f6e657869737460008201527f656e7420746f6b656e0000000000000000000000000000000000000000000000602082015250565b6000613b29602983612d70565b9150613b3482613acd565b604082019050919050565b60006020820190508181036000830152613b5881613b1c565b9050919050565b7f4552433732313a2062616c616e636520717565727920666f7220746865207a6560008201527f726f206164647265737300000000000000000000000000000000000000000000602082015250565b6000613bbb602a83612d70565b9150613bc682613b5f565b604082019050919050565b60006020820190508181036000830152613bea81613bae565b9050919050565b6000613bfc82612ca6565b9150613c0783612ca6565b9250828202613c1581612ca6565b91508282048414831517613c2c57613c2b61360b565b5b5092915050565b7f57524f4e475f4554485f414d4f554e5400000000000000000000000000000000600082015250565b6000613c69601083612d70565b9150613c7482613c33565b602082019050919050565b60006020820190508181036000830152613c9881613c5c565b9050919050565b6000613caa82612ca6565b9150613cb583612ca6565b9250828201905080821115613ccd57613ccc61360b565b5b92915050565b7f4d41585f535550504c5900000000000000000000000000000000000000000000600082015250565b6000613d09600a83612d70565b9150613d1482613cd3565b602082019050919050565b60006020820190508181036000830152613d3881613cfc565b9050919050565b7f414444524553535f4d41585f5245414348454400000000000000000000000000600082015250565b6000613d75601383612d70565b9150613d8082613d3f565b602082019050919050565b60006020820190508181036000830152613da481613d68565b9050919050565b7f4552433732313a20617070726f766520746f2063616c6c657200000000000000600082015250565b6000613de1601983612d70565b9150613dec82613dab565b602082019050919050565b60006020820190508181036000830152613e1081613dd4565b9050919050565b7f4552433732314d657461646174613a2055524920717565727920666f72206e6f60008201527f6e6578697374656e7420746f6b656e0000000000000000000000000000000000602082015250565b6000613e73602f83612d70565b9150613e7e82613e17565b604082019050919050565b60006020820190508181036000830152613ea281613e66565b9050919050565b600081905092915050565b60008154613ec181613424565b613ecb8186613ea9565b94506001821660008114613ee65760018114613efb57613f2e565b60ff1983168652811515820286019350613f2e565b613f048561384f565b60005b83811015613f2657815481890152600182019150602081019050613f07565b838801955050505b50505092915050565b6000613f4282612d65565b613f4c8185613ea9565b9350613f5c818560208601612d81565b80840191505092915050565b7f2e6a736f6e000000000000000000000000000000000000000000000000000000600082015250565b6000613f9e600583613ea9565b9150613fa982613f68565b600582019050919050565b6000613fc08285613eb4565b9150613fcc8284613f37565b9150613fd782613f91565b91508190509392505050565b7f494e56414c49445f4d45524b4c455f50524f4f46000000000000000000000000600082015250565b6000614019601483612d70565b915061402482613fe3565b602082019050919050565b600060208201905081810360008301526140488161400c565b9050919050565b7f4f776e61626c653a206e6577206f776e657220697320746865207a65726f206160008201527f6464726573730000000000000000000000000000000000000000000000000000602082015250565b60006140ab602683612d70565b91506140b68261404f565b604082019050919050565b600060208201905081810360008301526140da8161409e565b9050919050565b600081905092915050565b50565b60006140fc6000836140e1565b9150614107826140ec565b600082019050919050565b600061411d826140ef565b9150819050919050565b7f5749544844524157414c5f4641494c4544000000000000000000000000000000600082015250565b600061415d601183612d70565b915061416882614127565b602082019050919050565b6000602082019050818103600083015261418c81614150565b9050919050565b7f4552433732313a206f70657261746f7220717565727920666f72206e6f6e657860008201527f697374656e7420746f6b656e0000000000000000000000000000000000000000602082015250565b60006141ef602c83612d70565b91506141fa82614193565b604082019050919050565b6000602082019050818103600083015261421e816141e2565b9050919050565b7f4552433732313a207472616e73666572206f6620746f6b656e2074686174206960008201527f73206e6f74206f776e0000000000000000000000000000000000000000000000602082015250565b6000614281602983612d70565b915061428c82614225565b604082019050919050565b600060208201905081810360008301526142b081614274565b9050919050565b7f4552433732313a207472616e7366657220746f20746865207a65726f2061646460008201527f7265737300000000000000000000000000000000000000000000000000000000602082015250565b6000614313602483612d70565b915061431e826142b7565b604082019050919050565b6000602082019050818103600083015261434281614306565b9050919050565b7f4552433732313a207472616e7366657220746f206e6f6e20455243373231526560008201527f63656976657220696d706c656d656e7465720000000000000000000000000000602082015250565b60006143a5603283612d70565b91506143b082614349565b604082019050919050565b600060208201905081810360008301526143d481614398565b9050919050565b7f4e487b7100000000000000000000000000000000000000000000000000000000600052601260045260246000fd5b600061441582612ca6565b915061442083612ca6565b9250826144305761442f6143db565b5b828204905092915050565b600061444682612ca6565b915061445183612ca6565b925082614461576144606143db565b5b828206905092915050565b60008160601b9050919050565b60006144848261446c565b9050919050565b600061449682614479565b9050919050565b6144ae6144a982612d29565b61448b565b82525050565b60006144c0828461449d565b60148201915081905092915050565b600081519050919050565b600082825260208201905092915050565b60006144f6826144cf565b61450081856144da565b9350614510818560208601612d81565b61451981612dab565b840191505092915050565b60006080820190506145396000830187612d3b565b6145466020830186612d3b565b6145536040830185612e83565b818103606083015261456581846144eb565b905095945050505050565b60008151905061457f81612c17565b92915050565b60006020828403121561459b5761459a612be1565b5b60006145a984828501614570565b91505092915050565b7f4552433732313a206d696e7420746f20746865207a65726f2061646472657373600082015250565b60006145e8602083612d70565b91506145f3826145b2565b602082019050919050565b60006020820190508181036000830152614617816145db565b9050919050565b7f414c52454144595f4d494e544544000000000000000000000000000000000000600082015250565b6000614654600e83612d70565b915061465f8261461e565b602082019050919050565b6000602082019050818103600083015261468381614647565b905091905056fea26469706673582212206a1d0db57e2adbad4dbc0baf199f30798a21d18144782f5afc882d8df19fd46364736f6c63430008110033",
			"opcodes": "PUSH1 0x80 PUSH1 0x40 MSTORE CALLVALUE DUP1 ISZERO PUSH3 0x11 JUMPI PUSH1 0x0 DUP1 REVERT JUMPDEST POP PUSH1 0x40 MLOAD PUSH3 0x4DC1 CODESIZE SUB DUP1 PUSH3 0x4DC1 DUP4 CODECOPY DUP2 DUP2 ADD PUSH1 0x40 MSTORE DUP2 ADD SWAP1 PUSH3 0x37 SWAP2 SWAP1 PUSH3 0x36E JUMP JUMPDEST PUSH1 0x40 MLOAD DUP1 PUSH1 0x40 ADD PUSH1 0x40 MSTORE DUP1 PUSH1 0xC DUP2 MSTORE PUSH1 0x20 ADD PUSH32 0x46726F796F4B697474656E730000000000000000000000000000000000000000 DUP2 MSTORE POP PUSH1 0x40 MLOAD DUP1 PUSH1 0x40 ADD PUSH1 0x40 MSTORE DUP1 PUSH1 0xB DUP2 MSTORE PUSH1 0x20 ADD PUSH32 0x46726F796F4B697474656E000000000000000000000000000000000000000000 DUP2 MSTORE POP DUP2 PUSH1 0x0 SWAP1 DUP2 PUSH3 0xB4 SWAP2 SWAP1 PUSH3 0x60A JUMP JUMPDEST POP DUP1 PUSH1 0x1 SWAP1 DUP2 PUSH3 0xC6 SWAP2 SWAP1 PUSH3 0x60A JUMP JUMPDEST POP POP POP PUSH3 0xE9 PUSH3 0xDD PUSH3 0x10D PUSH1 0x20 SHL PUSH1 0x20 SHR JUMP JUMPDEST PUSH3 0x115 PUSH1 0x20 SHL PUSH1 0x20 SHR JUMP JUMPDEST DUP1 PUSH1 0xA SWAP1 DUP2 PUSH3 0xFA SWAP2 SWAP1 PUSH3 0x60A JUMP JUMPDEST POP PUSH4 0x62525640 PUSH1 0x7 DUP2 SWAP1 SSTORE POP POP PUSH3 0x6F1 JUMP JUMPDEST PUSH1 0x0 CALLER SWAP1 POP SWAP1 JUMP JUMPDEST PUSH1 0x0 PUSH1 0x6 PUSH1 0x0 SWAP1 SLOAD SWAP1 PUSH2 0x100 EXP SWAP1 DIV PUSH20 0xFFFFFFFFFFFFFFFFFFFFFFFFFFFFFFFFFFFFFFFF AND SWAP1 POP DUP2 PUSH1 0x6 PUSH1 0x0 PUSH2 0x100 EXP DUP2 SLOAD DUP2 PUSH20 0xFFFFFFFFFFFFFFFFFFFFFFFFFFFFFFFFFFFFFFFF MUL NOT AND SWAP1 DUP4 PUSH20 0xFFFFFFFFFFFFFFFFFFFFFFFFFFFFFFFFFFFFFFFF AND MUL OR SWAP1 SSTORE POP DUP2 PUSH20 0xFFFFFFFFFFFFFFFFFFFFFFFFFFFFFFFFFFFFFFFF AND DUP2 PUSH20 0xFFFFFFFFFFFFFFFFFFFFFFFFFFFFFFFFFFFFFFFF AND PUSH32 0x8BE0079C531659141344CD1FD0A4F28419497F9722A3DAAFE3B4186F6B6457E0 PUSH1 0x40 MLOAD PUSH1 0x40 MLOAD DUP1 SWAP2 SUB SWAP1 LOG3 POP POP JUMP JUMPDEST PUSH1 0x0 PUSH1 0x40 MLOAD SWAP1 POP SWAP1 JUMP JUMPDEST PUSH1 0x0 DUP1 REVERT JUMPDEST PUSH1 0x0 DUP1 REVERT JUMPDEST PUSH1 0x0 DUP1 REVERT JUMPDEST PUSH1 0x0 DUP1 REVERT JUMPDEST PUSH1 0x0 PUSH1 0x1F NOT PUSH1 0x1F DUP4 ADD AND SWAP1 POP SWAP2 SWAP1 POP JUMP JUMPDEST PUSH32 0x4E487B7100000000000000000000000000000000000000000000000000000000 PUSH1 0x0 MSTORE PUSH1 0x41 PUSH1 0x4 MSTORE PUSH1 0x24 PUSH1 0x0 REVERT JUMPDEST PUSH3 0x244 DUP3 PUSH3 0x1F9 JUMP JUMPDEST DUP2 ADD DUP2 DUP2 LT PUSH8 0xFFFFFFFFFFFFFFFF DUP3 GT OR ISZERO PUSH3 0x266 JUMPI PUSH3 0x265 PUSH3 0x20A JUMP JUMPDEST JUMPDEST DUP1 PUSH1 0x40 MSTORE POP POP POP JUMP JUMPDEST PUSH1 0x0 PUSH3 0x27B PUSH3 0x1DB JUMP JUMPDEST SWAP1 POP PUSH3 0x289 DUP3 DUP3 PUSH3 0x239 JUMP JUMPDEST SWAP2 SWAP1 POP JUMP JUMPDEST PUSH1 0x0 PUSH8 0xFFFFFFFFFFFFFFFF DUP3 GT ISZERO PUSH3 0x2AC JUMPI PUSH3 0x2AB PUSH3 0x20A JUMP JUMPDEST JUMPDEST PUSH3 0x2B7 DUP3 PUSH3 0x1F9 JUMP JUMPDEST SWAP1 POP PUSH1 0x20 DUP2 ADD SWAP1 POP SWAP2 SWAP1 POP JUMP JUMPDEST PUSH1 0x0 JUMPDEST DUP4 DUP2 LT ISZERO PUSH3 0x2E4 JUMPI DUP1 DUP3 ADD MLOAD DUP2 DUP5 ADD MSTORE PUSH1 0x20 DUP2 ADD SWAP1 POP PUSH3 0x2C7 JUMP JUMPDEST PUSH1 0x0 DUP5 DUP5 ADD MSTORE POP POP POP POP JUMP JUMPDEST PUSH1 0x0 PUSH3 0x307 PUSH3 0x301 DUP5 PUSH3 0x28E JUMP JUMPDEST PUSH3 0x26F JUMP JUMPDEST SWAP1 POP DUP3 DUP2 MSTORE PUSH1 0x20 DUP2 ADD DUP5 DUP5 DUP5 ADD GT ISZERO PUSH3 0x326 JUMPI PUSH3 0x325 PUSH3 0x1F4 JUMP JUMPDEST JUMPDEST PUSH3 0x333 DUP5 DUP3 DUP6 PUSH3 0x2C4 JUMP JUMPDEST POP SWAP4 SWAP3 POP POP POP JUMP JUMPDEST PUSH1 0x0 DUP3 PUSH1 0x1F DUP4 ADD SLT PUSH3 0x353 JUMPI PUSH3 0x352 PUSH3 0x1EF JUMP JUMPDEST JUMPDEST DUP2 MLOAD PUSH3 0x365 DUP5 DUP3 PUSH1 0x20 DUP7 ADD PUSH3 0x2F0 JUMP JUMPDEST SWAP2 POP POP SWAP3 SWAP2 POP POP JUMP JUMPDEST PUSH1 0x0 PUSH1 0x20 DUP3 DUP5 SUB SLT ISZERO PUSH3 0x387 JUMPI PUSH3 0x386 PUSH3 0x1E5 JUMP JUMPDEST JUMPDEST PUSH1 0x0 DUP3 ADD MLOAD PUSH8 0xFFFFFFFFFFFFFFFF DUP2 GT ISZERO PUSH3 0x3A8 JUMPI PUSH3 0x3A7 PUSH3 0x1EA JUMP JUMPDEST JUMPDEST PUSH3 0x3B6 DUP5 DUP3 DUP6 ADD PUSH3 0x33B JUMP JUMPDEST SWAP2 POP POP SWAP3 SWAP2 POP POP JUMP JUMPDEST PUSH1 0x0 DUP2 MLOAD SWAP1 POP SWAP2 SWAP1 POP JUMP JUMPDEST PUSH32 0x4E487B7100000000000000000000000000000000000000000000000000000000 PUSH1 0x0 MSTORE PUSH1 0x22 PUSH1 0x4 MSTORE PUSH1 0x24 PUSH1 0x0 REVERT JUMPDEST PUSH1 0x0 PUSH1 0x2 DUP3 DIV SWAP1 POP PUSH1 0x1 DUP3 AND DUP1 PUSH3 0x412 JUMPI PUSH1 0x7F DUP3 AND SWAP2 POP JUMPDEST PUSH1 0x20 DUP3 LT DUP2 SUB PUSH3 0x428 JUMPI PUSH3 0x427 PUSH3 0x3CA JUMP JUMPDEST JUMPDEST POP SWAP2 SWAP1 POP JUMP JUMPDEST PUSH1 0x0 DUP2 SWAP1 POP DUP2 PUSH1 0x0 MSTORE PUSH1 0x20 PUSH1 0x0 KECCAK256 SWAP1 POP SWAP2 SWAP1 POP JUMP JUMPDEST PUSH1 0x0 PUSH1 0x20 PUSH1 0x1F DUP4 ADD DIV SWAP1 POP SWAP2 SWAP1 POP JUMP JUMPDEST PUSH1 0x0 DUP3 DUP3 SHL SWAP1 POP SWAP3 SWAP2 POP POP JUMP JUMPDEST PUSH1 0x0 PUSH1 0x8 DUP4 MUL PUSH3 0x492 PUSH32 0xFFFFFFFFFFFFFFFFFFFFFFFFFFFFFFFFFFFFFFFFFFFFFFFFFFFFFFFFFFFFFFFF DUP3 PUSH3 0x453 JUMP JUMPDEST PUSH3 0x49E DUP7 DUP4 PUSH3 0x453 JUMP JUMPDEST SWAP6 POP DUP1 NOT DUP5 AND SWAP4 POP DUP1 DUP7 AND DUP5 OR SWAP3 POP POP POP SWAP4 SWAP3 POP POP POP JUMP JUMPDEST PUSH1 0x0 DUP2 SWAP1 POP SWAP2 SWAP1 POP JUMP JUMPDEST PUSH1 0x0 DUP2 SWAP1 POP SWAP2 SWAP1 POP JUMP JUMPDEST PUSH1 0x0 PUSH3 0x4EB PUSH3 0x4E5 PUSH3 0x4DF DUP5 PUSH3 0x4B6 JUMP JUMPDEST PUSH3 0x4C0 JUMP JUMPDEST PUSH3 0x4B6 JUMP JUMPDEST SWAP1 POP SWAP2 SWAP1 POP JUMP JUMPDEST PUSH1 0x0 DUP2 SWAP1 POP SWAP2 SWAP1 POP JUMP JUMPDEST PUSH3 0x507 DUP4 PUSH3 0x4CA JUMP JUMPDEST PUSH3 0x51F PUSH3 0x516 DUP3 PUSH3 0x4F2 JUMP JUMPDEST DUP5 DUP5 SLOAD PUSH3 0x460 JUMP JUMPDEST DUP3 SSTORE POP POP POP POP JUMP JUMPDEST PUSH1 0x0 SWAP1 JUMP JUMPDEST PUSH3 0x536 PUSH3 0x527 JUMP JUMPDEST PUSH3 0x543 DUP2 DUP5 DUP5 PUSH3 0x4FC JUMP JUMPDEST POP POP POP JUMP JUMPDEST JUMPDEST DUP2 DUP2 LT ISZERO PUSH3 0x56B JUMPI PUSH3 0x55F PUSH1 0x0 DUP3 PUSH3 0x52C JUMP JUMPDEST PUSH1 0x1 DUP2 ADD SWAP1 POP PUSH3 0x549 JUMP JUMPDEST POP POP JUMP JUMPDEST PUSH1 0x1F DUP3 GT ISZERO PUSH3 0x5BA JUMPI PUSH3 0x584 DUP2 PUSH3 0x42E JUMP JUMPDEST PUSH3 0x58F DUP5 PUSH3 0x443 JUMP JUMPDEST DUP2 ADD PUSH1 0x20 DUP6 LT ISZERO PUSH3 0x59F JUMPI DUP2 SWAP1 POP JUMPDEST PUSH3 0x5B7 PUSH3 0x5AE DUP6 PUSH3 0x443 JUMP JUMPDEST DUP4 ADD DUP3 PUSH3 0x548 JUMP JUMPDEST POP POP JUMPDEST POP POP POP JUMP JUMPDEST PUSH1 0x0 DUP3 DUP3 SHR SWAP1 POP SWAP3 SWAP2 POP POP JUMP JUMPDEST PUSH1 0x0 PUSH3 0x5DF PUSH1 0x0 NOT DUP5 PUSH1 0x8 MUL PUSH3 0x5BF JUMP JUMPDEST NOT DUP1 DUP4 AND SWAP2 POP POP SWAP3 SWAP2 POP POP JUMP JUMPDEST PUSH1 0x0 PUSH3 0x5FA DUP4 DUP4 PUSH3 0x5CC JUMP JUMPDEST SWAP2 POP DUP3 PUSH1 0x2 MUL DUP3 OR SWAP1 POP SWAP3 SWAP2 POP POP JUMP JUMPDEST PUSH3 0x615 DUP3 PUSH3 0x3BF JUMP JUMPDEST PUSH8 0xFFFFFFFFFFFFFFFF DUP2 GT ISZERO PUSH3 0x631 JUMPI PUSH3 0x630 PUSH3 0x20A JUMP JUMPDEST JUMPDEST PUSH3 0x63D DUP3 SLOAD PUSH3 0x3F9 JUMP JUMPDEST PUSH3 0x64A DUP3 DUP3 DUP6 PUSH3 0x56F JUMP JUMPDEST PUSH1 0x0 PUSH1 0x20 SWAP1 POP PUSH1 0x1F DUP4 GT PUSH1 0x1 DUP2 EQ PUSH3 0x682 JUMPI PUSH1 0x0 DUP5 ISZERO PUSH3 0x66D JUMPI DUP3 DUP8 ADD MLOAD SWAP1 POP JUMPDEST PUSH3 0x679 DUP6 DUP3 PUSH3 0x5EC JUMP JUMPDEST DUP7 SSTORE POP PUSH3 0x6E9 JUMP JUMPDEST PUSH1 0x1F NOT DUP5 AND PUSH3 0x692 DUP7 PUSH3 0x42E JUMP JUMPDEST PUSH1 0x0 JUMPDEST DUP3 DUP2 LT ISZERO PUSH3 0x6BC JUMPI DUP5 DUP10 ADD MLOAD DUP3 SSTORE PUSH1 0x1 DUP3 ADD SWAP2 POP PUSH1 0x20 DUP6 ADD SWAP5 POP PUSH1 0x20 DUP2 ADD SWAP1 POP PUSH3 0x695 JUMP JUMPDEST DUP7 DUP4 LT ISZERO PUSH3 0x6DC JUMPI DUP5 DUP10 ADD MLOAD PUSH3 0x6D8 PUSH1 0x1F DUP10 AND DUP3 PUSH3 0x5CC JUMP JUMPDEST DUP4 SSTORE POP JUMPDEST PUSH1 0x1 PUSH1 0x2 DUP9 MUL ADD DUP9 SSTORE POP POP POP JUMPDEST POP POP POP POP POP POP JUMP JUMPDEST PUSH2 0x46C0 DUP1 PUSH3 0x701 PUSH1 0x0 CODECOPY PUSH1 0x0 RETURN INVALID PUSH1 0x80 PUSH1 0x40 MSTORE PUSH1 0x4 CALLDATASIZE LT PUSH2 0x230 JUMPI PUSH1 0x0 CALLDATALOAD PUSH1 0xE0 SHR DUP1 PUSH4 0x676DD563 GT PUSH2 0x12E JUMPI DUP1 PUSH4 0xB88D4FDE GT PUSH2 0xAB JUMPI DUP1 PUSH4 0xEBF0C717 GT PUSH2 0x6F JUMPI DUP1 PUSH4 0xEBF0C717 EQ PUSH2 0x847 JUMPI DUP1 PUSH4 0xECD783C4 EQ PUSH2 0x872 JUMPI DUP1 PUSH4 0xF2FDE38B EQ PUSH2 0x89B JUMPI DUP1 PUSH4 0xF3FEF3A3 EQ PUSH2 0x8C4 JUMPI DUP1 PUSH4 0xF46ECCC4 EQ PUSH2 0x8ED JUMPI PUSH2 0x230 JUMP JUMPDEST DUP1 PUSH4 0xB88D4FDE EQ PUSH2 0x75F JUMPI DUP1 PUSH4 0xC87B56DD EQ PUSH2 0x788 JUMPI DUP1 PUSH4 0xD5B3621B EQ PUSH2 0x7C5 JUMPI DUP1 PUSH4 0xDF341ADF EQ PUSH2 0x7EE JUMPI DUP1 PUSH4 0xE985E9C5 EQ PUSH2 0x80A JUMPI PUSH2 0x230 JUMP JUMPDEST DUP1 PUSH4 0x8DA5CB5B GT PUSH2 0xF2 JUMPI DUP1 PUSH4 0x8DA5CB5B EQ PUSH2 0x699 JUMPI DUP1 PUSH4 0x931E2E49 EQ PUSH2 0x6C4 JUMPI DUP1 PUSH4 0x95D89B41 EQ PUSH2 0x6EF JUMPI DUP1 PUSH4 0xA0712D68 EQ PUSH2 0x71A JUMPI DUP1 PUSH4 0xA22CB465 EQ PUSH2 0x736 JUMPI PUSH2 0x230 JUMP JUMPDEST DUP1 PUSH4 0x676DD563 EQ PUSH2 0x5C6 JUMPI DUP1 PUSH4 0x6C0360EB EQ PUSH2 0x5F1 JUMPI DUP1 PUSH4 0x70A08231 EQ PUSH2 0x61C JUMPI DUP1 PUSH4 0x715018A6 EQ PUSH2 0x659 JUMPI DUP1 PUSH4 0x7CB64759 EQ PUSH2 0x670 JUMPI PUSH2 0x230 JUMP JUMPDEST DUP1 PUSH4 0x32CB6B0C GT PUSH2 0x1BC JUMPI DUP1 PUSH4 0x4F6CCCE7 GT PUSH2 0x180 JUMPI DUP1 PUSH4 0x4F6CCCE7 EQ PUSH2 0x4CD JUMPI DUP1 PUSH4 0x54214F69 EQ PUSH2 0x50A JUMPI DUP1 PUSH4 0x55F804B3 EQ PUSH2 0x535 JUMPI DUP1 PUSH4 0x58039706 EQ PUSH2 0x55E JUMPI DUP1 PUSH4 0x6352211E EQ PUSH2 0x589 JUMPI PUSH2 0x230 JUMP JUMPDEST DUP1 PUSH4 0x32CB6B0C EQ PUSH2 0x3FC JUMPI DUP1 PUSH4 0x42842E0E EQ PUSH2 0x427 JUMPI DUP1 PUSH4 0x42966C68 EQ PUSH2 0x450 JUMPI DUP1 PUSH4 0x47B5DD54 EQ PUSH2 0x479 JUMPI DUP1 PUSH4 0x49A5980A EQ PUSH2 0x4A4 JUMPI PUSH2 0x230 JUMP JUMPDEST DUP1 PUSH4 0x95EA7B3 GT PUSH2 0x203 JUMPI DUP1 PUSH4 0x95EA7B3 EQ PUSH2 0x317 JUMPI DUP1 PUSH4 0x17E7F295 EQ PUSH2 0x340 JUMPI DUP1 PUSH4 0x18160DDD EQ PUSH2 0x36B JUMPI DUP1 PUSH4 0x23B872DD EQ PUSH2 0x396 JUMPI DUP1 PUSH4 0x2F745C59 EQ PUSH2 0x3BF JUMPI PUSH2 0x230 JUMP JUMPDEST DUP1 PUSH4 0x1FFC9A7 EQ PUSH2 0x235 JUMPI DUP1 PUSH4 0x25E7C27 EQ PUSH2 0x272 JUMPI DUP1 PUSH4 0x6FDDE03 EQ PUSH2 0x2AF JUMPI DUP1 PUSH4 0x81812FC EQ PUSH2 0x2DA JUMPI JUMPDEST PUSH1 0x0 DUP1 REVERT JUMPDEST CALLVALUE DUP1 ISZERO PUSH2 0x241 JUMPI PUSH1 0x0 DUP1 REVERT JUMPDEST POP PUSH2 0x25C PUSH1 0x4 DUP1 CALLDATASIZE SUB DUP2 ADD SWAP1 PUSH2 0x257 SWAP2 SWAP1 PUSH2 0x2C43 JUMP JUMPDEST PUSH2 0x92A JUMP JUMPDEST PUSH1 0x40 MLOAD PUSH2 0x269 SWAP2 SWAP1 PUSH2 0x2C8B JUMP JUMPDEST PUSH1 0x40 MLOAD DUP1 SWAP2 SUB SWAP1 RETURN JUMPDEST CALLVALUE DUP1 ISZERO PUSH2 0x27E JUMPI PUSH1 0x0 DUP1 REVERT JUMPDEST POP PUSH2 0x299 PUSH1 0x4 DUP1 CALLDATASIZE SUB DUP2 ADD SWAP1 PUSH2 0x294 SWAP2 SWAP1 PUSH2 0x2CDC JUMP JUMPDEST PUSH2 0xA0C JUMP JUMPDEST PUSH1 0x40 MLOAD PUSH2 0x2A6 SWAP2 SWAP1 PUSH2 0x2D4A JUMP JUMPDEST PUSH1 0x40 MLOAD DUP1 SWAP2 SUB SWAP1 RETURN JUMPDEST CALLVALUE DUP1 ISZERO PUSH2 0x2BB JUMPI PUSH1 0x0 DUP1 REVERT JUMPDEST POP PUSH2 0x2C4 PUSH2 0xA4B JUMP JUMPDEST PUSH1 0x40 MLOAD PUSH2 0x2D1 SWAP2 SWAP1 PUSH2 0x2DF5 JUMP JUMPDEST PUSH1 0x40 MLOAD DUP1 SWAP2 SUB SWAP1 RETURN JUMPDEST CALLVALUE DUP1 ISZERO PUSH2 0x2E6 JUMPI PUSH1 0x0 DUP1 REVERT JUMPDEST POP PUSH2 0x301 PUSH1 0x4 DUP1 CALLDATASIZE SUB DUP2 ADD SWAP1 PUSH2 0x2FC SWAP2 SWAP1 PUSH2 0x2CDC JUMP JUMPDEST PUSH2 0xADD JUMP JUMPDEST PUSH1 0x40 MLOAD PUSH2 0x30E SWAP2 SWAP1 PUSH2 0x2D4A JUMP JUMPDEST PUSH1 0x40 MLOAD DUP1 SWAP2 SUB SWAP1 RETURN JUMPDEST CALLVALUE DUP1 ISZERO PUSH2 0x323 JUMPI PUSH1 0x0 DUP1 REVERT JUMPDEST POP PUSH2 0x33E PUSH1 0x4 DUP1 CALLDATASIZE SUB DUP2 ADD SWAP1 PUSH2 0x339 SWAP2 SWAP1 PUSH2 0x2E43 JUMP JUMPDEST PUSH2 0xB62 JUMP JUMPDEST STOP JUMPDEST CALLVALUE DUP1 ISZERO PUSH2 0x34C JUMPI PUSH1 0x0 DUP1 REVERT JUMPDEST POP PUSH2 0x355 PUSH2 0xC79 JUMP JUMPDEST PUSH1 0x40 MLOAD PUSH2 0x362 SWAP2 SWAP1 PUSH2 0x2E92 JUMP JUMPDEST PUSH1 0x40 MLOAD DUP1 SWAP2 SUB SWAP1 RETURN JUMPDEST CALLVALUE DUP1 ISZERO PUSH2 0x377 JUMPI PUSH1 0x0 DUP1 REVERT JUMPDEST POP PUSH2 0x380 PUSH2 0xC84 JUMP JUMPDEST PUSH1 0x40 MLOAD PUSH2 0x38D SWAP2 SWAP1 PUSH2 0x2E92 JUMP JUMPDEST PUSH1 0x40 MLOAD DUP1 SWAP2 SUB SWAP1 RETURN JUMPDEST CALLVALUE DUP1 ISZERO PUSH2 0x3A2 JUMPI PUSH1 0x0 DUP1 REVERT JUMPDEST POP PUSH2 0x3BD PUSH1 0x4 DUP1 CALLDATASIZE SUB DUP2 ADD SWAP1 PUSH2 0x3B8 SWAP2 SWAP1 PUSH2 0x2EAD JUMP JUMPDEST PUSH2 0xC9E JUMP JUMPDEST STOP JUMPDEST CALLVALUE DUP1 ISZERO PUSH2 0x3CB JUMPI PUSH1 0x0 DUP1 REVERT JUMPDEST POP PUSH2 0x3E6 PUSH1 0x4 DUP1 CALLDATASIZE SUB DUP2 ADD SWAP1 PUSH2 0x3E1 SWAP2 SWAP1 PUSH2 0x2E43 JUMP JUMPDEST PUSH2 0xCFE JUMP JUMPDEST PUSH1 0x40 MLOAD PUSH2 0x3F3 SWAP2 SWAP1 PUSH2 0x2E92 JUMP JUMPDEST PUSH1 0x40 MLOAD DUP1 SWAP2 SUB SWAP1 RETURN JUMPDEST CALLVALUE DUP1 ISZERO PUSH2 0x408 JUMPI PUSH1 0x0 DUP1 REVERT JUMPDEST POP PUSH2 0x411 PUSH2 0xDFB JUMP JUMPDEST PUSH1 0x40 MLOAD PUSH2 0x41E SWAP2 SWAP1 PUSH2 0x2E92 JUMP JUMPDEST PUSH1 0x40 MLOAD DUP1 SWAP2 SUB SWAP1 RETURN JUMPDEST CALLVALUE DUP1 ISZERO PUSH2 0x433 JUMPI PUSH1 0x0 DUP1 REVERT JUMPDEST POP PUSH2 0x44E PUSH1 0x4 DUP1 CALLDATASIZE SUB DUP2 ADD SWAP1 PUSH2 0x449 SWAP2 SWAP1 PUSH2 0x2EAD JUMP JUMPDEST PUSH2 0xE01 JUMP JUMPDEST STOP JUMPDEST CALLVALUE DUP1 ISZERO PUSH2 0x45C JUMPI PUSH1 0x0 DUP1 REVERT JUMPDEST POP PUSH2 0x477 PUSH1 0x4 DUP1 CALLDATASIZE SUB DUP2 ADD SWAP1 PUSH2 0x472 SWAP2 SWAP1 PUSH2 0x2CDC JUMP JUMPDEST PUSH2 0xE21 JUMP JUMPDEST STOP JUMPDEST CALLVALUE DUP1 ISZERO PUSH2 0x485 JUMPI PUSH1 0x0 DUP1 REVERT JUMPDEST POP PUSH2 0x48E PUSH2 0xE2D JUMP JUMPDEST PUSH1 0x40 MLOAD PUSH2 0x49B SWAP2 SWAP1 PUSH2 0x2E92 JUMP JUMPDEST PUSH1 0x40 MLOAD DUP1 SWAP2 SUB SWAP1 RETURN JUMPDEST CALLVALUE DUP1 ISZERO PUSH2 0x4B0 JUMPI PUSH1 0x0 DUP1 REVERT JUMPDEST POP PUSH2 0x4CB PUSH1 0x4 DUP1 CALLDATASIZE SUB DUP2 ADD SWAP1 PUSH2 0x4C6 SWAP2 SWAP1 PUSH2 0x2F2C JUMP JUMPDEST PUSH2 0xE33 JUMP JUMPDEST STOP JUMPDEST CALLVALUE DUP1 ISZERO PUSH2 0x4D9 JUMPI PUSH1 0x0 DUP1 REVERT JUMPDEST POP PUSH2 0x4F4 PUSH1 0x4 DUP1 CALLDATASIZE SUB DUP2 ADD SWAP1 PUSH2 0x4EF SWAP2 SWAP1 PUSH2 0x2CDC JUMP JUMPDEST PUSH2 0xECC JUMP JUMPDEST PUSH1 0x40 MLOAD PUSH2 0x501 SWAP2 SWAP1 PUSH2 0x2E92 JUMP JUMPDEST PUSH1 0x40 MLOAD DUP1 SWAP2 SUB SWAP1 RETURN JUMPDEST CALLVALUE DUP1 ISZERO PUSH2 0x516 JUMPI PUSH1 0x0 DUP1 REVERT JUMPDEST POP PUSH2 0x51F PUSH2 0xED6 JUMP JUMPDEST PUSH1 0x40 MLOAD PUSH2 0x52C SWAP2 SWAP1 PUSH2 0x2C8B JUMP JUMPDEST PUSH1 0x40 MLOAD DUP1 SWAP2 SUB SWAP1 RETURN JUMPDEST CALLVALUE DUP1 ISZERO PUSH2 0x541 JUMPI PUSH1 0x0 DUP1 REVERT JUMPDEST POP PUSH2 0x55C PUSH1 0x4 DUP1 CALLDATASIZE SUB DUP2 ADD SWAP1 PUSH2 0x557 SWAP2 SWAP1 PUSH2 0x308E JUMP JUMPDEST PUSH2 0xEE9 JUMP JUMPDEST STOP JUMPDEST CALLVALUE DUP1 ISZERO PUSH2 0x56A JUMPI PUSH1 0x0 DUP1 REVERT JUMPDEST POP PUSH2 0x573 PUSH2 0xF78 JUMP JUMPDEST PUSH1 0x40 MLOAD PUSH2 0x580 SWAP2 SWAP1 PUSH2 0x2DF5 JUMP JUMPDEST PUSH1 0x40 MLOAD DUP1 SWAP2 SUB SWAP1 RETURN JUMPDEST CALLVALUE DUP1 ISZERO PUSH2 0x595 JUMPI PUSH1 0x0 DUP1 REVERT JUMPDEST POP PUSH2 0x5B0 PUSH1 0x4 DUP1 CALLDATASIZE SUB DUP2 ADD SWAP1 PUSH2 0x5AB SWAP2 SWAP1 PUSH2 0x2CDC JUMP JUMPDEST PUSH2 0x1006 JUMP JUMPDEST PUSH1 0x40 MLOAD PUSH2 0x5BD SWAP2 SWAP1 PUSH2 0x2D4A JUMP JUMPDEST PUSH1 0x40 MLOAD DUP1 SWAP2 SUB SWAP1 RETURN JUMPDEST CALLVALUE DUP1 ISZERO PUSH2 0x5D2 JUMPI PUSH1 0x0 DUP1 REVERT JUMPDEST POP PUSH2 0x5DB PUSH2 0x109B JUMP JUMPDEST PUSH1 0x40 MLOAD PUSH2 0x5E8 SWAP2 SWAP1 PUSH2 0x2E92 JUMP JUMPDEST PUSH1 0x40 MLOAD DUP1 SWAP2 SUB SWAP1 RETURN JUMPDEST CALLVALUE DUP1 ISZERO PUSH2 0x5FD JUMPI PUSH1 0x0 DUP1 REVERT JUMPDEST POP PUSH2 0x606 PUSH2 0x10A6 JUMP JUMPDEST PUSH1 0x40 MLOAD PUSH2 0x613 SWAP2 SWAP1 PUSH2 0x2DF5 JUMP JUMPDEST PUSH1 0x40 MLOAD DUP1 SWAP2 SUB SWAP1 RETURN JUMPDEST CALLVALUE DUP1 ISZERO PUSH2 0x628 JUMPI PUSH1 0x0 DUP1 REVERT JUMPDEST POP PUSH2 0x643 PUSH1 0x4 DUP1 CALLDATASIZE SUB DUP2 ADD SWAP1 PUSH2 0x63E SWAP2 SWAP1 PUSH2 0x30D7 JUMP JUMPDEST PUSH2 0x1134 JUMP JUMPDEST PUSH1 0x40 MLOAD PUSH2 0x650 SWAP2 SWAP1 PUSH2 0x2E92 JUMP JUMPDEST PUSH1 0x40 MLOAD DUP1 SWAP2 SUB SWAP1 RETURN JUMPDEST CALLVALUE DUP1 ISZERO PUSH2 0x665 JUMPI PUSH1 0x0 DUP1 REVERT JUMPDEST POP PUSH2 0x66E PUSH2 0x1256 JUMP JUMPDEST STOP JUMPDEST CALLVALUE DUP1 ISZERO PUSH2 0x67C JUMPI PUSH1 0x0 DUP1 REVERT JUMPDEST POP PUSH2 0x697 PUSH1 0x4 DUP1 CALLDATASIZE SUB DUP2 ADD SWAP1 PUSH2 0x692 SWAP2 SWAP1 PUSH2 0x313A JUMP JUMPDEST PUSH2 0x12DE JUMP JUMPDEST STOP JUMPDEST CALLVALUE DUP1 ISZERO PUSH2 0x6A5 JUMPI PUSH1 0x0 DUP1 REVERT JUMPDEST POP PUSH2 0x6AE PUSH2 0x1364 JUMP JUMPDEST PUSH1 0x40 MLOAD PUSH2 0x6BB SWAP2 SWAP1 PUSH2 0x2D4A JUMP JUMPDEST PUSH1 0x40 MLOAD DUP1 SWAP2 SUB SWAP1 RETURN JUMPDEST CALLVALUE DUP1 ISZERO PUSH2 0x6D0 JUMPI PUSH1 0x0 DUP1 REVERT JUMPDEST POP PUSH2 0x6D9 PUSH2 0x138E JUMP JUMPDEST PUSH1 0x40 MLOAD PUSH2 0x6E6 SWAP2 SWAP1 PUSH2 0x2E92 JUMP JUMPDEST PUSH1 0x40 MLOAD DUP1 SWAP2 SUB SWAP1 RETURN JUMPDEST CALLVALUE DUP1 ISZERO PUSH2 0x6FB JUMPI PUSH1 0x0 DUP1 REVERT JUMPDEST POP PUSH2 0x704 PUSH2 0x1394 JUMP JUMPDEST PUSH1 0x40 MLOAD PUSH2 0x711 SWAP2 SWAP1 PUSH2 0x2DF5 JUMP JUMPDEST PUSH1 0x40 MLOAD DUP1 SWAP2 SUB SWAP1 RETURN JUMPDEST PUSH2 0x734 PUSH1 0x4 DUP1 CALLDATASIZE SUB DUP2 ADD SWAP1 PUSH2 0x72F SWAP2 SWAP1 PUSH2 0x2CDC JUMP JUMPDEST PUSH2 0x1426 JUMP JUMPDEST STOP JUMPDEST CALLVALUE DUP1 ISZERO PUSH2 0x742 JUMPI PUSH1 0x0 DUP1 REVERT JUMPDEST POP PUSH2 0x75D PUSH1 0x4 DUP1 CALLDATASIZE SUB DUP2 ADD SWAP1 PUSH2 0x758 SWAP2 SWAP1 PUSH2 0x3167 JUMP JUMPDEST PUSH2 0x15D8 JUMP JUMPDEST STOP JUMPDEST CALLVALUE DUP1 ISZERO PUSH2 0x76B JUMPI PUSH1 0x0 DUP1 REVERT JUMPDEST POP PUSH2 0x786 PUSH1 0x4 DUP1 CALLDATASIZE SUB DUP2 ADD SWAP1 PUSH2 0x781 SWAP2 SWAP1 PUSH2 0x3248 JUMP JUMPDEST PUSH2 0x1758 JUMP JUMPDEST STOP JUMPDEST CALLVALUE DUP1 ISZERO PUSH2 0x794 JUMPI PUSH1 0x0 DUP1 REVERT JUMPDEST POP PUSH2 0x7AF PUSH1 0x4 DUP1 CALLDATASIZE SUB DUP2 ADD SWAP1 PUSH2 0x7AA SWAP2 SWAP1 PUSH2 0x2CDC JUMP JUMPDEST PUSH2 0x17BA JUMP JUMPDEST PUSH1 0x40 MLOAD PUSH2 0x7BC SWAP2 SWAP1 PUSH2 0x2DF5 JUMP JUMPDEST PUSH1 0x40 MLOAD DUP1 SWAP2 SUB SWAP1 RETURN JUMPDEST CALLVALUE DUP1 ISZERO PUSH2 0x7D1 JUMPI PUSH1 0x0 DUP1 REVERT JUMPDEST POP PUSH2 0x7EC PUSH1 0x4 DUP1 CALLDATASIZE SUB DUP2 ADD SWAP1 PUSH2 0x7E7 SWAP2 SWAP1 PUSH2 0x2CDC JUMP JUMPDEST PUSH2 0x18DD JUMP JUMPDEST STOP JUMPDEST PUSH2 0x808 PUSH1 0x4 DUP1 CALLDATASIZE SUB DUP2 ADD SWAP1 PUSH2 0x803 SWAP2 SWAP1 PUSH2 0x332B JUMP JUMPDEST PUSH2 0x1963 JUMP JUMPDEST STOP JUMPDEST CALLVALUE DUP1 ISZERO PUSH2 0x816 JUMPI PUSH1 0x0 DUP1 REVERT JUMPDEST POP PUSH2 0x831 PUSH1 0x4 DUP1 CALLDATASIZE SUB DUP2 ADD SWAP1 PUSH2 0x82C SWAP2 SWAP1 PUSH2 0x338B JUMP JUMPDEST PUSH2 0x1BAF JUMP JUMPDEST PUSH1 0x40 MLOAD PUSH2 0x83E SWAP2 SWAP1 PUSH2 0x2C8B JUMP JUMPDEST PUSH1 0x40 MLOAD DUP1 SWAP2 SUB SWAP1 RETURN JUMPDEST CALLVALUE DUP1 ISZERO PUSH2 0x853 JUMPI PUSH1 0x0 DUP1 REVERT JUMPDEST POP PUSH2 0x85C PUSH2 0x1C43 JUMP JUMPDEST PUSH1 0x40 MLOAD PUSH2 0x869 SWAP2 SWAP1 PUSH2 0x33DA JUMP JUMPDEST PUSH1 0x40 MLOAD DUP1 SWAP2 SUB SWAP1 RETURN JUMPDEST CALLVALUE DUP1 ISZERO PUSH2 0x87E JUMPI PUSH1 0x0 DUP1 REVERT JUMPDEST POP PUSH2 0x899 PUSH1 0x4 DUP1 CALLDATASIZE SUB DUP2 ADD SWAP1 PUSH2 0x894 SWAP2 SWAP1 PUSH2 0x308E JUMP JUMPDEST PUSH2 0x1C49 JUMP JUMPDEST STOP JUMPDEST CALLVALUE DUP1 ISZERO PUSH2 0x8A7 JUMPI PUSH1 0x0 DUP1 REVERT JUMPDEST POP PUSH2 0x8C2 PUSH1 0x4 DUP1 CALLDATASIZE SUB DUP2 ADD SWAP1 PUSH2 0x8BD SWAP2 SWAP1 PUSH2 0x30D7 JUMP JUMPDEST PUSH2 0x1CD8 JUMP JUMPDEST STOP JUMPDEST CALLVALUE DUP1 ISZERO PUSH2 0x8D0 JUMPI PUSH1 0x0 DUP1 REVERT JUMPDEST POP PUSH2 0x8EB PUSH1 0x4 DUP1 CALLDATASIZE SUB DUP2 ADD SWAP1 PUSH2 0x8E6 SWAP2 SWAP1 PUSH2 0x2E43 JUMP JUMPDEST PUSH2 0x1DCF JUMP JUMPDEST STOP JUMPDEST CALLVALUE DUP1 ISZERO PUSH2 0x8F9 JUMPI PUSH1 0x0 DUP1 REVERT JUMPDEST POP PUSH2 0x914 PUSH1 0x4 DUP1 CALLDATASIZE SUB DUP2 ADD SWAP1 PUSH2 0x90F SWAP2 SWAP1 PUSH2 0x30D7 JUMP JUMPDEST PUSH2 0x1EFC JUMP JUMPDEST PUSH1 0x40 MLOAD PUSH2 0x921 SWAP2 SWAP1 PUSH2 0x2E92 JUMP JUMPDEST PUSH1 0x40 MLOAD DUP1 SWAP2 SUB SWAP1 RETURN JUMPDEST PUSH1 0x0 PUSH32 0x80AC58CD00000000000000000000000000000000000000000000000000000000 PUSH28 0xFFFFFFFFFFFFFFFFFFFFFFFFFFFFFFFFFFFFFFFFFFFFFFFFFFFFFFFF NOT AND DUP3 PUSH28 0xFFFFFFFFFFFFFFFFFFFFFFFFFFFFFFFFFFFFFFFFFFFFFFFFFFFFFFFF NOT AND EQ DUP1 PUSH2 0x9F5 JUMPI POP PUSH32 0x5B5E139F00000000000000000000000000000000000000000000000000000000 PUSH28 0xFFFFFFFFFFFFFFFFFFFFFFFFFFFFFFFFFFFFFFFFFFFFFFFFFFFFFFFF NOT AND DUP3 PUSH28 0xFFFFFFFFFFFFFFFFFFFFFFFFFFFFFFFFFFFFFFFFFFFFFFFFFFFFFFFF NOT AND EQ JUMPDEST DUP1 PUSH2 0xA05 JUMPI POP PUSH2 0xA04 DUP3 PUSH2 0x1F14 JUMP JUMPDEST JUMPDEST SWAP1 POP SWAP2 SWAP1 POP JUMP JUMPDEST PUSH1 0x2 DUP2 DUP2 SLOAD DUP2 LT PUSH2 0xA1C JUMPI PUSH1 0x0 DUP1 REVERT JUMPDEST SWAP1 PUSH1 0x0 MSTORE PUSH1 0x20 PUSH1 0x0 KECCAK256 ADD PUSH1 0x0 SWAP2 POP SLOAD SWAP1 PUSH2 0x100 EXP SWAP1 DIV PUSH20 0xFFFFFFFFFFFFFFFFFFFFFFFFFFFFFFFFFFFFFFFF AND DUP2 JUMP JUMPDEST PUSH1 0x60 PUSH1 0x0 DUP1 SLOAD PUSH2 0xA5A SWAP1 PUSH2 0x3424 JUMP JUMPDEST DUP1 PUSH1 0x1F ADD PUSH1 0x20 DUP1 SWAP2 DIV MUL PUSH1 0x20 ADD PUSH1 0x40 MLOAD SWAP1 DUP2 ADD PUSH1 0x40 MSTORE DUP1 SWAP3 SWAP2 SWAP1 DUP2 DUP2 MSTORE PUSH1 0x20 ADD DUP3 DUP1 SLOAD PUSH2 0xA86 SWAP1 PUSH2 0x3424 JUMP JUMPDEST DUP1 ISZERO PUSH2 0xAD3 JUMPI DUP1 PUSH1 0x1F LT PUSH2 0xAA8 JUMPI PUSH2 0x100 DUP1 DUP4 SLOAD DIV MUL DUP4 MSTORE SWAP2 PUSH1 0x20 ADD SWAP2 PUSH2 0xAD3 JUMP JUMPDEST DUP3 ADD SWAP2 SWAP1 PUSH1 0x0 MSTORE PUSH1 0x20 PUSH1 0x0 KECCAK256 SWAP1 JUMPDEST DUP2 SLOAD DUP2 MSTORE SWAP1 PUSH1 0x1 ADD SWAP1 PUSH1 0x20 ADD DUP1 DUP4 GT PUSH2 0xAB6 JUMPI DUP3 SWAP1 SUB PUSH1 0x1F AND DUP3 ADD SWAP2 JUMPDEST POP POP POP POP POP SWAP1 POP SWAP1 JUMP JUMPDEST PUSH1 0x0 PUSH2 0xAE8 DUP3 PUSH2 0x1F7E JUMP JUMPDEST PUSH2 0xB27 JUMPI PUSH1 0x40 MLOAD PUSH32 0x8C379A000000000000000000000000000000000000000000000000000000000 DUP2 MSTORE PUSH1 0x4 ADD PUSH2 0xB1E SWAP1 PUSH2 0x34C7 JUMP JUMPDEST PUSH1 0x40 MLOAD DUP1 SWAP2 SUB SWAP1 REVERT JUMPDEST PUSH1 0x4 PUSH1 0x0 DUP4 DUP2 MSTORE PUSH1 0x20 ADD SWAP1 DUP2 MSTORE PUSH1 0x20 ADD PUSH1 0x0 KECCAK256 PUSH1 0x0 SWAP1 SLOAD SWAP1 PUSH2 0x100 EXP SWAP1 DIV PUSH20 0xFFFFFFFFFFFFFFFFFFFFFFFFFFFFFFFFFFFFFFFF AND SWAP1 POP SWAP2 SWAP1 POP JUMP JUMPDEST PUSH1 0x0 PUSH2 0xB6D DUP3 PUSH2 0x1006 JUMP JUMPDEST SWAP1 POP DUP1 PUSH20 0xFFFFFFFFFFFFFFFFFFFFFFFFFFFFFFFFFFFFFFFF AND DUP4 PUSH20 0xFFFFFFFFFFFFFFFFFFFFFFFFFFFFFFFFFFFFFFFF AND SUB PUSH2 0xBDD JUMPI PUSH1 0x40 MLOAD PUSH32 0x8C379A000000000000000000000000000000000000000000000000000000000 DUP2 MSTORE PUSH1 0x4 ADD PUSH2 0xBD4 SWAP1 PUSH2 0x3559 JUMP JUMPDEST PUSH1 0x40 MLOAD DUP1 SWAP2 SUB SWAP1 REVERT JUMPDEST DUP1 PUSH20 0xFFFFFFFFFFFFFFFFFFFFFFFFFFFFFFFFFFFFFFFF AND PUSH2 0xBFC PUSH2 0x2006 JUMP JUMPDEST PUSH20 0xFFFFFFFFFFFFFFFFFFFFFFFFFFFFFFFFFFFFFFFF AND EQ DUP1 PUSH2 0xC2B JUMPI POP PUSH2 0xC2A DUP2 PUSH2 0xC25 PUSH2 0x2006 JUMP JUMPDEST PUSH2 0x1BAF JUMP JUMPDEST JUMPDEST PUSH2 0xC6A JUMPI PUSH1 0x40 MLOAD PUSH32 0x8C379A000000000000000000000000000000000000000000000000000000000 DUP2 MSTORE PUSH1 0x4 ADD PUSH2 0xC61 SWAP1 PUSH2 0x35EB JUMP JUMPDEST PUSH1 0x40 MLOAD DUP1 SWAP2 SUB SWAP1 REVERT JUMPDEST PUSH2 0xC74 DUP4 DUP4 PUSH2 0x200E JUMP JUMPDEST POP POP POP JUMP JUMPDEST PUSH7 0x2386F26FC10000 DUP2 JUMP JUMPDEST PUSH1 0x0 PUSH1 0x3 SLOAD PUSH1 0x2 DUP1 SLOAD SWAP1 POP PUSH2 0xC99 SWAP2 SWAP1 PUSH2 0x363A JUMP JUMPDEST SWAP1 POP SWAP1 JUMP JUMPDEST PUSH2 0xCAF PUSH2 0xCA9 PUSH2 0x2006 JUMP JUMPDEST DUP3 PUSH2 0x20C7 JUMP JUMPDEST PUSH2 0xCEE JUMPI PUSH1 0x40 MLOAD PUSH32 0x8C379A000000000000000000000000000000000000000000000000000000000 DUP2 MSTORE PUSH1 0x4 ADD PUSH2 0xCE5 SWAP1 PUSH2 0x36E0 JUMP JUMPDEST PUSH1 0x40 MLOAD DUP1 SWAP2 SUB SWAP1 REVERT JUMPDEST PUSH2 0xCF9 DUP4 DUP4 DUP4 PUSH2 0x21A5 JUMP JUMPDEST POP POP POP JUMP JUMPDEST PUSH1 0x0 DUP1 PUSH1 0x0 SWAP1 POP PUSH1 0x0 JUMPDEST PUSH1 0x2 DUP1 SLOAD SWAP1 POP DUP2 LT ISZERO PUSH2 0xDB9 JUMPI DUP5 PUSH20 0xFFFFFFFFFFFFFFFFFFFFFFFFFFFFFFFFFFFFFFFF AND PUSH1 0x2 DUP3 DUP2 SLOAD DUP2 LT PUSH2 0xD40 JUMPI PUSH2 0xD3F PUSH2 0x3700 JUMP JUMPDEST JUMPDEST SWAP1 PUSH1 0x0 MSTORE PUSH1 0x20 PUSH1 0x0 KECCAK256 ADD PUSH1 0x0 SWAP1 SLOAD SWAP1 PUSH2 0x100 EXP SWAP1 DIV PUSH20 0xFFFFFFFFFFFFFFFFFFFFFFFFFFFFFFFFFFFFFFFF AND PUSH20 0xFFFFFFFFFFFFFFFFFFFFFFFFFFFFFFFFFFFFFFFF AND SUB PUSH2 0xDA6 JUMPI DUP4 DUP3 SUB PUSH2 0xD97 JUMPI DUP1 SWAP3 POP POP POP PUSH2 0xDF5 JUMP JUMPDEST DUP2 DUP1 PUSH2 0xDA2 SWAP1 PUSH2 0x372F JUMP JUMPDEST SWAP3 POP POP JUMPDEST DUP1 DUP1 PUSH2 0xDB1 SWAP1 PUSH2 0x372F JUMP JUMPDEST SWAP2 POP POP PUSH2 0xD08 JUMP JUMPDEST POP PUSH1 0x40 MLOAD PUSH32 0x8C379A000000000000000000000000000000000000000000000000000000000 DUP2 MSTORE PUSH1 0x4 ADD PUSH2 0xDEC SWAP1 PUSH2 0x37C3 JUMP JUMPDEST PUSH1 0x40 MLOAD DUP1 SWAP2 SUB SWAP1 REVERT JUMPDEST SWAP3 SWAP2 POP POP JUMP JUMPDEST PUSH2 0x2710 DUP2 JUMP JUMPDEST PUSH2 0xE1C DUP4 DUP4 DUP4 PUSH1 0x40 MLOAD DUP1 PUSH1 0x20 ADD PUSH1 0x40 MSTORE DUP1 PUSH1 0x0 DUP2 MSTORE POP PUSH2 0x1758 JUMP JUMPDEST POP POP POP JUMP JUMPDEST PUSH2 0xE2A DUP2 PUSH2 0x2352 JUMP JUMPDEST POP JUMP JUMPDEST PUSH1 0x3 SLOAD DUP2 JUMP JUMPDEST PUSH2 0xE3B PUSH2 0x2006 JUMP JUMPDEST PUSH20 0xFFFFFFFFFFFFFFFFFFFFFFFFFFFFFFFFFFFFFFFF AND PUSH2 0xE59 PUSH2 0x1364 JUMP JUMPDEST PUSH20 0xFFFFFFFFFFFFFFFFFFFFFFFFFFFFFFFFFFFFFFFF AND EQ PUSH2 0xEAF JUMPI PUSH1 0x40 MLOAD PUSH32 0x8C379A000000000000000000000000000000000000000000000000000000000 DUP2 MSTORE PUSH1 0x4 ADD PUSH2 0xEA6 SWAP1 PUSH2 0x382F JUMP JUMPDEST PUSH1 0x40 MLOAD DUP1 SWAP2 SUB SWAP1 REVERT JUMPDEST DUP1 PUSH1 0x8 PUSH1 0x0 PUSH2 0x100 EXP DUP2 SLOAD DUP2 PUSH1 0xFF MUL NOT AND SWAP1 DUP4 ISZERO ISZERO MUL OR SWAP1 SSTORE POP POP JUMP JUMPDEST PUSH1 0x0 DUP2 SWAP1 POP SWAP2 SWAP1 POP JUMP JUMPDEST PUSH1 0x8 PUSH1 0x0 SWAP1 SLOAD SWAP1 PUSH2 0x100 EXP SWAP1 DIV PUSH1 0xFF AND DUP2 JUMP JUMPDEST PUSH2 0xEF1 PUSH2 0x2006 JUMP JUMPDEST PUSH20 0xFFFFFFFFFFFFFFFFFFFFFFFFFFFFFFFFFFFFFFFF AND PUSH2 0xF0F PUSH2 0x1364 JUMP JUMPDEST PUSH20 0xFFFFFFFFFFFFFFFFFFFFFFFFFFFFFFFFFFFFFFFF AND EQ PUSH2 0xF65 JUMPI PUSH1 0x40 MLOAD PUSH32 0x8C379A000000000000000000000000000000000000000000000000000000000 DUP2 MSTORE PUSH1 0x4 ADD PUSH2 0xF5C SWAP1 PUSH2 0x382F JUMP JUMPDEST PUSH1 0x40 MLOAD DUP1 SWAP2 SUB SWAP1 REVERT JUMPDEST DUP1 PUSH1 0x9 SWAP1 DUP2 PUSH2 0xF74 SWAP2 SWAP1 PUSH2 0x39FB JUMP JUMPDEST POP POP JUMP JUMPDEST PUSH1 0xA DUP1 SLOAD PUSH2 0xF85 SWAP1 PUSH2 0x3424 JUMP JUMPDEST DUP1 PUSH1 0x1F ADD PUSH1 0x20 DUP1 SWAP2 DIV MUL PUSH1 0x20 ADD PUSH1 0x40 MLOAD SWAP1 DUP2 ADD PUSH1 0x40 MSTORE DUP1 SWAP3 SWAP2 SWAP1 DUP2 DUP2 MSTORE PUSH1 0x20 ADD DUP3 DUP1 SLOAD PUSH2 0xFB1 SWAP1 PUSH2 0x3424 JUMP JUMPDEST DUP1 ISZERO PUSH2 0xFFE JUMPI DUP1 PUSH1 0x1F LT PUSH2 0xFD3 JUMPI PUSH2 0x100 DUP1 DUP4 SLOAD DIV MUL DUP4 MSTORE SWAP2 PUSH1 0x20 ADD SWAP2 PUSH2 0xFFE JUMP JUMPDEST DUP3 ADD SWAP2 SWAP1 PUSH1 0x0 MSTORE PUSH1 0x20 PUSH1 0x0 KECCAK256 SWAP1 JUMPDEST DUP2 SLOAD DUP2 MSTORE SWAP1 PUSH1 0x1 ADD SWAP1 PUSH1 0x20 ADD DUP1 DUP4 GT PUSH2 0xFE1 JUMPI DUP3 SWAP1 SUB PUSH1 0x1F AND DUP3 ADD SWAP2 JUMPDEST POP POP POP POP POP DUP2 JUMP JUMPDEST PUSH1 0x0 PUSH1 0x2 DUP1 SLOAD SWAP1 POP DUP3 LT PUSH2 0x104F JUMPI PUSH1 0x40 MLOAD PUSH32 0x8C379A000000000000000000000000000000000000000000000000000000000 DUP2 MSTORE PUSH1 0x4 ADD PUSH2 0x1046 SWAP1 PUSH2 0x3B3F JUMP JUMPDEST PUSH1 0x40 MLOAD DUP1 SWAP2 SUB SWAP1 REVERT JUMPDEST PUSH1 0x0 PUSH1 0x2 DUP4 DUP2 SLOAD DUP2 LT PUSH2 0x1065 JUMPI PUSH2 0x1064 PUSH2 0x3700 JUMP JUMPDEST JUMPDEST SWAP1 PUSH1 0x0 MSTORE PUSH1 0x20 PUSH1 0x0 KECCAK256 ADD PUSH1 0x0 SWAP1 SLOAD SWAP1 PUSH2 0x100 EXP SWAP1 DIV PUSH20 0xFFFFFFFFFFFFFFFFFFFFFFFFFFFFFFFFFFFFFFFF AND SWAP1 POP DUP1 SWAP2 POP POP SWAP2 SWAP1 POP JUMP JUMPDEST PUSH7 0x38D7EA4C68000 DUP2 JUMP JUMPDEST PUSH1 0x9 DUP1 SLOAD PUSH2 0x10B3 SWAP1 PUSH2 0x3424 JUMP JUMPDEST DUP1 PUSH1 0x1F ADD PUSH1 0x20 DUP1 SWAP2 DIV MUL PUSH1 0x20 ADD PUSH1 0x40 MLOAD SWAP1 DUP2 ADD PUSH1 0x40 MSTORE DUP1 SWAP3 SWAP2 SWAP1 DUP2 DUP2 MSTORE PUSH1 0x20 ADD DUP3 DUP1 SLOAD PUSH2 0x10DF SWAP1 PUSH2 0x3424 JUMP JUMPDEST DUP1 ISZERO PUSH2 0x112C JUMPI DUP1 PUSH1 0x1F LT PUSH2 0x1101 JUMPI PUSH2 0x100 DUP1 DUP4 SLOAD DIV MUL DUP4 MSTORE SWAP2 PUSH1 0x20 ADD SWAP2 PUSH2 0x112C JUMP JUMPDEST DUP3 ADD SWAP2 SWAP1 PUSH1 0x0 MSTORE PUSH1 0x20 PUSH1 0x0 KECCAK256 SWAP1 JUMPDEST DUP2 SLOAD DUP2 MSTORE SWAP1 PUSH1 0x1 ADD SWAP1 PUSH1 0x20 ADD DUP1 DUP4 GT PUSH2 0x110F JUMPI DUP3 SWAP1 SUB PUSH1 0x1F AND DUP3 ADD SWAP2 JUMPDEST POP POP POP POP POP DUP2 JUMP JUMPDEST PUSH1 0x0 DUP1 PUSH20 0xFFFFFFFFFFFFFFFFFFFFFFFFFFFFFFFFFFFFFFFF AND DUP3 PUSH20 0xFFFFFFFFFFFFFFFFFFFFFFFFFFFFFFFFFFFFFFFF AND SUB PUSH2 0x11A4 JUMPI PUSH1 0x40 MLOAD PUSH32 0x8C379A000000000000000000000000000000000000000000000000000000000 DUP2 MSTORE PUSH1 0x4 ADD PUSH2 0x119B SWAP1 PUSH2 0x3BD1 JUMP JUMPDEST PUSH1 0x40 MLOAD DUP1 SWAP2 SUB SWAP1 REVERT JUMPDEST PUSH1 0x0 DUP1 PUSH1 0x0 SWAP1 POP JUMPDEST PUSH1 0x2 DUP1 SLOAD SWAP1 POP DUP2 LT ISZERO PUSH2 0x124C JUMPI PUSH1 0x2 DUP2 DUP2 SLOAD DUP2 LT PUSH2 0x11CD JUMPI PUSH2 0x11CC PUSH2 0x3700 JUMP JUMPDEST JUMPDEST SWAP1 PUSH1 0x0 MSTORE PUSH1 0x20 PUSH1 0x0 KECCAK256 ADD PUSH1 0x0 SWAP1 SLOAD SWAP1 PUSH2 0x100 EXP SWAP1 DIV PUSH20 0xFFFFFFFFFFFFFFFFFFFFFFFFFFFFFFFFFFFFFFFF AND PUSH20 0xFFFFFFFFFFFFFFFFFFFFFFFFFFFFFFFFFFFFFFFF AND DUP5 PUSH20 0xFFFFFFFFFFFFFFFFFFFFFFFFFFFFFFFFFFFFFFFF AND SUB PUSH2 0x1239 JUMPI DUP2 DUP1 PUSH2 0x1235 SWAP1 PUSH2 0x372F JUMP JUMPDEST SWAP3 POP POP JUMPDEST DUP1 DUP1 PUSH2 0x1244 SWAP1 PUSH2 0x372F JUMP JUMPDEST SWAP2 POP POP PUSH2 0x11AC JUMP JUMPDEST POP DUP1 SWAP2 POP POP SWAP2 SWAP1 POP JUMP JUMPDEST PUSH2 0x125E PUSH2 0x2006 JUMP JUMPDEST PUSH20 0xFFFFFFFFFFFFFFFFFFFFFFFFFFFFFFFFFFFFFFFF AND PUSH2 0x127C PUSH2 0x1364 JUMP JUMPDEST PUSH20 0xFFFFFFFFFFFFFFFFFFFFFFFFFFFFFFFFFFFFFFFF AND EQ PUSH2 0x12D2 JUMPI PUSH1 0x40 MLOAD PUSH32 0x8C379A000000000000000000000000000000000000000000000000000000000 DUP2 MSTORE PUSH1 0x4 ADD PUSH2 0x12C9 SWAP1 PUSH2 0x382F JUMP JUMPDEST PUSH1 0x40 MLOAD DUP1 SWAP2 SUB SWAP1 REVERT JUMPDEST PUSH2 0x12DC PUSH1 0x0 PUSH2 0x24CD JUMP JUMPDEST JUMP JUMPDEST PUSH2 0x12E6 PUSH2 0x2006 JUMP JUMPDEST PUSH20 0xFFFFFFFFFFFFFFFFFFFFFFFFFFFFFFFFFFFFFFFF AND PUSH2 0x1304 PUSH2 0x1364 JUMP JUMPDEST PUSH20 0xFFFFFFFFFFFFFFFFFFFFFFFFFFFFFFFFFFFFFFFF AND EQ PUSH2 0x135A JUMPI PUSH1 0x40 MLOAD PUSH32 0x8C379A000000000000000000000000000000000000000000000000000000000 DUP2 MSTORE PUSH1 0x4 ADD PUSH2 0x1351 SWAP1 PUSH2 0x382F JUMP JUMPDEST PUSH1 0x40 MLOAD DUP1 SWAP2 SUB SWAP1 REVERT JUMPDEST DUP1 PUSH1 0xC DUP2 SWAP1 SSTORE POP POP JUMP JUMPDEST PUSH1 0x0 PUSH1 0x6 PUSH1 0x0 SWAP1 SLOAD SWAP1 PUSH2 0x100 EXP SWAP1 DIV PUSH20 0xFFFFFFFFFFFFFFFFFFFFFFFFFFFFFFFFFFFFFFFF AND SWAP1 POP SWAP1 JUMP JUMPDEST PUSH1 0x7 SLOAD DUP2 JUMP JUMPDEST PUSH1 0x60 PUSH1 0x1 DUP1 SLOAD PUSH2 0x13A3 SWAP1 PUSH2 0x3424 JUMP JUMPDEST DUP1 PUSH1 0x1F ADD PUSH1 0x20 DUP1 SWAP2 DIV MUL PUSH1 0x20 ADD PUSH1 0x40 MLOAD SWAP1 DUP2 ADD PUSH1 0x40 MSTORE DUP1 SWAP3 SWAP2 SWAP1 DUP2 DUP2 MSTORE PUSH1 0x20 ADD DUP3 DUP1 SLOAD PUSH2 0x13CF SWAP1 PUSH2 0x3424 JUMP JUMPDEST DUP1 ISZERO PUSH2 0x141C JUMPI DUP1 PUSH1 0x1F LT PUSH2 0x13F1 JUMPI PUSH2 0x100 DUP1 DUP4 SLOAD DIV MUL DUP4 MSTORE SWAP2 PUSH1 0x20 ADD SWAP2 PUSH2 0x141C JUMP JUMPDEST DUP3 ADD SWAP2 SWAP1 PUSH1 0x0 MSTORE PUSH1 0x20 PUSH1 0x0 KECCAK256 SWAP1 JUMPDEST DUP2 SLOAD DUP2 MSTORE SWAP1 PUSH1 0x1 ADD SWAP1 PUSH1 0x20 ADD DUP1 DUP4 GT PUSH2 0x13FF JUMPI DUP3 SWAP1 SUB PUSH1 0x1F AND DUP3 ADD SWAP2 JUMPDEST POP POP POP POP POP SWAP1 POP SWAP1 JUMP JUMPDEST PUSH7 0x38D7EA4C68000 DUP2 PUSH2 0x1439 SWAP2 SWAP1 PUSH2 0x3BF1 JUMP JUMPDEST CALLVALUE EQ PUSH2 0x147A JUMPI PUSH1 0x40 MLOAD PUSH32 0x8C379A000000000000000000000000000000000000000000000000000000000 DUP2 MSTORE PUSH1 0x4 ADD PUSH2 0x1471 SWAP1 PUSH2 0x3C7F JUMP JUMPDEST PUSH1 0x40 MLOAD DUP1 SWAP2 SUB SWAP1 REVERT JUMPDEST PUSH2 0x2710 DUP2 PUSH1 0x2 DUP1 SLOAD SWAP1 POP PUSH2 0x148E SWAP2 SWAP1 PUSH2 0x3C9F JUMP JUMPDEST GT ISZERO PUSH2 0x14CF JUMPI PUSH1 0x40 MLOAD PUSH32 0x8C379A000000000000000000000000000000000000000000000000000000000 DUP2 MSTORE PUSH1 0x4 ADD PUSH2 0x14C6 SWAP1 PUSH2 0x3D1F JUMP JUMPDEST PUSH1 0x40 MLOAD DUP1 SWAP2 SUB SWAP1 REVERT JUMPDEST DUP1 PUSH1 0xB PUSH1 0x0 CALLER PUSH20 0xFFFFFFFFFFFFFFFFFFFFFFFFFFFFFFFFFFFFFFFF AND PUSH20 0xFFFFFFFFFFFFFFFFFFFFFFFFFFFFFFFFFFFFFFFF AND DUP2 MSTORE PUSH1 0x20 ADD SWAP1 DUP2 MSTORE PUSH1 0x20 ADD PUSH1 0x0 KECCAK256 PUSH1 0x0 DUP3 DUP3 SLOAD PUSH2 0x151E SWAP2 SWAP1 PUSH2 0x3C9F JUMP JUMPDEST SWAP3 POP POP DUP2 SWAP1 SSTORE POP PUSH1 0x3 PUSH1 0xB PUSH1 0x0 CALLER PUSH20 0xFFFFFFFFFFFFFFFFFFFFFFFFFFFFFFFFFFFFFFFF AND PUSH20 0xFFFFFFFFFFFFFFFFFFFFFFFFFFFFFFFFFFFFFFFF AND DUP2 MSTORE PUSH1 0x20 ADD SWAP1 DUP2 MSTORE PUSH1 0x20 ADD PUSH1 0x0 KECCAK256 SLOAD LT PUSH2 0x15A7 JUMPI PUSH1 0x40 MLOAD PUSH32 0x8C379A000000000000000000000000000000000000000000000000000000000 DUP2 MSTORE PUSH1 0x4 ADD PUSH2 0x159E SWAP1 PUSH2 0x3D8B JUMP JUMPDEST PUSH1 0x40 MLOAD DUP1 SWAP2 SUB SWAP1 REVERT JUMPDEST PUSH1 0x0 JUMPDEST DUP2 DUP2 LT ISZERO PUSH2 0x15D4 JUMPI PUSH2 0x15C1 CALLER PUSH1 0x2 DUP1 SLOAD SWAP1 POP PUSH2 0x2593 JUMP JUMPDEST DUP1 DUP1 PUSH2 0x15CC SWAP1 PUSH2 0x372F JUMP JUMPDEST SWAP2 POP POP PUSH2 0x15AA JUMP JUMPDEST POP POP JUMP JUMPDEST PUSH2 0x15E0 PUSH2 0x2006 JUMP JUMPDEST PUSH20 0xFFFFFFFFFFFFFFFFFFFFFFFFFFFFFFFFFFFFFFFF AND DUP3 PUSH20 0xFFFFFFFFFFFFFFFFFFFFFFFFFFFFFFFFFFFFFFFF AND SUB PUSH2 0x164D JUMPI PUSH1 0x40 MLOAD PUSH32 0x8C379A000000000000000000000000000000000000000000000000000000000 DUP2 MSTORE PUSH1 0x4 ADD PUSH2 0x1644 SWAP1 PUSH2 0x3DF7 JUMP JUMPDEST PUSH1 0x40 MLOAD DUP1 SWAP2 SUB SWAP1 REVERT JUMPDEST DUP1 PUSH1 0x5 PUSH1 0x0 PUSH2 0x165A PUSH2 0x2006 JUMP JUMPDEST PUSH20 0xFFFFFFFFFFFFFFFFFFFFFFFFFFFFFFFFFFFFFFFF AND PUSH20 0xFFFFFFFFFFFFFFFFFFFFFFFFFFFFFFFFFFFFFFFF AND DUP2 MSTORE PUSH1 0x20 ADD SWAP1 DUP2 MSTORE PUSH1 0x20 ADD PUSH1 0x0 KECCAK256 PUSH1 0x0 DUP5 PUSH20 0xFFFFFFFFFFFFFFFFFFFFFFFFFFFFFFFFFFFFFFFF AND PUSH20 0xFFFFFFFFFFFFFFFFFFFFFFFFFFFFFFFFFFFFFFFF AND DUP2 MSTORE PUSH1 0x20 ADD SWAP1 DUP2 MSTORE PUSH1 0x20 ADD PUSH1 0x0 KECCAK256 PUSH1 0x0 PUSH2 0x100 EXP DUP2 SLOAD DUP2 PUSH1 0xFF MUL NOT AND SWAP1 DUP4 ISZERO ISZERO MUL OR SWAP1 SSTORE POP DUP2 PUSH20 0xFFFFFFFFFFFFFFFFFFFFFFFFFFFFFFFFFFFFFFFF AND PUSH2 0x1707 PUSH2 0x2006 JUMP JUMPDEST PUSH20 0xFFFFFFFFFFFFFFFFFFFFFFFFFFFFFFFFFFFFFFFF AND PUSH32 0x17307EAB39AB6107E8899845AD3D59BD9653F200F220920489CA2B5937696C31 DUP4 PUSH1 0x40 MLOAD PUSH2 0x174C SWAP2 SWAP1 PUSH2 0x2C8B JUMP JUMPDEST PUSH1 0x40 MLOAD DUP1 SWAP2 SUB SWAP1 LOG3 POP POP JUMP JUMPDEST PUSH2 0x1769 PUSH2 0x1763 PUSH2 0x2006 JUMP JUMPDEST DUP4 PUSH2 0x20C7 JUMP JUMPDEST PUSH2 0x17A8 JUMPI PUSH1 0x40 MLOAD PUSH32 0x8C379A000000000000000000000000000000000000000000000000000000000 DUP2 MSTORE PUSH1 0x4 ADD PUSH2 0x179F SWAP1 PUSH2 0x36E0 JUMP JUMPDEST PUSH1 0x40 MLOAD DUP1 SWAP2 SUB SWAP1 REVERT JUMPDEST PUSH2 0x17B4 DUP5 DUP5 DUP5 DUP5 PUSH2 0x25B1 JUMP JUMPDEST POP POP POP POP JUMP JUMPDEST PUSH1 0x60 PUSH2 0x17C5 DUP3 PUSH2 0x1F7E JUMP JUMPDEST PUSH2 0x1804 JUMPI PUSH1 0x40 MLOAD PUSH32 0x8C379A000000000000000000000000000000000000000000000000000000000 DUP2 MSTORE PUSH1 0x4 ADD PUSH2 0x17FB SWAP1 PUSH2 0x3E89 JUMP JUMPDEST PUSH1 0x40 MLOAD DUP1 SWAP2 SUB SWAP1 REVERT JUMPDEST PUSH1 0x8 PUSH1 0x0 SWAP1 SLOAD SWAP1 PUSH2 0x100 EXP SWAP1 DIV PUSH1 0xFF AND PUSH2 0x18AA JUMPI PUSH1 0xA DUP1 SLOAD PUSH2 0x1825 SWAP1 PUSH2 0x3424 JUMP JUMPDEST DUP1 PUSH1 0x1F ADD PUSH1 0x20 DUP1 SWAP2 DIV MUL PUSH1 0x20 ADD PUSH1 0x40 MLOAD SWAP1 DUP2 ADD PUSH1 0x40 MSTORE DUP1 SWAP3 SWAP2 SWAP1 DUP2 DUP2 MSTORE PUSH1 0x20 ADD DUP3 DUP1 SLOAD PUSH2 0x1851 SWAP1 PUSH2 0x3424 JUMP JUMPDEST DUP1 ISZERO PUSH2 0x189E JUMPI DUP1 PUSH1 0x1F LT PUSH2 0x1873 JUMPI PUSH2 0x100 DUP1 DUP4 SLOAD DIV MUL DUP4 MSTORE SWAP2 PUSH1 0x20 ADD SWAP2 PUSH2 0x189E JUMP JUMPDEST DUP3 ADD SWAP2 SWAP1 PUSH1 0x0 MSTORE PUSH1 0x20 PUSH1 0x0 KECCAK256 SWAP1 JUMPDEST DUP2 SLOAD DUP2 MSTORE SWAP1 PUSH1 0x1 ADD SWAP1 PUSH1 0x20 ADD DUP1 DUP4 GT PUSH2 0x1881 JUMPI DUP3 SWAP1 SUB PUSH1 0x1F AND DUP3 ADD SWAP2 JUMPDEST POP POP POP POP POP SWAP1 POP PUSH2 0x18D8 JUMP JUMPDEST PUSH1 0x9 PUSH2 0x18B5 DUP4 PUSH2 0x260D JUMP JUMPDEST PUSH1 0x40 MLOAD PUSH1 0x20 ADD PUSH2 0x18C6 SWAP3 SWAP2 SWAP1 PUSH2 0x3FB4 JUMP JUMPDEST PUSH1 0x40 MLOAD PUSH1 0x20 DUP2 DUP4 SUB SUB DUP2 MSTORE SWAP1 PUSH1 0x40 MSTORE SWAP1 POP JUMPDEST SWAP2 SWAP1 POP JUMP JUMPDEST PUSH2 0x18E5 PUSH2 0x2006 JUMP JUMPDEST PUSH20 0xFFFFFFFFFFFFFFFFFFFFFFFFFFFFFFFFFFFFFFFF AND PUSH2 0x1903 PUSH2 0x1364 JUMP JUMPDEST PUSH20 0xFFFFFFFFFFFFFFFFFFFFFFFFFFFFFFFFFFFFFFFF AND EQ PUSH2 0x1959 JUMPI PUSH1 0x40 MLOAD PUSH32 0x8C379A000000000000000000000000000000000000000000000000000000000 DUP2 MSTORE PUSH1 0x4 ADD PUSH2 0x1950 SWAP1 PUSH2 0x382F JUMP JUMPDEST PUSH1 0x40 MLOAD DUP1 SWAP2 SUB SWAP1 REVERT JUMPDEST DUP1 PUSH1 0x7 DUP2 SWAP1 SSTORE POP POP JUMP JUMPDEST PUSH1 0x0 CALLER SWAP1 POP PUSH2 0x19BB PUSH2 0x1974 DUP3 PUSH2 0x276D JUMP JUMPDEST DUP5 DUP5 DUP1 DUP1 PUSH1 0x20 MUL PUSH1 0x20 ADD PUSH1 0x40 MLOAD SWAP1 DUP2 ADD PUSH1 0x40 MSTORE DUP1 SWAP4 SWAP3 SWAP2 SWAP1 DUP2 DUP2 MSTORE PUSH1 0x20 ADD DUP4 DUP4 PUSH1 0x20 MUL DUP1 DUP3 DUP5 CALLDATACOPY PUSH1 0x0 DUP2 DUP5 ADD MSTORE PUSH1 0x1F NOT PUSH1 0x1F DUP3 ADD AND SWAP1 POP DUP1 DUP4 ADD SWAP3 POP POP POP POP POP POP POP PUSH2 0x279D JUMP JUMPDEST PUSH2 0x19FA JUMPI PUSH1 0x40 MLOAD PUSH32 0x8C379A000000000000000000000000000000000000000000000000000000000 DUP2 MSTORE PUSH1 0x4 ADD PUSH2 0x19F1 SWAP1 PUSH2 0x402F JUMP JUMPDEST PUSH1 0x40 MLOAD DUP1 SWAP2 SUB SWAP1 REVERT JUMPDEST PUSH7 0x2386F26FC10000 DUP5 PUSH2 0x1A0D SWAP2 SWAP1 PUSH2 0x3BF1 JUMP JUMPDEST CALLVALUE EQ PUSH2 0x1A4E JUMPI PUSH1 0x40 MLOAD PUSH32 0x8C379A000000000000000000000000000000000000000000000000000000000 DUP2 MSTORE PUSH1 0x4 ADD PUSH2 0x1A45 SWAP1 PUSH2 0x3C7F JUMP JUMPDEST PUSH1 0x40 MLOAD DUP1 SWAP2 SUB SWAP1 REVERT JUMPDEST PUSH2 0x2710 DUP5 PUSH1 0x2 DUP1 SLOAD SWAP1 POP PUSH2 0x1A62 SWAP2 SWAP1 PUSH2 0x3C9F JUMP JUMPDEST GT ISZERO PUSH2 0x1AA3 JUMPI PUSH1 0x40 MLOAD PUSH32 0x8C379A000000000000000000000000000000000000000000000000000000000 DUP2 MSTORE PUSH1 0x4 ADD PUSH2 0x1A9A SWAP1 PUSH2 0x3D1F JUMP JUMPDEST PUSH1 0x40 MLOAD DUP1 SWAP2 SUB SWAP1 REVERT JUMPDEST DUP4 PUSH1 0xB PUSH1 0x0 CALLER PUSH20 0xFFFFFFFFFFFFFFFFFFFFFFFFFFFFFFFFFFFFFFFF AND PUSH20 0xFFFFFFFFFFFFFFFFFFFFFFFFFFFFFFFFFFFFFFFF AND DUP2 MSTORE PUSH1 0x20 ADD SWAP1 DUP2 MSTORE PUSH1 0x20 ADD PUSH1 0x0 KECCAK256 PUSH1 0x0 DUP3 DUP3 SLOAD PUSH2 0x1AF2 SWAP2 SWAP1 PUSH2 0x3C9F JUMP JUMPDEST SWAP3 POP POP DUP2 SWAP1 SSTORE POP PUSH1 0x3 PUSH1 0xB PUSH1 0x0 DUP4 PUSH20 0xFFFFFFFFFFFFFFFFFFFFFFFFFFFFFFFFFFFFFFFF AND PUSH20 0xFFFFFFFFFFFFFFFFFFFFFFFFFFFFFFFFFFFFFFFF AND DUP2 MSTORE PUSH1 0x20 ADD SWAP1 DUP2 MSTORE PUSH1 0x20 ADD PUSH1 0x0 KECCAK256 SLOAD LT PUSH2 0x1B7B JUMPI PUSH1 0x40 MLOAD PUSH32 0x8C379A000000000000000000000000000000000000000000000000000000000 DUP2 MSTORE PUSH1 0x4 ADD PUSH2 0x1B72 SWAP1 PUSH2 0x3D8B JUMP JUMPDEST PUSH1 0x40 MLOAD DUP1 SWAP2 SUB SWAP1 REVERT JUMPDEST PUSH1 0x0 JUMPDEST DUP5 DUP2 LT ISZERO PUSH2 0x1BA8 JUMPI PUSH2 0x1B95 DUP3 PUSH1 0x2 DUP1 SLOAD SWAP1 POP PUSH2 0x2593 JUMP JUMPDEST DUP1 DUP1 PUSH2 0x1BA0 SWAP1 PUSH2 0x372F JUMP JUMPDEST SWAP2 POP POP PUSH2 0x1B7E JUMP JUMPDEST POP POP POP POP POP JUMP JUMPDEST PUSH1 0x0 PUSH1 0x5 PUSH1 0x0 DUP5 PUSH20 0xFFFFFFFFFFFFFFFFFFFFFFFFFFFFFFFFFFFFFFFF AND PUSH20 0xFFFFFFFFFFFFFFFFFFFFFFFFFFFFFFFFFFFFFFFF AND DUP2 MSTORE PUSH1 0x20 ADD SWAP1 DUP2 MSTORE PUSH1 0x20 ADD PUSH1 0x0 KECCAK256 PUSH1 0x0 DUP4 PUSH20 0xFFFFFFFFFFFFFFFFFFFFFFFFFFFFFFFFFFFFFFFF AND PUSH20 0xFFFFFFFFFFFFFFFFFFFFFFFFFFFFFFFFFFFFFFFF AND DUP2 MSTORE PUSH1 0x20 ADD SWAP1 DUP2 MSTORE PUSH1 0x20 ADD PUSH1 0x0 KECCAK256 PUSH1 0x0 SWAP1 SLOAD SWAP1 PUSH2 0x100 EXP SWAP1 DIV PUSH1 0xFF AND SWAP1 POP SWAP3 SWAP2 POP POP JUMP JUMPDEST PUSH1 0xC SLOAD DUP2 JUMP JUMPDEST PUSH2 0x1C51 PUSH2 0x2006 JUMP JUMPDEST PUSH20 0xFFFFFFFFFFFFFFFFFFFFFFFFFFFFFFFFFFFFFFFF AND PUSH2 0x1C6F PUSH2 0x1364 JUMP JUMPDEST PUSH20 0xFFFFFFFFFFFFFFFFFFFFFFFFFFFFFFFFFFFFFFFF AND EQ PUSH2 0x1CC5 JUMPI PUSH1 0x40 MLOAD PUSH32 0x8C379A000000000000000000000000000000000000000000000000000000000 DUP2 MSTORE PUSH1 0x4 ADD PUSH2 0x1CBC SWAP1 PUSH2 0x382F JUMP JUMPDEST PUSH1 0x40 MLOAD DUP1 SWAP2 SUB SWAP1 REVERT JUMPDEST DUP1 PUSH1 0xA SWAP1 DUP2 PUSH2 0x1CD4 SWAP2 SWAP1 PUSH2 0x39FB JUMP JUMPDEST POP POP JUMP JUMPDEST PUSH2 0x1CE0 PUSH2 0x2006 JUMP JUMPDEST PUSH20 0xFFFFFFFFFFFFFFFFFFFFFFFFFFFFFFFFFFFFFFFF AND PUSH2 0x1CFE PUSH2 0x1364 JUMP JUMPDEST PUSH20 0xFFFFFFFFFFFFFFFFFFFFFFFFFFFFFFFFFFFFFFFF AND EQ PUSH2 0x1D54 JUMPI PUSH1 0x40 MLOAD PUSH32 0x8C379A000000000000000000000000000000000000000000000000000000000 DUP2 MSTORE PUSH1 0x4 ADD PUSH2 0x1D4B SWAP1 PUSH2 0x382F JUMP JUMPDEST PUSH1 0x40 MLOAD DUP1 SWAP2 SUB SWAP1 REVERT JUMPDEST PUSH1 0x0 PUSH20 0xFFFFFFFFFFFFFFFFFFFFFFFFFFFFFFFFFFFFFFFF AND DUP2 PUSH20 0xFFFFFFFFFFFFFFFFFFFFFFFFFFFFFFFFFFFFFFFF AND SUB PUSH2 0x1DC3 JUMPI PUSH1 0x40 MLOAD PUSH32 0x8C379A000000000000000000000000000000000000000000000000000000000 DUP2 MSTORE PUSH1 0x4 ADD PUSH2 0x1DBA SWAP1 PUSH2 0x40C1 JUMP JUMPDEST PUSH1 0x40 MLOAD DUP1 SWAP2 SUB SWAP1 REVERT JUMPDEST PUSH2 0x1DCC DUP2 PUSH2 0x24CD JUMP JUMPDEST POP JUMP JUMPDEST PUSH2 0x1DD7 PUSH2 0x2006 JUMP JUMPDEST PUSH20 0xFFFFFFFFFFFFFFFFFFFFFFFFFFFFFFFFFFFFFFFF AND PUSH2 0x1DF5 PUSH2 0x1364 JUMP JUMPDEST PUSH20 0xFFFFFFFFFFFFFFFFFFFFFFFFFFFFFFFFFFFFFFFF AND EQ PUSH2 0x1E4B JUMPI PUSH1 0x40 MLOAD PUSH32 0x8C379A000000000000000000000000000000000000000000000000000000000 DUP2 MSTORE PUSH1 0x4 ADD PUSH2 0x1E42 SWAP1 PUSH2 0x382F JUMP JUMPDEST PUSH1 0x40 MLOAD DUP1 SWAP2 SUB SWAP1 REVERT JUMPDEST PUSH1 0x0 DUP3 PUSH20 0xFFFFFFFFFFFFFFFFFFFFFFFFFFFFFFFFFFFFFFFF AND DUP3 PUSH1 0x40 MLOAD PUSH2 0x1E71 SWAP1 PUSH2 0x4112 JUMP JUMPDEST PUSH1 0x0 PUSH1 0x40 MLOAD DUP1 DUP4 SUB DUP2 DUP6 DUP8 GAS CALL SWAP3 POP POP POP RETURNDATASIZE DUP1 PUSH1 0x0 DUP2 EQ PUSH2 0x1EAE JUMPI PUSH1 0x40 MLOAD SWAP2 POP PUSH1 0x1F NOT PUSH1 0x3F RETURNDATASIZE ADD AND DUP3 ADD PUSH1 0x40 MSTORE RETURNDATASIZE DUP3 MSTORE RETURNDATASIZE PUSH1 0x0 PUSH1 0x20 DUP5 ADD RETURNDATACOPY PUSH2 0x1EB3 JUMP JUMPDEST PUSH1 0x60 SWAP2 POP JUMPDEST POP POP SWAP1 POP DUP1 PUSH2 0x1EF7 JUMPI PUSH1 0x40 MLOAD PUSH32 0x8C379A000000000000000000000000000000000000000000000000000000000 DUP2 MSTORE PUSH1 0x4 ADD PUSH2 0x1EEE SWAP1 PUSH2 0x4173 JUMP JUMPDEST PUSH1 0x40 MLOAD DUP1 SWAP2 SUB SWAP1 REVERT JUMPDEST POP POP POP JUMP JUMPDEST PUSH1 0xB PUSH1 0x20 MSTORE DUP1 PUSH1 0x0 MSTORE PUSH1 0x40 PUSH1 0x0 KECCAK256 PUSH1 0x0 SWAP2 POP SWAP1 POP SLOAD DUP2 JUMP JUMPDEST PUSH1 0x0 PUSH32 0x1FFC9A700000000000000000000000000000000000000000000000000000000 PUSH28 0xFFFFFFFFFFFFFFFFFFFFFFFFFFFFFFFFFFFFFFFFFFFFFFFFFFFFFFFF NOT AND DUP3 PUSH28 0xFFFFFFFFFFFFFFFFFFFFFFFFFFFFFFFFFFFFFFFFFFFFFFFFFFFFFFFF NOT AND EQ SWAP1 POP SWAP2 SWAP1 POP JUMP JUMPDEST PUSH1 0x0 DUP2 PUSH1 0x2 DUP1 SLOAD SWAP1 POP GT DUP1 ISZERO PUSH2 0x1FFF JUMPI POP PUSH1 0x0 PUSH20 0xFFFFFFFFFFFFFFFFFFFFFFFFFFFFFFFFFFFFFFFF AND PUSH1 0x2 DUP4 DUP2 SLOAD DUP2 LT PUSH2 0x1FBB JUMPI PUSH2 0x1FBA PUSH2 0x3700 JUMP JUMPDEST JUMPDEST SWAP1 PUSH1 0x0 MSTORE PUSH1 0x20 PUSH1 0x0 KECCAK256 ADD PUSH1 0x0 SWAP1 SLOAD SWAP1 PUSH2 0x100 EXP SWAP1 DIV PUSH20 0xFFFFFFFFFFFFFFFFFFFFFFFFFFFFFFFFFFFFFFFF AND PUSH20 0xFFFFFFFFFFFFFFFFFFFFFFFFFFFFFFFFFFFFFFFF AND EQ ISZERO JUMPDEST SWAP1 POP SWAP2 SWAP1 POP JUMP JUMPDEST PUSH1 0x0 CALLER SWAP1 POP SWAP1 JUMP JUMPDEST DUP2 PUSH1 0x4 PUSH1 0x0 DUP4 DUP2 MSTORE PUSH1 0x20 ADD SWAP1 DUP2 MSTORE PUSH1 0x20 ADD PUSH1 0x0 KECCAK256 PUSH1 0x0 PUSH2 0x100 EXP DUP2 SLOAD DUP2 PUSH20 0xFFFFFFFFFFFFFFFFFFFFFFFFFFFFFFFFFFFFFFFF MUL NOT AND SWAP1 DUP4 PUSH20 0xFFFFFFFFFFFFFFFFFFFFFFFFFFFFFFFFFFFFFFFF AND MUL OR SWAP1 SSTORE POP DUP1 DUP3 PUSH20 0xFFFFFFFFFFFFFFFFFFFFFFFFFFFFFFFFFFFFFFFF AND PUSH2 0x2081 DUP4 PUSH2 0x1006 JUMP JUMPDEST PUSH20 0xFFFFFFFFFFFFFFFFFFFFFFFFFFFFFFFFFFFFFFFF AND PUSH32 0x8C5BE1E5EBEC7D5BD14F71427D1E84F3DD0314C0F7B2291E5B200AC8C7C3B925 PUSH1 0x40 MLOAD PUSH1 0x40 MLOAD DUP1 SWAP2 SUB SWAP1 LOG4 POP POP JUMP JUMPDEST PUSH1 0x0 PUSH2 0x20D2 DUP3 PUSH2 0x1F7E JUMP JUMPDEST PUSH2 0x2111 JUMPI PUSH1 0x40 MLOAD PUSH32 0x8C379A000000000000000000000000000000000000000000000000000000000 DUP2 MSTORE PUSH1 0x4 ADD PUSH2 0x2108 SWAP1 PUSH2 0x4205 JUMP JUMPDEST PUSH1 0x40 MLOAD DUP1 SWAP2 SUB SWAP1 REVERT JUMPDEST PUSH1 0x0 PUSH2 0x211C DUP4 PUSH2 0x1006 JUMP JUMPDEST SWAP1 POP DUP1 PUSH20 0xFFFFFFFFFFFFFFFFFFFFFFFFFFFFFFFFFFFFFFFF AND DUP5 PUSH20 0xFFFFFFFFFFFFFFFFFFFFFFFFFFFFFFFFFFFFFFFF AND EQ DUP1 PUSH2 0x218B JUMPI POP DUP4 PUSH20 0xFFFFFFFFFFFFFFFFFFFFFFFFFFFFFFFFFFFFFFFF AND PUSH2 0x2173 DUP5 PUSH2 0xADD JUMP JUMPDEST PUSH20 0xFFFFFFFFFFFFFFFFFFFFFFFFFFFFFFFFFFFFFFFF AND EQ JUMPDEST DUP1 PUSH2 0x219C JUMPI POP PUSH2 0x219B DUP2 DUP6 PUSH2 0x1BAF JUMP JUMPDEST JUMPDEST SWAP2 POP POP SWAP3 SWAP2 POP POP JUMP JUMPDEST DUP3 PUSH20 0xFFFFFFFFFFFFFFFFFFFFFFFFFFFFFFFFFFFFFFFF AND PUSH2 0x21C5 DUP3 PUSH2 0x1006 JUMP JUMPDEST PUSH20 0xFFFFFFFFFFFFFFFFFFFFFFFFFFFFFFFFFFFFFFFF AND EQ PUSH2 0x221B JUMPI PUSH1 0x40 MLOAD PUSH32 0x8C379A000000000000000000000000000000000000000000000000000000000 DUP2 MSTORE PUSH1 0x4 ADD PUSH2 0x2212 SWAP1 PUSH2 0x4297 JUMP JUMPDEST PUSH1 0x40 MLOAD DUP1 SWAP2 SUB SWAP1 REVERT JUMPDEST PUSH1 0x0 PUSH20 0xFFFFFFFFFFFFFFFFFFFFFFFFFFFFFFFFFFFFFFFF AND DUP3 PUSH20 0xFFFFFFFFFFFFFFFFFFFFFFFFFFFFFFFFFFFFFFFF AND SUB PUSH2 0x228A JUMPI PUSH1 0x40 MLOAD PUSH32 0x8C379A000000000000000000000000000000000000000000000000000000000 DUP2 MSTORE PUSH1 0x4 ADD PUSH2 0x2281 SWAP1 PUSH2 0x4329 JUMP JUMPDEST PUSH1 0x40 MLOAD DUP1 SWAP2 SUB SWAP1 REVERT JUMPDEST PUSH2 0x2295 PUSH1 0x0 DUP3 PUSH2 0x200E JUMP JUMPDEST DUP2 PUSH1 0x2 DUP3 DUP2 SLOAD DUP2 LT PUSH2 0x22AA JUMPI PUSH2 0x22A9 PUSH2 0x3700 JUMP JUMPDEST JUMPDEST SWAP1 PUSH1 0x0 MSTORE PUSH1 0x20 PUSH1 0x0 KECCAK256 ADD PUSH1 0x0 PUSH2 0x100 EXP DUP2 SLOAD DUP2 PUSH20 0xFFFFFFFFFFFFFFFFFFFFFFFFFFFFFFFFFFFFFFFF MUL NOT AND SWAP1 DUP4 PUSH20 0xFFFFFFFFFFFFFFFFFFFFFFFFFFFFFFFFFFFFFFFF AND MUL OR SWAP1 SSTORE POP DUP1 DUP3 PUSH20 0xFFFFFFFFFFFFFFFFFFFFFFFFFFFFFFFFFFFFFFFF AND DUP5 PUSH20 0xFFFFFFFFFFFFFFFFFFFFFFFFFFFFFFFFFFFFFFFF AND PUSH32 0xDDF252AD1BE2C89B69C2B068FC378DAA952BA7F163C4A11628F55A4DF523B3EF PUSH1 0x40 MLOAD PUSH1 0x40 MLOAD DUP1 SWAP2 SUB SWAP1 LOG4 POP POP POP JUMP JUMPDEST PUSH1 0x0 PUSH2 0x235D DUP3 PUSH2 0x1006 JUMP JUMPDEST SWAP1 POP DUP1 PUSH20 0xFFFFFFFFFFFFFFFFFFFFFFFFFFFFFFFFFFFFFFFF AND PUSH2 0x237E PUSH2 0x2006 JUMP JUMPDEST PUSH20 0xFFFFFFFFFFFFFFFFFFFFFFFFFFFFFFFFFFFFFFFF AND EQ DUP1 PUSH2 0x23AD JUMPI POP PUSH2 0x23AC DUP2 PUSH2 0x23A7 PUSH2 0x2006 JUMP JUMPDEST PUSH2 0x1BAF JUMP JUMPDEST JUMPDEST PUSH2 0x23EC JUMPI PUSH1 0x40 MLOAD PUSH32 0x8C379A000000000000000000000000000000000000000000000000000000000 DUP2 MSTORE PUSH1 0x4 ADD PUSH2 0x23E3 SWAP1 PUSH2 0x35EB JUMP JUMPDEST PUSH1 0x40 MLOAD DUP1 SWAP2 SUB SWAP1 REVERT JUMPDEST PUSH2 0x23F7 PUSH1 0x0 DUP4 PUSH2 0x200E JUMP JUMPDEST PUSH1 0x0 PUSH1 0x2 DUP4 DUP2 SLOAD DUP2 LT PUSH2 0x240D JUMPI PUSH2 0x240C PUSH2 0x3700 JUMP JUMPDEST JUMPDEST SWAP1 PUSH1 0x0 MSTORE PUSH1 0x20 PUSH1 0x0 KECCAK256 ADD PUSH1 0x0 PUSH2 0x100 EXP DUP2 SLOAD DUP2 PUSH20 0xFFFFFFFFFFFFFFFFFFFFFFFFFFFFFFFFFFFFFFFF MUL NOT AND SWAP1 DUP4 PUSH20 0xFFFFFFFFFFFFFFFFFFFFFFFFFFFFFFFFFFFFFFFF AND MUL OR SWAP1 SSTORE POP PUSH1 0x3 PUSH1 0x0 DUP2 SLOAD DUP1 SWAP3 SWAP2 SWAP1 PUSH2 0x2468 SWAP1 PUSH2 0x372F JUMP JUMPDEST SWAP2 SWAP1 POP SSTORE POP DUP2 PUSH1 0x0 PUSH20 0xFFFFFFFFFFFFFFFFFFFFFFFFFFFFFFFFFFFFFFFF AND DUP3 PUSH20 0xFFFFFFFFFFFFFFFFFFFFFFFFFFFFFFFFFFFFFFFF AND PUSH32 0xDDF252AD1BE2C89B69C2B068FC378DAA952BA7F163C4A11628F55A4DF523B3EF PUSH1 0x40 MLOAD PUSH1 0x40 MLOAD DUP1 SWAP2 SUB SWAP1 LOG4 POP POP JUMP JUMPDEST PUSH1 0x0 PUSH1 0x6 PUSH1 0x0 SWAP1 SLOAD SWAP1 PUSH2 0x100 EXP SWAP1 DIV PUSH20 0xFFFFFFFFFFFFFFFFFFFFFFFFFFFFFFFFFFFFFFFF AND SWAP1 POP DUP2 PUSH1 0x6 PUSH1 0x0 PUSH2 0x100 EXP DUP2 SLOAD DUP2 PUSH20 0xFFFFFFFFFFFFFFFFFFFFFFFFFFFFFFFFFFFFFFFF MUL NOT AND SWAP1 DUP4 PUSH20 0xFFFFFFFFFFFFFFFFFFFFFFFFFFFFFFFFFFFFFFFF AND MUL OR SWAP1 SSTORE POP DUP2 PUSH20 0xFFFFFFFFFFFFFFFFFFFFFFFFFFFFFFFFFFFFFFFF AND DUP2 PUSH20 0xFFFFFFFFFFFFFFFFFFFFFFFFFFFFFFFFFFFFFFFF AND PUSH32 0x8BE0079C531659141344CD1FD0A4F28419497F9722A3DAAFE3B4186F6B6457E0 PUSH1 0x40 MLOAD PUSH1 0x40 MLOAD DUP1 SWAP2 SUB SWAP1 LOG3 POP POP JUMP JUMPDEST PUSH2 0x25AD DUP3 DUP3 PUSH1 0x40 MLOAD DUP1 PUSH1 0x20 ADD PUSH1 0x40 MSTORE DUP1 PUSH1 0x0 DUP2 MSTORE POP PUSH2 0x27B4 JUMP JUMPDEST POP POP JUMP JUMPDEST PUSH2 0x25BC DUP5 DUP5 DUP5 PUSH2 0x21A5 JUMP JUMPDEST PUSH2 0x25C8 DUP5 DUP5 DUP5 DUP5 PUSH2 0x280F JUMP JUMPDEST PUSH2 0x2607 JUMPI PUSH1 0x40 MLOAD PUSH32 0x8C379A000000000000000000000000000000000000000000000000000000000 DUP2 MSTORE PUSH1 0x4 ADD PUSH2 0x25FE SWAP1 PUSH2 0x43BB JUMP JUMPDEST PUSH1 0x40 MLOAD DUP1 SWAP2 SUB SWAP1 REVERT JUMPDEST POP POP POP POP JUMP JUMPDEST PUSH1 0x60 PUSH1 0x0 DUP3 SUB PUSH2 0x2654 JUMPI PUSH1 0x40 MLOAD DUP1 PUSH1 0x40 ADD PUSH1 0x40 MSTORE DUP1 PUSH1 0x1 DUP2 MSTORE PUSH1 0x20 ADD PUSH32 0x3000000000000000000000000000000000000000000000000000000000000000 DUP2 MSTORE POP SWAP1 POP PUSH2 0x2768 JUMP JUMPDEST PUSH1 0x0 DUP3 SWAP1 POP PUSH1 0x0 JUMPDEST PUSH1 0x0 DUP3 EQ PUSH2 0x2686 JUMPI DUP1 DUP1 PUSH2 0x266F SWAP1 PUSH2 0x372F JUMP JUMPDEST SWAP2 POP POP PUSH1 0xA DUP3 PUSH2 0x267F SWAP2 SWAP1 PUSH2 0x440A JUMP JUMPDEST SWAP2 POP PUSH2 0x265C JUMP JUMPDEST PUSH1 0x0 DUP2 PUSH8 0xFFFFFFFFFFFFFFFF DUP2 GT ISZERO PUSH2 0x26A2 JUMPI PUSH2 0x26A1 PUSH2 0x2F63 JUMP JUMPDEST JUMPDEST PUSH1 0x40 MLOAD SWAP1 DUP1 DUP3 MSTORE DUP1 PUSH1 0x1F ADD PUSH1 0x1F NOT AND PUSH1 0x20 ADD DUP3 ADD PUSH1 0x40 MSTORE DUP1 ISZERO PUSH2 0x26D4 JUMPI DUP2 PUSH1 0x20 ADD PUSH1 0x1 DUP3 MUL DUP1 CALLDATASIZE DUP4 CALLDATACOPY DUP1 DUP3 ADD SWAP2 POP POP SWAP1 POP JUMPDEST POP SWAP1 POP JUMPDEST PUSH1 0x0 DUP6 EQ PUSH2 0x2761 JUMPI PUSH1 0x1 DUP3 PUSH2 0x26ED SWAP2 SWAP1 PUSH2 0x363A JUMP JUMPDEST SWAP2 POP PUSH1 0xA DUP6 PUSH2 0x26FC SWAP2 SWAP1 PUSH2 0x443B JUMP JUMPDEST PUSH1 0x30 PUSH2 0x2708 SWAP2 SWAP1 PUSH2 0x3C9F JUMP JUMPDEST PUSH1 0xF8 SHL DUP2 DUP4 DUP2 MLOAD DUP2 LT PUSH2 0x271E JUMPI PUSH2 0x271D PUSH2 0x3700 JUMP JUMPDEST JUMPDEST PUSH1 0x20 ADD ADD SWAP1 PUSH31 0xFFFFFFFFFFFFFFFFFFFFFFFFFFFFFFFFFFFFFFFFFFFFFFFFFFFFFFFFFFFFFF NOT AND SWAP1 DUP2 PUSH1 0x0 BYTE SWAP1 MSTORE8 POP PUSH1 0xA DUP6 PUSH2 0x275A SWAP2 SWAP1 PUSH2 0x440A JUMP JUMPDEST SWAP5 POP PUSH2 0x26D8 JUMP JUMPDEST DUP1 SWAP4 POP POP POP POP JUMPDEST SWAP2 SWAP1 POP JUMP JUMPDEST PUSH1 0x0 DUP2 PUSH1 0x40 MLOAD PUSH1 0x20 ADD PUSH2 0x2780 SWAP2 SWAP1 PUSH2 0x44B4 JUMP JUMPDEST PUSH1 0x40 MLOAD PUSH1 0x20 DUP2 DUP4 SUB SUB DUP2 MSTORE SWAP1 PUSH1 0x40 MSTORE DUP1 MLOAD SWAP1 PUSH1 0x20 ADD KECCAK256 SWAP1 POP SWAP2 SWAP1 POP JUMP JUMPDEST PUSH1 0x0 PUSH2 0x27AC DUP3 PUSH1 0xC SLOAD DUP6 PUSH2 0x2996 JUMP JUMPDEST SWAP1 POP SWAP3 SWAP2 POP POP JUMP JUMPDEST PUSH2 0x27BE DUP4 DUP4 PUSH2 0x29AD JUMP JUMPDEST PUSH2 0x27CB PUSH1 0x0 DUP5 DUP5 DUP5 PUSH2 0x280F JUMP JUMPDEST PUSH2 0x280A JUMPI PUSH1 0x40 MLOAD PUSH32 0x8C379A000000000000000000000000000000000000000000000000000000000 DUP2 MSTORE PUSH1 0x4 ADD PUSH2 0x2801 SWAP1 PUSH2 0x43BB JUMP JUMPDEST PUSH1 0x40 MLOAD DUP1 SWAP2 SUB SWAP1 REVERT JUMPDEST POP POP POP JUMP JUMPDEST PUSH1 0x0 PUSH2 0x2830 DUP5 PUSH20 0xFFFFFFFFFFFFFFFFFFFFFFFFFFFFFFFFFFFFFFFF AND PUSH2 0x2B28 JUMP JUMPDEST ISZERO PUSH2 0x2989 JUMPI DUP4 PUSH20 0xFFFFFFFFFFFFFFFFFFFFFFFFFFFFFFFFFFFFFFFF AND PUSH4 0x150B7A02 PUSH2 0x2859 PUSH2 0x2006 JUMP JUMPDEST DUP8 DUP7 DUP7 PUSH1 0x40 MLOAD DUP6 PUSH4 0xFFFFFFFF AND PUSH1 0xE0 SHL DUP2 MSTORE PUSH1 0x4 ADD PUSH2 0x287B SWAP5 SWAP4 SWAP3 SWAP2 SWAP1 PUSH2 0x4524 JUMP JUMPDEST PUSH1 0x20 PUSH1 0x40 MLOAD DUP1 DUP4 SUB DUP2 PUSH1 0x0 DUP8 GAS CALL SWAP3 POP POP POP DUP1 ISZERO PUSH2 0x28B7 JUMPI POP PUSH1 0x40 MLOAD RETURNDATASIZE PUSH1 0x1F NOT PUSH1 0x1F DUP3 ADD AND DUP3 ADD DUP1 PUSH1 0x40 MSTORE POP DUP2 ADD SWAP1 PUSH2 0x28B4 SWAP2 SWAP1 PUSH2 0x4585 JUMP JUMPDEST PUSH1 0x1 JUMPDEST PUSH2 0x2939 JUMPI RETURNDATASIZE DUP1 PUSH1 0x0 DUP2 EQ PUSH2 0x28E7 JUMPI PUSH1 0x40 MLOAD SWAP2 POP PUSH1 0x1F NOT PUSH1 0x3F RETURNDATASIZE ADD AND DUP3 ADD PUSH1 0x40 MSTORE RETURNDATASIZE DUP3 MSTORE RETURNDATASIZE PUSH1 0x0 PUSH1 0x20 DUP5 ADD RETURNDATACOPY PUSH2 0x28EC JUMP JUMPDEST PUSH1 0x60 SWAP2 POP JUMPDEST POP PUSH1 0x0 DUP2 MLOAD SUB PUSH2 0x2931 JUMPI PUSH1 0x40 MLOAD PUSH32 0x8C379A000000000000000000000000000000000000000000000000000000000 DUP2 MSTORE PUSH1 0x4 ADD PUSH2 0x2928 SWAP1 PUSH2 0x43BB JUMP JUMPDEST PUSH1 0x40 MLOAD DUP1 SWAP2 SUB SWAP1 REVERT JUMPDEST DUP1 MLOAD DUP2 PUSH1 0x20 ADD REVERT JUMPDEST PUSH4 0x150B7A02 PUSH1 0xE0 SHL PUSH28 0xFFFFFFFFFFFFFFFFFFFFFFFFFFFFFFFFFFFFFFFFFFFFFFFFFFFFFFFF NOT AND DUP2 PUSH28 0xFFFFFFFFFFFFFFFFFFFFFFFFFFFFFFFFFFFFFFFFFFFFFFFFFFFFFFFF NOT AND EQ SWAP2 POP POP PUSH2 0x298E JUMP JUMPDEST PUSH1 0x1 SWAP1 POP JUMPDEST SWAP5 SWAP4 POP POP POP POP JUMP JUMPDEST PUSH1 0x0 DUP3 PUSH2 0x29A3 DUP6 DUP5 PUSH2 0x2B4B JUMP JUMPDEST EQ SWAP1 POP SWAP4 SWAP3 POP POP POP JUMP JUMPDEST PUSH1 0x0 PUSH20 0xFFFFFFFFFFFFFFFFFFFFFFFFFFFFFFFFFFFFFFFF AND DUP3 PUSH20 0xFFFFFFFFFFFFFFFFFFFFFFFFFFFFFFFFFFFFFFFF AND SUB PUSH2 0x2A1C JUMPI PUSH1 0x40 MLOAD PUSH32 0x8C379A000000000000000000000000000000000000000000000000000000000 DUP2 MSTORE PUSH1 0x4 ADD PUSH2 0x2A13 SWAP1 PUSH2 0x45FE JUMP JUMPDEST PUSH1 0x40 MLOAD DUP1 SWAP2 SUB SWAP1 REVERT JUMPDEST PUSH2 0x2A25 DUP2 PUSH2 0x1F7E JUMP JUMPDEST ISZERO PUSH2 0x2A65 JUMPI PUSH1 0x40 MLOAD PUSH32 0x8C379A000000000000000000000000000000000000000000000000000000000 DUP2 MSTORE PUSH1 0x4 ADD PUSH2 0x2A5C SWAP1 PUSH2 0x466A JUMP JUMPDEST PUSH1 0x40 MLOAD DUP1 SWAP2 SUB SWAP1 REVERT JUMPDEST PUSH1 0x2 DUP3 SWAP1 DUP1 PUSH1 0x1 DUP2 SLOAD ADD DUP1 DUP3 SSTORE DUP1 SWAP2 POP POP PUSH1 0x1 SWAP1 SUB SWAP1 PUSH1 0x0 MSTORE PUSH1 0x20 PUSH1 0x0 KECCAK256 ADD PUSH1 0x0 SWAP1 SWAP2 SWAP1 SWAP2 SWAP1 SWAP2 PUSH2 0x100 EXP DUP2 SLOAD DUP2 PUSH20 0xFFFFFFFFFFFFFFFFFFFFFFFFFFFFFFFFFFFFFFFF MUL NOT AND SWAP1 DUP4 PUSH20 0xFFFFFFFFFFFFFFFFFFFFFFFFFFFFFFFFFFFFFFFF AND MUL OR SWAP1 SSTORE POP DUP1 DUP3 PUSH20 0xFFFFFFFFFFFFFFFFFFFFFFFFFFFFFFFFFFFFFFFF AND PUSH1 0x0 PUSH20 0xFFFFFFFFFFFFFFFFFFFFFFFFFFFFFFFFFFFFFFFF AND PUSH32 0xDDF252AD1BE2C89B69C2B068FC378DAA952BA7F163C4A11628F55A4DF523B3EF PUSH1 0x40 MLOAD PUSH1 0x40 MLOAD DUP1 SWAP2 SUB SWAP1 LOG4 POP POP JUMP JUMPDEST PUSH1 0x0 DUP1 DUP3 PUSH20 0xFFFFFFFFFFFFFFFFFFFFFFFFFFFFFFFFFFFFFFFF AND EXTCODESIZE GT SWAP1 POP SWAP2 SWAP1 POP JUMP JUMPDEST PUSH1 0x0 DUP1 DUP3 SWAP1 POP PUSH1 0x0 JUMPDEST DUP5 MLOAD DUP2 LT ISZERO PUSH2 0x2BB5 JUMPI PUSH1 0x0 DUP6 DUP3 DUP2 MLOAD DUP2 LT PUSH2 0x2B72 JUMPI PUSH2 0x2B71 PUSH2 0x3700 JUMP JUMPDEST JUMPDEST PUSH1 0x20 MUL PUSH1 0x20 ADD ADD MLOAD SWAP1 POP DUP1 DUP4 GT PUSH2 0x2B94 JUMPI PUSH2 0x2B8D DUP4 DUP3 PUSH2 0x2BC0 JUMP JUMPDEST SWAP3 POP PUSH2 0x2BA1 JUMP JUMPDEST PUSH2 0x2B9E DUP2 DUP5 PUSH2 0x2BC0 JUMP JUMPDEST SWAP3 POP JUMPDEST POP DUP1 DUP1 PUSH2 0x2BAD SWAP1 PUSH2 0x372F JUMP JUMPDEST SWAP2 POP POP PUSH2 0x2B54 JUMP JUMPDEST POP DUP1 SWAP2 POP POP SWAP3 SWAP2 POP POP JUMP JUMPDEST PUSH1 0x0 DUP3 PUSH1 0x0 MSTORE DUP2 PUSH1 0x20 MSTORE PUSH1 0x40 PUSH1 0x0 KECCAK256 SWAP1 POP SWAP3 SWAP2 POP POP JUMP JUMPDEST PUSH1 0x0 PUSH1 0x40 MLOAD SWAP1 POP SWAP1 JUMP JUMPDEST PUSH1 0x0 DUP1 REVERT JUMPDEST PUSH1 0x0 DUP1 REVERT JUMPDEST PUSH1 0x0 PUSH32 0xFFFFFFFF00000000000000000000000000000000000000000000000000000000 DUP3 AND SWAP1 POP SWAP2 SWAP1 POP JUMP JUMPDEST PUSH2 0x2C20 DUP2 PUSH2 0x2BEB JUMP JUMPDEST DUP2 EQ PUSH2 0x2C2B JUMPI PUSH1 0x0 DUP1 REVERT JUMPDEST POP JUMP JUMPDEST PUSH1 0x0 DUP2 CALLDATALOAD SWAP1 POP PUSH2 0x2C3D DUP2 PUSH2 0x2C17 JUMP JUMPDEST SWAP3 SWAP2 POP POP JUMP JUMPDEST PUSH1 0x0 PUSH1 0x20 DUP3 DUP5 SUB SLT ISZERO PUSH2 0x2C59 JUMPI PUSH2 0x2C58 PUSH2 0x2BE1 JUMP JUMPDEST JUMPDEST PUSH1 0x0 PUSH2 0x2C67 DUP5 DUP3 DUP6 ADD PUSH2 0x2C2E JUMP JUMPDEST SWAP2 POP POP SWAP3 SWAP2 POP POP JUMP JUMPDEST PUSH1 0x0 DUP2 ISZERO ISZERO SWAP1 POP SWAP2 SWAP1 POP JUMP JUMPDEST PUSH2 0x2C85 DUP2 PUSH2 0x2C70 JUMP JUMPDEST DUP3 MSTORE POP POP JUMP JUMPDEST PUSH1 0x0 PUSH1 0x20 DUP3 ADD SWAP1 POP PUSH2 0x2CA0 PUSH1 0x0 DUP4 ADD DUP5 PUSH2 0x2C7C JUMP JUMPDEST SWAP3 SWAP2 POP POP JUMP JUMPDEST PUSH1 0x0 DUP2 SWAP1 POP SWAP2 SWAP1 POP JUMP JUMPDEST PUSH2 0x2CB9 DUP2 PUSH2 0x2CA6 JUMP JUMPDEST DUP2 EQ PUSH2 0x2CC4 JUMPI PUSH1 0x0 DUP1 REVERT JUMPDEST POP JUMP JUMPDEST PUSH1 0x0 DUP2 CALLDATALOAD SWAP1 POP PUSH2 0x2CD6 DUP2 PUSH2 0x2CB0 JUMP JUMPDEST SWAP3 SWAP2 POP POP JUMP JUMPDEST PUSH1 0x0 PUSH1 0x20 DUP3 DUP5 SUB SLT ISZERO PUSH2 0x2CF2 JUMPI PUSH2 0x2CF1 PUSH2 0x2BE1 JUMP JUMPDEST JUMPDEST PUSH1 0x0 PUSH2 0x2D00 DUP5 DUP3 DUP6 ADD PUSH2 0x2CC7 JUMP JUMPDEST SWAP2 POP POP SWAP3 SWAP2 POP POP JUMP JUMPDEST PUSH1 0x0 PUSH20 0xFFFFFFFFFFFFFFFFFFFFFFFFFFFFFFFFFFFFFFFF DUP3 AND SWAP1 POP SWAP2 SWAP1 POP JUMP JUMPDEST PUSH1 0x0 PUSH2 0x2D34 DUP3 PUSH2 0x2D09 JUMP JUMPDEST SWAP1 POP SWAP2 SWAP1 POP JUMP JUMPDEST PUSH2 0x2D44 DUP2 PUSH2 0x2D29 JUMP JUMPDEST DUP3 MSTORE POP POP JUMP JUMPDEST PUSH1 0x0 PUSH1 0x20 DUP3 ADD SWAP1 POP PUSH2 0x2D5F PUSH1 0x0 DUP4 ADD DUP5 PUSH2 0x2D3B JUMP JUMPDEST SWAP3 SWAP2 POP POP JUMP JUMPDEST PUSH1 0x0 DUP2 MLOAD SWAP1 POP SWAP2 SWAP1 POP JUMP JUMPDEST PUSH1 0x0 DUP3 DUP3 MSTORE PUSH1 0x20 DUP3 ADD SWAP1 POP SWAP3 SWAP2 POP POP JUMP JUMPDEST PUSH1 0x0 JUMPDEST DUP4 DUP2 LT ISZERO PUSH2 0x2D9F JUMPI DUP1 DUP3 ADD MLOAD DUP2 DUP5 ADD MSTORE PUSH1 0x20 DUP2 ADD SWAP1 POP PUSH2 0x2D84 JUMP JUMPDEST PUSH1 0x0 DUP5 DUP5 ADD MSTORE POP POP POP POP JUMP JUMPDEST PUSH1 0x0 PUSH1 0x1F NOT PUSH1 0x1F DUP4 ADD AND SWAP1 POP SWAP2 SWAP1 POP JUMP JUMPDEST PUSH1 0x0 PUSH2 0x2DC7 DUP3 PUSH2 0x2D65 JUMP JUMPDEST PUSH2 0x2DD1 DUP2 DUP6 PUSH2 0x2D70 JUMP JUMPDEST SWAP4 POP PUSH2 0x2DE1 DUP2 DUP6 PUSH1 0x20 DUP7 ADD PUSH2 0x2D81 JUMP JUMPDEST PUSH2 0x2DEA DUP2 PUSH2 0x2DAB JUMP JUMPDEST DUP5 ADD SWAP2 POP POP SWAP3 SWAP2 POP POP JUMP JUMPDEST PUSH1 0x0 PUSH1 0x20 DUP3 ADD SWAP1 POP DUP2 DUP2 SUB PUSH1 0x0 DUP4 ADD MSTORE PUSH2 0x2E0F DUP2 DUP5 PUSH2 0x2DBC JUMP JUMPDEST SWAP1 POP SWAP3 SWAP2 POP POP JUMP JUMPDEST PUSH2 0x2E20 DUP2 PUSH2 0x2D29 JUMP JUMPDEST DUP2 EQ PUSH2 0x2E2B JUMPI PUSH1 0x0 DUP1 REVERT JUMPDEST POP JUMP JUMPDEST PUSH1 0x0 DUP2 CALLDATALOAD SWAP1 POP PUSH2 0x2E3D DUP2 PUSH2 0x2E17 JUMP JUMPDEST SWAP3 SWAP2 POP POP JUMP JUMPDEST PUSH1 0x0 DUP1 PUSH1 0x40 DUP4 DUP6 SUB SLT ISZERO PUSH2 0x2E5A JUMPI PUSH2 0x2E59 PUSH2 0x2BE1 JUMP JUMPDEST JUMPDEST PUSH1 0x0 PUSH2 0x2E68 DUP6 DUP3 DUP7 ADD PUSH2 0x2E2E JUMP JUMPDEST SWAP3 POP POP PUSH1 0x20 PUSH2 0x2E79 DUP6 DUP3 DUP7 ADD PUSH2 0x2CC7 JUMP JUMPDEST SWAP2 POP POP SWAP3 POP SWAP3 SWAP1 POP JUMP JUMPDEST PUSH2 0x2E8C DUP2 PUSH2 0x2CA6 JUMP JUMPDEST DUP3 MSTORE POP POP JUMP JUMPDEST PUSH1 0x0 PUSH1 0x20 DUP3 ADD SWAP1 POP PUSH2 0x2EA7 PUSH1 0x0 DUP4 ADD DUP5 PUSH2 0x2E83 JUMP JUMPDEST SWAP3 SWAP2 POP POP JUMP JUMPDEST PUSH1 0x0 DUP1 PUSH1 0x0 PUSH1 0x60 DUP5 DUP7 SUB SLT ISZERO PUSH2 0x2EC6 JUMPI PUSH2 0x2EC5 PUSH2 0x2BE1 JUMP JUMPDEST JUMPDEST PUSH1 0x0 PUSH2 0x2ED4 DUP7 DUP3 DUP8 ADD PUSH2 0x2E2E JUMP JUMPDEST SWAP4 POP POP PUSH1 0x20 PUSH2 0x2EE5 DUP7 DUP3 DUP8 ADD PUSH2 0x2E2E JUMP JUMPDEST SWAP3 POP POP PUSH1 0x40 PUSH2 0x2EF6 DUP7 DUP3 DUP8 ADD PUSH2 0x2CC7 JUMP JUMPDEST SWAP2 POP POP SWAP3 POP SWAP3 POP SWAP3 JUMP JUMPDEST PUSH2 0x2F09 DUP2 PUSH2 0x2C70 JUMP JUMPDEST DUP2 EQ PUSH2 0x2F14 JUMPI PUSH1 0x0 DUP1 REVERT JUMPDEST POP JUMP JUMPDEST PUSH1 0x0 DUP2 CALLDATALOAD SWAP1 POP PUSH2 0x2F26 DUP2 PUSH2 0x2F00 JUMP JUMPDEST SWAP3 SWAP2 POP POP JUMP JUMPDEST PUSH1 0x0 PUSH1 0x20 DUP3 DUP5 SUB SLT ISZERO PUSH2 0x2F42 JUMPI PUSH2 0x2F41 PUSH2 0x2BE1 JUMP JUMPDEST JUMPDEST PUSH1 0x0 PUSH2 0x2F50 DUP5 DUP3 DUP6 ADD PUSH2 0x2F17 JUMP JUMPDEST SWAP2 POP POP SWAP3 SWAP2 POP POP JUMP JUMPDEST PUSH1 0x0 DUP1 REVERT JUMPDEST PUSH1 0x0 DUP1 REVERT JUMPDEST PUSH32 0x4E487B7100000000000000000000000000000000000000000000000000000000 PUSH1 0x0 MSTORE PUSH1 0x41 PUSH1 0x4 MSTORE PUSH1 0x24 PUSH1 0x0 REVERT JUMPDEST PUSH2 0x2F9B DUP3 PUSH2 0x2DAB JUMP JUMPDEST DUP2 ADD DUP2 DUP2 LT PUSH8 0xFFFFFFFFFFFFFFFF DUP3 GT OR ISZERO PUSH2 0x2FBA JUMPI PUSH2 0x2FB9 PUSH2 0x2F63 JUMP JUMPDEST JUMPDEST DUP1 PUSH1 0x40 MSTORE POP POP POP JUMP JUMPDEST PUSH1 0x0 PUSH2 0x2FCD PUSH2 0x2BD7 JUMP JUMPDEST SWAP1 POP PUSH2 0x2FD9 DUP3 DUP3 PUSH2 0x2F92 JUMP JUMPDEST SWAP2 SWAP1 POP JUMP JUMPDEST PUSH1 0x0 PUSH8 0xFFFFFFFFFFFFFFFF DUP3 GT ISZERO PUSH2 0x2FF9 JUMPI PUSH2 0x2FF8 PUSH2 0x2F63 JUMP JUMPDEST JUMPDEST PUSH2 0x3002 DUP3 PUSH2 0x2DAB JUMP JUMPDEST SWAP1 POP PUSH1 0x20 DUP2 ADD SWAP1 POP SWAP2 SWAP1 POP JUMP JUMPDEST DUP3 DUP2 DUP4 CALLDATACOPY PUSH1 0x0 DUP4 DUP4 ADD MSTORE POP POP POP JUMP JUMPDEST PUSH1 0x0 PUSH2 0x3031 PUSH2 0x302C DUP5 PUSH2 0x2FDE JUMP JUMPDEST PUSH2 0x2FC3 JUMP JUMPDEST SWAP1 POP DUP3 DUP2 MSTORE PUSH1 0x20 DUP2 ADD DUP5 DUP5 DUP5 ADD GT ISZERO PUSH2 0x304D JUMPI PUSH2 0x304C PUSH2 0x2F5E JUMP JUMPDEST JUMPDEST PUSH2 0x3058 DUP5 DUP3 DUP6 PUSH2 0x300F JUMP JUMPDEST POP SWAP4 SWAP3 POP POP POP JUMP JUMPDEST PUSH1 0x0 DUP3 PUSH1 0x1F DUP4 ADD SLT PUSH2 0x3075 JUMPI PUSH2 0x3074 PUSH2 0x2F59 JUMP JUMPDEST JUMPDEST DUP2 CALLDATALOAD PUSH2 0x3085 DUP5 DUP3 PUSH1 0x20 DUP7 ADD PUSH2 0x301E JUMP JUMPDEST SWAP2 POP POP SWAP3 SWAP2 POP POP JUMP JUMPDEST PUSH1 0x0 PUSH1 0x20 DUP3 DUP5 SUB SLT ISZERO PUSH2 0x30A4 JUMPI PUSH2 0x30A3 PUSH2 0x2BE1 JUMP JUMPDEST JUMPDEST PUSH1 0x0 DUP3 ADD CALLDATALOAD PUSH8 0xFFFFFFFFFFFFFFFF DUP2 GT ISZERO PUSH2 0x30C2 JUMPI PUSH2 0x30C1 PUSH2 0x2BE6 JUMP JUMPDEST JUMPDEST PUSH2 0x30CE DUP5 DUP3 DUP6 ADD PUSH2 0x3060 JUMP JUMPDEST SWAP2 POP POP SWAP3 SWAP2 POP POP JUMP JUMPDEST PUSH1 0x0 PUSH1 0x20 DUP3 DUP5 SUB SLT ISZERO PUSH2 0x30ED JUMPI PUSH2 0x30EC PUSH2 0x2BE1 JUMP JUMPDEST JUMPDEST PUSH1 0x0 PUSH2 0x30FB DUP5 DUP3 DUP6 ADD PUSH2 0x2E2E JUMP JUMPDEST SWAP2 POP POP SWAP3 SWAP2 POP POP JUMP JUMPDEST PUSH1 0x0 DUP2 SWAP1 POP SWAP2 SWAP1 POP JUMP JUMPDEST PUSH2 0x3117 DUP2 PUSH2 0x3104 JUMP JUMPDEST DUP2 EQ PUSH2 0x3122 JUMPI PUSH1 0x0 DUP1 REVERT JUMPDEST POP JUMP JUMPDEST PUSH1 0x0 DUP2 CALLDATALOAD SWAP1 POP PUSH2 0x3134 DUP2 PUSH2 0x310E JUMP JUMPDEST SWAP3 SWAP2 POP POP JUMP JUMPDEST PUSH1 0x0 PUSH1 0x20 DUP3 DUP5 SUB SLT ISZERO PUSH2 0x3150 JUMPI PUSH2 0x314F PUSH2 0x2BE1 JUMP JUMPDEST JUMPDEST PUSH1 0x0 PUSH2 0x315E DUP5 DUP3 DUP6 ADD PUSH2 0x3125 JUMP JUMPDEST SWAP2 POP POP SWAP3 SWAP2 POP POP JUMP JUMPDEST PUSH1 0x0 DUP1 PUSH1 0x40 DUP4 DUP6 SUB SLT ISZERO PUSH2 0x317E JUMPI PUSH2 0x317D PUSH2 0x2BE1 JUMP JUMPDEST JUMPDEST PUSH1 0x0 PUSH2 0x318C DUP6 DUP3 DUP7 ADD PUSH2 0x2E2E JUMP JUMPDEST SWAP3 POP POP PUSH1 0x20 PUSH2 0x319D DUP6 DUP3 DUP7 ADD PUSH2 0x2F17 JUMP JUMPDEST SWAP2 POP POP SWAP3 POP SWAP3 SWAP1 POP JUMP JUMPDEST PUSH1 0x0 PUSH8 0xFFFFFFFFFFFFFFFF DUP3 GT ISZERO PUSH2 0x31C2 JUMPI PUSH2 0x31C1 PUSH2 0x2F63 JUMP JUMPDEST JUMPDEST PUSH2 0x31CB DUP3 PUSH2 0x2DAB JUMP JUMPDEST SWAP1 POP PUSH1 0x20 DUP2 ADD SWAP1 POP SWAP2 SWAP1 POP JUMP JUMPDEST PUSH1 0x0 PUSH2 0x31EB PUSH2 0x31E6 DUP5 PUSH2 0x31A7 JUMP JUMPDEST PUSH2 0x2FC3 JUMP JUMPDEST SWAP1 POP DUP3 DUP2 MSTORE PUSH1 0x20 DUP2 ADD DUP5 DUP5 DUP5 ADD GT ISZERO PUSH2 0x3207 JUMPI PUSH2 0x3206 PUSH2 0x2F5E JUMP JUMPDEST JUMPDEST PUSH2 0x3212 DUP5 DUP3 DUP6 PUSH2 0x300F JUMP JUMPDEST POP SWAP4 SWAP3 POP POP POP JUMP JUMPDEST PUSH1 0x0 DUP3 PUSH1 0x1F DUP4 ADD SLT PUSH2 0x322F JUMPI PUSH2 0x322E PUSH2 0x2F59 JUMP JUMPDEST JUMPDEST DUP2 CALLDATALOAD PUSH2 0x323F DUP5 DUP3 PUSH1 0x20 DUP7 ADD PUSH2 0x31D8 JUMP JUMPDEST SWAP2 POP POP SWAP3 SWAP2 POP POP JUMP JUMPDEST PUSH1 0x0 DUP1 PUSH1 0x0 DUP1 PUSH1 0x80 DUP6 DUP8 SUB SLT ISZERO PUSH2 0x3262 JUMPI PUSH2 0x3261 PUSH2 0x2BE1 JUMP JUMPDEST JUMPDEST PUSH1 0x0 PUSH2 0x3270 DUP8 DUP3 DUP9 ADD PUSH2 0x2E2E JUMP JUMPDEST SWAP5 POP POP PUSH1 0x20 PUSH2 0x3281 DUP8 DUP3 DUP9 ADD PUSH2 0x2E2E JUMP JUMPDEST SWAP4 POP POP PUSH1 0x40 PUSH2 0x3292 DUP8 DUP3 DUP9 ADD PUSH2 0x2CC7 JUMP JUMPDEST SWAP3 POP POP PUSH1 0x60 DUP6 ADD CALLDATALOAD PUSH8 0xFFFFFFFFFFFFFFFF DUP2 GT ISZERO PUSH2 0x32B3 JUMPI PUSH2 0x32B2 PUSH2 0x2BE6 JUMP JUMPDEST JUMPDEST PUSH2 0x32BF DUP8 DUP3 DUP9 ADD PUSH2 0x321A JUMP JUMPDEST SWAP2 POP POP SWAP3 SWAP6 SWAP2 SWAP5 POP SWAP3 POP JUMP JUMPDEST PUSH1 0x0 DUP1 REVERT JUMPDEST PUSH1 0x0 DUP1 REVERT JUMPDEST PUSH1 0x0 DUP1 DUP4 PUSH1 0x1F DUP5 ADD SLT PUSH2 0x32EB JUMPI PUSH2 0x32EA PUSH2 0x2F59 JUMP JUMPDEST JUMPDEST DUP3 CALLDATALOAD SWAP1 POP PUSH8 0xFFFFFFFFFFFFFFFF DUP2 GT ISZERO PUSH2 0x3308 JUMPI PUSH2 0x3307 PUSH2 0x32CB JUMP JUMPDEST JUMPDEST PUSH1 0x20 DUP4 ADD SWAP2 POP DUP4 PUSH1 0x20 DUP3 MUL DUP4 ADD GT ISZERO PUSH2 0x3324 JUMPI PUSH2 0x3323 PUSH2 0x32D0 JUMP JUMPDEST JUMPDEST SWAP3 POP SWAP3 SWAP1 POP JUMP JUMPDEST PUSH1 0x0 DUP1 PUSH1 0x0 PUSH1 0x40 DUP5 DUP7 SUB SLT ISZERO PUSH2 0x3344 JUMPI PUSH2 0x3343 PUSH2 0x2BE1 JUMP JUMPDEST JUMPDEST PUSH1 0x0 PUSH2 0x3352 DUP7 DUP3 DUP8 ADD PUSH2 0x2CC7 JUMP JUMPDEST SWAP4 POP POP PUSH1 0x20 DUP5 ADD CALLDATALOAD PUSH8 0xFFFFFFFFFFFFFFFF DUP2 GT ISZERO PUSH2 0x3373 JUMPI PUSH2 0x3372 PUSH2 0x2BE6 JUMP JUMPDEST JUMPDEST PUSH2 0x337F DUP7 DUP3 DUP8 ADD PUSH2 0x32D5 JUMP JUMPDEST SWAP3 POP SWAP3 POP POP SWAP3 POP SWAP3 POP SWAP3 JUMP JUMPDEST PUSH1 0x0 DUP1 PUSH1 0x40 DUP4 DUP6 SUB SLT ISZERO PUSH2 0x33A2 JUMPI PUSH2 0x33A1 PUSH2 0x2BE1 JUMP JUMPDEST JUMPDEST PUSH1 0x0 PUSH2 0x33B0 DUP6 DUP3 DUP7 ADD PUSH2 0x2E2E JUMP JUMPDEST SWAP3 POP POP PUSH1 0x20 PUSH2 0x33C1 DUP6 DUP3 DUP7 ADD PUSH2 0x2E2E JUMP JUMPDEST SWAP2 POP POP SWAP3 POP SWAP3 SWAP1 POP JUMP JUMPDEST PUSH2 0x33D4 DUP2 PUSH2 0x3104 JUMP JUMPDEST DUP3 MSTORE POP POP JUMP JUMPDEST PUSH1 0x0 PUSH1 0x20 DUP3 ADD SWAP1 POP PUSH2 0x33EF PUSH1 0x0 DUP4 ADD DUP5 PUSH2 0x33CB JUMP JUMPDEST SWAP3 SWAP2 POP POP JUMP JUMPDEST PUSH32 0x4E487B7100000000000000000000000000000000000000000000000000000000 PUSH1 0x0 MSTORE PUSH1 0x22 PUSH1 0x4 MSTORE PUSH1 0x24 PUSH1 0x0 REVERT JUMPDEST PUSH1 0x0 PUSH1 0x2 DUP3 DIV SWAP1 POP PUSH1 0x1 DUP3 AND DUP1 PUSH2 0x343C JUMPI PUSH1 0x7F DUP3 AND SWAP2 POP JUMPDEST PUSH1 0x20 DUP3 LT DUP2 SUB PUSH2 0x344F JUMPI PUSH2 0x344E PUSH2 0x33F5 JUMP JUMPDEST JUMPDEST POP SWAP2 SWAP1 POP JUMP JUMPDEST PUSH32 0x4552433732313A20617070726F76656420717565727920666F72206E6F6E6578 PUSH1 0x0 DUP3 ADD MSTORE PUSH32 0x697374656E7420746F6B656E0000000000000000000000000000000000000000 PUSH1 0x20 DUP3 ADD MSTORE POP JUMP JUMPDEST PUSH1 0x0 PUSH2 0x34B1 PUSH1 0x2C DUP4 PUSH2 0x2D70 JUMP JUMPDEST SWAP2 POP PUSH2 0x34BC DUP3 PUSH2 0x3455 JUMP JUMPDEST PUSH1 0x40 DUP3 ADD SWAP1 POP SWAP2 SWAP1 POP JUMP JUMPDEST PUSH1 0x0 PUSH1 0x20 DUP3 ADD SWAP1 POP DUP2 DUP2 SUB PUSH1 0x0 DUP4 ADD MSTORE PUSH2 0x34E0 DUP2 PUSH2 0x34A4 JUMP JUMPDEST SWAP1 POP SWAP2 SWAP1 POP JUMP JUMPDEST PUSH32 0x4552433732313A20617070726F76616C20746F2063757272656E74206F776E65 PUSH1 0x0 DUP3 ADD MSTORE PUSH32 0x7200000000000000000000000000000000000000000000000000000000000000 PUSH1 0x20 DUP3 ADD MSTORE POP JUMP JUMPDEST PUSH1 0x0 PUSH2 0x3543 PUSH1 0x21 DUP4 PUSH2 0x2D70 JUMP JUMPDEST SWAP2 POP PUSH2 0x354E DUP3 PUSH2 0x34E7 JUMP JUMPDEST PUSH1 0x40 DUP3 ADD SWAP1 POP SWAP2 SWAP1 POP JUMP JUMPDEST PUSH1 0x0 PUSH1 0x20 DUP3 ADD SWAP1 POP DUP2 DUP2 SUB PUSH1 0x0 DUP4 ADD MSTORE PUSH2 0x3572 DUP2 PUSH2 0x3536 JUMP JUMPDEST SWAP1 POP SWAP2 SWAP1 POP JUMP JUMPDEST PUSH32 0x4552433732313A20617070726F76652063616C6C6572206973206E6F74206F77 PUSH1 0x0 DUP3 ADD MSTORE PUSH32 0x6E6572206E6F7220617070726F76656420666F7220616C6C0000000000000000 PUSH1 0x20 DUP3 ADD MSTORE POP JUMP JUMPDEST PUSH1 0x0 PUSH2 0x35D5 PUSH1 0x38 DUP4 PUSH2 0x2D70 JUMP JUMPDEST SWAP2 POP PUSH2 0x35E0 DUP3 PUSH2 0x3579 JUMP JUMPDEST PUSH1 0x40 DUP3 ADD SWAP1 POP SWAP2 SWAP1 POP JUMP JUMPDEST PUSH1 0x0 PUSH1 0x20 DUP3 ADD SWAP1 POP DUP2 DUP2 SUB PUSH1 0x0 DUP4 ADD MSTORE PUSH2 0x3604 DUP2 PUSH2 0x35C8 JUMP JUMPDEST SWAP1 POP SWAP2 SWAP1 POP JUMP JUMPDEST PUSH32 0x4E487B7100000000000000000000000000000000000000000000000000000000 PUSH1 0x0 MSTORE PUSH1 0x11 PUSH1 0x4 MSTORE PUSH1 0x24 PUSH1 0x0 REVERT JUMPDEST PUSH1 0x0 PUSH2 0x3645 DUP3 PUSH2 0x2CA6 JUMP JUMPDEST SWAP2 POP PUSH2 0x3650 DUP4 PUSH2 0x2CA6 JUMP JUMPDEST SWAP3 POP DUP3 DUP3 SUB SWAP1 POP DUP2 DUP2 GT ISZERO PUSH2 0x3668 JUMPI PUSH2 0x3667 PUSH2 0x360B JUMP JUMPDEST JUMPDEST SWAP3 SWAP2 POP POP JUMP JUMPDEST PUSH32 0x4552433732313A207472616E736665722063616C6C6572206973206E6F74206F PUSH1 0x0 DUP3 ADD MSTORE PUSH32 0x776E6572206E6F7220617070726F766564000000000000000000000000000000 PUSH1 0x20 DUP3 ADD MSTORE POP JUMP JUMPDEST PUSH1 0x0 PUSH2 0x36CA PUSH1 0x31 DUP4 PUSH2 0x2D70 JUMP JUMPDEST SWAP2 POP PUSH2 0x36D5 DUP3 PUSH2 0x366E JUMP JUMPDEST PUSH1 0x40 DUP3 ADD SWAP1 POP SWAP2 SWAP1 POP JUMP JUMPDEST PUSH1 0x0 PUSH1 0x20 DUP3 ADD SWAP1 POP DUP2 DUP2 SUB PUSH1 0x0 DUP4 ADD MSTORE PUSH2 0x36F9 DUP2 PUSH2 0x36BD JUMP JUMPDEST SWAP1 POP SWAP2 SWAP1 POP JUMP JUMPDEST PUSH32 0x4E487B7100000000000000000000000000000000000000000000000000000000 PUSH1 0x0 MSTORE PUSH1 0x32 PUSH1 0x4 MSTORE PUSH1 0x24 PUSH1 0x0 REVERT JUMPDEST PUSH1 0x0 PUSH2 0x373A DUP3 PUSH2 0x2CA6 JUMP JUMPDEST SWAP2 POP PUSH32 0xFFFFFFFFFFFFFFFFFFFFFFFFFFFFFFFFFFFFFFFFFFFFFFFFFFFFFFFFFFFFFFFF DUP3 SUB PUSH2 0x376C JUMPI PUSH2 0x376B PUSH2 0x360B JUMP JUMPDEST JUMPDEST PUSH1 0x1 DUP3 ADD SWAP1 POP SWAP2 SWAP1 POP JUMP JUMPDEST PUSH32 0x49445F544F4F5F48494748000000000000000000000000000000000000000000 PUSH1 0x0 DUP3 ADD MSTORE POP JUMP JUMPDEST PUSH1 0x0 PUSH2 0x37AD PUSH1 0xB DUP4 PUSH2 0x2D70 JUMP JUMPDEST SWAP2 POP PUSH2 0x37B8 DUP3 PUSH2 0x3777 JUMP JUMPDEST PUSH1 0x20 DUP3 ADD SWAP1 POP SWAP2 SWAP1 POP JUMP JUMPDEST PUSH1 0x0 PUSH1 0x20 DUP3 ADD SWAP1 POP DUP2 DUP2 SUB PUSH1 0x0 DUP4 ADD MSTORE PUSH2 0x37DC DUP2 PUSH2 0x37A0 JUMP JUMPDEST SWAP1 POP SWAP2 SWAP1 POP JUMP JUMPDEST PUSH32 0x4F776E61626C653A2063616C6C6572206973206E6F7420746865206F776E6572 PUSH1 0x0 DUP3 ADD MSTORE POP JUMP JUMPDEST PUSH1 0x0 PUSH2 0x3819 PUSH1 0x20 DUP4 PUSH2 0x2D70 JUMP JUMPDEST SWAP2 POP PUSH2 0x3824 DUP3 PUSH2 0x37E3 JUMP JUMPDEST PUSH1 0x20 DUP3 ADD SWAP1 POP SWAP2 SWAP1 POP JUMP JUMPDEST PUSH1 0x0 PUSH1 0x20 DUP3 ADD SWAP1 POP DUP2 DUP2 SUB PUSH1 0x0 DUP4 ADD MSTORE PUSH2 0x3848 DUP2 PUSH2 0x380C JUMP JUMPDEST SWAP1 POP SWAP2 SWAP1 POP JUMP JUMPDEST PUSH1 0x0 DUP2 SWAP1 POP DUP2 PUSH1 0x0 MSTORE PUSH1 0x20 PUSH1 0x0 KECCAK256 SWAP1 POP SWAP2 SWAP1 POP JUMP JUMPDEST PUSH1 0x0 PUSH1 0x20 PUSH1 0x1F DUP4 ADD DIV SWAP1 POP SWAP2 SWAP1 POP JUMP JUMPDEST PUSH1 0x0 DUP3 DUP3 SHL SWAP1 POP SWAP3 SWAP2 POP POP JUMP JUMPDEST PUSH1 0x0 PUSH1 0x8 DUP4 MUL PUSH2 0x38B1 PUSH32 0xFFFFFFFFFFFFFFFFFFFFFFFFFFFFFFFFFFFFFFFFFFFFFFFFFFFFFFFFFFFFFFFF DUP3 PUSH2 0x3874 JUMP JUMPDEST PUSH2 0x38BB DUP7 DUP4 PUSH2 0x3874 JUMP JUMPDEST SWAP6 POP DUP1 NOT DUP5 AND SWAP4 POP DUP1 DUP7 AND DUP5 OR SWAP3 POP POP POP SWAP4 SWAP3 POP POP POP JUMP JUMPDEST PUSH1 0x0 DUP2 SWAP1 POP SWAP2 SWAP1 POP JUMP JUMPDEST PUSH1 0x0 PUSH2 0x38F8 PUSH2 0x38F3 PUSH2 0x38EE DUP5 PUSH2 0x2CA6 JUMP JUMPDEST PUSH2 0x38D3 JUMP JUMPDEST PUSH2 0x2CA6 JUMP JUMPDEST SWAP1 POP SWAP2 SWAP1 POP JUMP JUMPDEST PUSH1 0x0 DUP2 SWAP1 POP SWAP2 SWAP1 POP JUMP JUMPDEST PUSH2 0x3912 DUP4 PUSH2 0x38DD JUMP JUMPDEST PUSH2 0x3926 PUSH2 0x391E DUP3 PUSH2 0x38FF JUMP JUMPDEST DUP5 DUP5 SLOAD PUSH2 0x3881 JUMP JUMPDEST DUP3 SSTORE POP POP POP POP JUMP JUMPDEST PUSH1 0x0 SWAP1 JUMP JUMPDEST PUSH2 0x393B PUSH2 0x392E JUMP JUMPDEST PUSH2 0x3946 DUP2 DUP5 DUP5 PUSH2 0x3909 JUMP JUMPDEST POP POP POP JUMP JUMPDEST JUMPDEST DUP2 DUP2 LT ISZERO PUSH2 0x396A JUMPI PUSH2 0x395F PUSH1 0x0 DUP3 PUSH2 0x3933 JUMP JUMPDEST PUSH1 0x1 DUP2 ADD SWAP1 POP PUSH2 0x394C JUMP JUMPDEST POP POP JUMP JUMPDEST PUSH1 0x1F DUP3 GT ISZERO PUSH2 0x39AF JUMPI PUSH2 0x3980 DUP2 PUSH2 0x384F JUMP JUMPDEST PUSH2 0x3989 DUP5 PUSH2 0x3864 JUMP JUMPDEST DUP2 ADD PUSH1 0x20 DUP6 LT ISZERO PUSH2 0x3998 JUMPI DUP2 SWAP1 POP JUMPDEST PUSH2 0x39AC PUSH2 0x39A4 DUP6 PUSH2 0x3864 JUMP JUMPDEST DUP4 ADD DUP3 PUSH2 0x394B JUMP JUMPDEST POP POP JUMPDEST POP POP POP JUMP JUMPDEST PUSH1 0x0 DUP3 DUP3 SHR SWAP1 POP SWAP3 SWAP2 POP POP JUMP JUMPDEST PUSH1 0x0 PUSH2 0x39D2 PUSH1 0x0 NOT DUP5 PUSH1 0x8 MUL PUSH2 0x39B4 JUMP JUMPDEST NOT DUP1 DUP4 AND SWAP2 POP POP SWAP3 SWAP2 POP POP JUMP JUMPDEST PUSH1 0x0 PUSH2 0x39EB DUP4 DUP4 PUSH2 0x39C1 JUMP JUMPDEST SWAP2 POP DUP3 PUSH1 0x2 MUL DUP3 OR SWAP1 POP SWAP3 SWAP2 POP POP JUMP JUMPDEST PUSH2 0x3A04 DUP3 PUSH2 0x2D65 JUMP JUMPDEST PUSH8 0xFFFFFFFFFFFFFFFF DUP2 GT ISZERO PUSH2 0x3A1D JUMPI PUSH2 0x3A1C PUSH2 0x2F63 JUMP JUMPDEST JUMPDEST PUSH2 0x3A27 DUP3 SLOAD PUSH2 0x3424 JUMP JUMPDEST PUSH2 0x3A32 DUP3 DUP3 DUP6 PUSH2 0x396E JUMP JUMPDEST PUSH1 0x0 PUSH1 0x20 SWAP1 POP PUSH1 0x1F DUP4 GT PUSH1 0x1 DUP2 EQ PUSH2 0x3A65 JUMPI PUSH1 0x0 DUP5 ISZERO PUSH2 0x3A53 JUMPI DUP3 DUP8 ADD MLOAD SWAP1 POP JUMPDEST PUSH2 0x3A5D DUP6 DUP3 PUSH2 0x39DF JUMP JUMPDEST DUP7 SSTORE POP PUSH2 0x3AC5 JUMP JUMPDEST PUSH1 0x1F NOT DUP5 AND PUSH2 0x3A73 DUP7 PUSH2 0x384F JUMP JUMPDEST PUSH1 0x0 JUMPDEST DUP3 DUP2 LT ISZERO PUSH2 0x3A9B JUMPI DUP5 DUP10 ADD MLOAD DUP3 SSTORE PUSH1 0x1 DUP3 ADD SWAP2 POP PUSH1 0x20 DUP6 ADD SWAP5 POP PUSH1 0x20 DUP2 ADD SWAP1 POP PUSH2 0x3A76 JUMP JUMPDEST DUP7 DUP4 LT ISZERO PUSH2 0x3AB8 JUMPI DUP5 DUP10 ADD MLOAD PUSH2 0x3AB4 PUSH1 0x1F DUP10 AND DUP3 PUSH2 0x39C1 JUMP JUMPDEST DUP4 SSTORE POP JUMPDEST PUSH1 0x1 PUSH1 0x2 DUP9 MUL ADD DUP9 SSTORE POP POP POP JUMPDEST POP POP POP POP POP POP JUMP JUMPDEST PUSH32 0x4552433732313A206F776E657220717565727920666F72206E6F6E6578697374 PUSH1 0x0 DUP3 ADD MSTORE PUSH32 0x656E7420746F6B656E0000000000000000000000000000000000000000000000 PUSH1 0x20 DUP3 ADD MSTORE POP JUMP JUMPDEST PUSH1 0x0 PUSH2 0x3B29 PUSH1 0x29 DUP4 PUSH2 0x2D70 JUMP JUMPDEST SWAP2 POP PUSH2 0x3B34 DUP3 PUSH2 0x3ACD JUMP JUMPDEST PUSH1 0x40 DUP3 ADD SWAP1 POP SWAP2 SWAP1 POP JUMP JUMPDEST PUSH1 0x0 PUSH1 0x20 DUP3 ADD SWAP1 POP DUP2 DUP2 SUB PUSH1 0x0 DUP4 ADD MSTORE PUSH2 0x3B58 DUP2 PUSH2 0x3B1C JUMP JUMPDEST SWAP1 POP SWAP2 SWAP1 POP JUMP JUMPDEST PUSH32 0x4552433732313A2062616C616E636520717565727920666F7220746865207A65 PUSH1 0x0 DUP3 ADD MSTORE PUSH32 0x726F206164647265737300000000000000000000000000000000000000000000 PUSH1 0x20 DUP3 ADD MSTORE POP JUMP JUMPDEST PUSH1 0x0 PUSH2 0x3BBB PUSH1 0x2A DUP4 PUSH2 0x2D70 JUMP JUMPDEST SWAP2 POP PUSH2 0x3BC6 DUP3 PUSH2 0x3B5F JUMP JUMPDEST PUSH1 0x40 DUP3 ADD SWAP1 POP SWAP2 SWAP1 POP JUMP JUMPDEST PUSH1 0x0 PUSH1 0x20 DUP3 ADD SWAP1 POP DUP2 DUP2 SUB PUSH1 0x0 DUP4 ADD MSTORE PUSH2 0x3BEA DUP2 PUSH2 0x3BAE JUMP JUMPDEST SWAP1 POP SWAP2 SWAP1 POP JUMP JUMPDEST PUSH1 0x0 PUSH2 0x3BFC DUP3 PUSH2 0x2CA6 JUMP JUMPDEST SWAP2 POP PUSH2 0x3C07 DUP4 PUSH2 0x2CA6 JUMP JUMPDEST SWAP3 POP DUP3 DUP3 MUL PUSH2 0x3C15 DUP2 PUSH2 0x2CA6 JUMP JUMPDEST SWAP2 POP DUP3 DUP3 DIV DUP5 EQ DUP4 ISZERO OR PUSH2 0x3C2C JUMPI PUSH2 0x3C2B PUSH2 0x360B JUMP JUMPDEST JUMPDEST POP SWAP3 SWAP2 POP POP JUMP JUMPDEST PUSH32 0x57524F4E475F4554485F414D4F554E5400000000000000000000000000000000 PUSH1 0x0 DUP3 ADD MSTORE POP JUMP JUMPDEST PUSH1 0x0 PUSH2 0x3C69 PUSH1 0x10 DUP4 PUSH2 0x2D70 JUMP JUMPDEST SWAP2 POP PUSH2 0x3C74 DUP3 PUSH2 0x3C33 JUMP JUMPDEST PUSH1 0x20 DUP3 ADD SWAP1 POP SWAP2 SWAP1 POP JUMP JUMPDEST PUSH1 0x0 PUSH1 0x20 DUP3 ADD SWAP1 POP DUP2 DUP2 SUB PUSH1 0x0 DUP4 ADD MSTORE PUSH2 0x3C98 DUP2 PUSH2 0x3C5C JUMP JUMPDEST SWAP1 POP SWAP2 SWAP1 POP JUMP JUMPDEST PUSH1 0x0 PUSH2 0x3CAA DUP3 PUSH2 0x2CA6 JUMP JUMPDEST SWAP2 POP PUSH2 0x3CB5 DUP4 PUSH2 0x2CA6 JUMP JUMPDEST SWAP3 POP DUP3 DUP3 ADD SWAP1 POP DUP1 DUP3 GT ISZERO PUSH2 0x3CCD JUMPI PUSH2 0x3CCC PUSH2 0x360B JUMP JUMPDEST JUMPDEST SWAP3 SWAP2 POP POP JUMP JUMPDEST PUSH32 0x4D41585F535550504C5900000000000000000000000000000000000000000000 PUSH1 0x0 DUP3 ADD MSTORE POP JUMP JUMPDEST PUSH1 0x0 PUSH2 0x3D09 PUSH1 0xA DUP4 PUSH2 0x2D70 JUMP JUMPDEST SWAP2 POP PUSH2 0x3D14 DUP3 PUSH2 0x3CD3 JUMP JUMPDEST PUSH1 0x20 DUP3 ADD SWAP1 POP SWAP2 SWAP1 POP JUMP JUMPDEST PUSH1 0x0 PUSH1 0x20 DUP3 ADD SWAP1 POP DUP2 DUP2 SUB PUSH1 0x0 DUP4 ADD MSTORE PUSH2 0x3D38 DUP2 PUSH2 0x3CFC JUMP JUMPDEST SWAP1 POP SWAP2 SWAP1 POP JUMP JUMPDEST PUSH32 0x414444524553535F4D41585F5245414348454400000000000000000000000000 PUSH1 0x0 DUP3 ADD MSTORE POP JUMP JUMPDEST PUSH1 0x0 PUSH2 0x3D75 PUSH1 0x13 DUP4 PUSH2 0x2D70 JUMP JUMPDEST SWAP2 POP PUSH2 0x3D80 DUP3 PUSH2 0x3D3F JUMP JUMPDEST PUSH1 0x20 DUP3 ADD SWAP1 POP SWAP2 SWAP1 POP JUMP JUMPDEST PUSH1 0x0 PUSH1 0x20 DUP3 ADD SWAP1 POP DUP2 DUP2 SUB PUSH1 0x0 DUP4 ADD MSTORE PUSH2 0x3DA4 DUP2 PUSH2 0x3D68 JUMP JUMPDEST SWAP1 POP SWAP2 SWAP1 POP JUMP JUMPDEST PUSH32 0x4552433732313A20617070726F766520746F2063616C6C657200000000000000 PUSH1 0x0 DUP3 ADD MSTORE POP JUMP JUMPDEST PUSH1 0x0 PUSH2 0x3DE1 PUSH1 0x19 DUP4 PUSH2 0x2D70 JUMP JUMPDEST SWAP2 POP PUSH2 0x3DEC DUP3 PUSH2 0x3DAB JUMP JUMPDEST PUSH1 0x20 DUP3 ADD SWAP1 POP SWAP2 SWAP1 POP JUMP JUMPDEST PUSH1 0x0 PUSH1 0x20 DUP3 ADD SWAP1 POP DUP2 DUP2 SUB PUSH1 0x0 DUP4 ADD MSTORE PUSH2 0x3E10 DUP2 PUSH2 0x3DD4 JUMP JUMPDEST SWAP1 POP SWAP2 SWAP1 POP JUMP JUMPDEST PUSH32 0x4552433732314D657461646174613A2055524920717565727920666F72206E6F PUSH1 0x0 DUP3 ADD MSTORE PUSH32 0x6E6578697374656E7420746F6B656E0000000000000000000000000000000000 PUSH1 0x20 DUP3 ADD MSTORE POP JUMP JUMPDEST PUSH1 0x0 PUSH2 0x3E73 PUSH1 0x2F DUP4 PUSH2 0x2D70 JUMP JUMPDEST SWAP2 POP PUSH2 0x3E7E DUP3 PUSH2 0x3E17 JUMP JUMPDEST PUSH1 0x40 DUP3 ADD SWAP1 POP SWAP2 SWAP1 POP JUMP JUMPDEST PUSH1 0x0 PUSH1 0x20 DUP3 ADD SWAP1 POP DUP2 DUP2 SUB PUSH1 0x0 DUP4 ADD MSTORE PUSH2 0x3EA2 DUP2 PUSH2 0x3E66 JUMP JUMPDEST SWAP1 POP SWAP2 SWAP1 POP JUMP JUMPDEST PUSH1 0x0 DUP2 SWAP1 POP SWAP3 SWAP2 POP POP JUMP JUMPDEST PUSH1 0x0 DUP2 SLOAD PUSH2 0x3EC1 DUP2 PUSH2 0x3424 JUMP JUMPDEST PUSH2 0x3ECB DUP2 DUP7 PUSH2 0x3EA9 JUMP JUMPDEST SWAP5 POP PUSH1 0x1 DUP3 AND PUSH1 0x0 DUP2 EQ PUSH2 0x3EE6 JUMPI PUSH1 0x1 DUP2 EQ PUSH2 0x3EFB JUMPI PUSH2 0x3F2E JUMP JUMPDEST PUSH1 0xFF NOT DUP4 AND DUP7 MSTORE DUP2 ISZERO ISZERO DUP3 MUL DUP7 ADD SWAP4 POP PUSH2 0x3F2E JUMP JUMPDEST PUSH2 0x3F04 DUP6 PUSH2 0x384F JUMP JUMPDEST PUSH1 0x0 JUMPDEST DUP4 DUP2 LT ISZERO PUSH2 0x3F26 JUMPI DUP2 SLOAD DUP2 DUP10 ADD MSTORE PUSH1 0x1 DUP3 ADD SWAP2 POP PUSH1 0x20 DUP2 ADD SWAP1 POP PUSH2 0x3F07 JUMP JUMPDEST DUP4 DUP9 ADD SWAP6 POP POP POP JUMPDEST POP POP POP SWAP3 SWAP2 POP POP JUMP JUMPDEST PUSH1 0x0 PUSH2 0x3F42 DUP3 PUSH2 0x2D65 JUMP JUMPDEST PUSH2 0x3F4C DUP2 DUP6 PUSH2 0x3EA9 JUMP JUMPDEST SWAP4 POP PUSH2 0x3F5C DUP2 DUP6 PUSH1 0x20 DUP7 ADD PUSH2 0x2D81 JUMP JUMPDEST DUP1 DUP5 ADD SWAP2 POP POP SWAP3 SWAP2 POP POP JUMP JUMPDEST PUSH32 0x2E6A736F6E000000000000000000000000000000000000000000000000000000 PUSH1 0x0 DUP3 ADD MSTORE POP JUMP JUMPDEST PUSH1 0x0 PUSH2 0x3F9E PUSH1 0x5 DUP4 PUSH2 0x3EA9 JUMP JUMPDEST SWAP2 POP PUSH2 0x3FA9 DUP3 PUSH2 0x3F68 JUMP JUMPDEST PUSH1 0x5 DUP3 ADD SWAP1 POP SWAP2 SWAP1 POP JUMP JUMPDEST PUSH1 0x0 PUSH2 0x3FC0 DUP3 DUP6 PUSH2 0x3EB4 JUMP JUMPDEST SWAP2 POP PUSH2 0x3FCC DUP3 DUP5 PUSH2 0x3F37 JUMP JUMPDEST SWAP2 POP PUSH2 0x3FD7 DUP3 PUSH2 0x3F91 JUMP JUMPDEST SWAP2 POP DUP2 SWAP1 POP SWAP4 SWAP3 POP POP POP JUMP JUMPDEST PUSH32 0x494E56414C49445F4D45524B4C455F50524F4F46000000000000000000000000 PUSH1 0x0 DUP3 ADD MSTORE POP JUMP JUMPDEST PUSH1 0x0 PUSH2 0x4019 PUSH1 0x14 DUP4 PUSH2 0x2D70 JUMP JUMPDEST SWAP2 POP PUSH2 0x4024 DUP3 PUSH2 0x3FE3 JUMP JUMPDEST PUSH1 0x20 DUP3 ADD SWAP1 POP SWAP2 SWAP1 POP JUMP JUMPDEST PUSH1 0x0 PUSH1 0x20 DUP3 ADD SWAP1 POP DUP2 DUP2 SUB PUSH1 0x0 DUP4 ADD MSTORE PUSH2 0x4048 DUP2 PUSH2 0x400C JUMP JUMPDEST SWAP1 POP SWAP2 SWAP1 POP JUMP JUMPDEST PUSH32 0x4F776E61626C653A206E6577206F776E657220697320746865207A65726F2061 PUSH1 0x0 DUP3 ADD MSTORE PUSH32 0x6464726573730000000000000000000000000000000000000000000000000000 PUSH1 0x20 DUP3 ADD MSTORE POP JUMP JUMPDEST PUSH1 0x0 PUSH2 0x40AB PUSH1 0x26 DUP4 PUSH2 0x2D70 JUMP JUMPDEST SWAP2 POP PUSH2 0x40B6 DUP3 PUSH2 0x404F JUMP JUMPDEST PUSH1 0x40 DUP3 ADD SWAP1 POP SWAP2 SWAP1 POP JUMP JUMPDEST PUSH1 0x0 PUSH1 0x20 DUP3 ADD SWAP1 POP DUP2 DUP2 SUB PUSH1 0x0 DUP4 ADD MSTORE PUSH2 0x40DA DUP2 PUSH2 0x409E JUMP JUMPDEST SWAP1 POP SWAP2 SWAP1 POP JUMP JUMPDEST PUSH1 0x0 DUP2 SWAP1 POP SWAP3 SWAP2 POP POP JUMP JUMPDEST POP JUMP JUMPDEST PUSH1 0x0 PUSH2 0x40FC PUSH1 0x0 DUP4 PUSH2 0x40E1 JUMP JUMPDEST SWAP2 POP PUSH2 0x4107 DUP3 PUSH2 0x40EC JUMP JUMPDEST PUSH1 0x0 DUP3 ADD SWAP1 POP SWAP2 SWAP1 POP JUMP JUMPDEST PUSH1 0x0 PUSH2 0x411D DUP3 PUSH2 0x40EF JUMP JUMPDEST SWAP2 POP DUP2 SWAP1 POP SWAP2 SWAP1 POP JUMP JUMPDEST PUSH32 0x5749544844524157414C5F4641494C4544000000000000000000000000000000 PUSH1 0x0 DUP3 ADD MSTORE POP JUMP JUMPDEST PUSH1 0x0 PUSH2 0x415D PUSH1 0x11 DUP4 PUSH2 0x2D70 JUMP JUMPDEST SWAP2 POP PUSH2 0x4168 DUP3 PUSH2 0x4127 JUMP JUMPDEST PUSH1 0x20 DUP3 ADD SWAP1 POP SWAP2 SWAP1 POP JUMP JUMPDEST PUSH1 0x0 PUSH1 0x20 DUP3 ADD SWAP1 POP DUP2 DUP2 SUB PUSH1 0x0 DUP4 ADD MSTORE PUSH2 0x418C DUP2 PUSH2 0x4150 JUMP JUMPDEST SWAP1 POP SWAP2 SWAP1 POP JUMP JUMPDEST PUSH32 0x4552433732313A206F70657261746F7220717565727920666F72206E6F6E6578 PUSH1 0x0 DUP3 ADD MSTORE PUSH32 0x697374656E7420746F6B656E0000000000000000000000000000000000000000 PUSH1 0x20 DUP3 ADD MSTORE POP JUMP JUMPDEST PUSH1 0x0 PUSH2 0x41EF PUSH1 0x2C DUP4 PUSH2 0x2D70 JUMP JUMPDEST SWAP2 POP PUSH2 0x41FA DUP3 PUSH2 0x4193 JUMP JUMPDEST PUSH1 0x40 DUP3 ADD SWAP1 POP SWAP2 SWAP1 POP JUMP JUMPDEST PUSH1 0x0 PUSH1 0x20 DUP3 ADD SWAP1 POP DUP2 DUP2 SUB PUSH1 0x0 DUP4 ADD MSTORE PUSH2 0x421E DUP2 PUSH2 0x41E2 JUMP JUMPDEST SWAP1 POP SWAP2 SWAP1 POP JUMP JUMPDEST PUSH32 0x4552433732313A207472616E73666572206F6620746F6B656E20746861742069 PUSH1 0x0 DUP3 ADD MSTORE PUSH32 0x73206E6F74206F776E0000000000000000000000000000000000000000000000 PUSH1 0x20 DUP3 ADD MSTORE POP JUMP JUMPDEST PUSH1 0x0 PUSH2 0x4281 PUSH1 0x29 DUP4 PUSH2 0x2D70 JUMP JUMPDEST SWAP2 POP PUSH2 0x428C DUP3 PUSH2 0x4225 JUMP JUMPDEST PUSH1 0x40 DUP3 ADD SWAP1 POP SWAP2 SWAP1 POP JUMP JUMPDEST PUSH1 0x0 PUSH1 0x20 DUP3 ADD SWAP1 POP DUP2 DUP2 SUB PUSH1 0x0 DUP4 ADD MSTORE PUSH2 0x42B0 DUP2 PUSH2 0x4274 JUMP JUMPDEST SWAP1 POP SWAP2 SWAP1 POP JUMP JUMPDEST PUSH32 0x4552433732313A207472616E7366657220746F20746865207A65726F20616464 PUSH1 0x0 DUP3 ADD MSTORE PUSH32 0x7265737300000000000000000000000000000000000000000000000000000000 PUSH1 0x20 DUP3 ADD MSTORE POP JUMP JUMPDEST PUSH1 0x0 PUSH2 0x4313 PUSH1 0x24 DUP4 PUSH2 0x2D70 JUMP JUMPDEST SWAP2 POP PUSH2 0x431E DUP3 PUSH2 0x42B7 JUMP JUMPDEST PUSH1 0x40 DUP3 ADD SWAP1 POP SWAP2 SWAP1 POP JUMP JUMPDEST PUSH1 0x0 PUSH1 0x20 DUP3 ADD SWAP1 POP DUP2 DUP2 SUB PUSH1 0x0 DUP4 ADD MSTORE PUSH2 0x4342 DUP2 PUSH2 0x4306 JUMP JUMPDEST SWAP1 POP SWAP2 SWAP1 POP JUMP JUMPDEST PUSH32 0x4552433732313A207472616E7366657220746F206E6F6E204552433732315265 PUSH1 0x0 DUP3 ADD MSTORE PUSH32 0x63656976657220696D706C656D656E7465720000000000000000000000000000 PUSH1 0x20 DUP3 ADD MSTORE POP JUMP JUMPDEST PUSH1 0x0 PUSH2 0x43A5 PUSH1 0x32 DUP4 PUSH2 0x2D70 JUMP JUMPDEST SWAP2 POP PUSH2 0x43B0 DUP3 PUSH2 0x4349 JUMP JUMPDEST PUSH1 0x40 DUP3 ADD SWAP1 POP SWAP2 SWAP1 POP JUMP JUMPDEST PUSH1 0x0 PUSH1 0x20 DUP3 ADD SWAP1 POP DUP2 DUP2 SUB PUSH1 0x0 DUP4 ADD MSTORE PUSH2 0x43D4 DUP2 PUSH2 0x4398 JUMP JUMPDEST SWAP1 POP SWAP2 SWAP1 POP JUMP JUMPDEST PUSH32 0x4E487B7100000000000000000000000000000000000000000000000000000000 PUSH1 0x0 MSTORE PUSH1 0x12 PUSH1 0x4 MSTORE PUSH1 0x24 PUSH1 0x0 REVERT JUMPDEST PUSH1 0x0 PUSH2 0x4415 DUP3 PUSH2 0x2CA6 JUMP JUMPDEST SWAP2 POP PUSH2 0x4420 DUP4 PUSH2 0x2CA6 JUMP JUMPDEST SWAP3 POP DUP3 PUSH2 0x4430 JUMPI PUSH2 0x442F PUSH2 0x43DB JUMP JUMPDEST JUMPDEST DUP3 DUP3 DIV SWAP1 POP SWAP3 SWAP2 POP POP JUMP JUMPDEST PUSH1 0x0 PUSH2 0x4446 DUP3 PUSH2 0x2CA6 JUMP JUMPDEST SWAP2 POP PUSH2 0x4451 DUP4 PUSH2 0x2CA6 JUMP JUMPDEST SWAP3 POP DUP3 PUSH2 0x4461 JUMPI PUSH2 0x4460 PUSH2 0x43DB JUMP JUMPDEST JUMPDEST DUP3 DUP3 MOD SWAP1 POP SWAP3 SWAP2 POP POP JUMP JUMPDEST PUSH1 0x0 DUP2 PUSH1 0x60 SHL SWAP1 POP SWAP2 SWAP1 POP JUMP JUMPDEST PUSH1 0x0 PUSH2 0x4484 DUP3 PUSH2 0x446C JUMP JUMPDEST SWAP1 POP SWAP2 SWAP1 POP JUMP JUMPDEST PUSH1 0x0 PUSH2 0x4496 DUP3 PUSH2 0x4479 JUMP JUMPDEST SWAP1 POP SWAP2 SWAP1 POP JUMP JUMPDEST PUSH2 0x44AE PUSH2 0x44A9 DUP3 PUSH2 0x2D29 JUMP JUMPDEST PUSH2 0x448B JUMP JUMPDEST DUP3 MSTORE POP POP JUMP JUMPDEST PUSH1 0x0 PUSH2 0x44C0 DUP3 DUP5 PUSH2 0x449D JUMP JUMPDEST PUSH1 0x14 DUP3 ADD SWAP2 POP DUP2 SWAP1 POP SWAP3 SWAP2 POP POP JUMP JUMPDEST PUSH1 0x0 DUP2 MLOAD SWAP1 POP SWAP2 SWAP1 POP JUMP JUMPDEST PUSH1 0x0 DUP3 DUP3 MSTORE PUSH1 0x20 DUP3 ADD SWAP1 POP SWAP3 SWAP2 POP POP JUMP JUMPDEST PUSH1 0x0 PUSH2 0x44F6 DUP3 PUSH2 0x44CF JUMP JUMPDEST PUSH2 0x4500 DUP2 DUP6 PUSH2 0x44DA JUMP JUMPDEST SWAP4 POP PUSH2 0x4510 DUP2 DUP6 PUSH1 0x20 DUP7 ADD PUSH2 0x2D81 JUMP JUMPDEST PUSH2 0x4519 DUP2 PUSH2 0x2DAB JUMP JUMPDEST DUP5 ADD SWAP2 POP POP SWAP3 SWAP2 POP POP JUMP JUMPDEST PUSH1 0x0 PUSH1 0x80 DUP3 ADD SWAP1 POP PUSH2 0x4539 PUSH1 0x0 DUP4 ADD DUP8 PUSH2 0x2D3B JUMP JUMPDEST PUSH2 0x4546 PUSH1 0x20 DUP4 ADD DUP7 PUSH2 0x2D3B JUMP JUMPDEST PUSH2 0x4553 PUSH1 0x40 DUP4 ADD DUP6 PUSH2 0x2E83 JUMP JUMPDEST DUP2 DUP2 SUB PUSH1 0x60 DUP4 ADD MSTORE PUSH2 0x4565 DUP2 DUP5 PUSH2 0x44EB JUMP JUMPDEST SWAP1 POP SWAP6 SWAP5 POP POP POP POP POP JUMP JUMPDEST PUSH1 0x0 DUP2 MLOAD SWAP1 POP PUSH2 0x457F DUP2 PUSH2 0x2C17 JUMP JUMPDEST SWAP3 SWAP2 POP POP JUMP JUMPDEST PUSH1 0x0 PUSH1 0x20 DUP3 DUP5 SUB SLT ISZERO PUSH2 0x459B JUMPI PUSH2 0x459A PUSH2 0x2BE1 JUMP JUMPDEST JUMPDEST PUSH1 0x0 PUSH2 0x45A9 DUP5 DUP3 DUP6 ADD PUSH2 0x4570 JUMP JUMPDEST SWAP2 POP POP SWAP3 SWAP2 POP POP JUMP JUMPDEST PUSH32 0x4552433732313A206D696E7420746F20746865207A65726F2061646472657373 PUSH1 0x0 DUP3 ADD MSTORE POP JUMP JUMPDEST PUSH1 0x0 PUSH2 0x45E8 PUSH1 0x20 DUP4 PUSH2 0x2D70 JUMP JUMPDEST SWAP2 POP PUSH2 0x45F3 DUP3 PUSH2 0x45B2 JUMP JUMPDEST PUSH1 0x20 DUP3 ADD SWAP1 POP SWAP2 SWAP1 POP JUMP JUMPDEST PUSH1 0x0 PUSH1 0x20 DUP3 ADD SWAP1 POP DUP2 DUP2 SUB PUSH1 0x0 DUP4 ADD MSTORE PUSH2 0x4617 DUP2 PUSH2 0x45DB JUMP JUMPDEST SWAP1 POP SWAP2 SWAP1 POP JUMP JUMPDEST PUSH32 0x414C52454144595F4D494E544544000000000000000000000000000000000000 PUSH1 0x0 DUP3 ADD MSTORE POP JUMP JUMPDEST PUSH1 0x0 PUSH2 0x4654 PUSH1 0xE DUP4 PUSH2 0x2D70 JUMP JUMPDEST SWAP2 POP PUSH2 0x465F DUP3 PUSH2 0x461E JUMP JUMPDEST PUSH1 0x20 DUP3 ADD SWAP1 POP SWAP2 SWAP1 POP JUMP JUMPDEST PUSH1 0x0 PUSH1 0x20 DUP3 ADD SWAP1 POP DUP2 DUP2 SUB PUSH1 0x0 DUP4 ADD MSTORE PUSH2 0x4683 DUP2 PUSH2 0x4647 JUMP JUMPDEST SWAP1 POP SWAP2 SWAP1 POP JUMP INVALID LOG2 PUSH5 0x6970667358 0x22 SLT KECCAK256 PUSH11 0x1D0DB57E2ADBAD4DBC0BAF NOT SWAP16 ADDRESS PUSH26 0x8A21D18144782F5AFC882D8DF19FD46364736F6C634300081100 CALLER "
		},
		"gasEstimates": {
			"creation": {
				"codeDepositCost": "3622400",
				"executionCost": "infinite",
				"totalCost": "infinite"
			},
			"external": {
				"MAX_SUPPLY()": "375",
				"NFT_PRICE()": "375",
				"WHITELIST_PRICE()": "397",
				"approve(address,uint256)": "infinite",
				"balanceOf(address)": "infinite",
				"baseURI()": "infinite",
				"burn(uint256)": "infinite",
				"burnedTokens()": "2541",
				"coverURI()": "infinite",
				"getApproved(uint256)": "9514",
				"isApprovedForAll(address,address)": "infinite",
				"isRevealed()": "2538",
				"mint(uint256)": "infinite",
				"mintStartTime()": "2496",
				"minters(address)": "2946",
				"name()": "infinite",
				"owner()": "2567",
				"ownerOf(uint256)": "7244",
				"owners(uint256)": "5025",
				"premint(uint256,bytes32[])": "infinite",
				"renounceOwnership()": "30486",
				"root()": "2473",
				"safeTransferFrom(address,address,uint256)": "infinite",
				"safeTransferFrom(address,address,uint256,bytes)": "infinite",
				"setApprovalForAll(address,bool)": "infinite",
				"setBaseURI(string)": "infinite",
				"setCoverURI(string)": "infinite",
				"setIsRevealed(bool)": "27053",
				"setMerkleRoot(bytes32)": "24894",
				"setMintStartTime(uint256)": "24849",
				"supportsInterface(bytes4)": "820",
				"symbol()": "infinite",
				"tokenByIndex(uint256)": "infinite",
				"tokenOfOwnerByIndex(address,uint256)": "infinite",
				"tokenURI(uint256)": "infinite",
				"totalSupply()": "infinite",
				"transferFrom(address,address,uint256)": "infinite",
				"transferOwnership(address)": "30808",
				"withdraw(address,uint256)": "infinite"
			},
			"internal": {
				"_leaf(address)": "infinite",
				"_verify(bytes32,bytes32[] memory)": "infinite"
			}
		},
		"methodIdentifiers": {
			"MAX_SUPPLY()": "32cb6b0c",
			"NFT_PRICE()": "676dd563",
			"WHITELIST_PRICE()": "17e7f295",
			"approve(address,uint256)": "095ea7b3",
			"balanceOf(address)": "70a08231",
			"baseURI()": "6c0360eb",
			"burn(uint256)": "42966c68",
			"burnedTokens()": "47b5dd54",
			"coverURI()": "58039706",
			"getApproved(uint256)": "081812fc",
			"isApprovedForAll(address,address)": "e985e9c5",
			"isRevealed()": "54214f69",
			"mint(uint256)": "a0712d68",
			"mintStartTime()": "931e2e49",
			"minters(address)": "f46eccc4",
			"name()": "06fdde03",
			"owner()": "8da5cb5b",
			"ownerOf(uint256)": "6352211e",
			"owners(uint256)": "025e7c27",
			"premint(uint256,bytes32[])": "df341adf",
			"renounceOwnership()": "715018a6",
			"root()": "ebf0c717",
			"safeTransferFrom(address,address,uint256)": "42842e0e",
			"safeTransferFrom(address,address,uint256,bytes)": "b88d4fde",
			"setApprovalForAll(address,bool)": "a22cb465",
			"setBaseURI(string)": "55f804b3",
			"setCoverURI(string)": "ecd783c4",
			"setIsRevealed(bool)": "49a5980a",
			"setMerkleRoot(bytes32)": "7cb64759",
			"setMintStartTime(uint256)": "d5b3621b",
			"supportsInterface(bytes4)": "01ffc9a7",
			"symbol()": "95d89b41",
			"tokenByIndex(uint256)": "4f6ccce7",
			"tokenOfOwnerByIndex(address,uint256)": "2f745c59",
			"tokenURI(uint256)": "c87b56dd",
			"totalSupply()": "18160ddd",
			"transferFrom(address,address,uint256)": "23b872dd",
			"transferOwnership(address)": "f2fde38b",
			"withdraw(address,uint256)": "f3fef3a3"
		}
	},
	"abi": [
		{
			"inputs": [
				{
					"internalType": "string",
					"name": "_coverURI",
					"type": "string"
				}
			],
			"stateMutability": "nonpayable",
			"type": "constructor"
		},
		{
			"anonymous": false,
			"inputs": [
				{
					"indexed": true,
					"internalType": "address",
					"name": "owner",
					"type": "address"
				},
				{
					"indexed": true,
					"internalType": "address",
					"name": "approved",
					"type": "address"
				},
				{
					"indexed": true,
					"internalType": "uint256",
					"name": "tokenId",
					"type": "uint256"
				}
			],
			"name": "Approval",
			"type": "event"
		},
		{
			"anonymous": false,
			"inputs": [
				{
					"indexed": true,
					"internalType": "address",
					"name": "owner",
					"type": "address"
				},
				{
					"indexed": true,
					"internalType": "address",
					"name": "operator",
					"type": "address"
				},
				{
					"indexed": false,
					"internalType": "bool",
					"name": "approved",
					"type": "bool"
				}
			],
			"name": "ApprovalForAll",
			"type": "event"
		},
		{
			"anonymous": false,
			"inputs": [
				{
					"indexed": true,
					"internalType": "address",
					"name": "previousOwner",
					"type": "address"
				},
				{
					"indexed": true,
					"internalType": "address",
					"name": "newOwner",
					"type": "address"
				}
			],
			"name": "OwnershipTransferred",
			"type": "event"
		},
		{
			"anonymous": false,
			"inputs": [
				{
					"indexed": true,
					"internalType": "address",
					"name": "from",
					"type": "address"
				},
				{
					"indexed": true,
					"internalType": "address",
					"name": "to",
					"type": "address"
				},
				{
					"indexed": true,
					"internalType": "uint256",
					"name": "tokenId",
					"type": "uint256"
				}
			],
			"name": "Transfer",
			"type": "event"
		},
		{
			"inputs": [],
			"name": "MAX_SUPPLY",
			"outputs": [
				{
					"internalType": "uint256",
					"name": "",
					"type": "uint256"
				}
			],
			"stateMutability": "view",
			"type": "function"
		},
		{
			"inputs": [],
			"name": "NFT_PRICE",
			"outputs": [
				{
					"internalType": "uint256",
					"name": "",
					"type": "uint256"
				}
			],
			"stateMutability": "view",
			"type": "function"
		},
		{
			"inputs": [],
			"name": "WHITELIST_PRICE",
			"outputs": [
				{
					"internalType": "uint256",
					"name": "",
					"type": "uint256"
				}
			],
			"stateMutability": "view",
			"type": "function"
		},
		{
			"inputs": [
				{
					"internalType": "address",
					"name": "to",
					"type": "address"
				},
				{
					"internalType": "uint256",
					"name": "tokenId",
					"type": "uint256"
				}
			],
			"name": "approve",
			"outputs": [],
			"stateMutability": "nonpayable",
			"type": "function"
		},
		{
			"inputs": [
				{
					"internalType": "address",
					"name": "owner",
					"type": "address"
				}
			],
			"name": "balanceOf",
			"outputs": [
				{
					"internalType": "uint256",
					"name": "",
					"type": "uint256"
				}
			],
			"stateMutability": "view",
			"type": "function"
		},
		{
			"inputs": [],
			"name": "baseURI",
			"outputs": [
				{
					"internalType": "string",
					"name": "",
					"type": "string"
				}
			],
			"stateMutability": "view",
			"type": "function"
		},
		{
			"inputs": [
				{
					"internalType": "uint256",
					"name": "id",
					"type": "uint256"
				}
			],
			"name": "burn",
			"outputs": [],
			"stateMutability": "nonpayable",
			"type": "function"
		},
		{
			"inputs": [],
			"name": "burnedTokens",
			"outputs": [
				{
					"internalType": "uint256",
					"name": "",
					"type": "uint256"
				}
			],
			"stateMutability": "view",
			"type": "function"
		},
		{
			"inputs": [],
			"name": "coverURI",
			"outputs": [
				{
					"internalType": "string",
					"name": "",
					"type": "string"
				}
			],
			"stateMutability": "view",
			"type": "function"
		},
		{
			"inputs": [
				{
					"internalType": "uint256",
					"name": "tokenId",
					"type": "uint256"
				}
			],
			"name": "getApproved",
			"outputs": [
				{
					"internalType": "address",
					"name": "",
					"type": "address"
				}
			],
			"stateMutability": "view",
			"type": "function"
		},
		{
			"inputs": [
				{
					"internalType": "address",
					"name": "owner",
					"type": "address"
				},
				{
					"internalType": "address",
					"name": "operator",
					"type": "address"
				}
			],
			"name": "isApprovedForAll",
			"outputs": [
				{
					"internalType": "bool",
					"name": "",
					"type": "bool"
				}
			],
			"stateMutability": "view",
			"type": "function"
		},
		{
			"inputs": [],
			"name": "isRevealed",
			"outputs": [
				{
					"internalType": "bool",
					"name": "",
					"type": "bool"
				}
			],
			"stateMutability": "view",
			"type": "function"
		},
		{
			"inputs": [
				{
					"internalType": "uint256",
					"name": "amount",
					"type": "uint256"
				}
			],
			"name": "mint",
			"outputs": [],
			"stateMutability": "payable",
			"type": "function"
		},
		{
			"inputs": [],
			"name": "mintStartTime",
			"outputs": [
				{
					"internalType": "uint256",
					"name": "",
					"type": "uint256"
				}
			],
			"stateMutability": "view",
			"type": "function"
		},
		{
			"inputs": [
				{
					"internalType": "address",
					"name": "",
					"type": "address"
				}
			],
			"name": "minters",
			"outputs": [
				{
					"internalType": "uint256",
					"name": "",
					"type": "uint256"
				}
			],
			"stateMutability": "view",
			"type": "function"
		},
		{
			"inputs": [],
			"name": "name",
			"outputs": [
				{
					"internalType": "string",
					"name": "",
					"type": "string"
				}
			],
			"stateMutability": "view",
			"type": "function"
		},
		{
			"inputs": [],
			"name": "owner",
			"outputs": [
				{
					"internalType": "address",
					"name": "",
					"type": "address"
				}
			],
			"stateMutability": "view",
			"type": "function"
		},
		{
			"inputs": [
				{
					"internalType": "uint256",
					"name": "tokenId",
					"type": "uint256"
				}
			],
			"name": "ownerOf",
			"outputs": [
				{
					"internalType": "address",
					"name": "",
					"type": "address"
				}
			],
			"stateMutability": "view",
			"type": "function"
		},
		{
			"inputs": [
				{
					"internalType": "uint256",
					"name": "",
					"type": "uint256"
				}
			],
			"name": "owners",
			"outputs": [
				{
					"internalType": "address",
					"name": "",
					"type": "address"
				}
			],
			"stateMutability": "view",
			"type": "function"
		},
		{
			"inputs": [
				{
					"internalType": "uint256",
					"name": "amount",
					"type": "uint256"
				},
				{
					"internalType": "bytes32[]",
					"name": "proof",
					"type": "bytes32[]"
				}
			],
			"name": "premint",
			"outputs": [],
			"stateMutability": "payable",
			"type": "function"
		},
		{
			"inputs": [],
			"name": "renounceOwnership",
			"outputs": [],
			"stateMutability": "nonpayable",
			"type": "function"
		},
		{
			"inputs": [],
			"name": "root",
			"outputs": [
				{
					"internalType": "bytes32",
					"name": "",
					"type": "bytes32"
				}
			],
			"stateMutability": "view",
			"type": "function"
		},
		{
			"inputs": [
				{
					"internalType": "address",
					"name": "from",
					"type": "address"
				},
				{
					"internalType": "address",
					"name": "to",
					"type": "address"
				},
				{
					"internalType": "uint256",
					"name": "tokenId",
					"type": "uint256"
				}
			],
			"name": "safeTransferFrom",
			"outputs": [],
			"stateMutability": "nonpayable",
			"type": "function"
		},
		{
			"inputs": [
				{
					"internalType": "address",
					"name": "from",
					"type": "address"
				},
				{
					"internalType": "address",
					"name": "to",
					"type": "address"
				},
				{
					"internalType": "uint256",
					"name": "tokenId",
					"type": "uint256"
				},
				{
					"internalType": "bytes",
					"name": "_data",
					"type": "bytes"
				}
			],
			"name": "safeTransferFrom",
			"outputs": [],
			"stateMutability": "nonpayable",
			"type": "function"
		},
		{
			"inputs": [
				{
					"internalType": "address",
					"name": "operator",
					"type": "address"
				},
				{
					"internalType": "bool",
					"name": "approved",
					"type": "bool"
				}
			],
			"name": "setApprovalForAll",
			"outputs": [],
			"stateMutability": "nonpayable",
			"type": "function"
		},
		{
			"inputs": [
				{
					"internalType": "string",
					"name": "uri",
					"type": "string"
				}
			],
			"name": "setBaseURI",
			"outputs": [],
			"stateMutability": "nonpayable",
			"type": "function"
		},
		{
			"inputs": [
				{
					"internalType": "string",
					"name": "uri",
					"type": "string"
				}
			],
			"name": "setCoverURI",
			"outputs": [],
			"stateMutability": "nonpayable",
			"type": "function"
		},
		{
			"inputs": [
				{
					"internalType": "bool",
					"name": "_isRevealed",
					"type": "bool"
				}
			],
			"name": "setIsRevealed",
			"outputs": [],
			"stateMutability": "nonpayable",
			"type": "function"
		},
		{
			"inputs": [
				{
					"internalType": "bytes32",
					"name": "merkleroot",
					"type": "bytes32"
				}
			],
			"name": "setMerkleRoot",
			"outputs": [],
			"stateMutability": "nonpayable",
			"type": "function"
		},
		{
			"inputs": [
				{
					"internalType": "uint256",
					"name": "_startTime",
					"type": "uint256"
				}
			],
			"name": "setMintStartTime",
			"outputs": [],
			"stateMutability": "nonpayable",
			"type": "function"
		},
		{
			"inputs": [
				{
					"internalType": "bytes4",
					"name": "interfaceId",
					"type": "bytes4"
				}
			],
			"name": "supportsInterface",
			"outputs": [
				{
					"internalType": "bool",
					"name": "",
					"type": "bool"
				}
			],
			"stateMutability": "view",
			"type": "function"
		},
		{
			"inputs": [],
			"name": "symbol",
			"outputs": [
				{
					"internalType": "string",
					"name": "",
					"type": "string"
				}
			],
			"stateMutability": "view",
			"type": "function"
		},
		{
			"inputs": [
				{
					"internalType": "uint256",
					"name": "id",
					"type": "uint256"
				}
			],
			"name": "tokenByIndex",
			"outputs": [
				{
					"internalType": "uint256",
					"name": "",
					"type": "uint256"
				}
			],
			"stateMutability": "pure",
			"type": "function"
		},
		{
			"inputs": [
				{
					"internalType": "address",
					"name": "user",
					"type": "address"
				},
				{
					"internalType": "uint256",
					"name": "id",
					"type": "uint256"
				}
			],
			"name": "tokenOfOwnerByIndex",
			"outputs": [
				{
					"internalType": "uint256",
					"name": "",
					"type": "uint256"
				}
			],
			"stateMutability": "view",
			"type": "function"
		},
		{
			"inputs": [
				{
					"internalType": "uint256",
					"name": "id",
					"type": "uint256"
				}
			],
			"name": "tokenURI",
			"outputs": [
				{
					"internalType": "string",
					"name": "",
					"type": "string"
				}
			],
			"stateMutability": "view",
			"type": "function"
		},
		{
			"inputs": [],
			"name": "totalSupply",
			"outputs": [
				{
					"internalType": "uint256",
					"name": "",
					"type": "uint256"
				}
			],
			"stateMutability": "view",
			"type": "function"
		},
		{
			"inputs": [
				{
					"internalType": "address",
					"name": "from",
					"type": "address"
				},
				{
					"internalType": "address",
					"name": "to",
					"type": "address"
				},
				{
					"internalType": "uint256",
					"name": "tokenId",
					"type": "uint256"
				}
			],
			"name": "transferFrom",
			"outputs": [],
			"stateMutability": "nonpayable",
			"type": "function"
		},
		{
			"inputs": [
				{
					"internalType": "address",
					"name": "newOwner",
					"type": "address"
				}
			],
			"name": "transferOwnership",
			"outputs": [],
			"stateMutability": "nonpayable",
			"type": "function"
		},
		{
			"inputs": [
				{
					"internalType": "address",
					"name": "to",
					"type": "address"
				},
				{
					"internalType": "uint256",
					"name": "amount",
					"type": "uint256"
				}
			],
			"name": "withdraw",
			"outputs": [],
			"stateMutability": "nonpayable",
			"type": "function"
		}
	]
}