{
	"data": {
		"bytecode": {
			"linkReferences": {},
			"object": "608060405234801561001057600080fd5b5061002d61002261003260201b60201c565b61003a60201b60201c565b6100fe565b600033905090565b60008060009054906101000a900473ffffffffffffffffffffffffffffffffffffffff169050816000806101000a81548173ffffffffffffffffffffffffffffffffffffffff021916908373ffffffffffffffffffffffffffffffffffffffff1602179055508173ffffffffffffffffffffffffffffffffffffffff168173ffffffffffffffffffffffffffffffffffffffff167f8be0079c531659141344cd1fd0a4f28419497f9722a3daafe3b4186f6b6457e060405160405180910390a35050565b6124888061010d6000396000f3fe608060405260043610620000aa5760003560e01c806356702dc0116200006d57806356702dc0146200019b578063676dd56314620001c9578063715018a614620001f95780638da5cb5b1462000213578063cfc403941462000243578063f2fde38b146200026357620000aa565b80630f2cdd6c14620000af57806310c526c514620000df57806324cf2f9c14620000f95780632c526196146200012757806332cb6b0c146200016b575b600080fd5b348015620000bc57600080fd5b50620000c762000291565b604051620000d691906200098d565b60405180910390f35b348015620000ec57600080fd5b50620000f762000296565b005b3480156200010657600080fd5b506200012560048036038101906200011f919062000a14565b6200037b565b005b3480156200013457600080fd5b506200015360048036038101906200014d919062000a77565b62000510565b60405162000162919062000b14565b60405180910390f35b3480156200017857600080fd5b506200018362000550565b6040516200019291906200098d565b60405180910390f35b348015620001a857600080fd5b50620001c76004803603810190620001c1919062000a14565b62000556565b005b348015620001d657600080fd5b50620001e16200062b565b604051620001f091906200098d565b60405180910390f35b3480156200020657600080fd5b506200021162000634565b005b3480156200022057600080fd5b506200022b6200064c565b6040516200023a919062000b42565b60405180910390f35b6200026160048036038101906200025b919062000b5f565b62000675565b005b3480156200027057600080fd5b506200028f600480360381019062000289919062000a14565b62000789565b005b600281565b620002a062000813565b60005b600180549050811015620003785760018181548110620002c857620002c762000ba6565b5b9060005260206000200160009054906101000a900473ffffffffffffffffffffffffffffffffffffffff1673ffffffffffffffffffffffffffffffffffffffff1663a0712d6860026040518263ffffffff1660e01b81526004016200032e91906200098d565b600060405180830381600087803b1580156200034957600080fd5b505af11580156200035e573d6000803e3d6000fd5b5050505080806200036f9062000c04565b915050620002a3565b50565b6200038562000813565b60005b6001805490508110156200050c5760018181548110620003ad57620003ac62000ba6565b5b9060005260206000200160009054906101000a900473ffffffffffffffffffffffffffffffffffffffff1673ffffffffffffffffffffffffffffffffffffffff166351cff8d9836040518263ffffffff1660e01b815260040162000412919062000b42565b600060405180830381600087803b1580156200042d57600080fd5b505af115801562000442573d6000803e3d6000fd5b50505050600181815481106200045d576200045c62000ba6565b5b9060005260206000200160009054906101000a900473ffffffffffffffffffffffffffffffffffffffff1673ffffffffffffffffffffffffffffffffffffffff1663f6acc210836040518263ffffffff1660e01b8152600401620004c2919062000b42565b600060405180830381600087803b158015620004dd57600080fd5b505af1158015620004f2573d6000803e3d6000fd5b505050508080620005039062000c04565b91505062000388565b5050565b600181815481106200052157600080fd5b906000526020600020016000915054906101000a900473ffffffffffffffffffffffffffffffffffffffff1681565b61271081565b600064174876e800600160026200056e919062000c51565b6200057a919062000c8c565b8261271064174876e8006002604051620005949062000964565b620005a3949392919062000cd7565b6040518091039082f0905080158015620005c1573d6000803e3d6000fd5b5090506001819080600181540180825580915050600190039060005260206000200160009091909190916101000a81548173ffffffffffffffffffffffffffffffffffffffff021916908373ffffffffffffffffffffffffffffffffffffffff1602179055505050565b64174876e80081565b6200063e62000813565b6200064a600062000898565b565b60008060009054906101000a900473ffffffffffffffffffffffffffffffffffffffff16905090565b6200067f62000813565b8064174876e8006001600262000696919062000c51565b620006a2919062000c8c565b620006ae919062000c8c565b341015620006f3576040517f08c379a0000000000000000000000000000000000000000000000000000000008152600401620006ea9062000d85565b60405180910390fd5b60005b8181101562000784573073ffffffffffffffffffffffffffffffffffffffff166356702dc0846040518263ffffffff1660e01b81526004016200073a919062000b42565b600060405180830381600087803b1580156200075557600080fd5b505af11580156200076a573d6000803e3d6000fd5b5050505080806200077b9062000c04565b915050620006f6565b505050565b6200079362000813565b600073ffffffffffffffffffffffffffffffffffffffff168173ffffffffffffffffffffffffffffffffffffffff160362000805576040517f08c379a0000000000000000000000000000000000000000000000000000000008152600401620007fc9062000e1d565b60405180910390fd5b620008108162000898565b50565b6200081d6200095c565b73ffffffffffffffffffffffffffffffffffffffff166200083d6200064c565b73ffffffffffffffffffffffffffffffffffffffff161462000896576040517f08c379a00000000000000000000000000000000000000000000000000000000081526004016200088d9062000e8f565b60405180910390fd5b565b60008060009054906101000a900473ffffffffffffffffffffffffffffffffffffffff169050816000806101000a81548173ffffffffffffffffffffffffffffffffffffffff021916908373ffffffffffffffffffffffffffffffffffffffff1602179055508173ffffffffffffffffffffffffffffffffffffffff168173ffffffffffffffffffffffffffffffffffffffff167f8be0079c531659141344cd1fd0a4f28419497f9722a3daafe3b4186f6b6457e060405160405180910390a35050565b600033905090565b6115a18062000eb283390190565b6000819050919050565b620009878162000972565b82525050565b6000602082019050620009a460008301846200097c565b92915050565b600080fd5b600073ffffffffffffffffffffffffffffffffffffffff82169050919050565b6000620009dc82620009af565b9050919050565b620009ee81620009cf565b8114620009fa57600080fd5b50565b60008135905062000a0e81620009e3565b92915050565b60006020828403121562000a2d5762000a2c620009aa565b5b600062000a3d84828501620009fd565b91505092915050565b62000a518162000972565b811462000a5d57600080fd5b50565b60008135905062000a718162000a46565b92915050565b60006020828403121562000a905762000a8f620009aa565b5b600062000aa08482850162000a60565b91505092915050565b6000819050919050565b600062000ad462000ace62000ac884620009af565b62000aa9565b620009af565b9050919050565b600062000ae88262000ab3565b9050919050565b600062000afc8262000adb565b9050919050565b62000b0e8162000aef565b82525050565b600060208201905062000b2b600083018462000b03565b92915050565b62000b3c81620009cf565b82525050565b600060208201905062000b59600083018462000b31565b92915050565b6000806040838503121562000b795762000b78620009aa565b5b600062000b8985828601620009fd565b925050602062000b9c8582860162000a60565b9150509250929050565b7f4e487b7100000000000000000000000000000000000000000000000000000000600052603260045260246000fd5b7f4e487b7100000000000000000000000000000000000000000000000000000000600052601160045260246000fd5b600062000c118262000972565b91507fffffffffffffffffffffffffffffffffffffffffffffffffffffffffffffffff820362000c465762000c4562000bd5565b5b600182019050919050565b600062000c5e8262000972565b915062000c6b8362000972565b925082820190508082111562000c865762000c8562000bd5565b5b92915050565b600062000c998262000972565b915062000ca68362000972565b925082820262000cb68162000972565b9150828204841483151762000cd05762000ccf62000bd5565b5b5092915050565b600060808201905062000cee600083018762000b31565b62000cfd60208301866200097c565b62000d0c60408301856200097c565b62000d1b60608301846200097c565b95945050505050565b600082825260208201905092915050565b7f4e6f7420656e6f7567682065746820746f207061790000000000000000000000600082015250565b600062000d6d60158362000d24565b915062000d7a8262000d35565b602082019050919050565b6000602082019050818103600083015262000da08162000d5e565b9050919050565b7f4f776e61626c653a206e6577206f776e657220697320746865207a65726f206160008201527f6464726573730000000000000000000000000000000000000000000000000000602082015250565b600062000e0560268362000d24565b915062000e128262000da7565b604082019050919050565b6000602082019050818103600083015262000e388162000df6565b9050919050565b7f4f776e61626c653a2063616c6c6572206973206e6f7420746865206f776e6572600082015250565b600062000e7760208362000d24565b915062000e848262000e3f565b602082019050919050565b6000602082019050818103600083015262000eaa8162000e68565b905091905056fe6080604052604051620015a1380380620015a183398181016040528101906200002991906200025b565b620000496200003d620000ea60201b60201c565b620000f260201b60201c565b83600260006101000a81548173ffffffffffffffffffffffffffffffffffffffff021916908373ffffffffffffffffffffffffffffffffffffffff16021790555083600160006101000a81548173ffffffffffffffffffffffffffffffffffffffff021916908373ffffffffffffffffffffffffffffffffffffffff16021790555082600381905550816004819055508060058190555050505050620002cd565b600033905090565b60008060009054906101000a900473ffffffffffffffffffffffffffffffffffffffff169050816000806101000a81548173ffffffffffffffffffffffffffffffffffffffff021916908373ffffffffffffffffffffffffffffffffffffffff1602179055508173ffffffffffffffffffffffffffffffffffffffff168173ffffffffffffffffffffffffffffffffffffffff167f8be0079c531659141344cd1fd0a4f28419497f9722a3daafe3b4186f6b6457e060405160405180910390a35050565b600080fd5b600073ffffffffffffffffffffffffffffffffffffffff82169050919050565b6000620001e882620001bb565b9050919050565b620001fa81620001db565b81146200020657600080fd5b50565b6000815190506200021a81620001ef565b92915050565b6000819050919050565b620002358162000220565b81146200024157600080fd5b50565b60008151905062000255816200022a565b92915050565b60008060008060808587031215620002785762000277620001b6565b5b6000620002888782880162000209565b94505060206200029b8782880162000244565b9350506040620002ae8782880162000244565b9250506060620002c18782880162000244565b91505092959194509250565b6112c480620002dd6000396000f3fe60806040526004361061009c5760003560e01c8063715018a611610064578063715018a6146101885780638da5cb5b1461019f578063a0712d68146101ca578063ac446002146101e6578063f2fde38b146101fd578063f6acc210146102265761009c565b80630f2cdd6c146100a1578063150b7a02146100cc57806332cb6b0c1461010957806351cff8d914610134578063676dd5631461015d575b600080fd5b3480156100ad57600080fd5b506100b661024f565b6040516100c391906109cc565b60405180910390f35b3480156100d857600080fd5b506100f360048036038101906100ee9190610bcb565b610255565b6040516101009190610c89565b60405180910390f35b34801561011557600080fd5b5061011e610269565b60405161012b91906109cc565b60405180910390f35b34801561014057600080fd5b5061015b60048036038101906101569190610ca4565b61026f565b005b34801561016957600080fd5b50610172610327565b60405161017f91906109cc565b60405180910390f35b34801561019457600080fd5b5061019d61032d565b005b3480156101ab57600080fd5b506101b4610341565b6040516101c19190610ce0565b60405180910390f35b6101e460048036038101906101df9190610cfb565b61036a565b005b3480156101f257600080fd5b506101fb61045e565b005b34801561020957600080fd5b50610224600480360381019061021f9190610ca4565b610515565b005b34801561023257600080fd5b5061024d60048036038101906102489190610ca4565b610598565b005b60055481565b600063150b7a0260e01b9050949350505050565b60035481565b610277610869565b60008173ffffffffffffffffffffffffffffffffffffffff164760405161029d90610d59565b60006040518083038185875af1925050503d80600081146102da576040519150601f19603f3d011682016040523d82523d6000602084013e6102df565b606091505b5050905080610323576040517f08c379a000000000000000000000000000000000000000000000000000000000815260040161031a90610dcb565b60405180910390fd5b5050565b60045481565b610335610869565b61033f60006108e7565b565b60008060009054906101000a900473ffffffffffffffffffffffffffffffffffffffff16905090565b610372610869565b6000600260009054906101000a900473ffffffffffffffffffffffffffffffffffffffff1673ffffffffffffffffffffffffffffffffffffffff16600454836103bb9190610e1a565b7fa0712d680358d64f694230b7cc0b277c73686bdf768385d55cd7c547d0ffd30e846040516020016103ee929190610e9e565b60405160208183030381529060405260405161040a9190610f30565b60006040518083038185875af1925050503d8060008114610447576040519150601f19603f3d011682016040523d82523d6000602084013e61044c565b606091505b505090508061045a57600080fd5b5050565b610466610869565b60003373ffffffffffffffffffffffffffffffffffffffff164760405161048c90610d59565b60006040518083038185875af1925050503d80600081146104c9576040519150601f19603f3d011682016040523d82523d6000602084013e6104ce565b606091505b5050905080610512576040517f08c379a000000000000000000000000000000000000000000000000000000000815260040161050990610f93565b60405180910390fd5b50565b61051d610869565b600073ffffffffffffffffffffffffffffffffffffffff168173ffffffffffffffffffffffffffffffffffffffff160361058c576040517f08c379a000000000000000000000000000000000000000000000000000000000815260040161058390611025565b60405180910390fd5b610595816108e7565b50565b6105a0610869565b6000600260009054906101000a900473ffffffffffffffffffffffffffffffffffffffff16905060005b6005548110156108645760008273ffffffffffffffffffffffffffffffffffffffff166370a08231306040518263ffffffff1660e01b815260040161060f9190610ce0565b602060405180830381865afa15801561062c573d6000803e3d6000fd5b505050506040513d601f19601f82011682018060405250810190610650919061105a565b1115610851576000600160009054906101000a900473ffffffffffffffffffffffffffffffffffffffff1673ffffffffffffffffffffffffffffffffffffffff16632f745c593060006040518363ffffffff1660e01b81526004016106b69291906110cc565b602060405180830381865afa1580156106d3573d6000803e3d6000fd5b505050506040513d601f19601f820116820180604052508101906106f7919061105a565b90503073ffffffffffffffffffffffffffffffffffffffff168373ffffffffffffffffffffffffffffffffffffffff16636352211e836040518263ffffffff1660e01b815260040161074991906109cc565b602060405180830381865afa158015610766573d6000803e3d6000fd5b505050506040513d601f19601f8201168201806040525081019061078a919061110a565b73ffffffffffffffffffffffffffffffffffffffff16146107e0576040517f08c379a00000000000000000000000000000000000000000000000000000000081526004016107d790611183565b60405180910390fd5b8273ffffffffffffffffffffffffffffffffffffffff166323b872dd3086846040518463ffffffff1660e01b815260040161081d939291906111a3565b600060405180830381600087803b15801561083757600080fd5b505af115801561084b573d6000803e3d6000fd5b50505050505b808061085c906111da565b9150506105ca565b505050565b6108716109ab565b73ffffffffffffffffffffffffffffffffffffffff1661088f610341565b73ffffffffffffffffffffffffffffffffffffffff16146108e5576040517f08c379a00000000000000000000000000000000000000000000000000000000081526004016108dc9061126e565b60405180910390fd5b565b60008060009054906101000a900473ffffffffffffffffffffffffffffffffffffffff169050816000806101000a81548173ffffffffffffffffffffffffffffffffffffffff021916908373ffffffffffffffffffffffffffffffffffffffff1602179055508173ffffffffffffffffffffffffffffffffffffffff168173ffffffffffffffffffffffffffffffffffffffff167f8be0079c531659141344cd1fd0a4f28419497f9722a3daafe3b4186f6b6457e060405160405180910390a35050565b600033905090565b6000819050919050565b6109c6816109b3565b82525050565b60006020820190506109e160008301846109bd565b92915050565b6000604051905090565b600080fd5b600080fd5b600073ffffffffffffffffffffffffffffffffffffffff82169050919050565b6000610a26826109fb565b9050919050565b610a3681610a1b565b8114610a4157600080fd5b50565b600081359050610a5381610a2d565b92915050565b610a62816109b3565b8114610a6d57600080fd5b50565b600081359050610a7f81610a59565b92915050565b600080fd5b600080fd5b6000601f19601f8301169050919050565b7f4e487b7100000000000000000000000000000000000000000000000000000000600052604160045260246000fd5b610ad882610a8f565b810181811067ffffffffffffffff82111715610af757610af6610aa0565b5b80604052505050565b6000610b0a6109e7565b9050610b168282610acf565b919050565b600067ffffffffffffffff821115610b3657610b35610aa0565b5b610b3f82610a8f565b9050602081019050919050565b82818337600083830152505050565b6000610b6e610b6984610b1b565b610b00565b905082815260208101848484011115610b8a57610b89610a8a565b5b610b95848285610b4c565b509392505050565b600082601f830112610bb257610bb1610a85565b5b8135610bc2848260208601610b5b565b91505092915050565b60008060008060808587031215610be557610be46109f1565b5b6000610bf387828801610a44565b9450506020610c0487828801610a44565b9350506040610c1587828801610a70565b925050606085013567ffffffffffffffff811115610c3657610c356109f6565b5b610c4287828801610b9d565b91505092959194509250565b60007fffffffff0000000000000000000000000000000000000000000000000000000082169050919050565b610c8381610c4e565b82525050565b6000602082019050610c9e6000830184610c7a565b92915050565b600060208284031215610cba57610cb96109f1565b5b6000610cc884828501610a44565b91505092915050565b610cda81610a1b565b82525050565b6000602082019050610cf56000830184610cd1565b92915050565b600060208284031215610d1157610d106109f1565b5b6000610d1f84828501610a70565b91505092915050565b600081905092915050565b50565b6000610d43600083610d28565b9150610d4e82610d33565b600082019050919050565b6000610d6482610d36565b9150819050919050565b600082825260208201905092915050565b7f5749544844524157414c5f4641494c4544000000000000000000000000000000600082015250565b6000610db5601183610d6e565b9150610dc082610d7f565b602082019050919050565b60006020820190508181036000830152610de481610da8565b9050919050565b7f4e487b7100000000000000000000000000000000000000000000000000000000600052601160045260246000fd5b6000610e25826109b3565b9150610e30836109b3565b9250828202610e3e816109b3565b91508282048414831517610e5557610e54610deb565b5b5092915050565b6000819050919050565b610e77610e7282610c4e565b610e5c565b82525050565b6000819050919050565b610e98610e93826109b3565b610e7d565b82525050565b6000610eaa8285610e66565b600482019150610eba8284610e87565b6020820191508190509392505050565b600081519050919050565b60005b83811015610ef3578082015181840152602081019050610ed8565b60008484015250505050565b6000610f0a82610eca565b610f148185610d28565b9350610f24818560208601610ed5565b80840191505092915050565b6000610f3c8284610eff565b915081905092915050565b7f5472616e73666572206661696c65642e00000000000000000000000000000000600082015250565b6000610f7d601083610d6e565b9150610f8882610f47565b602082019050919050565b60006020820190508181036000830152610fac81610f70565b9050919050565b7f4f776e61626c653a206e6577206f776e657220697320746865207a65726f206160008201527f6464726573730000000000000000000000000000000000000000000000000000602082015250565b600061100f602683610d6e565b915061101a82610fb3565b604082019050919050565b6000602082019050818103600083015261103e81611002565b9050919050565b60008151905061105481610a59565b92915050565b6000602082840312156110705761106f6109f1565b5b600061107e84828501611045565b91505092915050565b6000819050919050565b6000819050919050565b60006110b66110b16110ac84611087565b611091565b6109b3565b9050919050565b6110c68161109b565b82525050565b60006040820190506110e16000830185610cd1565b6110ee60208301846110bd565b9392505050565b60008151905061110481610a2d565b92915050565b6000602082840312156111205761111f6109f1565b5b600061112e848285016110f5565b91505092915050565b7f596f75206d757374206f776e2074686520746f6b656e00000000000000000000600082015250565b600061116d601683610d6e565b915061117882611137565b602082019050919050565b6000602082019050818103600083015261119c81611160565b9050919050565b60006060820190506111b86000830186610cd1565b6111c56020830185610cd1565b6111d260408301846109bd565b949350505050565b60006111e5826109b3565b91507fffffffffffffffffffffffffffffffffffffffffffffffffffffffffffffffff820361121757611216610deb565b5b600182019050919050565b7f4f776e61626c653a2063616c6c6572206973206e6f7420746865206f776e6572600082015250565b6000611258602083610d6e565b915061126382611222565b602082019050919050565b600060208201905081810360008301526112878161124b565b905091905056fea26469706673582212203cc4399a7f0da0d7a26fbbdd372f6b424520ff489b3748d08bb92f03b60f538264736f6c63430008110033a2646970667358221220f4ecc11c6bf1974d8b3f389b79cf82d471e7c363d52f2294176b9b090150310e64736f6c63430008110033",
			"opcodes": "PUSH1 0x80 PUSH1 0x40 MSTORE CALLVALUE DUP1 ISZERO PUSH2 0x10 JUMPI PUSH1 0x0 DUP1 REVERT JUMPDEST POP PUSH2 0x2D PUSH2 0x22 PUSH2 0x32 PUSH1 0x20 SHL PUSH1 0x20 SHR JUMP JUMPDEST PUSH2 0x3A PUSH1 0x20 SHL PUSH1 0x20 SHR JUMP JUMPDEST PUSH2 0xFE JUMP JUMPDEST PUSH1 0x0 CALLER SWAP1 POP SWAP1 JUMP JUMPDEST PUSH1 0x0 DUP1 PUSH1 0x0 SWAP1 SLOAD SWAP1 PUSH2 0x100 EXP SWAP1 DIV PUSH20 0xFFFFFFFFFFFFFFFFFFFFFFFFFFFFFFFFFFFFFFFF AND SWAP1 POP DUP2 PUSH1 0x0 DUP1 PUSH2 0x100 EXP DUP2 SLOAD DUP2 PUSH20 0xFFFFFFFFFFFFFFFFFFFFFFFFFFFFFFFFFFFFFFFF MUL NOT AND SWAP1 DUP4 PUSH20 0xFFFFFFFFFFFFFFFFFFFFFFFFFFFFFFFFFFFFFFFF AND MUL OR SWAP1 SSTORE POP DUP2 PUSH20 0xFFFFFFFFFFFFFFFFFFFFFFFFFFFFFFFFFFFFFFFF AND DUP2 PUSH20 0xFFFFFFFFFFFFFFFFFFFFFFFFFFFFFFFFFFFFFFFF AND PUSH32 0x8BE0079C531659141344CD1FD0A4F28419497F9722A3DAAFE3B4186F6B6457E0 PUSH1 0x40 MLOAD PUSH1 0x40 MLOAD DUP1 SWAP2 SUB SWAP1 LOG3 POP POP JUMP JUMPDEST PUSH2 0x2488 DUP1 PUSH2 0x10D PUSH1 0x0 CODECOPY PUSH1 0x0 RETURN INVALID PUSH1 0x80 PUSH1 0x40 MSTORE PUSH1 0x4 CALLDATASIZE LT PUSH3 0xAA JUMPI PUSH1 0x0 CALLDATALOAD PUSH1 0xE0 SHR DUP1 PUSH4 0x56702DC0 GT PUSH3 0x6D JUMPI DUP1 PUSH4 0x56702DC0 EQ PUSH3 0x19B JUMPI DUP1 PUSH4 0x676DD563 EQ PUSH3 0x1C9 JUMPI DUP1 PUSH4 0x715018A6 EQ PUSH3 0x1F9 JUMPI DUP1 PUSH4 0x8DA5CB5B EQ PUSH3 0x213 JUMPI DUP1 PUSH4 0xCFC40394 EQ PUSH3 0x243 JUMPI DUP1 PUSH4 0xF2FDE38B EQ PUSH3 0x263 JUMPI PUSH3 0xAA JUMP JUMPDEST DUP1 PUSH4 0xF2CDD6C EQ PUSH3 0xAF JUMPI DUP1 PUSH4 0x10C526C5 EQ PUSH3 0xDF JUMPI DUP1 PUSH4 0x24CF2F9C EQ PUSH3 0xF9 JUMPI DUP1 PUSH4 0x2C526196 EQ PUSH3 0x127 JUMPI DUP1 PUSH4 0x32CB6B0C EQ PUSH3 0x16B JUMPI JUMPDEST PUSH1 0x0 DUP1 REVERT JUMPDEST CALLVALUE DUP1 ISZERO PUSH3 0xBC JUMPI PUSH1 0x0 DUP1 REVERT JUMPDEST POP PUSH3 0xC7 PUSH3 0x291 JUMP JUMPDEST PUSH1 0x40 MLOAD PUSH3 0xD6 SWAP2 SWAP1 PUSH3 0x98D JUMP JUMPDEST PUSH1 0x40 MLOAD DUP1 SWAP2 SUB SWAP1 RETURN JUMPDEST CALLVALUE DUP1 ISZERO PUSH3 0xEC JUMPI PUSH1 0x0 DUP1 REVERT JUMPDEST POP PUSH3 0xF7 PUSH3 0x296 JUMP JUMPDEST STOP JUMPDEST CALLVALUE DUP1 ISZERO PUSH3 0x106 JUMPI PUSH1 0x0 DUP1 REVERT JUMPDEST POP PUSH3 0x125 PUSH1 0x4 DUP1 CALLDATASIZE SUB DUP2 ADD SWAP1 PUSH3 0x11F SWAP2 SWAP1 PUSH3 0xA14 JUMP JUMPDEST PUSH3 0x37B JUMP JUMPDEST STOP JUMPDEST CALLVALUE DUP1 ISZERO PUSH3 0x134 JUMPI PUSH1 0x0 DUP1 REVERT JUMPDEST POP PUSH3 0x153 PUSH1 0x4 DUP1 CALLDATASIZE SUB DUP2 ADD SWAP1 PUSH3 0x14D SWAP2 SWAP1 PUSH3 0xA77 JUMP JUMPDEST PUSH3 0x510 JUMP JUMPDEST PUSH1 0x40 MLOAD PUSH3 0x162 SWAP2 SWAP1 PUSH3 0xB14 JUMP JUMPDEST PUSH1 0x40 MLOAD DUP1 SWAP2 SUB SWAP1 RETURN JUMPDEST CALLVALUE DUP1 ISZERO PUSH3 0x178 JUMPI PUSH1 0x0 DUP1 REVERT JUMPDEST POP PUSH3 0x183 PUSH3 0x550 JUMP JUMPDEST PUSH1 0x40 MLOAD PUSH3 0x192 SWAP2 SWAP1 PUSH3 0x98D JUMP JUMPDEST PUSH1 0x40 MLOAD DUP1 SWAP2 SUB SWAP1 RETURN JUMPDEST CALLVALUE DUP1 ISZERO PUSH3 0x1A8 JUMPI PUSH1 0x0 DUP1 REVERT JUMPDEST POP PUSH3 0x1C7 PUSH1 0x4 DUP1 CALLDATASIZE SUB DUP2 ADD SWAP1 PUSH3 0x1C1 SWAP2 SWAP1 PUSH3 0xA14 JUMP JUMPDEST PUSH3 0x556 JUMP JUMPDEST STOP JUMPDEST CALLVALUE DUP1 ISZERO PUSH3 0x1D6 JUMPI PUSH1 0x0 DUP1 REVERT JUMPDEST POP PUSH3 0x1E1 PUSH3 0x62B JUMP JUMPDEST PUSH1 0x40 MLOAD PUSH3 0x1F0 SWAP2 SWAP1 PUSH3 0x98D JUMP JUMPDEST PUSH1 0x40 MLOAD DUP1 SWAP2 SUB SWAP1 RETURN JUMPDEST CALLVALUE DUP1 ISZERO PUSH3 0x206 JUMPI PUSH1 0x0 DUP1 REVERT JUMPDEST POP PUSH3 0x211 PUSH3 0x634 JUMP JUMPDEST STOP JUMPDEST CALLVALUE DUP1 ISZERO PUSH3 0x220 JUMPI PUSH1 0x0 DUP1 REVERT JUMPDEST POP PUSH3 0x22B PUSH3 0x64C JUMP JUMPDEST PUSH1 0x40 MLOAD PUSH3 0x23A SWAP2 SWAP1 PUSH3 0xB42 JUMP JUMPDEST PUSH1 0x40 MLOAD DUP1 SWAP2 SUB SWAP1 RETURN JUMPDEST PUSH3 0x261 PUSH1 0x4 DUP1 CALLDATASIZE SUB DUP2 ADD SWAP1 PUSH3 0x25B SWAP2 SWAP1 PUSH3 0xB5F JUMP JUMPDEST PUSH3 0x675 JUMP JUMPDEST STOP JUMPDEST CALLVALUE DUP1 ISZERO PUSH3 0x270 JUMPI PUSH1 0x0 DUP1 REVERT JUMPDEST POP PUSH3 0x28F PUSH1 0x4 DUP1 CALLDATASIZE SUB DUP2 ADD SWAP1 PUSH3 0x289 SWAP2 SWAP1 PUSH3 0xA14 JUMP JUMPDEST PUSH3 0x789 JUMP JUMPDEST STOP JUMPDEST PUSH1 0x2 DUP2 JUMP JUMPDEST PUSH3 0x2A0 PUSH3 0x813 JUMP JUMPDEST PUSH1 0x0 JUMPDEST PUSH1 0x1 DUP1 SLOAD SWAP1 POP DUP2 LT ISZERO PUSH3 0x378 JUMPI PUSH1 0x1 DUP2 DUP2 SLOAD DUP2 LT PUSH3 0x2C8 JUMPI PUSH3 0x2C7 PUSH3 0xBA6 JUMP JUMPDEST JUMPDEST SWAP1 PUSH1 0x0 MSTORE PUSH1 0x20 PUSH1 0x0 KECCAK256 ADD PUSH1 0x0 SWAP1 SLOAD SWAP1 PUSH2 0x100 EXP SWAP1 DIV PUSH20 0xFFFFFFFFFFFFFFFFFFFFFFFFFFFFFFFFFFFFFFFF AND PUSH20 0xFFFFFFFFFFFFFFFFFFFFFFFFFFFFFFFFFFFFFFFF AND PUSH4 0xA0712D68 PUSH1 0x2 PUSH1 0x40 MLOAD DUP3 PUSH4 0xFFFFFFFF AND PUSH1 0xE0 SHL DUP2 MSTORE PUSH1 0x4 ADD PUSH3 0x32E SWAP2 SWAP1 PUSH3 0x98D JUMP JUMPDEST PUSH1 0x0 PUSH1 0x40 MLOAD DUP1 DUP4 SUB DUP2 PUSH1 0x0 DUP8 DUP1 EXTCODESIZE ISZERO DUP1 ISZERO PUSH3 0x349 JUMPI PUSH1 0x0 DUP1 REVERT JUMPDEST POP GAS CALL ISZERO DUP1 ISZERO PUSH3 0x35E JUMPI RETURNDATASIZE PUSH1 0x0 DUP1 RETURNDATACOPY RETURNDATASIZE PUSH1 0x0 REVERT JUMPDEST POP POP POP POP DUP1 DUP1 PUSH3 0x36F SWAP1 PUSH3 0xC04 JUMP JUMPDEST SWAP2 POP POP PUSH3 0x2A3 JUMP JUMPDEST POP JUMP JUMPDEST PUSH3 0x385 PUSH3 0x813 JUMP JUMPDEST PUSH1 0x0 JUMPDEST PUSH1 0x1 DUP1 SLOAD SWAP1 POP DUP2 LT ISZERO PUSH3 0x50C JUMPI PUSH1 0x1 DUP2 DUP2 SLOAD DUP2 LT PUSH3 0x3AD JUMPI PUSH3 0x3AC PUSH3 0xBA6 JUMP JUMPDEST JUMPDEST SWAP1 PUSH1 0x0 MSTORE PUSH1 0x20 PUSH1 0x0 KECCAK256 ADD PUSH1 0x0 SWAP1 SLOAD SWAP1 PUSH2 0x100 EXP SWAP1 DIV PUSH20 0xFFFFFFFFFFFFFFFFFFFFFFFFFFFFFFFFFFFFFFFF AND PUSH20 0xFFFFFFFFFFFFFFFFFFFFFFFFFFFFFFFFFFFFFFFF AND PUSH4 0x51CFF8D9 DUP4 PUSH1 0x40 MLOAD DUP3 PUSH4 0xFFFFFFFF AND PUSH1 0xE0 SHL DUP2 MSTORE PUSH1 0x4 ADD PUSH3 0x412 SWAP2 SWAP1 PUSH3 0xB42 JUMP JUMPDEST PUSH1 0x0 PUSH1 0x40 MLOAD DUP1 DUP4 SUB DUP2 PUSH1 0x0 DUP8 DUP1 EXTCODESIZE ISZERO DUP1 ISZERO PUSH3 0x42D JUMPI PUSH1 0x0 DUP1 REVERT JUMPDEST POP GAS CALL ISZERO DUP1 ISZERO PUSH3 0x442 JUMPI RETURNDATASIZE PUSH1 0x0 DUP1 RETURNDATACOPY RETURNDATASIZE PUSH1 0x0 REVERT JUMPDEST POP POP POP POP PUSH1 0x1 DUP2 DUP2 SLOAD DUP2 LT PUSH3 0x45D JUMPI PUSH3 0x45C PUSH3 0xBA6 JUMP JUMPDEST JUMPDEST SWAP1 PUSH1 0x0 MSTORE PUSH1 0x20 PUSH1 0x0 KECCAK256 ADD PUSH1 0x0 SWAP1 SLOAD SWAP1 PUSH2 0x100 EXP SWAP1 DIV PUSH20 0xFFFFFFFFFFFFFFFFFFFFFFFFFFFFFFFFFFFFFFFF AND PUSH20 0xFFFFFFFFFFFFFFFFFFFFFFFFFFFFFFFFFFFFFFFF AND PUSH4 0xF6ACC210 DUP4 PUSH1 0x40 MLOAD DUP3 PUSH4 0xFFFFFFFF AND PUSH1 0xE0 SHL DUP2 MSTORE PUSH1 0x4 ADD PUSH3 0x4C2 SWAP2 SWAP1 PUSH3 0xB42 JUMP JUMPDEST PUSH1 0x0 PUSH1 0x40 MLOAD DUP1 DUP4 SUB DUP2 PUSH1 0x0 DUP8 DUP1 EXTCODESIZE ISZERO DUP1 ISZERO PUSH3 0x4DD JUMPI PUSH1 0x0 DUP1 REVERT JUMPDEST POP GAS CALL ISZERO DUP1 ISZERO PUSH3 0x4F2 JUMPI RETURNDATASIZE PUSH1 0x0 DUP1 RETURNDATACOPY RETURNDATASIZE PUSH1 0x0 REVERT JUMPDEST POP POP POP POP DUP1 DUP1 PUSH3 0x503 SWAP1 PUSH3 0xC04 JUMP JUMPDEST SWAP2 POP POP PUSH3 0x388 JUMP JUMPDEST POP POP JUMP JUMPDEST PUSH1 0x1 DUP2 DUP2 SLOAD DUP2 LT PUSH3 0x521 JUMPI PUSH1 0x0 DUP1 REVERT JUMPDEST SWAP1 PUSH1 0x0 MSTORE PUSH1 0x20 PUSH1 0x0 KECCAK256 ADD PUSH1 0x0 SWAP2 POP SLOAD SWAP1 PUSH2 0x100 EXP SWAP1 DIV PUSH20 0xFFFFFFFFFFFFFFFFFFFFFFFFFFFFFFFFFFFFFFFF AND DUP2 JUMP JUMPDEST PUSH2 0x2710 DUP2 JUMP JUMPDEST PUSH1 0x0 PUSH5 0x174876E800 PUSH1 0x1 PUSH1 0x2 PUSH3 0x56E SWAP2 SWAP1 PUSH3 0xC51 JUMP JUMPDEST PUSH3 0x57A SWAP2 SWAP1 PUSH3 0xC8C JUMP JUMPDEST DUP3 PUSH2 0x2710 PUSH5 0x174876E800 PUSH1 0x2 PUSH1 0x40 MLOAD PUSH3 0x594 SWAP1 PUSH3 0x964 JUMP JUMPDEST PUSH3 0x5A3 SWAP5 SWAP4 SWAP3 SWAP2 SWAP1 PUSH3 0xCD7 JUMP JUMPDEST PUSH1 0x40 MLOAD DUP1 SWAP2 SUB SWAP1 DUP3 CREATE SWAP1 POP DUP1 ISZERO DUP1 ISZERO PUSH3 0x5C1 JUMPI RETURNDATASIZE PUSH1 0x0 DUP1 RETURNDATACOPY RETURNDATASIZE PUSH1 0x0 REVERT JUMPDEST POP SWAP1 POP PUSH1 0x1 DUP2 SWAP1 DUP1 PUSH1 0x1 DUP2 SLOAD ADD DUP1 DUP3 SSTORE DUP1 SWAP2 POP POP PUSH1 0x1 SWAP1 SUB SWAP1 PUSH1 0x0 MSTORE PUSH1 0x20 PUSH1 0x0 KECCAK256 ADD PUSH1 0x0 SWAP1 SWAP2 SWAP1 SWAP2 SWAP1 SWAP2 PUSH2 0x100 EXP DUP2 SLOAD DUP2 PUSH20 0xFFFFFFFFFFFFFFFFFFFFFFFFFFFFFFFFFFFFFFFF MUL NOT AND SWAP1 DUP4 PUSH20 0xFFFFFFFFFFFFFFFFFFFFFFFFFFFFFFFFFFFFFFFF AND MUL OR SWAP1 SSTORE POP POP POP JUMP JUMPDEST PUSH5 0x174876E800 DUP2 JUMP JUMPDEST PUSH3 0x63E PUSH3 0x813 JUMP JUMPDEST PUSH3 0x64A PUSH1 0x0 PUSH3 0x898 JUMP JUMPDEST JUMP JUMPDEST PUSH1 0x0 DUP1 PUSH1 0x0 SWAP1 SLOAD SWAP1 PUSH2 0x100 EXP SWAP1 DIV PUSH20 0xFFFFFFFFFFFFFFFFFFFFFFFFFFFFFFFFFFFFFFFF AND SWAP1 POP SWAP1 JUMP JUMPDEST PUSH3 0x67F PUSH3 0x813 JUMP JUMPDEST DUP1 PUSH5 0x174876E800 PUSH1 0x1 PUSH1 0x2 PUSH3 0x696 SWAP2 SWAP1 PUSH3 0xC51 JUMP JUMPDEST PUSH3 0x6A2 SWAP2 SWAP1 PUSH3 0xC8C JUMP JUMPDEST PUSH3 0x6AE SWAP2 SWAP1 PUSH3 0xC8C JUMP JUMPDEST CALLVALUE LT ISZERO PUSH3 0x6F3 JUMPI PUSH1 0x40 MLOAD PUSH32 0x8C379A000000000000000000000000000000000000000000000000000000000 DUP2 MSTORE PUSH1 0x4 ADD PUSH3 0x6EA SWAP1 PUSH3 0xD85 JUMP JUMPDEST PUSH1 0x40 MLOAD DUP1 SWAP2 SUB SWAP1 REVERT JUMPDEST PUSH1 0x0 JUMPDEST DUP2 DUP2 LT ISZERO PUSH3 0x784 JUMPI ADDRESS PUSH20 0xFFFFFFFFFFFFFFFFFFFFFFFFFFFFFFFFFFFFFFFF AND PUSH4 0x56702DC0 DUP5 PUSH1 0x40 MLOAD DUP3 PUSH4 0xFFFFFFFF AND PUSH1 0xE0 SHL DUP2 MSTORE PUSH1 0x4 ADD PUSH3 0x73A SWAP2 SWAP1 PUSH3 0xB42 JUMP JUMPDEST PUSH1 0x0 PUSH1 0x40 MLOAD DUP1 DUP4 SUB DUP2 PUSH1 0x0 DUP8 DUP1 EXTCODESIZE ISZERO DUP1 ISZERO PUSH3 0x755 JUMPI PUSH1 0x0 DUP1 REVERT JUMPDEST POP GAS CALL ISZERO DUP1 ISZERO PUSH3 0x76A JUMPI RETURNDATASIZE PUSH1 0x0 DUP1 RETURNDATACOPY RETURNDATASIZE PUSH1 0x0 REVERT JUMPDEST POP POP POP POP DUP1 DUP1 PUSH3 0x77B SWAP1 PUSH3 0xC04 JUMP JUMPDEST SWAP2 POP POP PUSH3 0x6F6 JUMP JUMPDEST POP POP POP JUMP JUMPDEST PUSH3 0x793 PUSH3 0x813 JUMP JUMPDEST PUSH1 0x0 PUSH20 0xFFFFFFFFFFFFFFFFFFFFFFFFFFFFFFFFFFFFFFFF AND DUP2 PUSH20 0xFFFFFFFFFFFFFFFFFFFFFFFFFFFFFFFFFFFFFFFF AND SUB PUSH3 0x805 JUMPI PUSH1 0x40 MLOAD PUSH32 0x8C379A000000000000000000000000000000000000000000000000000000000 DUP2 MSTORE PUSH1 0x4 ADD PUSH3 0x7FC SWAP1 PUSH3 0xE1D JUMP JUMPDEST PUSH1 0x40 MLOAD DUP1 SWAP2 SUB SWAP1 REVERT JUMPDEST PUSH3 0x810 DUP2 PUSH3 0x898 JUMP JUMPDEST POP JUMP JUMPDEST PUSH3 0x81D PUSH3 0x95C JUMP JUMPDEST PUSH20 0xFFFFFFFFFFFFFFFFFFFFFFFFFFFFFFFFFFFFFFFF AND PUSH3 0x83D PUSH3 0x64C JUMP JUMPDEST PUSH20 0xFFFFFFFFFFFFFFFFFFFFFFFFFFFFFFFFFFFFFFFF AND EQ PUSH3 0x896 JUMPI PUSH1 0x40 MLOAD PUSH32 0x8C379A000000000000000000000000000000000000000000000000000000000 DUP2 MSTORE PUSH1 0x4 ADD PUSH3 0x88D SWAP1 PUSH3 0xE8F JUMP JUMPDEST PUSH1 0x40 MLOAD DUP1 SWAP2 SUB SWAP1 REVERT JUMPDEST JUMP JUMPDEST PUSH1 0x0 DUP1 PUSH1 0x0 SWAP1 SLOAD SWAP1 PUSH2 0x100 EXP SWAP1 DIV PUSH20 0xFFFFFFFFFFFFFFFFFFFFFFFFFFFFFFFFFFFFFFFF AND SWAP1 POP DUP2 PUSH1 0x0 DUP1 PUSH2 0x100 EXP DUP2 SLOAD DUP2 PUSH20 0xFFFFFFFFFFFFFFFFFFFFFFFFFFFFFFFFFFFFFFFF MUL NOT AND SWAP1 DUP4 PUSH20 0xFFFFFFFFFFFFFFFFFFFFFFFFFFFFFFFFFFFFFFFF AND MUL OR SWAP1 SSTORE POP DUP2 PUSH20 0xFFFFFFFFFFFFFFFFFFFFFFFFFFFFFFFFFFFFFFFF AND DUP2 PUSH20 0xFFFFFFFFFFFFFFFFFFFFFFFFFFFFFFFFFFFFFFFF AND PUSH32 0x8BE0079C531659141344CD1FD0A4F28419497F9722A3DAAFE3B4186F6B6457E0 PUSH1 0x40 MLOAD PUSH1 0x40 MLOAD DUP1 SWAP2 SUB SWAP1 LOG3 POP POP JUMP JUMPDEST PUSH1 0x0 CALLER SWAP1 POP SWAP1 JUMP JUMPDEST PUSH2 0x15A1 DUP1 PUSH3 0xEB2 DUP4 CODECOPY ADD SWAP1 JUMP JUMPDEST PUSH1 0x0 DUP2 SWAP1 POP SWAP2 SWAP1 POP JUMP JUMPDEST PUSH3 0x987 DUP2 PUSH3 0x972 JUMP JUMPDEST DUP3 MSTORE POP POP JUMP JUMPDEST PUSH1 0x0 PUSH1 0x20 DUP3 ADD SWAP1 POP PUSH3 0x9A4 PUSH1 0x0 DUP4 ADD DUP5 PUSH3 0x97C JUMP JUMPDEST SWAP3 SWAP2 POP POP JUMP JUMPDEST PUSH1 0x0 DUP1 REVERT JUMPDEST PUSH1 0x0 PUSH20 0xFFFFFFFFFFFFFFFFFFFFFFFFFFFFFFFFFFFFFFFF DUP3 AND SWAP1 POP SWAP2 SWAP1 POP JUMP JUMPDEST PUSH1 0x0 PUSH3 0x9DC DUP3 PUSH3 0x9AF JUMP JUMPDEST SWAP1 POP SWAP2 SWAP1 POP JUMP JUMPDEST PUSH3 0x9EE DUP2 PUSH3 0x9CF JUMP JUMPDEST DUP2 EQ PUSH3 0x9FA JUMPI PUSH1 0x0 DUP1 REVERT JUMPDEST POP JUMP JUMPDEST PUSH1 0x0 DUP2 CALLDATALOAD SWAP1 POP PUSH3 0xA0E DUP2 PUSH3 0x9E3 JUMP JUMPDEST SWAP3 SWAP2 POP POP JUMP JUMPDEST PUSH1 0x0 PUSH1 0x20 DUP3 DUP5 SUB SLT ISZERO PUSH3 0xA2D JUMPI PUSH3 0xA2C PUSH3 0x9AA JUMP JUMPDEST JUMPDEST PUSH1 0x0 PUSH3 0xA3D DUP5 DUP3 DUP6 ADD PUSH3 0x9FD JUMP JUMPDEST SWAP2 POP POP SWAP3 SWAP2 POP POP JUMP JUMPDEST PUSH3 0xA51 DUP2 PUSH3 0x972 JUMP JUMPDEST DUP2 EQ PUSH3 0xA5D JUMPI PUSH1 0x0 DUP1 REVERT JUMPDEST POP JUMP JUMPDEST PUSH1 0x0 DUP2 CALLDATALOAD SWAP1 POP PUSH3 0xA71 DUP2 PUSH3 0xA46 JUMP JUMPDEST SWAP3 SWAP2 POP POP JUMP JUMPDEST PUSH1 0x0 PUSH1 0x20 DUP3 DUP5 SUB SLT ISZERO PUSH3 0xA90 JUMPI PUSH3 0xA8F PUSH3 0x9AA JUMP JUMPDEST JUMPDEST PUSH1 0x0 PUSH3 0xAA0 DUP5 DUP3 DUP6 ADD PUSH3 0xA60 JUMP JUMPDEST SWAP2 POP POP SWAP3 SWAP2 POP POP JUMP JUMPDEST PUSH1 0x0 DUP2 SWAP1 POP SWAP2 SWAP1 POP JUMP JUMPDEST PUSH1 0x0 PUSH3 0xAD4 PUSH3 0xACE PUSH3 0xAC8 DUP5 PUSH3 0x9AF JUMP JUMPDEST PUSH3 0xAA9 JUMP JUMPDEST PUSH3 0x9AF JUMP JUMPDEST SWAP1 POP SWAP2 SWAP1 POP JUMP JUMPDEST PUSH1 0x0 PUSH3 0xAE8 DUP3 PUSH3 0xAB3 JUMP JUMPDEST SWAP1 POP SWAP2 SWAP1 POP JUMP JUMPDEST PUSH1 0x0 PUSH3 0xAFC DUP3 PUSH3 0xADB JUMP JUMPDEST SWAP1 POP SWAP2 SWAP1 POP JUMP JUMPDEST PUSH3 0xB0E DUP2 PUSH3 0xAEF JUMP JUMPDEST DUP3 MSTORE POP POP JUMP JUMPDEST PUSH1 0x0 PUSH1 0x20 DUP3 ADD SWAP1 POP PUSH3 0xB2B PUSH1 0x0 DUP4 ADD DUP5 PUSH3 0xB03 JUMP JUMPDEST SWAP3 SWAP2 POP POP JUMP JUMPDEST PUSH3 0xB3C DUP2 PUSH3 0x9CF JUMP JUMPDEST DUP3 MSTORE POP POP JUMP JUMPDEST PUSH1 0x0 PUSH1 0x20 DUP3 ADD SWAP1 POP PUSH3 0xB59 PUSH1 0x0 DUP4 ADD DUP5 PUSH3 0xB31 JUMP JUMPDEST SWAP3 SWAP2 POP POP JUMP JUMPDEST PUSH1 0x0 DUP1 PUSH1 0x40 DUP4 DUP6 SUB SLT ISZERO PUSH3 0xB79 JUMPI PUSH3 0xB78 PUSH3 0x9AA JUMP JUMPDEST JUMPDEST PUSH1 0x0 PUSH3 0xB89 DUP6 DUP3 DUP7 ADD PUSH3 0x9FD JUMP JUMPDEST SWAP3 POP POP PUSH1 0x20 PUSH3 0xB9C DUP6 DUP3 DUP7 ADD PUSH3 0xA60 JUMP JUMPDEST SWAP2 POP POP SWAP3 POP SWAP3 SWAP1 POP JUMP JUMPDEST PUSH32 0x4E487B7100000000000000000000000000000000000000000000000000000000 PUSH1 0x0 MSTORE PUSH1 0x32 PUSH1 0x4 MSTORE PUSH1 0x24 PUSH1 0x0 REVERT JUMPDEST PUSH32 0x4E487B7100000000000000000000000000000000000000000000000000000000 PUSH1 0x0 MSTORE PUSH1 0x11 PUSH1 0x4 MSTORE PUSH1 0x24 PUSH1 0x0 REVERT JUMPDEST PUSH1 0x0 PUSH3 0xC11 DUP3 PUSH3 0x972 JUMP JUMPDEST SWAP2 POP PUSH32 0xFFFFFFFFFFFFFFFFFFFFFFFFFFFFFFFFFFFFFFFFFFFFFFFFFFFFFFFFFFFFFFFF DUP3 SUB PUSH3 0xC46 JUMPI PUSH3 0xC45 PUSH3 0xBD5 JUMP JUMPDEST JUMPDEST PUSH1 0x1 DUP3 ADD SWAP1 POP SWAP2 SWAP1 POP JUMP JUMPDEST PUSH1 0x0 PUSH3 0xC5E DUP3 PUSH3 0x972 JUMP JUMPDEST SWAP2 POP PUSH3 0xC6B DUP4 PUSH3 0x972 JUMP JUMPDEST SWAP3 POP DUP3 DUP3 ADD SWAP1 POP DUP1 DUP3 GT ISZERO PUSH3 0xC86 JUMPI PUSH3 0xC85 PUSH3 0xBD5 JUMP JUMPDEST JUMPDEST SWAP3 SWAP2 POP POP JUMP JUMPDEST PUSH1 0x0 PUSH3 0xC99 DUP3 PUSH3 0x972 JUMP JUMPDEST SWAP2 POP PUSH3 0xCA6 DUP4 PUSH3 0x972 JUMP JUMPDEST SWAP3 POP DUP3 DUP3 MUL PUSH3 0xCB6 DUP2 PUSH3 0x972 JUMP JUMPDEST SWAP2 POP DUP3 DUP3 DIV DUP5 EQ DUP4 ISZERO OR PUSH3 0xCD0 JUMPI PUSH3 0xCCF PUSH3 0xBD5 JUMP JUMPDEST JUMPDEST POP SWAP3 SWAP2 POP POP JUMP JUMPDEST PUSH1 0x0 PUSH1 0x80 DUP3 ADD SWAP1 POP PUSH3 0xCEE PUSH1 0x0 DUP4 ADD DUP8 PUSH3 0xB31 JUMP JUMPDEST PUSH3 0xCFD PUSH1 0x20 DUP4 ADD DUP7 PUSH3 0x97C JUMP JUMPDEST PUSH3 0xD0C PUSH1 0x40 DUP4 ADD DUP6 PUSH3 0x97C JUMP JUMPDEST PUSH3 0xD1B PUSH1 0x60 DUP4 ADD DUP5 PUSH3 0x97C JUMP JUMPDEST SWAP6 SWAP5 POP POP POP POP POP JUMP JUMPDEST PUSH1 0x0 DUP3 DUP3 MSTORE PUSH1 0x20 DUP3 ADD SWAP1 POP SWAP3 SWAP2 POP POP JUMP JUMPDEST PUSH32 0x4E6F7420656E6F7567682065746820746F207061790000000000000000000000 PUSH1 0x0 DUP3 ADD MSTORE POP JUMP JUMPDEST PUSH1 0x0 PUSH3 0xD6D PUSH1 0x15 DUP4 PUSH3 0xD24 JUMP JUMPDEST SWAP2 POP PUSH3 0xD7A DUP3 PUSH3 0xD35 JUMP JUMPDEST PUSH1 0x20 DUP3 ADD SWAP1 POP SWAP2 SWAP1 POP JUMP JUMPDEST PUSH1 0x0 PUSH1 0x20 DUP3 ADD SWAP1 POP DUP2 DUP2 SUB PUSH1 0x0 DUP4 ADD MSTORE PUSH3 0xDA0 DUP2 PUSH3 0xD5E JUMP JUMPDEST SWAP1 POP SWAP2 SWAP1 POP JUMP JUMPDEST PUSH32 0x4F776E61626C653A206E6577206F776E657220697320746865207A65726F2061 PUSH1 0x0 DUP3 ADD MSTORE PUSH32 0x6464726573730000000000000000000000000000000000000000000000000000 PUSH1 0x20 DUP3 ADD MSTORE POP JUMP JUMPDEST PUSH1 0x0 PUSH3 0xE05 PUSH1 0x26 DUP4 PUSH3 0xD24 JUMP JUMPDEST SWAP2 POP PUSH3 0xE12 DUP3 PUSH3 0xDA7 JUMP JUMPDEST PUSH1 0x40 DUP3 ADD SWAP1 POP SWAP2 SWAP1 POP JUMP JUMPDEST PUSH1 0x0 PUSH1 0x20 DUP3 ADD SWAP1 POP DUP2 DUP2 SUB PUSH1 0x0 DUP4 ADD MSTORE PUSH3 0xE38 DUP2 PUSH3 0xDF6 JUMP JUMPDEST SWAP1 POP SWAP2 SWAP1 POP JUMP JUMPDEST PUSH32 0x4F776E61626C653A2063616C6C6572206973206E6F7420746865206F776E6572 PUSH1 0x0 DUP3 ADD MSTORE POP JUMP JUMPDEST PUSH1 0x0 PUSH3 0xE77 PUSH1 0x20 DUP4 PUSH3 0xD24 JUMP JUMPDEST SWAP2 POP PUSH3 0xE84 DUP3 PUSH3 0xE3F JUMP JUMPDEST PUSH1 0x20 DUP3 ADD SWAP1 POP SWAP2 SWAP1 POP JUMP JUMPDEST PUSH1 0x0 PUSH1 0x20 DUP3 ADD SWAP1 POP DUP2 DUP2 SUB PUSH1 0x0 DUP4 ADD MSTORE PUSH3 0xEAA DUP2 PUSH3 0xE68 JUMP JUMPDEST SWAP1 POP SWAP2 SWAP1 POP JUMP INVALID PUSH1 0x80 PUSH1 0x40 MSTORE PUSH1 0x40 MLOAD PUSH3 0x15A1 CODESIZE SUB DUP1 PUSH3 0x15A1 DUP4 CODECOPY DUP2 DUP2 ADD PUSH1 0x40 MSTORE DUP2 ADD SWAP1 PUSH3 0x29 SWAP2 SWAP1 PUSH3 0x25B JUMP JUMPDEST PUSH3 0x49 PUSH3 0x3D PUSH3 0xEA PUSH1 0x20 SHL PUSH1 0x20 SHR JUMP JUMPDEST PUSH3 0xF2 PUSH1 0x20 SHL PUSH1 0x20 SHR JUMP JUMPDEST DUP4 PUSH1 0x2 PUSH1 0x0 PUSH2 0x100 EXP DUP2 SLOAD DUP2 PUSH20 0xFFFFFFFFFFFFFFFFFFFFFFFFFFFFFFFFFFFFFFFF MUL NOT AND SWAP1 DUP4 PUSH20 0xFFFFFFFFFFFFFFFFFFFFFFFFFFFFFFFFFFFFFFFF AND MUL OR SWAP1 SSTORE POP DUP4 PUSH1 0x1 PUSH1 0x0 PUSH2 0x100 EXP DUP2 SLOAD DUP2 PUSH20 0xFFFFFFFFFFFFFFFFFFFFFFFFFFFFFFFFFFFFFFFF MUL NOT AND SWAP1 DUP4 PUSH20 0xFFFFFFFFFFFFFFFFFFFFFFFFFFFFFFFFFFFFFFFF AND MUL OR SWAP1 SSTORE POP DUP3 PUSH1 0x3 DUP2 SWAP1 SSTORE POP DUP2 PUSH1 0x4 DUP2 SWAP1 SSTORE POP DUP1 PUSH1 0x5 DUP2 SWAP1 SSTORE POP POP POP POP POP PUSH3 0x2CD JUMP JUMPDEST PUSH1 0x0 CALLER SWAP1 POP SWAP1 JUMP JUMPDEST PUSH1 0x0 DUP1 PUSH1 0x0 SWAP1 SLOAD SWAP1 PUSH2 0x100 EXP SWAP1 DIV PUSH20 0xFFFFFFFFFFFFFFFFFFFFFFFFFFFFFFFFFFFFFFFF AND SWAP1 POP DUP2 PUSH1 0x0 DUP1 PUSH2 0x100 EXP DUP2 SLOAD DUP2 PUSH20 0xFFFFFFFFFFFFFFFFFFFFFFFFFFFFFFFFFFFFFFFF MUL NOT AND SWAP1 DUP4 PUSH20 0xFFFFFFFFFFFFFFFFFFFFFFFFFFFFFFFFFFFFFFFF AND MUL OR SWAP1 SSTORE POP DUP2 PUSH20 0xFFFFFFFFFFFFFFFFFFFFFFFFFFFFFFFFFFFFFFFF AND DUP2 PUSH20 0xFFFFFFFFFFFFFFFFFFFFFFFFFFFFFFFFFFFFFFFF AND PUSH32 0x8BE0079C531659141344CD1FD0A4F28419497F9722A3DAAFE3B4186F6B6457E0 PUSH1 0x40 MLOAD PUSH1 0x40 MLOAD DUP1 SWAP2 SUB SWAP1 LOG3 POP POP JUMP JUMPDEST PUSH1 0x0 DUP1 REVERT JUMPDEST PUSH1 0x0 PUSH20 0xFFFFFFFFFFFFFFFFFFFFFFFFFFFFFFFFFFFFFFFF DUP3 AND SWAP1 POP SWAP2 SWAP1 POP JUMP JUMPDEST PUSH1 0x0 PUSH3 0x1E8 DUP3 PUSH3 0x1BB JUMP JUMPDEST SWAP1 POP SWAP2 SWAP1 POP JUMP JUMPDEST PUSH3 0x1FA DUP2 PUSH3 0x1DB JUMP JUMPDEST DUP2 EQ PUSH3 0x206 JUMPI PUSH1 0x0 DUP1 REVERT JUMPDEST POP JUMP JUMPDEST PUSH1 0x0 DUP2 MLOAD SWAP1 POP PUSH3 0x21A DUP2 PUSH3 0x1EF JUMP JUMPDEST SWAP3 SWAP2 POP POP JUMP JUMPDEST PUSH1 0x0 DUP2 SWAP1 POP SWAP2 SWAP1 POP JUMP JUMPDEST PUSH3 0x235 DUP2 PUSH3 0x220 JUMP JUMPDEST DUP2 EQ PUSH3 0x241 JUMPI PUSH1 0x0 DUP1 REVERT JUMPDEST POP JUMP JUMPDEST PUSH1 0x0 DUP2 MLOAD SWAP1 POP PUSH3 0x255 DUP2 PUSH3 0x22A JUMP JUMPDEST SWAP3 SWAP2 POP POP JUMP JUMPDEST PUSH1 0x0 DUP1 PUSH1 0x0 DUP1 PUSH1 0x80 DUP6 DUP8 SUB SLT ISZERO PUSH3 0x278 JUMPI PUSH3 0x277 PUSH3 0x1B6 JUMP JUMPDEST JUMPDEST PUSH1 0x0 PUSH3 0x288 DUP8 DUP3 DUP9 ADD PUSH3 0x209 JUMP JUMPDEST SWAP5 POP POP PUSH1 0x20 PUSH3 0x29B DUP8 DUP3 DUP9 ADD PUSH3 0x244 JUMP JUMPDEST SWAP4 POP POP PUSH1 0x40 PUSH3 0x2AE DUP8 DUP3 DUP9 ADD PUSH3 0x244 JUMP JUMPDEST SWAP3 POP POP PUSH1 0x60 PUSH3 0x2C1 DUP8 DUP3 DUP9 ADD PUSH3 0x244 JUMP JUMPDEST SWAP2 POP POP SWAP3 SWAP6 SWAP2 SWAP5 POP SWAP3 POP JUMP JUMPDEST PUSH2 0x12C4 DUP1 PUSH3 0x2DD PUSH1 0x0 CODECOPY PUSH1 0x0 RETURN INVALID PUSH1 0x80 PUSH1 0x40 MSTORE PUSH1 0x4 CALLDATASIZE LT PUSH2 0x9C JUMPI PUSH1 0x0 CALLDATALOAD PUSH1 0xE0 SHR DUP1 PUSH4 0x715018A6 GT PUSH2 0x64 JUMPI DUP1 PUSH4 0x715018A6 EQ PUSH2 0x188 JUMPI DUP1 PUSH4 0x8DA5CB5B EQ PUSH2 0x19F JUMPI DUP1 PUSH4 0xA0712D68 EQ PUSH2 0x1CA JUMPI DUP1 PUSH4 0xAC446002 EQ PUSH2 0x1E6 JUMPI DUP1 PUSH4 0xF2FDE38B EQ PUSH2 0x1FD JUMPI DUP1 PUSH4 0xF6ACC210 EQ PUSH2 0x226 JUMPI PUSH2 0x9C JUMP JUMPDEST DUP1 PUSH4 0xF2CDD6C EQ PUSH2 0xA1 JUMPI DUP1 PUSH4 0x150B7A02 EQ PUSH2 0xCC JUMPI DUP1 PUSH4 0x32CB6B0C EQ PUSH2 0x109 JUMPI DUP1 PUSH4 0x51CFF8D9 EQ PUSH2 0x134 JUMPI DUP1 PUSH4 0x676DD563 EQ PUSH2 0x15D JUMPI JUMPDEST PUSH1 0x0 DUP1 REVERT JUMPDEST CALLVALUE DUP1 ISZERO PUSH2 0xAD JUMPI PUSH1 0x0 DUP1 REVERT JUMPDEST POP PUSH2 0xB6 PUSH2 0x24F JUMP JUMPDEST PUSH1 0x40 MLOAD PUSH2 0xC3 SWAP2 SWAP1 PUSH2 0x9CC JUMP JUMPDEST PUSH1 0x40 MLOAD DUP1 SWAP2 SUB SWAP1 RETURN JUMPDEST CALLVALUE DUP1 ISZERO PUSH2 0xD8 JUMPI PUSH1 0x0 DUP1 REVERT JUMPDEST POP PUSH2 0xF3 PUSH1 0x4 DUP1 CALLDATASIZE SUB DUP2 ADD SWAP1 PUSH2 0xEE SWAP2 SWAP1 PUSH2 0xBCB JUMP JUMPDEST PUSH2 0x255 JUMP JUMPDEST PUSH1 0x40 MLOAD PUSH2 0x100 SWAP2 SWAP1 PUSH2 0xC89 JUMP JUMPDEST PUSH1 0x40 MLOAD DUP1 SWAP2 SUB SWAP1 RETURN JUMPDEST CALLVALUE DUP1 ISZERO PUSH2 0x115 JUMPI PUSH1 0x0 DUP1 REVERT JUMPDEST POP PUSH2 0x11E PUSH2 0x269 JUMP JUMPDEST PUSH1 0x40 MLOAD PUSH2 0x12B SWAP2 SWAP1 PUSH2 0x9CC JUMP JUMPDEST PUSH1 0x40 MLOAD DUP1 SWAP2 SUB SWAP1 RETURN JUMPDEST CALLVALUE DUP1 ISZERO PUSH2 0x140 JUMPI PUSH1 0x0 DUP1 REVERT JUMPDEST POP PUSH2 0x15B PUSH1 0x4 DUP1 CALLDATASIZE SUB DUP2 ADD SWAP1 PUSH2 0x156 SWAP2 SWAP1 PUSH2 0xCA4 JUMP JUMPDEST PUSH2 0x26F JUMP JUMPDEST STOP JUMPDEST CALLVALUE DUP1 ISZERO PUSH2 0x169 JUMPI PUSH1 0x0 DUP1 REVERT JUMPDEST POP PUSH2 0x172 PUSH2 0x327 JUMP JUMPDEST PUSH1 0x40 MLOAD PUSH2 0x17F SWAP2 SWAP1 PUSH2 0x9CC JUMP JUMPDEST PUSH1 0x40 MLOAD DUP1 SWAP2 SUB SWAP1 RETURN JUMPDEST CALLVALUE DUP1 ISZERO PUSH2 0x194 JUMPI PUSH1 0x0 DUP1 REVERT JUMPDEST POP PUSH2 0x19D PUSH2 0x32D JUMP JUMPDEST STOP JUMPDEST CALLVALUE DUP1 ISZERO PUSH2 0x1AB JUMPI PUSH1 0x0 DUP1 REVERT JUMPDEST POP PUSH2 0x1B4 PUSH2 0x341 JUMP JUMPDEST PUSH1 0x40 MLOAD PUSH2 0x1C1 SWAP2 SWAP1 PUSH2 0xCE0 JUMP JUMPDEST PUSH1 0x40 MLOAD DUP1 SWAP2 SUB SWAP1 RETURN JUMPDEST PUSH2 0x1E4 PUSH1 0x4 DUP1 CALLDATASIZE SUB DUP2 ADD SWAP1 PUSH2 0x1DF SWAP2 SWAP1 PUSH2 0xCFB JUMP JUMPDEST PUSH2 0x36A JUMP JUMPDEST STOP JUMPDEST CALLVALUE DUP1 ISZERO PUSH2 0x1F2 JUMPI PUSH1 0x0 DUP1 REVERT JUMPDEST POP PUSH2 0x1FB PUSH2 0x45E JUMP JUMPDEST STOP JUMPDEST CALLVALUE DUP1 ISZERO PUSH2 0x209 JUMPI PUSH1 0x0 DUP1 REVERT JUMPDEST POP PUSH2 0x224 PUSH1 0x4 DUP1 CALLDATASIZE SUB DUP2 ADD SWAP1 PUSH2 0x21F SWAP2 SWAP1 PUSH2 0xCA4 JUMP JUMPDEST PUSH2 0x515 JUMP JUMPDEST STOP JUMPDEST CALLVALUE DUP1 ISZERO PUSH2 0x232 JUMPI PUSH1 0x0 DUP1 REVERT JUMPDEST POP PUSH2 0x24D PUSH1 0x4 DUP1 CALLDATASIZE SUB DUP2 ADD SWAP1 PUSH2 0x248 SWAP2 SWAP1 PUSH2 0xCA4 JUMP JUMPDEST PUSH2 0x598 JUMP JUMPDEST STOP JUMPDEST PUSH1 0x5 SLOAD DUP2 JUMP JUMPDEST PUSH1 0x0 PUSH4 0x150B7A02 PUSH1 0xE0 SHL SWAP1 POP SWAP5 SWAP4 POP POP POP POP JUMP JUMPDEST PUSH1 0x3 SLOAD DUP2 JUMP JUMPDEST PUSH2 0x277 PUSH2 0x869 JUMP JUMPDEST PUSH1 0x0 DUP2 PUSH20 0xFFFFFFFFFFFFFFFFFFFFFFFFFFFFFFFFFFFFFFFF AND SELFBALANCE PUSH1 0x40 MLOAD PUSH2 0x29D SWAP1 PUSH2 0xD59 JUMP JUMPDEST PUSH1 0x0 PUSH1 0x40 MLOAD DUP1 DUP4 SUB DUP2 DUP6 DUP8 GAS CALL SWAP3 POP POP POP RETURNDATASIZE DUP1 PUSH1 0x0 DUP2 EQ PUSH2 0x2DA JUMPI PUSH1 0x40 MLOAD SWAP2 POP PUSH1 0x1F NOT PUSH1 0x3F RETURNDATASIZE ADD AND DUP3 ADD PUSH1 0x40 MSTORE RETURNDATASIZE DUP3 MSTORE RETURNDATASIZE PUSH1 0x0 PUSH1 0x20 DUP5 ADD RETURNDATACOPY PUSH2 0x2DF JUMP JUMPDEST PUSH1 0x60 SWAP2 POP JUMPDEST POP POP SWAP1 POP DUP1 PUSH2 0x323 JUMPI PUSH1 0x40 MLOAD PUSH32 0x8C379A000000000000000000000000000000000000000000000000000000000 DUP2 MSTORE PUSH1 0x4 ADD PUSH2 0x31A SWAP1 PUSH2 0xDCB JUMP JUMPDEST PUSH1 0x40 MLOAD DUP1 SWAP2 SUB SWAP1 REVERT JUMPDEST POP POP JUMP JUMPDEST PUSH1 0x4 SLOAD DUP2 JUMP JUMPDEST PUSH2 0x335 PUSH2 0x869 JUMP JUMPDEST PUSH2 0x33F PUSH1 0x0 PUSH2 0x8E7 JUMP JUMPDEST JUMP JUMPDEST PUSH1 0x0 DUP1 PUSH1 0x0 SWAP1 SLOAD SWAP1 PUSH2 0x100 EXP SWAP1 DIV PUSH20 0xFFFFFFFFFFFFFFFFFFFFFFFFFFFFFFFFFFFFFFFF AND SWAP1 POP SWAP1 JUMP JUMPDEST PUSH2 0x372 PUSH2 0x869 JUMP JUMPDEST PUSH1 0x0 PUSH1 0x2 PUSH1 0x0 SWAP1 SLOAD SWAP1 PUSH2 0x100 EXP SWAP1 DIV PUSH20 0xFFFFFFFFFFFFFFFFFFFFFFFFFFFFFFFFFFFFFFFF AND PUSH20 0xFFFFFFFFFFFFFFFFFFFFFFFFFFFFFFFFFFFFFFFF AND PUSH1 0x4 SLOAD DUP4 PUSH2 0x3BB SWAP2 SWAP1 PUSH2 0xE1A JUMP JUMPDEST PUSH32 0xA0712D680358D64F694230B7CC0B277C73686BDF768385D55CD7C547D0FFD30E DUP5 PUSH1 0x40 MLOAD PUSH1 0x20 ADD PUSH2 0x3EE SWAP3 SWAP2 SWAP1 PUSH2 0xE9E JUMP JUMPDEST PUSH1 0x40 MLOAD PUSH1 0x20 DUP2 DUP4 SUB SUB DUP2 MSTORE SWAP1 PUSH1 0x40 MSTORE PUSH1 0x40 MLOAD PUSH2 0x40A SWAP2 SWAP1 PUSH2 0xF30 JUMP JUMPDEST PUSH1 0x0 PUSH1 0x40 MLOAD DUP1 DUP4 SUB DUP2 DUP6 DUP8 GAS CALL SWAP3 POP POP POP RETURNDATASIZE DUP1 PUSH1 0x0 DUP2 EQ PUSH2 0x447 JUMPI PUSH1 0x40 MLOAD SWAP2 POP PUSH1 0x1F NOT PUSH1 0x3F RETURNDATASIZE ADD AND DUP3 ADD PUSH1 0x40 MSTORE RETURNDATASIZE DUP3 MSTORE RETURNDATASIZE PUSH1 0x0 PUSH1 0x20 DUP5 ADD RETURNDATACOPY PUSH2 0x44C JUMP JUMPDEST PUSH1 0x60 SWAP2 POP JUMPDEST POP POP SWAP1 POP DUP1 PUSH2 0x45A JUMPI PUSH1 0x0 DUP1 REVERT JUMPDEST POP POP JUMP JUMPDEST PUSH2 0x466 PUSH2 0x869 JUMP JUMPDEST PUSH1 0x0 CALLER PUSH20 0xFFFFFFFFFFFFFFFFFFFFFFFFFFFFFFFFFFFFFFFF AND SELFBALANCE PUSH1 0x40 MLOAD PUSH2 0x48C SWAP1 PUSH2 0xD59 JUMP JUMPDEST PUSH1 0x0 PUSH1 0x40 MLOAD DUP1 DUP4 SUB DUP2 DUP6 DUP8 GAS CALL SWAP3 POP POP POP RETURNDATASIZE DUP1 PUSH1 0x0 DUP2 EQ PUSH2 0x4C9 JUMPI PUSH1 0x40 MLOAD SWAP2 POP PUSH1 0x1F NOT PUSH1 0x3F RETURNDATASIZE ADD AND DUP3 ADD PUSH1 0x40 MSTORE RETURNDATASIZE DUP3 MSTORE RETURNDATASIZE PUSH1 0x0 PUSH1 0x20 DUP5 ADD RETURNDATACOPY PUSH2 0x4CE JUMP JUMPDEST PUSH1 0x60 SWAP2 POP JUMPDEST POP POP SWAP1 POP DUP1 PUSH2 0x512 JUMPI PUSH1 0x40 MLOAD PUSH32 0x8C379A000000000000000000000000000000000000000000000000000000000 DUP2 MSTORE PUSH1 0x4 ADD PUSH2 0x509 SWAP1 PUSH2 0xF93 JUMP JUMPDEST PUSH1 0x40 MLOAD DUP1 SWAP2 SUB SWAP1 REVERT JUMPDEST POP JUMP JUMPDEST PUSH2 0x51D PUSH2 0x869 JUMP JUMPDEST PUSH1 0x0 PUSH20 0xFFFFFFFFFFFFFFFFFFFFFFFFFFFFFFFFFFFFFFFF AND DUP2 PUSH20 0xFFFFFFFFFFFFFFFFFFFFFFFFFFFFFFFFFFFFFFFF AND SUB PUSH2 0x58C JUMPI PUSH1 0x40 MLOAD PUSH32 0x8C379A000000000000000000000000000000000000000000000000000000000 DUP2 MSTORE PUSH1 0x4 ADD PUSH2 0x583 SWAP1 PUSH2 0x1025 JUMP JUMPDEST PUSH1 0x40 MLOAD DUP1 SWAP2 SUB SWAP1 REVERT JUMPDEST PUSH2 0x595 DUP2 PUSH2 0x8E7 JUMP JUMPDEST POP JUMP JUMPDEST PUSH2 0x5A0 PUSH2 0x869 JUMP JUMPDEST PUSH1 0x0 PUSH1 0x2 PUSH1 0x0 SWAP1 SLOAD SWAP1 PUSH2 0x100 EXP SWAP1 DIV PUSH20 0xFFFFFFFFFFFFFFFFFFFFFFFFFFFFFFFFFFFFFFFF AND SWAP1 POP PUSH1 0x0 JUMPDEST PUSH1 0x5 SLOAD DUP2 LT ISZERO PUSH2 0x864 JUMPI PUSH1 0x0 DUP3 PUSH20 0xFFFFFFFFFFFFFFFFFFFFFFFFFFFFFFFFFFFFFFFF AND PUSH4 0x70A08231 ADDRESS PUSH1 0x40 MLOAD DUP3 PUSH4 0xFFFFFFFF AND PUSH1 0xE0 SHL DUP2 MSTORE PUSH1 0x4 ADD PUSH2 0x60F SWAP2 SWAP1 PUSH2 0xCE0 JUMP JUMPDEST PUSH1 0x20 PUSH1 0x40 MLOAD DUP1 DUP4 SUB DUP2 DUP7 GAS STATICCALL ISZERO DUP1 ISZERO PUSH2 0x62C JUMPI RETURNDATASIZE PUSH1 0x0 DUP1 RETURNDATACOPY RETURNDATASIZE PUSH1 0x0 REVERT JUMPDEST POP POP POP POP PUSH1 0x40 MLOAD RETURNDATASIZE PUSH1 0x1F NOT PUSH1 0x1F DUP3 ADD AND DUP3 ADD DUP1 PUSH1 0x40 MSTORE POP DUP2 ADD SWAP1 PUSH2 0x650 SWAP2 SWAP1 PUSH2 0x105A JUMP JUMPDEST GT ISZERO PUSH2 0x851 JUMPI PUSH1 0x0 PUSH1 0x1 PUSH1 0x0 SWAP1 SLOAD SWAP1 PUSH2 0x100 EXP SWAP1 DIV PUSH20 0xFFFFFFFFFFFFFFFFFFFFFFFFFFFFFFFFFFFFFFFF AND PUSH20 0xFFFFFFFFFFFFFFFFFFFFFFFFFFFFFFFFFFFFFFFF AND PUSH4 0x2F745C59 ADDRESS PUSH1 0x0 PUSH1 0x40 MLOAD DUP4 PUSH4 0xFFFFFFFF AND PUSH1 0xE0 SHL DUP2 MSTORE PUSH1 0x4 ADD PUSH2 0x6B6 SWAP3 SWAP2 SWAP1 PUSH2 0x10CC JUMP JUMPDEST PUSH1 0x20 PUSH1 0x40 MLOAD DUP1 DUP4 SUB DUP2 DUP7 GAS STATICCALL ISZERO DUP1 ISZERO PUSH2 0x6D3 JUMPI RETURNDATASIZE PUSH1 0x0 DUP1 RETURNDATACOPY RETURNDATASIZE PUSH1 0x0 REVERT JUMPDEST POP POP POP POP PUSH1 0x40 MLOAD RETURNDATASIZE PUSH1 0x1F NOT PUSH1 0x1F DUP3 ADD AND DUP3 ADD DUP1 PUSH1 0x40 MSTORE POP DUP2 ADD SWAP1 PUSH2 0x6F7 SWAP2 SWAP1 PUSH2 0x105A JUMP JUMPDEST SWAP1 POP ADDRESS PUSH20 0xFFFFFFFFFFFFFFFFFFFFFFFFFFFFFFFFFFFFFFFF AND DUP4 PUSH20 0xFFFFFFFFFFFFFFFFFFFFFFFFFFFFFFFFFFFFFFFF AND PUSH4 0x6352211E DUP4 PUSH1 0x40 MLOAD DUP3 PUSH4 0xFFFFFFFF AND PUSH1 0xE0 SHL DUP2 MSTORE PUSH1 0x4 ADD PUSH2 0x749 SWAP2 SWAP1 PUSH2 0x9CC JUMP JUMPDEST PUSH1 0x20 PUSH1 0x40 MLOAD DUP1 DUP4 SUB DUP2 DUP7 GAS STATICCALL ISZERO DUP1 ISZERO PUSH2 0x766 JUMPI RETURNDATASIZE PUSH1 0x0 DUP1 RETURNDATACOPY RETURNDATASIZE PUSH1 0x0 REVERT JUMPDEST POP POP POP POP PUSH1 0x40 MLOAD RETURNDATASIZE PUSH1 0x1F NOT PUSH1 0x1F DUP3 ADD AND DUP3 ADD DUP1 PUSH1 0x40 MSTORE POP DUP2 ADD SWAP1 PUSH2 0x78A SWAP2 SWAP1 PUSH2 0x110A JUMP JUMPDEST PUSH20 0xFFFFFFFFFFFFFFFFFFFFFFFFFFFFFFFFFFFFFFFF AND EQ PUSH2 0x7E0 JUMPI PUSH1 0x40 MLOAD PUSH32 0x8C379A000000000000000000000000000000000000000000000000000000000 DUP2 MSTORE PUSH1 0x4 ADD PUSH2 0x7D7 SWAP1 PUSH2 0x1183 JUMP JUMPDEST PUSH1 0x40 MLOAD DUP1 SWAP2 SUB SWAP1 REVERT JUMPDEST DUP3 PUSH20 0xFFFFFFFFFFFFFFFFFFFFFFFFFFFFFFFFFFFFFFFF AND PUSH4 0x23B872DD ADDRESS DUP7 DUP5 PUSH1 0x40 MLOAD DUP5 PUSH4 0xFFFFFFFF AND PUSH1 0xE0 SHL DUP2 MSTORE PUSH1 0x4 ADD PUSH2 0x81D SWAP4 SWAP3 SWAP2 SWAP1 PUSH2 0x11A3 JUMP JUMPDEST PUSH1 0x0 PUSH1 0x40 MLOAD DUP1 DUP4 SUB DUP2 PUSH1 0x0 DUP8 DUP1 EXTCODESIZE ISZERO DUP1 ISZERO PUSH2 0x837 JUMPI PUSH1 0x0 DUP1 REVERT JUMPDEST POP GAS CALL ISZERO DUP1 ISZERO PUSH2 0x84B JUMPI RETURNDATASIZE PUSH1 0x0 DUP1 RETURNDATACOPY RETURNDATASIZE PUSH1 0x0 REVERT JUMPDEST POP POP POP POP POP JUMPDEST DUP1 DUP1 PUSH2 0x85C SWAP1 PUSH2 0x11DA JUMP JUMPDEST SWAP2 POP POP PUSH2 0x5CA JUMP JUMPDEST POP POP POP JUMP JUMPDEST PUSH2 0x871 PUSH2 0x9AB JUMP JUMPDEST PUSH20 0xFFFFFFFFFFFFFFFFFFFFFFFFFFFFFFFFFFFFFFFF AND PUSH2 0x88F PUSH2 0x341 JUMP JUMPDEST PUSH20 0xFFFFFFFFFFFFFFFFFFFFFFFFFFFFFFFFFFFFFFFF AND EQ PUSH2 0x8E5 JUMPI PUSH1 0x40 MLOAD PUSH32 0x8C379A000000000000000000000000000000000000000000000000000000000 DUP2 MSTORE PUSH1 0x4 ADD PUSH2 0x8DC SWAP1 PUSH2 0x126E JUMP JUMPDEST PUSH1 0x40 MLOAD DUP1 SWAP2 SUB SWAP1 REVERT JUMPDEST JUMP JUMPDEST PUSH1 0x0 DUP1 PUSH1 0x0 SWAP1 SLOAD SWAP1 PUSH2 0x100 EXP SWAP1 DIV PUSH20 0xFFFFFFFFFFFFFFFFFFFFFFFFFFFFFFFFFFFFFFFF AND SWAP1 POP DUP2 PUSH1 0x0 DUP1 PUSH2 0x100 EXP DUP2 SLOAD DUP2 PUSH20 0xFFFFFFFFFFFFFFFFFFFFFFFFFFFFFFFFFFFFFFFF MUL NOT AND SWAP1 DUP4 PUSH20 0xFFFFFFFFFFFFFFFFFFFFFFFFFFFFFFFFFFFFFFFF AND MUL OR SWAP1 SSTORE POP DUP2 PUSH20 0xFFFFFFFFFFFFFFFFFFFFFFFFFFFFFFFFFFFFFFFF AND DUP2 PUSH20 0xFFFFFFFFFFFFFFFFFFFFFFFFFFFFFFFFFFFFFFFF AND PUSH32 0x8BE0079C531659141344CD1FD0A4F28419497F9722A3DAAFE3B4186F6B6457E0 PUSH1 0x40 MLOAD PUSH1 0x40 MLOAD DUP1 SWAP2 SUB SWAP1 LOG3 POP POP JUMP JUMPDEST PUSH1 0x0 CALLER SWAP1 POP SWAP1 JUMP JUMPDEST PUSH1 0x0 DUP2 SWAP1 POP SWAP2 SWAP1 POP JUMP JUMPDEST PUSH2 0x9C6 DUP2 PUSH2 0x9B3 JUMP JUMPDEST DUP3 MSTORE POP POP JUMP JUMPDEST PUSH1 0x0 PUSH1 0x20 DUP3 ADD SWAP1 POP PUSH2 0x9E1 PUSH1 0x0 DUP4 ADD DUP5 PUSH2 0x9BD JUMP JUMPDEST SWAP3 SWAP2 POP POP JUMP JUMPDEST PUSH1 0x0 PUSH1 0x40 MLOAD SWAP1 POP SWAP1 JUMP JUMPDEST PUSH1 0x0 DUP1 REVERT JUMPDEST PUSH1 0x0 DUP1 REVERT JUMPDEST PUSH1 0x0 PUSH20 0xFFFFFFFFFFFFFFFFFFFFFFFFFFFFFFFFFFFFFFFF DUP3 AND SWAP1 POP SWAP2 SWAP1 POP JUMP JUMPDEST PUSH1 0x0 PUSH2 0xA26 DUP3 PUSH2 0x9FB JUMP JUMPDEST SWAP1 POP SWAP2 SWAP1 POP JUMP JUMPDEST PUSH2 0xA36 DUP2 PUSH2 0xA1B JUMP JUMPDEST DUP2 EQ PUSH2 0xA41 JUMPI PUSH1 0x0 DUP1 REVERT JUMPDEST POP JUMP JUMPDEST PUSH1 0x0 DUP2 CALLDATALOAD SWAP1 POP PUSH2 0xA53 DUP2 PUSH2 0xA2D JUMP JUMPDEST SWAP3 SWAP2 POP POP JUMP JUMPDEST PUSH2 0xA62 DUP2 PUSH2 0x9B3 JUMP JUMPDEST DUP2 EQ PUSH2 0xA6D JUMPI PUSH1 0x0 DUP1 REVERT JUMPDEST POP JUMP JUMPDEST PUSH1 0x0 DUP2 CALLDATALOAD SWAP1 POP PUSH2 0xA7F DUP2 PUSH2 0xA59 JUMP JUMPDEST SWAP3 SWAP2 POP POP JUMP JUMPDEST PUSH1 0x0 DUP1 REVERT JUMPDEST PUSH1 0x0 DUP1 REVERT JUMPDEST PUSH1 0x0 PUSH1 0x1F NOT PUSH1 0x1F DUP4 ADD AND SWAP1 POP SWAP2 SWAP1 POP JUMP JUMPDEST PUSH32 0x4E487B7100000000000000000000000000000000000000000000000000000000 PUSH1 0x0 MSTORE PUSH1 0x41 PUSH1 0x4 MSTORE PUSH1 0x24 PUSH1 0x0 REVERT JUMPDEST PUSH2 0xAD8 DUP3 PUSH2 0xA8F JUMP JUMPDEST DUP2 ADD DUP2 DUP2 LT PUSH8 0xFFFFFFFFFFFFFFFF DUP3 GT OR ISZERO PUSH2 0xAF7 JUMPI PUSH2 0xAF6 PUSH2 0xAA0 JUMP JUMPDEST JUMPDEST DUP1 PUSH1 0x40 MSTORE POP POP POP JUMP JUMPDEST PUSH1 0x0 PUSH2 0xB0A PUSH2 0x9E7 JUMP JUMPDEST SWAP1 POP PUSH2 0xB16 DUP3 DUP3 PUSH2 0xACF JUMP JUMPDEST SWAP2 SWAP1 POP JUMP JUMPDEST PUSH1 0x0 PUSH8 0xFFFFFFFFFFFFFFFF DUP3 GT ISZERO PUSH2 0xB36 JUMPI PUSH2 0xB35 PUSH2 0xAA0 JUMP JUMPDEST JUMPDEST PUSH2 0xB3F DUP3 PUSH2 0xA8F JUMP JUMPDEST SWAP1 POP PUSH1 0x20 DUP2 ADD SWAP1 POP SWAP2 SWAP1 POP JUMP JUMPDEST DUP3 DUP2 DUP4 CALLDATACOPY PUSH1 0x0 DUP4 DUP4 ADD MSTORE POP POP POP JUMP JUMPDEST PUSH1 0x0 PUSH2 0xB6E PUSH2 0xB69 DUP5 PUSH2 0xB1B JUMP JUMPDEST PUSH2 0xB00 JUMP JUMPDEST SWAP1 POP DUP3 DUP2 MSTORE PUSH1 0x20 DUP2 ADD DUP5 DUP5 DUP5 ADD GT ISZERO PUSH2 0xB8A JUMPI PUSH2 0xB89 PUSH2 0xA8A JUMP JUMPDEST JUMPDEST PUSH2 0xB95 DUP5 DUP3 DUP6 PUSH2 0xB4C JUMP JUMPDEST POP SWAP4 SWAP3 POP POP POP JUMP JUMPDEST PUSH1 0x0 DUP3 PUSH1 0x1F DUP4 ADD SLT PUSH2 0xBB2 JUMPI PUSH2 0xBB1 PUSH2 0xA85 JUMP JUMPDEST JUMPDEST DUP2 CALLDATALOAD PUSH2 0xBC2 DUP5 DUP3 PUSH1 0x20 DUP7 ADD PUSH2 0xB5B JUMP JUMPDEST SWAP2 POP POP SWAP3 SWAP2 POP POP JUMP JUMPDEST PUSH1 0x0 DUP1 PUSH1 0x0 DUP1 PUSH1 0x80 DUP6 DUP8 SUB SLT ISZERO PUSH2 0xBE5 JUMPI PUSH2 0xBE4 PUSH2 0x9F1 JUMP JUMPDEST JUMPDEST PUSH1 0x0 PUSH2 0xBF3 DUP8 DUP3 DUP9 ADD PUSH2 0xA44 JUMP JUMPDEST SWAP5 POP POP PUSH1 0x20 PUSH2 0xC04 DUP8 DUP3 DUP9 ADD PUSH2 0xA44 JUMP JUMPDEST SWAP4 POP POP PUSH1 0x40 PUSH2 0xC15 DUP8 DUP3 DUP9 ADD PUSH2 0xA70 JUMP JUMPDEST SWAP3 POP POP PUSH1 0x60 DUP6 ADD CALLDATALOAD PUSH8 0xFFFFFFFFFFFFFFFF DUP2 GT ISZERO PUSH2 0xC36 JUMPI PUSH2 0xC35 PUSH2 0x9F6 JUMP JUMPDEST JUMPDEST PUSH2 0xC42 DUP8 DUP3 DUP9 ADD PUSH2 0xB9D JUMP JUMPDEST SWAP2 POP POP SWAP3 SWAP6 SWAP2 SWAP5 POP SWAP3 POP JUMP JUMPDEST PUSH1 0x0 PUSH32 0xFFFFFFFF00000000000000000000000000000000000000000000000000000000 DUP3 AND SWAP1 POP SWAP2 SWAP1 POP JUMP JUMPDEST PUSH2 0xC83 DUP2 PUSH2 0xC4E JUMP JUMPDEST DUP3 MSTORE POP POP JUMP JUMPDEST PUSH1 0x0 PUSH1 0x20 DUP3 ADD SWAP1 POP PUSH2 0xC9E PUSH1 0x0 DUP4 ADD DUP5 PUSH2 0xC7A JUMP JUMPDEST SWAP3 SWAP2 POP POP JUMP JUMPDEST PUSH1 0x0 PUSH1 0x20 DUP3 DUP5 SUB SLT ISZERO PUSH2 0xCBA JUMPI PUSH2 0xCB9 PUSH2 0x9F1 JUMP JUMPDEST JUMPDEST PUSH1 0x0 PUSH2 0xCC8 DUP5 DUP3 DUP6 ADD PUSH2 0xA44 JUMP JUMPDEST SWAP2 POP POP SWAP3 SWAP2 POP POP JUMP JUMPDEST PUSH2 0xCDA DUP2 PUSH2 0xA1B JUMP JUMPDEST DUP3 MSTORE POP POP JUMP JUMPDEST PUSH1 0x0 PUSH1 0x20 DUP3 ADD SWAP1 POP PUSH2 0xCF5 PUSH1 0x0 DUP4 ADD DUP5 PUSH2 0xCD1 JUMP JUMPDEST SWAP3 SWAP2 POP POP JUMP JUMPDEST PUSH1 0x0 PUSH1 0x20 DUP3 DUP5 SUB SLT ISZERO PUSH2 0xD11 JUMPI PUSH2 0xD10 PUSH2 0x9F1 JUMP JUMPDEST JUMPDEST PUSH1 0x0 PUSH2 0xD1F DUP5 DUP3 DUP6 ADD PUSH2 0xA70 JUMP JUMPDEST SWAP2 POP POP SWAP3 SWAP2 POP POP JUMP JUMPDEST PUSH1 0x0 DUP2 SWAP1 POP SWAP3 SWAP2 POP POP JUMP JUMPDEST POP JUMP JUMPDEST PUSH1 0x0 PUSH2 0xD43 PUSH1 0x0 DUP4 PUSH2 0xD28 JUMP JUMPDEST SWAP2 POP PUSH2 0xD4E DUP3 PUSH2 0xD33 JUMP JUMPDEST PUSH1 0x0 DUP3 ADD SWAP1 POP SWAP2 SWAP1 POP JUMP JUMPDEST PUSH1 0x0 PUSH2 0xD64 DUP3 PUSH2 0xD36 JUMP JUMPDEST SWAP2 POP DUP2 SWAP1 POP SWAP2 SWAP1 POP JUMP JUMPDEST PUSH1 0x0 DUP3 DUP3 MSTORE PUSH1 0x20 DUP3 ADD SWAP1 POP SWAP3 SWAP2 POP POP JUMP JUMPDEST PUSH32 0x5749544844524157414C5F4641494C4544000000000000000000000000000000 PUSH1 0x0 DUP3 ADD MSTORE POP JUMP JUMPDEST PUSH1 0x0 PUSH2 0xDB5 PUSH1 0x11 DUP4 PUSH2 0xD6E JUMP JUMPDEST SWAP2 POP PUSH2 0xDC0 DUP3 PUSH2 0xD7F JUMP JUMPDEST PUSH1 0x20 DUP3 ADD SWAP1 POP SWAP2 SWAP1 POP JUMP JUMPDEST PUSH1 0x0 PUSH1 0x20 DUP3 ADD SWAP1 POP DUP2 DUP2 SUB PUSH1 0x0 DUP4 ADD MSTORE PUSH2 0xDE4 DUP2 PUSH2 0xDA8 JUMP JUMPDEST SWAP1 POP SWAP2 SWAP1 POP JUMP JUMPDEST PUSH32 0x4E487B7100000000000000000000000000000000000000000000000000000000 PUSH1 0x0 MSTORE PUSH1 0x11 PUSH1 0x4 MSTORE PUSH1 0x24 PUSH1 0x0 REVERT JUMPDEST PUSH1 0x0 PUSH2 0xE25 DUP3 PUSH2 0x9B3 JUMP JUMPDEST SWAP2 POP PUSH2 0xE30 DUP4 PUSH2 0x9B3 JUMP JUMPDEST SWAP3 POP DUP3 DUP3 MUL PUSH2 0xE3E DUP2 PUSH2 0x9B3 JUMP JUMPDEST SWAP2 POP DUP3 DUP3 DIV DUP5 EQ DUP4 ISZERO OR PUSH2 0xE55 JUMPI PUSH2 0xE54 PUSH2 0xDEB JUMP JUMPDEST JUMPDEST POP SWAP3 SWAP2 POP POP JUMP JUMPDEST PUSH1 0x0 DUP2 SWAP1 POP SWAP2 SWAP1 POP JUMP JUMPDEST PUSH2 0xE77 PUSH2 0xE72 DUP3 PUSH2 0xC4E JUMP JUMPDEST PUSH2 0xE5C JUMP JUMPDEST DUP3 MSTORE POP POP JUMP JUMPDEST PUSH1 0x0 DUP2 SWAP1 POP SWAP2 SWAP1 POP JUMP JUMPDEST PUSH2 0xE98 PUSH2 0xE93 DUP3 PUSH2 0x9B3 JUMP JUMPDEST PUSH2 0xE7D JUMP JUMPDEST DUP3 MSTORE POP POP JUMP JUMPDEST PUSH1 0x0 PUSH2 0xEAA DUP3 DUP6 PUSH2 0xE66 JUMP JUMPDEST PUSH1 0x4 DUP3 ADD SWAP2 POP PUSH2 0xEBA DUP3 DUP5 PUSH2 0xE87 JUMP JUMPDEST PUSH1 0x20 DUP3 ADD SWAP2 POP DUP2 SWAP1 POP SWAP4 SWAP3 POP POP POP JUMP JUMPDEST PUSH1 0x0 DUP2 MLOAD SWAP1 POP SWAP2 SWAP1 POP JUMP JUMPDEST PUSH1 0x0 JUMPDEST DUP4 DUP2 LT ISZERO PUSH2 0xEF3 JUMPI DUP1 DUP3 ADD MLOAD DUP2 DUP5 ADD MSTORE PUSH1 0x20 DUP2 ADD SWAP1 POP PUSH2 0xED8 JUMP JUMPDEST PUSH1 0x0 DUP5 DUP5 ADD MSTORE POP POP POP POP JUMP JUMPDEST PUSH1 0x0 PUSH2 0xF0A DUP3 PUSH2 0xECA JUMP JUMPDEST PUSH2 0xF14 DUP2 DUP6 PUSH2 0xD28 JUMP JUMPDEST SWAP4 POP PUSH2 0xF24 DUP2 DUP6 PUSH1 0x20 DUP7 ADD PUSH2 0xED5 JUMP JUMPDEST DUP1 DUP5 ADD SWAP2 POP POP SWAP3 SWAP2 POP POP JUMP JUMPDEST PUSH1 0x0 PUSH2 0xF3C DUP3 DUP5 PUSH2 0xEFF JUMP JUMPDEST SWAP2 POP DUP2 SWAP1 POP SWAP3 SWAP2 POP POP JUMP JUMPDEST PUSH32 0x5472616E73666572206661696C65642E00000000000000000000000000000000 PUSH1 0x0 DUP3 ADD MSTORE POP JUMP JUMPDEST PUSH1 0x0 PUSH2 0xF7D PUSH1 0x10 DUP4 PUSH2 0xD6E JUMP JUMPDEST SWAP2 POP PUSH2 0xF88 DUP3 PUSH2 0xF47 JUMP JUMPDEST PUSH1 0x20 DUP3 ADD SWAP1 POP SWAP2 SWAP1 POP JUMP JUMPDEST PUSH1 0x0 PUSH1 0x20 DUP3 ADD SWAP1 POP DUP2 DUP2 SUB PUSH1 0x0 DUP4 ADD MSTORE PUSH2 0xFAC DUP2 PUSH2 0xF70 JUMP JUMPDEST SWAP1 POP SWAP2 SWAP1 POP JUMP JUMPDEST PUSH32 0x4F776E61626C653A206E6577206F776E657220697320746865207A65726F2061 PUSH1 0x0 DUP3 ADD MSTORE PUSH32 0x6464726573730000000000000000000000000000000000000000000000000000 PUSH1 0x20 DUP3 ADD MSTORE POP JUMP JUMPDEST PUSH1 0x0 PUSH2 0x100F PUSH1 0x26 DUP4 PUSH2 0xD6E JUMP JUMPDEST SWAP2 POP PUSH2 0x101A DUP3 PUSH2 0xFB3 JUMP JUMPDEST PUSH1 0x40 DUP3 ADD SWAP1 POP SWAP2 SWAP1 POP JUMP JUMPDEST PUSH1 0x0 PUSH1 0x20 DUP3 ADD SWAP1 POP DUP2 DUP2 SUB PUSH1 0x0 DUP4 ADD MSTORE PUSH2 0x103E DUP2 PUSH2 0x1002 JUMP JUMPDEST SWAP1 POP SWAP2 SWAP1 POP JUMP JUMPDEST PUSH1 0x0 DUP2 MLOAD SWAP1 POP PUSH2 0x1054 DUP2 PUSH2 0xA59 JUMP JUMPDEST SWAP3 SWAP2 POP POP JUMP JUMPDEST PUSH1 0x0 PUSH1 0x20 DUP3 DUP5 SUB SLT ISZERO PUSH2 0x1070 JUMPI PUSH2 0x106F PUSH2 0x9F1 JUMP JUMPDEST JUMPDEST PUSH1 0x0 PUSH2 0x107E DUP5 DUP3 DUP6 ADD PUSH2 0x1045 JUMP JUMPDEST SWAP2 POP POP SWAP3 SWAP2 POP POP JUMP JUMPDEST PUSH1 0x0 DUP2 SWAP1 POP SWAP2 SWAP1 POP JUMP JUMPDEST PUSH1 0x0 DUP2 SWAP1 POP SWAP2 SWAP1 POP JUMP JUMPDEST PUSH1 0x0 PUSH2 0x10B6 PUSH2 0x10B1 PUSH2 0x10AC DUP5 PUSH2 0x1087 JUMP JUMPDEST PUSH2 0x1091 JUMP JUMPDEST PUSH2 0x9B3 JUMP JUMPDEST SWAP1 POP SWAP2 SWAP1 POP JUMP JUMPDEST PUSH2 0x10C6 DUP2 PUSH2 0x109B JUMP JUMPDEST DUP3 MSTORE POP POP JUMP JUMPDEST PUSH1 0x0 PUSH1 0x40 DUP3 ADD SWAP1 POP PUSH2 0x10E1 PUSH1 0x0 DUP4 ADD DUP6 PUSH2 0xCD1 JUMP JUMPDEST PUSH2 0x10EE PUSH1 0x20 DUP4 ADD DUP5 PUSH2 0x10BD JUMP JUMPDEST SWAP4 SWAP3 POP POP POP JUMP JUMPDEST PUSH1 0x0 DUP2 MLOAD SWAP1 POP PUSH2 0x1104 DUP2 PUSH2 0xA2D JUMP JUMPDEST SWAP3 SWAP2 POP POP JUMP JUMPDEST PUSH1 0x0 PUSH1 0x20 DUP3 DUP5 SUB SLT ISZERO PUSH2 0x1120 JUMPI PUSH2 0x111F PUSH2 0x9F1 JUMP JUMPDEST JUMPDEST PUSH1 0x0 PUSH2 0x112E DUP5 DUP3 DUP6 ADD PUSH2 0x10F5 JUMP JUMPDEST SWAP2 POP POP SWAP3 SWAP2 POP POP JUMP JUMPDEST PUSH32 0x596F75206D757374206F776E2074686520746F6B656E00000000000000000000 PUSH1 0x0 DUP3 ADD MSTORE POP JUMP JUMPDEST PUSH1 0x0 PUSH2 0x116D PUSH1 0x16 DUP4 PUSH2 0xD6E JUMP JUMPDEST SWAP2 POP PUSH2 0x1178 DUP3 PUSH2 0x1137 JUMP JUMPDEST PUSH1 0x20 DUP3 ADD SWAP1 POP SWAP2 SWAP1 POP JUMP JUMPDEST PUSH1 0x0 PUSH1 0x20 DUP3 ADD SWAP1 POP DUP2 DUP2 SUB PUSH1 0x0 DUP4 ADD MSTORE PUSH2 0x119C DUP2 PUSH2 0x1160 JUMP JUMPDEST SWAP1 POP SWAP2 SWAP1 POP JUMP JUMPDEST PUSH1 0x0 PUSH1 0x60 DUP3 ADD SWAP1 POP PUSH2 0x11B8 PUSH1 0x0 DUP4 ADD DUP7 PUSH2 0xCD1 JUMP JUMPDEST PUSH2 0x11C5 PUSH1 0x20 DUP4 ADD DUP6 PUSH2 0xCD1 JUMP JUMPDEST PUSH2 0x11D2 PUSH1 0x40 DUP4 ADD DUP5 PUSH2 0x9BD JUMP JUMPDEST SWAP5 SWAP4 POP POP POP POP JUMP JUMPDEST PUSH1 0x0 PUSH2 0x11E5 DUP3 PUSH2 0x9B3 JUMP JUMPDEST SWAP2 POP PUSH32 0xFFFFFFFFFFFFFFFFFFFFFFFFFFFFFFFFFFFFFFFFFFFFFFFFFFFFFFFFFFFFFFFF DUP3 SUB PUSH2 0x1217 JUMPI PUSH2 0x1216 PUSH2 0xDEB JUMP JUMPDEST JUMPDEST PUSH1 0x1 DUP3 ADD SWAP1 POP SWAP2 SWAP1 POP JUMP JUMPDEST PUSH32 0x4F776E61626C653A2063616C6C6572206973206E6F7420746865206F776E6572 PUSH1 0x0 DUP3 ADD MSTORE POP JUMP JUMPDEST PUSH1 0x0 PUSH2 0x1258 PUSH1 0x20 DUP4 PUSH2 0xD6E JUMP JUMPDEST SWAP2 POP PUSH2 0x1263 DUP3 PUSH2 0x1222 JUMP JUMPDEST PUSH1 0x20 DUP3 ADD SWAP1 POP SWAP2 SWAP1 POP JUMP JUMPDEST PUSH1 0x0 PUSH1 0x20 DUP3 ADD SWAP1 POP DUP2 DUP2 SUB PUSH1 0x0 DUP4 ADD MSTORE PUSH2 0x1287 DUP2 PUSH2 0x124B JUMP JUMPDEST SWAP1 POP SWAP2 SWAP1 POP JUMP INVALID LOG2 PUSH5 0x6970667358 0x22 SLT KECCAK256 EXTCODECOPY 0xC4 CODECOPY SWAP11 PUSH32 0xDA0D7A26FBBDD372F6B424520FF489B3748D08BB92F03B60F538264736F6C63 NUMBER STOP ADDMOD GT STOP CALLER LOG2 PUSH5 0x6970667358 0x22 SLT KECCAK256 DELEGATECALL 0xEC 0xC1 SHR PUSH12 0xF1974D8B3F389B79CF82D471 0xE7 0xC3 PUSH4 0xD52F2294 OR PUSH12 0x9B090150310E64736F6C6343 STOP ADDMOD GT STOP CALLER "
		},
		"gasEstimates": {
			"creation": {
				"codeDepositCost": "1870400",
				"executionCost": "infinite",
				"totalCost": "infinite"
			},
			"external": {
				"MAX_PER_WALLET()": "330",
				"MAX_SUPPLY()": "418",
				"NFT_PRICE()": "351",
				"_mint(uint256)": "infinite",
				"batchMintStart()": "infinite",
				"batchWithdraw(address)": "infinite",
				"createBatchMint(address,uint256)": "infinite",
				"createMint(address)": "infinite",
				"owner()": "2588",
				"renounceOwnership()": "30442",
				"transferOwnership(address)": "30854"
			}
		},
		"methodIdentifiers": {
			"MAX_PER_WALLET()": "0f2cdd6c",
			"MAX_SUPPLY()": "32cb6b0c",
			"NFT_PRICE()": "676dd563",
			"_mint(uint256)": "2c526196",
			"batchMintStart()": "10c526c5",
			"batchWithdraw(address)": "24cf2f9c",
			"createBatchMint(address,uint256)": "cfc40394",
			"createMint(address)": "56702dc0",
			"owner()": "8da5cb5b",
			"renounceOwnership()": "715018a6",
			"transferOwnership(address)": "f2fde38b"
		}
	},
	"abi": [
		{
			"anonymous": false,
			"inputs": [
				{
					"indexed": true,
					"internalType": "address",
					"name": "previousOwner",
					"type": "address"
				},
				{
					"indexed": true,
					"internalType": "address",
					"name": "newOwner",
					"type": "address"
				}
			],
			"name": "OwnershipTransferred",
			"type": "event"
		},
		{
			"inputs": [],
			"name": "MAX_PER_WALLET",
			"outputs": [
				{
					"internalType": "uint256",
					"name": "",
					"type": "uint256"
				}
			],
			"stateMutability": "view",
			"type": "function"
		},
		{
			"inputs": [],
			"name": "MAX_SUPPLY",
			"outputs": [
				{
					"internalType": "uint256",
					"name": "",
					"type": "uint256"
				}
			],
			"stateMutability": "view",
			"type": "function"
		},
		{
			"inputs": [],
			"name": "NFT_PRICE",
			"outputs": [
				{
					"internalType": "uint256",
					"name": "",
					"type": "uint256"
				}
			],
			"stateMutability": "view",
			"type": "function"
		},
		{
			"inputs": [
				{
					"internalType": "uint256",
					"name": "",
					"type": "uint256"
				}
			],
			"name": "_mint",
			"outputs": [
				{
					"internalType": "contract contractMint",
					"name": "",
					"type": "address"
				}
			],
			"stateMutability": "view",
			"type": "function"
		},
		{
			"inputs": [],
			"name": "batchMintStart",
			"outputs": [],
			"stateMutability": "nonpayable",
			"type": "function"
		},
		{
			"inputs": [
				{
					"internalType": "address",
					"name": "recipient",
					"type": "address"
				}
			],
			"name": "batchWithdraw",
			"outputs": [],
			"stateMutability": "nonpayable",
			"type": "function"
		},
		{
			"inputs": [
				{
					"internalType": "address",
					"name": "_t",
					"type": "address"
				},
				{
					"internalType": "uint256",
					"name": "_num",
					"type": "uint256"
				}
			],
			"name": "createBatchMint",
			"outputs": [],
			"stateMutability": "payable",
			"type": "function"
		},
		{
			"inputs": [
				{
					"internalType": "address",
					"name": "_t",
					"type": "address"
				}
			],
			"name": "createMint",
			"outputs": [],
			"stateMutability": "nonpayable",
			"type": "function"
		},
		{
			"inputs": [],
			"name": "owner",
			"outputs": [
				{
					"internalType": "address",
					"name": "",
					"type": "address"
				}
			],
			"stateMutability": "view",
			"type": "function"
		},
		{
			"inputs": [],
			"name": "renounceOwnership",
			"outputs": [],
			"stateMutability": "nonpayable",
			"type": "function"
		},
		{
			"inputs": [
				{
					"internalType": "address",
					"name": "newOwner",
					"type": "address"
				}
			],
			"name": "transferOwnership",
			"outputs": [],
			"stateMutability": "nonpayable",
			"type": "function"
		}
	]
}