{
	"data": {
		"bytecode": {
			"linkReferences": {},
			"object": "608060405234801561001057600080fd5b50610299806100206000396000f3fe6080604052600436106100295760003560e01c8063b8ef0d221461002e578063d4349a8014610059575b600080fd5b34801561003a57600080fd5b50610043610063565b6040516100509190610124565b60405180910390f35b61006161006b565b005b60003a905090565b60005a905060006003905060006002905060006002905060005b600a8110156100b2576000818261009c919061016e565b90505080806100aa906101b0565b915050610085565b5060005a9050600081866100c691906101f8565b90507f711b7c1e12df85e5a2a150ae68d0c340b44c2052d3bb436d9917c8abc5c1d9bd8183886040516100fb9392919061022c565b60405180910390a1505050505050565b6000819050919050565b61011e8161010b565b82525050565b60006020820190506101396000830184610115565b92915050565b7f4e487b7100000000000000000000000000000000000000000000000000000000600052601160045260246000fd5b60006101798261010b565b91506101848361010b565b92508282026101928161010b565b915082820484148315176101a9576101a861013f565b5b5092915050565b60006101bb8261010b565b91507fffffffffffffffffffffffffffffffffffffffffffffffffffffffffffffffff82036101ed576101ec61013f565b5b600182019050919050565b60006102038261010b565b915061020e8361010b565b92508282039050818111156102265761022561013f565b5b92915050565b60006060820190506102416000830186610115565b61024e6020830185610115565b61025b6040830184610115565b94935050505056fea26469706673582212202f90cf92257a6ad1b18701a0f280ee1d523ed0075aa8b6a1b28ec02ad2b903b264736f6c63430008110033",
			"opcodes": "PUSH1 0x80 PUSH1 0x40 MSTORE CALLVALUE DUP1 ISZERO PUSH2 0x10 JUMPI PUSH1 0x0 DUP1 REVERT JUMPDEST POP PUSH2 0x299 DUP1 PUSH2 0x20 PUSH1 0x0 CODECOPY PUSH1 0x0 RETURN INVALID PUSH1 0x80 PUSH1 0x40 MSTORE PUSH1 0x4 CALLDATASIZE LT PUSH2 0x29 JUMPI PUSH1 0x0 CALLDATALOAD PUSH1 0xE0 SHR DUP1 PUSH4 0xB8EF0D22 EQ PUSH2 0x2E JUMPI DUP1 PUSH4 0xD4349A80 EQ PUSH2 0x59 JUMPI JUMPDEST PUSH1 0x0 DUP1 REVERT JUMPDEST CALLVALUE DUP1 ISZERO PUSH2 0x3A JUMPI PUSH1 0x0 DUP1 REVERT JUMPDEST POP PUSH2 0x43 PUSH2 0x63 JUMP JUMPDEST PUSH1 0x40 MLOAD PUSH2 0x50 SWAP2 SWAP1 PUSH2 0x124 JUMP JUMPDEST PUSH1 0x40 MLOAD DUP1 SWAP2 SUB SWAP1 RETURN JUMPDEST PUSH2 0x61 PUSH2 0x6B JUMP JUMPDEST STOP JUMPDEST PUSH1 0x0 GASPRICE SWAP1 POP SWAP1 JUMP JUMPDEST PUSH1 0x0 GAS SWAP1 POP PUSH1 0x0 PUSH1 0x3 SWAP1 POP PUSH1 0x0 PUSH1 0x2 SWAP1 POP PUSH1 0x0 PUSH1 0x2 SWAP1 POP PUSH1 0x0 JUMPDEST PUSH1 0xA DUP2 LT ISZERO PUSH2 0xB2 JUMPI PUSH1 0x0 DUP2 DUP3 PUSH2 0x9C SWAP2 SWAP1 PUSH2 0x16E JUMP JUMPDEST SWAP1 POP POP DUP1 DUP1 PUSH2 0xAA SWAP1 PUSH2 0x1B0 JUMP JUMPDEST SWAP2 POP POP PUSH2 0x85 JUMP JUMPDEST POP PUSH1 0x0 GAS SWAP1 POP PUSH1 0x0 DUP2 DUP7 PUSH2 0xC6 SWAP2 SWAP1 PUSH2 0x1F8 JUMP JUMPDEST SWAP1 POP PUSH32 0x711B7C1E12DF85E5A2A150AE68D0C340B44C2052D3BB436D9917C8ABC5C1D9BD DUP2 DUP4 DUP9 PUSH1 0x40 MLOAD PUSH2 0xFB SWAP4 SWAP3 SWAP2 SWAP1 PUSH2 0x22C JUMP JUMPDEST PUSH1 0x40 MLOAD DUP1 SWAP2 SUB SWAP1 LOG1 POP POP POP POP POP POP JUMP JUMPDEST PUSH1 0x0 DUP2 SWAP1 POP SWAP2 SWAP1 POP JUMP JUMPDEST PUSH2 0x11E DUP2 PUSH2 0x10B JUMP JUMPDEST DUP3 MSTORE POP POP JUMP JUMPDEST PUSH1 0x0 PUSH1 0x20 DUP3 ADD SWAP1 POP PUSH2 0x139 PUSH1 0x0 DUP4 ADD DUP5 PUSH2 0x115 JUMP JUMPDEST SWAP3 SWAP2 POP POP JUMP JUMPDEST PUSH32 0x4E487B7100000000000000000000000000000000000000000000000000000000 PUSH1 0x0 MSTORE PUSH1 0x11 PUSH1 0x4 MSTORE PUSH1 0x24 PUSH1 0x0 REVERT JUMPDEST PUSH1 0x0 PUSH2 0x179 DUP3 PUSH2 0x10B JUMP JUMPDEST SWAP2 POP PUSH2 0x184 DUP4 PUSH2 0x10B JUMP JUMPDEST SWAP3 POP DUP3 DUP3 MUL PUSH2 0x192 DUP2 PUSH2 0x10B JUMP JUMPDEST SWAP2 POP DUP3 DUP3 DIV DUP5 EQ DUP4 ISZERO OR PUSH2 0x1A9 JUMPI PUSH2 0x1A8 PUSH2 0x13F JUMP JUMPDEST JUMPDEST POP SWAP3 SWAP2 POP POP JUMP JUMPDEST PUSH1 0x0 PUSH2 0x1BB DUP3 PUSH2 0x10B JUMP JUMPDEST SWAP2 POP PUSH32 0xFFFFFFFFFFFFFFFFFFFFFFFFFFFFFFFFFFFFFFFFFFFFFFFFFFFFFFFFFFFFFFFF DUP3 SUB PUSH2 0x1ED JUMPI PUSH2 0x1EC PUSH2 0x13F JUMP JUMPDEST JUMPDEST PUSH1 0x1 DUP3 ADD SWAP1 POP SWAP2 SWAP1 POP JUMP JUMPDEST PUSH1 0x0 PUSH2 0x203 DUP3 PUSH2 0x10B JUMP JUMPDEST SWAP2 POP PUSH2 0x20E DUP4 PUSH2 0x10B JUMP JUMPDEST SWAP3 POP DUP3 DUP3 SUB SWAP1 POP DUP2 DUP2 GT ISZERO PUSH2 0x226 JUMPI PUSH2 0x225 PUSH2 0x13F JUMP JUMPDEST JUMPDEST SWAP3 SWAP2 POP POP JUMP JUMPDEST PUSH1 0x0 PUSH1 0x60 DUP3 ADD SWAP1 POP PUSH2 0x241 PUSH1 0x0 DUP4 ADD DUP7 PUSH2 0x115 JUMP JUMPDEST PUSH2 0x24E PUSH1 0x20 DUP4 ADD DUP6 PUSH2 0x115 JUMP JUMPDEST PUSH2 0x25B PUSH1 0x40 DUP4 ADD DUP5 PUSH2 0x115 JUMP JUMPDEST SWAP5 SWAP4 POP POP POP POP JUMP INVALID LOG2 PUSH5 0x6970667358 0x22 SLT KECCAK256 0x2F SWAP1 0xCF SWAP3 0x25 PUSH27 0x6AD1B18701A0F280EE1D523ED0075AA8B6A1B28EC02AD2B903B264 PUSH20 0x6F6C634300081100330000000000000000000000 "
		},
		"gasEstimates": {
			"creation": {
				"codeDepositCost": "133000",
				"executionCost": "177",
				"totalCost": "133177"
			},
			"external": {
				"getGasRefund()": "314",
				"useGas()": "infinite"
			}
		},
		"methodIdentifiers": {
			"getGasRefund()": "b8ef0d22",
			"useGas()": "d4349a80"
		}
	},
	"abi": [
		{
			"anonymous": false,
			"inputs": [
				{
					"indexed": false,
					"internalType": "uint256",
					"name": "gasUsed",
					"type": "uint256"
				},
				{
					"indexed": false,
					"internalType": "uint256",
					"name": "gasAfter",
					"type": "uint256"
				},
				{
					"indexed": false,
					"internalType": "uint256",
					"name": "gasBefore",
					"type": "uint256"
				}
			],
			"name": "GasLog",
			"type": "event"
		},
		{
			"inputs": [],
			"name": "getGasRefund",
			"outputs": [
				{
					"internalType": "uint256",
					"name": "",
					"type": "uint256"
				}
			],
			"stateMutability": "nonpayable",
			"type": "function"
		},
		{
			"inputs": [],
			"name": "useGas",
			"outputs": [],
			"stateMutability": "payable",
			"type": "function"
		}
	]
}