{
	"data": {
		"bytecode": {
			"linkReferences": {},
			"object": "608060405234801561001057600080fd5b50610260806100206000396000f3fe608060405234801561001057600080fd5b506004361061002b5760003560e01c8063b3de648b14610030575b600080fd5b61004a60048036038101906100459190610170565b61004c565b005b6000600767ffffffffffffffff8111156100695761006861019d565b5b6040519080825280602002602001820160405280156100975781602001602082028036833780820191505090505b50905060008267ffffffffffffffff8111156100b6576100b561019d565b5b6040519080825280601f01601f1916602001820160405280156100e85781602001600182028036833780820191505090505b50905060078251146100fd576100fc6101cc565b5b8281511461010e5761010d6101cc565b5b600882600681518110610124576101236101fb565b5b602002602001018181525050505050565b600080fd5b6000819050919050565b61014d8161013a565b811461015857600080fd5b50565b60008135905061016a81610144565b92915050565b60006020828403121561018657610185610135565b5b60006101948482850161015b565b91505092915050565b7f4e487b7100000000000000000000000000000000000000000000000000000000600052604160045260246000fd5b7f4e487b7100000000000000000000000000000000000000000000000000000000600052600160045260246000fd5b7f4e487b7100000000000000000000000000000000000000000000000000000000600052603260045260246000fdfea264697066735822122080738b4d78e3e834f48dc3022855032c67d782a20a4c38594593970022f60f3d64736f6c63430008110033",
			"opcodes": "PUSH1 0x80 PUSH1 0x40 MSTORE CALLVALUE DUP1 ISZERO PUSH2 0x10 JUMPI PUSH1 0x0 DUP1 REVERT JUMPDEST POP PUSH2 0x260 DUP1 PUSH2 0x20 PUSH1 0x0 CODECOPY PUSH1 0x0 RETURN INVALID PUSH1 0x80 PUSH1 0x40 MSTORE CALLVALUE DUP1 ISZERO PUSH2 0x10 JUMPI PUSH1 0x0 DUP1 REVERT JUMPDEST POP PUSH1 0x4 CALLDATASIZE LT PUSH2 0x2B JUMPI PUSH1 0x0 CALLDATALOAD PUSH1 0xE0 SHR DUP1 PUSH4 0xB3DE648B EQ PUSH2 0x30 JUMPI JUMPDEST PUSH1 0x0 DUP1 REVERT JUMPDEST PUSH2 0x4A PUSH1 0x4 DUP1 CALLDATASIZE SUB DUP2 ADD SWAP1 PUSH2 0x45 SWAP2 SWAP1 PUSH2 0x170 JUMP JUMPDEST PUSH2 0x4C JUMP JUMPDEST STOP JUMPDEST PUSH1 0x0 PUSH1 0x7 PUSH8 0xFFFFFFFFFFFFFFFF DUP2 GT ISZERO PUSH2 0x69 JUMPI PUSH2 0x68 PUSH2 0x19D JUMP JUMPDEST JUMPDEST PUSH1 0x40 MLOAD SWAP1 DUP1 DUP3 MSTORE DUP1 PUSH1 0x20 MUL PUSH1 0x20 ADD DUP3 ADD PUSH1 0x40 MSTORE DUP1 ISZERO PUSH2 0x97 JUMPI DUP2 PUSH1 0x20 ADD PUSH1 0x20 DUP3 MUL DUP1 CALLDATASIZE DUP4 CALLDATACOPY DUP1 DUP3 ADD SWAP2 POP POP SWAP1 POP JUMPDEST POP SWAP1 POP PUSH1 0x0 DUP3 PUSH8 0xFFFFFFFFFFFFFFFF DUP2 GT ISZERO PUSH2 0xB6 JUMPI PUSH2 0xB5 PUSH2 0x19D JUMP JUMPDEST JUMPDEST PUSH1 0x40 MLOAD SWAP1 DUP1 DUP3 MSTORE DUP1 PUSH1 0x1F ADD PUSH1 0x1F NOT AND PUSH1 0x20 ADD DUP3 ADD PUSH1 0x40 MSTORE DUP1 ISZERO PUSH2 0xE8 JUMPI DUP2 PUSH1 0x20 ADD PUSH1 0x1 DUP3 MUL DUP1 CALLDATASIZE DUP4 CALLDATACOPY DUP1 DUP3 ADD SWAP2 POP POP SWAP1 POP JUMPDEST POP SWAP1 POP PUSH1 0x7 DUP3 MLOAD EQ PUSH2 0xFD JUMPI PUSH2 0xFC PUSH2 0x1CC JUMP JUMPDEST JUMPDEST DUP3 DUP2 MLOAD EQ PUSH2 0x10E JUMPI PUSH2 0x10D PUSH2 0x1CC JUMP JUMPDEST JUMPDEST PUSH1 0x8 DUP3 PUSH1 0x6 DUP2 MLOAD DUP2 LT PUSH2 0x124 JUMPI PUSH2 0x123 PUSH2 0x1FB JUMP JUMPDEST JUMPDEST PUSH1 0x20 MUL PUSH1 0x20 ADD ADD DUP2 DUP2 MSTORE POP POP POP POP POP JUMP JUMPDEST PUSH1 0x0 DUP1 REVERT JUMPDEST PUSH1 0x0 DUP2 SWAP1 POP SWAP2 SWAP1 POP JUMP JUMPDEST PUSH2 0x14D DUP2 PUSH2 0x13A JUMP JUMPDEST DUP2 EQ PUSH2 0x158 JUMPI PUSH1 0x0 DUP1 REVERT JUMPDEST POP JUMP JUMPDEST PUSH1 0x0 DUP2 CALLDATALOAD SWAP1 POP PUSH2 0x16A DUP2 PUSH2 0x144 JUMP JUMPDEST SWAP3 SWAP2 POP POP JUMP JUMPDEST PUSH1 0x0 PUSH1 0x20 DUP3 DUP5 SUB SLT ISZERO PUSH2 0x186 JUMPI PUSH2 0x185 PUSH2 0x135 JUMP JUMPDEST JUMPDEST PUSH1 0x0 PUSH2 0x194 DUP5 DUP3 DUP6 ADD PUSH2 0x15B JUMP JUMPDEST SWAP2 POP POP SWAP3 SWAP2 POP POP JUMP JUMPDEST PUSH32 0x4E487B7100000000000000000000000000000000000000000000000000000000 PUSH1 0x0 MSTORE PUSH1 0x41 PUSH1 0x4 MSTORE PUSH1 0x24 PUSH1 0x0 REVERT JUMPDEST PUSH32 0x4E487B7100000000000000000000000000000000000000000000000000000000 PUSH1 0x0 MSTORE PUSH1 0x1 PUSH1 0x4 MSTORE PUSH1 0x24 PUSH1 0x0 REVERT JUMPDEST PUSH32 0x4E487B7100000000000000000000000000000000000000000000000000000000 PUSH1 0x0 MSTORE PUSH1 0x32 PUSH1 0x4 MSTORE PUSH1 0x24 PUSH1 0x0 REVERT INVALID LOG2 PUSH5 0x6970667358 0x22 SLT KECCAK256 DUP1 PUSH20 0x8B4D78E3E834F48DC3022855032C67D782A20A4C CODESIZE MSIZE GASLIMIT SWAP4 SWAP8 STOP 0x22 0xF6 0xF RETURNDATASIZE PUSH5 0x736F6C6343 STOP ADDMOD GT STOP CALLER "
		},
		"gasEstimates": {
			"creation": {
				"codeDepositCost": "121600",
				"executionCost": "165",
				"totalCost": "121765"
			},
			"external": {
				"f(uint256)": "infinite"
			}
		},
		"methodIdentifiers": {
			"f(uint256)": "b3de648b"
		}
	},
	"abi": [
		{
			"inputs": [
				{
					"internalType": "uint256",
					"name": "len",
					"type": "uint256"
				}
			],
			"name": "f",
			"outputs": [],
			"stateMutability": "pure",
			"type": "function"
		}
	]
}