{
	"data": {
		"bytecode": {
			"linkReferences": {},
			"object": "608060405234801561001057600080fd5b50610192806100206000396000f3fe60806040526004361061001e5760003560e01c8063ce2f67a214610023575b600080fd5b61002b61002d565b005b600073123456789012345678901234567890123456789090508073ffffffffffffffffffffffffffffffffffffffff166108fc349081150290604051600060405180830381858888f1935050505015801561008c573d6000803e3d6000fd5b507fad61aba42dd41d62375473cd83e20fcf53389c724843cd8aefd47821ac2a17773433456040516100c093929190610125565b60405180910390a150565b6000819050919050565b6100de816100cb565b82525050565b600073ffffffffffffffffffffffffffffffffffffffff82169050919050565b600061010f826100e4565b9050919050565b61011f81610104565b82525050565b600060608201905061013a60008301866100d5565b6101476020830185610116565b61015460408301846100d5565b94935050505056fea2646970667358221220ec61b613f7f8f35741ee393aa4603774bc345e493d3aba40d3d9c07f2048c43564736f6c63430008110033",
			"opcodes": "PUSH1 0x80 PUSH1 0x40 MSTORE CALLVALUE DUP1 ISZERO PUSH2 0x10 JUMPI PUSH1 0x0 DUP1 REVERT JUMPDEST POP PUSH2 0x192 DUP1 PUSH2 0x20 PUSH1 0x0 CODECOPY PUSH1 0x0 RETURN INVALID PUSH1 0x80 PUSH1 0x40 MSTORE PUSH1 0x4 CALLDATASIZE LT PUSH2 0x1E JUMPI PUSH1 0x0 CALLDATALOAD PUSH1 0xE0 SHR DUP1 PUSH4 0xCE2F67A2 EQ PUSH2 0x23 JUMPI JUMPDEST PUSH1 0x0 DUP1 REVERT JUMPDEST PUSH2 0x2B PUSH2 0x2D JUMP JUMPDEST STOP JUMPDEST PUSH1 0x0 PUSH20 0x1234567890123456789012345678901234567890 SWAP1 POP DUP1 PUSH20 0xFFFFFFFFFFFFFFFFFFFFFFFFFFFFFFFFFFFFFFFF AND PUSH2 0x8FC CALLVALUE SWAP1 DUP2 ISZERO MUL SWAP1 PUSH1 0x40 MLOAD PUSH1 0x0 PUSH1 0x40 MLOAD DUP1 DUP4 SUB DUP2 DUP6 DUP9 DUP9 CALL SWAP4 POP POP POP POP ISZERO DUP1 ISZERO PUSH2 0x8C JUMPI RETURNDATASIZE PUSH1 0x0 DUP1 RETURNDATACOPY RETURNDATASIZE PUSH1 0x0 REVERT JUMPDEST POP PUSH32 0xAD61ABA42DD41D62375473CD83E20FCF53389C724843CD8AEFD47821AC2A1777 CALLVALUE CALLER GASLIMIT PUSH1 0x40 MLOAD PUSH2 0xC0 SWAP4 SWAP3 SWAP2 SWAP1 PUSH2 0x125 JUMP JUMPDEST PUSH1 0x40 MLOAD DUP1 SWAP2 SUB SWAP1 LOG1 POP JUMP JUMPDEST PUSH1 0x0 DUP2 SWAP1 POP SWAP2 SWAP1 POP JUMP JUMPDEST PUSH2 0xDE DUP2 PUSH2 0xCB JUMP JUMPDEST DUP3 MSTORE POP POP JUMP JUMPDEST PUSH1 0x0 PUSH20 0xFFFFFFFFFFFFFFFFFFFFFFFFFFFFFFFFFFFFFFFF DUP3 AND SWAP1 POP SWAP2 SWAP1 POP JUMP JUMPDEST PUSH1 0x0 PUSH2 0x10F DUP3 PUSH2 0xE4 JUMP JUMPDEST SWAP1 POP SWAP2 SWAP1 POP JUMP JUMPDEST PUSH2 0x11F DUP2 PUSH2 0x104 JUMP JUMPDEST DUP3 MSTORE POP POP JUMP JUMPDEST PUSH1 0x0 PUSH1 0x60 DUP3 ADD SWAP1 POP PUSH2 0x13A PUSH1 0x0 DUP4 ADD DUP7 PUSH2 0xD5 JUMP JUMPDEST PUSH2 0x147 PUSH1 0x20 DUP4 ADD DUP6 PUSH2 0x116 JUMP JUMPDEST PUSH2 0x154 PUSH1 0x40 DUP4 ADD DUP5 PUSH2 0xD5 JUMP JUMPDEST SWAP5 SWAP4 POP POP POP POP JUMP INVALID LOG2 PUSH5 0x6970667358 0x22 SLT KECCAK256 0xEC PUSH2 0xB613 0xF7 0xF8 RETURN JUMPI COINBASE 0xEE CODECOPY GASPRICE LOG4 PUSH1 0x37 PUSH21 0xBC345E493D3ABA40D3D9C07F2048C43564736F6C63 NUMBER STOP ADDMOD GT STOP CALLER "
		},
		"gasEstimates": {
			"creation": {
				"codeDepositCost": "80400",
				"executionCost": "129",
				"totalCost": "80529"
			},
			"external": {
				"exampleFunction()": "infinite"
			}
		},
		"methodIdentifiers": {
			"exampleFunction()": "ce2f67a2"
		}
	},
	"abi": [
		{
			"anonymous": false,
			"inputs": [
				{
					"indexed": false,
					"internalType": "uint256",
					"name": "value",
					"type": "uint256"
				},
				{
					"indexed": false,
					"internalType": "address",
					"name": "sender",
					"type": "address"
				},
				{
					"indexed": false,
					"internalType": "uint256",
					"name": "gaslimit",
					"type": "uint256"
				}
			],
			"name": "MsgLog",
			"type": "event"
		},
		{
			"inputs": [],
			"name": "exampleFunction",
			"outputs": [],
			"stateMutability": "payable",
			"type": "function"
		}
	]
}