{
	"data": {
		"bytecode": {
			"linkReferences": {},
			"object": "60806040526040518060600160405280606461ffff16815260200160c861ffff16815260200161012c61ffff16815250600090600361003f929190610052565b5034801561004c57600080fd5b506100c2565b828054828255906000526020600020908101928215610094579160200282015b82811115610093578251829061ffff16905591602001919060010190610072565b5b5090506100a191906100a5565b5090565b5b808211156100be5760008160009055506001016100a6565b5090565b6108ef806100d16000396000f3fe608060405234801561001057600080fd5b50600436106100415760003560e01c806371e5ee5f146100465780638b44cef114610076578063c28b378514610092575b600080fd5b610060600480360381019061005b919061037b565b6100ae565b60405161006d91906103b7565b60405180910390f35b610090600480360381019061008b919061052b565b6100d2565b005b6100ac60048036038101906100a791906105cf565b61021e565b005b600081815481106100be57600080fd5b906000526020600020016000915090505481565b80600090805190602001906100e89291906102c7565b506064600080815481106100ff576100fe61061c565b5b9060005260206000200181905550600081905060c8816000815181106101285761012761061c565b5b6020026020010181815250506000600267ffffffffffffffff811115610151576101506103e8565b5b60405190808252806020026020018201604052801561017f5781602001602082028036833780820191505090505b50905061012c816000815181106101995761019861061c565b5b602002602001018181525050610190816001815181106101bc576101bb61061c565b5b60200260200101818152505080600090805190602001906101de9291906102c7565b507f3f410a645e7c74e4e00a8d7071daaecf33734459aba2d209fbde6321af05ea2c8360006040516102119291906107df565b60405180910390a1505050565b6000828280806020026020016040519081016040528093929190818152602001838360200280828437600081840152601f19601f8201169050808301925050505050505090506101f48160008151811061027b5761027a61061c565b5b6020026020010181815250507f9206617915d3879691e93c8ac686ff72adf59dac1c7710eee4433178920799878383836040516102ba93929190610880565b60405180910390a1505050565b828054828255906000526020600020908101928215610303579160200282015b828111156103025782518255916020019190600101906102e7565b5b5090506103109190610314565b5090565b5b8082111561032d576000816000905550600101610315565b5090565b6000604051905090565b600080fd5b600080fd5b6000819050919050565b61035881610345565b811461036357600080fd5b50565b6000813590506103758161034f565b92915050565b6000602082840312156103915761039061033b565b5b600061039f84828501610366565b91505092915050565b6103b181610345565b82525050565b60006020820190506103cc60008301846103a8565b92915050565b600080fd5b6000601f19601f8301169050919050565b7f4e487b7100000000000000000000000000000000000000000000000000000000600052604160045260246000fd5b610420826103d7565b810181811067ffffffffffffffff8211171561043f5761043e6103e8565b5b80604052505050565b6000610452610331565b905061045e8282610417565b919050565b600067ffffffffffffffff82111561047e5761047d6103e8565b5b602082029050602081019050919050565b600080fd5b60006104a76104a284610463565b610448565b905080838252602082019050602084028301858111156104ca576104c961048f565b5b835b818110156104f357806104df8882610366565b8452602084019350506020810190506104cc565b5050509392505050565b600082601f830112610512576105116103d2565b5b8135610522848260208601610494565b91505092915050565b6000602082840312156105415761054061033b565b5b600082013567ffffffffffffffff81111561055f5761055e610340565b5b61056b848285016104fd565b91505092915050565b600080fd5b60008083601f84011261058f5761058e6103d2565b5b8235905067ffffffffffffffff8111156105ac576105ab610574565b5b6020830191508360208202830111156105c8576105c761048f565b5b9250929050565b600080602083850312156105e6576105e561033b565b5b600083013567ffffffffffffffff81111561060457610603610340565b5b61061085828601610579565b92509250509250929050565b7f4e487b7100000000000000000000000000000000000000000000000000000000600052603260045260246000fd5b600081519050919050565b600082825260208201905092915050565b6000819050602082019050919050565b61068081610345565b82525050565b60006106928383610677565b60208301905092915050565b6000602082019050919050565b60006106b68261064b565b6106c08185610656565b93506106cb83610667565b8060005b838110156106fc5781516106e38882610686565b97506106ee8361069e565b9250506001810190506106cf565b5085935050505092915050565b600081549050919050565b60008190508160005260206000209050919050565b60008160001c9050919050565b6000819050919050565b600061075361074e83610729565b610736565b9050919050565b60006107668254610740565b9050919050565b6000600182019050919050565b600061078582610709565b61078f8185610656565b935061079a83610714565b8060005b838110156107d2576107af8261075a565b6107b98882610686565b97506107c48361076d565b92505060018101905061079e565b5085935050505092915050565b600060408201905081810360008301526107f981856106ab565b9050818103602083015261080d818461077a565b90509392505050565b600080fd5b82818337505050565b60006108308385610656565b93507f07ffffffffffffffffffffffffffffffffffffffffffffffffffffffffffffff83111561086357610862610816565b5b60208302925061087483858461081b565b82840190509392505050565b6000604082019050818103600083015261089b818587610824565b905081810360208301526108af81846106ab565b905094935050505056fea26469706673582212209d6a89edc45ce2515150e04f82b59ad083e7324a0a342808d4aade43179ed7a064736f6c63430008110033",
			"opcodes": "PUSH1 0x80 PUSH1 0x40 MSTORE PUSH1 0x40 MLOAD DUP1 PUSH1 0x60 ADD PUSH1 0x40 MSTORE DUP1 PUSH1 0x64 PUSH2 0xFFFF AND DUP2 MSTORE PUSH1 0x20 ADD PUSH1 0xC8 PUSH2 0xFFFF AND DUP2 MSTORE PUSH1 0x20 ADD PUSH2 0x12C PUSH2 0xFFFF AND DUP2 MSTORE POP PUSH1 0x0 SWAP1 PUSH1 0x3 PUSH2 0x3F SWAP3 SWAP2 SWAP1 PUSH2 0x52 JUMP JUMPDEST POP CALLVALUE DUP1 ISZERO PUSH2 0x4C JUMPI PUSH1 0x0 DUP1 REVERT JUMPDEST POP PUSH2 0xC2 JUMP JUMPDEST DUP3 DUP1 SLOAD DUP3 DUP3 SSTORE SWAP1 PUSH1 0x0 MSTORE PUSH1 0x20 PUSH1 0x0 KECCAK256 SWAP1 DUP2 ADD SWAP3 DUP3 ISZERO PUSH2 0x94 JUMPI SWAP2 PUSH1 0x20 MUL DUP3 ADD JUMPDEST DUP3 DUP2 GT ISZERO PUSH2 0x93 JUMPI DUP3 MLOAD DUP3 SWAP1 PUSH2 0xFFFF AND SWAP1 SSTORE SWAP2 PUSH1 0x20 ADD SWAP2 SWAP1 PUSH1 0x1 ADD SWAP1 PUSH2 0x72 JUMP JUMPDEST JUMPDEST POP SWAP1 POP PUSH2 0xA1 SWAP2 SWAP1 PUSH2 0xA5 JUMP JUMPDEST POP SWAP1 JUMP JUMPDEST JUMPDEST DUP1 DUP3 GT ISZERO PUSH2 0xBE JUMPI PUSH1 0x0 DUP2 PUSH1 0x0 SWAP1 SSTORE POP PUSH1 0x1 ADD PUSH2 0xA6 JUMP JUMPDEST POP SWAP1 JUMP JUMPDEST PUSH2 0x8EF DUP1 PUSH2 0xD1 PUSH1 0x0 CODECOPY PUSH1 0x0 RETURN INVALID PUSH1 0x80 PUSH1 0x40 MSTORE CALLVALUE DUP1 ISZERO PUSH2 0x10 JUMPI PUSH1 0x0 DUP1 REVERT JUMPDEST POP PUSH1 0x4 CALLDATASIZE LT PUSH2 0x41 JUMPI PUSH1 0x0 CALLDATALOAD PUSH1 0xE0 SHR DUP1 PUSH4 0x71E5EE5F EQ PUSH2 0x46 JUMPI DUP1 PUSH4 0x8B44CEF1 EQ PUSH2 0x76 JUMPI DUP1 PUSH4 0xC28B3785 EQ PUSH2 0x92 JUMPI JUMPDEST PUSH1 0x0 DUP1 REVERT JUMPDEST PUSH2 0x60 PUSH1 0x4 DUP1 CALLDATASIZE SUB DUP2 ADD SWAP1 PUSH2 0x5B SWAP2 SWAP1 PUSH2 0x37B JUMP JUMPDEST PUSH2 0xAE JUMP JUMPDEST PUSH1 0x40 MLOAD PUSH2 0x6D SWAP2 SWAP1 PUSH2 0x3B7 JUMP JUMPDEST PUSH1 0x40 MLOAD DUP1 SWAP2 SUB SWAP1 RETURN JUMPDEST PUSH2 0x90 PUSH1 0x4 DUP1 CALLDATASIZE SUB DUP2 ADD SWAP1 PUSH2 0x8B SWAP2 SWAP1 PUSH2 0x52B JUMP JUMPDEST PUSH2 0xD2 JUMP JUMPDEST STOP JUMPDEST PUSH2 0xAC PUSH1 0x4 DUP1 CALLDATASIZE SUB DUP2 ADD SWAP1 PUSH2 0xA7 SWAP2 SWAP1 PUSH2 0x5CF JUMP JUMPDEST PUSH2 0x21E JUMP JUMPDEST STOP JUMPDEST PUSH1 0x0 DUP2 DUP2 SLOAD DUP2 LT PUSH2 0xBE JUMPI PUSH1 0x0 DUP1 REVERT JUMPDEST SWAP1 PUSH1 0x0 MSTORE PUSH1 0x20 PUSH1 0x0 KECCAK256 ADD PUSH1 0x0 SWAP2 POP SWAP1 POP SLOAD DUP2 JUMP JUMPDEST DUP1 PUSH1 0x0 SWAP1 DUP1 MLOAD SWAP1 PUSH1 0x20 ADD SWAP1 PUSH2 0xE8 SWAP3 SWAP2 SWAP1 PUSH2 0x2C7 JUMP JUMPDEST POP PUSH1 0x64 PUSH1 0x0 DUP1 DUP2 SLOAD DUP2 LT PUSH2 0xFF JUMPI PUSH2 0xFE PUSH2 0x61C JUMP JUMPDEST JUMPDEST SWAP1 PUSH1 0x0 MSTORE PUSH1 0x20 PUSH1 0x0 KECCAK256 ADD DUP2 SWAP1 SSTORE POP PUSH1 0x0 DUP2 SWAP1 POP PUSH1 0xC8 DUP2 PUSH1 0x0 DUP2 MLOAD DUP2 LT PUSH2 0x128 JUMPI PUSH2 0x127 PUSH2 0x61C JUMP JUMPDEST JUMPDEST PUSH1 0x20 MUL PUSH1 0x20 ADD ADD DUP2 DUP2 MSTORE POP POP PUSH1 0x0 PUSH1 0x2 PUSH8 0xFFFFFFFFFFFFFFFF DUP2 GT ISZERO PUSH2 0x151 JUMPI PUSH2 0x150 PUSH2 0x3E8 JUMP JUMPDEST JUMPDEST PUSH1 0x40 MLOAD SWAP1 DUP1 DUP3 MSTORE DUP1 PUSH1 0x20 MUL PUSH1 0x20 ADD DUP3 ADD PUSH1 0x40 MSTORE DUP1 ISZERO PUSH2 0x17F JUMPI DUP2 PUSH1 0x20 ADD PUSH1 0x20 DUP3 MUL DUP1 CALLDATASIZE DUP4 CALLDATACOPY DUP1 DUP3 ADD SWAP2 POP POP SWAP1 POP JUMPDEST POP SWAP1 POP PUSH2 0x12C DUP2 PUSH1 0x0 DUP2 MLOAD DUP2 LT PUSH2 0x199 JUMPI PUSH2 0x198 PUSH2 0x61C JUMP JUMPDEST JUMPDEST PUSH1 0x20 MUL PUSH1 0x20 ADD ADD DUP2 DUP2 MSTORE POP POP PUSH2 0x190 DUP2 PUSH1 0x1 DUP2 MLOAD DUP2 LT PUSH2 0x1BC JUMPI PUSH2 0x1BB PUSH2 0x61C JUMP JUMPDEST JUMPDEST PUSH1 0x20 MUL PUSH1 0x20 ADD ADD DUP2 DUP2 MSTORE POP POP DUP1 PUSH1 0x0 SWAP1 DUP1 MLOAD SWAP1 PUSH1 0x20 ADD SWAP1 PUSH2 0x1DE SWAP3 SWAP2 SWAP1 PUSH2 0x2C7 JUMP JUMPDEST POP PUSH32 0x3F410A645E7C74E4E00A8D7071DAAECF33734459ABA2D209FBDE6321AF05EA2C DUP4 PUSH1 0x0 PUSH1 0x40 MLOAD PUSH2 0x211 SWAP3 SWAP2 SWAP1 PUSH2 0x7DF JUMP JUMPDEST PUSH1 0x40 MLOAD DUP1 SWAP2 SUB SWAP1 LOG1 POP POP POP JUMP JUMPDEST PUSH1 0x0 DUP3 DUP3 DUP1 DUP1 PUSH1 0x20 MUL PUSH1 0x20 ADD PUSH1 0x40 MLOAD SWAP1 DUP2 ADD PUSH1 0x40 MSTORE DUP1 SWAP4 SWAP3 SWAP2 SWAP1 DUP2 DUP2 MSTORE PUSH1 0x20 ADD DUP4 DUP4 PUSH1 0x20 MUL DUP1 DUP3 DUP5 CALLDATACOPY PUSH1 0x0 DUP2 DUP5 ADD MSTORE PUSH1 0x1F NOT PUSH1 0x1F DUP3 ADD AND SWAP1 POP DUP1 DUP4 ADD SWAP3 POP POP POP POP POP POP POP SWAP1 POP PUSH2 0x1F4 DUP2 PUSH1 0x0 DUP2 MLOAD DUP2 LT PUSH2 0x27B JUMPI PUSH2 0x27A PUSH2 0x61C JUMP JUMPDEST JUMPDEST PUSH1 0x20 MUL PUSH1 0x20 ADD ADD DUP2 DUP2 MSTORE POP POP PUSH32 0x9206617915D3879691E93C8AC686FF72ADF59DAC1C7710EEE443317892079987 DUP4 DUP4 DUP4 PUSH1 0x40 MLOAD PUSH2 0x2BA SWAP4 SWAP3 SWAP2 SWAP1 PUSH2 0x880 JUMP JUMPDEST PUSH1 0x40 MLOAD DUP1 SWAP2 SUB SWAP1 LOG1 POP POP POP JUMP JUMPDEST DUP3 DUP1 SLOAD DUP3 DUP3 SSTORE SWAP1 PUSH1 0x0 MSTORE PUSH1 0x20 PUSH1 0x0 KECCAK256 SWAP1 DUP2 ADD SWAP3 DUP3 ISZERO PUSH2 0x303 JUMPI SWAP2 PUSH1 0x20 MUL DUP3 ADD JUMPDEST DUP3 DUP2 GT ISZERO PUSH2 0x302 JUMPI DUP3 MLOAD DUP3 SSTORE SWAP2 PUSH1 0x20 ADD SWAP2 SWAP1 PUSH1 0x1 ADD SWAP1 PUSH2 0x2E7 JUMP JUMPDEST JUMPDEST POP SWAP1 POP PUSH2 0x310 SWAP2 SWAP1 PUSH2 0x314 JUMP JUMPDEST POP SWAP1 JUMP JUMPDEST JUMPDEST DUP1 DUP3 GT ISZERO PUSH2 0x32D JUMPI PUSH1 0x0 DUP2 PUSH1 0x0 SWAP1 SSTORE POP PUSH1 0x1 ADD PUSH2 0x315 JUMP JUMPDEST POP SWAP1 JUMP JUMPDEST PUSH1 0x0 PUSH1 0x40 MLOAD SWAP1 POP SWAP1 JUMP JUMPDEST PUSH1 0x0 DUP1 REVERT JUMPDEST PUSH1 0x0 DUP1 REVERT JUMPDEST PUSH1 0x0 DUP2 SWAP1 POP SWAP2 SWAP1 POP JUMP JUMPDEST PUSH2 0x358 DUP2 PUSH2 0x345 JUMP JUMPDEST DUP2 EQ PUSH2 0x363 JUMPI PUSH1 0x0 DUP1 REVERT JUMPDEST POP JUMP JUMPDEST PUSH1 0x0 DUP2 CALLDATALOAD SWAP1 POP PUSH2 0x375 DUP2 PUSH2 0x34F JUMP JUMPDEST SWAP3 SWAP2 POP POP JUMP JUMPDEST PUSH1 0x0 PUSH1 0x20 DUP3 DUP5 SUB SLT ISZERO PUSH2 0x391 JUMPI PUSH2 0x390 PUSH2 0x33B JUMP JUMPDEST JUMPDEST PUSH1 0x0 PUSH2 0x39F DUP5 DUP3 DUP6 ADD PUSH2 0x366 JUMP JUMPDEST SWAP2 POP POP SWAP3 SWAP2 POP POP JUMP JUMPDEST PUSH2 0x3B1 DUP2 PUSH2 0x345 JUMP JUMPDEST DUP3 MSTORE POP POP JUMP JUMPDEST PUSH1 0x0 PUSH1 0x20 DUP3 ADD SWAP1 POP PUSH2 0x3CC PUSH1 0x0 DUP4 ADD DUP5 PUSH2 0x3A8 JUMP JUMPDEST SWAP3 SWAP2 POP POP JUMP JUMPDEST PUSH1 0x0 DUP1 REVERT JUMPDEST PUSH1 0x0 PUSH1 0x1F NOT PUSH1 0x1F DUP4 ADD AND SWAP1 POP SWAP2 SWAP1 POP JUMP JUMPDEST PUSH32 0x4E487B7100000000000000000000000000000000000000000000000000000000 PUSH1 0x0 MSTORE PUSH1 0x41 PUSH1 0x4 MSTORE PUSH1 0x24 PUSH1 0x0 REVERT JUMPDEST PUSH2 0x420 DUP3 PUSH2 0x3D7 JUMP JUMPDEST DUP2 ADD DUP2 DUP2 LT PUSH8 0xFFFFFFFFFFFFFFFF DUP3 GT OR ISZERO PUSH2 0x43F JUMPI PUSH2 0x43E PUSH2 0x3E8 JUMP JUMPDEST JUMPDEST DUP1 PUSH1 0x40 MSTORE POP POP POP JUMP JUMPDEST PUSH1 0x0 PUSH2 0x452 PUSH2 0x331 JUMP JUMPDEST SWAP1 POP PUSH2 0x45E DUP3 DUP3 PUSH2 0x417 JUMP JUMPDEST SWAP2 SWAP1 POP JUMP JUMPDEST PUSH1 0x0 PUSH8 0xFFFFFFFFFFFFFFFF DUP3 GT ISZERO PUSH2 0x47E JUMPI PUSH2 0x47D PUSH2 0x3E8 JUMP JUMPDEST JUMPDEST PUSH1 0x20 DUP3 MUL SWAP1 POP PUSH1 0x20 DUP2 ADD SWAP1 POP SWAP2 SWAP1 POP JUMP JUMPDEST PUSH1 0x0 DUP1 REVERT JUMPDEST PUSH1 0x0 PUSH2 0x4A7 PUSH2 0x4A2 DUP5 PUSH2 0x463 JUMP JUMPDEST PUSH2 0x448 JUMP JUMPDEST SWAP1 POP DUP1 DUP4 DUP3 MSTORE PUSH1 0x20 DUP3 ADD SWAP1 POP PUSH1 0x20 DUP5 MUL DUP4 ADD DUP6 DUP2 GT ISZERO PUSH2 0x4CA JUMPI PUSH2 0x4C9 PUSH2 0x48F JUMP JUMPDEST JUMPDEST DUP4 JUMPDEST DUP2 DUP2 LT ISZERO PUSH2 0x4F3 JUMPI DUP1 PUSH2 0x4DF DUP9 DUP3 PUSH2 0x366 JUMP JUMPDEST DUP5 MSTORE PUSH1 0x20 DUP5 ADD SWAP4 POP POP PUSH1 0x20 DUP2 ADD SWAP1 POP PUSH2 0x4CC JUMP JUMPDEST POP POP POP SWAP4 SWAP3 POP POP POP JUMP JUMPDEST PUSH1 0x0 DUP3 PUSH1 0x1F DUP4 ADD SLT PUSH2 0x512 JUMPI PUSH2 0x511 PUSH2 0x3D2 JUMP JUMPDEST JUMPDEST DUP2 CALLDATALOAD PUSH2 0x522 DUP5 DUP3 PUSH1 0x20 DUP7 ADD PUSH2 0x494 JUMP JUMPDEST SWAP2 POP POP SWAP3 SWAP2 POP POP JUMP JUMPDEST PUSH1 0x0 PUSH1 0x20 DUP3 DUP5 SUB SLT ISZERO PUSH2 0x541 JUMPI PUSH2 0x540 PUSH2 0x33B JUMP JUMPDEST JUMPDEST PUSH1 0x0 DUP3 ADD CALLDATALOAD PUSH8 0xFFFFFFFFFFFFFFFF DUP2 GT ISZERO PUSH2 0x55F JUMPI PUSH2 0x55E PUSH2 0x340 JUMP JUMPDEST JUMPDEST PUSH2 0x56B DUP5 DUP3 DUP6 ADD PUSH2 0x4FD JUMP JUMPDEST SWAP2 POP POP SWAP3 SWAP2 POP POP JUMP JUMPDEST PUSH1 0x0 DUP1 REVERT JUMPDEST PUSH1 0x0 DUP1 DUP4 PUSH1 0x1F DUP5 ADD SLT PUSH2 0x58F JUMPI PUSH2 0x58E PUSH2 0x3D2 JUMP JUMPDEST JUMPDEST DUP3 CALLDATALOAD SWAP1 POP PUSH8 0xFFFFFFFFFFFFFFFF DUP2 GT ISZERO PUSH2 0x5AC JUMPI PUSH2 0x5AB PUSH2 0x574 JUMP JUMPDEST JUMPDEST PUSH1 0x20 DUP4 ADD SWAP2 POP DUP4 PUSH1 0x20 DUP3 MUL DUP4 ADD GT ISZERO PUSH2 0x5C8 JUMPI PUSH2 0x5C7 PUSH2 0x48F JUMP JUMPDEST JUMPDEST SWAP3 POP SWAP3 SWAP1 POP JUMP JUMPDEST PUSH1 0x0 DUP1 PUSH1 0x20 DUP4 DUP6 SUB SLT ISZERO PUSH2 0x5E6 JUMPI PUSH2 0x5E5 PUSH2 0x33B JUMP JUMPDEST JUMPDEST PUSH1 0x0 DUP4 ADD CALLDATALOAD PUSH8 0xFFFFFFFFFFFFFFFF DUP2 GT ISZERO PUSH2 0x604 JUMPI PUSH2 0x603 PUSH2 0x340 JUMP JUMPDEST JUMPDEST PUSH2 0x610 DUP6 DUP3 DUP7 ADD PUSH2 0x579 JUMP JUMPDEST SWAP3 POP SWAP3 POP POP SWAP3 POP SWAP3 SWAP1 POP JUMP JUMPDEST PUSH32 0x4E487B7100000000000000000000000000000000000000000000000000000000 PUSH1 0x0 MSTORE PUSH1 0x32 PUSH1 0x4 MSTORE PUSH1 0x24 PUSH1 0x0 REVERT JUMPDEST PUSH1 0x0 DUP2 MLOAD SWAP1 POP SWAP2 SWAP1 POP JUMP JUMPDEST PUSH1 0x0 DUP3 DUP3 MSTORE PUSH1 0x20 DUP3 ADD SWAP1 POP SWAP3 SWAP2 POP POP JUMP JUMPDEST PUSH1 0x0 DUP2 SWAP1 POP PUSH1 0x20 DUP3 ADD SWAP1 POP SWAP2 SWAP1 POP JUMP JUMPDEST PUSH2 0x680 DUP2 PUSH2 0x345 JUMP JUMPDEST DUP3 MSTORE POP POP JUMP JUMPDEST PUSH1 0x0 PUSH2 0x692 DUP4 DUP4 PUSH2 0x677 JUMP JUMPDEST PUSH1 0x20 DUP4 ADD SWAP1 POP SWAP3 SWAP2 POP POP JUMP JUMPDEST PUSH1 0x0 PUSH1 0x20 DUP3 ADD SWAP1 POP SWAP2 SWAP1 POP JUMP JUMPDEST PUSH1 0x0 PUSH2 0x6B6 DUP3 PUSH2 0x64B JUMP JUMPDEST PUSH2 0x6C0 DUP2 DUP6 PUSH2 0x656 JUMP JUMPDEST SWAP4 POP PUSH2 0x6CB DUP4 PUSH2 0x667 JUMP JUMPDEST DUP1 PUSH1 0x0 JUMPDEST DUP4 DUP2 LT ISZERO PUSH2 0x6FC JUMPI DUP2 MLOAD PUSH2 0x6E3 DUP9 DUP3 PUSH2 0x686 JUMP JUMPDEST SWAP8 POP PUSH2 0x6EE DUP4 PUSH2 0x69E JUMP JUMPDEST SWAP3 POP POP PUSH1 0x1 DUP2 ADD SWAP1 POP PUSH2 0x6CF JUMP JUMPDEST POP DUP6 SWAP4 POP POP POP POP SWAP3 SWAP2 POP POP JUMP JUMPDEST PUSH1 0x0 DUP2 SLOAD SWAP1 POP SWAP2 SWAP1 POP JUMP JUMPDEST PUSH1 0x0 DUP2 SWAP1 POP DUP2 PUSH1 0x0 MSTORE PUSH1 0x20 PUSH1 0x0 KECCAK256 SWAP1 POP SWAP2 SWAP1 POP JUMP JUMPDEST PUSH1 0x0 DUP2 PUSH1 0x0 SHR SWAP1 POP SWAP2 SWAP1 POP JUMP JUMPDEST PUSH1 0x0 DUP2 SWAP1 POP SWAP2 SWAP1 POP JUMP JUMPDEST PUSH1 0x0 PUSH2 0x753 PUSH2 0x74E DUP4 PUSH2 0x729 JUMP JUMPDEST PUSH2 0x736 JUMP JUMPDEST SWAP1 POP SWAP2 SWAP1 POP JUMP JUMPDEST PUSH1 0x0 PUSH2 0x766 DUP3 SLOAD PUSH2 0x740 JUMP JUMPDEST SWAP1 POP SWAP2 SWAP1 POP JUMP JUMPDEST PUSH1 0x0 PUSH1 0x1 DUP3 ADD SWAP1 POP SWAP2 SWAP1 POP JUMP JUMPDEST PUSH1 0x0 PUSH2 0x785 DUP3 PUSH2 0x709 JUMP JUMPDEST PUSH2 0x78F DUP2 DUP6 PUSH2 0x656 JUMP JUMPDEST SWAP4 POP PUSH2 0x79A DUP4 PUSH2 0x714 JUMP JUMPDEST DUP1 PUSH1 0x0 JUMPDEST DUP4 DUP2 LT ISZERO PUSH2 0x7D2 JUMPI PUSH2 0x7AF DUP3 PUSH2 0x75A JUMP JUMPDEST PUSH2 0x7B9 DUP9 DUP3 PUSH2 0x686 JUMP JUMPDEST SWAP8 POP PUSH2 0x7C4 DUP4 PUSH2 0x76D JUMP JUMPDEST SWAP3 POP POP PUSH1 0x1 DUP2 ADD SWAP1 POP PUSH2 0x79E JUMP JUMPDEST POP DUP6 SWAP4 POP POP POP POP SWAP3 SWAP2 POP POP JUMP JUMPDEST PUSH1 0x0 PUSH1 0x40 DUP3 ADD SWAP1 POP DUP2 DUP2 SUB PUSH1 0x0 DUP4 ADD MSTORE PUSH2 0x7F9 DUP2 DUP6 PUSH2 0x6AB JUMP JUMPDEST SWAP1 POP DUP2 DUP2 SUB PUSH1 0x20 DUP4 ADD MSTORE PUSH2 0x80D DUP2 DUP5 PUSH2 0x77A JUMP JUMPDEST SWAP1 POP SWAP4 SWAP3 POP POP POP JUMP JUMPDEST PUSH1 0x0 DUP1 REVERT JUMPDEST DUP3 DUP2 DUP4 CALLDATACOPY POP POP POP JUMP JUMPDEST PUSH1 0x0 PUSH2 0x830 DUP4 DUP6 PUSH2 0x656 JUMP JUMPDEST SWAP4 POP PUSH32 0x7FFFFFFFFFFFFFFFFFFFFFFFFFFFFFFFFFFFFFFFFFFFFFFFFFFFFFFFFFFFFFF DUP4 GT ISZERO PUSH2 0x863 JUMPI PUSH2 0x862 PUSH2 0x816 JUMP JUMPDEST JUMPDEST PUSH1 0x20 DUP4 MUL SWAP3 POP PUSH2 0x874 DUP4 DUP6 DUP5 PUSH2 0x81B JUMP JUMPDEST DUP3 DUP5 ADD SWAP1 POP SWAP4 SWAP3 POP POP POP JUMP JUMPDEST PUSH1 0x0 PUSH1 0x40 DUP3 ADD SWAP1 POP DUP2 DUP2 SUB PUSH1 0x0 DUP4 ADD MSTORE PUSH2 0x89B DUP2 DUP6 DUP8 PUSH2 0x824 JUMP JUMPDEST SWAP1 POP DUP2 DUP2 SUB PUSH1 0x20 DUP4 ADD MSTORE PUSH2 0x8AF DUP2 DUP5 PUSH2 0x6AB JUMP JUMPDEST SWAP1 POP SWAP5 SWAP4 POP POP POP POP JUMP INVALID LOG2 PUSH5 0x6970667358 0x22 SLT KECCAK256 SWAP14 PUSH11 0x89EDC45CE2515150E04F82 0xB5 SWAP11 0xD0 DUP4 0xE7 ORIGIN 0x4A EXP CALLVALUE 0x28 ADDMOD 0xD4 0xAA 0xDE NUMBER OR SWAP15 0xD7 LOG0 PUSH5 0x736F6C6343 STOP ADDMOD GT STOP CALLER "
		},
		"gasEstimates": {
			"creation": {
				"codeDepositCost": "457400",
				"executionCost": "infinite",
				"totalCost": "infinite"
			},
			"external": {
				"arr(uint256)": "infinite",
				"bar(uint256[])": "infinite",
				"foo(uint256[])": "infinite"
			}
		},
		"methodIdentifiers": {
			"arr(uint256)": "71e5ee5f",
			"bar(uint256[])": "c28b3785",
			"foo(uint256[])": "8b44cef1"
		}
	},
	"abi": [
		{
			"anonymous": false,
			"inputs": [
				{
					"indexed": false,
					"internalType": "uint256[]",
					"name": "data",
					"type": "uint256[]"
				},
				{
					"indexed": false,
					"internalType": "uint256[]",
					"name": "drr",
					"type": "uint256[]"
				}
			],
			"name": "CalldataLog",
			"type": "event"
		},
		{
			"anonymous": false,
			"inputs": [
				{
					"indexed": false,
					"internalType": "uint256[]",
					"name": "_arr",
					"type": "uint256[]"
				},
				{
					"indexed": false,
					"internalType": "uint256[]",
					"name": "arr",
					"type": "uint256[]"
				}
			],
			"name": "StorageLog",
			"type": "event"
		},
		{
			"inputs": [
				{
					"internalType": "uint256",
					"name": "",
					"type": "uint256"
				}
			],
			"name": "arr",
			"outputs": [
				{
					"internalType": "uint256",
					"name": "",
					"type": "uint256"
				}
			],
			"stateMutability": "view",
			"type": "function"
		},
		{
			"inputs": [
				{
					"internalType": "uint256[]",
					"name": "_arr",
					"type": "uint256[]"
				}
			],
			"name": "bar",
			"outputs": [],
			"stateMutability": "nonpayable",
			"type": "function"
		},
		{
			"inputs": [
				{
					"internalType": "uint256[]",
					"name": "_arr",
					"type": "uint256[]"
				}
			],
			"name": "foo",
			"outputs": [],
			"stateMutability": "nonpayable",
			"type": "function"
		}
	]
}