{
	"data": {
		"bytecode": {
			"linkReferences": {},
			"object": "608060405234801561001057600080fd5b50610407806100206000396000f3fe60806040526004361061003f5760003560e01c80631a695230146100445780633e58c58c14610060578063d0e30db014610090578063f55332ab1461009a575b600080fd5b61005e6004803603810190610059919061029f565b6100ca565b005b61007a6004803603810190610075919061029f565b61014d565b60405161008791906102e7565b60405180910390f35b61009861018b565b005b6100b460048036038101906100af919061029f565b6101c6565b6040516100c191906102e7565b60405180910390f35b8073ffffffffffffffffffffffffffffffffffffffff166108fc349081150290604051600060405180830381858888f19350505050158015610110573d6000803e3d6000fd5b507ff8e3862e6b47485e9988b400ac37e16b184d2db70178f55e7931c1a7b7144a13333460405161014292919061033c565b60405180910390a150565b60008173ffffffffffffffffffffffffffffffffffffffff166108fc349081150290604051600060405180830381858888f193505050509050919050565b7fe0fbaffdb15cdfab5c685e516e471beb5234983e0f91c3330c780901fca28c8233346040516101bc92919061033c565b60405180910390a1565b6000808273ffffffffffffffffffffffffffffffffffffffff16346040516101ed906103bc565b60006040518083038185875af1925050503d806000811461022a576040519150601f19603f3d011682016040523d82523d6000602084013e61022f565b606091505b5050905080915050919050565b600080fd5b600073ffffffffffffffffffffffffffffffffffffffff82169050919050565b600061026c82610241565b9050919050565b61027c81610261565b811461028757600080fd5b50565b60008135905061029981610273565b92915050565b6000602082840312156102b5576102b461023c565b5b60006102c38482850161028a565b91505092915050565b60008115159050919050565b6102e1816102cc565b82525050565b60006020820190506102fc60008301846102d8565b92915050565b600061030d82610241565b9050919050565b61031d81610302565b82525050565b6000819050919050565b61033681610323565b82525050565b60006040820190506103516000830185610314565b61035e602083018461032d565b9392505050565b600081905092915050565b7f6162630000000000000000000000000000000000000000000000000000000000600082015250565b60006103a6600383610365565b91506103b182610370565b600382019050919050565b60006103c782610399565b915081905091905056fea2646970667358221220311e13b057a4e58c5a306965a330f99dff5b489329e8c8d872e8c1de0cae897a64736f6c63430008110033",
			"opcodes": "PUSH1 0x80 PUSH1 0x40 MSTORE CALLVALUE DUP1 ISZERO PUSH2 0x10 JUMPI PUSH1 0x0 DUP1 REVERT JUMPDEST POP PUSH2 0x407 DUP1 PUSH2 0x20 PUSH1 0x0 CODECOPY PUSH1 0x0 RETURN INVALID PUSH1 0x80 PUSH1 0x40 MSTORE PUSH1 0x4 CALLDATASIZE LT PUSH2 0x3F JUMPI PUSH1 0x0 CALLDATALOAD PUSH1 0xE0 SHR DUP1 PUSH4 0x1A695230 EQ PUSH2 0x44 JUMPI DUP1 PUSH4 0x3E58C58C EQ PUSH2 0x60 JUMPI DUP1 PUSH4 0xD0E30DB0 EQ PUSH2 0x90 JUMPI DUP1 PUSH4 0xF55332AB EQ PUSH2 0x9A JUMPI JUMPDEST PUSH1 0x0 DUP1 REVERT JUMPDEST PUSH2 0x5E PUSH1 0x4 DUP1 CALLDATASIZE SUB DUP2 ADD SWAP1 PUSH2 0x59 SWAP2 SWAP1 PUSH2 0x29F JUMP JUMPDEST PUSH2 0xCA JUMP JUMPDEST STOP JUMPDEST PUSH2 0x7A PUSH1 0x4 DUP1 CALLDATASIZE SUB DUP2 ADD SWAP1 PUSH2 0x75 SWAP2 SWAP1 PUSH2 0x29F JUMP JUMPDEST PUSH2 0x14D JUMP JUMPDEST PUSH1 0x40 MLOAD PUSH2 0x87 SWAP2 SWAP1 PUSH2 0x2E7 JUMP JUMPDEST PUSH1 0x40 MLOAD DUP1 SWAP2 SUB SWAP1 RETURN JUMPDEST PUSH2 0x98 PUSH2 0x18B JUMP JUMPDEST STOP JUMPDEST PUSH2 0xB4 PUSH1 0x4 DUP1 CALLDATASIZE SUB DUP2 ADD SWAP1 PUSH2 0xAF SWAP2 SWAP1 PUSH2 0x29F JUMP JUMPDEST PUSH2 0x1C6 JUMP JUMPDEST PUSH1 0x40 MLOAD PUSH2 0xC1 SWAP2 SWAP1 PUSH2 0x2E7 JUMP JUMPDEST PUSH1 0x40 MLOAD DUP1 SWAP2 SUB SWAP1 RETURN JUMPDEST DUP1 PUSH20 0xFFFFFFFFFFFFFFFFFFFFFFFFFFFFFFFFFFFFFFFF AND PUSH2 0x8FC CALLVALUE SWAP1 DUP2 ISZERO MUL SWAP1 PUSH1 0x40 MLOAD PUSH1 0x0 PUSH1 0x40 MLOAD DUP1 DUP4 SUB DUP2 DUP6 DUP9 DUP9 CALL SWAP4 POP POP POP POP ISZERO DUP1 ISZERO PUSH2 0x110 JUMPI RETURNDATASIZE PUSH1 0x0 DUP1 RETURNDATACOPY RETURNDATASIZE PUSH1 0x0 REVERT JUMPDEST POP PUSH32 0xF8E3862E6B47485E9988B400AC37E16B184D2DB70178F55E7931C1A7B7144A13 CALLER CALLVALUE PUSH1 0x40 MLOAD PUSH2 0x142 SWAP3 SWAP2 SWAP1 PUSH2 0x33C JUMP JUMPDEST PUSH1 0x40 MLOAD DUP1 SWAP2 SUB SWAP1 LOG1 POP JUMP JUMPDEST PUSH1 0x0 DUP2 PUSH20 0xFFFFFFFFFFFFFFFFFFFFFFFFFFFFFFFFFFFFFFFF AND PUSH2 0x8FC CALLVALUE SWAP1 DUP2 ISZERO MUL SWAP1 PUSH1 0x40 MLOAD PUSH1 0x0 PUSH1 0x40 MLOAD DUP1 DUP4 SUB DUP2 DUP6 DUP9 DUP9 CALL SWAP4 POP POP POP POP SWAP1 POP SWAP2 SWAP1 POP JUMP JUMPDEST PUSH32 0xE0FBAFFDB15CDFAB5C685E516E471BEB5234983E0F91C3330C780901FCA28C82 CALLER CALLVALUE PUSH1 0x40 MLOAD PUSH2 0x1BC SWAP3 SWAP2 SWAP1 PUSH2 0x33C JUMP JUMPDEST PUSH1 0x40 MLOAD DUP1 SWAP2 SUB SWAP1 LOG1 JUMP JUMPDEST PUSH1 0x0 DUP1 DUP3 PUSH20 0xFFFFFFFFFFFFFFFFFFFFFFFFFFFFFFFFFFFFFFFF AND CALLVALUE PUSH1 0x40 MLOAD PUSH2 0x1ED SWAP1 PUSH2 0x3BC JUMP JUMPDEST PUSH1 0x0 PUSH1 0x40 MLOAD DUP1 DUP4 SUB DUP2 DUP6 DUP8 GAS CALL SWAP3 POP POP POP RETURNDATASIZE DUP1 PUSH1 0x0 DUP2 EQ PUSH2 0x22A JUMPI PUSH1 0x40 MLOAD SWAP2 POP PUSH1 0x1F NOT PUSH1 0x3F RETURNDATASIZE ADD AND DUP3 ADD PUSH1 0x40 MSTORE RETURNDATASIZE DUP3 MSTORE RETURNDATASIZE PUSH1 0x0 PUSH1 0x20 DUP5 ADD RETURNDATACOPY PUSH2 0x22F JUMP JUMPDEST PUSH1 0x60 SWAP2 POP JUMPDEST POP POP SWAP1 POP DUP1 SWAP2 POP POP SWAP2 SWAP1 POP JUMP JUMPDEST PUSH1 0x0 DUP1 REVERT JUMPDEST PUSH1 0x0 PUSH20 0xFFFFFFFFFFFFFFFFFFFFFFFFFFFFFFFFFFFFFFFF DUP3 AND SWAP1 POP SWAP2 SWAP1 POP JUMP JUMPDEST PUSH1 0x0 PUSH2 0x26C DUP3 PUSH2 0x241 JUMP JUMPDEST SWAP1 POP SWAP2 SWAP1 POP JUMP JUMPDEST PUSH2 0x27C DUP2 PUSH2 0x261 JUMP JUMPDEST DUP2 EQ PUSH2 0x287 JUMPI PUSH1 0x0 DUP1 REVERT JUMPDEST POP JUMP JUMPDEST PUSH1 0x0 DUP2 CALLDATALOAD SWAP1 POP PUSH2 0x299 DUP2 PUSH2 0x273 JUMP JUMPDEST SWAP3 SWAP2 POP POP JUMP JUMPDEST PUSH1 0x0 PUSH1 0x20 DUP3 DUP5 SUB SLT ISZERO PUSH2 0x2B5 JUMPI PUSH2 0x2B4 PUSH2 0x23C JUMP JUMPDEST JUMPDEST PUSH1 0x0 PUSH2 0x2C3 DUP5 DUP3 DUP6 ADD PUSH2 0x28A JUMP JUMPDEST SWAP2 POP POP SWAP3 SWAP2 POP POP JUMP JUMPDEST PUSH1 0x0 DUP2 ISZERO ISZERO SWAP1 POP SWAP2 SWAP1 POP JUMP JUMPDEST PUSH2 0x2E1 DUP2 PUSH2 0x2CC JUMP JUMPDEST DUP3 MSTORE POP POP JUMP JUMPDEST PUSH1 0x0 PUSH1 0x20 DUP3 ADD SWAP1 POP PUSH2 0x2FC PUSH1 0x0 DUP4 ADD DUP5 PUSH2 0x2D8 JUMP JUMPDEST SWAP3 SWAP2 POP POP JUMP JUMPDEST PUSH1 0x0 PUSH2 0x30D DUP3 PUSH2 0x241 JUMP JUMPDEST SWAP1 POP SWAP2 SWAP1 POP JUMP JUMPDEST PUSH2 0x31D DUP2 PUSH2 0x302 JUMP JUMPDEST DUP3 MSTORE POP POP JUMP JUMPDEST PUSH1 0x0 DUP2 SWAP1 POP SWAP2 SWAP1 POP JUMP JUMPDEST PUSH2 0x336 DUP2 PUSH2 0x323 JUMP JUMPDEST DUP3 MSTORE POP POP JUMP JUMPDEST PUSH1 0x0 PUSH1 0x40 DUP3 ADD SWAP1 POP PUSH2 0x351 PUSH1 0x0 DUP4 ADD DUP6 PUSH2 0x314 JUMP JUMPDEST PUSH2 0x35E PUSH1 0x20 DUP4 ADD DUP5 PUSH2 0x32D JUMP JUMPDEST SWAP4 SWAP3 POP POP POP JUMP JUMPDEST PUSH1 0x0 DUP2 SWAP1 POP SWAP3 SWAP2 POP POP JUMP JUMPDEST PUSH32 0x6162630000000000000000000000000000000000000000000000000000000000 PUSH1 0x0 DUP3 ADD MSTORE POP JUMP JUMPDEST PUSH1 0x0 PUSH2 0x3A6 PUSH1 0x3 DUP4 PUSH2 0x365 JUMP JUMPDEST SWAP2 POP PUSH2 0x3B1 DUP3 PUSH2 0x370 JUMP JUMPDEST PUSH1 0x3 DUP3 ADD SWAP1 POP SWAP2 SWAP1 POP JUMP JUMPDEST PUSH1 0x0 PUSH2 0x3C7 DUP3 PUSH2 0x399 JUMP JUMPDEST SWAP2 POP DUP2 SWAP1 POP SWAP2 SWAP1 POP JUMP INVALID LOG2 PUSH5 0x6970667358 0x22 SLT KECCAK256 BALANCE 0x1E SGT 0xB0 JUMPI LOG4 0xE5 DUP13 GAS ADDRESS PUSH10 0x65A330F99DFF5B489329 0xE8 0xC8 0xD8 PUSH19 0xE8C1DE0CAE897A64736F6C6343000811003300 "
		},
		"gasEstimates": {
			"creation": {
				"codeDepositCost": "206200",
				"executionCost": "251",
				"totalCost": "206451"
			},
			"external": {
				"call(address)": "infinite",
				"deposit()": "1739",
				"send(address)": "infinite",
				"transfer(address)": "infinite"
			}
		},
		"methodIdentifiers": {
			"call(address)": "f55332ab",
			"deposit()": "d0e30db0",
			"send(address)": "3e58c58c",
			"transfer(address)": "1a695230"
		}
	},
	"abi": [
		{
			"anonymous": false,
			"inputs": [
				{
					"indexed": false,
					"internalType": "address",
					"name": "sender",
					"type": "address"
				},
				{
					"indexed": false,
					"internalType": "uint256",
					"name": "value",
					"type": "uint256"
				}
			],
			"name": "depositLog",
			"type": "event"
		},
		{
			"anonymous": false,
			"inputs": [
				{
					"indexed": false,
					"internalType": "address",
					"name": "sender",
					"type": "address"
				},
				{
					"indexed": false,
					"internalType": "uint256",
					"name": "value",
					"type": "uint256"
				}
			],
			"name": "transferLog",
			"type": "event"
		},
		{
			"inputs": [
				{
					"internalType": "address payable",
					"name": "recipient",
					"type": "address"
				}
			],
			"name": "call",
			"outputs": [
				{
					"internalType": "bool",
					"name": "",
					"type": "bool"
				}
			],
			"stateMutability": "payable",
			"type": "function"
		},
		{
			"inputs": [],
			"name": "deposit",
			"outputs": [],
			"stateMutability": "payable",
			"type": "function"
		},
		{
			"inputs": [
				{
					"internalType": "address payable",
					"name": "recipient",
					"type": "address"
				}
			],
			"name": "send",
			"outputs": [
				{
					"internalType": "bool",
					"name": "",
					"type": "bool"
				}
			],
			"stateMutability": "payable",
			"type": "function"
		},
		{
			"inputs": [
				{
					"internalType": "address payable",
					"name": "recipient",
					"type": "address"
				}
			],
			"name": "transfer",
			"outputs": [],
			"stateMutability": "payable",
			"type": "function"
		}
	]
}