{
	"data": {
		"bytecode": {
			"linkReferences": {},
			"object": "608060405234801561001057600080fd5b506101b7806100206000396000f3fe60806040526004361061001e5760003560e01c80631b9265b814610023575b600080fd5b61002b61002d565b005b600134101561003b57600080fd5b600073123456789012345678901234567890123456789090508073ffffffffffffffffffffffffffffffffffffffff166108fc349081150290604051600060405180830381858888f1935050505015801561009a573d6000803e3d6000fd5b507fb94974545a27601ce7a17e402284480ec811ca316eef4dc57074efa4a64f388233348373ffffffffffffffffffffffffffffffffffffffff16316040516100e59392919061014a565b60405180910390a150565b600073ffffffffffffffffffffffffffffffffffffffff82169050919050565b600061011b826100f0565b9050919050565b61012b81610110565b82525050565b6000819050919050565b61014481610131565b82525050565b600060608201905061015f6000830186610122565b61016c602083018561013b565b610179604083018461013b565b94935050505056fea26469706673582212201b9bd20396a59fe657e690d5310f874b2e2cccc5fea01c7172ef296edde669f364736f6c63430008110033",
			"opcodes": "PUSH1 0x80 PUSH1 0x40 MSTORE CALLVALUE DUP1 ISZERO PUSH2 0x10 JUMPI PUSH1 0x0 DUP1 REVERT JUMPDEST POP PUSH2 0x1B7 DUP1 PUSH2 0x20 PUSH1 0x0 CODECOPY PUSH1 0x0 RETURN INVALID PUSH1 0x80 PUSH1 0x40 MSTORE PUSH1 0x4 CALLDATASIZE LT PUSH2 0x1E JUMPI PUSH1 0x0 CALLDATALOAD PUSH1 0xE0 SHR DUP1 PUSH4 0x1B9265B8 EQ PUSH2 0x23 JUMPI JUMPDEST PUSH1 0x0 DUP1 REVERT JUMPDEST PUSH2 0x2B PUSH2 0x2D JUMP JUMPDEST STOP JUMPDEST PUSH1 0x1 CALLVALUE LT ISZERO PUSH2 0x3B JUMPI PUSH1 0x0 DUP1 REVERT JUMPDEST PUSH1 0x0 PUSH20 0x1234567890123456789012345678901234567890 SWAP1 POP DUP1 PUSH20 0xFFFFFFFFFFFFFFFFFFFFFFFFFFFFFFFFFFFFFFFF AND PUSH2 0x8FC CALLVALUE SWAP1 DUP2 ISZERO MUL SWAP1 PUSH1 0x40 MLOAD PUSH1 0x0 PUSH1 0x40 MLOAD DUP1 DUP4 SUB DUP2 DUP6 DUP9 DUP9 CALL SWAP4 POP POP POP POP ISZERO DUP1 ISZERO PUSH2 0x9A JUMPI RETURNDATASIZE PUSH1 0x0 DUP1 RETURNDATACOPY RETURNDATASIZE PUSH1 0x0 REVERT JUMPDEST POP PUSH32 0xB94974545A27601CE7A17E402284480EC811CA316EEF4DC57074EFA4A64F3882 CALLER CALLVALUE DUP4 PUSH20 0xFFFFFFFFFFFFFFFFFFFFFFFFFFFFFFFFFFFFFFFF AND BALANCE PUSH1 0x40 MLOAD PUSH2 0xE5 SWAP4 SWAP3 SWAP2 SWAP1 PUSH2 0x14A JUMP JUMPDEST PUSH1 0x40 MLOAD DUP1 SWAP2 SUB SWAP1 LOG1 POP JUMP JUMPDEST PUSH1 0x0 PUSH20 0xFFFFFFFFFFFFFFFFFFFFFFFFFFFFFFFFFFFFFFFF DUP3 AND SWAP1 POP SWAP2 SWAP1 POP JUMP JUMPDEST PUSH1 0x0 PUSH2 0x11B DUP3 PUSH2 0xF0 JUMP JUMPDEST SWAP1 POP SWAP2 SWAP1 POP JUMP JUMPDEST PUSH2 0x12B DUP2 PUSH2 0x110 JUMP JUMPDEST DUP3 MSTORE POP POP JUMP JUMPDEST PUSH1 0x0 DUP2 SWAP1 POP SWAP2 SWAP1 POP JUMP JUMPDEST PUSH2 0x144 DUP2 PUSH2 0x131 JUMP JUMPDEST DUP3 MSTORE POP POP JUMP JUMPDEST PUSH1 0x0 PUSH1 0x60 DUP3 ADD SWAP1 POP PUSH2 0x15F PUSH1 0x0 DUP4 ADD DUP7 PUSH2 0x122 JUMP JUMPDEST PUSH2 0x16C PUSH1 0x20 DUP4 ADD DUP6 PUSH2 0x13B JUMP JUMPDEST PUSH2 0x179 PUSH1 0x40 DUP4 ADD DUP5 PUSH2 0x13B JUMP JUMPDEST SWAP5 SWAP4 POP POP POP POP JUMP INVALID LOG2 PUSH5 0x6970667358 0x22 SLT KECCAK256 SHL SWAP12 0xD2 SUB SWAP7 0xA5 SWAP16 0xE6 JUMPI 0xE6 SWAP1 0xD5 BALANCE 0xF DUP8 0x4B 0x2E 0x2C 0xCC 0xC5 INVALID LOG0 SHR PUSH18 0x72EF296EDDE669F364736F6C634300081100 CALLER "
		},
		"gasEstimates": {
			"creation": {
				"codeDepositCost": "87800",
				"executionCost": "135",
				"totalCost": "87935"
			},
			"external": {
				"pay()": "infinite"
			}
		},
		"methodIdentifiers": {
			"pay()": "1b9265b8"
		}
	},
	"abi": [
		{
			"anonymous": false,
			"inputs": [
				{
					"indexed": false,
					"internalType": "address",
					"name": "sender",
					"type": "address"
				},
				{
					"indexed": false,
					"internalType": "uint256",
					"name": "value",
					"type": "uint256"
				},
				{
					"indexed": false,
					"internalType": "uint256",
					"name": "balance",
					"type": "uint256"
				}
			],
			"name": "WeiEtherLog",
			"type": "event"
		},
		{
			"inputs": [],
			"name": "pay",
			"outputs": [],
			"stateMutability": "payable",
			"type": "function"
		}
	]
}