{
	"contract/UpgradeableProxy.sol": {
		"Proxy": {
			"abi": [
				{
					"inputs": [],
					"stateMutability": "nonpayable",
					"type": "constructor"
				},
				{
					"stateMutability": "payable",
					"type": "fallback"
				},
				{
					"inputs": [],
					"name": "admin",
					"outputs": [
						{
							"internalType": "address",
							"name": "",
							"type": "address"
						}
					],
					"stateMutability": "nonpayable",
					"type": "function"
				},
				{
					"inputs": [
						{
							"internalType": "address",
							"name": "_admin",
							"type": "address"
						}
					],
					"name": "changeAdmin",
					"outputs": [],
					"stateMutability": "nonpayable",
					"type": "function"
				},
				{
					"inputs": [],
					"name": "implementation",
					"outputs": [
						{
							"internalType": "address",
							"name": "",
							"type": "address"
						}
					],
					"stateMutability": "nonpayable",
					"type": "function"
				},
				{
					"inputs": [
						{
							"internalType": "address",
							"name": "_implementation",
							"type": "address"
						}
					],
					"name": "upgradeTo",
					"outputs": [],
					"stateMutability": "nonpayable",
					"type": "function"
				},
				{
					"stateMutability": "payable",
					"type": "receive"
				}
			],
			"devdoc": {
				"kind": "dev",
				"methods": {},
				"version": 1
			},
			"evm": {
				"assembly": "    /* \"contract/UpgradeableProxy.sol\":1258:5216  contract Proxy {... */\n  mstore(0x40, 0x80)\n    /* \"contract/UpgradeableProxy.sol\":1777:1831  constructor() {... */\n  callvalue\n  dup1\n  iszero\n  tag_1\n  jumpi\n  0x00\n  dup1\n  revert\ntag_1:\n  pop\n    /* \"contract/UpgradeableProxy.sol\":1802:1823  _setAdmin(msg.sender) */\n  tag_4\n    /* \"contract/UpgradeableProxy.sol\":1812:1822  msg.sender */\n  caller\n    /* \"contract/UpgradeableProxy.sol\":1802:1811  _setAdmin */\n  shl(0x20, tag_5)\n    /* \"contract/UpgradeableProxy.sol\":1802:1823  _setAdmin(msg.sender) */\n  0x20\n  shr\n  jump\t// in\ntag_4:\n    /* \"contract/UpgradeableProxy.sol\":1258:5216  contract Proxy {... */\n  jump(tag_6)\n    /* \"contract/UpgradeableProxy.sol\":2117:2296  function _setAdmin(address _admin) private {... */\ntag_5:\n    /* \"contract/UpgradeableProxy.sol\":2197:2198  0 */\n  0x00\n    /* \"contract/UpgradeableProxy.sol\":2179:2199  _admin != address(0) */\n  0xffffffffffffffffffffffffffffffffffffffff\n  and\n    /* \"contract/UpgradeableProxy.sol\":2179:2185  _admin */\n  dup2\n    /* \"contract/UpgradeableProxy.sol\":2179:2199  _admin != address(0) */\n  0xffffffffffffffffffffffffffffffffffffffff\n  and\n  sub\n    /* \"contract/UpgradeableProxy.sol\":2171:2224  require(_admin != address(0), \"admin = zero address\") */\n  tag_8\n  jumpi\n  mload(0x40)\n  0x08c379a000000000000000000000000000000000000000000000000000000000\n  dup2\n  mstore\n  0x04\n  add\n  tag_9\n  swap1\n  tag_10\n  jump\t// in\ntag_9:\n  mload(0x40)\n  dup1\n  swap2\n  sub\n  swap1\n  revert\ntag_8:\n    /* \"contract/UpgradeableProxy.sol\":2282:2288  _admin */\n  dup1\n    /* \"contract/UpgradeableProxy.sol\":2235:2273  StorageSlot.getAddressSlot(ADMIN_SLOT) */\n  tag_11\n    /* \"contract/UpgradeableProxy.sol\":1766:1767  1 */\n  0x01\n    /* \"contract/UpgradeableProxy.sol\":1730:1762  keccak256(\"eip1967.proxy.admin\") */\n  0xb53127684a568b3173ae13b9f8a6016e243e63b6e8ee1178d6a717850b5d6104\n    /* \"contract/UpgradeableProxy.sol\":1725:1763  uint(keccak256(\"eip1967.proxy.admin\")) */\n  0x00\n  shr\n    /* \"contract/UpgradeableProxy.sol\":1725:1767  uint(keccak256(\"eip1967.proxy.admin\")) - 1 */\n  tag_12\n  swap2\n  swap1\n  tag_13\n  jump\t// in\ntag_12:\n    /* \"contract/UpgradeableProxy.sol\":1717:1768  bytes32(uint(keccak256(\"eip1967.proxy.admin\")) - 1) */\n  0x00\n  shl\n    /* \"contract/UpgradeableProxy.sol\":2235:2261  StorageSlot.getAddressSlot */\n  or(tag_0_32, shl(0x20, tag_14))\n    /* \"contract/UpgradeableProxy.sol\":2235:2273  StorageSlot.getAddressSlot(ADMIN_SLOT) */\n  0x20\n  shr\n  jump\t// in\ntag_11:\n    /* \"contract/UpgradeableProxy.sol\":2235:2279  StorageSlot.getAddressSlot(ADMIN_SLOT).value */\n  0x00\n  add\n  0x00\n    /* \"contract/UpgradeableProxy.sol\":2235:2288  StorageSlot.getAddressSlot(ADMIN_SLOT).value = _admin */\n  0x0100\n  exp\n  dup2\n  sload\n  dup2\n  0xffffffffffffffffffffffffffffffffffffffff\n  mul\n  not\n  and\n  swap1\n  dup4\n  0xffffffffffffffffffffffffffffffffffffffff\n  and\n  mul\n  or\n  swap1\n  sstore\n  pop\n    /* \"contract/UpgradeableProxy.sol\":2117:2296  function _setAdmin(address _admin) private {... */\n  pop\n  jump\t// out\n    /* \"contract/UpgradeableProxy.sol\":6366:6533  function getAddressSlot(... */\ntag_14:\n    /* \"contract/UpgradeableProxy.sol\":6443:6464  AddressSlot storage r */\n  0x00\n    /* \"contract/UpgradeableProxy.sol\":6511:6515  slot */\n  dup2\n    /* \"contract/UpgradeableProxy.sol\":6501:6515  r.slot := slot */\n  swap1\n  pop\n    /* \"contract/UpgradeableProxy.sol\":6366:6533  function getAddressSlot(... */\n  swap2\n  swap1\n  pop\n  jump\t// out\n    /* \"#utility.yul\":7:176   */\ntag_16:\n    /* \"#utility.yul\":91:102   */\n  0x00\n    /* \"#utility.yul\":125:131   */\n  dup3\n    /* \"#utility.yul\":120:123   */\n  dup3\n    /* \"#utility.yul\":113:132   */\n  mstore\n    /* \"#utility.yul\":165:169   */\n  0x20\n    /* \"#utility.yul\":160:163   */\n  dup3\n    /* \"#utility.yul\":156:170   */\n  add\n    /* \"#utility.yul\":141:170   */\n  swap1\n  pop\n    /* \"#utility.yul\":7:176   */\n  swap3\n  swap2\n  pop\n  pop\n  jump\t// out\n    /* \"#utility.yul\":182:352   */\ntag_17:\n    /* \"#utility.yul\":322:344   */\n  0x61646d696e203d207a65726f2061646472657373000000000000000000000000\n    /* \"#utility.yul\":318:319   */\n  0x00\n    /* \"#utility.yul\":310:316   */\n  dup3\n    /* \"#utility.yul\":306:320   */\n  add\n    /* \"#utility.yul\":299:345   */\n  mstore\n    /* \"#utility.yul\":182:352   */\n  pop\n  jump\t// out\n    /* \"#utility.yul\":358:724   */\ntag_18:\n    /* \"#utility.yul\":500:503   */\n  0x00\n    /* \"#utility.yul\":521:588   */\n  tag_25\n    /* \"#utility.yul\":585:587   */\n  0x14\n    /* \"#utility.yul\":580:583   */\n  dup4\n    /* \"#utility.yul\":521:588   */\n  tag_16\n  jump\t// in\ntag_25:\n    /* \"#utility.yul\":514:588   */\n  swap2\n  pop\n    /* \"#utility.yul\":597:690   */\n  tag_26\n    /* \"#utility.yul\":686:689   */\n  dup3\n    /* \"#utility.yul\":597:690   */\n  tag_17\n  jump\t// in\ntag_26:\n    /* \"#utility.yul\":715:717   */\n  0x20\n    /* \"#utility.yul\":710:713   */\n  dup3\n    /* \"#utility.yul\":706:718   */\n  add\n    /* \"#utility.yul\":699:718   */\n  swap1\n  pop\n    /* \"#utility.yul\":358:724   */\n  swap2\n  swap1\n  pop\n  jump\t// out\n    /* \"#utility.yul\":730:1149   */\ntag_10:\n    /* \"#utility.yul\":896:900   */\n  0x00\n    /* \"#utility.yul\":934:936   */\n  0x20\n    /* \"#utility.yul\":923:932   */\n  dup3\n    /* \"#utility.yul\":919:937   */\n  add\n    /* \"#utility.yul\":911:937   */\n  swap1\n  pop\n    /* \"#utility.yul\":983:992   */\n  dup2\n    /* \"#utility.yul\":977:981   */\n  dup2\n    /* \"#utility.yul\":973:993   */\n  sub\n    /* \"#utility.yul\":969:970   */\n  0x00\n    /* \"#utility.yul\":958:967   */\n  dup4\n    /* \"#utility.yul\":954:971   */\n  add\n    /* \"#utility.yul\":947:994   */\n  mstore\n    /* \"#utility.yul\":1011:1142   */\n  tag_28\n    /* \"#utility.yul\":1137:1141   */\n  dup2\n    /* \"#utility.yul\":1011:1142   */\n  tag_18\n  jump\t// in\ntag_28:\n    /* \"#utility.yul\":1003:1142   */\n  swap1\n  pop\n    /* \"#utility.yul\":730:1149   */\n  swap2\n  swap1\n  pop\n  jump\t// out\n    /* \"#utility.yul\":1155:1232   */\ntag_19:\n    /* \"#utility.yul\":1192:1199   */\n  0x00\n    /* \"#utility.yul\":1221:1226   */\n  dup2\n    /* \"#utility.yul\":1210:1226   */\n  swap1\n  pop\n    /* \"#utility.yul\":1155:1232   */\n  swap2\n  swap1\n  pop\n  jump\t// out\n    /* \"#utility.yul\":1238:1418   */\ntag_20:\n    /* \"#utility.yul\":1286:1363   */\n  0x4e487b7100000000000000000000000000000000000000000000000000000000\n    /* \"#utility.yul\":1283:1284   */\n  0x00\n    /* \"#utility.yul\":1276:1364   */\n  mstore\n    /* \"#utility.yul\":1383:1387   */\n  0x11\n    /* \"#utility.yul\":1380:1381   */\n  0x04\n    /* \"#utility.yul\":1373:1388   */\n  mstore\n    /* \"#utility.yul\":1407:1411   */\n  0x24\n    /* \"#utility.yul\":1404:1405   */\n  0x00\n    /* \"#utility.yul\":1397:1412   */\n  revert\n    /* \"#utility.yul\":1424:1618   */\ntag_13:\n    /* \"#utility.yul\":1464:1468   */\n  0x00\n    /* \"#utility.yul\":1484:1504   */\n  tag_32\n    /* \"#utility.yul\":1502:1503   */\n  dup3\n    /* \"#utility.yul\":1484:1504   */\n  tag_19\n  jump\t// in\ntag_32:\n    /* \"#utility.yul\":1479:1504   */\n  swap2\n  pop\n    /* \"#utility.yul\":1518:1538   */\n  tag_33\n    /* \"#utility.yul\":1536:1537   */\n  dup4\n    /* \"#utility.yul\":1518:1538   */\n  tag_19\n  jump\t// in\ntag_33:\n    /* \"#utility.yul\":1513:1538   */\n  swap3\n  pop\n    /* \"#utility.yul\":1562:1563   */\n  dup3\n    /* \"#utility.yul\":1559:1560   */\n  dup3\n    /* \"#utility.yul\":1555:1564   */\n  sub\n    /* \"#utility.yul\":1547:1564   */\n  swap1\n  pop\n    /* \"#utility.yul\":1586:1587   */\n  dup2\n    /* \"#utility.yul\":1580:1584   */\n  dup2\n    /* \"#utility.yul\":1577:1588   */\n  gt\n    /* \"#utility.yul\":1574:1611   */\n  iszero\n  tag_34\n  jumpi\n    /* \"#utility.yul\":1591:1609   */\n  tag_35\n  tag_20\n  jump\t// in\ntag_35:\n    /* \"#utility.yul\":1574:1611   */\ntag_34:\n    /* \"#utility.yul\":1424:1618   */\n  swap3\n  swap2\n  pop\n  pop\n  jump\t// out\n    /* \"contract/UpgradeableProxy.sol\":1258:5216  contract Proxy {... */\ntag_6:\n  dataSize(sub_0)\n  dup1\n  dataOffset(sub_0)\n  0x00\n  codecopy\n  0x00\n  return\nstop\n\nsub_0: assembly {\n        /* \"contract/UpgradeableProxy.sol\":1258:5216  contract Proxy {... */\n      mstore(0x40, 0x80)\n      jumpi(tag_1, lt(calldatasize, 0x04))\n      shr(0xe0, calldataload(0x00))\n      dup1\n      0x3659cfe6\n      eq\n      tag_3\n      jumpi\n      dup1\n      0x5c60da1b\n      eq\n      tag_4\n      jumpi\n      dup1\n      0x8f283970\n      eq\n      tag_5\n      jumpi\n      dup1\n      0xf851a440\n      eq\n      tag_6\n      jumpi\n      jump(tag_2)\n    tag_1:\n      jumpi(tag_2, calldatasize)\n        /* \"contract/UpgradeableProxy.sol\":5194:5205  _fallback() */\n      tag_9\n        /* \"contract/UpgradeableProxy.sol\":5194:5203  _fallback */\n      tag_10\n        /* \"contract/UpgradeableProxy.sol\":5194:5205  _fallback() */\n      jump\t// in\n    tag_9:\n        /* \"contract/UpgradeableProxy.sol\":1258:5216  contract Proxy {... */\n      stop\n    tag_2:\n        /* \"contract/UpgradeableProxy.sol\":5129:5140  _fallback() */\n      tag_13\n        /* \"contract/UpgradeableProxy.sol\":5129:5138  _fallback */\n      tag_10\n        /* \"contract/UpgradeableProxy.sol\":5129:5140  _fallback() */\n      jump\t// in\n    tag_13:\n        /* \"contract/UpgradeableProxy.sol\":1258:5216  contract Proxy {... */\n      stop\n        /* \"contract/UpgradeableProxy.sol\":2840:2955  function upgradeTo(address _implementation) external ifAdmin {... */\n    tag_3:\n      callvalue\n      dup1\n      iszero\n      tag_14\n      jumpi\n      0x00\n      dup1\n      revert\n    tag_14:\n      pop\n      tag_15\n      0x04\n      dup1\n      calldatasize\n      sub\n      dup2\n      add\n      swap1\n      tag_16\n      swap2\n      swap1\n      tag_17\n      jump\t// in\n    tag_16:\n      tag_18\n      jump\t// in\n    tag_15:\n      stop\n        /* \"contract/UpgradeableProxy.sol\":3098:3205  function implementation() external ifAdmin returns (address) {... */\n    tag_4:\n      callvalue\n      dup1\n      iszero\n      tag_19\n      jumpi\n      0x00\n      dup1\n      revert\n    tag_19:\n      pop\n      tag_20\n      tag_21\n      jump\t// in\n    tag_20:\n      mload(0x40)\n      tag_22\n      swap2\n      swap1\n      tag_23\n      jump\t// in\n    tag_22:\n      mload(0x40)\n      dup1\n      swap2\n      sub\n      swap1\n      return\n        /* \"contract/UpgradeableProxy.sol\":2723:2813  function changeAdmin(address _admin) external ifAdmin {... */\n    tag_5:\n      callvalue\n      dup1\n      iszero\n      tag_24\n      jumpi\n      0x00\n      dup1\n      revert\n    tag_24:\n      pop\n      tag_25\n      0x04\n      dup1\n      calldatasize\n      sub\n      dup2\n      add\n      swap1\n      tag_26\n      swap2\n      swap1\n      tag_17\n      jump\t// in\n    tag_26:\n      tag_27\n      jump\t// in\n    tag_25:\n      stop\n        /* \"contract/UpgradeableProxy.sol\":2982:3071  function admin() external ifAdmin returns (address) {... */\n    tag_6:\n      callvalue\n      dup1\n      iszero\n      tag_28\n      jumpi\n      0x00\n      dup1\n      revert\n    tag_28:\n      pop\n      tag_29\n      tag_30\n      jump\t// in\n    tag_29:\n      mload(0x40)\n      tag_31\n      swap2\n      swap1\n      tag_23\n      jump\t// in\n    tag_31:\n      mload(0x40)\n      dup1\n      swap2\n      sub\n      swap1\n      return\n        /* \"contract/UpgradeableProxy.sol\":5003:5082  function _fallback() private {... */\n    tag_10:\n        /* \"contract/UpgradeableProxy.sol\":5043:5074  _delegate(_getImplementation()) */\n      tag_34\n        /* \"contract/UpgradeableProxy.sol\":5053:5073  _getImplementation() */\n      tag_35\n        /* \"contract/UpgradeableProxy.sol\":5053:5071  _getImplementation */\n      tag_36\n        /* \"contract/UpgradeableProxy.sol\":5053:5073  _getImplementation() */\n      jump\t// in\n    tag_35:\n        /* \"contract/UpgradeableProxy.sol\":5043:5052  _delegate */\n      tag_37\n        /* \"contract/UpgradeableProxy.sol\":5043:5074  _delegate(_getImplementation()) */\n      jump\t// in\n    tag_34:\n        /* \"contract/UpgradeableProxy.sol\":5003:5082  function _fallback() private {... */\n      jump\t// out\n        /* \"contract/UpgradeableProxy.sol\":2840:2955  function upgradeTo(address _implementation) external ifAdmin {... */\n    tag_18:\n        /* \"contract/UpgradeableProxy.sol\":1887:1898  _getAdmin() */\n      tag_39\n        /* \"contract/UpgradeableProxy.sol\":1887:1896  _getAdmin */\n      tag_40\n        /* \"contract/UpgradeableProxy.sol\":1887:1898  _getAdmin() */\n      jump\t// in\n    tag_39:\n        /* \"contract/UpgradeableProxy.sol\":1873:1898  msg.sender == _getAdmin() */\n      0xffffffffffffffffffffffffffffffffffffffff\n      and\n        /* \"contract/UpgradeableProxy.sol\":1873:1883  msg.sender */\n      caller\n        /* \"contract/UpgradeableProxy.sol\":1873:1898  msg.sender == _getAdmin() */\n      0xffffffffffffffffffffffffffffffffffffffff\n      and\n      sub\n        /* \"contract/UpgradeableProxy.sol\":1869:1972  if (msg.sender == _getAdmin()) {... */\n      tag_41\n      jumpi\n        /* \"contract/UpgradeableProxy.sol\":2912:2947  _setImplementation(_implementation) */\n      tag_43\n        /* \"contract/UpgradeableProxy.sol\":2931:2946  _implementation */\n      dup2\n        /* \"contract/UpgradeableProxy.sol\":2912:2930  _setImplementation */\n      tag_44\n        /* \"contract/UpgradeableProxy.sol\":2912:2947  _setImplementation(_implementation) */\n      jump\t// in\n    tag_43:\n        /* \"contract/UpgradeableProxy.sol\":1869:1972  if (msg.sender == _getAdmin()) {... */\n      jump(tag_45)\n    tag_41:\n        /* \"contract/UpgradeableProxy.sol\":1949:1960  _fallback() */\n      tag_46\n        /* \"contract/UpgradeableProxy.sol\":1949:1958  _fallback */\n      tag_10\n        /* \"contract/UpgradeableProxy.sol\":1949:1960  _fallback() */\n      jump\t// in\n    tag_46:\n        /* \"contract/UpgradeableProxy.sol\":1869:1972  if (msg.sender == _getAdmin()) {... */\n    tag_45:\n        /* \"contract/UpgradeableProxy.sol\":2840:2955  function upgradeTo(address _implementation) external ifAdmin {... */\n      pop\n      jump\t// out\n        /* \"contract/UpgradeableProxy.sol\":3098:3205  function implementation() external ifAdmin returns (address) {... */\n    tag_21:\n        /* \"contract/UpgradeableProxy.sol\":3150:3157  address */\n      0x00\n        /* \"contract/UpgradeableProxy.sol\":1887:1898  _getAdmin() */\n      tag_48\n        /* \"contract/UpgradeableProxy.sol\":1887:1896  _getAdmin */\n      tag_40\n        /* \"contract/UpgradeableProxy.sol\":1887:1898  _getAdmin() */\n      jump\t// in\n    tag_48:\n        /* \"contract/UpgradeableProxy.sol\":1873:1898  msg.sender == _getAdmin() */\n      0xffffffffffffffffffffffffffffffffffffffff\n      and\n        /* \"contract/UpgradeableProxy.sol\":1873:1883  msg.sender */\n      caller\n        /* \"contract/UpgradeableProxy.sol\":1873:1898  msg.sender == _getAdmin() */\n      0xffffffffffffffffffffffffffffffffffffffff\n      and\n      sub\n        /* \"contract/UpgradeableProxy.sol\":1869:1972  if (msg.sender == _getAdmin()) {... */\n      tag_49\n      jumpi\n        /* \"contract/UpgradeableProxy.sol\":3177:3197  _getImplementation() */\n      tag_51\n        /* \"contract/UpgradeableProxy.sol\":3177:3195  _getImplementation */\n      tag_36\n        /* \"contract/UpgradeableProxy.sol\":3177:3197  _getImplementation() */\n      jump\t// in\n    tag_51:\n        /* \"contract/UpgradeableProxy.sol\":3170:3197  return _getImplementation() */\n      swap1\n      pop\n        /* \"contract/UpgradeableProxy.sol\":1869:1972  if (msg.sender == _getAdmin()) {... */\n      jump(tag_52)\n    tag_49:\n        /* \"contract/UpgradeableProxy.sol\":1949:1960  _fallback() */\n      tag_53\n        /* \"contract/UpgradeableProxy.sol\":1949:1958  _fallback */\n      tag_10\n        /* \"contract/UpgradeableProxy.sol\":1949:1960  _fallback() */\n      jump\t// in\n    tag_53:\n        /* \"contract/UpgradeableProxy.sol\":1869:1972  if (msg.sender == _getAdmin()) {... */\n    tag_52:\n        /* \"contract/UpgradeableProxy.sol\":3098:3205  function implementation() external ifAdmin returns (address) {... */\n      swap1\n      jump\t// out\n        /* \"contract/UpgradeableProxy.sol\":2723:2813  function changeAdmin(address _admin) external ifAdmin {... */\n    tag_27:\n        /* \"contract/UpgradeableProxy.sol\":1887:1898  _getAdmin() */\n      tag_55\n        /* \"contract/UpgradeableProxy.sol\":1887:1896  _getAdmin */\n      tag_40\n        /* \"contract/UpgradeableProxy.sol\":1887:1898  _getAdmin() */\n      jump\t// in\n    tag_55:\n        /* \"contract/UpgradeableProxy.sol\":1873:1898  msg.sender == _getAdmin() */\n      0xffffffffffffffffffffffffffffffffffffffff\n      and\n        /* \"contract/UpgradeableProxy.sol\":1873:1883  msg.sender */\n      caller\n        /* \"contract/UpgradeableProxy.sol\":1873:1898  msg.sender == _getAdmin() */\n      0xffffffffffffffffffffffffffffffffffffffff\n      and\n      sub\n        /* \"contract/UpgradeableProxy.sol\":1869:1972  if (msg.sender == _getAdmin()) {... */\n      tag_56\n      jumpi\n        /* \"contract/UpgradeableProxy.sol\":2788:2805  _setAdmin(_admin) */\n      tag_58\n        /* \"contract/UpgradeableProxy.sol\":2798:2804  _admin */\n      dup2\n        /* \"contract/UpgradeableProxy.sol\":2788:2797  _setAdmin */\n      tag_59\n        /* \"contract/UpgradeableProxy.sol\":2788:2805  _setAdmin(_admin) */\n      jump\t// in\n    tag_58:\n        /* \"contract/UpgradeableProxy.sol\":1869:1972  if (msg.sender == _getAdmin()) {... */\n      jump(tag_60)\n    tag_56:\n        /* \"contract/UpgradeableProxy.sol\":1949:1960  _fallback() */\n      tag_61\n        /* \"contract/UpgradeableProxy.sol\":1949:1958  _fallback */\n      tag_10\n        /* \"contract/UpgradeableProxy.sol\":1949:1960  _fallback() */\n      jump\t// in\n    tag_61:\n        /* \"contract/UpgradeableProxy.sol\":1869:1972  if (msg.sender == _getAdmin()) {... */\n    tag_60:\n        /* \"contract/UpgradeableProxy.sol\":2723:2813  function changeAdmin(address _admin) external ifAdmin {... */\n      pop\n      jump\t// out\n        /* \"contract/UpgradeableProxy.sol\":2982:3071  function admin() external ifAdmin returns (address) {... */\n    tag_30:\n        /* \"contract/UpgradeableProxy.sol\":3025:3032  address */\n      0x00\n        /* \"contract/UpgradeableProxy.sol\":1887:1898  _getAdmin() */\n      tag_63\n        /* \"contract/UpgradeableProxy.sol\":1887:1896  _getAdmin */\n      tag_40\n        /* \"contract/UpgradeableProxy.sol\":1887:1898  _getAdmin() */\n      jump\t// in\n    tag_63:\n        /* \"contract/UpgradeableProxy.sol\":1873:1898  msg.sender == _getAdmin() */\n      0xffffffffffffffffffffffffffffffffffffffff\n      and\n        /* \"contract/UpgradeableProxy.sol\":1873:1883  msg.sender */\n      caller\n        /* \"contract/UpgradeableProxy.sol\":1873:1898  msg.sender == _getAdmin() */\n      0xffffffffffffffffffffffffffffffffffffffff\n      and\n      sub\n        /* \"contract/UpgradeableProxy.sol\":1869:1972  if (msg.sender == _getAdmin()) {... */\n      tag_64\n      jumpi\n        /* \"contract/UpgradeableProxy.sol\":3052:3063  _getAdmin() */\n      tag_66\n        /* \"contract/UpgradeableProxy.sol\":3052:3061  _getAdmin */\n      tag_40\n        /* \"contract/UpgradeableProxy.sol\":3052:3063  _getAdmin() */\n      jump\t// in\n    tag_66:\n        /* \"contract/UpgradeableProxy.sol\":3045:3063  return _getAdmin() */\n      swap1\n      pop\n        /* \"contract/UpgradeableProxy.sol\":1869:1972  if (msg.sender == _getAdmin()) {... */\n      jump(tag_67)\n    tag_64:\n        /* \"contract/UpgradeableProxy.sol\":1949:1960  _fallback() */\n      tag_68\n        /* \"contract/UpgradeableProxy.sol\":1949:1958  _fallback */\n      tag_10\n        /* \"contract/UpgradeableProxy.sol\":1949:1960  _fallback() */\n      jump\t// in\n    tag_68:\n        /* \"contract/UpgradeableProxy.sol\":1869:1972  if (msg.sender == _getAdmin()) {... */\n    tag_67:\n        /* \"contract/UpgradeableProxy.sol\":2982:3071  function admin() external ifAdmin returns (address) {... */\n      swap1\n      jump\t// out\n        /* \"contract/UpgradeableProxy.sol\":6366:6533  function getAddressSlot(... */\n    tag_32:\n        /* \"contract/UpgradeableProxy.sol\":6443:6464  AddressSlot storage r */\n      0x00\n        /* \"contract/UpgradeableProxy.sol\":6511:6515  slot */\n      dup2\n        /* \"contract/UpgradeableProxy.sol\":6501:6515  r.slot := slot */\n      swap1\n      pop\n        /* \"contract/UpgradeableProxy.sol\":6366:6533  function getAddressSlot(... */\n      swap2\n      swap1\n      pop\n      jump\t// out\n        /* \"contract/UpgradeableProxy.sol\":2304:2444  function _getImplementation() private view returns (address) {... */\n    tag_36:\n        /* \"contract/UpgradeableProxy.sol\":2356:2363  address */\n      0x00\n        /* \"contract/UpgradeableProxy.sol\":2383:2430  StorageSlot.getAddressSlot(IMPLEMENTATION_SLOT) */\n      tag_71\n        /* \"contract/UpgradeableProxy.sol\":1586:1587  1 */\n      0x01\n        /* \"contract/UpgradeableProxy.sol\":1541:1582  keccak256(\"eip1967.proxy.implementation\") */\n      0x360894a13ba1a3210667c828492db98dca3e2076cc3735a920a3ca505d382bbd\n        /* \"contract/UpgradeableProxy.sol\":1536:1583  uint(keccak256(\"eip1967.proxy.implementation\")) */\n      0x00\n      shr\n        /* \"contract/UpgradeableProxy.sol\":1536:1587  uint(keccak256(\"eip1967.proxy.implementation\")) - 1 */\n      tag_72\n      swap2\n      swap1\n      tag_73\n      jump\t// in\n    tag_72:\n        /* \"contract/UpgradeableProxy.sol\":1528:1588  bytes32(uint(keccak256(\"eip1967.proxy.implementation\")) - 1) */\n      0x00\n      shl\n        /* \"contract/UpgradeableProxy.sol\":2383:2409  StorageSlot.getAddressSlot */\n      tag_32\n        /* \"contract/UpgradeableProxy.sol\":2383:2430  StorageSlot.getAddressSlot(IMPLEMENTATION_SLOT) */\n      jump\t// in\n    tag_71:\n        /* \"contract/UpgradeableProxy.sol\":2383:2436  StorageSlot.getAddressSlot(IMPLEMENTATION_SLOT).value */\n      0x00\n      add\n      0x00\n      swap1\n      sload\n      swap1\n      0x0100\n      exp\n      swap1\n      div\n      0xffffffffffffffffffffffffffffffffffffffff\n      and\n        /* \"contract/UpgradeableProxy.sol\":2376:2436  return StorageSlot.getAddressSlot(IMPLEMENTATION_SLOT).value */\n      swap1\n      pop\n        /* \"contract/UpgradeableProxy.sol\":2304:2444  function _getImplementation() private view returns (address) {... */\n      swap1\n      jump\t// out\n        /* \"contract/UpgradeableProxy.sol\":3239:4995  function _delegate(address _implementation) internal virtual {... */\n    tag_37:\n        /* \"contract/UpgradeableProxy.sol\":3747:3761  calldatasize() */\n      calldatasize\n        /* \"contract/UpgradeableProxy.sol\":3744:3745  0 */\n      0x00\n        /* \"contract/UpgradeableProxy.sol\":3741:3742  0 */\n      dup1\n        /* \"contract/UpgradeableProxy.sol\":3728:3762  calldatacopy(0, 0, calldatasize()) */\n      calldatacopy\n        /* \"contract/UpgradeableProxy.sol\":4293:4294  0 */\n      0x00\n        /* \"contract/UpgradeableProxy.sol\":4290:4291  0 */\n      dup1\n        /* \"contract/UpgradeableProxy.sol\":4274:4288  calldatasize() */\n      calldatasize\n        /* \"contract/UpgradeableProxy.sol\":4271:4272  0 */\n      0x00\n        /* \"contract/UpgradeableProxy.sol\":4254:4269  _implementation */\n      dup5\n        /* \"contract/UpgradeableProxy.sol\":4247:4252  gas() */\n      gas\n        /* \"contract/UpgradeableProxy.sol\":4234:4295  delegatecall(gas(), _implementation, 0, calldatasize(), 0, 0) */\n      delegatecall\n        /* \"contract/UpgradeableProxy.sol\":4541:4557  returndatasize() */\n      returndatasize\n        /* \"contract/UpgradeableProxy.sol\":4538:4539  0 */\n      0x00\n        /* \"contract/UpgradeableProxy.sol\":4535:4536  0 */\n      dup1\n        /* \"contract/UpgradeableProxy.sol\":4520:4558  returndatacopy(0, 0, returndatasize()) */\n      returndatacopy\n        /* \"contract/UpgradeableProxy.sol\":4581:4587  result */\n      dup1\n        /* \"contract/UpgradeableProxy.sol\":4655:4656  0 */\n      0x00\n        /* \"contract/UpgradeableProxy.sol\":4650:4817  case 0 {... */\n      dup2\n      eq\n      tag_76\n      jumpi\n        /* \"contract/UpgradeableProxy.sol\":4945:4961  returndatasize() */\n      returndatasize\n        /* \"contract/UpgradeableProxy.sol\":4942:4943  0 */\n      0x00\n        /* \"contract/UpgradeableProxy.sol\":4935:4962  return(0, returndatasize()) */\n      return\n        /* \"contract/UpgradeableProxy.sol\":4650:4817  case 0 {... */\n    tag_76:\n        /* \"contract/UpgradeableProxy.sol\":4785:4801  returndatasize() */\n      returndatasize\n        /* \"contract/UpgradeableProxy.sol\":4782:4783  0 */\n      0x00\n        /* \"contract/UpgradeableProxy.sol\":4775:4802  revert(0, returndatasize()) */\n      revert\n        /* \"contract/UpgradeableProxy.sol\":1987:2109  function _getAdmin() private view returns (address) {... */\n    tag_40:\n        /* \"contract/UpgradeableProxy.sol\":2030:2037  address */\n      0x00\n        /* \"contract/UpgradeableProxy.sol\":2057:2095  StorageSlot.getAddressSlot(ADMIN_SLOT) */\n      tag_78\n        /* \"contract/UpgradeableProxy.sol\":1766:1767  1 */\n      0x01\n        /* \"contract/UpgradeableProxy.sol\":1730:1762  keccak256(\"eip1967.proxy.admin\") */\n      0xb53127684a568b3173ae13b9f8a6016e243e63b6e8ee1178d6a717850b5d6104\n        /* \"contract/UpgradeableProxy.sol\":1725:1763  uint(keccak256(\"eip1967.proxy.admin\")) */\n      0x00\n      shr\n        /* \"contract/UpgradeableProxy.sol\":1725:1767  uint(keccak256(\"eip1967.proxy.admin\")) - 1 */\n      tag_79\n      swap2\n      swap1\n      tag_73\n      jump\t// in\n    tag_79:\n        /* \"contract/UpgradeableProxy.sol\":1717:1768  bytes32(uint(keccak256(\"eip1967.proxy.admin\")) - 1) */\n      0x00\n      shl\n        /* \"contract/UpgradeableProxy.sol\":2057:2083  StorageSlot.getAddressSlot */\n      tag_32\n        /* \"contract/UpgradeableProxy.sol\":2057:2095  StorageSlot.getAddressSlot(ADMIN_SLOT) */\n      jump\t// in\n    tag_78:\n        /* \"contract/UpgradeableProxy.sol\":2057:2101  StorageSlot.getAddressSlot(ADMIN_SLOT).value */\n      0x00\n      add\n      0x00\n      swap1\n      sload\n      swap1\n      0x0100\n      exp\n      swap1\n      div\n      0xffffffffffffffffffffffffffffffffffffffff\n      and\n        /* \"contract/UpgradeableProxy.sol\":2050:2101  return StorageSlot.getAddressSlot(ADMIN_SLOT).value */\n      swap1\n      pop\n        /* \"contract/UpgradeableProxy.sol\":1987:2109  function _getAdmin() private view returns (address) {... */\n      swap1\n      jump\t// out\n        /* \"contract/UpgradeableProxy.sol\":2452:2688  function _setImplementation(address _implementation) private {... */\n    tag_44:\n        /* \"contract/UpgradeableProxy.sol\":2562:2563  0 */\n      0x00\n        /* \"contract/UpgradeableProxy.sol\":2532:2547  _implementation */\n      dup2\n        /* \"contract/UpgradeableProxy.sol\":2532:2559  _implementation.code.length */\n      0xffffffffffffffffffffffffffffffffffffffff\n      and\n      extcodesize\n        /* \"contract/UpgradeableProxy.sol\":2532:2563  _implementation.code.length > 0 */\n      gt\n        /* \"contract/UpgradeableProxy.sol\":2524:2598  require(_implementation.code.length > 0, \"implementation is not contract\") */\n      tag_81\n      jumpi\n      mload(0x40)\n      0x08c379a000000000000000000000000000000000000000000000000000000000\n      dup2\n      mstore\n      0x04\n      add\n      tag_82\n      swap1\n      tag_83\n      jump\t// in\n    tag_82:\n      mload(0x40)\n      dup1\n      swap2\n      sub\n      swap1\n      revert\n    tag_81:\n        /* \"contract/UpgradeableProxy.sol\":2665:2680  _implementation */\n      dup1\n        /* \"contract/UpgradeableProxy.sol\":2609:2656  StorageSlot.getAddressSlot(IMPLEMENTATION_SLOT) */\n      tag_84\n        /* \"contract/UpgradeableProxy.sol\":1586:1587  1 */\n      0x01\n        /* \"contract/UpgradeableProxy.sol\":1541:1582  keccak256(\"eip1967.proxy.implementation\") */\n      0x360894a13ba1a3210667c828492db98dca3e2076cc3735a920a3ca505d382bbd\n        /* \"contract/UpgradeableProxy.sol\":1536:1583  uint(keccak256(\"eip1967.proxy.implementation\")) */\n      0x00\n      shr\n        /* \"contract/UpgradeableProxy.sol\":1536:1587  uint(keccak256(\"eip1967.proxy.implementation\")) - 1 */\n      tag_85\n      swap2\n      swap1\n      tag_73\n      jump\t// in\n    tag_85:\n        /* \"contract/UpgradeableProxy.sol\":1528:1588  bytes32(uint(keccak256(\"eip1967.proxy.implementation\")) - 1) */\n      0x00\n      shl\n        /* \"contract/UpgradeableProxy.sol\":2609:2635  StorageSlot.getAddressSlot */\n      tag_32\n        /* \"contract/UpgradeableProxy.sol\":2609:2656  StorageSlot.getAddressSlot(IMPLEMENTATION_SLOT) */\n      jump\t// in\n    tag_84:\n        /* \"contract/UpgradeableProxy.sol\":2609:2662  StorageSlot.getAddressSlot(IMPLEMENTATION_SLOT).value */\n      0x00\n      add\n      0x00\n        /* \"contract/UpgradeableProxy.sol\":2609:2680  StorageSlot.getAddressSlot(IMPLEMENTATION_SLOT).value = _implementation */\n      0x0100\n      exp\n      dup2\n      sload\n      dup2\n      0xffffffffffffffffffffffffffffffffffffffff\n      mul\n      not\n      and\n      swap1\n      dup4\n      0xffffffffffffffffffffffffffffffffffffffff\n      and\n      mul\n      or\n      swap1\n      sstore\n      pop\n        /* \"contract/UpgradeableProxy.sol\":2452:2688  function _setImplementation(address _implementation) private {... */\n      pop\n      jump\t// out\n        /* \"contract/UpgradeableProxy.sol\":2117:2296  function _setAdmin(address _admin) private {... */\n    tag_59:\n        /* \"contract/UpgradeableProxy.sol\":2197:2198  0 */\n      0x00\n        /* \"contract/UpgradeableProxy.sol\":2179:2199  _admin != address(0) */\n      0xffffffffffffffffffffffffffffffffffffffff\n      and\n        /* \"contract/UpgradeableProxy.sol\":2179:2185  _admin */\n      dup2\n        /* \"contract/UpgradeableProxy.sol\":2179:2199  _admin != address(0) */\n      0xffffffffffffffffffffffffffffffffffffffff\n      and\n      sub\n        /* \"contract/UpgradeableProxy.sol\":2171:2224  require(_admin != address(0), \"admin = zero address\") */\n      tag_87\n      jumpi\n      mload(0x40)\n      0x08c379a000000000000000000000000000000000000000000000000000000000\n      dup2\n      mstore\n      0x04\n      add\n      tag_88\n      swap1\n      tag_89\n      jump\t// in\n    tag_88:\n      mload(0x40)\n      dup1\n      swap2\n      sub\n      swap1\n      revert\n    tag_87:\n        /* \"contract/UpgradeableProxy.sol\":2282:2288  _admin */\n      dup1\n        /* \"contract/UpgradeableProxy.sol\":2235:2273  StorageSlot.getAddressSlot(ADMIN_SLOT) */\n      tag_90\n        /* \"contract/UpgradeableProxy.sol\":1766:1767  1 */\n      0x01\n        /* \"contract/UpgradeableProxy.sol\":1730:1762  keccak256(\"eip1967.proxy.admin\") */\n      0xb53127684a568b3173ae13b9f8a6016e243e63b6e8ee1178d6a717850b5d6104\n        /* \"contract/UpgradeableProxy.sol\":1725:1763  uint(keccak256(\"eip1967.proxy.admin\")) */\n      0x00\n      shr\n        /* \"contract/UpgradeableProxy.sol\":1725:1767  uint(keccak256(\"eip1967.proxy.admin\")) - 1 */\n      tag_91\n      swap2\n      swap1\n      tag_73\n      jump\t// in\n    tag_91:\n        /* \"contract/UpgradeableProxy.sol\":1717:1768  bytes32(uint(keccak256(\"eip1967.proxy.admin\")) - 1) */\n      0x00\n      shl\n        /* \"contract/UpgradeableProxy.sol\":2235:2261  StorageSlot.getAddressSlot */\n      tag_32\n        /* \"contract/UpgradeableProxy.sol\":2235:2273  StorageSlot.getAddressSlot(ADMIN_SLOT) */\n      jump\t// in\n    tag_90:\n        /* \"contract/UpgradeableProxy.sol\":2235:2279  StorageSlot.getAddressSlot(ADMIN_SLOT).value */\n      0x00\n      add\n      0x00\n        /* \"contract/UpgradeableProxy.sol\":2235:2288  StorageSlot.getAddressSlot(ADMIN_SLOT).value = _admin */\n      0x0100\n      exp\n      dup2\n      sload\n      dup2\n      0xffffffffffffffffffffffffffffffffffffffff\n      mul\n      not\n      and\n      swap1\n      dup4\n      0xffffffffffffffffffffffffffffffffffffffff\n      and\n      mul\n      or\n      swap1\n      sstore\n      pop\n        /* \"contract/UpgradeableProxy.sol\":2117:2296  function _setAdmin(address _admin) private {... */\n      pop\n      jump\t// out\n        /* \"#utility.yul\":88:205   */\n    tag_93:\n        /* \"#utility.yul\":197:198   */\n      0x00\n        /* \"#utility.yul\":194:195   */\n      dup1\n        /* \"#utility.yul\":187:199   */\n      revert\n        /* \"#utility.yul\":334:460   */\n    tag_95:\n        /* \"#utility.yul\":371:378   */\n      0x00\n        /* \"#utility.yul\":411:453   */\n      0xffffffffffffffffffffffffffffffffffffffff\n        /* \"#utility.yul\":404:409   */\n      dup3\n        /* \"#utility.yul\":400:454   */\n      and\n        /* \"#utility.yul\":389:454   */\n      swap1\n      pop\n        /* \"#utility.yul\":334:460   */\n      swap2\n      swap1\n      pop\n      jump\t// out\n        /* \"#utility.yul\":466:562   */\n    tag_96:\n        /* \"#utility.yul\":503:510   */\n      0x00\n        /* \"#utility.yul\":532:556   */\n      tag_113\n        /* \"#utility.yul\":550:555   */\n      dup3\n        /* \"#utility.yul\":532:556   */\n      tag_95\n      jump\t// in\n    tag_113:\n        /* \"#utility.yul\":521:556   */\n      swap1\n      pop\n        /* \"#utility.yul\":466:562   */\n      swap2\n      swap1\n      pop\n      jump\t// out\n        /* \"#utility.yul\":568:690   */\n    tag_97:\n        /* \"#utility.yul\":641:665   */\n      tag_115\n        /* \"#utility.yul\":659:664   */\n      dup2\n        /* \"#utility.yul\":641:665   */\n      tag_96\n      jump\t// in\n    tag_115:\n        /* \"#utility.yul\":634:639   */\n      dup2\n        /* \"#utility.yul\":631:666   */\n      eq\n        /* \"#utility.yul\":621:684   */\n      tag_116\n      jumpi\n        /* \"#utility.yul\":680:681   */\n      0x00\n        /* \"#utility.yul\":677:678   */\n      dup1\n        /* \"#utility.yul\":670:682   */\n      revert\n        /* \"#utility.yul\":621:684   */\n    tag_116:\n        /* \"#utility.yul\":568:690   */\n      pop\n      jump\t// out\n        /* \"#utility.yul\":696:835   */\n    tag_98:\n        /* \"#utility.yul\":742:747   */\n      0x00\n        /* \"#utility.yul\":780:786   */\n      dup2\n        /* \"#utility.yul\":767:787   */\n      calldataload\n        /* \"#utility.yul\":758:787   */\n      swap1\n      pop\n        /* \"#utility.yul\":796:829   */\n      tag_118\n        /* \"#utility.yul\":823:828   */\n      dup2\n        /* \"#utility.yul\":796:829   */\n      tag_97\n      jump\t// in\n    tag_118:\n        /* \"#utility.yul\":696:835   */\n      swap3\n      swap2\n      pop\n      pop\n      jump\t// out\n        /* \"#utility.yul\":841:1170   */\n    tag_17:\n        /* \"#utility.yul\":900:906   */\n      0x00\n        /* \"#utility.yul\":949:951   */\n      0x20\n        /* \"#utility.yul\":937:946   */\n      dup3\n        /* \"#utility.yul\":928:935   */\n      dup5\n        /* \"#utility.yul\":924:947   */\n      sub\n        /* \"#utility.yul\":920:952   */\n      slt\n        /* \"#utility.yul\":917:1036   */\n      iszero\n      tag_120\n      jumpi\n        /* \"#utility.yul\":955:1034   */\n      tag_121\n      tag_93\n      jump\t// in\n    tag_121:\n        /* \"#utility.yul\":917:1036   */\n    tag_120:\n        /* \"#utility.yul\":1075:1076   */\n      0x00\n        /* \"#utility.yul\":1100:1153   */\n      tag_122\n        /* \"#utility.yul\":1145:1152   */\n      dup5\n        /* \"#utility.yul\":1136:1142   */\n      dup3\n        /* \"#utility.yul\":1125:1134   */\n      dup6\n        /* \"#utility.yul\":1121:1143   */\n      add\n        /* \"#utility.yul\":1100:1153   */\n      tag_98\n      jump\t// in\n    tag_122:\n        /* \"#utility.yul\":1090:1153   */\n      swap2\n      pop\n        /* \"#utility.yul\":1046:1163   */\n      pop\n        /* \"#utility.yul\":841:1170   */\n      swap3\n      swap2\n      pop\n      pop\n      jump\t// out\n        /* \"#utility.yul\":1176:1294   */\n    tag_99:\n        /* \"#utility.yul\":1263:1287   */\n      tag_124\n        /* \"#utility.yul\":1281:1286   */\n      dup2\n        /* \"#utility.yul\":1263:1287   */\n      tag_96\n      jump\t// in\n    tag_124:\n        /* \"#utility.yul\":1258:1261   */\n      dup3\n        /* \"#utility.yul\":1251:1288   */\n      mstore\n        /* \"#utility.yul\":1176:1294   */\n      pop\n      pop\n      jump\t// out\n        /* \"#utility.yul\":1300:1522   */\n    tag_23:\n        /* \"#utility.yul\":1393:1397   */\n      0x00\n        /* \"#utility.yul\":1431:1433   */\n      0x20\n        /* \"#utility.yul\":1420:1429   */\n      dup3\n        /* \"#utility.yul\":1416:1434   */\n      add\n        /* \"#utility.yul\":1408:1434   */\n      swap1\n      pop\n        /* \"#utility.yul\":1444:1515   */\n      tag_126\n        /* \"#utility.yul\":1512:1513   */\n      0x00\n        /* \"#utility.yul\":1501:1510   */\n      dup4\n        /* \"#utility.yul\":1497:1514   */\n      add\n        /* \"#utility.yul\":1488:1494   */\n      dup5\n        /* \"#utility.yul\":1444:1515   */\n      tag_99\n      jump\t// in\n    tag_126:\n        /* \"#utility.yul\":1300:1522   */\n      swap3\n      swap2\n      pop\n      pop\n      jump\t// out\n        /* \"#utility.yul\":1528:1605   */\n    tag_100:\n        /* \"#utility.yul\":1565:1572   */\n      0x00\n        /* \"#utility.yul\":1594:1599   */\n      dup2\n        /* \"#utility.yul\":1583:1599   */\n      swap1\n      pop\n        /* \"#utility.yul\":1528:1605   */\n      swap2\n      swap1\n      pop\n      jump\t// out\n        /* \"#utility.yul\":1611:1791   */\n    tag_101:\n        /* \"#utility.yul\":1659:1736   */\n      0x4e487b7100000000000000000000000000000000000000000000000000000000\n        /* \"#utility.yul\":1656:1657   */\n      0x00\n        /* \"#utility.yul\":1649:1737   */\n      mstore\n        /* \"#utility.yul\":1756:1760   */\n      0x11\n        /* \"#utility.yul\":1753:1754   */\n      0x04\n        /* \"#utility.yul\":1746:1761   */\n      mstore\n        /* \"#utility.yul\":1780:1784   */\n      0x24\n        /* \"#utility.yul\":1777:1778   */\n      0x00\n        /* \"#utility.yul\":1770:1785   */\n      revert\n        /* \"#utility.yul\":1797:1991   */\n    tag_73:\n        /* \"#utility.yul\":1837:1841   */\n      0x00\n        /* \"#utility.yul\":1857:1877   */\n      tag_130\n        /* \"#utility.yul\":1875:1876   */\n      dup3\n        /* \"#utility.yul\":1857:1877   */\n      tag_100\n      jump\t// in\n    tag_130:\n        /* \"#utility.yul\":1852:1877   */\n      swap2\n      pop\n        /* \"#utility.yul\":1891:1911   */\n      tag_131\n        /* \"#utility.yul\":1909:1910   */\n      dup4\n        /* \"#utility.yul\":1891:1911   */\n      tag_100\n      jump\t// in\n    tag_131:\n        /* \"#utility.yul\":1886:1911   */\n      swap3\n      pop\n        /* \"#utility.yul\":1935:1936   */\n      dup3\n        /* \"#utility.yul\":1932:1933   */\n      dup3\n        /* \"#utility.yul\":1928:1937   */\n      sub\n        /* \"#utility.yul\":1920:1937   */\n      swap1\n      pop\n        /* \"#utility.yul\":1959:1960   */\n      dup2\n        /* \"#utility.yul\":1953:1957   */\n      dup2\n        /* \"#utility.yul\":1950:1961   */\n      gt\n        /* \"#utility.yul\":1947:1984   */\n      iszero\n      tag_132\n      jumpi\n        /* \"#utility.yul\":1964:1982   */\n      tag_133\n      tag_101\n      jump\t// in\n    tag_133:\n        /* \"#utility.yul\":1947:1984   */\n    tag_132:\n        /* \"#utility.yul\":1797:1991   */\n      swap3\n      swap2\n      pop\n      pop\n      jump\t// out\n        /* \"#utility.yul\":1997:2166   */\n    tag_102:\n        /* \"#utility.yul\":2081:2092   */\n      0x00\n        /* \"#utility.yul\":2115:2121   */\n      dup3\n        /* \"#utility.yul\":2110:2113   */\n      dup3\n        /* \"#utility.yul\":2103:2122   */\n      mstore\n        /* \"#utility.yul\":2155:2159   */\n      0x20\n        /* \"#utility.yul\":2150:2153   */\n      dup3\n        /* \"#utility.yul\":2146:2160   */\n      add\n        /* \"#utility.yul\":2131:2160   */\n      swap1\n      pop\n        /* \"#utility.yul\":1997:2166   */\n      swap3\n      swap2\n      pop\n      pop\n      jump\t// out\n        /* \"#utility.yul\":2172:2352   */\n    tag_103:\n        /* \"#utility.yul\":2312:2344   */\n      0x696d706c656d656e746174696f6e206973206e6f7420636f6e74726163740000\n        /* \"#utility.yul\":2308:2309   */\n      0x00\n        /* \"#utility.yul\":2300:2306   */\n      dup3\n        /* \"#utility.yul\":2296:2310   */\n      add\n        /* \"#utility.yul\":2289:2345   */\n      mstore\n        /* \"#utility.yul\":2172:2352   */\n      pop\n      jump\t// out\n        /* \"#utility.yul\":2358:2724   */\n    tag_104:\n        /* \"#utility.yul\":2500:2503   */\n      0x00\n        /* \"#utility.yul\":2521:2588   */\n      tag_137\n        /* \"#utility.yul\":2585:2587   */\n      0x1e\n        /* \"#utility.yul\":2580:2583   */\n      dup4\n        /* \"#utility.yul\":2521:2588   */\n      tag_102\n      jump\t// in\n    tag_137:\n        /* \"#utility.yul\":2514:2588   */\n      swap2\n      pop\n        /* \"#utility.yul\":2597:2690   */\n      tag_138\n        /* \"#utility.yul\":2686:2689   */\n      dup3\n        /* \"#utility.yul\":2597:2690   */\n      tag_103\n      jump\t// in\n    tag_138:\n        /* \"#utility.yul\":2715:2717   */\n      0x20\n        /* \"#utility.yul\":2710:2713   */\n      dup3\n        /* \"#utility.yul\":2706:2718   */\n      add\n        /* \"#utility.yul\":2699:2718   */\n      swap1\n      pop\n        /* \"#utility.yul\":2358:2724   */\n      swap2\n      swap1\n      pop\n      jump\t// out\n        /* \"#utility.yul\":2730:3149   */\n    tag_83:\n        /* \"#utility.yul\":2896:2900   */\n      0x00\n        /* \"#utility.yul\":2934:2936   */\n      0x20\n        /* \"#utility.yul\":2923:2932   */\n      dup3\n        /* \"#utility.yul\":2919:2937   */\n      add\n        /* \"#utility.yul\":2911:2937   */\n      swap1\n      pop\n        /* \"#utility.yul\":2983:2992   */\n      dup2\n        /* \"#utility.yul\":2977:2981   */\n      dup2\n        /* \"#utility.yul\":2973:2993   */\n      sub\n        /* \"#utility.yul\":2969:2970   */\n      0x00\n        /* \"#utility.yul\":2958:2967   */\n      dup4\n        /* \"#utility.yul\":2954:2971   */\n      add\n        /* \"#utility.yul\":2947:2994   */\n      mstore\n        /* \"#utility.yul\":3011:3142   */\n      tag_140\n        /* \"#utility.yul\":3137:3141   */\n      dup2\n        /* \"#utility.yul\":3011:3142   */\n      tag_104\n      jump\t// in\n    tag_140:\n        /* \"#utility.yul\":3003:3142   */\n      swap1\n      pop\n        /* \"#utility.yul\":2730:3149   */\n      swap2\n      swap1\n      pop\n      jump\t// out\n        /* \"#utility.yul\":3155:3325   */\n    tag_105:\n        /* \"#utility.yul\":3295:3317   */\n      0x61646d696e203d207a65726f2061646472657373000000000000000000000000\n        /* \"#utility.yul\":3291:3292   */\n      0x00\n        /* \"#utility.yul\":3283:3289   */\n      dup3\n        /* \"#utility.yul\":3279:3293   */\n      add\n        /* \"#utility.yul\":3272:3318   */\n      mstore\n        /* \"#utility.yul\":3155:3325   */\n      pop\n      jump\t// out\n        /* \"#utility.yul\":3331:3697   */\n    tag_106:\n        /* \"#utility.yul\":3473:3476   */\n      0x00\n        /* \"#utility.yul\":3494:3561   */\n      tag_143\n        /* \"#utility.yul\":3558:3560   */\n      0x14\n        /* \"#utility.yul\":3553:3556   */\n      dup4\n        /* \"#utility.yul\":3494:3561   */\n      tag_102\n      jump\t// in\n    tag_143:\n        /* \"#utility.yul\":3487:3561   */\n      swap2\n      pop\n        /* \"#utility.yul\":3570:3663   */\n      tag_144\n        /* \"#utility.yul\":3659:3662   */\n      dup3\n        /* \"#utility.yul\":3570:3663   */\n      tag_105\n      jump\t// in\n    tag_144:\n        /* \"#utility.yul\":3688:3690   */\n      0x20\n        /* \"#utility.yul\":3683:3686   */\n      dup3\n        /* \"#utility.yul\":3679:3691   */\n      add\n        /* \"#utility.yul\":3672:3691   */\n      swap1\n      pop\n        /* \"#utility.yul\":3331:3697   */\n      swap2\n      swap1\n      pop\n      jump\t// out\n        /* \"#utility.yul\":3703:4122   */\n    tag_89:\n        /* \"#utility.yul\":3869:3873   */\n      0x00\n        /* \"#utility.yul\":3907:3909   */\n      0x20\n        /* \"#utility.yul\":3896:3905   */\n      dup3\n        /* \"#utility.yul\":3892:3910   */\n      add\n        /* \"#utility.yul\":3884:3910   */\n      swap1\n      pop\n        /* \"#utility.yul\":3956:3965   */\n      dup2\n        /* \"#utility.yul\":3950:3954   */\n      dup2\n        /* \"#utility.yul\":3946:3966   */\n      sub\n        /* \"#utility.yul\":3942:3943   */\n      0x00\n        /* \"#utility.yul\":3931:3940   */\n      dup4\n        /* \"#utility.yul\":3927:3944   */\n      add\n        /* \"#utility.yul\":3920:3967   */\n      mstore\n        /* \"#utility.yul\":3984:4115   */\n      tag_146\n        /* \"#utility.yul\":4110:4114   */\n      dup2\n        /* \"#utility.yul\":3984:4115   */\n      tag_106\n      jump\t// in\n    tag_146:\n        /* \"#utility.yul\":3976:4115   */\n      swap1\n      pop\n        /* \"#utility.yul\":3703:4122   */\n      swap2\n      swap1\n      pop\n      jump\t// out\n\n    auxdata: 0xa2646970667358221220f336da01858c95534c0335f7f0bb27c31284946a54484c616ed8b2e506e762c264736f6c63430008110033\n}\n",
				"bytecode": {
					"linkReferences": {},
					"object": "608060405234801561001057600080fd5b506100203361002560201b60201c565b610212565b600073ffffffffffffffffffffffffffffffffffffffff168173ffffffffffffffffffffffffffffffffffffffff1603610094576040517f08c379a000000000000000000000000000000000000000000000000000000000815260040161008b90610185565b60405180910390fd5b806100da60017fb53127684a568b3173ae13b9f8a6016e243e63b6e8ee1178d6a717850b5d610460001c6100c891906101de565b60001b61011e60201b61026c1760201c565b60000160006101000a81548173ffffffffffffffffffffffffffffffffffffffff021916908373ffffffffffffffffffffffffffffffffffffffff16021790555050565b6000819050919050565b600082825260208201905092915050565b7f61646d696e203d207a65726f2061646472657373000000000000000000000000600082015250565b600061016f601483610128565b915061017a82610139565b602082019050919050565b6000602082019050818103600083015261019e81610162565b9050919050565b6000819050919050565b7f4e487b7100000000000000000000000000000000000000000000000000000000600052601160045260246000fd5b60006101e9826101a5565b91506101f4836101a5565b925082820390508181111561020c5761020b6101af565b5b92915050565b610777806102216000396000f3fe6080604052600436106100435760003560e01c80633659cfe61461005c5780635c60da1b146100855780638f283970146100b0578063f851a440146100d957610052565b3661005257610050610104565b005b61005a610104565b005b34801561006857600080fd5b50610083600480360381019061007e9190610594565b610116565b005b34801561009157600080fd5b5061009a61016a565b6040516100a791906105d0565b60405180910390f35b3480156100bc57600080fd5b506100d760048036038101906100d29190610594565b6101c1565b005b3480156100e557600080fd5b506100ee610215565b6040516100fb91906105d0565b60405180910390f35b61011461010f610276565b6102dc565b565b61011e610302565b73ffffffffffffffffffffffffffffffffffffffff163373ffffffffffffffffffffffffffffffffffffffff160361015e5761015981610368565b610167565b610166610104565b5b50565b6000610174610302565b73ffffffffffffffffffffffffffffffffffffffff163373ffffffffffffffffffffffffffffffffffffffff16036101b5576101ae610276565b90506101be565b6101bd610104565b5b90565b6101c9610302565b73ffffffffffffffffffffffffffffffffffffffff163373ffffffffffffffffffffffffffffffffffffffff16036102095761020481610442565b610212565b610211610104565b5b50565b600061021f610302565b73ffffffffffffffffffffffffffffffffffffffff163373ffffffffffffffffffffffffffffffffffffffff160361026057610259610302565b9050610269565b610268610104565b5b90565b6000819050919050565b60006102b360017f360894a13ba1a3210667c828492db98dca3e2076cc3735a920a3ca505d382bbd60001c6102ab9190610624565b60001b61026c565b60000160009054906101000a900473ffffffffffffffffffffffffffffffffffffffff16905090565b3660008037600080366000845af43d6000803e80600081146102fd573d6000f35b3d6000fd5b600061033f60017fb53127684a568b3173ae13b9f8a6016e243e63b6e8ee1178d6a717850b5d610460001c6103379190610624565b60001b61026c565b60000160009054906101000a900473ffffffffffffffffffffffffffffffffffffffff16905090565b60008173ffffffffffffffffffffffffffffffffffffffff163b116103c2576040517f08c379a00000000000000000000000000000000000000000000000000000000081526004016103b9906106b5565b60405180910390fd5b806103fe60017f360894a13ba1a3210667c828492db98dca3e2076cc3735a920a3ca505d382bbd60001c6103f69190610624565b60001b61026c565b60000160006101000a81548173ffffffffffffffffffffffffffffffffffffffff021916908373ffffffffffffffffffffffffffffffffffffffff16021790555050565b600073ffffffffffffffffffffffffffffffffffffffff168173ffffffffffffffffffffffffffffffffffffffff16036104b1576040517f08c379a00000000000000000000000000000000000000000000000000000000081526004016104a890610721565b60405180910390fd5b806104ed60017fb53127684a568b3173ae13b9f8a6016e243e63b6e8ee1178d6a717850b5d610460001c6104e59190610624565b60001b61026c565b60000160006101000a81548173ffffffffffffffffffffffffffffffffffffffff021916908373ffffffffffffffffffffffffffffffffffffffff16021790555050565b600080fd5b600073ffffffffffffffffffffffffffffffffffffffff82169050919050565b600061056182610536565b9050919050565b61057181610556565b811461057c57600080fd5b50565b60008135905061058e81610568565b92915050565b6000602082840312156105aa576105a9610531565b5b60006105b88482850161057f565b91505092915050565b6105ca81610556565b82525050565b60006020820190506105e560008301846105c1565b92915050565b6000819050919050565b7f4e487b7100000000000000000000000000000000000000000000000000000000600052601160045260246000fd5b600061062f826105eb565b915061063a836105eb565b9250828203905081811115610652576106516105f5565b5b92915050565b600082825260208201905092915050565b7f696d706c656d656e746174696f6e206973206e6f7420636f6e74726163740000600082015250565b600061069f601e83610658565b91506106aa82610669565b602082019050919050565b600060208201905081810360008301526106ce81610692565b9050919050565b7f61646d696e203d207a65726f2061646472657373000000000000000000000000600082015250565b600061070b601483610658565b9150610716826106d5565b602082019050919050565b6000602082019050818103600083015261073a816106fe565b905091905056fea2646970667358221220f336da01858c95534c0335f7f0bb27c31284946a54484c616ed8b2e506e762c264736f6c63430008110033",
					"opcodes": "PUSH1 0x80 PUSH1 0x40 MSTORE CALLVALUE DUP1 ISZERO PUSH2 0x10 JUMPI PUSH1 0x0 DUP1 REVERT JUMPDEST POP PUSH2 0x20 CALLER PUSH2 0x25 PUSH1 0x20 SHL PUSH1 0x20 SHR JUMP JUMPDEST PUSH2 0x212 JUMP JUMPDEST PUSH1 0x0 PUSH20 0xFFFFFFFFFFFFFFFFFFFFFFFFFFFFFFFFFFFFFFFF AND DUP2 PUSH20 0xFFFFFFFFFFFFFFFFFFFFFFFFFFFFFFFFFFFFFFFF AND SUB PUSH2 0x94 JUMPI PUSH1 0x40 MLOAD PUSH32 0x8C379A000000000000000000000000000000000000000000000000000000000 DUP2 MSTORE PUSH1 0x4 ADD PUSH2 0x8B SWAP1 PUSH2 0x185 JUMP JUMPDEST PUSH1 0x40 MLOAD DUP1 SWAP2 SUB SWAP1 REVERT JUMPDEST DUP1 PUSH2 0xDA PUSH1 0x1 PUSH32 0xB53127684A568B3173AE13B9F8A6016E243E63B6E8EE1178D6A717850B5D6104 PUSH1 0x0 SHR PUSH2 0xC8 SWAP2 SWAP1 PUSH2 0x1DE JUMP JUMPDEST PUSH1 0x0 SHL PUSH2 0x11E PUSH1 0x20 SHL PUSH2 0x26C OR PUSH1 0x20 SHR JUMP JUMPDEST PUSH1 0x0 ADD PUSH1 0x0 PUSH2 0x100 EXP DUP2 SLOAD DUP2 PUSH20 0xFFFFFFFFFFFFFFFFFFFFFFFFFFFFFFFFFFFFFFFF MUL NOT AND SWAP1 DUP4 PUSH20 0xFFFFFFFFFFFFFFFFFFFFFFFFFFFFFFFFFFFFFFFF AND MUL OR SWAP1 SSTORE POP POP JUMP JUMPDEST PUSH1 0x0 DUP2 SWAP1 POP SWAP2 SWAP1 POP JUMP JUMPDEST PUSH1 0x0 DUP3 DUP3 MSTORE PUSH1 0x20 DUP3 ADD SWAP1 POP SWAP3 SWAP2 POP POP JUMP JUMPDEST PUSH32 0x61646D696E203D207A65726F2061646472657373000000000000000000000000 PUSH1 0x0 DUP3 ADD MSTORE POP JUMP JUMPDEST PUSH1 0x0 PUSH2 0x16F PUSH1 0x14 DUP4 PUSH2 0x128 JUMP JUMPDEST SWAP2 POP PUSH2 0x17A DUP3 PUSH2 0x139 JUMP JUMPDEST PUSH1 0x20 DUP3 ADD SWAP1 POP SWAP2 SWAP1 POP JUMP JUMPDEST PUSH1 0x0 PUSH1 0x20 DUP3 ADD SWAP1 POP DUP2 DUP2 SUB PUSH1 0x0 DUP4 ADD MSTORE PUSH2 0x19E DUP2 PUSH2 0x162 JUMP JUMPDEST SWAP1 POP SWAP2 SWAP1 POP JUMP JUMPDEST PUSH1 0x0 DUP2 SWAP1 POP SWAP2 SWAP1 POP JUMP JUMPDEST PUSH32 0x4E487B7100000000000000000000000000000000000000000000000000000000 PUSH1 0x0 MSTORE PUSH1 0x11 PUSH1 0x4 MSTORE PUSH1 0x24 PUSH1 0x0 REVERT JUMPDEST PUSH1 0x0 PUSH2 0x1E9 DUP3 PUSH2 0x1A5 JUMP JUMPDEST SWAP2 POP PUSH2 0x1F4 DUP4 PUSH2 0x1A5 JUMP JUMPDEST SWAP3 POP DUP3 DUP3 SUB SWAP1 POP DUP2 DUP2 GT ISZERO PUSH2 0x20C JUMPI PUSH2 0x20B PUSH2 0x1AF JUMP JUMPDEST JUMPDEST SWAP3 SWAP2 POP POP JUMP JUMPDEST PUSH2 0x777 DUP1 PUSH2 0x221 PUSH1 0x0 CODECOPY PUSH1 0x0 RETURN INVALID PUSH1 0x80 PUSH1 0x40 MSTORE PUSH1 0x4 CALLDATASIZE LT PUSH2 0x43 JUMPI PUSH1 0x0 CALLDATALOAD PUSH1 0xE0 SHR DUP1 PUSH4 0x3659CFE6 EQ PUSH2 0x5C JUMPI DUP1 PUSH4 0x5C60DA1B EQ PUSH2 0x85 JUMPI DUP1 PUSH4 0x8F283970 EQ PUSH2 0xB0 JUMPI DUP1 PUSH4 0xF851A440 EQ PUSH2 0xD9 JUMPI PUSH2 0x52 JUMP JUMPDEST CALLDATASIZE PUSH2 0x52 JUMPI PUSH2 0x50 PUSH2 0x104 JUMP JUMPDEST STOP JUMPDEST PUSH2 0x5A PUSH2 0x104 JUMP JUMPDEST STOP JUMPDEST CALLVALUE DUP1 ISZERO PUSH2 0x68 JUMPI PUSH1 0x0 DUP1 REVERT JUMPDEST POP PUSH2 0x83 PUSH1 0x4 DUP1 CALLDATASIZE SUB DUP2 ADD SWAP1 PUSH2 0x7E SWAP2 SWAP1 PUSH2 0x594 JUMP JUMPDEST PUSH2 0x116 JUMP JUMPDEST STOP JUMPDEST CALLVALUE DUP1 ISZERO PUSH2 0x91 JUMPI PUSH1 0x0 DUP1 REVERT JUMPDEST POP PUSH2 0x9A PUSH2 0x16A JUMP JUMPDEST PUSH1 0x40 MLOAD PUSH2 0xA7 SWAP2 SWAP1 PUSH2 0x5D0 JUMP JUMPDEST PUSH1 0x40 MLOAD DUP1 SWAP2 SUB SWAP1 RETURN JUMPDEST CALLVALUE DUP1 ISZERO PUSH2 0xBC JUMPI PUSH1 0x0 DUP1 REVERT JUMPDEST POP PUSH2 0xD7 PUSH1 0x4 DUP1 CALLDATASIZE SUB DUP2 ADD SWAP1 PUSH2 0xD2 SWAP2 SWAP1 PUSH2 0x594 JUMP JUMPDEST PUSH2 0x1C1 JUMP JUMPDEST STOP JUMPDEST CALLVALUE DUP1 ISZERO PUSH2 0xE5 JUMPI PUSH1 0x0 DUP1 REVERT JUMPDEST POP PUSH2 0xEE PUSH2 0x215 JUMP JUMPDEST PUSH1 0x40 MLOAD PUSH2 0xFB SWAP2 SWAP1 PUSH2 0x5D0 JUMP JUMPDEST PUSH1 0x40 MLOAD DUP1 SWAP2 SUB SWAP1 RETURN JUMPDEST PUSH2 0x114 PUSH2 0x10F PUSH2 0x276 JUMP JUMPDEST PUSH2 0x2DC JUMP JUMPDEST JUMP JUMPDEST PUSH2 0x11E PUSH2 0x302 JUMP JUMPDEST PUSH20 0xFFFFFFFFFFFFFFFFFFFFFFFFFFFFFFFFFFFFFFFF AND CALLER PUSH20 0xFFFFFFFFFFFFFFFFFFFFFFFFFFFFFFFFFFFFFFFF AND SUB PUSH2 0x15E JUMPI PUSH2 0x159 DUP2 PUSH2 0x368 JUMP JUMPDEST PUSH2 0x167 JUMP JUMPDEST PUSH2 0x166 PUSH2 0x104 JUMP JUMPDEST JUMPDEST POP JUMP JUMPDEST PUSH1 0x0 PUSH2 0x174 PUSH2 0x302 JUMP JUMPDEST PUSH20 0xFFFFFFFFFFFFFFFFFFFFFFFFFFFFFFFFFFFFFFFF AND CALLER PUSH20 0xFFFFFFFFFFFFFFFFFFFFFFFFFFFFFFFFFFFFFFFF AND SUB PUSH2 0x1B5 JUMPI PUSH2 0x1AE PUSH2 0x276 JUMP JUMPDEST SWAP1 POP PUSH2 0x1BE JUMP JUMPDEST PUSH2 0x1BD PUSH2 0x104 JUMP JUMPDEST JUMPDEST SWAP1 JUMP JUMPDEST PUSH2 0x1C9 PUSH2 0x302 JUMP JUMPDEST PUSH20 0xFFFFFFFFFFFFFFFFFFFFFFFFFFFFFFFFFFFFFFFF AND CALLER PUSH20 0xFFFFFFFFFFFFFFFFFFFFFFFFFFFFFFFFFFFFFFFF AND SUB PUSH2 0x209 JUMPI PUSH2 0x204 DUP2 PUSH2 0x442 JUMP JUMPDEST PUSH2 0x212 JUMP JUMPDEST PUSH2 0x211 PUSH2 0x104 JUMP JUMPDEST JUMPDEST POP JUMP JUMPDEST PUSH1 0x0 PUSH2 0x21F PUSH2 0x302 JUMP JUMPDEST PUSH20 0xFFFFFFFFFFFFFFFFFFFFFFFFFFFFFFFFFFFFFFFF AND CALLER PUSH20 0xFFFFFFFFFFFFFFFFFFFFFFFFFFFFFFFFFFFFFFFF AND SUB PUSH2 0x260 JUMPI PUSH2 0x259 PUSH2 0x302 JUMP JUMPDEST SWAP1 POP PUSH2 0x269 JUMP JUMPDEST PUSH2 0x268 PUSH2 0x104 JUMP JUMPDEST JUMPDEST SWAP1 JUMP JUMPDEST PUSH1 0x0 DUP2 SWAP1 POP SWAP2 SWAP1 POP JUMP JUMPDEST PUSH1 0x0 PUSH2 0x2B3 PUSH1 0x1 PUSH32 0x360894A13BA1A3210667C828492DB98DCA3E2076CC3735A920A3CA505D382BBD PUSH1 0x0 SHR PUSH2 0x2AB SWAP2 SWAP1 PUSH2 0x624 JUMP JUMPDEST PUSH1 0x0 SHL PUSH2 0x26C JUMP JUMPDEST PUSH1 0x0 ADD PUSH1 0x0 SWAP1 SLOAD SWAP1 PUSH2 0x100 EXP SWAP1 DIV PUSH20 0xFFFFFFFFFFFFFFFFFFFFFFFFFFFFFFFFFFFFFFFF AND SWAP1 POP SWAP1 JUMP JUMPDEST CALLDATASIZE PUSH1 0x0 DUP1 CALLDATACOPY PUSH1 0x0 DUP1 CALLDATASIZE PUSH1 0x0 DUP5 GAS DELEGATECALL RETURNDATASIZE PUSH1 0x0 DUP1 RETURNDATACOPY DUP1 PUSH1 0x0 DUP2 EQ PUSH2 0x2FD JUMPI RETURNDATASIZE PUSH1 0x0 RETURN JUMPDEST RETURNDATASIZE PUSH1 0x0 REVERT JUMPDEST PUSH1 0x0 PUSH2 0x33F PUSH1 0x1 PUSH32 0xB53127684A568B3173AE13B9F8A6016E243E63B6E8EE1178D6A717850B5D6104 PUSH1 0x0 SHR PUSH2 0x337 SWAP2 SWAP1 PUSH2 0x624 JUMP JUMPDEST PUSH1 0x0 SHL PUSH2 0x26C JUMP JUMPDEST PUSH1 0x0 ADD PUSH1 0x0 SWAP1 SLOAD SWAP1 PUSH2 0x100 EXP SWAP1 DIV PUSH20 0xFFFFFFFFFFFFFFFFFFFFFFFFFFFFFFFFFFFFFFFF AND SWAP1 POP SWAP1 JUMP JUMPDEST PUSH1 0x0 DUP2 PUSH20 0xFFFFFFFFFFFFFFFFFFFFFFFFFFFFFFFFFFFFFFFF AND EXTCODESIZE GT PUSH2 0x3C2 JUMPI PUSH1 0x40 MLOAD PUSH32 0x8C379A000000000000000000000000000000000000000000000000000000000 DUP2 MSTORE PUSH1 0x4 ADD PUSH2 0x3B9 SWAP1 PUSH2 0x6B5 JUMP JUMPDEST PUSH1 0x40 MLOAD DUP1 SWAP2 SUB SWAP1 REVERT JUMPDEST DUP1 PUSH2 0x3FE PUSH1 0x1 PUSH32 0x360894A13BA1A3210667C828492DB98DCA3E2076CC3735A920A3CA505D382BBD PUSH1 0x0 SHR PUSH2 0x3F6 SWAP2 SWAP1 PUSH2 0x624 JUMP JUMPDEST PUSH1 0x0 SHL PUSH2 0x26C JUMP JUMPDEST PUSH1 0x0 ADD PUSH1 0x0 PUSH2 0x100 EXP DUP2 SLOAD DUP2 PUSH20 0xFFFFFFFFFFFFFFFFFFFFFFFFFFFFFFFFFFFFFFFF MUL NOT AND SWAP1 DUP4 PUSH20 0xFFFFFFFFFFFFFFFFFFFFFFFFFFFFFFFFFFFFFFFF AND MUL OR SWAP1 SSTORE POP POP JUMP JUMPDEST PUSH1 0x0 PUSH20 0xFFFFFFFFFFFFFFFFFFFFFFFFFFFFFFFFFFFFFFFF AND DUP2 PUSH20 0xFFFFFFFFFFFFFFFFFFFFFFFFFFFFFFFFFFFFFFFF AND SUB PUSH2 0x4B1 JUMPI PUSH1 0x40 MLOAD PUSH32 0x8C379A000000000000000000000000000000000000000000000000000000000 DUP2 MSTORE PUSH1 0x4 ADD PUSH2 0x4A8 SWAP1 PUSH2 0x721 JUMP JUMPDEST PUSH1 0x40 MLOAD DUP1 SWAP2 SUB SWAP1 REVERT JUMPDEST DUP1 PUSH2 0x4ED PUSH1 0x1 PUSH32 0xB53127684A568B3173AE13B9F8A6016E243E63B6E8EE1178D6A717850B5D6104 PUSH1 0x0 SHR PUSH2 0x4E5 SWAP2 SWAP1 PUSH2 0x624 JUMP JUMPDEST PUSH1 0x0 SHL PUSH2 0x26C JUMP JUMPDEST PUSH1 0x0 ADD PUSH1 0x0 PUSH2 0x100 EXP DUP2 SLOAD DUP2 PUSH20 0xFFFFFFFFFFFFFFFFFFFFFFFFFFFFFFFFFFFFFFFF MUL NOT AND SWAP1 DUP4 PUSH20 0xFFFFFFFFFFFFFFFFFFFFFFFFFFFFFFFFFFFFFFFF AND MUL OR SWAP1 SSTORE POP POP JUMP JUMPDEST PUSH1 0x0 DUP1 REVERT JUMPDEST PUSH1 0x0 PUSH20 0xFFFFFFFFFFFFFFFFFFFFFFFFFFFFFFFFFFFFFFFF DUP3 AND SWAP1 POP SWAP2 SWAP1 POP JUMP JUMPDEST PUSH1 0x0 PUSH2 0x561 DUP3 PUSH2 0x536 JUMP JUMPDEST SWAP1 POP SWAP2 SWAP1 POP JUMP JUMPDEST PUSH2 0x571 DUP2 PUSH2 0x556 JUMP JUMPDEST DUP2 EQ PUSH2 0x57C JUMPI PUSH1 0x0 DUP1 REVERT JUMPDEST POP JUMP JUMPDEST PUSH1 0x0 DUP2 CALLDATALOAD SWAP1 POP PUSH2 0x58E DUP2 PUSH2 0x568 JUMP JUMPDEST SWAP3 SWAP2 POP POP JUMP JUMPDEST PUSH1 0x0 PUSH1 0x20 DUP3 DUP5 SUB SLT ISZERO PUSH2 0x5AA JUMPI PUSH2 0x5A9 PUSH2 0x531 JUMP JUMPDEST JUMPDEST PUSH1 0x0 PUSH2 0x5B8 DUP5 DUP3 DUP6 ADD PUSH2 0x57F JUMP JUMPDEST SWAP2 POP POP SWAP3 SWAP2 POP POP JUMP JUMPDEST PUSH2 0x5CA DUP2 PUSH2 0x556 JUMP JUMPDEST DUP3 MSTORE POP POP JUMP JUMPDEST PUSH1 0x0 PUSH1 0x20 DUP3 ADD SWAP1 POP PUSH2 0x5E5 PUSH1 0x0 DUP4 ADD DUP5 PUSH2 0x5C1 JUMP JUMPDEST SWAP3 SWAP2 POP POP JUMP JUMPDEST PUSH1 0x0 DUP2 SWAP1 POP SWAP2 SWAP1 POP JUMP JUMPDEST PUSH32 0x4E487B7100000000000000000000000000000000000000000000000000000000 PUSH1 0x0 MSTORE PUSH1 0x11 PUSH1 0x4 MSTORE PUSH1 0x24 PUSH1 0x0 REVERT JUMPDEST PUSH1 0x0 PUSH2 0x62F DUP3 PUSH2 0x5EB JUMP JUMPDEST SWAP2 POP PUSH2 0x63A DUP4 PUSH2 0x5EB JUMP JUMPDEST SWAP3 POP DUP3 DUP3 SUB SWAP1 POP DUP2 DUP2 GT ISZERO PUSH2 0x652 JUMPI PUSH2 0x651 PUSH2 0x5F5 JUMP JUMPDEST JUMPDEST SWAP3 SWAP2 POP POP JUMP JUMPDEST PUSH1 0x0 DUP3 DUP3 MSTORE PUSH1 0x20 DUP3 ADD SWAP1 POP SWAP3 SWAP2 POP POP JUMP JUMPDEST PUSH32 0x696D706C656D656E746174696F6E206973206E6F7420636F6E74726163740000 PUSH1 0x0 DUP3 ADD MSTORE POP JUMP JUMPDEST PUSH1 0x0 PUSH2 0x69F PUSH1 0x1E DUP4 PUSH2 0x658 JUMP JUMPDEST SWAP2 POP PUSH2 0x6AA DUP3 PUSH2 0x669 JUMP JUMPDEST PUSH1 0x20 DUP3 ADD SWAP1 POP SWAP2 SWAP1 POP JUMP JUMPDEST PUSH1 0x0 PUSH1 0x20 DUP3 ADD SWAP1 POP DUP2 DUP2 SUB PUSH1 0x0 DUP4 ADD MSTORE PUSH2 0x6CE DUP2 PUSH2 0x692 JUMP JUMPDEST SWAP1 POP SWAP2 SWAP1 POP JUMP JUMPDEST PUSH32 0x61646D696E203D207A65726F2061646472657373000000000000000000000000 PUSH1 0x0 DUP3 ADD MSTORE POP JUMP JUMPDEST PUSH1 0x0 PUSH2 0x70B PUSH1 0x14 DUP4 PUSH2 0x658 JUMP JUMPDEST SWAP2 POP PUSH2 0x716 DUP3 PUSH2 0x6D5 JUMP JUMPDEST PUSH1 0x20 DUP3 ADD SWAP1 POP SWAP2 SWAP1 POP JUMP JUMPDEST PUSH1 0x0 PUSH1 0x20 DUP3 ADD SWAP1 POP DUP2 DUP2 SUB PUSH1 0x0 DUP4 ADD MSTORE PUSH2 0x73A DUP2 PUSH2 0x6FE JUMP JUMPDEST SWAP1 POP SWAP2 SWAP1 POP JUMP INVALID LOG2 PUSH5 0x6970667358 0x22 SLT KECCAK256 RETURN CALLDATASIZE 0xDA ADD DUP6 DUP13 SWAP6 MSTORE8 0x4C SUB CALLDATALOAD 0xF7 CREATE 0xBB 0x27 0xC3 SLT DUP5 SWAP5 PUSH11 0x54484C616ED8B2E506E762 0xC2 PUSH5 0x736F6C6343 STOP ADDMOD GT STOP CALLER "
				},
				"gasEstimates": {
					"creation": {
						"codeDepositCost": "382200",
						"executionCost": "infinite",
						"totalCost": "infinite"
					},
					"external": {
						"": "infinite",
						"admin()": "infinite",
						"changeAdmin(address)": "infinite",
						"implementation()": "infinite",
						"upgradeTo(address)": "infinite"
					},
					"internal": {
						"_delegate(address)": "infinite",
						"_fallback()": "infinite",
						"_getAdmin()": "infinite",
						"_getImplementation()": "infinite",
						"_setAdmin(address)": "infinite",
						"_setImplementation(address)": "infinite"
					}
				},
				"methodIdentifiers": {
					"admin()": "f851a440",
					"changeAdmin(address)": "8f283970",
					"implementation()": "5c60da1b",
					"upgradeTo(address)": "3659cfe6"
				}
			},
			"storageLayout": {
				"storage": [],
				"types": null
			},
			"userdoc": {
				"kind": "user",
				"methods": {},
				"version": 1
			}
		}
	}
}