{
	"contract/Fallback.sol": {
		"Caller": {
			"abi": [
				{
					"inputs": [
						{
							"internalType": "contract Test",
							"name": "test",
							"type": "address"
						}
					],
					"name": "callTest",
					"outputs": [
						{
							"internalType": "bool",
							"name": "",
							"type": "bool"
						}
					],
					"stateMutability": "nonpayable",
					"type": "function"
				},
				{
					"inputs": [
						{
							"internalType": "contract TestPayable",
							"name": "test",
							"type": "address"
						}
					],
					"name": "callTestPayable",
					"outputs": [
						{
							"internalType": "bool",
							"name": "",
							"type": "bool"
						}
					],
					"stateMutability": "nonpayable",
					"type": "function"
				}
			],
			"devdoc": {
				"kind": "dev",
				"methods": {},
				"version": 1
			},
			"evm": {
				"assembly": "    /* \"contract/Fallback.sol\":538:1348  contract Caller{... */\n  mstore(0x40, 0x80)\n  callvalue\n  dup1\n  iszero\n  tag_1\n  jumpi\n  0x00\n  dup1\n  revert\ntag_1:\n  pop\n  dataSize(sub_0)\n  dup1\n  dataOffset(sub_0)\n  0x00\n  codecopy\n  0x00\n  return\nstop\n\nsub_0: assembly {\n        /* \"contract/Fallback.sol\":538:1348  contract Caller{... */\n      mstore(0x40, 0x80)\n      callvalue\n      dup1\n      iszero\n      tag_1\n      jumpi\n      0x00\n      dup1\n      revert\n    tag_1:\n      pop\n      jumpi(tag_2, lt(calldatasize, 0x04))\n      shr(0xe0, calldataload(0x00))\n      dup1\n      0x32eb12f1\n      eq\n      tag_3\n      jumpi\n      dup1\n      0x979709e5\n      eq\n      tag_4\n      jumpi\n    tag_2:\n      0x00\n      dup1\n      revert\n        /* \"contract/Fallback.sol\":560:876  function callTest(Test test) public returns (bool){... */\n    tag_3:\n      tag_5\n      0x04\n      dup1\n      calldatasize\n      sub\n      dup2\n      add\n      swap1\n      tag_6\n      swap2\n      swap1\n      tag_7\n      jump\t// in\n    tag_6:\n      tag_8\n      jump\t// in\n    tag_5:\n      mload(0x40)\n      tag_9\n      swap2\n      swap1\n      tag_10\n      jump\t// in\n    tag_9:\n      mload(0x40)\n      dup1\n      swap2\n      sub\n      swap1\n      return\n        /* \"contract/Fallback.sol\":884:1341  function callTestPayable(TestPayable test) public returns (bool){... */\n    tag_4:\n      tag_11\n      0x04\n      dup1\n      calldatasize\n      sub\n      dup2\n      add\n      swap1\n      tag_12\n      swap2\n      swap1\n      tag_13\n      jump\t// in\n    tag_12:\n      tag_14\n      jump\t// in\n    tag_11:\n      mload(0x40)\n      tag_15\n      swap2\n      swap1\n      tag_10\n      jump\t// in\n    tag_15:\n      mload(0x40)\n      dup1\n      swap2\n      sub\n      swap1\n      return\n        /* \"contract/Fallback.sol\":560:876  function callTest(Test test) public returns (bool){... */\n    tag_8:\n        /* \"contract/Fallback.sol\":605:609  bool */\n      0x00\n        /* \"contract/Fallback.sol\":620:632  bool success */\n      dup1\n        /* \"contract/Fallback.sol\":648:652  test */\n      dup3\n        /* \"contract/Fallback.sol\":640:658  address(test).call */\n      0xffffffffffffffffffffffffffffffffffffffff\n      and\n        /* \"contract/Fallback.sol\":659:707  abi.encodeWithSignature(\"nonExistingFunction()\") */\n      add(0x24, mload(0x40))\n      mload(0x40)\n      0x20\n      dup2\n      dup4\n      sub\n      sub\n      dup2\n      mstore\n      swap1\n      0x40\n      mstore\n      and(not(0xffffffffffffffffffffffffffffffffffffffffffffffffffffffff), 0xf85396d700000000000000000000000000000000000000000000000000000000)\n      0x20\n      dup3\n      add\n      dup1\n      mload\n      0xffffffffffffffffffffffffffffffffffffffffffffffffffffffff\n      dup4\n      dup2\n      dup4\n      and\n      or\n      dup4\n      mstore\n      pop\n      pop\n      pop\n      pop\n        /* \"contract/Fallback.sol\":640:708  address(test).call(abi.encodeWithSignature(\"nonExistingFunction()\")) */\n      mload(0x40)\n      tag_17\n      swap2\n      swap1\n      tag_18\n      jump\t// in\n    tag_17:\n      0x00\n      mload(0x40)\n      dup1\n      dup4\n      sub\n      dup2\n      0x00\n      dup7\n      gas\n      call\n      swap2\n      pop\n      pop\n      returndatasize\n      dup1\n      0x00\n      dup2\n      eq\n      tag_21\n      jumpi\n      mload(0x40)\n      swap2\n      pop\n      and(add(returndatasize, 0x3f), not(0x1f))\n      dup3\n      add\n      0x40\n      mstore\n      returndatasize\n      dup3\n      mstore\n      returndatasize\n      0x00\n      0x20\n      dup5\n      add\n      returndatacopy\n      jump(tag_20)\n    tag_21:\n      0x60\n      swap2\n      pop\n    tag_20:\n      pop\n        /* \"contract/Fallback.sol\":619:708  (bool success,)  =   address(test).call(abi.encodeWithSignature(\"nonExistingFunction()\")) */\n      pop\n      swap1\n      pop\n        /* \"contract/Fallback.sol\":727:734  success */\n      dup1\n        /* \"contract/Fallback.sol\":719:735  require(success) */\n      tag_22\n      jumpi\n      0x00\n      dup1\n      revert\n    tag_22:\n        /* \"contract/Fallback.sol\":747:774  address payable testPayable */\n      0x00\n        /* \"contract/Fallback.sol\":793:797  test */\n      dup4\n        /* \"contract/Fallback.sol\":747:799  address payable testPayable = payable(address(test)) */\n      swap1\n      pop\n        /* \"contract/Fallback.sol\":840:851  testPayable */\n      dup1\n        /* \"contract/Fallback.sol\":840:856  testPayable.send */\n      0xffffffffffffffffffffffffffffffffffffffff\n      and\n        /* \"contract/Fallback.sol\":840:865  testPayable.send(2 ether) */\n      0x08fc\n        /* \"contract/Fallback.sol\":857:864  2 ether */\n      0x1bc16d674ec80000\n        /* \"contract/Fallback.sol\":840:865  testPayable.send(2 ether) */\n      swap1\n      dup2\n      iszero\n      mul\n      swap1\n      mload(0x40)\n      0x00\n      mload(0x40)\n      dup1\n      dup4\n      sub\n      dup2\n      dup6\n      dup9\n      dup9\n      call\n      swap4\n      pop\n      pop\n      pop\n      pop\n        /* \"contract/Fallback.sol\":833:865  return testPayable.send(2 ether) */\n      swap3\n      pop\n      pop\n      pop\n        /* \"contract/Fallback.sol\":560:876  function callTest(Test test) public returns (bool){... */\n      swap2\n      swap1\n      pop\n      jump\t// out\n        /* \"contract/Fallback.sol\":884:1341  function callTestPayable(TestPayable test) public returns (bool){... */\n    tag_14:\n        /* \"contract/Fallback.sol\":943:947  bool */\n      0x00\n        /* \"contract/Fallback.sol\":960:972  bool success */\n      dup1\n        /* \"contract/Fallback.sol\":985:989  test */\n      dup3\n        /* \"contract/Fallback.sol\":977:995  address(test).call */\n      0xffffffffffffffffffffffffffffffffffffffff\n      and\n        /* \"contract/Fallback.sol\":996:1043  abi.encodeWithSignature(\"nonExistingFunction(\") */\n      add(0x24, mload(0x40))\n      mload(0x40)\n      0x20\n      dup2\n      dup4\n      sub\n      sub\n      dup2\n      mstore\n      swap1\n      0x40\n      mstore\n      and(not(0xffffffffffffffffffffffffffffffffffffffffffffffffffffffff), 0x2700785900000000000000000000000000000000000000000000000000000000)\n      0x20\n      dup3\n      add\n      dup1\n      mload\n      0xffffffffffffffffffffffffffffffffffffffffffffffffffffffff\n      dup4\n      dup2\n      dup4\n      and\n      or\n      dup4\n      mstore\n      pop\n      pop\n      pop\n      pop\n        /* \"contract/Fallback.sol\":977:1044  address(test).call(abi.encodeWithSignature(\"nonExistingFunction(\")) */\n      mload(0x40)\n      tag_25\n      swap2\n      swap1\n      tag_18\n      jump\t// in\n    tag_25:\n      0x00\n      mload(0x40)\n      dup1\n      dup4\n      sub\n      dup2\n      0x00\n      dup7\n      gas\n      call\n      swap2\n      pop\n      pop\n      returndatasize\n      dup1\n      0x00\n      dup2\n      eq\n      tag_28\n      jumpi\n      mload(0x40)\n      swap2\n      pop\n      and(add(returndatasize, 0x3f), not(0x1f))\n      dup3\n      add\n      0x40\n      mstore\n      returndatasize\n      dup3\n      mstore\n      returndatasize\n      0x00\n      0x20\n      dup5\n      add\n      returndatacopy\n      jump(tag_27)\n    tag_28:\n      0x60\n      swap2\n      pop\n    tag_27:\n      pop\n        /* \"contract/Fallback.sol\":959:1044  (bool success,) = address(test).call(abi.encodeWithSignature(\"nonExistingFunction(\")) */\n      pop\n      swap1\n      pop\n        /* \"contract/Fallback.sol\":1063:1070  success */\n      dup1\n        /* \"contract/Fallback.sol\":1055:1071  require(success) */\n      tag_29\n      jumpi\n      0x00\n      dup1\n      revert\n    tag_29:\n        /* \"contract/Fallback.sol\":1329:1333  true */\n      0x01\n        /* \"contract/Fallback.sol\":1322:1333  return true */\n      swap2\n      pop\n      pop\n        /* \"contract/Fallback.sol\":884:1341  function callTestPayable(TestPayable test) public returns (bool){... */\n      swap2\n      swap1\n      pop\n      jump\t// out\n        /* \"#utility.yul\":88:205   */\n    tag_31:\n        /* \"#utility.yul\":197:198   */\n      0x00\n        /* \"#utility.yul\":194:195   */\n      dup1\n        /* \"#utility.yul\":187:199   */\n      revert\n        /* \"#utility.yul\":334:460   */\n    tag_33:\n        /* \"#utility.yul\":371:378   */\n      0x00\n        /* \"#utility.yul\":411:453   */\n      0xffffffffffffffffffffffffffffffffffffffff\n        /* \"#utility.yul\":404:409   */\n      dup3\n        /* \"#utility.yul\":400:454   */\n      and\n        /* \"#utility.yul\":389:454   */\n      swap1\n      pop\n        /* \"#utility.yul\":334:460   */\n      swap2\n      swap1\n      pop\n      jump\t// out\n        /* \"#utility.yul\":466:562   */\n    tag_34:\n        /* \"#utility.yul\":503:510   */\n      0x00\n        /* \"#utility.yul\":532:556   */\n      tag_54\n        /* \"#utility.yul\":550:555   */\n      dup3\n        /* \"#utility.yul\":532:556   */\n      tag_33\n      jump\t// in\n    tag_54:\n        /* \"#utility.yul\":521:556   */\n      swap1\n      pop\n        /* \"#utility.yul\":466:562   */\n      swap2\n      swap1\n      pop\n      jump\t// out\n        /* \"#utility.yul\":568:675   */\n    tag_35:\n        /* \"#utility.yul\":616:623   */\n      0x00\n        /* \"#utility.yul\":645:669   */\n      tag_56\n        /* \"#utility.yul\":663:668   */\n      dup3\n        /* \"#utility.yul\":645:669   */\n      tag_34\n      jump\t// in\n    tag_56:\n        /* \"#utility.yul\":634:669   */\n      swap1\n      pop\n        /* \"#utility.yul\":568:675   */\n      swap2\n      swap1\n      pop\n      jump\t// out\n        /* \"#utility.yul\":681:825   */\n    tag_36:\n        /* \"#utility.yul\":765:800   */\n      tag_58\n        /* \"#utility.yul\":794:799   */\n      dup2\n        /* \"#utility.yul\":765:800   */\n      tag_35\n      jump\t// in\n    tag_58:\n        /* \"#utility.yul\":758:763   */\n      dup2\n        /* \"#utility.yul\":755:801   */\n      eq\n        /* \"#utility.yul\":745:819   */\n      tag_59\n      jumpi\n        /* \"#utility.yul\":815:816   */\n      0x00\n        /* \"#utility.yul\":812:813   */\n      dup1\n        /* \"#utility.yul\":805:817   */\n      revert\n        /* \"#utility.yul\":745:819   */\n    tag_59:\n        /* \"#utility.yul\":681:825   */\n      pop\n      jump\t// out\n        /* \"#utility.yul\":831:992   */\n    tag_37:\n        /* \"#utility.yul\":888:893   */\n      0x00\n        /* \"#utility.yul\":926:932   */\n      dup2\n        /* \"#utility.yul\":913:933   */\n      calldataload\n        /* \"#utility.yul\":904:933   */\n      swap1\n      pop\n        /* \"#utility.yul\":942:986   */\n      tag_61\n        /* \"#utility.yul\":980:985   */\n      dup2\n        /* \"#utility.yul\":942:986   */\n      tag_36\n      jump\t// in\n    tag_61:\n        /* \"#utility.yul\":831:992   */\n      swap3\n      swap2\n      pop\n      pop\n      jump\t// out\n        /* \"#utility.yul\":998:1349   */\n    tag_7:\n        /* \"#utility.yul\":1068:1074   */\n      0x00\n        /* \"#utility.yul\":1117:1119   */\n      0x20\n        /* \"#utility.yul\":1105:1114   */\n      dup3\n        /* \"#utility.yul\":1096:1103   */\n      dup5\n        /* \"#utility.yul\":1092:1115   */\n      sub\n        /* \"#utility.yul\":1088:1120   */\n      slt\n        /* \"#utility.yul\":1085:1204   */\n      iszero\n      tag_63\n      jumpi\n        /* \"#utility.yul\":1123:1202   */\n      tag_64\n      tag_31\n      jump\t// in\n    tag_64:\n        /* \"#utility.yul\":1085:1204   */\n    tag_63:\n        /* \"#utility.yul\":1243:1244   */\n      0x00\n        /* \"#utility.yul\":1268:1332   */\n      tag_65\n        /* \"#utility.yul\":1324:1331   */\n      dup5\n        /* \"#utility.yul\":1315:1321   */\n      dup3\n        /* \"#utility.yul\":1304:1313   */\n      dup6\n        /* \"#utility.yul\":1300:1322   */\n      add\n        /* \"#utility.yul\":1268:1332   */\n      tag_37\n      jump\t// in\n    tag_65:\n        /* \"#utility.yul\":1258:1332   */\n      swap2\n      pop\n        /* \"#utility.yul\":1214:1342   */\n      pop\n        /* \"#utility.yul\":998:1349   */\n      swap3\n      swap2\n      pop\n      pop\n      jump\t// out\n        /* \"#utility.yul\":1355:1445   */\n    tag_38:\n        /* \"#utility.yul\":1389:1396   */\n      0x00\n        /* \"#utility.yul\":1432:1437   */\n      dup2\n        /* \"#utility.yul\":1425:1438   */\n      iszero\n        /* \"#utility.yul\":1418:1439   */\n      iszero\n        /* \"#utility.yul\":1407:1439   */\n      swap1\n      pop\n        /* \"#utility.yul\":1355:1445   */\n      swap2\n      swap1\n      pop\n      jump\t// out\n        /* \"#utility.yul\":1451:1560   */\n    tag_39:\n        /* \"#utility.yul\":1532:1553   */\n      tag_68\n        /* \"#utility.yul\":1547:1552   */\n      dup2\n        /* \"#utility.yul\":1532:1553   */\n      tag_38\n      jump\t// in\n    tag_68:\n        /* \"#utility.yul\":1527:1530   */\n      dup3\n        /* \"#utility.yul\":1520:1554   */\n      mstore\n        /* \"#utility.yul\":1451:1560   */\n      pop\n      pop\n      jump\t// out\n        /* \"#utility.yul\":1566:1776   */\n    tag_10:\n        /* \"#utility.yul\":1653:1657   */\n      0x00\n        /* \"#utility.yul\":1691:1693   */\n      0x20\n        /* \"#utility.yul\":1680:1689   */\n      dup3\n        /* \"#utility.yul\":1676:1694   */\n      add\n        /* \"#utility.yul\":1668:1694   */\n      swap1\n      pop\n        /* \"#utility.yul\":1704:1769   */\n      tag_70\n        /* \"#utility.yul\":1766:1767   */\n      0x00\n        /* \"#utility.yul\":1755:1764   */\n      dup4\n        /* \"#utility.yul\":1751:1768   */\n      add\n        /* \"#utility.yul\":1742:1748   */\n      dup5\n        /* \"#utility.yul\":1704:1769   */\n      tag_39\n      jump\t// in\n    tag_70:\n        /* \"#utility.yul\":1566:1776   */\n      swap3\n      swap2\n      pop\n      pop\n      jump\t// out\n        /* \"#utility.yul\":1782:1886   */\n    tag_40:\n        /* \"#utility.yul\":1827:1834   */\n      0x00\n        /* \"#utility.yul\":1856:1880   */\n      tag_72\n        /* \"#utility.yul\":1874:1879   */\n      dup3\n        /* \"#utility.yul\":1856:1880   */\n      tag_33\n      jump\t// in\n    tag_72:\n        /* \"#utility.yul\":1845:1880   */\n      swap1\n      pop\n        /* \"#utility.yul\":1782:1886   */\n      swap2\n      swap1\n      pop\n      jump\t// out\n        /* \"#utility.yul\":1892:2014   */\n    tag_41:\n        /* \"#utility.yul\":1947:1954   */\n      0x00\n        /* \"#utility.yul\":1976:2008   */\n      tag_74\n        /* \"#utility.yul\":2002:2007   */\n      dup3\n        /* \"#utility.yul\":1976:2008   */\n      tag_40\n      jump\t// in\n    tag_74:\n        /* \"#utility.yul\":1965:2008   */\n      swap1\n      pop\n        /* \"#utility.yul\":1892:2014   */\n      swap2\n      swap1\n      pop\n      jump\t// out\n        /* \"#utility.yul\":2020:2178   */\n    tag_42:\n        /* \"#utility.yul\":2111:2153   */\n      tag_76\n        /* \"#utility.yul\":2147:2152   */\n      dup2\n        /* \"#utility.yul\":2111:2153   */\n      tag_41\n      jump\t// in\n    tag_76:\n        /* \"#utility.yul\":2104:2109   */\n      dup2\n        /* \"#utility.yul\":2101:2154   */\n      eq\n        /* \"#utility.yul\":2091:2172   */\n      tag_77\n      jumpi\n        /* \"#utility.yul\":2168:2169   */\n      0x00\n        /* \"#utility.yul\":2165:2166   */\n      dup1\n        /* \"#utility.yul\":2158:2170   */\n      revert\n        /* \"#utility.yul\":2091:2172   */\n    tag_77:\n        /* \"#utility.yul\":2020:2178   */\n      pop\n      jump\t// out\n        /* \"#utility.yul\":2184:2359   */\n    tag_43:\n        /* \"#utility.yul\":2248:2253   */\n      0x00\n        /* \"#utility.yul\":2286:2292   */\n      dup2\n        /* \"#utility.yul\":2273:2293   */\n      calldataload\n        /* \"#utility.yul\":2264:2293   */\n      swap1\n      pop\n        /* \"#utility.yul\":2302:2353   */\n      tag_79\n        /* \"#utility.yul\":2347:2352   */\n      dup2\n        /* \"#utility.yul\":2302:2353   */\n      tag_42\n      jump\t// in\n    tag_79:\n        /* \"#utility.yul\":2184:2359   */\n      swap3\n      swap2\n      pop\n      pop\n      jump\t// out\n        /* \"#utility.yul\":2365:2730   */\n    tag_13:\n        /* \"#utility.yul\":2442:2448   */\n      0x00\n        /* \"#utility.yul\":2491:2493   */\n      0x20\n        /* \"#utility.yul\":2479:2488   */\n      dup3\n        /* \"#utility.yul\":2470:2477   */\n      dup5\n        /* \"#utility.yul\":2466:2489   */\n      sub\n        /* \"#utility.yul\":2462:2494   */\n      slt\n        /* \"#utility.yul\":2459:2578   */\n      iszero\n      tag_81\n      jumpi\n        /* \"#utility.yul\":2497:2576   */\n      tag_82\n      tag_31\n      jump\t// in\n    tag_82:\n        /* \"#utility.yul\":2459:2578   */\n    tag_81:\n        /* \"#utility.yul\":2617:2618   */\n      0x00\n        /* \"#utility.yul\":2642:2713   */\n      tag_83\n        /* \"#utility.yul\":2705:2712   */\n      dup5\n        /* \"#utility.yul\":2696:2702   */\n      dup3\n        /* \"#utility.yul\":2685:2694   */\n      dup6\n        /* \"#utility.yul\":2681:2703   */\n      add\n        /* \"#utility.yul\":2642:2713   */\n      tag_43\n      jump\t// in\n    tag_83:\n        /* \"#utility.yul\":2632:2713   */\n      swap2\n      pop\n        /* \"#utility.yul\":2588:2723   */\n      pop\n        /* \"#utility.yul\":2365:2730   */\n      swap3\n      swap2\n      pop\n      pop\n      jump\t// out\n        /* \"#utility.yul\":2736:2834   */\n    tag_44:\n        /* \"#utility.yul\":2787:2793   */\n      0x00\n        /* \"#utility.yul\":2821:2826   */\n      dup2\n        /* \"#utility.yul\":2815:2827   */\n      mload\n        /* \"#utility.yul\":2805:2827   */\n      swap1\n      pop\n        /* \"#utility.yul\":2736:2834   */\n      swap2\n      swap1\n      pop\n      jump\t// out\n        /* \"#utility.yul\":2840:2987   */\n    tag_45:\n        /* \"#utility.yul\":2941:2952   */\n      0x00\n        /* \"#utility.yul\":2978:2981   */\n      dup2\n        /* \"#utility.yul\":2963:2981   */\n      swap1\n      pop\n        /* \"#utility.yul\":2840:2987   */\n      swap3\n      swap2\n      pop\n      pop\n      jump\t// out\n        /* \"#utility.yul\":2993:3239   */\n    tag_46:\n        /* \"#utility.yul\":3074:3075   */\n      0x00\n        /* \"#utility.yul\":3084:3197   */\n    tag_87:\n        /* \"#utility.yul\":3098:3104   */\n      dup4\n        /* \"#utility.yul\":3095:3096   */\n      dup2\n        /* \"#utility.yul\":3092:3105   */\n      lt\n        /* \"#utility.yul\":3084:3197   */\n      iszero\n      tag_89\n      jumpi\n        /* \"#utility.yul\":3183:3184   */\n      dup1\n        /* \"#utility.yul\":3178:3181   */\n      dup3\n        /* \"#utility.yul\":3174:3185   */\n      add\n        /* \"#utility.yul\":3168:3186   */\n      mload\n        /* \"#utility.yul\":3164:3165   */\n      dup2\n        /* \"#utility.yul\":3159:3162   */\n      dup5\n        /* \"#utility.yul\":3155:3166   */\n      add\n        /* \"#utility.yul\":3148:3187   */\n      mstore\n        /* \"#utility.yul\":3120:3122   */\n      0x20\n        /* \"#utility.yul\":3117:3118   */\n      dup2\n        /* \"#utility.yul\":3113:3123   */\n      add\n        /* \"#utility.yul\":3108:3123   */\n      swap1\n      pop\n        /* \"#utility.yul\":3084:3197   */\n      jump(tag_87)\n    tag_89:\n        /* \"#utility.yul\":3231:3232   */\n      0x00\n        /* \"#utility.yul\":3222:3228   */\n      dup5\n        /* \"#utility.yul\":3217:3220   */\n      dup5\n        /* \"#utility.yul\":3213:3229   */\n      add\n        /* \"#utility.yul\":3206:3233   */\n      mstore\n        /* \"#utility.yul\":3055:3239   */\n      pop\n        /* \"#utility.yul\":2993:3239   */\n      pop\n      pop\n      pop\n      jump\t// out\n        /* \"#utility.yul\":3245:3631   */\n    tag_47:\n        /* \"#utility.yul\":3349:3352   */\n      0x00\n        /* \"#utility.yul\":3377:3415   */\n      tag_91\n        /* \"#utility.yul\":3409:3414   */\n      dup3\n        /* \"#utility.yul\":3377:3415   */\n      tag_44\n      jump\t// in\n    tag_91:\n        /* \"#utility.yul\":3431:3519   */\n      tag_92\n        /* \"#utility.yul\":3512:3518   */\n      dup2\n        /* \"#utility.yul\":3507:3510   */\n      dup6\n        /* \"#utility.yul\":3431:3519   */\n      tag_45\n      jump\t// in\n    tag_92:\n        /* \"#utility.yul\":3424:3519   */\n      swap4\n      pop\n        /* \"#utility.yul\":3528:3593   */\n      tag_93\n        /* \"#utility.yul\":3586:3592   */\n      dup2\n        /* \"#utility.yul\":3581:3584   */\n      dup6\n        /* \"#utility.yul\":3574:3578   */\n      0x20\n        /* \"#utility.yul\":3567:3572   */\n      dup7\n        /* \"#utility.yul\":3563:3579   */\n      add\n        /* \"#utility.yul\":3528:3593   */\n      tag_46\n      jump\t// in\n    tag_93:\n        /* \"#utility.yul\":3618:3624   */\n      dup1\n        /* \"#utility.yul\":3613:3616   */\n      dup5\n        /* \"#utility.yul\":3609:3625   */\n      add\n        /* \"#utility.yul\":3602:3625   */\n      swap2\n      pop\n        /* \"#utility.yul\":3353:3631   */\n      pop\n        /* \"#utility.yul\":3245:3631   */\n      swap3\n      swap2\n      pop\n      pop\n      jump\t// out\n        /* \"#utility.yul\":3637:3908   */\n    tag_18:\n        /* \"#utility.yul\":3767:3770   */\n      0x00\n        /* \"#utility.yul\":3789:3882   */\n      tag_95\n        /* \"#utility.yul\":3878:3881   */\n      dup3\n        /* \"#utility.yul\":3869:3875   */\n      dup5\n        /* \"#utility.yul\":3789:3882   */\n      tag_47\n      jump\t// in\n    tag_95:\n        /* \"#utility.yul\":3782:3882   */\n      swap2\n      pop\n        /* \"#utility.yul\":3899:3902   */\n      dup2\n        /* \"#utility.yul\":3892:3902   */\n      swap1\n      pop\n        /* \"#utility.yul\":3637:3908   */\n      swap3\n      swap2\n      pop\n      pop\n      jump\t// out\n\n    auxdata: 0xa26469706673582212202c53b40eba72c2e0dcf2e2aa34eb8932cefd7cd64212f3f29aad7f0a5f1f16de64736f6c63430008110033\n}\n",
				"bytecode": {
					"linkReferences": {},
					"object": "608060405234801561001057600080fd5b506104f7806100206000396000f3fe608060405234801561001057600080fd5b50600436106100365760003560e01c806332eb12f11461003b578063979709e51461006b575b600080fd5b61005560048036038101906100509190610359565b61009b565b60405161006291906103a1565b60405180910390f35b6100856004803603810190610080919061040c565b6101e0565b60405161009291906103a1565b60405180910390f35b6000808273ffffffffffffffffffffffffffffffffffffffff166040516024016040516020818303038152906040527ff85396d7000000000000000000000000000000000000000000000000000000007bffffffffffffffffffffffffffffffffffffffffffffffffffffffff19166020820180517bffffffffffffffffffffffffffffffffffffffffffffffffffffffff838183161783525050505060405161014591906104aa565b6000604051808303816000865af19150503d8060008114610182576040519150601f19603f3d011682016040523d82523d6000602084013e610187565b606091505b505090508061019557600080fd5b60008390508073ffffffffffffffffffffffffffffffffffffffff166108fc671bc16d674ec800009081150290604051600060405180830381858888f1935050505092505050919050565b6000808273ffffffffffffffffffffffffffffffffffffffff166040516024016040516020818303038152906040527f27007859000000000000000000000000000000000000000000000000000000007bffffffffffffffffffffffffffffffffffffffffffffffffffffffff19166020820180517bffffffffffffffffffffffffffffffffffffffffffffffffffffffff838183161783525050505060405161028a91906104aa565b6000604051808303816000865af19150503d80600081146102c7576040519150601f19603f3d011682016040523d82523d6000602084013e6102cc565b606091505b50509050806102da57600080fd5b6001915050919050565b600080fd5b600073ffffffffffffffffffffffffffffffffffffffff82169050919050565b6000610314826102e9565b9050919050565b600061032682610309565b9050919050565b6103368161031b565b811461034157600080fd5b50565b6000813590506103538161032d565b92915050565b60006020828403121561036f5761036e6102e4565b5b600061037d84828501610344565b91505092915050565b60008115159050919050565b61039b81610386565b82525050565b60006020820190506103b66000830184610392565b92915050565b60006103c7826102e9565b9050919050565b60006103d9826103bc565b9050919050565b6103e9816103ce565b81146103f457600080fd5b50565b600081359050610406816103e0565b92915050565b600060208284031215610422576104216102e4565b5b6000610430848285016103f7565b91505092915050565b600081519050919050565b600081905092915050565b60005b8381101561046d578082015181840152602081019050610452565b60008484015250505050565b600061048482610439565b61048e8185610444565b935061049e81856020860161044f565b80840191505092915050565b60006104b68284610479565b91508190509291505056fea26469706673582212202c53b40eba72c2e0dcf2e2aa34eb8932cefd7cd64212f3f29aad7f0a5f1f16de64736f6c63430008110033",
					"opcodes": "PUSH1 0x80 PUSH1 0x40 MSTORE CALLVALUE DUP1 ISZERO PUSH2 0x10 JUMPI PUSH1 0x0 DUP1 REVERT JUMPDEST POP PUSH2 0x4F7 DUP1 PUSH2 0x20 PUSH1 0x0 CODECOPY PUSH1 0x0 RETURN INVALID PUSH1 0x80 PUSH1 0x40 MSTORE CALLVALUE DUP1 ISZERO PUSH2 0x10 JUMPI PUSH1 0x0 DUP1 REVERT JUMPDEST POP PUSH1 0x4 CALLDATASIZE LT PUSH2 0x36 JUMPI PUSH1 0x0 CALLDATALOAD PUSH1 0xE0 SHR DUP1 PUSH4 0x32EB12F1 EQ PUSH2 0x3B JUMPI DUP1 PUSH4 0x979709E5 EQ PUSH2 0x6B JUMPI JUMPDEST PUSH1 0x0 DUP1 REVERT JUMPDEST PUSH2 0x55 PUSH1 0x4 DUP1 CALLDATASIZE SUB DUP2 ADD SWAP1 PUSH2 0x50 SWAP2 SWAP1 PUSH2 0x359 JUMP JUMPDEST PUSH2 0x9B JUMP JUMPDEST PUSH1 0x40 MLOAD PUSH2 0x62 SWAP2 SWAP1 PUSH2 0x3A1 JUMP JUMPDEST PUSH1 0x40 MLOAD DUP1 SWAP2 SUB SWAP1 RETURN JUMPDEST PUSH2 0x85 PUSH1 0x4 DUP1 CALLDATASIZE SUB DUP2 ADD SWAP1 PUSH2 0x80 SWAP2 SWAP1 PUSH2 0x40C JUMP JUMPDEST PUSH2 0x1E0 JUMP JUMPDEST PUSH1 0x40 MLOAD PUSH2 0x92 SWAP2 SWAP1 PUSH2 0x3A1 JUMP JUMPDEST PUSH1 0x40 MLOAD DUP1 SWAP2 SUB SWAP1 RETURN JUMPDEST PUSH1 0x0 DUP1 DUP3 PUSH20 0xFFFFFFFFFFFFFFFFFFFFFFFFFFFFFFFFFFFFFFFF AND PUSH1 0x40 MLOAD PUSH1 0x24 ADD PUSH1 0x40 MLOAD PUSH1 0x20 DUP2 DUP4 SUB SUB DUP2 MSTORE SWAP1 PUSH1 0x40 MSTORE PUSH32 0xF85396D700000000000000000000000000000000000000000000000000000000 PUSH28 0xFFFFFFFFFFFFFFFFFFFFFFFFFFFFFFFFFFFFFFFFFFFFFFFFFFFFFFFF NOT AND PUSH1 0x20 DUP3 ADD DUP1 MLOAD PUSH28 0xFFFFFFFFFFFFFFFFFFFFFFFFFFFFFFFFFFFFFFFFFFFFFFFFFFFFFFFF DUP4 DUP2 DUP4 AND OR DUP4 MSTORE POP POP POP POP PUSH1 0x40 MLOAD PUSH2 0x145 SWAP2 SWAP1 PUSH2 0x4AA JUMP JUMPDEST PUSH1 0x0 PUSH1 0x40 MLOAD DUP1 DUP4 SUB DUP2 PUSH1 0x0 DUP7 GAS CALL SWAP2 POP POP RETURNDATASIZE DUP1 PUSH1 0x0 DUP2 EQ PUSH2 0x182 JUMPI PUSH1 0x40 MLOAD SWAP2 POP PUSH1 0x1F NOT PUSH1 0x3F RETURNDATASIZE ADD AND DUP3 ADD PUSH1 0x40 MSTORE RETURNDATASIZE DUP3 MSTORE RETURNDATASIZE PUSH1 0x0 PUSH1 0x20 DUP5 ADD RETURNDATACOPY PUSH2 0x187 JUMP JUMPDEST PUSH1 0x60 SWAP2 POP JUMPDEST POP POP SWAP1 POP DUP1 PUSH2 0x195 JUMPI PUSH1 0x0 DUP1 REVERT JUMPDEST PUSH1 0x0 DUP4 SWAP1 POP DUP1 PUSH20 0xFFFFFFFFFFFFFFFFFFFFFFFFFFFFFFFFFFFFFFFF AND PUSH2 0x8FC PUSH8 0x1BC16D674EC80000 SWAP1 DUP2 ISZERO MUL SWAP1 PUSH1 0x40 MLOAD PUSH1 0x0 PUSH1 0x40 MLOAD DUP1 DUP4 SUB DUP2 DUP6 DUP9 DUP9 CALL SWAP4 POP POP POP POP SWAP3 POP POP POP SWAP2 SWAP1 POP JUMP JUMPDEST PUSH1 0x0 DUP1 DUP3 PUSH20 0xFFFFFFFFFFFFFFFFFFFFFFFFFFFFFFFFFFFFFFFF AND PUSH1 0x40 MLOAD PUSH1 0x24 ADD PUSH1 0x40 MLOAD PUSH1 0x20 DUP2 DUP4 SUB SUB DUP2 MSTORE SWAP1 PUSH1 0x40 MSTORE PUSH32 0x2700785900000000000000000000000000000000000000000000000000000000 PUSH28 0xFFFFFFFFFFFFFFFFFFFFFFFFFFFFFFFFFFFFFFFFFFFFFFFFFFFFFFFF NOT AND PUSH1 0x20 DUP3 ADD DUP1 MLOAD PUSH28 0xFFFFFFFFFFFFFFFFFFFFFFFFFFFFFFFFFFFFFFFFFFFFFFFFFFFFFFFF DUP4 DUP2 DUP4 AND OR DUP4 MSTORE POP POP POP POP PUSH1 0x40 MLOAD PUSH2 0x28A SWAP2 SWAP1 PUSH2 0x4AA JUMP JUMPDEST PUSH1 0x0 PUSH1 0x40 MLOAD DUP1 DUP4 SUB DUP2 PUSH1 0x0 DUP7 GAS CALL SWAP2 POP POP RETURNDATASIZE DUP1 PUSH1 0x0 DUP2 EQ PUSH2 0x2C7 JUMPI PUSH1 0x40 MLOAD SWAP2 POP PUSH1 0x1F NOT PUSH1 0x3F RETURNDATASIZE ADD AND DUP3 ADD PUSH1 0x40 MSTORE RETURNDATASIZE DUP3 MSTORE RETURNDATASIZE PUSH1 0x0 PUSH1 0x20 DUP5 ADD RETURNDATACOPY PUSH2 0x2CC JUMP JUMPDEST PUSH1 0x60 SWAP2 POP JUMPDEST POP POP SWAP1 POP DUP1 PUSH2 0x2DA JUMPI PUSH1 0x0 DUP1 REVERT JUMPDEST PUSH1 0x1 SWAP2 POP POP SWAP2 SWAP1 POP JUMP JUMPDEST PUSH1 0x0 DUP1 REVERT JUMPDEST PUSH1 0x0 PUSH20 0xFFFFFFFFFFFFFFFFFFFFFFFFFFFFFFFFFFFFFFFF DUP3 AND SWAP1 POP SWAP2 SWAP1 POP JUMP JUMPDEST PUSH1 0x0 PUSH2 0x314 DUP3 PUSH2 0x2E9 JUMP JUMPDEST SWAP1 POP SWAP2 SWAP1 POP JUMP JUMPDEST PUSH1 0x0 PUSH2 0x326 DUP3 PUSH2 0x309 JUMP JUMPDEST SWAP1 POP SWAP2 SWAP1 POP JUMP JUMPDEST PUSH2 0x336 DUP2 PUSH2 0x31B JUMP JUMPDEST DUP2 EQ PUSH2 0x341 JUMPI PUSH1 0x0 DUP1 REVERT JUMPDEST POP JUMP JUMPDEST PUSH1 0x0 DUP2 CALLDATALOAD SWAP1 POP PUSH2 0x353 DUP2 PUSH2 0x32D JUMP JUMPDEST SWAP3 SWAP2 POP POP JUMP JUMPDEST PUSH1 0x0 PUSH1 0x20 DUP3 DUP5 SUB SLT ISZERO PUSH2 0x36F JUMPI PUSH2 0x36E PUSH2 0x2E4 JUMP JUMPDEST JUMPDEST PUSH1 0x0 PUSH2 0x37D DUP5 DUP3 DUP6 ADD PUSH2 0x344 JUMP JUMPDEST SWAP2 POP POP SWAP3 SWAP2 POP POP JUMP JUMPDEST PUSH1 0x0 DUP2 ISZERO ISZERO SWAP1 POP SWAP2 SWAP1 POP JUMP JUMPDEST PUSH2 0x39B DUP2 PUSH2 0x386 JUMP JUMPDEST DUP3 MSTORE POP POP JUMP JUMPDEST PUSH1 0x0 PUSH1 0x20 DUP3 ADD SWAP1 POP PUSH2 0x3B6 PUSH1 0x0 DUP4 ADD DUP5 PUSH2 0x392 JUMP JUMPDEST SWAP3 SWAP2 POP POP JUMP JUMPDEST PUSH1 0x0 PUSH2 0x3C7 DUP3 PUSH2 0x2E9 JUMP JUMPDEST SWAP1 POP SWAP2 SWAP1 POP JUMP JUMPDEST PUSH1 0x0 PUSH2 0x3D9 DUP3 PUSH2 0x3BC JUMP JUMPDEST SWAP1 POP SWAP2 SWAP1 POP JUMP JUMPDEST PUSH2 0x3E9 DUP2 PUSH2 0x3CE JUMP JUMPDEST DUP2 EQ PUSH2 0x3F4 JUMPI PUSH1 0x0 DUP1 REVERT JUMPDEST POP JUMP JUMPDEST PUSH1 0x0 DUP2 CALLDATALOAD SWAP1 POP PUSH2 0x406 DUP2 PUSH2 0x3E0 JUMP JUMPDEST SWAP3 SWAP2 POP POP JUMP JUMPDEST PUSH1 0x0 PUSH1 0x20 DUP3 DUP5 SUB SLT ISZERO PUSH2 0x422 JUMPI PUSH2 0x421 PUSH2 0x2E4 JUMP JUMPDEST JUMPDEST PUSH1 0x0 PUSH2 0x430 DUP5 DUP3 DUP6 ADD PUSH2 0x3F7 JUMP JUMPDEST SWAP2 POP POP SWAP3 SWAP2 POP POP JUMP JUMPDEST PUSH1 0x0 DUP2 MLOAD SWAP1 POP SWAP2 SWAP1 POP JUMP JUMPDEST PUSH1 0x0 DUP2 SWAP1 POP SWAP3 SWAP2 POP POP JUMP JUMPDEST PUSH1 0x0 JUMPDEST DUP4 DUP2 LT ISZERO PUSH2 0x46D JUMPI DUP1 DUP3 ADD MLOAD DUP2 DUP5 ADD MSTORE PUSH1 0x20 DUP2 ADD SWAP1 POP PUSH2 0x452 JUMP JUMPDEST PUSH1 0x0 DUP5 DUP5 ADD MSTORE POP POP POP POP JUMP JUMPDEST PUSH1 0x0 PUSH2 0x484 DUP3 PUSH2 0x439 JUMP JUMPDEST PUSH2 0x48E DUP2 DUP6 PUSH2 0x444 JUMP JUMPDEST SWAP4 POP PUSH2 0x49E DUP2 DUP6 PUSH1 0x20 DUP7 ADD PUSH2 0x44F JUMP JUMPDEST DUP1 DUP5 ADD SWAP2 POP POP SWAP3 SWAP2 POP POP JUMP JUMPDEST PUSH1 0x0 PUSH2 0x4B6 DUP3 DUP5 PUSH2 0x479 JUMP JUMPDEST SWAP2 POP DUP2 SWAP1 POP SWAP3 SWAP2 POP POP JUMP INVALID LOG2 PUSH5 0x6970667358 0x22 SLT KECCAK256 0x2C MSTORE8 0xB4 0xE 0xBA PUSH19 0xC2E0DCF2E2AA34EB8932CEFD7CD64212F3F29A 0xAD PUSH32 0xA5F1F16DE64736F6C6343000811003300000000000000000000000000000000 "
				},
				"gasEstimates": {
					"creation": {
						"codeDepositCost": "254200",
						"executionCost": "294",
						"totalCost": "254494"
					},
					"external": {
						"callTest(address)": "infinite",
						"callTestPayable(address)": "infinite"
					}
				},
				"methodIdentifiers": {
					"callTest(address)": "32eb12f1",
					"callTestPayable(address)": "979709e5"
				}
			},
			"storageLayout": {
				"storage": [],
				"types": null
			},
			"userdoc": {
				"kind": "user",
				"methods": {},
				"version": 1
			}
		}
	}
}