{
	"day5/CallContract.sol": {
		"Caller": {
			"abi": [
				{
					"inputs": [
						{
							"internalType": "contract Callee",
							"name": "_callee",
							"type": "address"
						},
						{
							"internalType": "uint256",
							"name": "_x",
							"type": "uint256"
						}
					],
					"name": "setX",
					"outputs": [],
					"stateMutability": "nonpayable",
					"type": "function"
				},
				{
					"inputs": [
						{
							"internalType": "address",
							"name": "_addr",
							"type": "address"
						},
						{
							"internalType": "uint256",
							"name": "_x",
							"type": "uint256"
						}
					],
					"name": "setXFromAddress",
					"outputs": [],
					"stateMutability": "nonpayable",
					"type": "function"
				},
				{
					"inputs": [
						{
							"internalType": "contract Callee",
							"name": "_callee",
							"type": "address"
						},
						{
							"internalType": "uint256",
							"name": "_x",
							"type": "uint256"
						}
					],
					"name": "setXandSendEther",
					"outputs": [],
					"stateMutability": "payable",
					"type": "function"
				}
			],
			"devdoc": {
				"kind": "dev",
				"methods": {},
				"version": 1
			},
			"evm": {
				"assembly": "    /* \"day5/CallContract.sol\":388:804  contract Caller {... */\n  mstore(0x40, 0x80)\n  callvalue\n  dup1\n  iszero\n  tag_1\n  jumpi\n  0x00\n  dup1\n  revert\ntag_1:\n  pop\n  dataSize(sub_0)\n  dup1\n  dataOffset(sub_0)\n  0x00\n  codecopy\n  0x00\n  return\nstop\n\nsub_0: assembly {\n        /* \"day5/CallContract.sol\":388:804  contract Caller {... */\n      mstore(0x40, 0x80)\n      jumpi(tag_1, lt(calldatasize, 0x04))\n      shr(0xe0, calldataload(0x00))\n      dup1\n      0x4a2ad99f\n      eq\n      tag_2\n      jumpi\n      dup1\n      0xcb587039\n      eq\n      tag_3\n      jumpi\n      dup1\n      0xd44abc42\n      eq\n      tag_4\n      jumpi\n    tag_1:\n      0x00\n      dup1\n      revert\n        /* \"day5/CallContract.sol\":411:501  function setX(Callee _callee, uint _x) public {... */\n    tag_2:\n      callvalue\n      dup1\n      iszero\n      tag_5\n      jumpi\n      0x00\n      dup1\n      revert\n    tag_5:\n      pop\n      tag_6\n      0x04\n      dup1\n      calldatasize\n      sub\n      dup2\n      add\n      swap1\n      tag_7\n      swap2\n      swap1\n      tag_8\n      jump\t// in\n    tag_7:\n      tag_9\n      jump\t// in\n    tag_6:\n      stop\n        /* \"day5/CallContract.sol\":509:639  function setXFromAddress(address _addr, uint _x) public {... */\n    tag_3:\n      callvalue\n      dup1\n      iszero\n      tag_10\n      jumpi\n      0x00\n      dup1\n      revert\n    tag_10:\n      pop\n      tag_11\n      0x04\n      dup1\n      calldatasize\n      sub\n      dup2\n      add\n      swap1\n      tag_12\n      swap2\n      swap1\n      tag_13\n      jump\t// in\n    tag_12:\n      tag_14\n      jump\t// in\n    tag_11:\n      stop\n        /* \"day5/CallContract.sol\":647:801  function setXandSendEther(Callee _callee, uint _x) public payable {... */\n    tag_4:\n      tag_15\n      0x04\n      dup1\n      calldatasize\n      sub\n      dup2\n      add\n      swap1\n      tag_16\n      swap2\n      swap1\n      tag_8\n      jump\t// in\n    tag_16:\n      tag_17\n      jump\t// in\n    tag_15:\n      stop\n        /* \"day5/CallContract.sol\":411:501  function setX(Callee _callee, uint _x) public {... */\n    tag_9:\n        /* \"day5/CallContract.sol\":468:474  uint x */\n      0x00\n        /* \"day5/CallContract.sol\":477:484  _callee */\n      dup3\n        /* \"day5/CallContract.sol\":477:489  _callee.setX */\n      0xffffffffffffffffffffffffffffffffffffffff\n      and\n      0x4018d9aa\n        /* \"day5/CallContract.sol\":490:492  _x */\n      dup4\n        /* \"day5/CallContract.sol\":477:493  _callee.setX(_x) */\n      mload(0x40)\n      dup3\n      0xffffffff\n      and\n      0xe0\n      shl\n      dup2\n      mstore\n      0x04\n      add\n      tag_19\n      swap2\n      swap1\n      tag_20\n      jump\t// in\n    tag_19:\n      0x20\n      mload(0x40)\n      dup1\n      dup4\n      sub\n      dup2\n      0x00\n      dup8\n      gas\n      call\n      iszero\n      dup1\n      iszero\n      tag_22\n      jumpi\n      returndatasize\n      0x00\n      dup1\n      returndatacopy\n      revert(0x00, returndatasize)\n    tag_22:\n      pop\n      pop\n      pop\n      pop\n      mload(0x40)\n      returndatasize\n      not(0x1f)\n      0x1f\n      dup3\n      add\n      and\n      dup3\n      add\n      dup1\n      0x40\n      mstore\n      pop\n      dup2\n      add\n      swap1\n      tag_23\n      swap2\n      swap1\n      tag_24\n      jump\t// in\n    tag_23:\n        /* \"day5/CallContract.sol\":468:493  uint x = _callee.setX(_x) */\n      swap1\n      pop\n        /* \"day5/CallContract.sol\":457:501  {... */\n      pop\n        /* \"day5/CallContract.sol\":411:501  function setX(Callee _callee, uint _x) public {... */\n      pop\n      pop\n      jump\t// out\n        /* \"day5/CallContract.sol\":509:639  function setXFromAddress(address _addr, uint _x) public {... */\n    tag_14:\n        /* \"day5/CallContract.sol\":576:589  Callee callee */\n      0x00\n        /* \"day5/CallContract.sol\":599:604  _addr */\n      dup3\n        /* \"day5/CallContract.sol\":576:605  Callee callee = Callee(_addr) */\n      swap1\n      pop\n        /* \"day5/CallContract.sol\":616:622  callee */\n      dup1\n        /* \"day5/CallContract.sol\":616:627  callee.setX */\n      0xffffffffffffffffffffffffffffffffffffffff\n      and\n      0x4018d9aa\n        /* \"day5/CallContract.sol\":628:630  _x */\n      dup4\n        /* \"day5/CallContract.sol\":616:631  callee.setX(_x) */\n      mload(0x40)\n      dup3\n      0xffffffff\n      and\n      0xe0\n      shl\n      dup2\n      mstore\n      0x04\n      add\n      tag_26\n      swap2\n      swap1\n      tag_20\n      jump\t// in\n    tag_26:\n      0x20\n      mload(0x40)\n      dup1\n      dup4\n      sub\n      dup2\n      0x00\n      dup8\n      gas\n      call\n      iszero\n      dup1\n      iszero\n      tag_28\n      jumpi\n      returndatasize\n      0x00\n      dup1\n      returndatacopy\n      revert(0x00, returndatasize)\n    tag_28:\n      pop\n      pop\n      pop\n      pop\n      mload(0x40)\n      returndatasize\n      not(0x1f)\n      0x1f\n      dup3\n      add\n      and\n      dup3\n      add\n      dup1\n      0x40\n      mstore\n      pop\n      dup2\n      add\n      swap1\n      tag_29\n      swap2\n      swap1\n      tag_24\n      jump\t// in\n    tag_29:\n      pop\n        /* \"day5/CallContract.sol\":565:639  {... */\n      pop\n        /* \"day5/CallContract.sol\":509:639  function setXFromAddress(address _addr, uint _x) public {... */\n      pop\n      pop\n      jump\t// out\n        /* \"day5/CallContract.sol\":647:801  function setXandSendEther(Callee _callee, uint _x) public payable {... */\n    tag_17:\n        /* \"day5/CallContract.sol\":725:731  uint x */\n      0x00\n        /* \"day5/CallContract.sol\":733:743  uint value */\n      dup1\n        /* \"day5/CallContract.sol\":747:754  _callee */\n      dup4\n        /* \"day5/CallContract.sol\":747:771  _callee.setXandSendEther */\n      0xffffffffffffffffffffffffffffffffffffffff\n      and\n      0xcdc23076\n        /* \"day5/CallContract.sol\":779:788  msg.value */\n      callvalue\n        /* \"day5/CallContract.sol\":790:792  _x */\n      dup6\n        /* \"day5/CallContract.sol\":747:793  _callee.setXandSendEther{value: msg.value}(_x) */\n      mload(0x40)\n      dup4\n      0xffffffff\n      and\n      0xe0\n      shl\n      dup2\n      mstore\n      0x04\n      add\n      tag_31\n      swap2\n      swap1\n      tag_20\n      jump\t// in\n    tag_31:\n      0x40\n      dup1\n      mload\n      dup1\n      dup4\n      sub\n      dup2\n      dup6\n      dup9\n      gas\n      call\n      iszero\n      dup1\n      iszero\n      tag_33\n      jumpi\n      returndatasize\n      0x00\n      dup1\n      returndatacopy\n      revert(0x00, returndatasize)\n    tag_33:\n      pop\n      pop\n      pop\n      pop\n      pop\n      mload(0x40)\n      returndatasize\n      not(0x1f)\n      0x1f\n      dup3\n      add\n      and\n      dup3\n      add\n      dup1\n      0x40\n      mstore\n      pop\n      dup2\n      add\n      swap1\n      tag_34\n      swap2\n      swap1\n      tag_35\n      jump\t// in\n    tag_34:\n        /* \"day5/CallContract.sol\":724:793  (uint x, uint value) = _callee.setXandSendEther{value: msg.value}(_x) */\n      swap2\n      pop\n      swap2\n      pop\n        /* \"day5/CallContract.sol\":713:801  {... */\n      pop\n      pop\n        /* \"day5/CallContract.sol\":647:801  function setXandSendEther(Callee _callee, uint _x) public payable {... */\n      pop\n      pop\n      jump\t// out\n        /* \"#utility.yul\":88:205   */\n    tag_37:\n        /* \"#utility.yul\":197:198   */\n      0x00\n        /* \"#utility.yul\":194:195   */\n      dup1\n        /* \"#utility.yul\":187:199   */\n      revert\n        /* \"#utility.yul\":334:460   */\n    tag_39:\n        /* \"#utility.yul\":371:378   */\n      0x00\n        /* \"#utility.yul\":411:453   */\n      0xffffffffffffffffffffffffffffffffffffffff\n        /* \"#utility.yul\":404:409   */\n      dup3\n        /* \"#utility.yul\":400:454   */\n      and\n        /* \"#utility.yul\":389:454   */\n      swap1\n      pop\n        /* \"#utility.yul\":334:460   */\n      swap2\n      swap1\n      pop\n      jump\t// out\n        /* \"#utility.yul\":466:562   */\n    tag_40:\n        /* \"#utility.yul\":503:510   */\n      0x00\n        /* \"#utility.yul\":532:556   */\n      tag_57\n        /* \"#utility.yul\":550:555   */\n      dup3\n        /* \"#utility.yul\":532:556   */\n      tag_39\n      jump\t// in\n    tag_57:\n        /* \"#utility.yul\":521:556   */\n      swap1\n      pop\n        /* \"#utility.yul\":466:562   */\n      swap2\n      swap1\n      pop\n      jump\t// out\n        /* \"#utility.yul\":568:677   */\n    tag_41:\n        /* \"#utility.yul\":618:625   */\n      0x00\n        /* \"#utility.yul\":647:671   */\n      tag_59\n        /* \"#utility.yul\":665:670   */\n      dup3\n        /* \"#utility.yul\":647:671   */\n      tag_40\n      jump\t// in\n    tag_59:\n        /* \"#utility.yul\":636:671   */\n      swap1\n      pop\n        /* \"#utility.yul\":568:677   */\n      swap2\n      swap1\n      pop\n      jump\t// out\n        /* \"#utility.yul\":683:831   */\n    tag_42:\n        /* \"#utility.yul\":769:806   */\n      tag_61\n        /* \"#utility.yul\":800:805   */\n      dup2\n        /* \"#utility.yul\":769:806   */\n      tag_41\n      jump\t// in\n    tag_61:\n        /* \"#utility.yul\":762:767   */\n      dup2\n        /* \"#utility.yul\":759:807   */\n      eq\n        /* \"#utility.yul\":749:825   */\n      tag_62\n      jumpi\n        /* \"#utility.yul\":821:822   */\n      0x00\n        /* \"#utility.yul\":818:819   */\n      dup1\n        /* \"#utility.yul\":811:823   */\n      revert\n        /* \"#utility.yul\":749:825   */\n    tag_62:\n        /* \"#utility.yul\":683:831   */\n      pop\n      jump\t// out\n        /* \"#utility.yul\":837:1002   */\n    tag_43:\n        /* \"#utility.yul\":896:901   */\n      0x00\n        /* \"#utility.yul\":934:940   */\n      dup2\n        /* \"#utility.yul\":921:941   */\n      calldataload\n        /* \"#utility.yul\":912:941   */\n      swap1\n      pop\n        /* \"#utility.yul\":950:996   */\n      tag_64\n        /* \"#utility.yul\":990:995   */\n      dup2\n        /* \"#utility.yul\":950:996   */\n      tag_42\n      jump\t// in\n    tag_64:\n        /* \"#utility.yul\":837:1002   */\n      swap3\n      swap2\n      pop\n      pop\n      jump\t// out\n        /* \"#utility.yul\":1008:1085   */\n    tag_44:\n        /* \"#utility.yul\":1045:1052   */\n      0x00\n        /* \"#utility.yul\":1074:1079   */\n      dup2\n        /* \"#utility.yul\":1063:1079   */\n      swap1\n      pop\n        /* \"#utility.yul\":1008:1085   */\n      swap2\n      swap1\n      pop\n      jump\t// out\n        /* \"#utility.yul\":1091:1213   */\n    tag_45:\n        /* \"#utility.yul\":1164:1188   */\n      tag_67\n        /* \"#utility.yul\":1182:1187   */\n      dup2\n        /* \"#utility.yul\":1164:1188   */\n      tag_44\n      jump\t// in\n    tag_67:\n        /* \"#utility.yul\":1157:1162   */\n      dup2\n        /* \"#utility.yul\":1154:1189   */\n      eq\n        /* \"#utility.yul\":1144:1207   */\n      tag_68\n      jumpi\n        /* \"#utility.yul\":1203:1204   */\n      0x00\n        /* \"#utility.yul\":1200:1201   */\n      dup1\n        /* \"#utility.yul\":1193:1205   */\n      revert\n        /* \"#utility.yul\":1144:1207   */\n    tag_68:\n        /* \"#utility.yul\":1091:1213   */\n      pop\n      jump\t// out\n        /* \"#utility.yul\":1219:1358   */\n    tag_46:\n        /* \"#utility.yul\":1265:1270   */\n      0x00\n        /* \"#utility.yul\":1303:1309   */\n      dup2\n        /* \"#utility.yul\":1290:1310   */\n      calldataload\n        /* \"#utility.yul\":1281:1310   */\n      swap1\n      pop\n        /* \"#utility.yul\":1319:1352   */\n      tag_70\n        /* \"#utility.yul\":1346:1351   */\n      dup2\n        /* \"#utility.yul\":1319:1352   */\n      tag_45\n      jump\t// in\n    tag_70:\n        /* \"#utility.yul\":1219:1358   */\n      swap3\n      swap2\n      pop\n      pop\n      jump\t// out\n        /* \"#utility.yul\":1364:1864   */\n    tag_8:\n        /* \"#utility.yul\":1445:1451   */\n      0x00\n        /* \"#utility.yul\":1453:1459   */\n      dup1\n        /* \"#utility.yul\":1502:1504   */\n      0x40\n        /* \"#utility.yul\":1490:1499   */\n      dup4\n        /* \"#utility.yul\":1481:1488   */\n      dup6\n        /* \"#utility.yul\":1477:1500   */\n      sub\n        /* \"#utility.yul\":1473:1505   */\n      slt\n        /* \"#utility.yul\":1470:1589   */\n      iszero\n      tag_72\n      jumpi\n        /* \"#utility.yul\":1508:1587   */\n      tag_73\n      tag_37\n      jump\t// in\n    tag_73:\n        /* \"#utility.yul\":1470:1589   */\n    tag_72:\n        /* \"#utility.yul\":1628:1629   */\n      0x00\n        /* \"#utility.yul\":1653:1719   */\n      tag_74\n        /* \"#utility.yul\":1711:1718   */\n      dup6\n        /* \"#utility.yul\":1702:1708   */\n      dup3\n        /* \"#utility.yul\":1691:1700   */\n      dup7\n        /* \"#utility.yul\":1687:1709   */\n      add\n        /* \"#utility.yul\":1653:1719   */\n      tag_43\n      jump\t// in\n    tag_74:\n        /* \"#utility.yul\":1643:1719   */\n      swap3\n      pop\n        /* \"#utility.yul\":1599:1729   */\n      pop\n        /* \"#utility.yul\":1768:1770   */\n      0x20\n        /* \"#utility.yul\":1794:1847   */\n      tag_75\n        /* \"#utility.yul\":1839:1846   */\n      dup6\n        /* \"#utility.yul\":1830:1836   */\n      dup3\n        /* \"#utility.yul\":1819:1828   */\n      dup7\n        /* \"#utility.yul\":1815:1837   */\n      add\n        /* \"#utility.yul\":1794:1847   */\n      tag_46\n      jump\t// in\n    tag_75:\n        /* \"#utility.yul\":1784:1847   */\n      swap2\n      pop\n        /* \"#utility.yul\":1739:1857   */\n      pop\n        /* \"#utility.yul\":1364:1864   */\n      swap3\n      pop\n      swap3\n      swap1\n      pop\n      jump\t// out\n        /* \"#utility.yul\":1870:1992   */\n    tag_47:\n        /* \"#utility.yul\":1943:1967   */\n      tag_77\n        /* \"#utility.yul\":1961:1966   */\n      dup2\n        /* \"#utility.yul\":1943:1967   */\n      tag_40\n      jump\t// in\n    tag_77:\n        /* \"#utility.yul\":1936:1941   */\n      dup2\n        /* \"#utility.yul\":1933:1968   */\n      eq\n        /* \"#utility.yul\":1923:1986   */\n      tag_78\n      jumpi\n        /* \"#utility.yul\":1982:1983   */\n      0x00\n        /* \"#utility.yul\":1979:1980   */\n      dup1\n        /* \"#utility.yul\":1972:1984   */\n      revert\n        /* \"#utility.yul\":1923:1986   */\n    tag_78:\n        /* \"#utility.yul\":1870:1992   */\n      pop\n      jump\t// out\n        /* \"#utility.yul\":1998:2137   */\n    tag_48:\n        /* \"#utility.yul\":2044:2049   */\n      0x00\n        /* \"#utility.yul\":2082:2088   */\n      dup2\n        /* \"#utility.yul\":2069:2089   */\n      calldataload\n        /* \"#utility.yul\":2060:2089   */\n      swap1\n      pop\n        /* \"#utility.yul\":2098:2131   */\n      tag_80\n        /* \"#utility.yul\":2125:2130   */\n      dup2\n        /* \"#utility.yul\":2098:2131   */\n      tag_47\n      jump\t// in\n    tag_80:\n        /* \"#utility.yul\":1998:2137   */\n      swap3\n      swap2\n      pop\n      pop\n      jump\t// out\n        /* \"#utility.yul\":2143:2617   */\n    tag_13:\n        /* \"#utility.yul\":2211:2217   */\n      0x00\n        /* \"#utility.yul\":2219:2225   */\n      dup1\n        /* \"#utility.yul\":2268:2270   */\n      0x40\n        /* \"#utility.yul\":2256:2265   */\n      dup4\n        /* \"#utility.yul\":2247:2254   */\n      dup6\n        /* \"#utility.yul\":2243:2266   */\n      sub\n        /* \"#utility.yul\":2239:2271   */\n      slt\n        /* \"#utility.yul\":2236:2355   */\n      iszero\n      tag_82\n      jumpi\n        /* \"#utility.yul\":2274:2353   */\n      tag_83\n      tag_37\n      jump\t// in\n    tag_83:\n        /* \"#utility.yul\":2236:2355   */\n    tag_82:\n        /* \"#utility.yul\":2394:2395   */\n      0x00\n        /* \"#utility.yul\":2419:2472   */\n      tag_84\n        /* \"#utility.yul\":2464:2471   */\n      dup6\n        /* \"#utility.yul\":2455:2461   */\n      dup3\n        /* \"#utility.yul\":2444:2453   */\n      dup7\n        /* \"#utility.yul\":2440:2462   */\n      add\n        /* \"#utility.yul\":2419:2472   */\n      tag_48\n      jump\t// in\n    tag_84:\n        /* \"#utility.yul\":2409:2472   */\n      swap3\n      pop\n        /* \"#utility.yul\":2365:2482   */\n      pop\n        /* \"#utility.yul\":2521:2523   */\n      0x20\n        /* \"#utility.yul\":2547:2600   */\n      tag_85\n        /* \"#utility.yul\":2592:2599   */\n      dup6\n        /* \"#utility.yul\":2583:2589   */\n      dup3\n        /* \"#utility.yul\":2572:2581   */\n      dup7\n        /* \"#utility.yul\":2568:2590   */\n      add\n        /* \"#utility.yul\":2547:2600   */\n      tag_46\n      jump\t// in\n    tag_85:\n        /* \"#utility.yul\":2537:2600   */\n      swap2\n      pop\n        /* \"#utility.yul\":2492:2610   */\n      pop\n        /* \"#utility.yul\":2143:2617   */\n      swap3\n      pop\n      swap3\n      swap1\n      pop\n      jump\t// out\n        /* \"#utility.yul\":2623:2741   */\n    tag_49:\n        /* \"#utility.yul\":2710:2734   */\n      tag_87\n        /* \"#utility.yul\":2728:2733   */\n      dup2\n        /* \"#utility.yul\":2710:2734   */\n      tag_44\n      jump\t// in\n    tag_87:\n        /* \"#utility.yul\":2705:2708   */\n      dup3\n        /* \"#utility.yul\":2698:2735   */\n      mstore\n        /* \"#utility.yul\":2623:2741   */\n      pop\n      pop\n      jump\t// out\n        /* \"#utility.yul\":2747:2969   */\n    tag_20:\n        /* \"#utility.yul\":2840:2844   */\n      0x00\n        /* \"#utility.yul\":2878:2880   */\n      0x20\n        /* \"#utility.yul\":2867:2876   */\n      dup3\n        /* \"#utility.yul\":2863:2881   */\n      add\n        /* \"#utility.yul\":2855:2881   */\n      swap1\n      pop\n        /* \"#utility.yul\":2891:2962   */\n      tag_89\n        /* \"#utility.yul\":2959:2960   */\n      0x00\n        /* \"#utility.yul\":2948:2957   */\n      dup4\n        /* \"#utility.yul\":2944:2961   */\n      add\n        /* \"#utility.yul\":2935:2941   */\n      dup5\n        /* \"#utility.yul\":2891:2962   */\n      tag_49\n      jump\t// in\n    tag_89:\n        /* \"#utility.yul\":2747:2969   */\n      swap3\n      swap2\n      pop\n      pop\n      jump\t// out\n        /* \"#utility.yul\":2975:3118   */\n    tag_50:\n        /* \"#utility.yul\":3032:3037   */\n      0x00\n        /* \"#utility.yul\":3063:3069   */\n      dup2\n        /* \"#utility.yul\":3057:3070   */\n      mload\n        /* \"#utility.yul\":3048:3070   */\n      swap1\n      pop\n        /* \"#utility.yul\":3079:3112   */\n      tag_91\n        /* \"#utility.yul\":3106:3111   */\n      dup2\n        /* \"#utility.yul\":3079:3112   */\n      tag_45\n      jump\t// in\n    tag_91:\n        /* \"#utility.yul\":2975:3118   */\n      swap3\n      swap2\n      pop\n      pop\n      jump\t// out\n        /* \"#utility.yul\":3124:3475   */\n    tag_24:\n        /* \"#utility.yul\":3194:3200   */\n      0x00\n        /* \"#utility.yul\":3243:3245   */\n      0x20\n        /* \"#utility.yul\":3231:3240   */\n      dup3\n        /* \"#utility.yul\":3222:3229   */\n      dup5\n        /* \"#utility.yul\":3218:3241   */\n      sub\n        /* \"#utility.yul\":3214:3246   */\n      slt\n        /* \"#utility.yul\":3211:3330   */\n      iszero\n      tag_93\n      jumpi\n        /* \"#utility.yul\":3249:3328   */\n      tag_94\n      tag_37\n      jump\t// in\n    tag_94:\n        /* \"#utility.yul\":3211:3330   */\n    tag_93:\n        /* \"#utility.yul\":3369:3370   */\n      0x00\n        /* \"#utility.yul\":3394:3458   */\n      tag_95\n        /* \"#utility.yul\":3450:3457   */\n      dup5\n        /* \"#utility.yul\":3441:3447   */\n      dup3\n        /* \"#utility.yul\":3430:3439   */\n      dup6\n        /* \"#utility.yul\":3426:3448   */\n      add\n        /* \"#utility.yul\":3394:3458   */\n      tag_50\n      jump\t// in\n    tag_95:\n        /* \"#utility.yul\":3384:3458   */\n      swap2\n      pop\n        /* \"#utility.yul\":3340:3468   */\n      pop\n        /* \"#utility.yul\":3124:3475   */\n      swap3\n      swap2\n      pop\n      pop\n      jump\t// out\n        /* \"#utility.yul\":3481:3988   */\n    tag_35:\n        /* \"#utility.yul\":3560:3566   */\n      0x00\n        /* \"#utility.yul\":3568:3574   */\n      dup1\n        /* \"#utility.yul\":3617:3619   */\n      0x40\n        /* \"#utility.yul\":3605:3614   */\n      dup4\n        /* \"#utility.yul\":3596:3603   */\n      dup6\n        /* \"#utility.yul\":3592:3615   */\n      sub\n        /* \"#utility.yul\":3588:3620   */\n      slt\n        /* \"#utility.yul\":3585:3704   */\n      iszero\n      tag_97\n      jumpi\n        /* \"#utility.yul\":3623:3702   */\n      tag_98\n      tag_37\n      jump\t// in\n    tag_98:\n        /* \"#utility.yul\":3585:3704   */\n    tag_97:\n        /* \"#utility.yul\":3743:3744   */\n      0x00\n        /* \"#utility.yul\":3768:3832   */\n      tag_99\n        /* \"#utility.yul\":3824:3831   */\n      dup6\n        /* \"#utility.yul\":3815:3821   */\n      dup3\n        /* \"#utility.yul\":3804:3813   */\n      dup7\n        /* \"#utility.yul\":3800:3822   */\n      add\n        /* \"#utility.yul\":3768:3832   */\n      tag_50\n      jump\t// in\n    tag_99:\n        /* \"#utility.yul\":3758:3832   */\n      swap3\n      pop\n        /* \"#utility.yul\":3714:3842   */\n      pop\n        /* \"#utility.yul\":3881:3883   */\n      0x20\n        /* \"#utility.yul\":3907:3971   */\n      tag_100\n        /* \"#utility.yul\":3963:3970   */\n      dup6\n        /* \"#utility.yul\":3954:3960   */\n      dup3\n        /* \"#utility.yul\":3943:3952   */\n      dup7\n        /* \"#utility.yul\":3939:3961   */\n      add\n        /* \"#utility.yul\":3907:3971   */\n      tag_50\n      jump\t// in\n    tag_100:\n        /* \"#utility.yul\":3897:3971   */\n      swap2\n      pop\n        /* \"#utility.yul\":3852:3981   */\n      pop\n        /* \"#utility.yul\":3481:3988   */\n      swap3\n      pop\n      swap3\n      swap1\n      pop\n      jump\t// out\n\n    auxdata: 0xa264697066735822122006603a9c5f947ae35f413acc98afb8997d13af79b2ffc8d885a358f10a8b671664736f6c63430008110033\n}\n",
				"bytecode": {
					"linkReferences": {},
					"object": "608060405234801561001057600080fd5b50610475806100206000396000f3fe6080604052600436106100345760003560e01c80634a2ad99f14610039578063cb58703914610062578063d44abc421461008b575b600080fd5b34801561004557600080fd5b50610060600480360381019061005b91906102e7565b6100a7565b005b34801561006e57600080fd5b5061008960048036038101906100849190610353565b61012c565b005b6100a560048036038101906100a091906102e7565b6101b3565b005b60008273ffffffffffffffffffffffffffffffffffffffff16634018d9aa836040518263ffffffff1660e01b81526004016100e291906103a2565b6020604051808303816000875af1158015610101573d6000803e3d6000fd5b505050506040513d601f19601f8201168201806040525081019061012591906103d2565b9050505050565b60008290508073ffffffffffffffffffffffffffffffffffffffff16634018d9aa836040518263ffffffff1660e01b815260040161016a91906103a2565b6020604051808303816000875af1158015610189573d6000803e3d6000fd5b505050506040513d601f19601f820116820180604052508101906101ad91906103d2565b50505050565b6000808373ffffffffffffffffffffffffffffffffffffffff1663cdc2307634856040518363ffffffff1660e01b81526004016101f091906103a2565b604080518083038185885af115801561020d573d6000803e3d6000fd5b50505050506040513d601f19601f8201168201806040525081019061023291906103ff565b9150915050505050565b600080fd5b600073ffffffffffffffffffffffffffffffffffffffff82169050919050565b600061026c82610241565b9050919050565b600061027e82610261565b9050919050565b61028e81610273565b811461029957600080fd5b50565b6000813590506102ab81610285565b92915050565b6000819050919050565b6102c4816102b1565b81146102cf57600080fd5b50565b6000813590506102e1816102bb565b92915050565b600080604083850312156102fe576102fd61023c565b5b600061030c8582860161029c565b925050602061031d858286016102d2565b9150509250929050565b61033081610261565b811461033b57600080fd5b50565b60008135905061034d81610327565b92915050565b6000806040838503121561036a5761036961023c565b5b60006103788582860161033e565b9250506020610389858286016102d2565b9150509250929050565b61039c816102b1565b82525050565b60006020820190506103b76000830184610393565b92915050565b6000815190506103cc816102bb565b92915050565b6000602082840312156103e8576103e761023c565b5b60006103f6848285016103bd565b91505092915050565b600080604083850312156104165761041561023c565b5b6000610424858286016103bd565b9250506020610435858286016103bd565b915050925092905056fea264697066735822122006603a9c5f947ae35f413acc98afb8997d13af79b2ffc8d885a358f10a8b671664736f6c63430008110033",
					"opcodes": "PUSH1 0x80 PUSH1 0x40 MSTORE CALLVALUE DUP1 ISZERO PUSH2 0x10 JUMPI PUSH1 0x0 DUP1 REVERT JUMPDEST POP PUSH2 0x475 DUP1 PUSH2 0x20 PUSH1 0x0 CODECOPY PUSH1 0x0 RETURN INVALID PUSH1 0x80 PUSH1 0x40 MSTORE PUSH1 0x4 CALLDATASIZE LT PUSH2 0x34 JUMPI PUSH1 0x0 CALLDATALOAD PUSH1 0xE0 SHR DUP1 PUSH4 0x4A2AD99F EQ PUSH2 0x39 JUMPI DUP1 PUSH4 0xCB587039 EQ PUSH2 0x62 JUMPI DUP1 PUSH4 0xD44ABC42 EQ PUSH2 0x8B JUMPI JUMPDEST PUSH1 0x0 DUP1 REVERT JUMPDEST CALLVALUE DUP1 ISZERO PUSH2 0x45 JUMPI PUSH1 0x0 DUP1 REVERT JUMPDEST POP PUSH2 0x60 PUSH1 0x4 DUP1 CALLDATASIZE SUB DUP2 ADD SWAP1 PUSH2 0x5B SWAP2 SWAP1 PUSH2 0x2E7 JUMP JUMPDEST PUSH2 0xA7 JUMP JUMPDEST STOP JUMPDEST CALLVALUE DUP1 ISZERO PUSH2 0x6E JUMPI PUSH1 0x0 DUP1 REVERT JUMPDEST POP PUSH2 0x89 PUSH1 0x4 DUP1 CALLDATASIZE SUB DUP2 ADD SWAP1 PUSH2 0x84 SWAP2 SWAP1 PUSH2 0x353 JUMP JUMPDEST PUSH2 0x12C JUMP JUMPDEST STOP JUMPDEST PUSH2 0xA5 PUSH1 0x4 DUP1 CALLDATASIZE SUB DUP2 ADD SWAP1 PUSH2 0xA0 SWAP2 SWAP1 PUSH2 0x2E7 JUMP JUMPDEST PUSH2 0x1B3 JUMP JUMPDEST STOP JUMPDEST PUSH1 0x0 DUP3 PUSH20 0xFFFFFFFFFFFFFFFFFFFFFFFFFFFFFFFFFFFFFFFF AND PUSH4 0x4018D9AA DUP4 PUSH1 0x40 MLOAD DUP3 PUSH4 0xFFFFFFFF AND PUSH1 0xE0 SHL DUP2 MSTORE PUSH1 0x4 ADD PUSH2 0xE2 SWAP2 SWAP1 PUSH2 0x3A2 JUMP JUMPDEST PUSH1 0x20 PUSH1 0x40 MLOAD DUP1 DUP4 SUB DUP2 PUSH1 0x0 DUP8 GAS CALL ISZERO DUP1 ISZERO PUSH2 0x101 JUMPI RETURNDATASIZE PUSH1 0x0 DUP1 RETURNDATACOPY RETURNDATASIZE PUSH1 0x0 REVERT JUMPDEST POP POP POP POP PUSH1 0x40 MLOAD RETURNDATASIZE PUSH1 0x1F NOT PUSH1 0x1F DUP3 ADD AND DUP3 ADD DUP1 PUSH1 0x40 MSTORE POP DUP2 ADD SWAP1 PUSH2 0x125 SWAP2 SWAP1 PUSH2 0x3D2 JUMP JUMPDEST SWAP1 POP POP POP POP JUMP JUMPDEST PUSH1 0x0 DUP3 SWAP1 POP DUP1 PUSH20 0xFFFFFFFFFFFFFFFFFFFFFFFFFFFFFFFFFFFFFFFF AND PUSH4 0x4018D9AA DUP4 PUSH1 0x40 MLOAD DUP3 PUSH4 0xFFFFFFFF AND PUSH1 0xE0 SHL DUP2 MSTORE PUSH1 0x4 ADD PUSH2 0x16A SWAP2 SWAP1 PUSH2 0x3A2 JUMP JUMPDEST PUSH1 0x20 PUSH1 0x40 MLOAD DUP1 DUP4 SUB DUP2 PUSH1 0x0 DUP8 GAS CALL ISZERO DUP1 ISZERO PUSH2 0x189 JUMPI RETURNDATASIZE PUSH1 0x0 DUP1 RETURNDATACOPY RETURNDATASIZE PUSH1 0x0 REVERT JUMPDEST POP POP POP POP PUSH1 0x40 MLOAD RETURNDATASIZE PUSH1 0x1F NOT PUSH1 0x1F DUP3 ADD AND DUP3 ADD DUP1 PUSH1 0x40 MSTORE POP DUP2 ADD SWAP1 PUSH2 0x1AD SWAP2 SWAP1 PUSH2 0x3D2 JUMP JUMPDEST POP POP POP POP JUMP JUMPDEST PUSH1 0x0 DUP1 DUP4 PUSH20 0xFFFFFFFFFFFFFFFFFFFFFFFFFFFFFFFFFFFFFFFF AND PUSH4 0xCDC23076 CALLVALUE DUP6 PUSH1 0x40 MLOAD DUP4 PUSH4 0xFFFFFFFF AND PUSH1 0xE0 SHL DUP2 MSTORE PUSH1 0x4 ADD PUSH2 0x1F0 SWAP2 SWAP1 PUSH2 0x3A2 JUMP JUMPDEST PUSH1 0x40 DUP1 MLOAD DUP1 DUP4 SUB DUP2 DUP6 DUP9 GAS CALL ISZERO DUP1 ISZERO PUSH2 0x20D JUMPI RETURNDATASIZE PUSH1 0x0 DUP1 RETURNDATACOPY RETURNDATASIZE PUSH1 0x0 REVERT JUMPDEST POP POP POP POP POP PUSH1 0x40 MLOAD RETURNDATASIZE PUSH1 0x1F NOT PUSH1 0x1F DUP3 ADD AND DUP3 ADD DUP1 PUSH1 0x40 MSTORE POP DUP2 ADD SWAP1 PUSH2 0x232 SWAP2 SWAP1 PUSH2 0x3FF JUMP JUMPDEST SWAP2 POP SWAP2 POP POP POP POP POP JUMP JUMPDEST PUSH1 0x0 DUP1 REVERT JUMPDEST PUSH1 0x0 PUSH20 0xFFFFFFFFFFFFFFFFFFFFFFFFFFFFFFFFFFFFFFFF DUP3 AND SWAP1 POP SWAP2 SWAP1 POP JUMP JUMPDEST PUSH1 0x0 PUSH2 0x26C DUP3 PUSH2 0x241 JUMP JUMPDEST SWAP1 POP SWAP2 SWAP1 POP JUMP JUMPDEST PUSH1 0x0 PUSH2 0x27E DUP3 PUSH2 0x261 JUMP JUMPDEST SWAP1 POP SWAP2 SWAP1 POP JUMP JUMPDEST PUSH2 0x28E DUP2 PUSH2 0x273 JUMP JUMPDEST DUP2 EQ PUSH2 0x299 JUMPI PUSH1 0x0 DUP1 REVERT JUMPDEST POP JUMP JUMPDEST PUSH1 0x0 DUP2 CALLDATALOAD SWAP1 POP PUSH2 0x2AB DUP2 PUSH2 0x285 JUMP JUMPDEST SWAP3 SWAP2 POP POP JUMP JUMPDEST PUSH1 0x0 DUP2 SWAP1 POP SWAP2 SWAP1 POP JUMP JUMPDEST PUSH2 0x2C4 DUP2 PUSH2 0x2B1 JUMP JUMPDEST DUP2 EQ PUSH2 0x2CF JUMPI PUSH1 0x0 DUP1 REVERT JUMPDEST POP JUMP JUMPDEST PUSH1 0x0 DUP2 CALLDATALOAD SWAP1 POP PUSH2 0x2E1 DUP2 PUSH2 0x2BB JUMP JUMPDEST SWAP3 SWAP2 POP POP JUMP JUMPDEST PUSH1 0x0 DUP1 PUSH1 0x40 DUP4 DUP6 SUB SLT ISZERO PUSH2 0x2FE JUMPI PUSH2 0x2FD PUSH2 0x23C JUMP JUMPDEST JUMPDEST PUSH1 0x0 PUSH2 0x30C DUP6 DUP3 DUP7 ADD PUSH2 0x29C JUMP JUMPDEST SWAP3 POP POP PUSH1 0x20 PUSH2 0x31D DUP6 DUP3 DUP7 ADD PUSH2 0x2D2 JUMP JUMPDEST SWAP2 POP POP SWAP3 POP SWAP3 SWAP1 POP JUMP JUMPDEST PUSH2 0x330 DUP2 PUSH2 0x261 JUMP JUMPDEST DUP2 EQ PUSH2 0x33B JUMPI PUSH1 0x0 DUP1 REVERT JUMPDEST POP JUMP JUMPDEST PUSH1 0x0 DUP2 CALLDATALOAD SWAP1 POP PUSH2 0x34D DUP2 PUSH2 0x327 JUMP JUMPDEST SWAP3 SWAP2 POP POP JUMP JUMPDEST PUSH1 0x0 DUP1 PUSH1 0x40 DUP4 DUP6 SUB SLT ISZERO PUSH2 0x36A JUMPI PUSH2 0x369 PUSH2 0x23C JUMP JUMPDEST JUMPDEST PUSH1 0x0 PUSH2 0x378 DUP6 DUP3 DUP7 ADD PUSH2 0x33E JUMP JUMPDEST SWAP3 POP POP PUSH1 0x20 PUSH2 0x389 DUP6 DUP3 DUP7 ADD PUSH2 0x2D2 JUMP JUMPDEST SWAP2 POP POP SWAP3 POP SWAP3 SWAP1 POP JUMP JUMPDEST PUSH2 0x39C DUP2 PUSH2 0x2B1 JUMP JUMPDEST DUP3 MSTORE POP POP JUMP JUMPDEST PUSH1 0x0 PUSH1 0x20 DUP3 ADD SWAP1 POP PUSH2 0x3B7 PUSH1 0x0 DUP4 ADD DUP5 PUSH2 0x393 JUMP JUMPDEST SWAP3 SWAP2 POP POP JUMP JUMPDEST PUSH1 0x0 DUP2 MLOAD SWAP1 POP PUSH2 0x3CC DUP2 PUSH2 0x2BB JUMP JUMPDEST SWAP3 SWAP2 POP POP JUMP JUMPDEST PUSH1 0x0 PUSH1 0x20 DUP3 DUP5 SUB SLT ISZERO PUSH2 0x3E8 JUMPI PUSH2 0x3E7 PUSH2 0x23C JUMP JUMPDEST JUMPDEST PUSH1 0x0 PUSH2 0x3F6 DUP5 DUP3 DUP6 ADD PUSH2 0x3BD JUMP JUMPDEST SWAP2 POP POP SWAP3 SWAP2 POP POP JUMP JUMPDEST PUSH1 0x0 DUP1 PUSH1 0x40 DUP4 DUP6 SUB SLT ISZERO PUSH2 0x416 JUMPI PUSH2 0x415 PUSH2 0x23C JUMP JUMPDEST JUMPDEST PUSH1 0x0 PUSH2 0x424 DUP6 DUP3 DUP7 ADD PUSH2 0x3BD JUMP JUMPDEST SWAP3 POP POP PUSH1 0x20 PUSH2 0x435 DUP6 DUP3 DUP7 ADD PUSH2 0x3BD JUMP JUMPDEST SWAP2 POP POP SWAP3 POP SWAP3 SWAP1 POP JUMP INVALID LOG2 PUSH5 0x6970667358 0x22 SLT KECCAK256 MOD PUSH1 0x3A SWAP13 0x5F SWAP5 PUSH27 0xE35F413ACC98AFB8997D13AF79B2FFC8D885A358F10A8B67166473 PUSH16 0x6C634300081100330000000000000000 "
				},
				"gasEstimates": {
					"creation": {
						"codeDepositCost": "228200",
						"executionCost": "269",
						"totalCost": "228469"
					},
					"external": {
						"setX(address,uint256)": "infinite",
						"setXFromAddress(address,uint256)": "infinite",
						"setXandSendEther(address,uint256)": "infinite"
					}
				},
				"methodIdentifiers": {
					"setX(address,uint256)": "4a2ad99f",
					"setXFromAddress(address,uint256)": "cb587039",
					"setXandSendEther(address,uint256)": "d44abc42"
				}
			},
			"storageLayout": {
				"storage": [],
				"types": null
			},
			"userdoc": {
				"kind": "user",
				"methods": {},
				"version": 1
			}
		}
	}
}