{
	"day5/Fallback.sol": {
		"Caller": {
			"abi": [
				{
					"inputs": [
						{
							"internalType": "address payable",
							"name": "_addr",
							"type": "address"
						}
					],
					"name": "deposit",
					"outputs": [],
					"stateMutability": "payable",
					"type": "function"
				}
			],
			"devdoc": {
				"kind": "dev",
				"methods": {},
				"version": 1
			},
			"evm": {
				"assembly": "    /* \"day5/Fallback.sol\":134:299  contract Caller{... */\n  mstore(0x40, 0x80)\n  callvalue\n  dup1\n  iszero\n  tag_1\n  jumpi\n  0x00\n  dup1\n  revert\ntag_1:\n  pop\n  dataSize(sub_0)\n  dup1\n  dataOffset(sub_0)\n  0x00\n  codecopy\n  0x00\n  return\nstop\n\nsub_0: assembly {\n        /* \"day5/Fallback.sol\":134:299  contract Caller{... */\n      mstore(0x40, 0x80)\n      jumpi(tag_1, lt(calldatasize, 0x04))\n      shr(0xe0, calldataload(0x00))\n      dup1\n      0xf340fa01\n      eq\n      tag_2\n      jumpi\n    tag_1:\n      0x00\n      dup1\n      revert\n        /* \"day5/Fallback.sol\":156:296  function deposit(address payable _addr) public payable{... */\n    tag_2:\n      tag_3\n      0x04\n      dup1\n      calldatasize\n      sub\n      dup2\n      add\n      swap1\n      tag_4\n      swap2\n      swap1\n      tag_5\n      jump\t// in\n    tag_4:\n      tag_6\n      jump\t// in\n    tag_3:\n      stop\n    tag_6:\n        /* \"day5/Fallback.sol\":221:233  bool success */\n      0x00\n        /* \"day5/Fallback.sol\":235:252  bytes memory data */\n      dup1\n        /* \"day5/Fallback.sol\":257:262  _addr */\n      dup3\n        /* \"day5/Fallback.sol\":257:267  _addr.call */\n      0xffffffffffffffffffffffffffffffffffffffff\n      and\n        /* \"day5/Fallback.sol\":274:283  msg.value */\n      callvalue\n        /* \"day5/Fallback.sol\":257:288  _addr.call{value:msg.value}(\"\") */\n      mload(0x40)\n      tag_8\n      swap1\n      tag_9\n      jump\t// in\n    tag_8:\n      0x00\n      mload(0x40)\n      dup1\n      dup4\n      sub\n      dup2\n      dup6\n      dup8\n      gas\n      call\n      swap3\n      pop\n      pop\n      pop\n      returndatasize\n      dup1\n      0x00\n      dup2\n      eq\n      tag_12\n      jumpi\n      mload(0x40)\n      swap2\n      pop\n      and(add(returndatasize, 0x3f), not(0x1f))\n      dup3\n      add\n      0x40\n      mstore\n      returndatasize\n      dup3\n      mstore\n      returndatasize\n      0x00\n      0x20\n      dup5\n      add\n      returndatacopy\n      jump(tag_11)\n    tag_12:\n      0x60\n      swap2\n      pop\n    tag_11:\n      pop\n        /* \"day5/Fallback.sol\":220:288  (bool success, bytes memory data) =  _addr.call{value:msg.value}(\"\") */\n      swap2\n      pop\n      swap2\n      pop\n        /* \"day5/Fallback.sol\":210:296  {... */\n      pop\n      pop\n        /* \"day5/Fallback.sol\":156:296  function deposit(address payable _addr) public payable{... */\n      pop\n      jump\t// out\n        /* \"#utility.yul\":88:205   */\n    tag_14:\n        /* \"#utility.yul\":197:198   */\n      0x00\n        /* \"#utility.yul\":194:195   */\n      dup1\n        /* \"#utility.yul\":187:199   */\n      revert\n        /* \"#utility.yul\":334:460   */\n    tag_16:\n        /* \"#utility.yul\":371:378   */\n      0x00\n        /* \"#utility.yul\":411:453   */\n      0xffffffffffffffffffffffffffffffffffffffff\n        /* \"#utility.yul\":404:409   */\n      dup3\n        /* \"#utility.yul\":400:454   */\n      and\n        /* \"#utility.yul\":389:454   */\n      swap1\n      pop\n        /* \"#utility.yul\":334:460   */\n      swap2\n      swap1\n      pop\n      jump\t// out\n        /* \"#utility.yul\":466:570   */\n    tag_17:\n        /* \"#utility.yul\":511:518   */\n      0x00\n        /* \"#utility.yul\":540:564   */\n      tag_29\n        /* \"#utility.yul\":558:563   */\n      dup3\n        /* \"#utility.yul\":540:564   */\n      tag_16\n      jump\t// in\n    tag_29:\n        /* \"#utility.yul\":529:564   */\n      swap1\n      pop\n        /* \"#utility.yul\":466:570   */\n      swap2\n      swap1\n      pop\n      jump\t// out\n        /* \"#utility.yul\":576:714   */\n    tag_18:\n        /* \"#utility.yul\":657:689   */\n      tag_31\n        /* \"#utility.yul\":683:688   */\n      dup2\n        /* \"#utility.yul\":657:689   */\n      tag_17\n      jump\t// in\n    tag_31:\n        /* \"#utility.yul\":650:655   */\n      dup2\n        /* \"#utility.yul\":647:690   */\n      eq\n        /* \"#utility.yul\":637:708   */\n      tag_32\n      jumpi\n        /* \"#utility.yul\":704:705   */\n      0x00\n        /* \"#utility.yul\":701:702   */\n      dup1\n        /* \"#utility.yul\":694:706   */\n      revert\n        /* \"#utility.yul\":637:708   */\n    tag_32:\n        /* \"#utility.yul\":576:714   */\n      pop\n      jump\t// out\n        /* \"#utility.yul\":720:875   */\n    tag_19:\n        /* \"#utility.yul\":774:779   */\n      0x00\n        /* \"#utility.yul\":812:818   */\n      dup2\n        /* \"#utility.yul\":799:819   */\n      calldataload\n        /* \"#utility.yul\":790:819   */\n      swap1\n      pop\n        /* \"#utility.yul\":828:869   */\n      tag_34\n        /* \"#utility.yul\":863:868   */\n      dup2\n        /* \"#utility.yul\":828:869   */\n      tag_18\n      jump\t// in\n    tag_34:\n        /* \"#utility.yul\":720:875   */\n      swap3\n      swap2\n      pop\n      pop\n      jump\t// out\n        /* \"#utility.yul\":881:1226   */\n    tag_5:\n        /* \"#utility.yul\":948:954   */\n      0x00\n        /* \"#utility.yul\":997:999   */\n      0x20\n        /* \"#utility.yul\":985:994   */\n      dup3\n        /* \"#utility.yul\":976:983   */\n      dup5\n        /* \"#utility.yul\":972:995   */\n      sub\n        /* \"#utility.yul\":968:1000   */\n      slt\n        /* \"#utility.yul\":965:1084   */\n      iszero\n      tag_36\n      jumpi\n        /* \"#utility.yul\":1003:1082   */\n      tag_37\n      tag_14\n      jump\t// in\n    tag_37:\n        /* \"#utility.yul\":965:1084   */\n    tag_36:\n        /* \"#utility.yul\":1123:1124   */\n      0x00\n        /* \"#utility.yul\":1148:1209   */\n      tag_38\n        /* \"#utility.yul\":1201:1208   */\n      dup5\n        /* \"#utility.yul\":1192:1198   */\n      dup3\n        /* \"#utility.yul\":1181:1190   */\n      dup6\n        /* \"#utility.yul\":1177:1199   */\n      add\n        /* \"#utility.yul\":1148:1209   */\n      tag_19\n      jump\t// in\n    tag_38:\n        /* \"#utility.yul\":1138:1209   */\n      swap2\n      pop\n        /* \"#utility.yul\":1094:1219   */\n      pop\n        /* \"#utility.yul\":881:1226   */\n      swap3\n      swap2\n      pop\n      pop\n      jump\t// out\n        /* \"#utility.yul\":1232:1379   */\n    tag_20:\n        /* \"#utility.yul\":1333:1344   */\n      0x00\n        /* \"#utility.yul\":1370:1373   */\n      dup2\n        /* \"#utility.yul\":1355:1373   */\n      swap1\n      pop\n        /* \"#utility.yul\":1232:1379   */\n      swap3\n      swap2\n      pop\n      pop\n      jump\t// out\n        /* \"#utility.yul\":1385:1499   */\n    tag_21:\n      pop\n      jump\t// out\n        /* \"#utility.yul\":1505:1903   */\n    tag_22:\n        /* \"#utility.yul\":1664:1667   */\n      0x00\n        /* \"#utility.yul\":1685:1768   */\n      tag_42\n        /* \"#utility.yul\":1766:1767   */\n      0x00\n        /* \"#utility.yul\":1761:1764   */\n      dup4\n        /* \"#utility.yul\":1685:1768   */\n      tag_20\n      jump\t// in\n    tag_42:\n        /* \"#utility.yul\":1678:1768   */\n      swap2\n      pop\n        /* \"#utility.yul\":1777:1870   */\n      tag_43\n        /* \"#utility.yul\":1866:1869   */\n      dup3\n        /* \"#utility.yul\":1777:1870   */\n      tag_21\n      jump\t// in\n    tag_43:\n        /* \"#utility.yul\":1895:1896   */\n      0x00\n        /* \"#utility.yul\":1890:1893   */\n      dup3\n        /* \"#utility.yul\":1886:1897   */\n      add\n        /* \"#utility.yul\":1879:1897   */\n      swap1\n      pop\n        /* \"#utility.yul\":1505:1903   */\n      swap2\n      swap1\n      pop\n      jump\t// out\n        /* \"#utility.yul\":1909:2288   */\n    tag_9:\n        /* \"#utility.yul\":2093:2096   */\n      0x00\n        /* \"#utility.yul\":2115:2262   */\n      tag_45\n        /* \"#utility.yul\":2258:2261   */\n      dup3\n        /* \"#utility.yul\":2115:2262   */\n      tag_22\n      jump\t// in\n    tag_45:\n        /* \"#utility.yul\":2108:2262   */\n      swap2\n      pop\n        /* \"#utility.yul\":2279:2282   */\n      dup2\n        /* \"#utility.yul\":2272:2282   */\n      swap1\n      pop\n        /* \"#utility.yul\":1909:2288   */\n      swap2\n      swap1\n      pop\n      jump\t// out\n\n    auxdata: 0xa2646970667358221220863d0d034c4403aa796fdf2099b46b3a35777a24704bd459a877a302b50720e764736f6c63430008110033\n}\n",
				"bytecode": {
					"linkReferences": {},
					"object": "608060405234801561001057600080fd5b506101be806100206000396000f3fe60806040526004361061001e5760003560e01c8063f340fa0114610023575b600080fd5b61003d60048036038101906100389190610115565b61003f565b005b6000808273ffffffffffffffffffffffffffffffffffffffff163460405161006690610173565b60006040518083038185875af1925050503d80600081146100a3576040519150601f19603f3d011682016040523d82523d6000602084013e6100a8565b606091505b5091509150505050565b600080fd5b600073ffffffffffffffffffffffffffffffffffffffff82169050919050565b60006100e2826100b7565b9050919050565b6100f2816100d7565b81146100fd57600080fd5b50565b60008135905061010f816100e9565b92915050565b60006020828403121561012b5761012a6100b2565b5b600061013984828501610100565b91505092915050565b600081905092915050565b50565b600061015d600083610142565b91506101688261014d565b600082019050919050565b600061017e82610150565b915081905091905056fea2646970667358221220863d0d034c4403aa796fdf2099b46b3a35777a24704bd459a877a302b50720e764736f6c63430008110033",
					"opcodes": "PUSH1 0x80 PUSH1 0x40 MSTORE CALLVALUE DUP1 ISZERO PUSH2 0x10 JUMPI PUSH1 0x0 DUP1 REVERT JUMPDEST POP PUSH2 0x1BE DUP1 PUSH2 0x20 PUSH1 0x0 CODECOPY PUSH1 0x0 RETURN INVALID PUSH1 0x80 PUSH1 0x40 MSTORE PUSH1 0x4 CALLDATASIZE LT PUSH2 0x1E JUMPI PUSH1 0x0 CALLDATALOAD PUSH1 0xE0 SHR DUP1 PUSH4 0xF340FA01 EQ PUSH2 0x23 JUMPI JUMPDEST PUSH1 0x0 DUP1 REVERT JUMPDEST PUSH2 0x3D PUSH1 0x4 DUP1 CALLDATASIZE SUB DUP2 ADD SWAP1 PUSH2 0x38 SWAP2 SWAP1 PUSH2 0x115 JUMP JUMPDEST PUSH2 0x3F JUMP JUMPDEST STOP JUMPDEST PUSH1 0x0 DUP1 DUP3 PUSH20 0xFFFFFFFFFFFFFFFFFFFFFFFFFFFFFFFFFFFFFFFF AND CALLVALUE PUSH1 0x40 MLOAD PUSH2 0x66 SWAP1 PUSH2 0x173 JUMP JUMPDEST PUSH1 0x0 PUSH1 0x40 MLOAD DUP1 DUP4 SUB DUP2 DUP6 DUP8 GAS CALL SWAP3 POP POP POP RETURNDATASIZE DUP1 PUSH1 0x0 DUP2 EQ PUSH2 0xA3 JUMPI PUSH1 0x40 MLOAD SWAP2 POP PUSH1 0x1F NOT PUSH1 0x3F RETURNDATASIZE ADD AND DUP3 ADD PUSH1 0x40 MSTORE RETURNDATASIZE DUP3 MSTORE RETURNDATASIZE PUSH1 0x0 PUSH1 0x20 DUP5 ADD RETURNDATACOPY PUSH2 0xA8 JUMP JUMPDEST PUSH1 0x60 SWAP2 POP JUMPDEST POP SWAP2 POP SWAP2 POP POP POP POP JUMP JUMPDEST PUSH1 0x0 DUP1 REVERT JUMPDEST PUSH1 0x0 PUSH20 0xFFFFFFFFFFFFFFFFFFFFFFFFFFFFFFFFFFFFFFFF DUP3 AND SWAP1 POP SWAP2 SWAP1 POP JUMP JUMPDEST PUSH1 0x0 PUSH2 0xE2 DUP3 PUSH2 0xB7 JUMP JUMPDEST SWAP1 POP SWAP2 SWAP1 POP JUMP JUMPDEST PUSH2 0xF2 DUP2 PUSH2 0xD7 JUMP JUMPDEST DUP2 EQ PUSH2 0xFD JUMPI PUSH1 0x0 DUP1 REVERT JUMPDEST POP JUMP JUMPDEST PUSH1 0x0 DUP2 CALLDATALOAD SWAP1 POP PUSH2 0x10F DUP2 PUSH2 0xE9 JUMP JUMPDEST SWAP3 SWAP2 POP POP JUMP JUMPDEST PUSH1 0x0 PUSH1 0x20 DUP3 DUP5 SUB SLT ISZERO PUSH2 0x12B JUMPI PUSH2 0x12A PUSH2 0xB2 JUMP JUMPDEST JUMPDEST PUSH1 0x0 PUSH2 0x139 DUP5 DUP3 DUP6 ADD PUSH2 0x100 JUMP JUMPDEST SWAP2 POP POP SWAP3 SWAP2 POP POP JUMP JUMPDEST PUSH1 0x0 DUP2 SWAP1 POP SWAP3 SWAP2 POP POP JUMP JUMPDEST POP JUMP JUMPDEST PUSH1 0x0 PUSH2 0x15D PUSH1 0x0 DUP4 PUSH2 0x142 JUMP JUMPDEST SWAP2 POP PUSH2 0x168 DUP3 PUSH2 0x14D JUMP JUMPDEST PUSH1 0x0 DUP3 ADD SWAP1 POP SWAP2 SWAP1 POP JUMP JUMPDEST PUSH1 0x0 PUSH2 0x17E DUP3 PUSH2 0x150 JUMP JUMPDEST SWAP2 POP DUP2 SWAP1 POP SWAP2 SWAP1 POP JUMP INVALID LOG2 PUSH5 0x6970667358 0x22 SLT KECCAK256 DUP7 RETURNDATASIZE 0xD SUB 0x4C DIFFICULTY SUB 0xAA PUSH26 0x6FDF2099B46B3A35777A24704BD459A877A302B50720E764736F PUSH13 0x63430008110033000000000000 "
				},
				"gasEstimates": {
					"creation": {
						"codeDepositCost": "89200",
						"executionCost": "135",
						"totalCost": "89335"
					},
					"external": {
						"deposit(address)": "infinite"
					}
				},
				"methodIdentifiers": {
					"deposit(address)": "f340fa01"
				}
			},
			"storageLayout": {
				"storage": [],
				"types": null
			},
			"userdoc": {
				"kind": "user",
				"methods": {},
				"version": 1
			}
		}
	}
}