{
	"day5/Delegatecall.sol": {
		"Caller": {
			"abi": [
				{
					"inputs": [
						{
							"internalType": "address",
							"name": "target",
							"type": "address"
						},
						{
							"internalType": "uint256",
							"name": "_num",
							"type": "uint256"
						}
					],
					"name": "call",
					"outputs": [
						{
							"internalType": "bool",
							"name": "",
							"type": "bool"
						},
						{
							"internalType": "bytes",
							"name": "",
							"type": "bytes"
						}
					],
					"stateMutability": "nonpayable",
					"type": "function"
				}
			],
			"devdoc": {
				"kind": "dev",
				"methods": {},
				"version": 1
			},
			"evm": {
				"assembly": "    /* \"day5/Delegatecall.sol\":27:283  contract Caller{... */\n  mstore(0x40, 0x80)\n  callvalue\n  dup1\n  iszero\n  tag_1\n  jumpi\n  0x00\n  dup1\n  revert\ntag_1:\n  pop\n  dataSize(sub_0)\n  dup1\n  dataOffset(sub_0)\n  0x00\n  codecopy\n  0x00\n  return\nstop\n\nsub_0: assembly {\n        /* \"day5/Delegatecall.sol\":27:283  contract Caller{... */\n      mstore(0x40, 0x80)\n      callvalue\n      dup1\n      iszero\n      tag_1\n      jumpi\n      0x00\n      dup1\n      revert\n    tag_1:\n      pop\n      jumpi(tag_2, lt(calldatasize, 0x04))\n      shr(0xe0, calldataload(0x00))\n      dup1\n      0x3bd9ef28\n      eq\n      tag_3\n      jumpi\n    tag_2:\n      0x00\n      dup1\n      revert\n        /* \"day5/Delegatecall.sol\":49:280  function call(address target ,uint _num) public returns (bool,bytes memory){... */\n    tag_3:\n      tag_4\n      0x04\n      dup1\n      calldatasize\n      sub\n      dup2\n      add\n      swap1\n      tag_5\n      swap2\n      swap1\n      tag_6\n      jump\t// in\n    tag_5:\n      tag_7\n      jump\t// in\n    tag_4:\n      mload(0x40)\n      tag_8\n      swap3\n      swap2\n      swap1\n      tag_9\n      jump\t// in\n    tag_8:\n      mload(0x40)\n      dup1\n      swap2\n      sub\n      swap1\n      return\n    tag_7:\n        /* \"day5/Delegatecall.sol\":106:110  bool */\n      0x00\n        /* \"day5/Delegatecall.sol\":111:123  bytes memory */\n      0x60\n        /* \"day5/Delegatecall.sol\":135:147  bool success */\n      0x00\n        /* \"day5/Delegatecall.sol\":148:167  bytes memory result */\n      dup1\n        /* \"day5/Delegatecall.sol\":172:178  target */\n      dup6\n        /* \"day5/Delegatecall.sol\":172:191  target.delegatecall */\n      0xffffffffffffffffffffffffffffffffffffffff\n      and\n        /* \"day5/Delegatecall.sol\":232:236  _num */\n      dup6\n        /* \"day5/Delegatecall.sol\":192:237  abi.encodeWithSignature(\"setN(uint256)\",_num) */\n      add(0x24, mload(0x40))\n      tag_11\n      swap2\n      swap1\n      tag_12\n      jump\t// in\n    tag_11:\n      mload(0x40)\n      0x20\n      dup2\n      dup4\n      sub\n      sub\n      dup2\n      mstore\n      swap1\n      0x40\n      mstore\n      and(not(0xffffffffffffffffffffffffffffffffffffffffffffffffffffffff), 0x3f7a027000000000000000000000000000000000000000000000000000000000)\n      0x20\n      dup3\n      add\n      dup1\n      mload\n      0xffffffffffffffffffffffffffffffffffffffffffffffffffffffff\n      dup4\n      dup2\n      dup4\n      and\n      or\n      dup4\n      mstore\n      pop\n      pop\n      pop\n      pop\n        /* \"day5/Delegatecall.sol\":172:238  target.delegatecall(abi.encodeWithSignature(\"setN(uint256)\",_num)) */\n      mload(0x40)\n      tag_13\n      swap2\n      swap1\n      tag_14\n      jump\t// in\n    tag_13:\n      0x00\n      mload(0x40)\n      dup1\n      dup4\n      sub\n      dup2\n      dup6\n      gas\n      delegatecall\n      swap2\n      pop\n      pop\n      returndatasize\n      dup1\n      0x00\n      dup2\n      eq\n      tag_17\n      jumpi\n      mload(0x40)\n      swap2\n      pop\n      and(add(returndatasize, 0x3f), not(0x1f))\n      dup3\n      add\n      0x40\n      mstore\n      returndatasize\n      dup3\n      mstore\n      returndatasize\n      0x00\n      0x20\n      dup5\n      add\n      returndatacopy\n      jump(tag_16)\n    tag_17:\n      0x60\n      swap2\n      pop\n    tag_16:\n      pop\n        /* \"day5/Delegatecall.sol\":134:238  (bool success,bytes memory result) =  target.delegatecall(abi.encodeWithSignature(\"setN(uint256)\",_num)) */\n      swap2\n      pop\n      swap2\n      pop\n        /* \"day5/Delegatecall.sol\":257:264  success */\n      dup2\n        /* \"day5/Delegatecall.sol\":265:271  result */\n      dup2\n        /* \"day5/Delegatecall.sol\":249:272  return (success,result) */\n      swap4\n      pop\n      swap4\n      pop\n      pop\n      pop\n        /* \"day5/Delegatecall.sol\":49:280  function call(address target ,uint _num) public returns (bool,bytes memory){... */\n      swap3\n      pop\n      swap3\n      swap1\n      pop\n      jump\t// out\n        /* \"#utility.yul\":88:205   */\n    tag_19:\n        /* \"#utility.yul\":197:198   */\n      0x00\n        /* \"#utility.yul\":194:195   */\n      dup1\n        /* \"#utility.yul\":187:199   */\n      revert\n        /* \"#utility.yul\":334:460   */\n    tag_21:\n        /* \"#utility.yul\":371:378   */\n      0x00\n        /* \"#utility.yul\":411:453   */\n      0xffffffffffffffffffffffffffffffffffffffff\n        /* \"#utility.yul\":404:409   */\n      dup3\n        /* \"#utility.yul\":400:454   */\n      and\n        /* \"#utility.yul\":389:454   */\n      swap1\n      pop\n        /* \"#utility.yul\":334:460   */\n      swap2\n      swap1\n      pop\n      jump\t// out\n        /* \"#utility.yul\":466:562   */\n    tag_22:\n        /* \"#utility.yul\":503:510   */\n      0x00\n        /* \"#utility.yul\":532:556   */\n      tag_44\n        /* \"#utility.yul\":550:555   */\n      dup3\n        /* \"#utility.yul\":532:556   */\n      tag_21\n      jump\t// in\n    tag_44:\n        /* \"#utility.yul\":521:556   */\n      swap1\n      pop\n        /* \"#utility.yul\":466:562   */\n      swap2\n      swap1\n      pop\n      jump\t// out\n        /* \"#utility.yul\":568:690   */\n    tag_23:\n        /* \"#utility.yul\":641:665   */\n      tag_46\n        /* \"#utility.yul\":659:664   */\n      dup2\n        /* \"#utility.yul\":641:665   */\n      tag_22\n      jump\t// in\n    tag_46:\n        /* \"#utility.yul\":634:639   */\n      dup2\n        /* \"#utility.yul\":631:666   */\n      eq\n        /* \"#utility.yul\":621:684   */\n      tag_47\n      jumpi\n        /* \"#utility.yul\":680:681   */\n      0x00\n        /* \"#utility.yul\":677:678   */\n      dup1\n        /* \"#utility.yul\":670:682   */\n      revert\n        /* \"#utility.yul\":621:684   */\n    tag_47:\n        /* \"#utility.yul\":568:690   */\n      pop\n      jump\t// out\n        /* \"#utility.yul\":696:835   */\n    tag_24:\n        /* \"#utility.yul\":742:747   */\n      0x00\n        /* \"#utility.yul\":780:786   */\n      dup2\n        /* \"#utility.yul\":767:787   */\n      calldataload\n        /* \"#utility.yul\":758:787   */\n      swap1\n      pop\n        /* \"#utility.yul\":796:829   */\n      tag_49\n        /* \"#utility.yul\":823:828   */\n      dup2\n        /* \"#utility.yul\":796:829   */\n      tag_23\n      jump\t// in\n    tag_49:\n        /* \"#utility.yul\":696:835   */\n      swap3\n      swap2\n      pop\n      pop\n      jump\t// out\n        /* \"#utility.yul\":841:918   */\n    tag_25:\n        /* \"#utility.yul\":878:885   */\n      0x00\n        /* \"#utility.yul\":907:912   */\n      dup2\n        /* \"#utility.yul\":896:912   */\n      swap1\n      pop\n        /* \"#utility.yul\":841:918   */\n      swap2\n      swap1\n      pop\n      jump\t// out\n        /* \"#utility.yul\":924:1046   */\n    tag_26:\n        /* \"#utility.yul\":997:1021   */\n      tag_52\n        /* \"#utility.yul\":1015:1020   */\n      dup2\n        /* \"#utility.yul\":997:1021   */\n      tag_25\n      jump\t// in\n    tag_52:\n        /* \"#utility.yul\":990:995   */\n      dup2\n        /* \"#utility.yul\":987:1022   */\n      eq\n        /* \"#utility.yul\":977:1040   */\n      tag_53\n      jumpi\n        /* \"#utility.yul\":1036:1037   */\n      0x00\n        /* \"#utility.yul\":1033:1034   */\n      dup1\n        /* \"#utility.yul\":1026:1038   */\n      revert\n        /* \"#utility.yul\":977:1040   */\n    tag_53:\n        /* \"#utility.yul\":924:1046   */\n      pop\n      jump\t// out\n        /* \"#utility.yul\":1052:1191   */\n    tag_27:\n        /* \"#utility.yul\":1098:1103   */\n      0x00\n        /* \"#utility.yul\":1136:1142   */\n      dup2\n        /* \"#utility.yul\":1123:1143   */\n      calldataload\n        /* \"#utility.yul\":1114:1143   */\n      swap1\n      pop\n        /* \"#utility.yul\":1152:1185   */\n      tag_55\n        /* \"#utility.yul\":1179:1184   */\n      dup2\n        /* \"#utility.yul\":1152:1185   */\n      tag_26\n      jump\t// in\n    tag_55:\n        /* \"#utility.yul\":1052:1191   */\n      swap3\n      swap2\n      pop\n      pop\n      jump\t// out\n        /* \"#utility.yul\":1197:1671   */\n    tag_6:\n        /* \"#utility.yul\":1265:1271   */\n      0x00\n        /* \"#utility.yul\":1273:1279   */\n      dup1\n        /* \"#utility.yul\":1322:1324   */\n      0x40\n        /* \"#utility.yul\":1310:1319   */\n      dup4\n        /* \"#utility.yul\":1301:1308   */\n      dup6\n        /* \"#utility.yul\":1297:1320   */\n      sub\n        /* \"#utility.yul\":1293:1325   */\n      slt\n        /* \"#utility.yul\":1290:1409   */\n      iszero\n      tag_57\n      jumpi\n        /* \"#utility.yul\":1328:1407   */\n      tag_58\n      tag_19\n      jump\t// in\n    tag_58:\n        /* \"#utility.yul\":1290:1409   */\n    tag_57:\n        /* \"#utility.yul\":1448:1449   */\n      0x00\n        /* \"#utility.yul\":1473:1526   */\n      tag_59\n        /* \"#utility.yul\":1518:1525   */\n      dup6\n        /* \"#utility.yul\":1509:1515   */\n      dup3\n        /* \"#utility.yul\":1498:1507   */\n      dup7\n        /* \"#utility.yul\":1494:1516   */\n      add\n        /* \"#utility.yul\":1473:1526   */\n      tag_24\n      jump\t// in\n    tag_59:\n        /* \"#utility.yul\":1463:1526   */\n      swap3\n      pop\n        /* \"#utility.yul\":1419:1536   */\n      pop\n        /* \"#utility.yul\":1575:1577   */\n      0x20\n        /* \"#utility.yul\":1601:1654   */\n      tag_60\n        /* \"#utility.yul\":1646:1653   */\n      dup6\n        /* \"#utility.yul\":1637:1643   */\n      dup3\n        /* \"#utility.yul\":1626:1635   */\n      dup7\n        /* \"#utility.yul\":1622:1644   */\n      add\n        /* \"#utility.yul\":1601:1654   */\n      tag_27\n      jump\t// in\n    tag_60:\n        /* \"#utility.yul\":1591:1654   */\n      swap2\n      pop\n        /* \"#utility.yul\":1546:1664   */\n      pop\n        /* \"#utility.yul\":1197:1671   */\n      swap3\n      pop\n      swap3\n      swap1\n      pop\n      jump\t// out\n        /* \"#utility.yul\":1677:1767   */\n    tag_28:\n        /* \"#utility.yul\":1711:1718   */\n      0x00\n        /* \"#utility.yul\":1754:1759   */\n      dup2\n        /* \"#utility.yul\":1747:1760   */\n      iszero\n        /* \"#utility.yul\":1740:1761   */\n      iszero\n        /* \"#utility.yul\":1729:1761   */\n      swap1\n      pop\n        /* \"#utility.yul\":1677:1767   */\n      swap2\n      swap1\n      pop\n      jump\t// out\n        /* \"#utility.yul\":1773:1882   */\n    tag_29:\n        /* \"#utility.yul\":1854:1875   */\n      tag_63\n        /* \"#utility.yul\":1869:1874   */\n      dup2\n        /* \"#utility.yul\":1854:1875   */\n      tag_28\n      jump\t// in\n    tag_63:\n        /* \"#utility.yul\":1849:1852   */\n      dup3\n        /* \"#utility.yul\":1842:1876   */\n      mstore\n        /* \"#utility.yul\":1773:1882   */\n      pop\n      pop\n      jump\t// out\n        /* \"#utility.yul\":1888:1986   */\n    tag_30:\n        /* \"#utility.yul\":1939:1945   */\n      0x00\n        /* \"#utility.yul\":1973:1978   */\n      dup2\n        /* \"#utility.yul\":1967:1979   */\n      mload\n        /* \"#utility.yul\":1957:1979   */\n      swap1\n      pop\n        /* \"#utility.yul\":1888:1986   */\n      swap2\n      swap1\n      pop\n      jump\t// out\n        /* \"#utility.yul\":1992:2160   */\n    tag_31:\n        /* \"#utility.yul\":2075:2086   */\n      0x00\n        /* \"#utility.yul\":2109:2115   */\n      dup3\n        /* \"#utility.yul\":2104:2107   */\n      dup3\n        /* \"#utility.yul\":2097:2116   */\n      mstore\n        /* \"#utility.yul\":2149:2153   */\n      0x20\n        /* \"#utility.yul\":2144:2147   */\n      dup3\n        /* \"#utility.yul\":2140:2154   */\n      add\n        /* \"#utility.yul\":2125:2154   */\n      swap1\n      pop\n        /* \"#utility.yul\":1992:2160   */\n      swap3\n      swap2\n      pop\n      pop\n      jump\t// out\n        /* \"#utility.yul\":2166:2412   */\n    tag_32:\n        /* \"#utility.yul\":2247:2248   */\n      0x00\n        /* \"#utility.yul\":2257:2370   */\n    tag_67:\n        /* \"#utility.yul\":2271:2277   */\n      dup4\n        /* \"#utility.yul\":2268:2269   */\n      dup2\n        /* \"#utility.yul\":2265:2278   */\n      lt\n        /* \"#utility.yul\":2257:2370   */\n      iszero\n      tag_69\n      jumpi\n        /* \"#utility.yul\":2356:2357   */\n      dup1\n        /* \"#utility.yul\":2351:2354   */\n      dup3\n        /* \"#utility.yul\":2347:2358   */\n      add\n        /* \"#utility.yul\":2341:2359   */\n      mload\n        /* \"#utility.yul\":2337:2338   */\n      dup2\n        /* \"#utility.yul\":2332:2335   */\n      dup5\n        /* \"#utility.yul\":2328:2339   */\n      add\n        /* \"#utility.yul\":2321:2360   */\n      mstore\n        /* \"#utility.yul\":2293:2295   */\n      0x20\n        /* \"#utility.yul\":2290:2291   */\n      dup2\n        /* \"#utility.yul\":2286:2296   */\n      add\n        /* \"#utility.yul\":2281:2296   */\n      swap1\n      pop\n        /* \"#utility.yul\":2257:2370   */\n      jump(tag_67)\n    tag_69:\n        /* \"#utility.yul\":2404:2405   */\n      0x00\n        /* \"#utility.yul\":2395:2401   */\n      dup5\n        /* \"#utility.yul\":2390:2393   */\n      dup5\n        /* \"#utility.yul\":2386:2402   */\n      add\n        /* \"#utility.yul\":2379:2406   */\n      mstore\n        /* \"#utility.yul\":2228:2412   */\n      pop\n        /* \"#utility.yul\":2166:2412   */\n      pop\n      pop\n      pop\n      jump\t// out\n        /* \"#utility.yul\":2418:2520   */\n    tag_33:\n        /* \"#utility.yul\":2459:2465   */\n      0x00\n        /* \"#utility.yul\":2510:2512   */\n      0x1f\n        /* \"#utility.yul\":2506:2513   */\n      not\n        /* \"#utility.yul\":2501:2503   */\n      0x1f\n        /* \"#utility.yul\":2494:2499   */\n      dup4\n        /* \"#utility.yul\":2490:2504   */\n      add\n        /* \"#utility.yul\":2486:2514   */\n      and\n        /* \"#utility.yul\":2476:2514   */\n      swap1\n      pop\n        /* \"#utility.yul\":2418:2520   */\n      swap2\n      swap1\n      pop\n      jump\t// out\n        /* \"#utility.yul\":2526:2899   */\n    tag_34:\n        /* \"#utility.yul\":2612:2615   */\n      0x00\n        /* \"#utility.yul\":2640:2678   */\n      tag_72\n        /* \"#utility.yul\":2672:2677   */\n      dup3\n        /* \"#utility.yul\":2640:2678   */\n      tag_30\n      jump\t// in\n    tag_72:\n        /* \"#utility.yul\":2694:2764   */\n      tag_73\n        /* \"#utility.yul\":2757:2763   */\n      dup2\n        /* \"#utility.yul\":2752:2755   */\n      dup6\n        /* \"#utility.yul\":2694:2764   */\n      tag_31\n      jump\t// in\n    tag_73:\n        /* \"#utility.yul\":2687:2764   */\n      swap4\n      pop\n        /* \"#utility.yul\":2773:2838   */\n      tag_74\n        /* \"#utility.yul\":2831:2837   */\n      dup2\n        /* \"#utility.yul\":2826:2829   */\n      dup6\n        /* \"#utility.yul\":2819:2823   */\n      0x20\n        /* \"#utility.yul\":2812:2817   */\n      dup7\n        /* \"#utility.yul\":2808:2824   */\n      add\n        /* \"#utility.yul\":2773:2838   */\n      tag_32\n      jump\t// in\n    tag_74:\n        /* \"#utility.yul\":2863:2892   */\n      tag_75\n        /* \"#utility.yul\":2885:2891   */\n      dup2\n        /* \"#utility.yul\":2863:2892   */\n      tag_33\n      jump\t// in\n    tag_75:\n        /* \"#utility.yul\":2858:2861   */\n      dup5\n        /* \"#utility.yul\":2854:2893   */\n      add\n        /* \"#utility.yul\":2847:2893   */\n      swap2\n      pop\n        /* \"#utility.yul\":2616:2899   */\n      pop\n        /* \"#utility.yul\":2526:2899   */\n      swap3\n      swap2\n      pop\n      pop\n      jump\t// out\n        /* \"#utility.yul\":2905:3312   */\n    tag_9:\n        /* \"#utility.yul\":3038:3042   */\n      0x00\n        /* \"#utility.yul\":3076:3078   */\n      0x40\n        /* \"#utility.yul\":3065:3074   */\n      dup3\n        /* \"#utility.yul\":3061:3079   */\n      add\n        /* \"#utility.yul\":3053:3079   */\n      swap1\n      pop\n        /* \"#utility.yul\":3089:3154   */\n      tag_77\n        /* \"#utility.yul\":3151:3152   */\n      0x00\n        /* \"#utility.yul\":3140:3149   */\n      dup4\n        /* \"#utility.yul\":3136:3153   */\n      add\n        /* \"#utility.yul\":3127:3133   */\n      dup6\n        /* \"#utility.yul\":3089:3154   */\n      tag_29\n      jump\t// in\n    tag_77:\n        /* \"#utility.yul\":3201:3210   */\n      dup2\n        /* \"#utility.yul\":3195:3199   */\n      dup2\n        /* \"#utility.yul\":3191:3211   */\n      sub\n        /* \"#utility.yul\":3186:3188   */\n      0x20\n        /* \"#utility.yul\":3175:3184   */\n      dup4\n        /* \"#utility.yul\":3171:3189   */\n      add\n        /* \"#utility.yul\":3164:3212   */\n      mstore\n        /* \"#utility.yul\":3229:3305   */\n      tag_78\n        /* \"#utility.yul\":3300:3304   */\n      dup2\n        /* \"#utility.yul\":3291:3297   */\n      dup5\n        /* \"#utility.yul\":3229:3305   */\n      tag_34\n      jump\t// in\n    tag_78:\n        /* \"#utility.yul\":3221:3305   */\n      swap1\n      pop\n        /* \"#utility.yul\":2905:3312   */\n      swap4\n      swap3\n      pop\n      pop\n      pop\n      jump\t// out\n        /* \"#utility.yul\":3318:3436   */\n    tag_35:\n        /* \"#utility.yul\":3405:3429   */\n      tag_80\n        /* \"#utility.yul\":3423:3428   */\n      dup2\n        /* \"#utility.yul\":3405:3429   */\n      tag_25\n      jump\t// in\n    tag_80:\n        /* \"#utility.yul\":3400:3403   */\n      dup3\n        /* \"#utility.yul\":3393:3430   */\n      mstore\n        /* \"#utility.yul\":3318:3436   */\n      pop\n      pop\n      jump\t// out\n        /* \"#utility.yul\":3442:3664   */\n    tag_12:\n        /* \"#utility.yul\":3535:3539   */\n      0x00\n        /* \"#utility.yul\":3573:3575   */\n      0x20\n        /* \"#utility.yul\":3562:3571   */\n      dup3\n        /* \"#utility.yul\":3558:3576   */\n      add\n        /* \"#utility.yul\":3550:3576   */\n      swap1\n      pop\n        /* \"#utility.yul\":3586:3657   */\n      tag_82\n        /* \"#utility.yul\":3654:3655   */\n      0x00\n        /* \"#utility.yul\":3643:3652   */\n      dup4\n        /* \"#utility.yul\":3639:3656   */\n      add\n        /* \"#utility.yul\":3630:3636   */\n      dup5\n        /* \"#utility.yul\":3586:3657   */\n      tag_35\n      jump\t// in\n    tag_82:\n        /* \"#utility.yul\":3442:3664   */\n      swap3\n      swap2\n      pop\n      pop\n      jump\t// out\n        /* \"#utility.yul\":3670:3817   */\n    tag_36:\n        /* \"#utility.yul\":3771:3782   */\n      0x00\n        /* \"#utility.yul\":3808:3811   */\n      dup2\n        /* \"#utility.yul\":3793:3811   */\n      swap1\n      pop\n        /* \"#utility.yul\":3670:3817   */\n      swap3\n      swap2\n      pop\n      pop\n      jump\t// out\n        /* \"#utility.yul\":3823:4209   */\n    tag_37:\n        /* \"#utility.yul\":3927:3930   */\n      0x00\n        /* \"#utility.yul\":3955:3993   */\n      tag_85\n        /* \"#utility.yul\":3987:3992   */\n      dup3\n        /* \"#utility.yul\":3955:3993   */\n      tag_30\n      jump\t// in\n    tag_85:\n        /* \"#utility.yul\":4009:4097   */\n      tag_86\n        /* \"#utility.yul\":4090:4096   */\n      dup2\n        /* \"#utility.yul\":4085:4088   */\n      dup6\n        /* \"#utility.yul\":4009:4097   */\n      tag_36\n      jump\t// in\n    tag_86:\n        /* \"#utility.yul\":4002:4097   */\n      swap4\n      pop\n        /* \"#utility.yul\":4106:4171   */\n      tag_87\n        /* \"#utility.yul\":4164:4170   */\n      dup2\n        /* \"#utility.yul\":4159:4162   */\n      dup6\n        /* \"#utility.yul\":4152:4156   */\n      0x20\n        /* \"#utility.yul\":4145:4150   */\n      dup7\n        /* \"#utility.yul\":4141:4157   */\n      add\n        /* \"#utility.yul\":4106:4171   */\n      tag_32\n      jump\t// in\n    tag_87:\n        /* \"#utility.yul\":4196:4202   */\n      dup1\n        /* \"#utility.yul\":4191:4194   */\n      dup5\n        /* \"#utility.yul\":4187:4203   */\n      add\n        /* \"#utility.yul\":4180:4203   */\n      swap2\n      pop\n        /* \"#utility.yul\":3931:4209   */\n      pop\n        /* \"#utility.yul\":3823:4209   */\n      swap3\n      swap2\n      pop\n      pop\n      jump\t// out\n        /* \"#utility.yul\":4215:4486   */\n    tag_14:\n        /* \"#utility.yul\":4345:4348   */\n      0x00\n        /* \"#utility.yul\":4367:4460   */\n      tag_89\n        /* \"#utility.yul\":4456:4459   */\n      dup3\n        /* \"#utility.yul\":4447:4453   */\n      dup5\n        /* \"#utility.yul\":4367:4460   */\n      tag_37\n      jump\t// in\n    tag_89:\n        /* \"#utility.yul\":4360:4460   */\n      swap2\n      pop\n        /* \"#utility.yul\":4477:4480   */\n      dup2\n        /* \"#utility.yul\":4470:4480   */\n      swap1\n      pop\n        /* \"#utility.yul\":4215:4486   */\n      swap3\n      swap2\n      pop\n      pop\n      jump\t// out\n\n    auxdata: 0xa264697066735822122063fc4eb52691a1b865ad4f2a81e7c97c6b70ed845cdc7bdda8a308d50be9270f64736f6c63430008110033\n}\n",
				"bytecode": {
					"linkReferences": {},
					"object": "608060405234801561001057600080fd5b506103d5806100206000396000f3fe608060405234801561001057600080fd5b506004361061002b5760003560e01c80633bd9ef2814610030575b600080fd5b61004a60048036038101906100459190610207565b610061565b6040516100589291906102f2565b60405180910390f35b600060606000808573ffffffffffffffffffffffffffffffffffffffff16856040516024016100909190610331565b6040516020818303038152906040527f3f7a0270000000000000000000000000000000000000000000000000000000007bffffffffffffffffffffffffffffffffffffffffffffffffffffffff19166020820180517bffffffffffffffffffffffffffffffffffffffffffffffffffffffff838183161783525050505060405161011a9190610388565b600060405180830381855af49150503d8060008114610155576040519150601f19603f3d011682016040523d82523d6000602084013e61015a565b606091505b509150915081819350935050509250929050565b600080fd5b600073ffffffffffffffffffffffffffffffffffffffff82169050919050565b600061019e82610173565b9050919050565b6101ae81610193565b81146101b957600080fd5b50565b6000813590506101cb816101a5565b92915050565b6000819050919050565b6101e4816101d1565b81146101ef57600080fd5b50565b600081359050610201816101db565b92915050565b6000806040838503121561021e5761021d61016e565b5b600061022c858286016101bc565b925050602061023d858286016101f2565b9150509250929050565b60008115159050919050565b61025c81610247565b82525050565b600081519050919050565b600082825260208201905092915050565b60005b8381101561029c578082015181840152602081019050610281565b60008484015250505050565b6000601f19601f8301169050919050565b60006102c482610262565b6102ce818561026d565b93506102de81856020860161027e565b6102e7816102a8565b840191505092915050565b60006040820190506103076000830185610253565b818103602083015261031981846102b9565b90509392505050565b61032b816101d1565b82525050565b60006020820190506103466000830184610322565b92915050565b600081905092915050565b600061036282610262565b61036c818561034c565b935061037c81856020860161027e565b80840191505092915050565b60006103948284610357565b91508190509291505056fea264697066735822122063fc4eb52691a1b865ad4f2a81e7c97c6b70ed845cdc7bdda8a308d50be9270f64736f6c63430008110033",
					"opcodes": "PUSH1 0x80 PUSH1 0x40 MSTORE CALLVALUE DUP1 ISZERO PUSH2 0x10 JUMPI PUSH1 0x0 DUP1 REVERT JUMPDEST POP PUSH2 0x3D5 DUP1 PUSH2 0x20 PUSH1 0x0 CODECOPY PUSH1 0x0 RETURN INVALID PUSH1 0x80 PUSH1 0x40 MSTORE CALLVALUE DUP1 ISZERO PUSH2 0x10 JUMPI PUSH1 0x0 DUP1 REVERT JUMPDEST POP PUSH1 0x4 CALLDATASIZE LT PUSH2 0x2B JUMPI PUSH1 0x0 CALLDATALOAD PUSH1 0xE0 SHR DUP1 PUSH4 0x3BD9EF28 EQ PUSH2 0x30 JUMPI JUMPDEST PUSH1 0x0 DUP1 REVERT JUMPDEST PUSH2 0x4A PUSH1 0x4 DUP1 CALLDATASIZE SUB DUP2 ADD SWAP1 PUSH2 0x45 SWAP2 SWAP1 PUSH2 0x207 JUMP JUMPDEST PUSH2 0x61 JUMP JUMPDEST PUSH1 0x40 MLOAD PUSH2 0x58 SWAP3 SWAP2 SWAP1 PUSH2 0x2F2 JUMP JUMPDEST PUSH1 0x40 MLOAD DUP1 SWAP2 SUB SWAP1 RETURN JUMPDEST PUSH1 0x0 PUSH1 0x60 PUSH1 0x0 DUP1 DUP6 PUSH20 0xFFFFFFFFFFFFFFFFFFFFFFFFFFFFFFFFFFFFFFFF AND DUP6 PUSH1 0x40 MLOAD PUSH1 0x24 ADD PUSH2 0x90 SWAP2 SWAP1 PUSH2 0x331 JUMP JUMPDEST PUSH1 0x40 MLOAD PUSH1 0x20 DUP2 DUP4 SUB SUB DUP2 MSTORE SWAP1 PUSH1 0x40 MSTORE PUSH32 0x3F7A027000000000000000000000000000000000000000000000000000000000 PUSH28 0xFFFFFFFFFFFFFFFFFFFFFFFFFFFFFFFFFFFFFFFFFFFFFFFFFFFFFFFF NOT AND PUSH1 0x20 DUP3 ADD DUP1 MLOAD PUSH28 0xFFFFFFFFFFFFFFFFFFFFFFFFFFFFFFFFFFFFFFFFFFFFFFFFFFFFFFFF DUP4 DUP2 DUP4 AND OR DUP4 MSTORE POP POP POP POP PUSH1 0x40 MLOAD PUSH2 0x11A SWAP2 SWAP1 PUSH2 0x388 JUMP JUMPDEST PUSH1 0x0 PUSH1 0x40 MLOAD DUP1 DUP4 SUB DUP2 DUP6 GAS DELEGATECALL SWAP2 POP POP RETURNDATASIZE DUP1 PUSH1 0x0 DUP2 EQ PUSH2 0x155 JUMPI PUSH1 0x40 MLOAD SWAP2 POP PUSH1 0x1F NOT PUSH1 0x3F RETURNDATASIZE ADD AND DUP3 ADD PUSH1 0x40 MSTORE RETURNDATASIZE DUP3 MSTORE RETURNDATASIZE PUSH1 0x0 PUSH1 0x20 DUP5 ADD RETURNDATACOPY PUSH2 0x15A JUMP JUMPDEST PUSH1 0x60 SWAP2 POP JUMPDEST POP SWAP2 POP SWAP2 POP DUP2 DUP2 SWAP4 POP SWAP4 POP POP POP SWAP3 POP SWAP3 SWAP1 POP JUMP JUMPDEST PUSH1 0x0 DUP1 REVERT JUMPDEST PUSH1 0x0 PUSH20 0xFFFFFFFFFFFFFFFFFFFFFFFFFFFFFFFFFFFFFFFF DUP3 AND SWAP1 POP SWAP2 SWAP1 POP JUMP JUMPDEST PUSH1 0x0 PUSH2 0x19E DUP3 PUSH2 0x173 JUMP JUMPDEST SWAP1 POP SWAP2 SWAP1 POP JUMP JUMPDEST PUSH2 0x1AE DUP2 PUSH2 0x193 JUMP JUMPDEST DUP2 EQ PUSH2 0x1B9 JUMPI PUSH1 0x0 DUP1 REVERT JUMPDEST POP JUMP JUMPDEST PUSH1 0x0 DUP2 CALLDATALOAD SWAP1 POP PUSH2 0x1CB DUP2 PUSH2 0x1A5 JUMP JUMPDEST SWAP3 SWAP2 POP POP JUMP JUMPDEST PUSH1 0x0 DUP2 SWAP1 POP SWAP2 SWAP1 POP JUMP JUMPDEST PUSH2 0x1E4 DUP2 PUSH2 0x1D1 JUMP JUMPDEST DUP2 EQ PUSH2 0x1EF JUMPI PUSH1 0x0 DUP1 REVERT JUMPDEST POP JUMP JUMPDEST PUSH1 0x0 DUP2 CALLDATALOAD SWAP1 POP PUSH2 0x201 DUP2 PUSH2 0x1DB JUMP JUMPDEST SWAP3 SWAP2 POP POP JUMP JUMPDEST PUSH1 0x0 DUP1 PUSH1 0x40 DUP4 DUP6 SUB SLT ISZERO PUSH2 0x21E JUMPI PUSH2 0x21D PUSH2 0x16E JUMP JUMPDEST JUMPDEST PUSH1 0x0 PUSH2 0x22C DUP6 DUP3 DUP7 ADD PUSH2 0x1BC JUMP JUMPDEST SWAP3 POP POP PUSH1 0x20 PUSH2 0x23D DUP6 DUP3 DUP7 ADD PUSH2 0x1F2 JUMP JUMPDEST SWAP2 POP POP SWAP3 POP SWAP3 SWAP1 POP JUMP JUMPDEST PUSH1 0x0 DUP2 ISZERO ISZERO SWAP1 POP SWAP2 SWAP1 POP JUMP JUMPDEST PUSH2 0x25C DUP2 PUSH2 0x247 JUMP JUMPDEST DUP3 MSTORE POP POP JUMP JUMPDEST PUSH1 0x0 DUP2 MLOAD SWAP1 POP SWAP2 SWAP1 POP JUMP JUMPDEST PUSH1 0x0 DUP3 DUP3 MSTORE PUSH1 0x20 DUP3 ADD SWAP1 POP SWAP3 SWAP2 POP POP JUMP JUMPDEST PUSH1 0x0 JUMPDEST DUP4 DUP2 LT ISZERO PUSH2 0x29C JUMPI DUP1 DUP3 ADD MLOAD DUP2 DUP5 ADD MSTORE PUSH1 0x20 DUP2 ADD SWAP1 POP PUSH2 0x281 JUMP JUMPDEST PUSH1 0x0 DUP5 DUP5 ADD MSTORE POP POP POP POP JUMP JUMPDEST PUSH1 0x0 PUSH1 0x1F NOT PUSH1 0x1F DUP4 ADD AND SWAP1 POP SWAP2 SWAP1 POP JUMP JUMPDEST PUSH1 0x0 PUSH2 0x2C4 DUP3 PUSH2 0x262 JUMP JUMPDEST PUSH2 0x2CE DUP2 DUP6 PUSH2 0x26D JUMP JUMPDEST SWAP4 POP PUSH2 0x2DE DUP2 DUP6 PUSH1 0x20 DUP7 ADD PUSH2 0x27E JUMP JUMPDEST PUSH2 0x2E7 DUP2 PUSH2 0x2A8 JUMP JUMPDEST DUP5 ADD SWAP2 POP POP SWAP3 SWAP2 POP POP JUMP JUMPDEST PUSH1 0x0 PUSH1 0x40 DUP3 ADD SWAP1 POP PUSH2 0x307 PUSH1 0x0 DUP4 ADD DUP6 PUSH2 0x253 JUMP JUMPDEST DUP2 DUP2 SUB PUSH1 0x20 DUP4 ADD MSTORE PUSH2 0x319 DUP2 DUP5 PUSH2 0x2B9 JUMP JUMPDEST SWAP1 POP SWAP4 SWAP3 POP POP POP JUMP JUMPDEST PUSH2 0x32B DUP2 PUSH2 0x1D1 JUMP JUMPDEST DUP3 MSTORE POP POP JUMP JUMPDEST PUSH1 0x0 PUSH1 0x20 DUP3 ADD SWAP1 POP PUSH2 0x346 PUSH1 0x0 DUP4 ADD DUP5 PUSH2 0x322 JUMP JUMPDEST SWAP3 SWAP2 POP POP JUMP JUMPDEST PUSH1 0x0 DUP2 SWAP1 POP SWAP3 SWAP2 POP POP JUMP JUMPDEST PUSH1 0x0 PUSH2 0x362 DUP3 PUSH2 0x262 JUMP JUMPDEST PUSH2 0x36C DUP2 DUP6 PUSH2 0x34C JUMP JUMPDEST SWAP4 POP PUSH2 0x37C DUP2 DUP6 PUSH1 0x20 DUP7 ADD PUSH2 0x27E JUMP JUMPDEST DUP1 DUP5 ADD SWAP2 POP POP SWAP3 SWAP2 POP POP JUMP JUMPDEST PUSH1 0x0 PUSH2 0x394 DUP3 DUP5 PUSH2 0x357 JUMP JUMPDEST SWAP2 POP DUP2 SWAP1 POP SWAP3 SWAP2 POP POP JUMP INVALID LOG2 PUSH5 0x6970667358 0x22 SLT KECCAK256 PUSH4 0xFC4EB526 SWAP2 LOG1 0xB8 PUSH6 0xAD4F2A81E7C9 PUSH29 0x6B70ED845CDC7BDDA8A308D50BE9270F64736F6C634300081100330000 "
				},
				"gasEstimates": {
					"creation": {
						"codeDepositCost": "196200",
						"executionCost": "238",
						"totalCost": "196438"
					},
					"external": {
						"call(address,uint256)": "infinite"
					}
				},
				"methodIdentifiers": {
					"call(address,uint256)": "3bd9ef28"
				}
			},
			"storageLayout": {
				"storage": [],
				"types": null
			},
			"userdoc": {
				"kind": "user",
				"methods": {},
				"version": 1
			}
		}
	}
}